{
  "_format": "hh-sol-artifact-1",
  "contractName": "TheBadge",
  "sourceName": "src/contracts/thebadge/TheBadge.sol",
  "abi": [
    {
      "inputs": [],
      "stateMutability": "nonpayable",
      "type": "constructor"
    },
    {
      "inputs": [],
      "name": "AccessControlBadConfirmation",
      "type": "error"
    },
    {
      "inputs": [
        {
          "internalType": "address",
          "name": "account",
          "type": "address"
        },
        {
          "internalType": "bytes32",
          "name": "neededRole",
          "type": "bytes32"
        }
      ],
      "name": "AccessControlUnauthorizedAccount",
      "type": "error"
    },
    {
      "inputs": [
        {
          "internalType": "address",
          "name": "target",
          "type": "address"
        }
      ],
      "name": "AddressEmptyCode",
      "type": "error"
    },
    {
      "inputs": [
        {
          "internalType": "address",
          "name": "sender",
          "type": "address"
        },
        {
          "internalType": "uint256",
          "name": "balance",
          "type": "uint256"
        },
        {
          "internalType": "uint256",
          "name": "needed",
          "type": "uint256"
        },
        {
          "internalType": "uint256",
          "name": "tokenId",
          "type": "uint256"
        }
      ],
      "name": "ERC1155InsufficientBalance",
      "type": "error"
    },
    {
      "inputs": [
        {
          "internalType": "address",
          "name": "approver",
          "type": "address"
        }
      ],
      "name": "ERC1155InvalidApprover",
      "type": "error"
    },
    {
      "inputs": [
        {
          "internalType": "uint256",
          "name": "idsLength",
          "type": "uint256"
        },
        {
          "internalType": "uint256",
          "name": "valuesLength",
          "type": "uint256"
        }
      ],
      "name": "ERC1155InvalidArrayLength",
      "type": "error"
    },
    {
      "inputs": [
        {
          "internalType": "address",
          "name": "operator",
          "type": "address"
        }
      ],
      "name": "ERC1155InvalidOperator",
      "type": "error"
    },
    {
      "inputs": [
        {
          "internalType": "address",
          "name": "receiver",
          "type": "address"
        }
      ],
      "name": "ERC1155InvalidReceiver",
      "type": "error"
    },
    {
      "inputs": [
        {
          "internalType": "address",
          "name": "sender",
          "type": "address"
        }
      ],
      "name": "ERC1155InvalidSender",
      "type": "error"
    },
    {
      "inputs": [
        {
          "internalType": "address",
          "name": "operator",
          "type": "address"
        },
        {
          "internalType": "address",
          "name": "owner",
          "type": "address"
        }
      ],
      "name": "ERC1155MissingApprovalForAll",
      "type": "error"
    },
    {
      "inputs": [
        {
          "internalType": "address",
          "name": "implementation",
          "type": "address"
        }
      ],
      "name": "ERC1967InvalidImplementation",
      "type": "error"
    },
    {
      "inputs": [],
      "name": "ERC1967NonPayable",
      "type": "error"
    },
    {
      "inputs": [],
      "name": "EnforcedPause",
      "type": "error"
    },
    {
      "inputs": [],
      "name": "ExpectedPause",
      "type": "error"
    },
    {
      "inputs": [],
      "name": "FailedInnerCall",
      "type": "error"
    },
    {
      "inputs": [],
      "name": "InvalidInitialization",
      "type": "error"
    },
    {
      "inputs": [],
      "name": "NotInitializing",
      "type": "error"
    },
    {
      "inputs": [],
      "name": "ReentrancyGuardReentrantCall",
      "type": "error"
    },
    {
      "inputs": [],
      "name": "TheBadge__SBT",
      "type": "error"
    },
    {
      "inputs": [],
      "name": "TheBadge__calculateFee_protocolFeesInvalidValues",
      "type": "error"
    },
    {
      "inputs": [],
      "name": "TheBadge__mintInBatch_badgeModelsArrayEmpty",
      "type": "error"
    },
    {
      "inputs": [],
      "name": "TheBadge__mintInBatch_invalidParamsLength",
      "type": "error"
    },
    {
      "inputs": [],
      "name": "TheBadge__mint_creatorFeesPaymentFailed",
      "type": "error"
    },
    {
      "inputs": [],
      "name": "TheBadge__mint_protocolFeesPaymentFailed",
      "type": "error"
    },
    {
      "inputs": [],
      "name": "TheBadge__requestBadge_badgeModelIsSuspended",
      "type": "error"
    },
    {
      "inputs": [],
      "name": "TheBadge__requestBadge_badgeModelNotFound",
      "type": "error"
    },
    {
      "inputs": [],
      "name": "TheBadge__requestBadge_badgeNotClaimable",
      "type": "error"
    },
    {
      "inputs": [],
      "name": "TheBadge__requestBadge_badgeNotFound",
      "type": "error"
    },
    {
      "inputs": [],
      "name": "TheBadge__requestBadge_badgeNotMintable",
      "type": "error"
    },
    {
      "inputs": [],
      "name": "TheBadge__requestBadge_controllerIsPaused",
      "type": "error"
    },
    {
      "inputs": [],
      "name": "TheBadge__requestBadge_isDeprecated",
      "type": "error"
    },
    {
      "inputs": [],
      "name": "TheBadge__requestBadge_isPaused",
      "type": "error"
    },
    {
      "inputs": [],
      "name": "TheBadge__requestBadge_isSuspended",
      "type": "error"
    },
    {
      "inputs": [],
      "name": "TheBadge__requestBadge_wrongValue",
      "type": "error"
    },
    {
      "inputs": [],
      "name": "UUPSUnauthorizedCallContext",
      "type": "error"
    },
    {
      "inputs": [
        {
          "internalType": "bytes32",
          "name": "slot",
          "type": "bytes32"
        }
      ],
      "name": "UUPSUnsupportedProxiableUUID",
      "type": "error"
    },
    {
      "anonymous": false,
      "inputs": [
        {
          "indexed": true,
          "internalType": "address",
          "name": "account",
          "type": "address"
        },
        {
          "indexed": true,
          "internalType": "address",
          "name": "operator",
          "type": "address"
        },
        {
          "indexed": false,
          "internalType": "bool",
          "name": "approved",
          "type": "bool"
        }
      ],
      "name": "ApprovalForAll",
      "type": "event"
    },
    {
      "anonymous": false,
      "inputs": [
        {
          "indexed": true,
          "internalType": "uint256",
          "name": "badgeId",
          "type": "uint256"
        },
        {
          "indexed": true,
          "internalType": "address",
          "name": "origin",
          "type": "address"
        },
        {
          "indexed": true,
          "internalType": "address",
          "name": "destination",
          "type": "address"
        }
      ],
      "name": "BadgeClaimed",
      "type": "event"
    },
    {
      "anonymous": false,
      "inputs": [
        {
          "indexed": true,
          "internalType": "uint256",
          "name": "badgeModelID",
          "type": "uint256"
        },
        {
          "indexed": true,
          "internalType": "uint256",
          "name": "badgeID",
          "type": "uint256"
        },
        {
          "indexed": true,
          "internalType": "address",
          "name": "recipient",
          "type": "address"
        },
        {
          "indexed": false,
          "internalType": "address",
          "name": "controller",
          "type": "address"
        },
        {
          "indexed": false,
          "internalType": "uint256",
          "name": "controllerBadgeId",
          "type": "uint256"
        }
      ],
      "name": "BadgeRequested",
      "type": "event"
    },
    {
      "anonymous": false,
      "inputs": [
        {
          "indexed": true,
          "internalType": "address",
          "name": "admin",
          "type": "address"
        }
      ],
      "name": "Initialize",
      "type": "event"
    },
    {
      "anonymous": false,
      "inputs": [
        {
          "indexed": false,
          "internalType": "uint64",
          "name": "version",
          "type": "uint64"
        }
      ],
      "name": "Initialized",
      "type": "event"
    },
    {
      "anonymous": false,
      "inputs": [
        {
          "indexed": false,
          "internalType": "address",
          "name": "account",
          "type": "address"
        }
      ],
      "name": "Paused",
      "type": "event"
    },
    {
      "anonymous": false,
      "inputs": [
        {
          "indexed": true,
          "internalType": "address",
          "name": "recipient",
          "type": "address"
        },
        {
          "indexed": false,
          "internalType": "address",
          "name": "payer",
          "type": "address"
        },
        {
          "indexed": false,
          "internalType": "uint256",
          "name": "amount",
          "type": "uint256"
        },
        {
          "indexed": true,
          "internalType": "enum LibTheBadge.PaymentType",
          "name": "paymentType",
          "type": "uint8"
        },
        {
          "indexed": true,
          "internalType": "uint256",
          "name": "badgeModelId",
          "type": "uint256"
        },
        {
          "indexed": false,
          "internalType": "string",
          "name": "controllerName",
          "type": "string"
        }
      ],
      "name": "PaymentMade",
      "type": "event"
    },
    {
      "anonymous": false,
      "inputs": [],
      "name": "ProtocolSettingsUpdated",
      "type": "event"
    },
    {
      "anonymous": false,
      "inputs": [
        {
          "indexed": true,
          "internalType": "bytes32",
          "name": "role",
          "type": "bytes32"
        },
        {
          "indexed": true,
          "internalType": "bytes32",
          "name": "previousAdminRole",
          "type": "bytes32"
        },
        {
          "indexed": true,
          "internalType": "bytes32",
          "name": "newAdminRole",
          "type": "bytes32"
        }
      ],
      "name": "RoleAdminChanged",
      "type": "event"
    },
    {
      "anonymous": false,
      "inputs": [
        {
          "indexed": true,
          "internalType": "bytes32",
          "name": "role",
          "type": "bytes32"
        },
        {
          "indexed": true,
          "internalType": "address",
          "name": "account",
          "type": "address"
        },
        {
          "indexed": true,
          "internalType": "address",
          "name": "sender",
          "type": "address"
        }
      ],
      "name": "RoleGranted",
      "type": "event"
    },
    {
      "anonymous": false,
      "inputs": [
        {
          "indexed": true,
          "internalType": "bytes32",
          "name": "role",
          "type": "bytes32"
        },
        {
          "indexed": true,
          "internalType": "address",
          "name": "account",
          "type": "address"
        },
        {
          "indexed": true,
          "internalType": "address",
          "name": "sender",
          "type": "address"
        }
      ],
      "name": "RoleRevoked",
      "type": "event"
    },
    {
      "anonymous": false,
      "inputs": [
        {
          "indexed": true,
          "internalType": "address",
          "name": "operator",
          "type": "address"
        },
        {
          "indexed": true,
          "internalType": "address",
          "name": "from",
          "type": "address"
        },
        {
          "indexed": true,
          "internalType": "address",
          "name": "to",
          "type": "address"
        },
        {
          "indexed": false,
          "internalType": "uint256[]",
          "name": "ids",
          "type": "uint256[]"
        },
        {
          "indexed": false,
          "internalType": "uint256[]",
          "name": "values",
          "type": "uint256[]"
        }
      ],
      "name": "TransferBatch",
      "type": "event"
    },
    {
      "anonymous": false,
      "inputs": [
        {
          "indexed": true,
          "internalType": "address",
          "name": "operator",
          "type": "address"
        },
        {
          "indexed": true,
          "internalType": "address",
          "name": "from",
          "type": "address"
        },
        {
          "indexed": true,
          "internalType": "address",
          "name": "to",
          "type": "address"
        },
        {
          "indexed": false,
          "internalType": "uint256",
          "name": "id",
          "type": "uint256"
        },
        {
          "indexed": false,
          "internalType": "uint256",
          "name": "value",
          "type": "uint256"
        }
      ],
      "name": "TransferSingle",
      "type": "event"
    },
    {
      "anonymous": false,
      "inputs": [
        {
          "indexed": false,
          "internalType": "string",
          "name": "value",
          "type": "string"
        },
        {
          "indexed": true,
          "internalType": "uint256",
          "name": "id",
          "type": "uint256"
        }
      ],
      "name": "URI",
      "type": "event"
    },
    {
      "anonymous": false,
      "inputs": [
        {
          "indexed": false,
          "internalType": "address",
          "name": "account",
          "type": "address"
        }
      ],
      "name": "Unpaused",
      "type": "event"
    },
    {
      "anonymous": false,
      "inputs": [
        {
          "indexed": true,
          "internalType": "address",
          "name": "implementation",
          "type": "address"
        }
      ],
      "name": "Upgraded",
      "type": "event"
    },
    {
      "inputs": [],
      "name": "CLAIMER_ROLE",
      "outputs": [
        {
          "internalType": "bytes32",
          "name": "",
          "type": "bytes32"
        }
      ],
      "stateMutability": "view",
      "type": "function"
    },
    {
      "inputs": [],
      "name": "DEFAULT_ADMIN_ROLE",
      "outputs": [
        {
          "internalType": "bytes32",
          "name": "",
          "type": "bytes32"
        }
      ],
      "stateMutability": "view",
      "type": "function"
    },
    {
      "inputs": [],
      "name": "PAUSER_ROLE",
      "outputs": [
        {
          "internalType": "bytes32",
          "name": "",
          "type": "bytes32"
        }
      ],
      "stateMutability": "view",
      "type": "function"
    },
    {
      "inputs": [],
      "name": "UPGRADER_ROLE",
      "outputs": [
        {
          "internalType": "bytes32",
          "name": "",
          "type": "bytes32"
        }
      ],
      "stateMutability": "view",
      "type": "function"
    },
    {
      "inputs": [],
      "name": "UPGRADE_INTERFACE_VERSION",
      "outputs": [
        {
          "internalType": "string",
          "name": "",
          "type": "string"
        }
      ],
      "stateMutability": "view",
      "type": "function"
    },
    {
      "inputs": [],
      "name": "URI_SETTER_ROLE",
      "outputs": [
        {
          "internalType": "bytes32",
          "name": "",
          "type": "bytes32"
        }
      ],
      "stateMutability": "view",
      "type": "function"
    },
    {
      "inputs": [],
      "name": "USER_MANAGER_ROLE",
      "outputs": [
        {
          "internalType": "bytes32",
          "name": "",
          "type": "bytes32"
        }
      ],
      "stateMutability": "view",
      "type": "function"
    },
    {
      "inputs": [],
      "name": "VERIFIER_ROLE",
      "outputs": [
        {
          "internalType": "bytes32",
          "name": "",
          "type": "bytes32"
        }
      ],
      "stateMutability": "view",
      "type": "function"
    },
    {
      "inputs": [],
      "name": "_badgeStore",
      "outputs": [
        {
          "internalType": "contract TheBadgeStore",
          "name": "",
          "type": "address"
        }
      ],
      "stateMutability": "view",
      "type": "function"
    },
    {
      "inputs": [],
      "name": "_badgeUsers",
      "outputs": [
        {
          "internalType": "contract TheBadgeUsers",
          "name": "",
          "type": "address"
        }
      ],
      "stateMutability": "view",
      "type": "function"
    },
    {
      "inputs": [
        {
          "internalType": "address",
          "name": "account",
          "type": "address"
        },
        {
          "internalType": "uint256",
          "name": "badgeId",
          "type": "uint256"
        }
      ],
      "name": "balanceOf",
      "outputs": [
        {
          "internalType": "uint256",
          "name": "",
          "type": "uint256"
        }
      ],
      "stateMutability": "view",
      "type": "function"
    },
    {
      "inputs": [
        {
          "internalType": "address",
          "name": "account",
          "type": "address"
        },
        {
          "internalType": "uint256",
          "name": "badgeModelId",
          "type": "uint256"
        }
      ],
      "name": "balanceOfBadgeModel",
      "outputs": [
        {
          "internalType": "uint256",
          "name": "",
          "type": "uint256"
        }
      ],
      "stateMutability": "view",
      "type": "function"
    },
    {
      "inputs": [
        {
          "internalType": "address[]",
          "name": "accounts",
          "type": "address[]"
        },
        {
          "internalType": "uint256[]",
          "name": "ids",
          "type": "uint256[]"
        }
      ],
      "name": "balanceOfBatch",
      "outputs": [
        {
          "internalType": "uint256[]",
          "name": "",
          "type": "uint256[]"
        }
      ],
      "stateMutability": "view",
      "type": "function"
    },
    {
      "inputs": [
        {
          "internalType": "uint256",
          "name": "badgeId",
          "type": "uint256"
        },
        {
          "internalType": "bytes",
          "name": "data",
          "type": "bytes"
        }
      ],
      "name": "challenge",
      "outputs": [],
      "stateMutability": "payable",
      "type": "function"
    },
    {
      "inputs": [
        {
          "internalType": "uint256",
          "name": "badgeId",
          "type": "uint256"
        },
        {
          "internalType": "bytes",
          "name": "data",
          "type": "bytes"
        }
      ],
      "name": "claim",
      "outputs": [],
      "stateMutability": "nonpayable",
      "type": "function"
    },
    {
      "inputs": [
        {
          "internalType": "uint256",
          "name": "badgeId",
          "type": "uint256"
        }
      ],
      "name": "getChallengeDepositValue",
      "outputs": [
        {
          "internalType": "uint256",
          "name": "",
          "type": "uint256"
        }
      ],
      "stateMutability": "view",
      "type": "function"
    },
    {
      "inputs": [
        {
          "internalType": "uint256",
          "name": "badgeId",
          "type": "uint256"
        }
      ],
      "name": "getRemovalDepositValue",
      "outputs": [
        {
          "internalType": "uint256",
          "name": "",
          "type": "uint256"
        }
      ],
      "stateMutability": "view",
      "type": "function"
    },
    {
      "inputs": [
        {
          "internalType": "bytes32",
          "name": "role",
          "type": "bytes32"
        }
      ],
      "name": "getRoleAdmin",
      "outputs": [
        {
          "internalType": "bytes32",
          "name": "",
          "type": "bytes32"
        }
      ],
      "stateMutability": "view",
      "type": "function"
    },
    {
      "inputs": [
        {
          "internalType": "bytes32",
          "name": "role",
          "type": "bytes32"
        },
        {
          "internalType": "address",
          "name": "account",
          "type": "address"
        }
      ],
      "name": "grantRole",
      "outputs": [],
      "stateMutability": "nonpayable",
      "type": "function"
    },
    {
      "inputs": [
        {
          "internalType": "bytes32",
          "name": "role",
          "type": "bytes32"
        },
        {
          "internalType": "address",
          "name": "account",
          "type": "address"
        }
      ],
      "name": "hasRole",
      "outputs": [
        {
          "internalType": "bool",
          "name": "",
          "type": "bool"
        }
      ],
      "stateMutability": "view",
      "type": "function"
    },
    {
      "inputs": [
        {
          "internalType": "address",
          "name": "admin",
          "type": "address"
        },
        {
          "internalType": "address",
          "name": "badgeStore",
          "type": "address"
        },
        {
          "internalType": "address",
          "name": "badgeUsers",
          "type": "address"
        }
      ],
      "name": "initialize",
      "outputs": [],
      "stateMutability": "nonpayable",
      "type": "function"
    },
    {
      "inputs": [
        {
          "internalType": "address",
          "name": "account",
          "type": "address"
        },
        {
          "internalType": "address",
          "name": "operator",
          "type": "address"
        }
      ],
      "name": "isApprovedForAll",
      "outputs": [
        {
          "internalType": "bool",
          "name": "",
          "type": "bool"
        }
      ],
      "stateMutability": "view",
      "type": "function"
    },
    {
      "inputs": [
        {
          "internalType": "uint256",
          "name": "badgeId",
          "type": "uint256"
        }
      ],
      "name": "isClaimable",
      "outputs": [
        {
          "internalType": "bool",
          "name": "",
          "type": "bool"
        }
      ],
      "stateMutability": "view",
      "type": "function"
    },
    {
      "inputs": [
        {
          "internalType": "uint256",
          "name": "badgeId",
          "type": "uint256"
        }
      ],
      "name": "isExpired",
      "outputs": [
        {
          "internalType": "bool",
          "name": "",
          "type": "bool"
        }
      ],
      "stateMutability": "view",
      "type": "function"
    },
    {
      "inputs": [
        {
          "internalType": "uint256",
          "name": "badgeModelId",
          "type": "uint256"
        },
        {
          "internalType": "address",
          "name": "account",
          "type": "address"
        },
        {
          "internalType": "string",
          "name": "tokenURI",
          "type": "string"
        },
        {
          "internalType": "bytes",
          "name": "data",
          "type": "bytes"
        }
      ],
      "name": "mint",
      "outputs": [],
      "stateMutability": "payable",
      "type": "function"
    },
    {
      "inputs": [
        {
          "internalType": "uint256[]",
          "name": "badgeModelIds",
          "type": "uint256[]"
        },
        {
          "internalType": "address[]",
          "name": "recipients",
          "type": "address[]"
        },
        {
          "internalType": "string[]",
          "name": "tokenURIs",
          "type": "string[]"
        },
        {
          "internalType": "bytes[]",
          "name": "data",
          "type": "bytes[]"
        }
      ],
      "name": "mintInBatch",
      "outputs": [],
      "stateMutability": "payable",
      "type": "function"
    },
    {
      "inputs": [
        {
          "internalType": "uint256",
          "name": "badgeModelId",
          "type": "uint256"
        }
      ],
      "name": "mintValue",
      "outputs": [
        {
          "internalType": "uint256",
          "name": "",
          "type": "uint256"
        }
      ],
      "stateMutability": "view",
      "type": "function"
    },
    {
      "inputs": [],
      "name": "name",
      "outputs": [
        {
          "internalType": "string",
          "name": "",
          "type": "string"
        }
      ],
      "stateMutability": "view",
      "type": "function"
    },
    {
      "inputs": [],
      "name": "pause",
      "outputs": [],
      "stateMutability": "nonpayable",
      "type": "function"
    },
    {
      "inputs": [],
      "name": "paused",
      "outputs": [
        {
          "internalType": "bool",
          "name": "",
          "type": "bool"
        }
      ],
      "stateMutability": "view",
      "type": "function"
    },
    {
      "inputs": [],
      "name": "proxiableUUID",
      "outputs": [
        {
          "internalType": "bytes32",
          "name": "",
          "type": "bytes32"
        }
      ],
      "stateMutability": "view",
      "type": "function"
    },
    {
      "inputs": [
        {
          "internalType": "uint256",
          "name": "badgeId",
          "type": "uint256"
        },
        {
          "internalType": "bytes",
          "name": "data",
          "type": "bytes"
        }
      ],
      "name": "removeItem",
      "outputs": [],
      "stateMutability": "payable",
      "type": "function"
    },
    {
      "inputs": [
        {
          "internalType": "bytes32",
          "name": "role",
          "type": "bytes32"
        },
        {
          "internalType": "address",
          "name": "callerConfirmation",
          "type": "address"
        }
      ],
      "name": "renounceRole",
      "outputs": [],
      "stateMutability": "nonpayable",
      "type": "function"
    },
    {
      "inputs": [
        {
          "internalType": "bytes32",
          "name": "role",
          "type": "bytes32"
        },
        {
          "internalType": "address",
          "name": "account",
          "type": "address"
        }
      ],
      "name": "revokeRole",
      "outputs": [],
      "stateMutability": "nonpayable",
      "type": "function"
    },
    {
      "inputs": [
        {
          "internalType": "address",
          "name": "from",
          "type": "address"
        },
        {
          "internalType": "address",
          "name": "to",
          "type": "address"
        },
        {
          "internalType": "uint256[]",
          "name": "ids",
          "type": "uint256[]"
        },
        {
          "internalType": "uint256[]",
          "name": "values",
          "type": "uint256[]"
        },
        {
          "internalType": "bytes",
          "name": "data",
          "type": "bytes"
        }
      ],
      "name": "safeBatchTransferFrom",
      "outputs": [],
      "stateMutability": "nonpayable",
      "type": "function"
    },
    {
      "inputs": [
        {
          "internalType": "address",
          "name": "from",
          "type": "address"
        },
        {
          "internalType": "address",
          "name": "to",
          "type": "address"
        },
        {
          "internalType": "uint256",
          "name": "id",
          "type": "uint256"
        },
        {
          "internalType": "uint256",
          "name": "value",
          "type": "uint256"
        },
        {
          "internalType": "bytes",
          "name": "data",
          "type": "bytes"
        }
      ],
      "name": "safeTransferFrom",
      "outputs": [],
      "stateMutability": "nonpayable",
      "type": "function"
    },
    {
      "inputs": [
        {
          "internalType": "address",
          "name": "operator",
          "type": "address"
        },
        {
          "internalType": "bool",
          "name": "approved",
          "type": "bool"
        }
      ],
      "name": "setApprovalForAll",
      "outputs": [],
      "stateMutability": "nonpayable",
      "type": "function"
    },
    {
      "inputs": [
        {
          "internalType": "uint256",
          "name": "badgeId",
          "type": "uint256"
        },
        {
          "internalType": "bytes",
          "name": "data",
          "type": "bytes"
        }
      ],
      "name": "submitEvidence",
      "outputs": [],
      "stateMutability": "nonpayable",
      "type": "function"
    },
    {
      "inputs": [
        {
          "internalType": "bytes4",
          "name": "interfaceId",
          "type": "bytes4"
        }
      ],
      "name": "supportsInterface",
      "outputs": [
        {
          "internalType": "bool",
          "name": "",
          "type": "bool"
        }
      ],
      "stateMutability": "view",
      "type": "function"
    },
    {
      "inputs": [],
      "name": "symbol",
      "outputs": [
        {
          "internalType": "string",
          "name": "",
          "type": "string"
        }
      ],
      "stateMutability": "view",
      "type": "function"
    },
    {
      "inputs": [],
      "name": "unpause",
      "outputs": [],
      "stateMutability": "nonpayable",
      "type": "function"
    },
    {
      "inputs": [
        {
          "internalType": "uint256",
          "name": "_createBadgeModelValue",
          "type": "uint256"
        }
      ],
      "name": "updateCreateBadgeModelProtocolFee",
      "outputs": [],
      "stateMutability": "nonpayable",
      "type": "function"
    },
    {
      "inputs": [
        {
          "internalType": "uint256",
          "name": "_mintBadgeDefaultFee",
          "type": "uint256"
        }
      ],
      "name": "updateMintBadgeDefaultProtocolFee",
      "outputs": [],
      "stateMutability": "nonpayable",
      "type": "function"
    },
    {
      "inputs": [
        {
          "internalType": "address",
          "name": "newImplementation",
          "type": "address"
        },
        {
          "internalType": "bytes",
          "name": "data",
          "type": "bytes"
        }
      ],
      "name": "upgradeToAndCall",
      "outputs": [],
      "stateMutability": "payable",
      "type": "function"
    },
    {
      "inputs": [
        {
          "internalType": "uint256",
          "name": "badgeId",
          "type": "uint256"
        }
      ],
      "name": "uri",
      "outputs": [
        {
          "internalType": "string",
          "name": "",
          "type": "string"
        }
      ],
      "stateMutability": "view",
      "type": "function"
    },
    {
      "stateMutability": "payable",
      "type": "receive"
    }
  ],
  "bytecode": "0x60a08060405234620000d157306080527ff0c57e16840df040f15088dc2f81fe391c3923bec73e23a9662efc9c229c6a009081549060ff8260401c16620000c257506001600160401b036002600160401b0319828216016200007c575b604051614cd89081620000d6823960805181818161117d01526112b10152f35b6001600160401b031990911681179091556040519081527fc7f505b2f371ae2175ee4913f4499e1f2633a7b5936321eed1cdaeb6115181d290602090a15f80806200005c565b63f92ee8a960e01b8152600490fd5b5f80fdfe6080604052600436101561001a575b3615610018575f80fd5b005b5f3560e01c8062fdd58e146102e857806301ffc9a7146102e357806306fdde03146102de5780630e89341c146102d957806319b50c2a146102d4578063248a9ca3146102cf5780632eb2c2d6146102ca5780632f2ff15d146102c557806336568abe146102c057806338926b6d146102bb5780633f4ba83a146102b657806346c45758146102b15780634e1273f4146102ac5780634f1ef286146102a757806352d1902d146102a25780635c975abb1461029d578063632f7c83146102985780637eb7f176146102935780637f3457101461028e5780638456cb5914610289578063892b4f491461028457806389610a091461027f57806391d148541461027a578063921e90721461027557806393c7a71b1461027057806395d89b411461026b5780639faf715814610266578063a03aafbf14610261578063a217fddf1461025c578063a22cb46514610257578063a41e35c314610252578063ad3cb1cc1461024d578063c0c53b8b14610248578063c1d1884014610243578063c5a3c7ca1461023e578063d547741f14610239578063d7deba1514610234578063d9548e531461022f578063e18186511461022a578063e63ab1e914610225578063e7705db614610220578063e985e9c51461021b578063f242432a14610216578063f72c0d8b146102115763fc5f18d30361000e576122bc565b612295565b61217e565b612145565b61210b565b6120e4565b612065565b61203d565b611f94565b611f48565b611eb6565b611e34565b611cef565b611caa565b611c70565b611c37565b611c13565b611b77565b611ac7565b611a24565b6118fe565b611815565b611737565b61157d565b611555565b6114f0565b6114b6565b611354565b611336565b611308565b61129f565b61113b565b611044565b610f6d565b610ef8565b610acf565b610a38565b6109ec565b6108ba565b61076c565b610745565b610712565b610633565b610347565b610302565b6001600160a01b038116036102fe57565b5f80fd5b346102fe5760403660031901126102fe57602061032d600435610324816102ed565b6024359061407f565b604051908152f35b6001600160e01b03198116036102fe57565b346102fe5760203660031901126102fe57602060043561036681610335565b63ffffffff60e01b16637965db0b60e01b811490811561038c575b506040519015158152f35b636cdb3d1360e11b8114915081156103be575b81156103ad575b505f610381565b6301ffc9a760e01b1490505f6103a6565b6303a24d0760e21b8114915061039f565b5f9103126102fe57565b90600182811c92168015610407575b60208310146103f357565b634e487b7160e01b5f52602260045260245ffd5b91607f16916103e8565b634e487b7160e01b5f52604160045260245ffd5b6001600160401b03811161043857604052565b610411565b60a081019081106001600160401b0382111761043857604052565b604081019081106001600160401b0382111761043857604052565b602081019081106001600160401b0382111761043857604052565b90601f801991011681019081106001600160401b0382111761043857604052565b604051905f825f80516020614c83833981519152918254926104d0846103d9565b9081845260019485811690815f1461053b57506001146104fb575b50506104f99250038361048e565b565b909391505f52602090815f20935f915b8183106105235750506104f993508201015f806104eb565b8554888401850152948501948794509183019161050b565b9150506104f994506020925060ff191682840152151560051b8201015f806104eb565b9060405191825f825492610571846103d9565b9081845260019485811690815f1461053b57506001146105995750506104f99250038361048e565b909391505f52602090815f20935f915b8183106105c15750506104f993508201015f806104eb565b855488840185015294850194879450918301916105a9565b5f5b8381106105ea5750505f910152565b81810151838201526020016105db565b90602091610613815180928185528580860191016105d9565b601f01601f1916010190565b9060206106309281815201906105fa565b90565b346102fe575f8060031936011261070f5760405181600254610654816103d9565b808452906001908181169081156106e7575060011461068e575b61068a8461067e8188038261048e565b6040519182918261061f565b0390f35b60028352602094507f405787fa12a823e0f2b7631cc41b3ba8828b3321ca811111fa75cd3aa3bb5ace5b8284106106d4575050508161068a9361067e928201019361066e565b80548585018701529285019281016106b8565b61068a965061067e9450602092508593915060ff191682840152151560051b8201019361066e565b80fd5b346102fe5760203660031901126102fe5761068a6107316004356147ce565b6040519182916020835260208301906105fa565b346102fe575f3660031901126102fe575f546040516001600160a01b039091168152602090f35b346102fe5760203660031901126102fe576004355f525f80516020614c038339815191526020526020600160405f200154604051908152f35b6040519061016082018281106001600160401b0382111761043857604052565b60405190608082018281106001600160401b0382111761043857604052565b6001600160401b0381116104385760051b60200190565b81601f820112156102fe57803591610812836107e4565b92610820604051948561048e565b808452602092838086019260051b8201019283116102fe578301905b82821061084a575050505090565b8135815290830190830161083c565b6001600160401b03811161043857601f01601f191660200190565b81601f820112156102fe5780359061088b82610859565b92610899604051948561048e565b828452602083830101116102fe57815f926020809301838601378301015290565b346102fe5760a03660031901126102fe57600480356108d8816102ed565b6024356108e4816102ed565b6001600160401b03906044358281116102fe5761090490369086016107fb565b906064358381116102fe5761091c90369087016107fb565b926084359081116102fe576109349036908701610874565b936001600160a01b038082169033821415806109bf575b6109925783161561097b5715610965576100189550612800565b604051626a0d4560e21b81525f81880152602490fd5b604051632bfa23e760e11b81525f81890152602490fd5b6040805163711bec9160e11b815233818b019081526001600160a01b038616602082015290918291010390fd5b5060ff6109e4336109cf86612323565b9060018060a01b03165f5260205260405f2090565b54161561094b565b346102fe5760403660031901126102fe57610018602435600435610a0f826102ed565b805f525f80516020614c03833981519152602052610a33600160405f20015461245d565b6126ca565b346102fe5760403660031901126102fe57602435610a55816102ed565b336001600160a01b03821603610a715761001890600435612702565b60405163334bd91960e11b8152600490fd5b60406003198201126102fe57600435916024356001600160401b03928382116102fe57806023830112156102fe5781600401359384116102fe57602484830101116102fe576024019190565b346102fe57610add36610a83565b91610ae781614591565b905f93610b09610afd865460018060a01b031690565b6001600160a01b031690565b6040805163f2be2c8560e01b815260048082019690965294908786602481865afa928315610da257610b5e968994610ed4575b506020906060828601518451809a8192631c2e21b960e11b835288830161061f565b0381845afa978815610da2578a98610ea4575b506080835180926346c1c31160e11b82528180610b958c8a83019190602083019252565b03915afa908115610da2578a91610e76575b508751610bbc906001600160a01b0316610afd565b95610bca6060830151151590565b15610e665783516389610a0960e01b81528581018981526001600160a01b039889169291908590829081906020010381865afa908115610da2578d91610e49575b5015610e3957828401518c906001600160a01b03169a898c1615610e27575b509084918a9b9c88999a9b610c5489519b8c9586948594634e35cfc560e11b865233938601613e0a565b0391855af1958615610da2578b96610df1575b50828460808798990151930151918551968780926369922f9360e11b82525afa918215610da2578b95610ca2948794610dc2575b505061400f565b8254610cb6906001600160a01b0316610afd565b90813b15610dbe57825163b2e92c9360e01b815285810189815260208101929092529391849182908490829060400103925af1918215610da2578892610dab575b508154610d0c906001600160a01b0316610afd565b803b15610da7579051630a5f1ec560e01b81529283018681526001600160a01b0380891660208301528516604082015292939284919082908490829060600103925af1918215610da2578392610d89575b50169216907f709d8d0348769d1caf88951a6bb5c48cdf1340f402b1db82922b3ce6126841258480a480f35b80610d96610d9c92610425565b806103cf565b5f610d5d565b6127a6565b8280fd5b80610d96610db892610425565b5f610cf7565b8380fd5b610de2929450803d10610dea575b610dda818361048e565b8101906136cd565b915f80610c9b565b503d610dd0565b859650846080610e178693843d8611610e20575b610e0f818361048e565b810190613df5565b98505050610c67565b503d610e05565b516001600160a01b03169a5084610c2a565b8451632edd9d0f60e21b81528690fd5b610e609150853d8711610dea57610dda818361048e565b5f610c0b565b50505051632edd9d0f60e21b8152fd5b610e97915060803d8111610e9d575b610e8f818361048e565b810190613d95565b5f610ba7565b503d610e85565b610ec691985060603d8111610ecd575b610ebe818361048e565b810190613266565b965f610b71565b503d610eb4565b610ef19194503d808b833e610ee9818361048e565b81019061317f565b925f610b3c565b346102fe575f3660031901126102fe57610f1061235b565b5f80516020614c23833981519152805460ff811615610f5b5760ff191690557f5db9ee0a495bf2e6ff9c91a7834c1ba4fdd244a5e8aa4e537bd38aeae4b073aa6020604051338152a1005b604051638dfc202b60e01b8152600490fd5b346102fe5760403660031901126102fe57602061032d600435610f8f816102ed565b602435906142ca565b81601f820112156102fe57803591610faf836107e4565b92610fbd604051948561048e565b808452602092838086019260051b8201019283116102fe578301905b828210610fe7575050505090565b8380918335610ff5816102ed565b815201910190610fd9565b9081518082526020808093019301915f5b82811061101f575050505090565b835185529381019392810192600101611011565b906020610630928181520190611000565b346102fe5760403660031901126102fe576001600160401b036004358181116102fe57611075903690600401610f98565b906024359081116102fe5761108e9036906004016107fb565b90805182518082036111195750508051916110a8836107e4565b926110b6604051948561048e565b8084526110c5601f19916107e4565b0160209036828601375f5b835181101561110b57806110f66111069260051b8480828901015191870101519061407f565b61110082886127d8565b526127c5565b6110d0565b6040518061068a8782611033565b604051635b05999160e01b815260048101919091526024810191909152604490fd5b60403660031901126102fe576004803590611155826102ed565b6024356001600160401b0381116102fe576111739036908301610874565b6001600160a01b037f00000000000000000000000000000000000000000000000000000000000000008116308114908115611284575b506112735790602083926111bb6123c3565b6040516352d1902d60e01b8152938491829088165afa5f9281611243575b50611207575050604051634c9c8ce360e01b81526001600160a01b0390921690820190815281906020010390fd5b83835f80516020614bc38339815191528403611227576100188383612c0d565b604051632a87526960e21b815290810184815281906020010390fd5b61126591935060203d811161126c575b61125d818361048e565b810190612797565b915f6111d9565b503d611253565b60405163703e46dd60e11b81528390fd5b9050815f80516020614bc3833981519152541614155f6111a9565b346102fe575f3660031901126102fe577f00000000000000000000000000000000000000000000000000000000000000006001600160a01b031630036112f65760206040515f80516020614bc38339815191528152f35b60405163703e46dd60e11b8152600490fd5b346102fe575f3660031901126102fe57602060ff5f80516020614c2383398151915254166040519015158152f35b346102fe5760203660031901126102fe57602061032d60043561468d565b346102fe5760203660031901126102fe576004356113af61137482614591565b5f805490939190849061138f906001600160a01b0316610afd565b916040518095819263f2be2c8560e01b8352600483019190602083019252565b0381845afa908115610da25760206060926113ea95879161149c575b500151906040518080968194631c2e21b960e11b83526004830161061f565b03915afa908115610da25761141a610afd610afd60209461143a96889161147e575b50516001600160a01b031690565b6040518080958194633f5bf8bb60e11b8352600483019190602083019252565b03915afa908115610da25761068a9291611460575b506040519081529081906020820190565b611478915060203d811161126c5761125d818361048e565b5f61144f565b611496915060603d8111610ecd57610ebe818361048e565b5f61140c565b6114b091503d8089833e610ee9818361048e565b5f6113cb565b346102fe575f3660031901126102fe5760206040517f7804d923f43a17d325d77e781528e0793b2edd9890ab45fc64efd7b4b427744c8152f35b346102fe575f3660031901126102fe5761150861235b565b611510614055565b5f80516020614c23833981519152600160ff198254161790557f62e78cea01bee320cd4e420270b5ea74000d11b0c9f74754ebdbfc544b05a2586020604051338152a1005b346102fe575f3660031901126102fe576001546040516001600160a01b039091168152602090f35b346102fe5760203660031901126102fe575f8054600491908235906115aa906001600160a01b0316610afd565b9260409182516346c1c31160e11b8152608081806115cf858783019190602083019252565b0381895afa908115610da2576115f1916060918791611719575b500151151590565b1561170a5783946116229461160583614591565b85518097819263f2be2c8560e01b83528783019190602083019252565b0381845afa908115610da257602060609261165b9789916116f0575b5001519085518080988194631c2e21b960e11b835288830161061f565b03915afa918215610da25761168a610afd610afd6020956116aa988a9161147e5750516001600160a01b031690565b84516389610a0960e01b8152918201928352909485928391829160200190565b03915afa918215610da25761068a93926116d0575b505190151581529081906020820190565b6116e991925060203d8111610dea57610dda818361048e565b905f6116bf565b61170491503d808b833e610ee9818361048e565b5f61163e565b509051632edd9d0f60e21b8152fd5b611731915060803d8111610e9d57610e8f818361048e565b5f6115e9565b346102fe5760403660031901126102fe57602060ff61178960243561175b816102ed565b6004355f525f80516020614c03833981519152845260405f209060018060a01b03165f5260205260405f2090565b54166040519015158152f35b9080601f830112156102fe578135906117ad826107e4565b926117bb604051948561048e565b828452602092838086019160051b830101928084116102fe57848301915b8483106117e95750505050505090565b82356001600160401b0381116102fe57869161180a84848094890101610874565b8152019201916117d9565b60803660031901126102fe576001600160401b036004358181116102fe576118419036906004016107fb565b602480358381116102fe5761185a903690600401610f98565b6044358481116102fe57366023820112156102fe5780600401359061187e826107e4565b9361188c604051958661048e565b828552602092818487019160051b840101923684116102fe57828101915b8483106118d8575050505050506064359384116102fe576118d2610018943690600401611795565b92613559565b82358a81116102fe5786916118f38392873691870101610874565b8152019201916118aa565b346102fe5761195661190f36610a83565b92909161191b81614591565b5f8054909591908690611936906001600160a01b0316610afd565b916040518096819263f2be2c8560e01b8352600483019190602083019252565b0381845afa908115610da2576020606092611991968991611a0a575b500151906040518080978194631c2e21b960e11b83526004830161061f565b03915afa928315610da257610afd610afd87956119bc93879161147e5750516001600160a01b031690565b90813b15610dbe57836119e89560405196879586948593636c5f71ab60e11b8552339260048601613e0a565b03925af18015610da2576119fa575080f35b80610d96611a0792610425565b80f35b611a1e91503d808b833e610ee9818361048e565b5f611972565b346102fe575f8060031936011261070f5760405181600354611a45816103d9565b808452906001908181169081156106e75750600114611a6e5761068a8461067e8188038261048e565b60038352602094507fc2575a0e9e593c00f959f8c92f12db2869c3395a3b0502d05e2516446f71f85b5b828410611ab4575050508161068a9361067e928201019361066e565b8054858501870152928501928101611a98565b611ad361190f36610a83565b0381845afa908115610da2576020606092611b0d968991611a0a57500151906040518080978194631c2e21b960e11b83526004830161061f565b03915afa928315610da257610afd610afd8795611b3893879161147e5750516001600160a01b031690565b90813b15610dbe57611b639460405195869485938493630c39ed6960e31b8552339260048601613e0a565b039134905af18015610da2576119fa575080f35b611b8361190f36610a83565b0381845afa908115610da2576020606092611bbd968991611a0a57500151906040518080978194631c2e21b960e11b83526004830161061f565b03915afa928315610da257610afd610afd8795611be893879161147e5750516001600160a01b031690565b90813b15610dbe57611b639460405195869485938493631a04a52d60e21b8552339260048601613e0a565b346102fe575f3660031901126102fe5760206040515f8152f35b801515036102fe57565b346102fe5760403660031901126102fe57611c536004356102ed565b611c5e602435611c2d565b6040516305d39ac360e51b8152600490fd5b346102fe575f3660031901126102fe5760206040517fcbaaf41b181bb6e269c490e876a7c97711b57e21dd8e5528423cf57579726b358152f35b346102fe575f3660031901126102fe5761068a604051611cc981610458565b60058152640352e302e360dc1b60208201526040519182916020835260208301906105fa565b346102fe5760603660031901126102fe57600435611d0c816102ed565b60243590611d19826102ed565b604435611d25816102ed565b5f80516020614c6383398151915254926001600160401b0360ff8560401c1615941680159081611e2c575b6001149081611e22575b159081611e19575b50611e07575f80516020614c63833981519152805467ffffffffffffffff19166001179055611d959284611de357612e93565b611d9b57005b5f80516020614c63833981519152805460ff60401b19169055604051600181527fc7f505b2f371ae2175ee4913f4499e1f2633a7b5936321eed1cdaeb6115181d290602090a1005b5f80516020614c63833981519152805460ff60401b1916600160401b179055612e93565b60405163f92ee8a960e01b8152600490fd5b9050155f611d62565b303b159150611d5a565b859150611d50565b60803660031901126102fe57602435600435611e4f826102ed565b6001600160401b03916044358381116102fe57611e70903690600401610874565b906064359384116102fe57611e8c611ea3943690600401610874565b92611e968161335e565b611e9e6130f8565b61373a565b60015f80516020614c4383398151915255005b346102fe575f602036600319011261070f57611ed0612407565b805481906001600160a01b0316803b15611f455781906024604051809481936362d1e3e560e11b835260043560048401525af18015610da257611f36575b507f810f1720fbc34c56d171f89315ad21708648fd17424c27b88fa208409845aa778180a180f35b611f3f90610425565b5f611f0e565b50fd5b346102fe5760403660031901126102fe57610018602435600435611f6b826102ed565b805f525f80516020614c03833981519152602052611f8f600160405f20015461245d565b612702565b346102fe5760203660031901126102fe57600435611fb461137482614591565b0381845afa908115610da2576020606092611fee95879161149c57500151906040518080968194631c2e21b960e11b83526004830161061f565b03915afa908115610da25761201d610afd610afd60209461143a96889161147e5750516001600160a01b031690565b604051808095819463d7deba1560e01b8352600483019190602083019252565b346102fe5760203660031901126102fe57602061205b6004356144bc565b6040519015158152f35b346102fe575f602036600319011261070f5761207f612407565b805481906001600160a01b0316803b15611f4557819060246040518094819363e181865160e01b835260043560048401525af18015610da257611f3657507f810f1720fbc34c56d171f89315ad21708648fd17424c27b88fa208409845aa778180a180f35b346102fe575f3660031901126102fe5760206040515f80516020614be38339815191528152f35b346102fe575f3660031901126102fe5760206040517f0ce23c3e399818cfee81a7ab0880f714e53d7672b08df0fa62f2843416e1ea098152f35b346102fe5760403660031901126102fe57602060ff611789600435612169816102ed565b6109cf60243591612179836102ed565b612323565b346102fe5760a03660031901126102fe5760043561219b816102ed565b6024356121a7816102ed565b6084356001600160401b0381116102fe576121c6903690600401610874565b906001600160a01b0383811690338214158061227d575b6122565782161561223e5715612227576100189261221f6064356044359160405192600184526020840152604083019160018352606084015260808301604052565b929091612800565b604051626a0d4560e21b81525f6004820152602490fd5b604051632bfa23e760e11b81525f6004820152602490fd5b60405163711bec9160e11b81523360048201526001600160a01b0386166024820152604490fd5b5060ff61228d336109cf88612323565b5416156121dd565b346102fe575f3660031901126102fe5760206040515f80516020614ba38339815191528152f35b346102fe575f3660031901126102fe5760206040517f11a8cb5a02bd6c42679835e867ef2118ba78f088f8300511420c6603c21d9c788152f35b5f527f88be536d5240c274a3b1d3a1be54482fd9caa294f08c62a7cde569f49a3c450060205260405f2090565b6001600160a01b03165f9081527f88be536d5240c274a3b1d3a1be54482fd9caa294f08c62a7cde569f49a3c45016020526040902090565b335f9081527f75442b0a96088b5456bc4ed01394c96a4feec0f883c9494257d76b96ab1c9b6b602052604090205f80516020614be38339815191529060ff905b5416156123a55750565b6044906040519063e2517d3f60e01b82523360048301526024820152fd5b335f9081527fab71e3f32666744d246edff3f96e4bdafee2e9867098cdd118a979a7464786a8602052604090205f80516020614ba38339815191529060ff9061239b565b335f9081527fb7db2dd08fcb62d0c9e08c51941cae53c267786a0b75803fb7960902fc8ef97d602052604090205460ff161561243f57565b60405163e2517d3f60e01b81523360048201525f6024820152604490fd5b5f8181525f80516020614c0383398151915260209081526040808320338452909152902060ff9061239b565b6001600160a01b0381165f9081527fb7db2dd08fcb62d0c9e08c51941cae53c267786a0b75803fb7960902fc8ef97d60205260408120545f80516020614c038339815191529060ff1661253557818052602090815260408083206001600160a01b0385165f90815292529020805460ff1916600117905533916001600160a01b0316907f2f8788117e7eff1d82e926ec794901d17c78024a50270940304540a733656f0d8180a4600190565b50905090565b6001600160a01b0381165f9081527f75442b0a96088b5456bc4ed01394c96a4feec0f883c9494257d76b96ab1c9b6b602052604081205f80516020614be3833981519152905f80516020614c038339815191529060ff905b54166125f857818352602090815260408084206001600160a01b0386165f90815292529020805460ff1916600117905533926001600160a01b0316917f2f8788117e7eff1d82e926ec794901d17c78024a50270940304540a733656f0d9080a4600190565b5050905090565b6001600160a01b0381165f9081527fab71e3f32666744d246edff3f96e4bdafee2e9867098cdd118a979a7464786a8602052604081205f80516020614ba3833981519152905f80516020614c038339815191529060ff90612593565b6001600160a01b0381165f9081527fd56b761303e15a4cbea84f37eba80a5289f49fda0b4884e30ac1d73eb9b8b143602052604081207f0ce23c3e399818cfee81a7ab0880f714e53d7672b08df0fa62f2843416e1ea09905f80516020614c038339815191529060ff90612593565b5f8181525f80516020614c03833981519152602081815260408084206001600160a01b0387168552909152822091929160ff90612593565b5f8181525f80516020614c03833981519152602081815260408084206001600160a01b038716855290915282205491929160ff16156125f857818352602090815260408084206001600160a01b0386165f90815292529020805460ff1916905533926001600160a01b0316917ff6391f5c32d9c69d2a47ea670b442974b53935d1edc7fd64eb21e047a839171b9080a4600190565b908160209103126102fe575190565b6040513d5f823e3d90fd5b634e487b7160e01b5f52601160045260245ffd5b5f1981146127d35760010190565b6127b1565b80518210156127ec5760209160051b010190565b634e487b7160e01b5f52603260045260245ffd5b9193929061280c614055565b5f54612820906001600160a01b0316610afd565b6040516301719d2b60e01b81526001600160a01b038516600482015290606090829060249082905afa908115610da2575f916128d0575b506001600160a01b0390848216151590816128c3575b50611c5e5761287e83878487614a18565b811661288c575b5050505050565b84516001036128b2576020806128a89601519201519233612a8d565b5f80808080612885565b6128be94919233612bd6565b6128a8565b604001511590505f61286d565b6128e8915060603d8111610ecd57610ebe818361048e565b5f612857565b908160209103126102fe575161063081610335565b909260a0926106309594600180861b031683525f60208401526040830152606082015281608082015201906105fa565b919261063095949160a094600180871b0380921685521660208401526040830152606082015281608082015201906105fa565b3d15612990573d9061297782610859565b91612985604051938461048e565b82523d5f602084013e565b606090565b9293919093843b6129a7575050505050565b6020916129ca604051948593849363f23a6e6160e01b9889865260048601612903565b03815f6001600160a01b0388165af15f9181612a5d575b50612a2057826129ef612966565b8051919082612a1957604051632bfa23e760e11b81526001600160a01b0383166004820152602490fd5b9050602001fd5b6001600160e01b03191603612a3a57505f80808080612885565b604051632bfa23e760e11b81526001600160a01b03919091166004820152602490fd5b612a7f91925060203d8111612a86575b612a77818361048e565b8101906128ee565b905f6129e1565b503d612a6d565b939290949194853b612aa2575b505050505050565b612ac5602093604051958694859463f23a6e6160e01b998a875260048701612933565b03815f6001600160a01b0388165af15f9181612b05575b50612aea57826129ef612966565b6001600160e01b03191603612a3a57505f8080808080612a9a565b612b1e91925060203d8111612a8657612a77818361048e565b905f612adc565b92612b536106309593612b619360018060a01b031686525f602087015260a0604087015260a0860190611000565b908482036060860152611000565b9160808184039101526105fa565b93906106309593612b5391612b619460018060a01b03809216885216602087015260a0604087015260a0860190611000565b9293919093843b612bb3575050505050565b6020916129ca604051948593849363bc197c8160e01b9889865260048601612b25565b939290949194853b612bea57505050505050565b612ac5602093604051958694859463bc197c8160e01b998a875260048701612b6f565b90813b15612c91575f80516020614bc383398151915280546001600160a01b0319166001600160a01b0384169081179091557fbc7cd75a20ee27fd9adebab32041f755214dbc6bffa90cc0225b39da2e5c2d3b5f80a2805115612c7657612c7391612cb2565b50565b505034612c7f57565b60405163b398979f60e01b8152600490fd5b604051634c9c8ce360e01b81526001600160a01b0383166004820152602490fd5b5f8061063093602081519101845af4612cc9612966565b9190612cf15750805115612cdf57805190602001fd5b604051630a12f52160e11b8152600490fd5b81511580612d24575b612d02575090565b604051639996b31560e01b81526001600160a01b039091166004820152602490fd5b50803b15612cfa565b818110612d38575050565b5f8155600101612d2d565b90601f8211612d50575050565b6104f9915f80516020614c838339815191525f5260205f20906020601f840160051c83019310612d88575b601f0160051c0190612d2d565b9091508190612d7b565b9190601f8111612da157505050565b6104f9925f5260205f20906020601f840160051c83019310612d8857601f0160051c0190612d2d565b612dd56002546103d9565b601f8111612df3575b50601067546865426164676560c01b01600255565b60025f52612e2b90601f0160051c7f405787fa12a823e0f2b7631cc41b3ba8828b3321ca811111fa75cd3aa3bb5ace90810190612d2d565b5f612dde565b612e3c6003546103d9565b601f8111612e55575b506006621091d160ea1b01600355565b60035f52612e8d90601f0160051c7fc2575a0e9e593c00f959f8c92f12db2869c3395a3b0502d05e2516446f71f85b90810190612d2d565b5f612e45565b9060405192612ea184610473565b5f93848152612eae6130a2565b612eb66130a2565b80516001600160401b038111610438575f80516020614c8383398151915291612ee882612ee385546103d9565b612d43565b60209081601f8411600114612fe757509282612fa496937f36b1453565f45af7b509b59d5e2eac8f1948ea9e3e193db6663b4101afb6382c989693612fc6968b92612fdc575b50508160011b915f199060031b1c19161790555b612f4a6130a2565b612f526130d0565b612f5a6130a2565b612f6384612489565b50612f6d8461253b565b50612f77846125ff565b50612f818461265b565b505f80546001600160a01b0319166001600160a01b039384161790559093849190565b60018054919092166001600160a01b03166001600160a01b0319909116179055565b612fce612dca565b612fd6612e31565b169180a2565b015190505f80612f2e565b5f80516020614c838339815191525f529190601f1984167ff429cb5e2ec84cbb765e76b31964a56ccde03e7a6122d6cc4afb19edc55edeed938a905b82821061308a575050937f36b1453565f45af7b509b59d5e2eac8f1948ea9e3e193db6663b4101afb6382c989693612fc6969360019383612fa49b9810613072575b505050811b019055612f42565b01515f1960f88460031b161c191690555f8080613065565b80600186978294978701518155019601940190613023565b60ff5f80516020614c638339815191525460401c16156130be57565b604051631afcd79f60e31b8152600490fd5b6130d86130a2565b6130e06130a2565b5f80516020614c23833981519152805460ff19169055565b5f80516020614c4383398151915260028154146131155760029055565b604051633ee5aeb560e01b8152600490fd5b51906104f9826102ed565b81601f820112156102fe57805161314881610859565b92613156604051948561048e565b818452602082840101116102fe5761063091602080850191016105d9565b51906104f982611c2d565b6020818303126102fe5780516001600160401b03918282116102fe5701610160818403126102fe576131af6107a5565b926131b982613127565b845260208201518381116102fe57816131d3918401613132565b60208501526131e460408301613174565b6040850152606082015160608501526080820151608085015260a082015160a085015261321360c08301613174565b60c085015260e082015160e0850152610100613230818401613174565b90850152610120613242818401613174565b9085015261014092838301519081116102fe5761325f9201613132565b9082015290565b908160609103126102fe576040519060608201908282106001600160401b03831117610438576040918252805161329c816102ed565b835260208101516132ac81611c2d565b602084015201516132bc81611c2d565b604082015290565b906020828203126102fe5781516001600160401b03928382116102fe570160a0818303126102fe57604051926132f98461043d565b81519081116102fe57608092613310918301613132565b8352602081015161332081611c2d565b6020840152604081015161333381611c2d565b6040840152606081015161334681611c2d565b6060840152015161335681611c2d565b608082015290565b5f8054613373906001600160a01b0316610afd565b6040805163f2be2c8560e01b81526004808201959095529092918282602481845afa918215610da2578392613536575b5060606133c99160208401519086518080958194631c2e21b960e11b83528b830161061f565b03915afa908115610da2578391613518575b5081516001600160a01b03161561350857818401516134f8576101008201516134e8576101208201516134d857602001516134c95760015461346991839161343d9061342f906001600160a01b0316610afd565b91516001600160a01b031690565b8551636f77926b60e01b81526001600160a01b0390911687820190815290938492918391829160200190565b03915afa918215610da25760019261348e9282606093926134a6575b50500151151590565b151514613499575050565b5163a800bb9d60e01b8152fd5b6134c292503d8091833e6134ba818361048e565b8101906132c4565b5f80613485565b505051631bd063c360e01b8152fd5b5050505163598e002360e11b8152fd5b50505051630f0365d360e21b8152fd5b50505051635d71fd6f60e01b8152fd5b505050516385a6706360e01b8152fd5b613530915060603d8111610ecd57610ebe818361048e565b5f6133db565b6133c99192506135516060913d8087833e610ee9818361048e565b9291506133a3565b929391938351156136a1575f5b8451811015613590578061358661358061358b93886127d8565b5161335e565b6127c5565b613566565b5090919361359c6130f8565b83518351811490811591613681575b5061366f575f93845b815186101561361c57613610613616916136096135d189866127d8565b516135ec6135df8b8b6127d8565b516001600160a01b031690565b6135f68b896127d8565b51906136028c8b6127d8565b519261373a565b34906136b3565b956127c5565b946135b4565b945050505050348111613641575b506104f960015f80516020614c4383398151915255565b5f8080613650819434906136c0565b818115613666575b3390f115610da2575f61362a565b506108fc613658565b60405163fe771c6960e01b8152600490fd5b8251811415915081613695575b505f6135ab565b9050825114155f61368e565b60405163275742e160e11b8152600490fd5b919082018092116127d357565b919082039182116127d357565b908160209103126102fe575161063081611c2d565b93608093613715929397969760018060a01b0380951687526020870152604086015260a0606086015260a08501906105fa565b9416910152565b6040519061372982610458565b6002825261060f60f31b6020830152565b909182936137478361468d565b3410613b85575f8054909590613765906001600160a01b0316610afd565b9260409687519363f2be2c8560e01b85528185600497818061378e8c8c83019190602083019252565b03915afa948515610da2578295613b67575b50849560606137e896018051613b59575b83546137c5906001600160a01b0316610afd565b9760209360608d868401519051809b8192631c2e21b960e11b835288830161061f565b03818d5afa998a15610da2578b99879b613b39575b508a518e90613814906001600160a01b0316610afd565b9d6001600160a01b039b8f908d80841615613a98575b505050508591879151928380926308e5bf2160e01b82525afa9c8d15610da2578e91889e613a5b575b509186918e8e61388761386b8f8f98169951346136c0565b935163f6563d5f60e01b815296879586948594338e87016136e2565b0391875af1968715610da2578c918798613a27575b508493926138c0836138b16080948a96613c6b565b6138b961371c565b908c613b97565b0151918d51938480926369922f9360e11b82525afa908115610da2576138ed928692613a08575b50614033565b613910866138f96107c5565b8b81526001600160a01b0390911694810194909452565b828b015260016060830152825461392f906001600160a01b0316610afd565b90813b15610dbe578a51634085b52760e01b81529081018a815283516020808301919091528401516001600160a01b0316604080830191909152840151606080830191909152909301511515608084015293929184919082908490829060a00103925af18015610da2577f186b125f639893ac3dcb02d857d0fd29319e8f764fd26f4a77310e8c678fbbd0956139f6936139d5926139fb5750516001600160a01b031690565b97516001600160a01b03909816885260208801529116949081906040820190565b0390a4565b80610d9661149692610425565b613a20919250853d8711610dea57610dda818361048e565b905f6138e7565b6080919850926138c087936138b1613a4d899897873d891161126c5761125d818361048e565b9b945050935050929361389c565b8b9e50918a93918e8994853d8711613a91575b613a78818361048e565b8101613a8391612797565b9f509e9f5091935091613853565b503d613a6e565b8a9b9c9d5089613ad6969798999a9b955196879586948593631007fbe560e21b855284019092916020906040830194835260018060a01b0316910152565b0392165afa908115610da2578891613b1c575b5015613b0c5789516001600160a01b031697969594939291908d858e8e8d61382a565b8c51634dae13df60e01b81528590fd5b613b339150873d8911610dea57610dda818361048e565b5f613ae9565b613b52919b5060603d8111610ecd57610ebe818361048e565b995f6137fd565b613b6289613e77565b6137b1565b6137e89550613b7f903d8085833e610ee9818361048e565b946137a0565b6040516393fda7e360e01b8152600490fd5b91906001600160a01b0383161561223e57613bd1604051916001835260208301526040820190600182526001606084015260808301604052565b90613bda614055565b5f54613bee906001600160a01b0316610afd565b6040516301719d2b60e01b81525f600482015290606090829060249082905afa8015610da257613c4d575b50613c25828286614908565b8051600103613c4357906020806104f9959301519101519133612995565b6104f99333612ba1565b613c649060603d8111610ecd57610ebe818361048e565b505f613c19565b919091805f5260207f89fc852226e759c7c636cf34d732f0198fc56a54876b2374a52beb7b0c558601815260405f20908451906001600160401b03821161043857613cc082613cba85546103d9565b85612d92565b80601f8311600114613d2a575081929394955f92613d1f575b50508160011b915f199060031b1c19161790555b7f6bb7ff708619ba0610cba295a58592e0451dee2622938c8755667688daf3529b613d1a61067e836147ce565b0390a2565b015190505f80613cd9565b90601f19831696613d3e855f5260205f2090565b925f905b898210613d7d5750508360019596979810613d65575b505050811b019055613ced565b01515f1960f88460031b161c191690555f8080613d58565b80600185968294968601518155019501930190613d42565b908160809103126102fe576040519060808201908282106001600160401b0383111761043857606091604052805183526020810151613dd3816102ed565b6020840152604081015160408401520151613ded81611c2d565b606082015290565b908160209103126102fe5751610630816102ed565b9280604093608093979697865260606020870152816060870152838601375f828286010152601f80199101168301019360018060a01b0316910152565b909160a092600180851b031682526020820152606060408201526002606082015261060f60f31b60808201520190565b5f805490929190613e90906001600160a01b0316610afd565b6040805163f2be2c8560e01b8152600481018490529490918186602481845afa958615610da2578296613feb575b509060206004928451938480926331056e5760e21b82525afa918215610da2578192613fcb575b506060860191613f06613efe845160a08a01519061455e565b8094516136c0565b916001600160a01b0382168180808088855af1613f21612966565b5015613fba57818791875196877fdf7cc5ebdb7be805a1d96fd982aba37cbf8e9169d6f34870e8d63a62cd492f649889923390613f5e9183613e47565b0390a4875181908190819086906001600160a01b03165af1613f7e612966565b5015613fa9576139f6613f9e610afd60019798995160018060a01b031690565b945192839283613e47565b8351633b50281160e11b8152600490fd5b85516372f7724f60e01b8152600490fd5b613fe491925060203d8111610e2057610e0f818361048e565b905f613ee5565b6004929196506140066020913d8085833e610ee9818361048e565b96919250613ebe565b91821561402c57614027575042018042116127d35790565b905090565b5050505f90565b90811561404f5761404357505f90565b42018042116127d35790565b50505f90565b60ff5f80516020614c23833981519152541661406d57565b60405163d93c066560e01b8152600490fd5b5f8054909290614097906001600160a01b0316610afd565b6040516346c1c31160e11b8152600481018390529092608082602481875afa918215610da2578592614231575b50606082015115908115614215575b506141ee578360016140e4846144bc565b15151461420e57905160405163f2be2c8560e01b815260048101919091529081602481865afa908115610da25784916141f4575b50600161413161412c610100840151151590565b151590565b146141ee5761415d9260206060920151906040518080968194631c2e21b960e11b83526004830161061f565b03915afa908115610da25761418c610afd610afd6020946141ac96889161147e5750516001600160a01b031690565b6040518080958194631174806160e11b8352600483019190602083019252565b03915afa908115610da25782916141d0575b50156141ca5750600190565b60ff1690565b6141e8915060203d8111610dea57610dda818361048e565b5f6141be565b50505090565b61420891503d8086833e610ee9818361048e565b5f614118565b5050505090565b60208301516001600160a01b039182169116141590505f6140d3565b61424a91925060803d8111610e9d57610e8f818361048e565b905f6140c4565b60209081818403126102fe578051906001600160401b0382116102fe57019180601f840112156102fe578251614286816107e4565b93614294604051958661048e565b818552838086019260051b8201019283116102fe578301905b8282106142bb575050505090565b815181529083019083016142ad565b5f805490939291906142e4906001600160a01b0316610afd565b604080516304239ea560e11b815260048082018690526001600160a01b03949094166024820152909590939091908285604481855afa948515610da2578395614498575b5084511561448f57865163f2be2c8560e01b815284810191825291908390839081906020010381845afa918215610da257839261446c575b506060614387916020809401519089518080958194631c2e21b960e11b83528a830161061f565b03915afa908115610da2576143ae91610afd91859161147e5750516001600160a01b031690565b8294835b8151811015614461576143c581836127d8565b51846143d361412c836144bc565b159182614405575b50506143f0575b6143eb906127c5565b6143b2565b956143fd6143eb916127c5565b9690506143e2565b8b51631174806160e11b815289810191825292508290819060200103816001600160a01b0388165afa908115610da2578691614444575b50845f6143db565b61445b9150853d8711610dea57610dda818361048e565b5f61443c565b509496505050505050565b6143879192506144876060913d8087833e610ee9818361048e565b929150614360565b50909450505050565b6144b59195503d8085833e6144ad818361048e565b810190614251565b935f614328565b6144f660805f926144d6610afd855460018060a01b031690565b60405180809581946346c1c31160e11b8352600483019190602083019252565b03915afa908115610da257829161452d575b50606081015115614529576040015180156145295742106106305750600190565b5090565b614545915060803d8111610e9d57610e8f818361048e565b5f614508565b818102929181159184041417156127d357565b612710918261456d828461454b565b1061457f5761457b9161454b565b0490565b604051633032107560e21b8152600490fd5b5f546145cd91906080906145ad906001600160a01b0316610afd565b91604051809481926346c1c31160e11b8352600483019190602083019252565b0381845afa918215610da2575f9261466d575b5060608201511561465b57815160405163f2be2c8560e01b81526004810191909152905f90829060249082905afa908115610da2575f91614642575b50516001600160a01b031615614630575190565b6040516385a6706360e01b8152600490fd5b614655913d8091833e610ee9818361048e565b5f61461c565b60405163f97195bf60e01b8152600490fd5b61468691925060803d8111610e9d57610e8f818361048e565b905f6145e0565b5f80549091906146a5906001600160a01b0316610afd565b60405163f2be2c8560e01b81526004810183905290918382602481865afa918215610da257849261479b575b5081516001600160a01b031615614630576060614709936020840151906040518080978194631c2e21b960e11b83526004830161061f565b03915afa908115610da257614738610afd610afd60209461475897899161147e5750516001600160a01b031690565b604051808096819463632f7c8360e01b8352600483019190602083019252565b03915afa918215610da2576106309392614778575b5060600151906136b3565b60609192506147949060203d811161126c5761125d818361048e565b919061476d565b6147b09192503d8086833e610ee9818361048e565b905f6146d1565b906147ca602092828151948592016105d9565b0190565b5f90815260207f89fc852226e759c7c636cf34d732f0198fc56a54876b2374a52beb7b0c55860181526148036040832061055e565b8051909190156148d857604051928391817f89fc852226e759c7c636cf34d732f0198fc56a54876b2374a52beb7b0c558600908154614841816103d9565b926001918083169081156148b55750600114614878575b505050505061486a90610630936147b7565b03601f19810183528261048e565b90918093949550528382205b83831061489f575050508201018261486a6106305f80614858565b8054888401860152879550918401918101614884565b60ff191688870152505050508015150283010190508261486a6106305f80614858565b5050506106306104af565b90916148fa61063093604084526040840190611000565b916020818403910152611000565b91909182518251908181036111195750505f5b835181101561497c57600581901b8481016020908101519185010151614955929184906001600160a01b03821661495a575b5050506127c5565b61491b565b614972916109cf61496a926122f6565b9182546136b3565b90555f838161494d565b509160018151145f146149da576020908101519181015160408051938452918301526001600160a01b03909216915f9133917fc3d58168c5ae7397731d063d5bbf3d657854427343f4c083240f7aacaa2d0f629190819081016139f6565b7f4a39dc06d4c0dbc64b70af90fd698a233a518aa5d07e595d983b8c0526c8f7fb6139f65f939460405191829160018060a01b0316963395836148e3565b93929180518351908181036111195750505f5b8151811015614afd57600581901b82810160209081015191860101516001600160a01b0392918590898516614a8c575b614a6d948216614a72575050506127c5565b614a2b565b614a82916109cf61496a926122f6565b90555f848161494d565b9192939050614a9e896109cf846122f6565b54838110614ac65791869184614a6d96959403614abe8c6109cf856122f6565b559450614a5b565b6040516303dee4c560e01b81526001600160a01b038b16600482015260248101919091526044810184905260648101839052608490fd5b508051939493919291600103614b5f576020908101519181015160408051938452918301526001600160a01b03928316939092169133917fc3d58168c5ae7397731d063d5bbf3d657854427343f4c083240f7aacaa2d0f6291819081016139f6565b6040516001600160a01b03938416949093169233927f4a39dc06d4c0dbc64b70af90fd698a233a518aa5d07e595d983b8c0526c8f7fb9282916139f691836148e356fe189ab7a9244df0848122154315af71fe140f3db0fe014031783b0946b8c9d2e3360894a13ba1a3210667c828492db98dca3e2076cc3735a920a3ca505d382bbc65d7a28e3265b37a6474929f336521b332c1681b933f6cb9f3376673440d862a02dd7bc7dec4dceedda775e58dd541e08a116c6c53815c0bd028192f7b626800cd5ed15c6e187e77e9aee88184c21f4f2182ab5827cb3b7e07fbedcd63f033009b779b17422d0df92223018b32b4d1fa46e071723d6817e2486d003becc55f00f0c57e16840df040f15088dc2f81fe391c3923bec73e23a9662efc9c229c6a0088be536d5240c274a3b1d3a1be54482fd9caa294f08c62a7cde569f49a3c4502a2646970667358221220c61e70967768850cae8e2343fca7a945619594326b1e3de10eedf765810a7d2664736f6c63430008140033",
  "linkReferences": {},
  "deployedLinkReferences": {}
}