{
  "_format": "hh-sol-artifact-1",
  "contractName": "TheBadge",
  "sourceName": "src/contracts/thebadge/TheBadge.sol",
  "abi": [
    {
      "inputs": [],
      "stateMutability": "nonpayable",
      "type": "constructor"
    },
    {
      "inputs": [],
      "name": "TheBadge__SBT",
      "type": "error"
    },
    {
      "inputs": [],
      "name": "TheBadge__calculateFee_protocolFeesInvalidValues",
      "type": "error"
    },
    {
      "inputs": [],
      "name": "TheBadge__mint_creatorFeesPaymentFailed",
      "type": "error"
    },
    {
      "inputs": [],
      "name": "TheBadge__mint_protocolFeesPaymentFailed",
      "type": "error"
    },
    {
      "inputs": [],
      "name": "TheBadge__requestBadge_badgeModelIsSuspended",
      "type": "error"
    },
    {
      "inputs": [],
      "name": "TheBadge__requestBadge_badgeModelNotFound",
      "type": "error"
    },
    {
      "inputs": [],
      "name": "TheBadge__requestBadge_badgeNotClaimable",
      "type": "error"
    },
    {
      "inputs": [],
      "name": "TheBadge__requestBadge_badgeNotFound",
      "type": "error"
    },
    {
      "inputs": [],
      "name": "TheBadge__requestBadge_controllerIsPaused",
      "type": "error"
    },
    {
      "inputs": [],
      "name": "TheBadge__requestBadge_isPaused",
      "type": "error"
    },
    {
      "inputs": [],
      "name": "TheBadge__requestBadge_wrongValue",
      "type": "error"
    },
    {
      "anonymous": false,
      "inputs": [
        {
          "indexed": false,
          "internalType": "address",
          "name": "previousAdmin",
          "type": "address"
        },
        {
          "indexed": false,
          "internalType": "address",
          "name": "newAdmin",
          "type": "address"
        }
      ],
      "name": "AdminChanged",
      "type": "event"
    },
    {
      "anonymous": false,
      "inputs": [
        {
          "indexed": true,
          "internalType": "address",
          "name": "account",
          "type": "address"
        },
        {
          "indexed": true,
          "internalType": "address",
          "name": "operator",
          "type": "address"
        },
        {
          "indexed": false,
          "internalType": "bool",
          "name": "approved",
          "type": "bool"
        }
      ],
      "name": "ApprovalForAll",
      "type": "event"
    },
    {
      "anonymous": false,
      "inputs": [
        {
          "indexed": true,
          "internalType": "address",
          "name": "beacon",
          "type": "address"
        }
      ],
      "name": "BeaconUpgraded",
      "type": "event"
    },
    {
      "anonymous": false,
      "inputs": [
        {
          "indexed": false,
          "internalType": "uint8",
          "name": "version",
          "type": "uint8"
        }
      ],
      "name": "Initialized",
      "type": "event"
    },
    {
      "anonymous": false,
      "inputs": [
        {
          "indexed": false,
          "internalType": "address",
          "name": "account",
          "type": "address"
        }
      ],
      "name": "Paused",
      "type": "event"
    },
    {
      "anonymous": false,
      "inputs": [
        {
          "indexed": true,
          "internalType": "bytes32",
          "name": "role",
          "type": "bytes32"
        },
        {
          "indexed": true,
          "internalType": "bytes32",
          "name": "previousAdminRole",
          "type": "bytes32"
        },
        {
          "indexed": true,
          "internalType": "bytes32",
          "name": "newAdminRole",
          "type": "bytes32"
        }
      ],
      "name": "RoleAdminChanged",
      "type": "event"
    },
    {
      "anonymous": false,
      "inputs": [
        {
          "indexed": true,
          "internalType": "bytes32",
          "name": "role",
          "type": "bytes32"
        },
        {
          "indexed": true,
          "internalType": "address",
          "name": "account",
          "type": "address"
        },
        {
          "indexed": true,
          "internalType": "address",
          "name": "sender",
          "type": "address"
        }
      ],
      "name": "RoleGranted",
      "type": "event"
    },
    {
      "anonymous": false,
      "inputs": [
        {
          "indexed": true,
          "internalType": "bytes32",
          "name": "role",
          "type": "bytes32"
        },
        {
          "indexed": true,
          "internalType": "address",
          "name": "account",
          "type": "address"
        },
        {
          "indexed": true,
          "internalType": "address",
          "name": "sender",
          "type": "address"
        }
      ],
      "name": "RoleRevoked",
      "type": "event"
    },
    {
      "anonymous": false,
      "inputs": [
        {
          "indexed": true,
          "internalType": "address",
          "name": "operator",
          "type": "address"
        },
        {
          "indexed": true,
          "internalType": "address",
          "name": "from",
          "type": "address"
        },
        {
          "indexed": true,
          "internalType": "address",
          "name": "to",
          "type": "address"
        },
        {
          "indexed": false,
          "internalType": "uint256[]",
          "name": "ids",
          "type": "uint256[]"
        },
        {
          "indexed": false,
          "internalType": "uint256[]",
          "name": "values",
          "type": "uint256[]"
        }
      ],
      "name": "TransferBatch",
      "type": "event"
    },
    {
      "anonymous": false,
      "inputs": [
        {
          "indexed": true,
          "internalType": "address",
          "name": "operator",
          "type": "address"
        },
        {
          "indexed": true,
          "internalType": "address",
          "name": "from",
          "type": "address"
        },
        {
          "indexed": true,
          "internalType": "address",
          "name": "to",
          "type": "address"
        },
        {
          "indexed": false,
          "internalType": "uint256",
          "name": "id",
          "type": "uint256"
        },
        {
          "indexed": false,
          "internalType": "uint256",
          "name": "value",
          "type": "uint256"
        }
      ],
      "name": "TransferSingle",
      "type": "event"
    },
    {
      "anonymous": false,
      "inputs": [
        {
          "indexed": false,
          "internalType": "string",
          "name": "value",
          "type": "string"
        },
        {
          "indexed": true,
          "internalType": "uint256",
          "name": "id",
          "type": "uint256"
        }
      ],
      "name": "URI",
      "type": "event"
    },
    {
      "anonymous": false,
      "inputs": [
        {
          "indexed": false,
          "internalType": "address",
          "name": "account",
          "type": "address"
        }
      ],
      "name": "Unpaused",
      "type": "event"
    },
    {
      "anonymous": false,
      "inputs": [
        {
          "indexed": true,
          "internalType": "address",
          "name": "implementation",
          "type": "address"
        }
      ],
      "name": "Upgraded",
      "type": "event"
    },
    {
      "inputs": [],
      "name": "DEFAULT_ADMIN_ROLE",
      "outputs": [
        {
          "internalType": "bytes32",
          "name": "",
          "type": "bytes32"
        }
      ],
      "stateMutability": "view",
      "type": "function"
    },
    {
      "inputs": [],
      "name": "PAUSER_ROLE",
      "outputs": [
        {
          "internalType": "bytes32",
          "name": "",
          "type": "bytes32"
        }
      ],
      "stateMutability": "view",
      "type": "function"
    },
    {
      "inputs": [],
      "name": "UPGRADER_ROLE",
      "outputs": [
        {
          "internalType": "bytes32",
          "name": "",
          "type": "bytes32"
        }
      ],
      "stateMutability": "view",
      "type": "function"
    },
    {
      "inputs": [],
      "name": "URI_SETTER_ROLE",
      "outputs": [
        {
          "internalType": "bytes32",
          "name": "",
          "type": "bytes32"
        }
      ],
      "stateMutability": "view",
      "type": "function"
    },
    {
      "inputs": [],
      "name": "VERIFIER_ROLE",
      "outputs": [
        {
          "internalType": "bytes32",
          "name": "",
          "type": "bytes32"
        }
      ],
      "stateMutability": "view",
      "type": "function"
    },
    {
      "inputs": [
        {
          "internalType": "address",
          "name": "account",
          "type": "address"
        },
        {
          "internalType": "uint256",
          "name": "badgeId",
          "type": "uint256"
        }
      ],
      "name": "balanceOf",
      "outputs": [
        {
          "internalType": "uint256",
          "name": "",
          "type": "uint256"
        }
      ],
      "stateMutability": "view",
      "type": "function"
    },
    {
      "inputs": [
        {
          "internalType": "address",
          "name": "account",
          "type": "address"
        },
        {
          "internalType": "uint256",
          "name": "badgeModelId",
          "type": "uint256"
        }
      ],
      "name": "balanceOfBadgeModel",
      "outputs": [
        {
          "internalType": "uint256",
          "name": "",
          "type": "uint256"
        }
      ],
      "stateMutability": "view",
      "type": "function"
    },
    {
      "inputs": [
        {
          "internalType": "address[]",
          "name": "accounts",
          "type": "address[]"
        },
        {
          "internalType": "uint256[]",
          "name": "ids",
          "type": "uint256[]"
        }
      ],
      "name": "balanceOfBatch",
      "outputs": [
        {
          "internalType": "uint256[]",
          "name": "",
          "type": "uint256[]"
        }
      ],
      "stateMutability": "view",
      "type": "function"
    },
    {
      "inputs": [
        {
          "internalType": "uint256",
          "name": "badgeId",
          "type": "uint256"
        },
        {
          "internalType": "bytes",
          "name": "data",
          "type": "bytes"
        }
      ],
      "name": "challenge",
      "outputs": [],
      "stateMutability": "payable",
      "type": "function"
    },
    {
      "inputs": [
        {
          "internalType": "uint256",
          "name": "badgeId",
          "type": "uint256"
        },
        {
          "internalType": "bytes",
          "name": "data",
          "type": "bytes"
        }
      ],
      "name": "claim",
      "outputs": [],
      "stateMutability": "nonpayable",
      "type": "function"
    },
    {
      "inputs": [
        {
          "internalType": "uint256",
          "name": "badgeId",
          "type": "uint256"
        }
      ],
      "name": "getChallengeDepositValue",
      "outputs": [
        {
          "internalType": "uint256",
          "name": "",
          "type": "uint256"
        }
      ],
      "stateMutability": "view",
      "type": "function"
    },
    {
      "inputs": [
        {
          "internalType": "uint256",
          "name": "badgeId",
          "type": "uint256"
        }
      ],
      "name": "getRemovalDepositValue",
      "outputs": [
        {
          "internalType": "uint256",
          "name": "",
          "type": "uint256"
        }
      ],
      "stateMutability": "view",
      "type": "function"
    },
    {
      "inputs": [
        {
          "internalType": "bytes32",
          "name": "role",
          "type": "bytes32"
        }
      ],
      "name": "getRoleAdmin",
      "outputs": [
        {
          "internalType": "bytes32",
          "name": "",
          "type": "bytes32"
        }
      ],
      "stateMutability": "view",
      "type": "function"
    },
    {
      "inputs": [
        {
          "internalType": "bytes32",
          "name": "role",
          "type": "bytes32"
        },
        {
          "internalType": "address",
          "name": "account",
          "type": "address"
        }
      ],
      "name": "grantRole",
      "outputs": [],
      "stateMutability": "nonpayable",
      "type": "function"
    },
    {
      "inputs": [
        {
          "internalType": "bytes32",
          "name": "role",
          "type": "bytes32"
        },
        {
          "internalType": "address",
          "name": "account",
          "type": "address"
        }
      ],
      "name": "hasRole",
      "outputs": [
        {
          "internalType": "bool",
          "name": "",
          "type": "bool"
        }
      ],
      "stateMutability": "view",
      "type": "function"
    },
    {
      "inputs": [
        {
          "internalType": "address",
          "name": "admin",
          "type": "address"
        },
        {
          "internalType": "address",
          "name": "badgeStore",
          "type": "address"
        }
      ],
      "name": "initialize",
      "outputs": [],
      "stateMutability": "nonpayable",
      "type": "function"
    },
    {
      "inputs": [
        {
          "internalType": "address",
          "name": "account",
          "type": "address"
        },
        {
          "internalType": "address",
          "name": "operator",
          "type": "address"
        }
      ],
      "name": "isApprovedForAll",
      "outputs": [
        {
          "internalType": "bool",
          "name": "",
          "type": "bool"
        }
      ],
      "stateMutability": "view",
      "type": "function"
    },
    {
      "inputs": [
        {
          "internalType": "uint256",
          "name": "badgeId",
          "type": "uint256"
        }
      ],
      "name": "isExpired",
      "outputs": [
        {
          "internalType": "bool",
          "name": "",
          "type": "bool"
        }
      ],
      "stateMutability": "view",
      "type": "function"
    },
    {
      "inputs": [
        {
          "internalType": "uint256",
          "name": "badgeModelId",
          "type": "uint256"
        },
        {
          "internalType": "address",
          "name": "account",
          "type": "address"
        },
        {
          "internalType": "string",
          "name": "tokenURI",
          "type": "string"
        },
        {
          "internalType": "bytes",
          "name": "data",
          "type": "bytes"
        }
      ],
      "name": "mint",
      "outputs": [],
      "stateMutability": "payable",
      "type": "function"
    },
    {
      "inputs": [
        {
          "internalType": "uint256",
          "name": "badgeModelId",
          "type": "uint256"
        }
      ],
      "name": "mintValue",
      "outputs": [
        {
          "internalType": "uint256",
          "name": "",
          "type": "uint256"
        }
      ],
      "stateMutability": "view",
      "type": "function"
    },
    {
      "inputs": [],
      "name": "name",
      "outputs": [
        {
          "internalType": "string",
          "name": "",
          "type": "string"
        }
      ],
      "stateMutability": "view",
      "type": "function"
    },
    {
      "inputs": [],
      "name": "pause",
      "outputs": [],
      "stateMutability": "nonpayable",
      "type": "function"
    },
    {
      "inputs": [],
      "name": "paused",
      "outputs": [
        {
          "internalType": "bool",
          "name": "",
          "type": "bool"
        }
      ],
      "stateMutability": "view",
      "type": "function"
    },
    {
      "inputs": [],
      "name": "proxiableUUID",
      "outputs": [
        {
          "internalType": "bytes32",
          "name": "",
          "type": "bytes32"
        }
      ],
      "stateMutability": "view",
      "type": "function"
    },
    {
      "inputs": [
        {
          "internalType": "uint256",
          "name": "badgeId",
          "type": "uint256"
        },
        {
          "internalType": "bytes",
          "name": "data",
          "type": "bytes"
        }
      ],
      "name": "removeItem",
      "outputs": [],
      "stateMutability": "payable",
      "type": "function"
    },
    {
      "inputs": [
        {
          "internalType": "bytes32",
          "name": "role",
          "type": "bytes32"
        },
        {
          "internalType": "address",
          "name": "account",
          "type": "address"
        }
      ],
      "name": "renounceRole",
      "outputs": [],
      "stateMutability": "nonpayable",
      "type": "function"
    },
    {
      "inputs": [
        {
          "internalType": "bytes32",
          "name": "role",
          "type": "bytes32"
        },
        {
          "internalType": "address",
          "name": "account",
          "type": "address"
        }
      ],
      "name": "revokeRole",
      "outputs": [],
      "stateMutability": "nonpayable",
      "type": "function"
    },
    {
      "inputs": [
        {
          "internalType": "address",
          "name": "from",
          "type": "address"
        },
        {
          "internalType": "address",
          "name": "to",
          "type": "address"
        },
        {
          "internalType": "uint256[]",
          "name": "ids",
          "type": "uint256[]"
        },
        {
          "internalType": "uint256[]",
          "name": "amounts",
          "type": "uint256[]"
        },
        {
          "internalType": "bytes",
          "name": "data",
          "type": "bytes"
        }
      ],
      "name": "safeBatchTransferFrom",
      "outputs": [],
      "stateMutability": "nonpayable",
      "type": "function"
    },
    {
      "inputs": [
        {
          "internalType": "address",
          "name": "from",
          "type": "address"
        },
        {
          "internalType": "address",
          "name": "to",
          "type": "address"
        },
        {
          "internalType": "uint256",
          "name": "id",
          "type": "uint256"
        },
        {
          "internalType": "uint256",
          "name": "amount",
          "type": "uint256"
        },
        {
          "internalType": "bytes",
          "name": "data",
          "type": "bytes"
        }
      ],
      "name": "safeTransferFrom",
      "outputs": [],
      "stateMutability": "nonpayable",
      "type": "function"
    },
    {
      "inputs": [
        {
          "internalType": "address",
          "name": "operator",
          "type": "address"
        },
        {
          "internalType": "bool",
          "name": "approved",
          "type": "bool"
        }
      ],
      "name": "setApprovalForAll",
      "outputs": [],
      "stateMutability": "nonpayable",
      "type": "function"
    },
    {
      "inputs": [
        {
          "internalType": "uint256",
          "name": "badgeId",
          "type": "uint256"
        },
        {
          "internalType": "bytes",
          "name": "data",
          "type": "bytes"
        }
      ],
      "name": "submitEvidence",
      "outputs": [],
      "stateMutability": "nonpayable",
      "type": "function"
    },
    {
      "inputs": [
        {
          "internalType": "bytes4",
          "name": "interfaceId",
          "type": "bytes4"
        }
      ],
      "name": "supportsInterface",
      "outputs": [
        {
          "internalType": "bool",
          "name": "",
          "type": "bool"
        }
      ],
      "stateMutability": "view",
      "type": "function"
    },
    {
      "inputs": [],
      "name": "unpause",
      "outputs": [],
      "stateMutability": "nonpayable",
      "type": "function"
    },
    {
      "inputs": [
        {
          "internalType": "uint256",
          "name": "_createBadgeModelValue",
          "type": "uint256"
        }
      ],
      "name": "updateCreateBadgeModelProtocolFee",
      "outputs": [],
      "stateMutability": "nonpayable",
      "type": "function"
    },
    {
      "inputs": [
        {
          "internalType": "uint256",
          "name": "_mintBadgeDefaultFee",
          "type": "uint256"
        }
      ],
      "name": "updateMintBadgeDefaultProtocolFee",
      "outputs": [],
      "stateMutability": "nonpayable",
      "type": "function"
    },
    {
      "inputs": [
        {
          "internalType": "uint256",
          "name": "_registerCreatorValue",
          "type": "uint256"
        }
      ],
      "name": "updateRegisterCreatorProtocolFee",
      "outputs": [],
      "stateMutability": "nonpayable",
      "type": "function"
    },
    {
      "inputs": [
        {
          "internalType": "address",
          "name": "newImplementation",
          "type": "address"
        }
      ],
      "name": "upgradeTo",
      "outputs": [],
      "stateMutability": "nonpayable",
      "type": "function"
    },
    {
      "inputs": [
        {
          "internalType": "address",
          "name": "newImplementation",
          "type": "address"
        },
        {
          "internalType": "bytes",
          "name": "data",
          "type": "bytes"
        }
      ],
      "name": "upgradeToAndCall",
      "outputs": [],
      "stateMutability": "payable",
      "type": "function"
    },
    {
      "inputs": [
        {
          "internalType": "uint256",
          "name": "badgeId",
          "type": "uint256"
        }
      ],
      "name": "uri",
      "outputs": [
        {
          "internalType": "string",
          "name": "",
          "type": "string"
        }
      ],
      "stateMutability": "view",
      "type": "function"
    },
    {
      "stateMutability": "payable",
      "type": "receive"
    }
  ],
  "bytecode": "0x60a0604052306080523480156200001557600080fd5b506200002062000026565b620000e7565b600054610100900460ff1615620000935760405162461bcd60e51b815260206004820152602760248201527f496e697469616c697a61626c653a20636f6e747261637420697320696e697469604482015266616c697a696e6760c81b606482015260840160405180910390fd5b60005460ff90811614620000e5576000805460ff191660ff9081179091556040519081527f7f26b83ff96e1f2b6a682f133852f6798a09c465da95921460cefb38474024989060200160405180910390a15b565b608051614d736200011f60003960008181610b0401528181610b440152818161135c0152818161139c01526114140152614d736000f3fe6080604052600436106101f35760003560e01c80637f3457101161010e578063d547741f1161009b578063d547741f14610590578063d7deba15146105b0578063d9548e53146105d0578063e1818651146105f0578063e63ab1e914610610578063e7705db614610632578063e985e9c514610666578063f1fe717e146106af578063f242432a146106cf578063f72c0d8b146106ef57600080fd5b80637f345710146104795780638456cb59146104ad57806391d14854146104c257806393c7a71b146104e25780639faf715814610502578063a03aafbf14610515578063a217fddf14610528578063a22cb4651461053d578063c1d188401461055d578063c5a3c7ca1461057057600080fd5b806338926b6d1161018c57806338926b6d146103575780633f4ba83a1461037757806346c457581461038c578063485cc955146103ac5780634e1273f4146103cc5780634f1ef286146103f957806352d1902d1461040c5780635c975abb14610421578063632f7c83146104395780637eb7f1761461045957600080fd5b8062fdd58e146101ff57806301ffc9a71461023257806306fdde03146102625780630e89341c14610284578063248a9ca3146102a45780632eb2c2d6146102d55780632f2ff15d146102f757806336568abe146103175780633659cfe61461033757600080fd5b366101fa57005b600080fd5b34801561020b57600080fd5b5061021f61021a366004613acc565b610711565b6040519081526020015b60405180910390f35b34801561023e57600080fd5b5061025261024d366004613b0e565b610957565b6040519015158152602001610229565b34801561026e57600080fd5b50610277610962565b6040516102299190613b7b565b34801561029057600080fd5b5061027761029f366004613b8e565b6109f1565b3480156102b057600080fd5b5061021f6102bf366004613b8e565b600090815261015f602052604090206001015490565b3480156102e157600080fd5b506102f56102f0366004613d58565b6109fc565b005b34801561030357600080fd5b506102f5610312366004613e05565b610a51565b34801561032357600080fd5b506102f5610332366004613e05565b610a7c565b34801561034357600080fd5b506102f5610352366004613e35565b610afa565b34801561036357600080fd5b506102f5610372366004613e52565b610bc2565b34801561038357600080fd5b506102f5610dbc565b34801561039857600080fd5b5061021f6103a7366004613acc565b610ddc565b3480156103b857600080fd5b506102f56103c7366004613ecd565b611039565b3480156103d857600080fd5b506103ec6103e7366004613efb565b611229565b6040516102299190614002565b6102f5610407366004614015565b611352565b34801561041857600080fd5b5061021f611407565b34801561042d57600080fd5b5060c95460ff16610252565b34801561044557600080fd5b5061021f610454366004613b8e565b6114b6565b34801561046557600080fd5b5061021f610474366004613b8e565b611657565b34801561048557600080fd5b5061021f7f7804d923f43a17d325d77e781528e0793b2edd9890ab45fc64efd7b4b427744c81565b3480156104b957600080fd5b506102f56117d0565b3480156104ce57600080fd5b506102526104dd366004613e05565b6117f0565b3480156104ee57600080fd5b506102f56104fd366004613e52565b61181c565b6102f5610510366004613e52565b611950565b6102f5610523366004613e52565b611ac1565b34801561053457600080fd5b5061021f600081565b34801561054957600080fd5b506102f5610558366004614068565b611bf7565b6102f561056b366004614096565b611c02565b34801561057c57600080fd5b506102f561058b366004613b8e565b6123c0565b34801561059c57600080fd5b506102f56105ab366004613e05565b61242f565b3480156105bc57600080fd5b5061021f6105cb366004613b8e565b612455565b3480156105dc57600080fd5b506102526105eb366004613b8e565b612587565b3480156105fc57600080fd5b506102f561060b366004613b8e565b612646565b34801561061c57600080fd5b5061021f600080516020614cf783398151915281565b34801561063e57600080fd5b5061021f7f0ce23c3e399818cfee81a7ab0880f714e53d7672b08df0fa62f2843416e1ea0981565b34801561067257600080fd5b50610252610681366004613ecd565b6001600160a01b03918216600090815260666020908152604080832093909416825291909152205460ff1690565b3480156106bb57600080fd5b506102f56106ca366004613b8e565b612683565b3480156106db57600080fd5b506102f56106ea36600461412c565b6126c0565b3480156106fb57600080fd5b5061021f600080516020614cb783398151915281565b610191546040516346c1c31160e11b81526004810183905260009182916001600160a01b0390911690638d83862290602401608060405180830381865afa158015610760573d6000803e3d6000fd5b505050506040513d601f19601f8201168201806040525081019061078491906141af565b606081015190915015806107ae5750836001600160a01b031681602001516001600160a01b031614155b156107bd576000915050610951565b6107c683612587565b15156001036107d9576000915050610951565b61019154815160405163f2be2c8560e01b815260048101919091526000916001600160a01b03169063f2be2c8590602401600060405180830381865afa158015610827573d6000803e3d6000fd5b505050506040513d6000823e601f3d908101601f1916820160405261084f9190810190614270565b610191546020820151604051631c2e21b960e11b81529293506000926001600160a01b039092169163385c43729161088991600401613b7b565b606060405180830381865afa1580156108a6573d6000803e3d6000fd5b505050506040513d601f19601f820116820180604052508101906108ca9190614352565b8051604051631174806160e11b815260048101889052919250906001600160a01b038216906322e900c290602401602060405180830381865afa158015610915573d6000803e3d6000fd5b505050506040513d601f19601f8201168201806040525081019061093991906143c3565b610944576000610947565b60015b60ff169450505050505b92915050565b600061095182612705565b6101928054610970906143e0565b80601f016020809104026020016040519081016040528092919081815260200182805461099c906143e0565b80156109e95780601f106109be576101008083540402835291602001916109e9565b820191906000526020600020905b8154815290600101906020018083116109cc57829003601f168201915b505050505081565b60606109518261272a565b6001600160a01b038516331480610a185750610a188533610681565b610a3d5760405162461bcd60e51b8152600401610a349061441a565b60405180910390fd5b610a4a8585858585612809565b5050505050565b600082815261015f6020526040902060010154610a6d816129ef565b610a7783836129f9565b505050565b6001600160a01b0381163314610aec5760405162461bcd60e51b815260206004820152602f60248201527f416363657373436f6e74726f6c3a2063616e206f6e6c792072656e6f756e636560448201526e103937b632b9903337b91039b2b63360891b6064820152608401610a34565b610af68282612a80565b5050565b6001600160a01b037f0000000000000000000000000000000000000000000000000000000000000000163003610b425760405162461bcd60e51b8152600401610a3490614468565b7f00000000000000000000000000000000000000000000000000000000000000006001600160a01b0316610b74612ae8565b6001600160a01b031614610b9a5760405162461bcd60e51b8152600401610a34906144b4565b610ba381612b04565b60408051600080825260208201909252610bbf91839190612b1c565b50565b6000610bcd84612c87565b6101915460405163f2be2c8560e01b8152600481018390529192506000916001600160a01b039091169063f2be2c8590602401600060405180830381865afa158015610c1d573d6000803e3d6000fd5b505050506040513d6000823e601f3d908101601f19168201604052610c459190810190614270565b610191546020820151604051631c2e21b960e11b81529293506000926001600160a01b039092169163385c437291610c7f91600401613b7b565b606060405180830381865afa158015610c9c573d6000803e3d6000fd5b505050506040513d601f19601f82011682018060405250810190610cc09190614352565b80516040516389610a0960e01b815260048101899052919250906001600160a01b038216906389610a0990602401602060405180830381865afa158015610d0b573d6000803e3d6000fd5b505050506040513d601f19601f82011682018060405250810190610d2f91906143c3565b1515600003610d5157604051632edd9d0f60e21b815260040160405180910390fd5b6040516338926b6d60e01b81526001600160a01b038216906338926b6d90610d81908a908a908a90600401614500565b600060405180830381600087803b158015610d9b57600080fd5b505af1158015610daf573d6000803e3d6000fd5b5050505050505050505050565b600080516020614cf7833981519152610dd4816129ef565b610bbf612dcd565b610191546040516304239ea560e11b8152600481018390526001600160a01b03848116602483015260009283929116906308473d4a90604401600060405180830381865afa158015610e32573d6000803e3d6000fd5b505050506040513d6000823e601f3d908101601f19168201604052610e5a9190810190614536565b90508051600003610e6f576000915050610951565b6101915460405163f2be2c8560e01b8152600481018590526000916001600160a01b03169063f2be2c8590602401600060405180830381865afa158015610eba573d6000803e3d6000fd5b505050506040513d6000823e601f3d908101601f19168201604052610ee29190810190614270565b610191546020820151604051631c2e21b960e11b81529293506000926001600160a01b039092169163385c437291610f1c91600401613b7b565b606060405180830381865afa158015610f39573d6000803e3d6000fd5b505050506040513d601f19601f82011682018060405250810190610f5d9190614352565b80519091506000805b855181101561102d576000868281518110610f8357610f836145d1565b60200260200101519050610f9681612587565b1580156110075750604051631174806160e11b8152600481018290526001600160a01b038516906322e900c290602401602060405180830381865afa158015610fe3573d6000803e3d6000fd5b505050506040513d601f19601f8201168201806040525081019061100791906143c3565b1561101a5782611016816145fd565b9350505b5080611025816145fd565b915050610f66565b50979650505050505050565b600054610100900460ff16158080156110595750600054600160ff909116105b8061107a575061106830612e19565b15801561107a575060005460ff166001145b6110dd5760405162461bcd60e51b815260206004820152602e60248201527f496e697469616c697a61626c653a20636f6e747261637420697320616c72656160448201526d191e481a5b9a5d1a585b1a5e995960921b6064820152608401610a34565b6000805460ff191660011790558015611100576000805461ff0019166101001790555b61111860405180602001604052806000815250612e28565b611120612e58565b611128612e81565b611130612e58565b61113b6000846129f9565b611153600080516020614cf7833981519152846129f9565b61116b600080516020614cb7833981519152846129f9565b6111957f0ce23c3e399818cfee81a7ab0880f714e53d7672b08df0fa62f2843416e1ea09846129f9565b61019180546001600160a01b0319166001600160a01b038416179055604080518082019091526008815267546865426164676560c01b6020820152610192906111de908261465c565b508015610a77576000805461ff0019169055604051600181527f7f26b83ff96e1f2b6a682f133852f6798a09c465da95921460cefb38474024989060200160405180910390a1505050565b6060815183511461128e5760405162461bcd60e51b815260206004820152602960248201527f455243313135353a206163636f756e747320616e6420696473206c656e677468604482015268040dad2e6dac2e8c6d60bb1b6064820152608401610a34565b600083516001600160401b038111156112a9576112a9613ba7565b6040519080825280602002602001820160405280156112d2578160200160208202803683370190505b50905060005b845181101561134a5761131d8582815181106112f6576112f66145d1565b6020026020010151858381518110611310576113106145d1565b6020026020010151610711565b82828151811061132f5761132f6145d1565b6020908102919091010152611343816145fd565b90506112d8565b509392505050565b6001600160a01b037f000000000000000000000000000000000000000000000000000000000000000016300361139a5760405162461bcd60e51b8152600401610a3490614468565b7f00000000000000000000000000000000000000000000000000000000000000006001600160a01b03166113cc612ae8565b6001600160a01b0316146113f25760405162461bcd60e51b8152600401610a34906144b4565b6113fb82612b04565b610af682826001612b1c565b6000306001600160a01b037f000000000000000000000000000000000000000000000000000000000000000016146114a25760405162461bcd60e51b815260206004820152603860248201527f555550535570677261646561626c653a206d757374206e6f742062652063616c6044820152771b1959081d1a1c9bdd59da0819195b1959d85d1958d85b1b60421b6064820152608401610a34565b50600080516020614cd78339815191525b90565b6101915460405163f2be2c8560e01b81526004810183905260009182916001600160a01b039091169063f2be2c8590602401600060405180830381865afa158015611505573d6000803e3d6000fd5b505050506040513d6000823e601f3d908101601f1916820160405261152d9190810190614270565b80519091506001600160a01b0316611558576040516385a6706360e01b815260040160405180910390fd5b610191546020820151604051631c2e21b960e11b81526000926001600160a01b03169163385c43729161158e9190600401613b7b565b606060405180830381865afa1580156115ab573d6000803e3d6000fd5b505050506040513d601f19601f820116820180604052508101906115cf9190614352565b8051606084015160405163632f7c8360e01b81526004810188905292935090916001600160a01b0383169063632f7c8390602401602060405180830381865afa158015611620573d6000803e3d6000fd5b505050506040513d601f19601f82011682018060405250810190611644919061471b565b61164e9190614734565b95945050505050565b60008061166383612c87565b6101915460405163f2be2c8560e01b8152600481018390529192506000916001600160a01b039091169063f2be2c8590602401600060405180830381865afa1580156116b3573d6000803e3d6000fd5b505050506040513d6000823e601f3d908101601f191682016040526116db9190810190614270565b610191546020820151604051631c2e21b960e11b81529293506000926001600160a01b039092169163385c43729161171591600401613b7b565b606060405180830381865afa158015611732573d6000803e3d6000fd5b505050506040513d601f19601f820116820180604052508101906117569190614352565b8051604051633f5bf8bb60e11b815260048101889052919250906001600160a01b03821690637eb7f176906024015b602060405180830381865afa1580156117a2573d6000803e3d6000fd5b505050506040513d601f19601f820116820180604052508101906117c6919061471b565b9695505050505050565b600080516020614cf78339815191526117e8816129ef565b610bbf612eb0565b600091825261015f602090815260408084206001600160a01b0393909316845291905290205460ff1690565b600061182784612c87565b6101915460405163f2be2c8560e01b8152600481018390529192506000916001600160a01b039091169063f2be2c8590602401600060405180830381865afa158015611877573d6000803e3d6000fd5b505050506040513d6000823e601f3d908101601f1916820160405261189f9190810190614270565b610191546020820151604051631c2e21b960e11b81529293506000926001600160a01b039092169163385c4372916118d991600401613b7b565b606060405180830381865afa1580156118f6573d6000803e3d6000fd5b505050506040513d601f19601f8201168201806040525081019061191a9190614352565b80516040516393c7a71b60e01b8152919250906001600160a01b038216906393c7a71b90610d81908a908a908a90600401614500565b600061195b84612c87565b6101915460405163f2be2c8560e01b8152600481018390529192506000916001600160a01b039091169063f2be2c8590602401600060405180830381865afa1580156119ab573d6000803e3d6000fd5b505050506040513d6000823e601f3d908101601f191682016040526119d39190810190614270565b610191546020820151604051631c2e21b960e11b81529293506000926001600160a01b039092169163385c437291611a0d91600401613b7b565b606060405180830381865afa158015611a2a573d6000803e3d6000fd5b505050506040513d601f19601f82011682018060405250810190611a4e9190614352565b80516040516313f5ee2b60e31b8152919250906001600160a01b03821690639faf7158903490611a86908b908b908b90600401614500565b6000604051808303818588803b158015611a9f57600080fd5b505af1158015611ab3573d6000803e3d6000fd5b505050505050505050505050565b6000611acc84612c87565b6101915460405163f2be2c8560e01b8152600481018390529192506000916001600160a01b039091169063f2be2c8590602401600060405180830381865afa158015611b1c573d6000803e3d6000fd5b505050506040513d6000823e601f3d908101601f19168201604052611b449190810190614270565b610191546020820151604051631c2e21b960e11b81529293506000926001600160a01b039092169163385c437291611b7e91600401613b7b565b606060405180830381865afa158015611b9b573d6000803e3d6000fd5b505050506040513d601f19601f82011682018060405250810190611bbf9190614352565b805160405163a03aafbf60e01b8152919250906001600160a01b0382169063a03aafbf903490611a86908b908b908b90600401614500565b610af6338383612eed565b6101915460405163f2be2c8560e01b81526004810186905285916000916001600160a01b039091169063f2be2c8590602401600060405180830381865afa158015611c51573d6000803e3d6000fd5b505050506040513d6000823e601f3d908101601f19168201604052611c799190810190614270565b610191546020820151604051631c2e21b960e11b81529293506000926001600160a01b039092169163385c437291611cb391600401613b7b565b606060405180830381865afa158015611cd0573d6000803e3d6000fd5b505050506040513d601f19601f82011682018060405250810190611cf49190614352565b80518351919250906001600160a01b0316611d22576040516385a6706360e01b815260040160405180910390fd5b826040015115611d4557604051635d71fd6f60e01b815260040160405180910390fd5b816020015115611d6857604051631bd063c360e01b815260040160405180910390fd5b610191548351604051636f77926b60e01b81526000926001600160a01b031691636f77926b91611d9b9190600401614747565b600060405180830381865afa158015611db8573d6000803e3d6000fd5b505050506040513d6000823e601f3d908101601f19168201604052611de0919081019061475b565b60608101519091501515600103611e0a5760405163a800bb9d60e01b815260040160405180910390fd5b88888789611e17846114b6565b341015611e37576040516393fda7e360e01b815260040160405180910390fd5b6101915460405163f2be2c8560e01b8152600481018f90526000916001600160a01b03169063f2be2c8590602401600060405180830381865afa158015611e82573d6000803e3d6000fd5b505050506040513d6000823e601f3d908101601f19168201604052611eaa9190810190614270565b9050600061019160009054906101000a90046001600160a01b03166001600160a01b031663c415b95c6040518163ffffffff1660e01b8152600401602060405180830381865afa158015611f02573d6000803e3d6000fd5b505050506040513d601f19601f82011682018060405250810190611f269190614824565b6060830151909150156120e5576000611f4783606001518460a00151612f06565b90506000818460600151611f5b9190614841565b90506000836001600160a01b03168360405160006040518083038185875af1925050503d8060008114611faa576040519150601f19603f3d011682016040523d82523d6000602084013e611faf565b606091505b5090915050801515600003611fd7576040516372f7724f60e01b815260040160405180910390fd5b8860006001600160a01b0386167fdf7cc5ebdb7be805a1d96fd982aba37cbf8e9169d6f34870e8d63a62cd492f643387604051612015929190614854565b60405180910390a484516040516000916001600160a01b03169084908381818185875af1925050503d8060008114612069576040519150601f19603f3d011682016040523d82523d6000602084013e61206e565b606091505b509091505080151560000361209657604051633b50281160e11b815260040160405180910390fd5b89600187600001516001600160a01b03167fdf7cc5ebdb7be805a1d96fd982aba37cbf8e9169d6f34870e8d63a62cd492f6488876040516120d8929190614854565b60405180910390a4505050505b610191546020830151604051631c2e21b960e11b81526000926001600160a01b03169163385c43729161211b9190600401613b7b565b606060405180830381865afa158015612138573d6000803e3d6000fd5b505050506040513d601f19601f8201168201806040525081019061215c9190614352565b805161019154604080516308e5bf2160e01b8152905193945091926000926001600160a01b03909216916308e5bf219160048083019260209291908290030181865afa1580156121b0573d6000803e3d6000fd5b505050506040513d601f19601f820116820180604052508101906121d4919061471b565b90506121e08187612f4b565b6122078882600160405180604001604052806002815260200161060f60f31b815250612fa8565b6000826001600160a01b031663731133e98760600151346122289190614841565b338d868d6040518663ffffffff1660e01b815260040161224b9493929190614887565b60206040518083038185885af1158015612269573d6000803e3d6000fd5b50505050506040513d601f19601f8201168201806040525081019061228e919061471b565b9050600086608001516000146122b25760808701516122ad9042614734565b6122b5565b60005b604080516080810182528d81526001600160a01b038d811660208301908152828401858152600160608501908152610191549551634085b52760e01b8152600481018b9052855160248201529251841660448401529051606483015251151560848201529394509092911690634085b5279060a401600060405180830381600087803b15801561234457600080fd5b505af1158015612358573d6000803e3d6000fd5b50508751604080516001600160a01b03928316815260208101889052918f1693508792508f917f186b125f639893ac3dcb02d857d0fd29319e8f764fd26f4a77310e8c678fbbd0910160405180910390a4505050505050505050505050505050505050505050565b60006123cb816129ef565b610191546040516362d1e3e560e11b8152600481018490526001600160a01b039091169063c5a3c7ca906024015b600060405180830381600087803b15801561241357600080fd5b505af1158015612427573d6000803e3d6000fd5b505050505050565b600082815261015f602052604090206001015461244b816129ef565b610a778383612a80565b60008061246183612c87565b6101915460405163f2be2c8560e01b8152600481018390529192506000916001600160a01b039091169063f2be2c8590602401600060405180830381865afa1580156124b1573d6000803e3d6000fd5b505050506040513d6000823e601f3d908101601f191682016040526124d99190810190614270565b610191546020820151604051631c2e21b960e11b81529293506000926001600160a01b039092169163385c43729161251391600401613b7b565b606060405180830381865afa158015612530573d6000803e3d6000fd5b505050506040513d601f19601f820116820180604052508101906125549190614352565b805160405163d7deba1560e01b815260048101889052919250906001600160a01b0382169063d7deba1590602401611785565b610191546040516346c1c31160e11b81526004810183905260009182916001600160a01b0390911690638d83862290602401608060405180830381865afa1580156125d6573d6000803e3d6000fd5b505050506040513d601f19601f820116820180604052508101906125fa91906141af565b606081015190915015156000036126145750600092915050565b80604001516000036126295750600092915050565b428160400151111561263c57600061263f565b60015b9392505050565b6000612651816129ef565b6101915460405163e181865160e01b8152600481018490526001600160a01b039091169063e1818651906024016123f9565b600061268e816129ef565b610191546040516378ff38bf60e11b8152600481018490526001600160a01b039091169063f1fe717e906024016123f9565b6001600160a01b0385163314806126dc57506126dc8533610681565b6126f85760405162461bcd60e51b8152600401610a349061441a565b610a4a85858585856130cd565b60006001600160e01b03198216637965db0b60e01b1480610951575061095182613209565b600081815260986020526040812080546060929190612748906143e0565b80601f0160208091040260200160405190810160405280929190818152602001828054612774906143e0565b80156127c15780601f10612796576101008083540402835291602001916127c1565b820191906000526020600020905b8154815290600101906020018083116127a457829003601f168201915b5050505050905060008151116127df576127da83613259565b61263f565b6097816040516020016127f39291906148b4565b6040516020818303038152906040529392505050565b815183511461286b5760405162461bcd60e51b815260206004820152602860248201527f455243313135353a2069647320616e6420616d6f756e7473206c656e677468206044820152670dad2e6dac2e8c6d60c31b6064820152608401610a34565b6001600160a01b0384166128915760405162461bcd60e51b8152600401610a349061493b565b336128a08187878787876132ed565b60005b84518110156129895760008582815181106128c0576128c06145d1565b6020026020010151905060008583815181106128de576128de6145d1565b60209081029190910181015160008481526065835260408082206001600160a01b038e16835290935291909120549091508181101561292f5760405162461bcd60e51b8152600401610a3490614980565b60008381526065602090815260408083206001600160a01b038e8116855292528083208585039055908b1682528120805484929061296e908490614734565b9250508190555050505080612982906145fd565b90506128a3565b50846001600160a01b0316866001600160a01b0316826001600160a01b03167f4a39dc06d4c0dbc64b70af90fd698a233a518aa5d07e595d983b8c0526c8f7fb87876040516129d99291906149ca565b60405180910390a4612427818787878787613322565b610bbf8133613484565b612a0382826117f0565b610af657600082815261015f602090815260408083206001600160a01b03851684529091529020805460ff19166001179055612a3c3390565b6001600160a01b0316816001600160a01b0316837f2f8788117e7eff1d82e926ec794901d17c78024a50270940304540a733656f0d60405160405180910390a45050565b612a8a82826117f0565b15610af657600082815261015f602090815260408083206001600160a01b0385168085529252808320805460ff1916905551339285917ff6391f5c32d9c69d2a47ea670b442974b53935d1edc7fd64eb21e047a839171b9190a45050565b600080516020614cd7833981519152546001600160a01b031690565b600080516020614cb7833981519152610af6816129ef565b7f4910fdfa16fed3260ed0e7147f7cc6da11a60208b5b9406d12a635614ffd91435460ff1615612b4f57610a77836134dd565b826001600160a01b03166352d1902d6040518163ffffffff1660e01b8152600401602060405180830381865afa925050508015612ba9575060408051601f3d908101601f19168201909252612ba69181019061471b565b60015b612c0c5760405162461bcd60e51b815260206004820152602e60248201527f45524331393637557067726164653a206e657720696d706c656d656e7461746960448201526d6f6e206973206e6f74205555505360901b6064820152608401610a34565b600080516020614cd78339815191528114612c7b5760405162461bcd60e51b815260206004820152602960248201527f45524331393637557067726164653a20756e737570706f727465642070726f786044820152681a58589b195555525160ba1b6064820152608401610a34565b50610a77838383613577565b610191546040516346c1c31160e11b81526004810183905260009182916001600160a01b0390911690638d83862290602401608060405180830381865afa158015612cd6573d6000803e3d6000fd5b505050506040513d601f19601f82011682018060405250810190612cfa91906141af565b60608101519091501515600003612d245760405163f97195bf60e01b815260040160405180910390fd5b61019154815160405163f2be2c8560e01b815260048101919091526000916001600160a01b03169063f2be2c8590602401600060405180830381865afa158015612d72573d6000803e3d6000fd5b505050506040513d6000823e601f3d908101601f19168201604052612d9a9190810190614270565b80519091506001600160a01b0316612dc5576040516385a6706360e01b815260040160405180910390fd5b505192915050565b612dd56135a2565b60c9805460ff191690557f5db9ee0a495bf2e6ff9c91a7834c1ba4fdd244a5e8aa4e537bd38aeae4b073aa335b604051612e0f9190614747565b60405180910390a1565b6001600160a01b03163b151590565b600054610100900460ff16612e4f5760405162461bcd60e51b8152600401610a34906149ef565b610bbf816135eb565b600054610100900460ff16612e7f5760405162461bcd60e51b8152600401610a34906149ef565b565b600054610100900460ff16612ea85760405162461bcd60e51b8152600401610a34906149ef565b612e7f61361b565b612eb861364e565b60c9805460ff191660011790557f62e78cea01bee320cd4e420270b5ea74000d11b0c9f74754ebdbfc544b05a258612e023390565b6040516305d39ac360e51b815260040160405180910390fd5b6000612710612f158385614a3a565b1015612f3457604051633032107560e21b815260040160405180910390fd5b612710612f418385614a3a565b61263f9190614a51565b6000828152609860205260409020612f63828261465c565b50817f6bb7ff708619ba0610cba295a58592e0451dee2622938c8755667688daf3529b612f8f846109f1565b604051612f9c9190613b7b565b60405180910390a25050565b6001600160a01b0384166130085760405162461bcd60e51b815260206004820152602160248201527f455243313135353a206d696e7420746f20746865207a65726f206164647265736044820152607360f81b6064820152608401610a34565b33600061301485613694565b9050600061302185613694565b9050613032836000898585896132ed565b60008681526065602090815260408083206001600160a01b038b16845290915281208054879290613064908490614734565b909155505060408051878152602081018790526001600160a01b03808a1692600092918716917fc3d58168c5ae7397731d063d5bbf3d657854427343f4c083240f7aacaa2d0f62910160405180910390a46130c4836000898989896136df565b50505050505050565b6001600160a01b0384166130f35760405162461bcd60e51b8152600401610a349061493b565b3360006130ff85613694565b9050600061310c85613694565b905061311c8389898585896132ed565b60008681526065602090815260408083206001600160a01b038c1684529091529020548581101561315f5760405162461bcd60e51b8152600401610a3490614980565b60008781526065602090815260408083206001600160a01b038d8116855292528083208985039055908a1682528120805488929061319e908490614734565b909155505060408051888152602081018890526001600160a01b03808b16928c821692918816917fc3d58168c5ae7397731d063d5bbf3d657854427343f4c083240f7aacaa2d0f62910160405180910390a46131fe848a8a8a8a8a6136df565b505050505050505050565b60006001600160e01b03198216636cdb3d1360e11b148061323a57506001600160e01b031982166303a24d0760e21b145b8061095157506301ffc9a760e01b6001600160e01b0319831614610951565b606060678054613268906143e0565b80601f0160208091040260200160405190810160405280929190818152602001828054613294906143e0565b80156132e15780601f106132b6576101008083540402835291602001916132e1565b820191906000526020600020905b8154815290600101906020018083116132c457829003601f168201915b50505050509050919050565b6132f561364e565b6001600160a01b0385161561331d576040516305d39ac360e51b815260040160405180910390fd5b612427565b613334846001600160a01b0316612e19565b156124275760405163bc197c8160e01b81526001600160a01b0385169063bc197c819061336d9089908990889088908890600401614a73565b6020604051808303816000875af19250505080156133a8575060408051601f3d908101601f191682019092526133a591810190614ad1565b60015b613454576133b4614aee565b806308c379a0036133ed57506133c8614b09565b806133d357506133ef565b8060405162461bcd60e51b8152600401610a349190613b7b565b505b60405162461bcd60e51b815260206004820152603460248201527f455243313135353a207472616e7366657220746f206e6f6e2d455243313135356044820152732932b1b2b4bb32b91034b6b83632b6b2b73a32b960611b6064820152608401610a34565b6001600160e01b0319811663bc197c8160e01b146130c45760405162461bcd60e51b8152600401610a3490614b92565b61348e82826117f0565b610af65761349b816137a1565b6134a68360206137b3565b6040516020016134b7929190614bda565b60408051601f198184030181529082905262461bcd60e51b8252610a3491600401613b7b565b6134e681612e19565b6135485760405162461bcd60e51b815260206004820152602d60248201527f455243313936373a206e657720696d706c656d656e746174696f6e206973206e60448201526c1bdd08184818dbdb9d1c9858dd609a1b6064820152608401610a34565b600080516020614cd783398151915280546001600160a01b0319166001600160a01b0392909216919091179055565b6135808361394e565b60008251118061358d5750805b15610a775761359c838361398e565b50505050565b60c95460ff16612e7f5760405162461bcd60e51b815260206004820152601460248201527314185d5cd8589b194e881b9bdd081c185d5cd95960621b6044820152606401610a34565b600054610100900460ff166136125760405162461bcd60e51b8152600401610a34906149ef565b610bbf816139b3565b600054610100900460ff166136425760405162461bcd60e51b8152600401610a34906149ef565b60c9805460ff19169055565b60c95460ff1615612e7f5760405162461bcd60e51b815260206004820152601060248201526f14185d5cd8589b194e881c185d5cd95960821b6044820152606401610a34565b604080516001808252818301909252606091600091906020808301908036833701905050905082816000815181106136ce576136ce6145d1565b602090810291909101015292915050565b6136f1846001600160a01b0316612e19565b156124275760405163f23a6e6160e01b81526001600160a01b0385169063f23a6e619061372a9089908990889088908890600401614c49565b6020604051808303816000875af1925050508015613765575060408051601f3d908101601f1916820190925261376291810190614ad1565b60015b613771576133b4614aee565b6001600160e01b0319811663f23a6e6160e01b146130c45760405162461bcd60e51b8152600401610a3490614b92565b60606109516001600160a01b03831660145b606060006137c2836002614a3a565b6137cd906002614734565b6001600160401b038111156137e4576137e4613ba7565b6040519080825280601f01601f19166020018201604052801561380e576020820181803683370190505b509050600360fc1b81600081518110613829576138296145d1565b60200101906001600160f81b031916908160001a905350600f60fb1b81600181518110613858576138586145d1565b60200101906001600160f81b031916908160001a905350600061387c846002614a3a565b613887906001614734565b90505b60018111156138ff576f181899199a1a9b1b9c1cb0b131b232b360811b85600f16601081106138bb576138bb6145d1565b1a60f81b8282815181106138d1576138d16145d1565b60200101906001600160f81b031916908160001a90535060049490941c936138f881614c83565b905061388a565b50831561263f5760405162461bcd60e51b815260206004820181905260248201527f537472696e67733a20686578206c656e67746820696e73756666696369656e746044820152606401610a34565b613957816134dd565b6040516001600160a01b038216907fbc7cd75a20ee27fd9adebab32041f755214dbc6bffa90cc0225b39da2e5c2d3b90600090a250565b606061263f8383604051806060016040528060278152602001614d17602791396139bf565b6067610af6828261465c565b6060600080856001600160a01b0316856040516139dc9190614c9a565b600060405180830381855af49150503d8060008114613a17576040519150601f19603f3d011682016040523d82523d6000602084013e613a1c565b606091505b50915091506117c68683838760608315613a95578251600003613a8e57613a4285612e19565b613a8e5760405162461bcd60e51b815260206004820152601d60248201527f416464726573733a2063616c6c20746f206e6f6e2d636f6e74726163740000006044820152606401610a34565b5081613a9f565b613a9f8383613aa7565b949350505050565b8151156133d35781518083602001fd5b6001600160a01b0381168114610bbf57600080fd5b60008060408385031215613adf57600080fd5b8235613aea81613ab7565b946020939093013593505050565b6001600160e01b031981168114610bbf57600080fd5b600060208284031215613b2057600080fd5b813561263f81613af8565b60005b83811015613b46578181015183820152602001613b2e565b50506000910152565b60008151808452613b67816020860160208601613b2b565b601f01601f19169290920160200192915050565b60208152600061263f6020830184613b4f565b600060208284031215613ba057600080fd5b5035919050565b634e487b7160e01b600052604160045260246000fd5b60a081018181106001600160401b0382111715613bdc57613bdc613ba7565b60405250565b601f8201601f191681016001600160401b0381118282101715613c0757613c07613ba7565b6040525050565b60405161010081016001600160401b0381118282101715613c3157613c31613ba7565b60405290565b60006001600160401b03821115613c5057613c50613ba7565b5060051b60200190565b600082601f830112613c6b57600080fd5b81356020613c7882613c37565b604051613c858282613be2565b83815260059390931b8501820192828101915086841115613ca557600080fd5b8286015b84811015613cc05780358352918301918301613ca9565b509695505050505050565b60006001600160401b03821115613ce457613ce4613ba7565b50601f01601f191660200190565b6000613cfd83613ccb565b604051613d0a8282613be2565b809250848152858585011115613d1f57600080fd5b8484602083013760006020868301015250509392505050565b600082601f830112613d4957600080fd5b61263f83833560208501613cf2565b600080600080600060a08688031215613d7057600080fd5b8535613d7b81613ab7565b94506020860135613d8b81613ab7565b935060408601356001600160401b0380821115613da757600080fd5b613db389838a01613c5a565b94506060880135915080821115613dc957600080fd5b613dd589838a01613c5a565b93506080880135915080821115613deb57600080fd5b50613df888828901613d38565b9150509295509295909350565b60008060408385031215613e1857600080fd5b823591506020830135613e2a81613ab7565b809150509250929050565b600060208284031215613e4757600080fd5b813561263f81613ab7565b600080600060408486031215613e6757600080fd5b8335925060208401356001600160401b0380821115613e8557600080fd5b818601915086601f830112613e9957600080fd5b813581811115613ea857600080fd5b876020828501011115613eba57600080fd5b6020830194508093505050509250925092565b60008060408385031215613ee057600080fd5b8235613eeb81613ab7565b91506020830135613e2a81613ab7565b60008060408385031215613f0e57600080fd5b82356001600160401b0380821115613f2557600080fd5b818501915085601f830112613f3957600080fd5b81356020613f4682613c37565b604051613f538282613be2565b83815260059390931b8501820192828101915089841115613f7357600080fd5b948201945b83861015613f9a578535613f8b81613ab7565b82529482019490820190613f78565b96505086013592505080821115613fb057600080fd5b50613fbd85828601613c5a565b9150509250929050565b600081518084526020808501945080840160005b83811015613ff757815187529582019590820190600101613fdb565b509495945050505050565b60208152600061263f6020830184613fc7565b6000806040838503121561402857600080fd5b823561403381613ab7565b915060208301356001600160401b0381111561404e57600080fd5b613fbd85828601613d38565b8015158114610bbf57600080fd5b6000806040838503121561407b57600080fd5b823561408681613ab7565b91506020830135613e2a8161405a565b600080600080608085870312156140ac57600080fd5b8435935060208501356140be81613ab7565b925060408501356001600160401b03808211156140da57600080fd5b818701915087601f8301126140ee57600080fd5b6140fd88833560208501613cf2565b9350606087013591508082111561411357600080fd5b5061412087828801613d38565b91505092959194509250565b600080600080600060a0868803121561414457600080fd5b853561414f81613ab7565b9450602086013561415f81613ab7565b9350604086013592506060860135915060808601356001600160401b0381111561418857600080fd5b613df888828901613d38565b805161419f81613ab7565b919050565b805161419f8161405a565b6000608082840312156141c157600080fd5b604051608081018181106001600160401b03821117156141e3576141e3613ba7565b6040528251815260208301516141f881613ab7565b60208201526040838101519082015260608301516142158161405a565b60608201529392505050565b600082601f83011261423257600080fd5b815161423d81613ccb565b60405161424a8282613be2565b82815285602084870101111561425f57600080fd5b61164e836020830160208801613b2b565b60006020828403121561428257600080fd5b81516001600160401b038082111561429957600080fd5b9083019061010082860312156142ae57600080fd5b6142b6613c0e565b6142bf83614194565b81526020830151828111156142d357600080fd5b6142df87828601614221565b6020830152506142f1604084016141a4565b6040820152606083015160608201526080830151608082015260a083015160a082015261432060c084016141a4565b60c082015260e08301518281111561433757600080fd5b61434387828601614221565b60e08301525095945050505050565b60006060828403121561436457600080fd5b604051606081018181106001600160401b038211171561438657614386613ba7565b604052825161439481613ab7565b815260208301516143a48161405a565b602082015260408301516143b78161405a565b60408201529392505050565b6000602082840312156143d557600080fd5b815161263f8161405a565b600181811c908216806143f457607f821691505b60208210810361441457634e487b7160e01b600052602260045260246000fd5b50919050565b6020808252602e908201527f455243313135353a2063616c6c6572206973206e6f7420746f6b656e206f776e60408201526d195c881bdc88185c1c1c9bdd995960921b606082015260800190565b6020808252602c908201527f46756e6374696f6e206d7573742062652063616c6c6564207468726f7567682060408201526b19195b1959d85d1958d85b1b60a21b606082015260800190565b6020808252602c908201527f46756e6374696f6e206d7573742062652063616c6c6564207468726f7567682060408201526b6163746976652070726f787960a01b606082015260800190565b83815260406020820152816040820152818360608301376000818301606090810191909152601f909201601f1916010192915050565b6000602080838503121561454957600080fd5b82516001600160401b0381111561455f57600080fd5b8301601f8101851361457057600080fd5b805161457b81613c37565b6040516145888282613be2565b82815260059290921b83018401918481019150878311156145a857600080fd5b928401925b828410156145c6578351825292840192908401906145ad565b979650505050505050565b634e487b7160e01b600052603260045260246000fd5b634e487b7160e01b600052601160045260246000fd5b60006001820161460f5761460f6145e7565b5060010190565b601f821115610a7757600081815260208120601f850160051c8101602086101561463d5750805b601f850160051c820191505b8181101561242757828155600101614649565b81516001600160401b0381111561467557614675613ba7565b6146898161468384546143e0565b84614616565b602080601f8311600181146146be57600084156146a65750858301515b600019600386901b1c1916600185901b178555612427565b600085815260208120601f198616915b828110156146ed578886015182559484019460019091019084016146ce565b508582101561470b5787850151600019600388901b60f8161c191681555b5050505050600190811b01905550565b60006020828403121561472d57600080fd5b5051919050565b80820180821115610951576109516145e7565b6001600160a01b0391909116815260200190565b60006020828403121561476d57600080fd5b81516001600160401b038082111561478457600080fd5b9083019060a0828603121561479857600080fd5b6040516147a481613bbd565b8251828111156147b357600080fd5b6147bf87828601614221565b825250602083015191506147d28261405a565b816020820152604083015191506147e88261405a565b816040820152606083015191506147fe8261405a565b816060820152608083015192506148148361405a565b6080810192909252509392505050565b60006020828403121561483657600080fd5b815161263f81613ab7565b81810381811115610951576109516145e7565b6001600160a01b03929092168252602082015260606040820181905260029082015261060f60f31b608082015260a00190565b60018060a01b03851681528360208201528260408201526080606082015260006117c66080830184613b4f565b60008084546148c2816143e0565b600182811680156148da57600181146148ef5761491e565b60ff198416875282151583028701945061491e565b8860005260208060002060005b858110156149155781548a8201529084019082016148fc565b50505082870194505b505050508351614932818360208801613b2b565b01949350505050565b60208082526025908201527f455243313135353a207472616e7366657220746f20746865207a65726f206164604082015264647265737360d81b606082015260800190565b6020808252602a908201527f455243313135353a20696e73756666696369656e742062616c616e636520666f60408201526939103a3930b739b332b960b11b606082015260800190565b6040815260006149dd6040830185613fc7565b828103602084015261164e8185613fc7565b6020808252602b908201527f496e697469616c697a61626c653a20636f6e7472616374206973206e6f74206960408201526a6e697469616c697a696e6760a81b606082015260800190565b8082028115828204841417610951576109516145e7565b600082614a6e57634e487b7160e01b600052601260045260246000fd5b500490565b6001600160a01b0386811682528516602082015260a060408201819052600090614a9f90830186613fc7565b8281036060840152614ab18186613fc7565b90508281036080840152614ac58185613b4f565b98975050505050505050565b600060208284031215614ae357600080fd5b815161263f81613af8565b600060033d11156114b35760046000803e5060005160e01c90565b600060443d1015614b175790565b6040516003193d81016004833e81513d6001600160401b038160248401118184111715614b4657505050505090565b8285019150815181811115614b5e5750505050505090565b843d8701016020828501011115614b785750505050505090565b614b8760208286010187613be2565b509095945050505050565b60208082526028908201527f455243313135353a204552433131353552656365697665722072656a656374656040820152676420746f6b656e7360c01b606082015260800190565b76020b1b1b2b9b9a1b7b73a3937b61d1030b1b1b7bab73a1604d1b815260008351614c0c816017850160208801613b2b565b7001034b99036b4b9b9b4b733903937b6329607d1b6017918401918201528351614c3d816028840160208801613b2b565b01602801949350505050565b6001600160a01b03868116825285166020820152604081018490526060810183905260a0608082018190526000906145c690830184613b4f565b600081614c9257614c926145e7565b506000190190565b60008251614cac818460208701613b2b565b919091019291505056fe189ab7a9244df0848122154315af71fe140f3db0fe014031783b0946b8c9d2e3360894a13ba1a3210667c828492db98dca3e2076cc3735a920a3ca505d382bbc65d7a28e3265b37a6474929f336521b332c1681b933f6cb9f3376673440d862a416464726573733a206c6f772d6c6576656c2064656c65676174652063616c6c206661696c6564a26469706673582212200a92a80671d64557878182464ecafbb664df93126f47050a4a97c0025e0af53c64736f6c63430008110033",
  "linkReferences": {},
  "deployedLinkReferences": {}
}