{
  "_format": "hh-sol-artifact-1",
  "contractName": "TheBadgeUsers",
  "sourceName": "src/contracts/thebadge/TheBadgeUsers.sol",
  "abi": [
    {
      "inputs": [],
      "stateMutability": "nonpayable",
      "type": "constructor"
    },
    {
      "inputs": [],
      "name": "AccessControlBadConfirmation",
      "type": "error"
    },
    {
      "inputs": [
        {
          "internalType": "address",
          "name": "account",
          "type": "address"
        },
        {
          "internalType": "bytes32",
          "name": "neededRole",
          "type": "bytes32"
        }
      ],
      "name": "AccessControlUnauthorizedAccount",
      "type": "error"
    },
    {
      "inputs": [],
      "name": "InvalidInitialization",
      "type": "error"
    },
    {
      "inputs": [],
      "name": "NotInitializing",
      "type": "error"
    },
    {
      "inputs": [
        {
          "internalType": "address",
          "name": "owner",
          "type": "address"
        }
      ],
      "name": "OwnableInvalidOwner",
      "type": "error"
    },
    {
      "inputs": [
        {
          "internalType": "address",
          "name": "account",
          "type": "address"
        }
      ],
      "name": "OwnableUnauthorizedAccount",
      "type": "error"
    },
    {
      "inputs": [],
      "name": "ReentrancyGuardReentrantCall",
      "type": "error"
    },
    {
      "inputs": [],
      "name": "TheBadge__controller_controllerIsPaused",
      "type": "error"
    },
    {
      "inputs": [],
      "name": "TheBadge__controller_invalidController",
      "type": "error"
    },
    {
      "inputs": [],
      "name": "TheBadge__onlyCreator_senderIsAlreadyACreator",
      "type": "error"
    },
    {
      "inputs": [],
      "name": "TheBadge__onlyUser_userNotFound",
      "type": "error"
    },
    {
      "inputs": [],
      "name": "TheBadge__registerUser_alreadyRegistered",
      "type": "error"
    },
    {
      "inputs": [],
      "name": "TheBadge__registerUser_wrongValue",
      "type": "error"
    },
    {
      "inputs": [],
      "name": "TheBadge__updateUser_notFound",
      "type": "error"
    },
    {
      "inputs": [],
      "name": "TheBadge__updateUser_wrongMetadata",
      "type": "error"
    },
    {
      "inputs": [],
      "name": "TheBadge__users__onlyCreator_creatorIsSuspended",
      "type": "error"
    },
    {
      "inputs": [],
      "name": "TheBadge__verifyUser__userVerificationAlreadyStarted",
      "type": "error"
    },
    {
      "inputs": [],
      "name": "TheBadge__verifyUser__userVerificationNotStarted",
      "type": "error"
    },
    {
      "inputs": [],
      "name": "TheBadge__verifyUser_verificationProtocolFeesPaymentFailed",
      "type": "error"
    },
    {
      "inputs": [],
      "name": "TheBadge__verifyUser_wrongValue",
      "type": "error"
    },
    {
      "anonymous": false,
      "inputs": [
        {
          "indexed": true,
          "internalType": "address",
          "name": "admin",
          "type": "address"
        }
      ],
      "name": "Initialize",
      "type": "event"
    },
    {
      "anonymous": false,
      "inputs": [
        {
          "indexed": false,
          "internalType": "uint64",
          "name": "version",
          "type": "uint64"
        }
      ],
      "name": "Initialized",
      "type": "event"
    },
    {
      "anonymous": false,
      "inputs": [
        {
          "indexed": true,
          "internalType": "address",
          "name": "previousOwner",
          "type": "address"
        },
        {
          "indexed": true,
          "internalType": "address",
          "name": "newOwner",
          "type": "address"
        }
      ],
      "name": "OwnershipTransferred",
      "type": "event"
    },
    {
      "anonymous": false,
      "inputs": [
        {
          "indexed": true,
          "internalType": "address",
          "name": "recipient",
          "type": "address"
        },
        {
          "indexed": false,
          "internalType": "address",
          "name": "payer",
          "type": "address"
        },
        {
          "indexed": false,
          "internalType": "uint256",
          "name": "amount",
          "type": "uint256"
        },
        {
          "indexed": true,
          "internalType": "enum LibTheBadge.PaymentType",
          "name": "paymentType",
          "type": "uint8"
        },
        {
          "indexed": true,
          "internalType": "uint256",
          "name": "badgeModelId",
          "type": "uint256"
        },
        {
          "indexed": false,
          "internalType": "string",
          "name": "controllerName",
          "type": "string"
        }
      ],
      "name": "PaymentMade",
      "type": "event"
    },
    {
      "anonymous": false,
      "inputs": [],
      "name": "ProtocolSettingsUpdated",
      "type": "event"
    },
    {
      "anonymous": false,
      "inputs": [
        {
          "indexed": true,
          "internalType": "bytes32",
          "name": "role",
          "type": "bytes32"
        },
        {
          "indexed": true,
          "internalType": "bytes32",
          "name": "previousAdminRole",
          "type": "bytes32"
        },
        {
          "indexed": true,
          "internalType": "bytes32",
          "name": "newAdminRole",
          "type": "bytes32"
        }
      ],
      "name": "RoleAdminChanged",
      "type": "event"
    },
    {
      "anonymous": false,
      "inputs": [
        {
          "indexed": true,
          "internalType": "bytes32",
          "name": "role",
          "type": "bytes32"
        },
        {
          "indexed": true,
          "internalType": "address",
          "name": "account",
          "type": "address"
        },
        {
          "indexed": true,
          "internalType": "address",
          "name": "sender",
          "type": "address"
        }
      ],
      "name": "RoleGranted",
      "type": "event"
    },
    {
      "anonymous": false,
      "inputs": [
        {
          "indexed": true,
          "internalType": "bytes32",
          "name": "role",
          "type": "bytes32"
        },
        {
          "indexed": true,
          "internalType": "address",
          "name": "account",
          "type": "address"
        },
        {
          "indexed": true,
          "internalType": "address",
          "name": "sender",
          "type": "address"
        }
      ],
      "name": "RoleRevoked",
      "type": "event"
    },
    {
      "anonymous": false,
      "inputs": [
        {
          "indexed": true,
          "internalType": "address",
          "name": "userAddress",
          "type": "address"
        },
        {
          "indexed": false,
          "internalType": "string",
          "name": "metadata",
          "type": "string"
        },
        {
          "indexed": false,
          "internalType": "bool",
          "name": "suspended",
          "type": "bool"
        },
        {
          "indexed": false,
          "internalType": "bool",
          "name": "isCreator",
          "type": "bool"
        },
        {
          "indexed": false,
          "internalType": "bool",
          "name": "deleted",
          "type": "bool"
        }
      ],
      "name": "UpdatedUser",
      "type": "event"
    },
    {
      "anonymous": false,
      "inputs": [
        {
          "indexed": true,
          "internalType": "address",
          "name": "user",
          "type": "address"
        },
        {
          "indexed": false,
          "internalType": "string",
          "name": "metadata",
          "type": "string"
        }
      ],
      "name": "UserRegistered",
      "type": "event"
    },
    {
      "anonymous": false,
      "inputs": [
        {
          "indexed": true,
          "internalType": "address",
          "name": "user",
          "type": "address"
        },
        {
          "indexed": false,
          "internalType": "string",
          "name": "controllerName",
          "type": "string"
        },
        {
          "indexed": false,
          "internalType": "bool",
          "name": "verify",
          "type": "bool"
        }
      ],
      "name": "UserVerificationExecuted",
      "type": "event"
    },
    {
      "anonymous": false,
      "inputs": [
        {
          "indexed": true,
          "internalType": "address",
          "name": "user",
          "type": "address"
        },
        {
          "indexed": false,
          "internalType": "string",
          "name": "metadata",
          "type": "string"
        },
        {
          "indexed": false,
          "internalType": "string",
          "name": "controllerName",
          "type": "string"
        }
      ],
      "name": "UserVerificationRequested",
      "type": "event"
    },
    {
      "inputs": [],
      "name": "CLAIMER_ROLE",
      "outputs": [
        {
          "internalType": "bytes32",
          "name": "",
          "type": "bytes32"
        }
      ],
      "stateMutability": "view",
      "type": "function"
    },
    {
      "inputs": [],
      "name": "DEFAULT_ADMIN_ROLE",
      "outputs": [
        {
          "internalType": "bytes32",
          "name": "",
          "type": "bytes32"
        }
      ],
      "stateMutability": "view",
      "type": "function"
    },
    {
      "inputs": [],
      "name": "PAUSER_ROLE",
      "outputs": [
        {
          "internalType": "bytes32",
          "name": "",
          "type": "bytes32"
        }
      ],
      "stateMutability": "view",
      "type": "function"
    },
    {
      "inputs": [],
      "name": "UPGRADER_ROLE",
      "outputs": [
        {
          "internalType": "bytes32",
          "name": "",
          "type": "bytes32"
        }
      ],
      "stateMutability": "view",
      "type": "function"
    },
    {
      "inputs": [],
      "name": "URI_SETTER_ROLE",
      "outputs": [
        {
          "internalType": "bytes32",
          "name": "",
          "type": "bytes32"
        }
      ],
      "stateMutability": "view",
      "type": "function"
    },
    {
      "inputs": [],
      "name": "USER_MANAGER_ROLE",
      "outputs": [
        {
          "internalType": "bytes32",
          "name": "",
          "type": "bytes32"
        }
      ],
      "stateMutability": "view",
      "type": "function"
    },
    {
      "inputs": [],
      "name": "VERIFIER_ROLE",
      "outputs": [
        {
          "internalType": "bytes32",
          "name": "",
          "type": "bytes32"
        }
      ],
      "stateMutability": "view",
      "type": "function"
    },
    {
      "inputs": [],
      "name": "_badgeStore",
      "outputs": [
        {
          "internalType": "contract TheBadgeStore",
          "name": "",
          "type": "address"
        }
      ],
      "stateMutability": "view",
      "type": "function"
    },
    {
      "inputs": [],
      "name": "_badgeUsersStore",
      "outputs": [
        {
          "internalType": "contract TheBadgeUsersStore",
          "name": "",
          "type": "address"
        }
      ],
      "stateMutability": "view",
      "type": "function"
    },
    {
      "inputs": [
        {
          "internalType": "address",
          "name": "_user",
          "type": "address"
        },
        {
          "internalType": "string",
          "name": "controllerName",
          "type": "string"
        },
        {
          "internalType": "bool",
          "name": "verify",
          "type": "bool"
        }
      ],
      "name": "executeUserVerification",
      "outputs": [],
      "stateMutability": "nonpayable",
      "type": "function"
    },
    {
      "inputs": [],
      "name": "getRegisterFee",
      "outputs": [
        {
          "internalType": "uint256",
          "name": "",
          "type": "uint256"
        }
      ],
      "stateMutability": "view",
      "type": "function"
    },
    {
      "inputs": [
        {
          "internalType": "bytes32",
          "name": "role",
          "type": "bytes32"
        }
      ],
      "name": "getRoleAdmin",
      "outputs": [
        {
          "internalType": "bytes32",
          "name": "",
          "type": "bytes32"
        }
      ],
      "stateMutability": "view",
      "type": "function"
    },
    {
      "inputs": [
        {
          "internalType": "address",
          "name": "userAddress",
          "type": "address"
        }
      ],
      "name": "getUser",
      "outputs": [
        {
          "components": [
            {
              "internalType": "string",
              "name": "metadata",
              "type": "string"
            },
            {
              "internalType": "bool",
              "name": "isCompany",
              "type": "bool"
            },
            {
              "internalType": "bool",
              "name": "isCreator",
              "type": "bool"
            },
            {
              "internalType": "bool",
              "name": "suspended",
              "type": "bool"
            },
            {
              "internalType": "bool",
              "name": "initialized",
              "type": "bool"
            }
          ],
          "internalType": "struct TheBadgeUsersStore.User",
          "name": "",
          "type": "tuple"
        }
      ],
      "stateMutability": "view",
      "type": "function"
    },
    {
      "inputs": [
        {
          "internalType": "address",
          "name": "controllerAddress",
          "type": "address"
        },
        {
          "internalType": "address",
          "name": "userAddress",
          "type": "address"
        }
      ],
      "name": "getUserVerifyStatus",
      "outputs": [
        {
          "components": [
            {
              "internalType": "address",
              "name": "user",
              "type": "address"
            },
            {
              "internalType": "string",
              "name": "userMetadata",
              "type": "string"
            },
            {
              "internalType": "string",
              "name": "verificationEvidence",
              "type": "string"
            },
            {
              "internalType": "enum LibTheBadgeUsers.VerificationStatus",
              "name": "verificationStatus",
              "type": "uint8"
            },
            {
              "internalType": "address",
              "name": "verificationController",
              "type": "address"
            },
            {
              "internalType": "bool",
              "name": "initialized",
              "type": "bool"
            }
          ],
          "internalType": "struct TheBadgeUsersStore.UserVerification",
          "name": "",
          "type": "tuple"
        }
      ],
      "stateMutability": "view",
      "type": "function"
    },
    {
      "inputs": [
        {
          "internalType": "string",
          "name": "controllerName",
          "type": "string"
        }
      ],
      "name": "getVerificationFee",
      "outputs": [
        {
          "internalType": "uint256",
          "name": "",
          "type": "uint256"
        }
      ],
      "stateMutability": "view",
      "type": "function"
    },
    {
      "inputs": [
        {
          "internalType": "bytes32",
          "name": "role",
          "type": "bytes32"
        },
        {
          "internalType": "address",
          "name": "account",
          "type": "address"
        }
      ],
      "name": "grantRole",
      "outputs": [],
      "stateMutability": "nonpayable",
      "type": "function"
    },
    {
      "inputs": [
        {
          "internalType": "bytes32",
          "name": "role",
          "type": "bytes32"
        },
        {
          "internalType": "address",
          "name": "account",
          "type": "address"
        }
      ],
      "name": "hasRole",
      "outputs": [
        {
          "internalType": "bool",
          "name": "",
          "type": "bool"
        }
      ],
      "stateMutability": "view",
      "type": "function"
    },
    {
      "inputs": [
        {
          "internalType": "address",
          "name": "admin",
          "type": "address"
        },
        {
          "internalType": "address",
          "name": "badgeStore",
          "type": "address"
        },
        {
          "internalType": "address",
          "name": "badgeUsersStore",
          "type": "address"
        }
      ],
      "name": "initialize",
      "outputs": [],
      "stateMutability": "nonpayable",
      "type": "function"
    },
    {
      "inputs": [
        {
          "internalType": "address",
          "name": "_user",
          "type": "address"
        },
        {
          "internalType": "string",
          "name": "controllerName",
          "type": "string"
        }
      ],
      "name": "isUserVerified",
      "outputs": [
        {
          "internalType": "bool",
          "name": "",
          "type": "bool"
        }
      ],
      "stateMutability": "view",
      "type": "function"
    },
    {
      "inputs": [
        {
          "internalType": "address",
          "name": "_userAddress",
          "type": "address"
        }
      ],
      "name": "makeUserCreator",
      "outputs": [],
      "stateMutability": "nonpayable",
      "type": "function"
    },
    {
      "inputs": [],
      "name": "owner",
      "outputs": [
        {
          "internalType": "address",
          "name": "",
          "type": "address"
        }
      ],
      "stateMutability": "view",
      "type": "function"
    },
    {
      "inputs": [
        {
          "internalType": "address",
          "name": "userToRegister",
          "type": "address"
        },
        {
          "internalType": "string",
          "name": "_metadata",
          "type": "string"
        },
        {
          "internalType": "bool",
          "name": "_isCompany",
          "type": "bool"
        }
      ],
      "name": "registerUser",
      "outputs": [],
      "stateMutability": "payable",
      "type": "function"
    },
    {
      "inputs": [
        {
          "internalType": "string",
          "name": "_metadata",
          "type": "string"
        },
        {
          "internalType": "bool",
          "name": "_isCompany",
          "type": "bool"
        }
      ],
      "name": "registerUser",
      "outputs": [],
      "stateMutability": "payable",
      "type": "function"
    },
    {
      "inputs": [],
      "name": "renounceOwnership",
      "outputs": [],
      "stateMutability": "nonpayable",
      "type": "function"
    },
    {
      "inputs": [
        {
          "internalType": "bytes32",
          "name": "role",
          "type": "bytes32"
        },
        {
          "internalType": "address",
          "name": "callerConfirmation",
          "type": "address"
        }
      ],
      "name": "renounceRole",
      "outputs": [],
      "stateMutability": "nonpayable",
      "type": "function"
    },
    {
      "inputs": [
        {
          "internalType": "bytes32",
          "name": "role",
          "type": "bytes32"
        },
        {
          "internalType": "address",
          "name": "account",
          "type": "address"
        }
      ],
      "name": "revokeRole",
      "outputs": [],
      "stateMutability": "nonpayable",
      "type": "function"
    },
    {
      "inputs": [
        {
          "internalType": "string",
          "name": "controllerName",
          "type": "string"
        },
        {
          "internalType": "string",
          "name": "evidenceUri",
          "type": "string"
        }
      ],
      "name": "submitUserVerification",
      "outputs": [],
      "stateMutability": "payable",
      "type": "function"
    },
    {
      "inputs": [
        {
          "internalType": "address",
          "name": "userToVerify",
          "type": "address"
        },
        {
          "internalType": "string",
          "name": "controllerName",
          "type": "string"
        },
        {
          "internalType": "string",
          "name": "evidenceUri",
          "type": "string"
        }
      ],
      "name": "submitUserVerification",
      "outputs": [],
      "stateMutability": "payable",
      "type": "function"
    },
    {
      "inputs": [
        {
          "internalType": "bytes4",
          "name": "interfaceId",
          "type": "bytes4"
        }
      ],
      "name": "supportsInterface",
      "outputs": [
        {
          "internalType": "bool",
          "name": "",
          "type": "bool"
        }
      ],
      "stateMutability": "view",
      "type": "function"
    },
    {
      "inputs": [
        {
          "internalType": "address",
          "name": "_userAddress",
          "type": "address"
        },
        {
          "internalType": "bool",
          "name": "suspended",
          "type": "bool"
        }
      ],
      "name": "suspendUser",
      "outputs": [],
      "stateMutability": "nonpayable",
      "type": "function"
    },
    {
      "inputs": [
        {
          "internalType": "address",
          "name": "newOwner",
          "type": "address"
        }
      ],
      "name": "transferOwnership",
      "outputs": [],
      "stateMutability": "nonpayable",
      "type": "function"
    },
    {
      "inputs": [
        {
          "internalType": "string",
          "name": "_metadata",
          "type": "string"
        }
      ],
      "name": "updateProfile",
      "outputs": [],
      "stateMutability": "nonpayable",
      "type": "function"
    },
    {
      "inputs": [
        {
          "internalType": "uint256",
          "name": "_registerCreatorValue",
          "type": "uint256"
        }
      ],
      "name": "updateRegisterCreatorProtocolFee",
      "outputs": [],
      "stateMutability": "nonpayable",
      "type": "function"
    },
    {
      "inputs": [
        {
          "internalType": "address",
          "name": "_userAddress",
          "type": "address"
        },
        {
          "internalType": "string",
          "name": "_metadata",
          "type": "string"
        }
      ],
      "name": "updateUser",
      "outputs": [],
      "stateMutability": "nonpayable",
      "type": "function"
    },
    {
      "stateMutability": "payable",
      "type": "receive"
    }
  ],
  "bytecode": "0x608080604052346100b9577ff0c57e16840df040f15088dc2f81fe391c3923bec73e23a9662efc9c229c6a009081549060ff8260401c166100aa57506001600160401b036002600160401b031982821601610065575b604051612c329081620000be8239f35b6001600160401b031990911681179091556040519081527fc7f505b2f371ae2175ee4913f4499e1f2633a7b5936321eed1cdaeb6115181d290602090a15f8080610055565b63f92ee8a960e01b8152600490fd5b5f80fdfe6040608081526004908136101561001f575b5050361561001d575f80fd5b005b5f91823560e01c9081629299e31461176657816301ffc9a71461171057816316596d7f146116ed57816319b50c2a146116c55781631b6cd66714611544578163248a9ca31461150d5781632acb03011461143c5781632f2ff15d1461141257816332a58e791461138757816336568abe146113415781635c3736f1146111d75781636f77926b1461112b57816370c5a25614611102578163715018a61461109957816379b233db1461105d5781637f345710146110225781638a4be49014610edb5781638da5cb5b14610ea657816391d1485414610e56578163a217fddf14610e3b578163a41e35c314610e13578163b088981914610cd6578163b5a867fa14610b1b578163c0c53b8b14610958578163c1b8c5f11461065d578163d3fc8d4014610584578163d547741f14610538578163e63ab1e914610510578163e71de04814610358578163e7705db614610330578163f1fe717e1461024357508063f2fde38b14610213578063f72c0d8b146101d95763fc5f18d30361001157346101d557816003193601126101d557602090517f11a8cb5a02bd6c42679835e867ef2118ba78f088f8300511420c6603c21d9c788152f35b5080fd5b50346101d557816003193601126101d557602090517f189ab7a9244df0848122154315af71fe140f3db0fe014031783b0946b8c9d2e38152f35b82346102405760203660031901126102405761023d6102306119ad565b610238612038565b612070565b80f35b80fd5b9190503461032c57602036600319011261032c575f80525f80516020612b9d833981519152602052805f20335f5260205260ff815f2054161561030f5760015483926001600160a01b039091169190823b1561030a57839260248492845195869384926378ff38bf60e11b84528035908401525af190811561030157506102ed575b50807f810f1720fbc34c56d171f89315ad21708648fd17424c27b88fa208409845aa7791a180f35b6102f6906118b8565b61024057805f6102c5565b513d84823e3d90fd5b505050fd5b60449250519063e2517d3f60e01b825233908201525f6024820152fd5b8280fd5b5050346101d557816003193601126101d557602090515f80516020612bdd8339815191528152f35b8383346101d5576020928360031936011261032c5780356001600160401b03811161050c5761038a9036908301611951565b83548351631c2e21b960e11b8082528482018890526001600160a01b0393606093909290851691908481806103c26024820188611a84565b0381865afa9081156105025789916104e5575b5085815116156104d55787810151156104d5578901516104c55791839161040f93885180958194829383528d8b8401526024830190611a84565b03915afa9182156104bb579087939291879261048e575b50505116835192838092637657dbdd60e01b82525afa9283156104835792610450575b5051908152f35b9091508281813d831161047c575b6104688183611915565b8101031261047857519083610449565b5f80fd5b503d61045e565b8251903d90823e3d90fd5b6104ad9250803d106104b4575b6104a58183611915565b8101906122e3565b8780610426565b503d61049b565b85513d88823e3d90fd5b865163526e73a560e01b81528690fd5b875163014eb98760e11b81528790fd5b6104fc9150853d87116104b4576104a58183611915565b8a6103d5565b88513d8b823e3d90fd5b8380fd5b5050346101d557816003193601126101d557602090515f80516020612b7d8339815191528152f35b9190503461032c578060031936011261032c57610580913561057b600161055d611997565b938387525f80516020612b9d83398151915260205286200154611c25565b611fb8565b5080f35b9190503461032c57828160031936011261024057610600926105a46119ad565b906105ad611997565b918360a086516105bc816118fa565b82815260606020820152606088820152826060820152826080820152015260018060a01b03600154169185519687948593849363034ff23560e61b855284016122c9565b03915afa918215610653578361062a949361062e575b505051918291602083526020830190611b10565b0390f35b61064b9293503d8091833e6106438183611915565b810190612217565b905f80610616565b81513d85823e3d90fd5b9190503461032c5761066e366119d2565b9290919361067a611b77565b85548251631c2e21b960e11b80825260208285015296606093926001600160a01b03908116929091908581806106b3602482018c611a84565b0381875afa90811561094e578b91610931575b508281511615610921578681015115610921576020015161091157816001541692865199636f77926b60e01b8b528383169a8b878201528c81602481895afa908115610907578d916108e5575b50805151156108d55787015115156001146108c55787519081526020868201528b9291879082908180610749602482018f611a84565b03915afa9687156108bb578397610894575b50508551875163034ff23560e61b815292918391829161077f9187168984016122c9565b0381865afa90811561088a579060a0918b91610870575b500151156108605788939291908715610858576001935b511690803b1561084a578492836064926107e489519788968795632861626f60e11b87528601528d60248601526044850190611aef565b5af1801561084e57610836575b50507fdea1140938dde90016dc539563f1fa2f3f675e2cdee8d0c6a7999e1830cc81be926108288251938385948552840190611a84565b90151560208301520390a280f35b61083f906118b8565b61084a57845f6107f1565b8480fd5b83513d84823e3d90fd5b6002936107ad565b84516380a3685160e01b81528390fd5b61088491503d808d833e6106438183611915565b5f610796565b86513d8c823e3d90fd5b61077f9392975090816108b292903d106104b4576104a58183611915565b9590915f61075b565b88513d85823e3d90fd5b875163e9dc308560e01b81528690fd5b885163ce848fe360e01b81528790fd5b61090191503d808f833e6108f98183611915565b810190612171565b5f610713565b89513d8f823e3d90fd5b855163526e73a560e01b81528490fd5b865163014eb98760e11b81528590fd5b6109489150863d88116104b4576104a58183611915565b5f6106c6565b87513d8d823e3d90fd5b9190503461032c57606036600319011261032c576109746119ad565b9161097d611997565b916001600160a01b039060443582811690819003610478577ff0c57e16840df040f15088dc2f81fe391c3923bec73e23a9662efc9c229c6a0094855460ff81851c1615956001600160401b03821680159081610b13575b6001149081610b09575b159081610b00575b50610af2575067ffffffffffffffff198116600117875585610ad3575b50610a0c6120e1565b610a146120e1565b610a1d87612070565b610a2687611c53565b50610a3087611cde565b50610a3a87611d78565b50610a4487611e0c565b50610a4e87611eb3565b508360018060a01b031991168189541617885560015416176001555193167f36b1453565f45af7b509b59d5e2eac8f1948ea9e3e193db6663b4101afb6382c8580a2610a98578280f35b805460ff60401b19169055600181527fc7f505b2f371ae2175ee4913f4499e1f2633a7b5936321eed1cdaeb6115181d290602090a15f808280f35b68ffffffffffffffffff1916680100000000000000011786555f610a03565b845163f92ee8a960e01b8152fd5b9050155f6109e6565b303b1591506109de565b8891506109d4565b838360603660031901126101d557610b316119ad565b6001600160401b039060243582811161084a57610b519036908701611951565b9160443590811161084a57610b699036908701611951565b92610b72611b77565b6001548151636f77926b60e01b81526001600160a01b03848116898301529187908290602490829086165afa908115610c92578791610cbc575b5080515115610cac57606001511515600114610c9c578086541690606083518093631c2e21b960e11b825260208b8301528180610bec602482018b611a84565b03915afa918215610c92578792610c72575b5081511615610c62578181015115610c625760200151610c535750610c2c939450610c2761245d565b612786565b60017f9b779b17422d0df92223018b32b4d1fa46e071723d6817e2486d003becc55f005580f35b5163526e73a560e01b81528590fd5b815163014eb98760e11b81528790fd5b610c8b91925060603d81116104b4576104a58183611915565b9088610bfe565b83513d89823e3d90fd5b815163e9dc308560e01b81528790fd5b825163ce848fe360e01b81528890fd5b610cd091503d8089833e6108f98183611915565b88610bac565b9190503461032c57610ce736611a21565b92610cf0611bdd565b6001548351636f77926b60e01b81526001600160a01b03848116828501819052969194921692908785602481875afa948515610e09578895610ded575b5084515115610dde57805115610dcf57845286929190823b1561050c57610d6d92849283879389519687958694859363178682c160e01b8552840161249f565b03925af18015610dc557610db1575b50505f80516020612b5d83398151915291610dab825191806060850151151594015115159051938493846124c1565b0390a280f35b610dba906118b8565b61050c57835f610d7c565b84513d84823e3d90fd5b508451632bf9525960e11b8152fd5b5084516365553c4160e11b8152fd5b610e029195503d808a833e6108f98183611915565b935f610d2d565b86513d8a823e3d90fd5b5050346101d557816003193601126101d557602090515f80516020612bbd8339815191528152f35b5050346101d557816003193601126101d55751908152602090f35b90503461032c578160031936011261032c5781602093610e74611997565b923581525f80516020612b9d8339815191528552209060018060a01b03165f52825260ff815f20541690519015158152f35b5050346101d557816003193601126101d5575f80516020612b3d8339815191525490516001600160a01b039091168152602090f35b9190503461032c57602036600319011261032c57610ef76119ad565b91610f00611bdd565b6001548251636f77926b60e01b81526001600160a01b0385811684830181905295919216908683602481855afa928315611018578793610ffc575b5082515115610fec578483019360018551151514610fde579087929160018652823b1561050c57610f859284928387938a519687958694859363178682c160e01b8552840161249f565b03925af18015610fd457610fc0575b5050610dab5f80516020612b5d83398151915293606083519301511515935115159051938493846124c1565b610fc9906118b8565b61084a57845f610f94565b85513d84823e3d90fd5b8551631edcfb9f60e21b8152fd5b84516365553c4160e11b81528490fd5b6110119193503d8089833e6108f98183611915565b915f610f3b565b85513d89823e3d90fd5b5050346101d557816003193601126101d557602090517f7804d923f43a17d325d77e781528e0793b2edd9890ab45fc64efd7b4b427744c8152f35b9136600319011290506101d55780356001600160401b03811161032c5761023d9161108a91369101611951565b6110926119c3565b90336124ec565b83346102405780600319360112610240576110b2612038565b5f80516020612b3d83398151915280546001600160a01b031981169091555f906001600160a01b03167f8be0079c531659141344cd1fd0a4f28419497f9722a3daafe3b4186f6b6457e08280a380f35b5050346101d557816003193601126101d55760015490516001600160a01b039091168152602090f35b9190503461032c57602036600319011261032c57826111486119ad565b8160808451611156816118df565b6060815282602082015282868201528260608201520152602460018060a01b0391826001541685519687948593636f77926b60e01b855216908301525afa918215610653578361062a94936111ba575b505051918291602083526020830190611aa9565b6111cf9293503d8091833e6108f98183611915565b905f806111a6565b9190503461032c578060031936011261032c576111f26119ad565b6111fa6119c3565b905f80516020612b7d833981519152805f525f80516020612b9d833981519152602052835f20335f5260205260ff845f2054161561132357506001548351636f77926b60e01b81526001600160a01b03838116878301819052969193921691908784602481865afa938415610e09578894611307575b50835151156112f957908792918515156060860152823b1561050c576112af9284928387938a519687958694859363178682c160e01b8552840161249f565b03925af18015610fd4576112e5575b5050610dab835f80516020612b5d83398151915294835193015115159051938493846124c1565b6112ee906118b8565b61084a57845f6112be565b85516365553c4160e11b8152fd5b61131c9194503d808a833e6108f98183611915565b925f611270565b835163e2517d3f60e01b815233818701526024810191909152604490fd5b8383346101d557806003193601126101d55761135b611997565b90336001600160a01b038316036113785750610580919235611fb8565b5163334bd91960e11b81528390fd5b8383346101d557816003193601126101d557600154815163e70a0e6960e01b81529360209185919082906001600160a01b03165afa91821561140757916113d3575b6020925051908152f35b90506020823d82116113ff575b816113ed60209383611915565b810103126104785760209151906113c9565b3d91506113e0565b9051903d90823e3d90fd5b9190503461032c578060031936011261032c576105809135611437600161055d611997565b611f47565b8284346102405761144c36611a21565b82548451631c2e21b960e11b815260208188015291959293916001600160a01b0391606090829084168180611484602482018d611a84565b03915afa92831561150257926114e2575b50815116156114d35783810151156114d357602001516114c557506020926114bc9161233b565b90519015158152f35b825163526e73a560e01b8152fd5b50825163014eb98760e11b8152fd5b6114fb91925060603d81116104b4576104a58183611915565b9086611495565b8651903d90823e3d90fd5b90503461032c57602036600319011261032c57816020936001923581525f80516020612b9d83398151915285522001549051908152f35b8383806003193601126101d5576001600160401b03833581811161050c5761156f9036908601611951565b9060243590811161050c576115879036908601611951565b6001548351636f77926b60e01b815233878201529193916001600160a01b039186908290602490829086165afa9081156116815786916116ab575b508051511561169b5760600151151560011461168b578085541690606083518093631c2e21b960e11b825260208a8301528180611602602482018a611a84565b03915afa918215611681578692611661575b50815116156116515781810151156116515760200151611642575090610c2c9161163c61245d565b33612786565b5163526e73a560e01b81528490fd5b815163014eb98760e11b81528690fd5b61167a91925060603d81116104b4576104a58183611915565b9087611614565b83513d88823e3d90fd5b815163e9dc308560e01b81528690fd5b825163ce848fe360e01b81528790fd5b6116bf91503d8088833e6108f98183611915565b876115c2565b5050346101d557816003193601126101d557905490516001600160a01b039091168152602090f35b83610c2c6116fa366119d2565b91611703611b77565b61170b61245d565b6124ec565b90503461032c57602036600319011261032c57359063ffffffff60e01b821680920361032c5760209250637965db0b60e01b8214918215611755575b50519015158152f35b6301ffc9a760e01b1491505f61174c565b9190503461032c57602036600319011261032c5781356001600160401b03811161050c576117979036908401611951565b6001548251636f77926b60e01b81523385820152936001600160a01b03909116918585602481865afa9485156118ae578695611892575b5084515115611883578051156118745784528490823b156101d55761180b92859183865180968195829463178682c160e01b84523390840161249f565b03925af1801561186a5761184a575b505f80516020612b5d83398151915290825192610dab8260608301511515920151151592519283923396846124c1565b926118635f80516020612b5d83398151915292946118b8565b929061181a565b82513d86823e3d90fd5b508251632bf9525960e11b8152fd5b5082516365553c4160e11b8152fd5b6118a79195503d8088833e6108f98183611915565b935f6117ce565b84513d88823e3d90fd5b6001600160401b0381116118cb57604052565b634e487b7160e01b5f52604160045260245ffd5b60a081019081106001600160401b038211176118cb57604052565b60c081019081106001600160401b038211176118cb57604052565b90601f801991011681019081106001600160401b038211176118cb57604052565b6001600160401b0381116118cb57601f01601f191660200190565b81601f820112156104785780359061196882611936565b926119766040519485611915565b8284526020838301011161047857815f926020809301838601378301015290565b602435906001600160a01b038216820361047857565b600435906001600160a01b038216820361047857565b60243590811515820361047857565b906060600319830112610478576004356001600160a01b03811681036104785791602435906001600160401b03821161047857611a1191600401611951565b9060443580151581036104785790565b906040600319830112610478576004356001600160a01b03811681036104785791602435906001600160401b03821161047857611a6091600401611951565b90565b5f5b838110611a745750505f910152565b8181015183820152602001611a65565b90602091611a9d81518092818552858086019101611a63565b601f01601f1916010190565b90608080611ac0845160a0855260a0850190611a84565b936020810151151560208501526040810151151560408501526060810151151560608501520151151591015290565b906003821015611afc5752565b634e487b7160e01b5f52602160045260245ffd5b9060a080600180821b0393848151168452611b4f611b3d602083015160c0602088015260c0870190611a84565b60408301518682036040880152611a84565b94611b6260608301516060870190611aef565b60808201511660808501520151151591015290565b335f9081527fd56b761303e15a4cbea84f37eba80a5289f49fda0b4884e30ac1d73eb9b8b14360205260409020545f80516020612bdd8339815191529060ff1615611bbf5750565b6044906040519063e2517d3f60e01b82523360048301526024820152fd5b335f9081527f739cde10a782e9a33d89b0a8d75532a668a23d692dcfad349651b427f16e43cf60205260409020545f80516020612bbd8339815191529060ff1615611bbf5750565b805f525f80516020612b9d83398151915260205260405f20335f5260205260ff60405f20541615611bbf5750565b6001600160a01b03165f8181527fb7db2dd08fcb62d0c9e08c51941cae53c267786a0b75803fb7960902fc8ef97d60205260408120549091905f80516020612b9d8339815191529060ff16611cd9578280526020526040822081835260205260408220600160ff1982541617905533915f80516020612b1d8339815191528180a4600190565b505090565b6001600160a01b03165f8181527f739cde10a782e9a33d89b0a8d75532a668a23d692dcfad349651b427f16e43cf60205260408120549091905f80516020612bbd833981519152905f80516020612b9d8339815191529060ff16611d72578184526020526040832082845260205260408320600160ff198254161790555f80516020612b1d833981519152339380a4600190565b50505090565b6001600160a01b03165f8181527f75442b0a96088b5456bc4ed01394c96a4feec0f883c9494257d76b96ab1c9b6b60205260408120549091905f80516020612b7d833981519152905f80516020612b9d8339815191529060ff16611d72578184526020526040832082845260205260408320600160ff198254161790555f80516020612b1d833981519152339380a4600190565b6001600160a01b03165f8181527fab71e3f32666744d246edff3f96e4bdafee2e9867098cdd118a979a7464786a860205260408120549091907f189ab7a9244df0848122154315af71fe140f3db0fe014031783b0946b8c9d2e3905f80516020612b9d8339815191529060ff16611d72578184526020526040832082845260205260408320600160ff198254161790555f80516020612b1d833981519152339380a4600190565b6001600160a01b03165f8181527fd56b761303e15a4cbea84f37eba80a5289f49fda0b4884e30ac1d73eb9b8b14360205260408120549091905f80516020612bdd833981519152905f80516020612b9d8339815191529060ff16611d72578184526020526040832082845260205260408320600160ff198254161790555f80516020612b1d833981519152339380a4600190565b905f918083525f80516020612b9d83398151915280602052604084209260018060a01b03169283855260205260ff604085205416155f14611d72578184526020526040832082845260205260408320600160ff198254161790555f80516020612b1d833981519152339380a4600190565b905f918083525f80516020612b9d83398151915280602052604084209260018060a01b03169283855260205260ff6040852054165f14611d7257818452602052604083208284526020526040832060ff1981541690557ff6391f5c32d9c69d2a47ea670b442974b53935d1edc7fd64eb21e047a839171b339380a4600190565b5f80516020612b3d833981519152546001600160a01b0316330361205857565b60405163118cdaa760e01b8152336004820152602490fd5b6001600160a01b039081169081156120c9575f80516020612b3d83398151915280546001600160a01b031981168417909155167f8be0079c531659141344cd1fd0a4f28419497f9722a3daafe3b4186f6b6457e05f80a3565b604051631e4fbdf760e01b81525f6004820152602490fd5b60ff7ff0c57e16840df040f15088dc2f81fe391c3923bec73e23a9662efc9c229c6a005460401c161561211057565b604051631afcd79f60e31b8152600490fd5b81601f8201121561047857805161213881611936565b926121466040519485611915565b8184526020828401011161047857611a609160208085019101611a63565b5190811515820361047857565b6020818303126104785780516001600160401b039182821161047857019160a08382031261047857604051926121a6846118df565b8051928311610478576121c06080926121fb948301612122565b84526121ce60208201612164565b60208501526121df60408201612164565b60408501526121f060608201612164565b606085015201612164565b608082015290565b51906001600160a01b038216820361047857565b6020818303126104785780516001600160401b039182821161047857019060c082840312610478576040519261224c846118fa565b61225583612203565b84526020830151828111610478578161226f918501612122565b602085015260408301519182116104785761228b918301612122565b604083015260608101516003811015610478576122c19160a09160608501526122b660808201612203565b608085015201612164565b60a082015290565b6001600160a01b0391821681529116602082015260400190565b908160609103126104785760405190606082018281106001600160401b038211176118cb5761233391604091825261231a81612203565b845261232860208201612164565b602085015201612164565b604082015290565b61237060018060a01b0360605f94828654166040518080968194631c2e21b960e11b8352602060048401526024830190611a84565b03915afa91821561245257916123af939185938492612432575b50806001541691511660405180958194829363034ff23560e61b8452600484016122c9565b03915afa90811561242757829161240d575b50600160a082015115151490816123e1575b506123db5790565b50600190565b60609150015160038110156123f9576001145f6123d3565b634e487b7160e01b82526021600452602482fd5b61242191503d8084833e6106438183611915565b5f6123c1565b6040513d84823e3d90fd5b61244b91925060603d81116104b4576104a58183611915565b905f61238a565b6040513d86823e3d90fd5b7f9b779b17422d0df92223018b32b4d1fa46e071723d6817e2486d003becc55f00600281541461248d5760029055565b604051633ee5aeb560e01b8152600490fd5b6001600160a01b039091168152604060208201819052611a6092910190611aa9565b5f9294936124d9606093608084526080840190611a84565b9515156020830152151560408201520152565b919060018060a01b0392836001541691604093845192636f77926b60e01b84528681169660049288848701525f9485876024818b5afa9687156126b557869761276a575b5086515161275a578851809863e70a0e6960e01b8252818760209b8c935afa90811561275057879161271f575b50340361270f5734158015612623575b5086521515868601528387860152836060860152600160808601526001541691823b1561050c57839283926125b89587938a51978895869485936374d5912760e11b8552840161249f565b03925af1908115612618575091612604917f48cac28ad4dc618e15f4c2dd5e97751182f166de97b25618318b2112aa951a2f959493612609575b50519251928284938452830190611a84565b0390a2565b612612906118b8565b5f6125f2565b8551903d90823e3d90fd5b8589858954168c51928380926331056e5760e21b82525afa908115612705578891869183916126c8575b50169181906126bf575b81808092853491f1156126b557600287917fdf7cc5ebdb7be805a1d96fd982aba37cbf8e9169d6f34870e8d63a62cd492f6460a08e60608f8f8151938452349084015282015284606082015261060f60f31b6080820152a45f61256d565b89513d88823e3d90fd5b506108fc612657565b925050508981813d83116126fe575b6126e18183611915565b810103126126fa57846126f48992612203565b5f61264d565b8780fd5b503d6126d7565b8b513d8a823e3d90fd5b8851638c77ddf360e01b81528590fd5b90508881813d8311612749575b6127368183611915565b8101031261274557515f61255d565b8680fd5b503d61272c565b8a513d89823e3d90fd5b885163096bb4a360e41b81528590fd5b61277f9197503d8088833e6108f98183611915565b955f612530565b5f805460408051631c2e21b960e11b8152602060048083018290526001600160a01b0394851698979396919593946060949385818c81806127ca602482018d611a84565b03915afa908115612b12578591612af5575b5081600154169a895190636f77926b60e01b825286828588169e8f88830152815a91602492fa9182156129af5785918b918994612ad9575b508c516331056e5760e21b815292839182905afa9081156129af578791612aa4575b50848a858551168d5192838092637657dbdd60e01b82525afa908115612a9a578891612a6d575b503403612a5d57346129b9575b509082918661289695946001541696848451168d51978892839263034ff23560e61b84528984016122c9565b0381895afa9485156129af578795612993575b5060a08501906001825115151461298357906001918e8752518b8701528c8c870152878987015283835116608087015252511691833b1561084a5791848094926129188d958c51998a97889687956307480abd60e11b8752860152602485015260448401526064830190611b10565b03925af19081156126185750917fb17b7f220d392b3fac92feead39a937412996860f3aacd51a13f9271239df6519594939161260493612974575b506129678451958587968752860190611a84565b9184830390850152611a84565b61297d906118b8565b5f612953565b8b5163285fe7f560e01b81528590fd5b6129a89195503d8089833e6106438183611915565b935f6128a9565b8b513d89823e3d90fd5b83168680808034855af13d15612a58578b3d6129e06129d782611936565b92519283611915565b8152888c3d92013e5b15612a485790866003612896969594938f8d8f91612a3c8f8f80867fdf7cc5ebdb7be805a1d96fd982aba37cbf8e9169d6f34870e8d63a62cd492f64975196879687523490870152850152830190611a84565b0390a49091929361286a565b8a516331eb874960e21b81528590fd5b6129e9565b8a5163e1d94b7f60e01b81528590fd5b90508a81813d8311612a93575b612a848183611915565b810103126126fa57515f61285d565b503d612a7a565b8c513d8a823e3d90fd5b90508981813d8311612ad2575b612abb8183611915565b8101031261274557612acc90612203565b5f612836565b503d612ab1565b612aee9194503d808b833e6108f98183611915565b925f612814565b612b0c9150863d88116104b4576104a58183611915565b5f6127dc565b89513d87823e3d90fdfe2f8788117e7eff1d82e926ec794901d17c78024a50270940304540a733656f0d9016d09d72d40fdae2fd8ceac6b6234c7706214fd39c1cd1e609a0528c19930052b0aedf558ae7ca1fea6363c537e188e53ef8982b74a564ee8eeae39d68017a65d7a28e3265b37a6474929f336521b332c1681b933f6cb9f3376673440d862a02dd7bc7dec4dceedda775e58dd541e08a116c6c53815c0bd028192f7b626800cbaaf41b181bb6e269c490e876a7c97711b57e21dd8e5528423cf57579726b350ce23c3e399818cfee81a7ab0880f714e53d7672b08df0fa62f2843416e1ea09a2646970667358221220673a4352b31b2cb033cf36dcb199f5a8a6f4ce5c4ebf8f7c682edc649c87ca6464736f6c63430008140033",
  "linkReferences": {},
  "deployedLinkReferences": {}
}