{
  "abi": [
    {
      "inputs": [],
      "stateMutability": "nonpayable",
      "type": "constructor"
    },
    {
      "inputs": [],
      "name": "AccessControlBadConfirmation",
      "type": "error"
    },
    {
      "inputs": [
        {
          "internalType": "address",
          "name": "account",
          "type": "address"
        },
        {
          "internalType": "bytes32",
          "name": "neededRole",
          "type": "bytes32"
        }
      ],
      "name": "AccessControlUnauthorizedAccount",
      "type": "error"
    },
    {
      "inputs": [],
      "name": "InvalidInitialization",
      "type": "error"
    },
    {
      "inputs": [],
      "name": "NotInitializing",
      "type": "error"
    },
    {
      "inputs": [
        {
          "internalType": "address",
          "name": "owner",
          "type": "address"
        }
      ],
      "name": "OwnableInvalidOwner",
      "type": "error"
    },
    {
      "inputs": [
        {
          "internalType": "address",
          "name": "account",
          "type": "address"
        }
      ],
      "name": "OwnableUnauthorizedAccount",
      "type": "error"
    },
    {
      "inputs": [],
      "name": "TheBadge__Store_ContractNameAlreadyExists",
      "type": "error"
    },
    {
      "inputs": [],
      "name": "TheBadge__Store_InvalidBadgeID",
      "type": "error"
    },
    {
      "inputs": [],
      "name": "TheBadge__Store_InvalidContractAddress",
      "type": "error"
    },
    {
      "inputs": [],
      "name": "TheBadge__Store_InvalidContractName",
      "type": "error"
    },
    {
      "inputs": [],
      "name": "TheBadge__Store_InvalidUserAddress",
      "type": "error"
    },
    {
      "inputs": [],
      "name": "TheBadge__Store_OperationNotPermitted",
      "type": "error"
    },
    {
      "inputs": [],
      "name": "TheBadge__addBadgeModelController_alreadySet",
      "type": "error"
    },
    {
      "inputs": [],
      "name": "TheBadge__addBadgeModelController_notFound",
      "type": "error"
    },
    {
      "inputs": [],
      "name": "TheBadge__badgeModel_badgeModelNotFound",
      "type": "error"
    },
    {
      "inputs": [],
      "name": "TheBadge__registerUser_alreadyRegistered",
      "type": "error"
    },
    {
      "inputs": [],
      "name": "TheBadge__updateUser_notFound",
      "type": "error"
    },
    {
      "anonymous": false,
      "inputs": [
        {
          "indexed": true,
          "internalType": "string",
          "name": "_contractName",
          "type": "string"
        },
        {
          "indexed": true,
          "internalType": "address",
          "name": "contractAddress",
          "type": "address"
        }
      ],
      "name": "ContractAdded",
      "type": "event"
    },
    {
      "anonymous": false,
      "inputs": [
        {
          "indexed": true,
          "internalType": "string",
          "name": "_contractName",
          "type": "string"
        },
        {
          "indexed": true,
          "internalType": "address",
          "name": "contractAddress",
          "type": "address"
        }
      ],
      "name": "ContractRemoved",
      "type": "event"
    },
    {
      "anonymous": false,
      "inputs": [
        {
          "indexed": true,
          "internalType": "string",
          "name": "_contractName",
          "type": "string"
        },
        {
          "indexed": true,
          "internalType": "address",
          "name": "contractAddress",
          "type": "address"
        }
      ],
      "name": "ContractUpdated",
      "type": "event"
    },
    {
      "anonymous": false,
      "inputs": [
        {
          "indexed": false,
          "internalType": "uint64",
          "name": "version",
          "type": "uint64"
        }
      ],
      "name": "Initialized",
      "type": "event"
    },
    {
      "anonymous": false,
      "inputs": [
        {
          "indexed": true,
          "internalType": "address",
          "name": "previousOwner",
          "type": "address"
        },
        {
          "indexed": true,
          "internalType": "address",
          "name": "newOwner",
          "type": "address"
        }
      ],
      "name": "OwnershipTransferred",
      "type": "event"
    },
    {
      "anonymous": false,
      "inputs": [
        {
          "indexed": true,
          "internalType": "bytes32",
          "name": "role",
          "type": "bytes32"
        },
        {
          "indexed": true,
          "internalType": "bytes32",
          "name": "previousAdminRole",
          "type": "bytes32"
        },
        {
          "indexed": true,
          "internalType": "bytes32",
          "name": "newAdminRole",
          "type": "bytes32"
        }
      ],
      "name": "RoleAdminChanged",
      "type": "event"
    },
    {
      "anonymous": false,
      "inputs": [
        {
          "indexed": true,
          "internalType": "bytes32",
          "name": "role",
          "type": "bytes32"
        },
        {
          "indexed": true,
          "internalType": "address",
          "name": "account",
          "type": "address"
        },
        {
          "indexed": true,
          "internalType": "address",
          "name": "sender",
          "type": "address"
        }
      ],
      "name": "RoleGranted",
      "type": "event"
    },
    {
      "anonymous": false,
      "inputs": [
        {
          "indexed": true,
          "internalType": "bytes32",
          "name": "role",
          "type": "bytes32"
        },
        {
          "indexed": true,
          "internalType": "address",
          "name": "account",
          "type": "address"
        },
        {
          "indexed": true,
          "internalType": "address",
          "name": "sender",
          "type": "address"
        }
      ],
      "name": "RoleRevoked",
      "type": "event"
    },
    {
      "inputs": [],
      "name": "CLAIMER_ROLE",
      "outputs": [
        {
          "internalType": "bytes32",
          "name": "",
          "type": "bytes32"
        }
      ],
      "stateMutability": "view",
      "type": "function"
    },
    {
      "inputs": [],
      "name": "DEFAULT_ADMIN_ROLE",
      "outputs": [
        {
          "internalType": "bytes32",
          "name": "",
          "type": "bytes32"
        }
      ],
      "stateMutability": "view",
      "type": "function"
    },
    {
      "inputs": [],
      "name": "PAUSER_ROLE",
      "outputs": [
        {
          "internalType": "bytes32",
          "name": "",
          "type": "bytes32"
        }
      ],
      "stateMutability": "view",
      "type": "function"
    },
    {
      "inputs": [],
      "name": "UPGRADER_ROLE",
      "outputs": [
        {
          "internalType": "bytes32",
          "name": "",
          "type": "bytes32"
        }
      ],
      "stateMutability": "view",
      "type": "function"
    },
    {
      "inputs": [],
      "name": "URI_SETTER_ROLE",
      "outputs": [
        {
          "internalType": "bytes32",
          "name": "",
          "type": "bytes32"
        }
      ],
      "stateMutability": "view",
      "type": "function"
    },
    {
      "inputs": [],
      "name": "USER_MANAGER_ROLE",
      "outputs": [
        {
          "internalType": "bytes32",
          "name": "",
          "type": "bytes32"
        }
      ],
      "stateMutability": "view",
      "type": "function"
    },
    {
      "inputs": [],
      "name": "VERIFIER_ROLE",
      "outputs": [
        {
          "internalType": "bytes32",
          "name": "",
          "type": "bytes32"
        }
      ],
      "stateMutability": "view",
      "type": "function"
    },
    {
      "inputs": [
        {
          "internalType": "uint256",
          "name": "badgeId",
          "type": "uint256"
        },
        {
          "components": [
            {
              "internalType": "uint256",
              "name": "badgeModelId",
              "type": "uint256"
            },
            {
              "internalType": "address",
              "name": "account",
              "type": "address"
            },
            {
              "internalType": "uint256",
              "name": "dueDate",
              "type": "uint256"
            },
            {
              "internalType": "bool",
              "name": "initialized",
              "type": "bool"
            }
          ],
          "internalType": "struct TheBadgeStore.Badge",
          "name": "badge",
          "type": "tuple"
        }
      ],
      "name": "addBadge",
      "outputs": [],
      "stateMutability": "nonpayable",
      "type": "function"
    },
    {
      "inputs": [
        {
          "components": [
            {
              "internalType": "address",
              "name": "creator",
              "type": "address"
            },
            {
              "internalType": "string",
              "name": "controllerName",
              "type": "string"
            },
            {
              "internalType": "bool",
              "name": "paused",
              "type": "bool"
            },
            {
              "internalType": "uint256",
              "name": "mintCreatorFee",
              "type": "uint256"
            },
            {
              "internalType": "uint256",
              "name": "validFor",
              "type": "uint256"
            },
            {
              "internalType": "uint256",
              "name": "mintProtocolFee",
              "type": "uint256"
            },
            {
              "internalType": "bool",
              "name": "initialized",
              "type": "bool"
            },
            {
              "internalType": "uint256",
              "name": "version",
              "type": "uint256"
            },
            {
              "internalType": "bool",
              "name": "suspended",
              "type": "bool"
            },
            {
              "internalType": "bool",
              "name": "deprecated",
              "type": "bool"
            },
            {
              "internalType": "string",
              "name": "metadata",
              "type": "string"
            }
          ],
          "internalType": "struct TheBadgeStore.BadgeModel",
          "name": "badgeModel",
          "type": "tuple"
        }
      ],
      "name": "addBadgeModel",
      "outputs": [],
      "stateMutability": "nonpayable",
      "type": "function"
    },
    {
      "inputs": [
        {
          "internalType": "string",
          "name": "controllerName",
          "type": "string"
        },
        {
          "components": [
            {
              "internalType": "address",
              "name": "controller",
              "type": "address"
            },
            {
              "internalType": "bool",
              "name": "paused",
              "type": "bool"
            },
            {
              "internalType": "bool",
              "name": "initialized",
              "type": "bool"
            }
          ],
          "internalType": "struct TheBadgeStore.BadgeModelController",
          "name": "badgeModelController",
          "type": "tuple"
        }
      ],
      "name": "addBadgeModelController",
      "outputs": [],
      "stateMutability": "nonpayable",
      "type": "function"
    },
    {
      "inputs": [
        {
          "internalType": "string",
          "name": "_contractName",
          "type": "string"
        },
        {
          "internalType": "address",
          "name": "_contractAddress",
          "type": "address"
        }
      ],
      "name": "addPermittedContract",
      "outputs": [],
      "stateMutability": "nonpayable",
      "type": "function"
    },
    {
      "inputs": [
        {
          "internalType": "address",
          "name": "",
          "type": "address"
        }
      ],
      "name": "allowedContractAddresses",
      "outputs": [
        {
          "internalType": "bool",
          "name": "",
          "type": "bool"
        }
      ],
      "stateMutability": "view",
      "type": "function"
    },
    {
      "inputs": [
        {
          "internalType": "string",
          "name": "",
          "type": "string"
        }
      ],
      "name": "allowedContractAddressesByContractName",
      "outputs": [
        {
          "internalType": "address",
          "name": "",
          "type": "address"
        }
      ],
      "stateMutability": "view",
      "type": "function"
    },
    {
      "inputs": [
        {
          "internalType": "string",
          "name": "",
          "type": "string"
        }
      ],
      "name": "badgeModelControllers",
      "outputs": [
        {
          "internalType": "address",
          "name": "controller",
          "type": "address"
        },
        {
          "internalType": "bool",
          "name": "paused",
          "type": "bool"
        },
        {
          "internalType": "bool",
          "name": "initialized",
          "type": "bool"
        }
      ],
      "stateMutability": "view",
      "type": "function"
    },
    {
      "inputs": [
        {
          "internalType": "address",
          "name": "",
          "type": "address"
        }
      ],
      "name": "badgeModelControllersByAddress",
      "outputs": [
        {
          "internalType": "address",
          "name": "controller",
          "type": "address"
        },
        {
          "internalType": "bool",
          "name": "paused",
          "type": "bool"
        },
        {
          "internalType": "bool",
          "name": "initialized",
          "type": "bool"
        }
      ],
      "stateMutability": "view",
      "type": "function"
    },
    {
      "inputs": [
        {
          "internalType": "uint256",
          "name": "",
          "type": "uint256"
        }
      ],
      "name": "badgeModels",
      "outputs": [
        {
          "internalType": "address",
          "name": "creator",
          "type": "address"
        },
        {
          "internalType": "string",
          "name": "controllerName",
          "type": "string"
        },
        {
          "internalType": "bool",
          "name": "paused",
          "type": "bool"
        },
        {
          "internalType": "uint256",
          "name": "mintCreatorFee",
          "type": "uint256"
        },
        {
          "internalType": "uint256",
          "name": "validFor",
          "type": "uint256"
        },
        {
          "internalType": "uint256",
          "name": "mintProtocolFee",
          "type": "uint256"
        },
        {
          "internalType": "bool",
          "name": "initialized",
          "type": "bool"
        },
        {
          "internalType": "uint256",
          "name": "version",
          "type": "uint256"
        },
        {
          "internalType": "bool",
          "name": "suspended",
          "type": "bool"
        },
        {
          "internalType": "bool",
          "name": "deprecated",
          "type": "bool"
        },
        {
          "internalType": "string",
          "name": "metadata",
          "type": "string"
        }
      ],
      "stateMutability": "view",
      "type": "function"
    },
    {
      "inputs": [
        {
          "internalType": "uint256",
          "name": "",
          "type": "uint256"
        }
      ],
      "name": "badges",
      "outputs": [
        {
          "internalType": "uint256",
          "name": "badgeModelId",
          "type": "uint256"
        },
        {
          "internalType": "address",
          "name": "account",
          "type": "address"
        },
        {
          "internalType": "uint256",
          "name": "dueDate",
          "type": "uint256"
        },
        {
          "internalType": "bool",
          "name": "initialized",
          "type": "bool"
        }
      ],
      "stateMutability": "view",
      "type": "function"
    },
    {
      "inputs": [],
      "name": "createBadgeModelProtocolFee",
      "outputs": [
        {
          "internalType": "uint256",
          "name": "",
          "type": "uint256"
        }
      ],
      "stateMutability": "view",
      "type": "function"
    },
    {
      "inputs": [
        {
          "internalType": "address",
          "name": "userAddress",
          "type": "address"
        },
        {
          "components": [
            {
              "internalType": "string",
              "name": "metadata",
              "type": "string"
            },
            {
              "internalType": "bool",
              "name": "isCompany",
              "type": "bool"
            },
            {
              "internalType": "bool",
              "name": "isCreator",
              "type": "bool"
            },
            {
              "internalType": "bool",
              "name": "suspended",
              "type": "bool"
            },
            {
              "internalType": "bool",
              "name": "initialized",
              "type": "bool"
            }
          ],
          "internalType": "struct TheBadgeStore.User",
          "name": "newUser",
          "type": "tuple"
        }
      ],
      "name": "createUser",
      "outputs": [],
      "stateMutability": "nonpayable",
      "type": "function"
    },
    {
      "inputs": [],
      "name": "feeCollector",
      "outputs": [
        {
          "internalType": "address",
          "name": "",
          "type": "address"
        }
      ],
      "stateMutability": "view",
      "type": "function"
    },
    {
      "inputs": [
        {
          "internalType": "uint256",
          "name": "badgeId",
          "type": "uint256"
        }
      ],
      "name": "getBadge",
      "outputs": [
        {
          "components": [
            {
              "internalType": "uint256",
              "name": "badgeModelId",
              "type": "uint256"
            },
            {
              "internalType": "address",
              "name": "account",
              "type": "address"
            },
            {
              "internalType": "uint256",
              "name": "dueDate",
              "type": "uint256"
            },
            {
              "internalType": "bool",
              "name": "initialized",
              "type": "bool"
            }
          ],
          "internalType": "struct TheBadgeStore.Badge",
          "name": "",
          "type": "tuple"
        }
      ],
      "stateMutability": "view",
      "type": "function"
    },
    {
      "inputs": [
        {
          "internalType": "uint256",
          "name": "badgeModelId",
          "type": "uint256"
        }
      ],
      "name": "getBadgeModel",
      "outputs": [
        {
          "components": [
            {
              "internalType": "address",
              "name": "creator",
              "type": "address"
            },
            {
              "internalType": "string",
              "name": "controllerName",
              "type": "string"
            },
            {
              "internalType": "bool",
              "name": "paused",
              "type": "bool"
            },
            {
              "internalType": "uint256",
              "name": "mintCreatorFee",
              "type": "uint256"
            },
            {
              "internalType": "uint256",
              "name": "validFor",
              "type": "uint256"
            },
            {
              "internalType": "uint256",
              "name": "mintProtocolFee",
              "type": "uint256"
            },
            {
              "internalType": "bool",
              "name": "initialized",
              "type": "bool"
            },
            {
              "internalType": "uint256",
              "name": "version",
              "type": "uint256"
            },
            {
              "internalType": "bool",
              "name": "suspended",
              "type": "bool"
            },
            {
              "internalType": "bool",
              "name": "deprecated",
              "type": "bool"
            },
            {
              "internalType": "string",
              "name": "metadata",
              "type": "string"
            }
          ],
          "internalType": "struct TheBadgeStore.BadgeModel",
          "name": "",
          "type": "tuple"
        }
      ],
      "stateMutability": "view",
      "type": "function"
    },
    {
      "inputs": [
        {
          "internalType": "string",
          "name": "controllerName",
          "type": "string"
        }
      ],
      "name": "getBadgeModelController",
      "outputs": [
        {
          "components": [
            {
              "internalType": "address",
              "name": "controller",
              "type": "address"
            },
            {
              "internalType": "bool",
              "name": "paused",
              "type": "bool"
            },
            {
              "internalType": "bool",
              "name": "initialized",
              "type": "bool"
            }
          ],
          "internalType": "struct TheBadgeStore.BadgeModelController",
          "name": "",
          "type": "tuple"
        }
      ],
      "stateMutability": "view",
      "type": "function"
    },
    {
      "inputs": [
        {
          "internalType": "address",
          "name": "controllerAddress",
          "type": "address"
        }
      ],
      "name": "getBadgeModelControllerByAddress",
      "outputs": [
        {
          "components": [
            {
              "internalType": "address",
              "name": "controller",
              "type": "address"
            },
            {
              "internalType": "bool",
              "name": "paused",
              "type": "bool"
            },
            {
              "internalType": "bool",
              "name": "initialized",
              "type": "bool"
            }
          ],
          "internalType": "struct TheBadgeStore.BadgeModelController",
          "name": "",
          "type": "tuple"
        }
      ],
      "stateMutability": "view",
      "type": "function"
    },
    {
      "inputs": [],
      "name": "getCurrentBadgeIdCounter",
      "outputs": [
        {
          "internalType": "uint256",
          "name": "",
          "type": "uint256"
        }
      ],
      "stateMutability": "view",
      "type": "function"
    },
    {
      "inputs": [],
      "name": "getCurrentBadgeModelsIdCounter",
      "outputs": [
        {
          "internalType": "uint256",
          "name": "",
          "type": "uint256"
        }
      ],
      "stateMutability": "view",
      "type": "function"
    },
    {
      "inputs": [
        {
          "internalType": "bytes32",
          "name": "role",
          "type": "bytes32"
        }
      ],
      "name": "getRoleAdmin",
      "outputs": [
        {
          "internalType": "bytes32",
          "name": "",
          "type": "bytes32"
        }
      ],
      "stateMutability": "view",
      "type": "function"
    },
    {
      "inputs": [
        {
          "internalType": "address",
          "name": "userAddress",
          "type": "address"
        }
      ],
      "name": "getUser",
      "outputs": [
        {
          "components": [
            {
              "internalType": "string",
              "name": "metadata",
              "type": "string"
            },
            {
              "internalType": "bool",
              "name": "isCompany",
              "type": "bool"
            },
            {
              "internalType": "bool",
              "name": "isCreator",
              "type": "bool"
            },
            {
              "internalType": "bool",
              "name": "suspended",
              "type": "bool"
            },
            {
              "internalType": "bool",
              "name": "initialized",
              "type": "bool"
            }
          ],
          "internalType": "struct TheBadgeStore.User",
          "name": "",
          "type": "tuple"
        }
      ],
      "stateMutability": "view",
      "type": "function"
    },
    {
      "inputs": [
        {
          "internalType": "uint256",
          "name": "badgeModelId",
          "type": "uint256"
        },
        {
          "internalType": "address",
          "name": "userAddress",
          "type": "address"
        }
      ],
      "name": "getUserMintedBadgesByBadgeModel",
      "outputs": [
        {
          "internalType": "uint256[]",
          "name": "",
          "type": "uint256[]"
        }
      ],
      "stateMutability": "view",
      "type": "function"
    },
    {
      "inputs": [
        {
          "internalType": "bytes32",
          "name": "role",
          "type": "bytes32"
        },
        {
          "internalType": "address",
          "name": "account",
          "type": "address"
        }
      ],
      "name": "grantRole",
      "outputs": [],
      "stateMutability": "nonpayable",
      "type": "function"
    },
    {
      "inputs": [
        {
          "internalType": "bytes32",
          "name": "role",
          "type": "bytes32"
        },
        {
          "internalType": "address",
          "name": "account",
          "type": "address"
        }
      ],
      "name": "hasRole",
      "outputs": [
        {
          "internalType": "bool",
          "name": "",
          "type": "bool"
        }
      ],
      "stateMutability": "view",
      "type": "function"
    },
    {
      "inputs": [
        {
          "internalType": "address",
          "name": "admin",
          "type": "address"
        },
        {
          "internalType": "address",
          "name": "_feeCollector",
          "type": "address"
        }
      ],
      "name": "initialize",
      "outputs": [],
      "stateMutability": "nonpayable",
      "type": "function"
    },
    {
      "inputs": [],
      "name": "mintBadgeProtocolDefaultFeeInBps",
      "outputs": [
        {
          "internalType": "uint256",
          "name": "",
          "type": "uint256"
        }
      ],
      "stateMutability": "view",
      "type": "function"
    },
    {
      "inputs": [],
      "name": "owner",
      "outputs": [
        {
          "internalType": "address",
          "name": "",
          "type": "address"
        }
      ],
      "stateMutability": "view",
      "type": "function"
    },
    {
      "inputs": [],
      "name": "registerUserProtocolFee",
      "outputs": [
        {
          "internalType": "uint256",
          "name": "",
          "type": "uint256"
        }
      ],
      "stateMutability": "view",
      "type": "function"
    },
    {
      "inputs": [
        {
          "internalType": "address",
          "name": "",
          "type": "address"
        }
      ],
      "name": "registeredUsers",
      "outputs": [
        {
          "internalType": "string",
          "name": "metadata",
          "type": "string"
        },
        {
          "internalType": "bool",
          "name": "isCompany",
          "type": "bool"
        },
        {
          "internalType": "bool",
          "name": "isCreator",
          "type": "bool"
        },
        {
          "internalType": "bool",
          "name": "suspended",
          "type": "bool"
        },
        {
          "internalType": "bool",
          "name": "initialized",
          "type": "bool"
        }
      ],
      "stateMutability": "view",
      "type": "function"
    },
    {
      "inputs": [
        {
          "internalType": "string",
          "name": "_contractName",
          "type": "string"
        }
      ],
      "name": "removePermittedContract",
      "outputs": [],
      "stateMutability": "nonpayable",
      "type": "function"
    },
    {
      "inputs": [],
      "name": "renounceOwnership",
      "outputs": [],
      "stateMutability": "nonpayable",
      "type": "function"
    },
    {
      "inputs": [
        {
          "internalType": "bytes32",
          "name": "role",
          "type": "bytes32"
        },
        {
          "internalType": "address",
          "name": "callerConfirmation",
          "type": "address"
        }
      ],
      "name": "renounceRole",
      "outputs": [],
      "stateMutability": "nonpayable",
      "type": "function"
    },
    {
      "inputs": [
        {
          "internalType": "bytes32",
          "name": "role",
          "type": "bytes32"
        },
        {
          "internalType": "address",
          "name": "account",
          "type": "address"
        }
      ],
      "name": "revokeRole",
      "outputs": [],
      "stateMutability": "nonpayable",
      "type": "function"
    },
    {
      "inputs": [
        {
          "internalType": "bytes4",
          "name": "interfaceId",
          "type": "bytes4"
        }
      ],
      "name": "supportsInterface",
      "outputs": [
        {
          "internalType": "bool",
          "name": "",
          "type": "bool"
        }
      ],
      "stateMutability": "view",
      "type": "function"
    },
    {
      "inputs": [
        {
          "internalType": "uint256",
          "name": "badgeModelId",
          "type": "uint256"
        },
        {
          "internalType": "bool",
          "name": "suspended",
          "type": "bool"
        }
      ],
      "name": "suspendBadgeModel",
      "outputs": [],
      "stateMutability": "nonpayable",
      "type": "function"
    },
    {
      "inputs": [
        {
          "internalType": "uint256",
          "name": "badgeId",
          "type": "uint256"
        },
        {
          "internalType": "address",
          "name": "origin",
          "type": "address"
        },
        {
          "internalType": "address",
          "name": "destination",
          "type": "address"
        }
      ],
      "name": "transferBadge",
      "outputs": [],
      "stateMutability": "nonpayable",
      "type": "function"
    },
    {
      "inputs": [
        {
          "internalType": "address",
          "name": "newOwner",
          "type": "address"
        }
      ],
      "name": "transferOwnership",
      "outputs": [],
      "stateMutability": "nonpayable",
      "type": "function"
    },
    {
      "inputs": [
        {
          "internalType": "uint256",
          "name": "badgeId",
          "type": "uint256"
        },
        {
          "internalType": "uint256",
          "name": "dueDate",
          "type": "uint256"
        }
      ],
      "name": "updateBadgeDueDate",
      "outputs": [],
      "stateMutability": "nonpayable",
      "type": "function"
    },
    {
      "inputs": [
        {
          "internalType": "uint256",
          "name": "badgeModelId",
          "type": "uint256"
        },
        {
          "components": [
            {
              "internalType": "address",
              "name": "creator",
              "type": "address"
            },
            {
              "internalType": "string",
              "name": "controllerName",
              "type": "string"
            },
            {
              "internalType": "bool",
              "name": "paused",
              "type": "bool"
            },
            {
              "internalType": "uint256",
              "name": "mintCreatorFee",
              "type": "uint256"
            },
            {
              "internalType": "uint256",
              "name": "validFor",
              "type": "uint256"
            },
            {
              "internalType": "uint256",
              "name": "mintProtocolFee",
              "type": "uint256"
            },
            {
              "internalType": "bool",
              "name": "initialized",
              "type": "bool"
            },
            {
              "internalType": "uint256",
              "name": "version",
              "type": "uint256"
            },
            {
              "internalType": "bool",
              "name": "suspended",
              "type": "bool"
            },
            {
              "internalType": "bool",
              "name": "deprecated",
              "type": "bool"
            },
            {
              "internalType": "string",
              "name": "metadata",
              "type": "string"
            }
          ],
          "internalType": "struct TheBadgeStore.BadgeModel",
          "name": "badgeModel",
          "type": "tuple"
        }
      ],
      "name": "updateBadgeModel",
      "outputs": [],
      "stateMutability": "nonpayable",
      "type": "function"
    },
    {
      "inputs": [
        {
          "internalType": "string",
          "name": "controllerName",
          "type": "string"
        },
        {
          "components": [
            {
              "internalType": "address",
              "name": "controller",
              "type": "address"
            },
            {
              "internalType": "bool",
              "name": "paused",
              "type": "bool"
            },
            {
              "internalType": "bool",
              "name": "initialized",
              "type": "bool"
            }
          ],
          "internalType": "struct TheBadgeStore.BadgeModelController",
          "name": "badgeModelController",
          "type": "tuple"
        }
      ],
      "name": "updateBadgeModelController",
      "outputs": [],
      "stateMutability": "nonpayable",
      "type": "function"
    },
    {
      "inputs": [
        {
          "internalType": "uint256",
          "name": "badgeModelId",
          "type": "uint256"
        },
        {
          "internalType": "string",
          "name": "metadata",
          "type": "string"
        }
      ],
      "name": "updateBadgeModelMetadata",
      "outputs": [],
      "stateMutability": "nonpayable",
      "type": "function"
    },
    {
      "inputs": [
        {
          "internalType": "uint256",
          "name": "_createBadgeModelValue",
          "type": "uint256"
        }
      ],
      "name": "updateCreateBadgeModelProtocolFee",
      "outputs": [],
      "stateMutability": "nonpayable",
      "type": "function"
    },
    {
      "inputs": [
        {
          "internalType": "uint256",
          "name": "_mintBadgeDefaultFee",
          "type": "uint256"
        }
      ],
      "name": "updateMintBadgeDefaultProtocolFee",
      "outputs": [],
      "stateMutability": "nonpayable",
      "type": "function"
    },
    {
      "inputs": [
        {
          "internalType": "string",
          "name": "_contractName",
          "type": "string"
        },
        {
          "internalType": "address",
          "name": "_newContractAddress",
          "type": "address"
        }
      ],
      "name": "updatePermittedContract",
      "outputs": [],
      "stateMutability": "nonpayable",
      "type": "function"
    },
    {
      "inputs": [
        {
          "internalType": "uint256",
          "name": "_registerCreatorValue",
          "type": "uint256"
        }
      ],
      "name": "updateRegisterCreatorProtocolFee",
      "outputs": [],
      "stateMutability": "nonpayable",
      "type": "function"
    },
    {
      "inputs": [
        {
          "internalType": "address",
          "name": "userAddress",
          "type": "address"
        },
        {
          "components": [
            {
              "internalType": "string",
              "name": "metadata",
              "type": "string"
            },
            {
              "internalType": "bool",
              "name": "isCompany",
              "type": "bool"
            },
            {
              "internalType": "bool",
              "name": "isCreator",
              "type": "bool"
            },
            {
              "internalType": "bool",
              "name": "suspended",
              "type": "bool"
            },
            {
              "internalType": "bool",
              "name": "initialized",
              "type": "bool"
            }
          ],
          "internalType": "struct TheBadgeStore.User",
          "name": "updatedUser",
          "type": "tuple"
        }
      ],
      "name": "updateUser",
      "outputs": [],
      "stateMutability": "nonpayable",
      "type": "function"
    },
    {
      "inputs": [
        {
          "internalType": "uint256",
          "name": "",
          "type": "uint256"
        },
        {
          "internalType": "address",
          "name": "",
          "type": "address"
        },
        {
          "internalType": "uint256",
          "name": "",
          "type": "uint256"
        }
      ],
      "name": "userMintedBadgesByBadgeModel",
      "outputs": [
        {
          "internalType": "uint256",
          "name": "",
          "type": "uint256"
        }
      ],
      "stateMutability": "view",
      "type": "function"
    },
    {
      "stateMutability": "payable",
      "type": "receive"
    }
  ],
  "bytecode": {
    "object": "0x60806040523480156200001157600080fd5b506200001c62000022565b620000d6565b7ff0c57e16840df040f15088dc2f81fe391c3923bec73e23a9662efc9c229c6a00805468010000000000000000900460ff1615620000735760405163f92ee8a960e01b815260040160405180910390fd5b80546001600160401b0390811614620000d35780546001600160401b0319166001600160401b0390811782556040519081527fc7f505b2f371ae2175ee4913f4499e1f2633a7b5936321eed1cdaeb6115181d29060200160405180910390a15b50565b6132de80620000e66000396000f3fe6080604052600436106103395760003560e01c8063715018a6116101ab578063c415b95c116100f7578063e7705db611610095578063f2be2c851161006f578063f2be2c8514610c71578063f2fde38b14610c9e578063f72c0d8b14610cbe578063fc5f18d314610cf257600080fd5b8063e7705db614610bfd578063e9ab224e14610c31578063f1fe717e14610c5157600080fd5b8063e1818651116100d1578063e181865114610b7e578063e63ab1e914610b9e578063e70a0e6914610bd2578063e7343c8a14610be857600080fd5b8063c415b95c14610b1e578063c5a3c7ca14610b3e578063d547741f14610b5e57600080fd5b806398e36d8b11610164578063a217fddf1161013e578063a217fddf14610a95578063a41e35c314610aaa578063b26fc20414610ade578063b2e92c9314610afe57600080fd5b806398e36d8b146109dc57806399448a2c14610a55578063a1fa355c14610a7557600080fd5b8063715018a6146108145780637333b375146108295780637f345710146108815780638d838622146108b55780638da5cb5b1461097f57806391d14854146109bc57600080fd5b80632f2ff15d11610285578063485cc95511610223578063658658c6116101fd578063658658c614610777578063687a0557146107975780636f77926b146107c7578063700f4923146107f457600080fd5b8063485cc9551461072b5780634e5eceae1461074b57806364d8baef1461076157600080fd5b806336568abe1161025f57806336568abe146106ab578063385c4372146106cb5780633ce35aac146106eb5780634085b5271461070b57600080fd5b80632f2ff15d146105e15780632f92279614610601578063302b01801461067457600080fd5b80630deee176116102f25780631a9f36c0116102cc5780631a9f36c0146105615780631acd49b4146105815780631c38579e146105a1578063248a9ca3146105c157600080fd5b80630deee176146104f05780630e50cee514610510578063178682c11461054157600080fd5b806301719d2b1461034557806301ffc9a7146103f957806306d7a28c1461042957806308473d4a1461048257806308e5bf21146104af5780630a5f1ec5146104ce57600080fd5b3661034057005b600080fd5b34801561035157600080fd5b506103c5610360366004612563565b6040805160608082018352600080835260208084018290529284018190526001600160a01b039485168152600a83528390208351918201845254938416815260ff600160a01b85048116151592820192909252600160a81b9093041615159082015290565b6040805182516001600160a01b03168152602080840151151590820152918101511515908201526060015b60405180910390f35b34801561040557600080fd5b50610419610414366004612587565b610d26565b60405190151581526020016103f0565b34801561043557600080fd5b5061046a610444366004612653565b80516020818301810180516007825292820191909301209152546001600160a01b031681565b6040516001600160a01b0390911681526020016103f0565b34801561048e57600080fd5b506104a261049d36600461268f565b610d5d565b6040516103f091906126bf565b3480156104bb57600080fd5b506001545b6040519081526020016103f0565b3480156104da57600080fd5b506104ee6104e9366004612703565b610dd1565b005b3480156104fc57600080fd5b506104ee61050b366004612653565b610fdd565b34801561051c57600080fd5b5061053061052b366004612563565b6110c2565b6040516103f0959493929190612795565b34801561054d57600080fd5b506104ee61055c3660046127ce565b611185565b34801561056d57600080fd5b506104ee61057c366004612819565b61122f565b34801561058d57600080fd5b506104ee61059c366004612872565b61133a565b3480156105ad57600080fd5b506104ee6105bc3660046128c6565b6113bd565b3480156105cd57600080fd5b506104c06105dc3660046128eb565b611469565b3480156105ed57600080fd5b506104ee6105fc36600461268f565b61148b565b34801561060d57600080fd5b5061064d61061c366004612563565b600a602052600090815260409020546001600160a01b0381169060ff600160a01b8204811691600160a81b90041683565b604080516001600160a01b03909416845291151560208401521515908201526060016103f0565b34801561068057600080fd5b5061069461068f3660046128eb565b6114a7565b6040516103f09b9a99989796959493929190612904565b3480156106b757600080fd5b506104ee6106c636600461268f565b611627565b3480156106d757600080fd5b506103c56106e6366004612653565b61165f565b3480156106f757600080fd5b506104ee6107063660046129a3565b6116d6565b34801561071757600080fd5b506104ee6107263660046129d7565b61173e565b34801561073757600080fd5b506104ee610746366004612a01565b6117f2565b34801561075757600080fd5b506104c060045481565b34801561076d57600080fd5b506104c060035481565b34801561078357600080fd5b506104ee610792366004612819565b611939565b3480156107a357600080fd5b506104196107b2366004612563565b60066020526000908152604090205460ff1681565b3480156107d357600080fd5b506107e76107e2366004612563565b6119cb565b6040516103f09190612a2f565b34801561080057600080fd5b506104ee61080f366004612a87565b611af0565b34801561082057600080fd5b506104ee611bc5565b34801561083557600080fd5b5061064d610844366004612653565b8051808201602090810180516009825292820191909301209152546001600160a01b0381169060ff600160a01b8204811691600160a81b90041683565b34801561088d57600080fd5b506104c07f7804d923f43a17d325d77e781528e0793b2edd9890ab45fc64efd7b4b427744c81565b3480156108c157600080fd5b506109416108d03660046128eb565b6040805160808082018352600080835260208084018290528385018290526060938401829052948152600c8552839020835191820184528054825260018101546001600160a01b03169482019490945260028401549281019290925260039092015460ff1615159181019190915290565b6040516103f09190815181526020808301516001600160a01b0316908201526040808301519082015260609182015115159181019190915260800190565b34801561098b57600080fd5b507f9016d09d72d40fdae2fd8ceac6b6234c7706214fd39c1cd1e609a0528c199300546001600160a01b031661046a565b3480156109c857600080fd5b506104196109d736600461268f565b611bd9565b3480156109e857600080fd5b50610a2b6109f73660046128eb565b600c60205260009081526040902080546001820154600283015460039093015491926001600160a01b039091169160ff1684565b604080519485526001600160a01b03909316602085015291830152151560608201526080016103f0565b348015610a6157600080fd5b506104c0610a70366004612ac3565b611c11565b348015610a8157600080fd5b506104ee610a90366004612afb565b611c4f565b348015610aa157600080fd5b506104c0600081565b348015610ab657600080fd5b506104c07fcbaaf41b181bb6e269c490e876a7c97711b57e21dd8e5528423cf57579726b3581565b348015610aea57600080fd5b506104ee610af9366004612afb565b611d6a565b348015610b0a57600080fd5b506104ee610b19366004612b41565b611ea0565b348015610b2a57600080fd5b5060055461046a906001600160a01b031681565b348015610b4a57600080fd5b506104ee610b593660046128eb565b611f16565b348015610b6a57600080fd5b506104ee610b7936600461268f565b611f4f565b348015610b8a57600080fd5b506104ee610b993660046128eb565b611f6b565b348015610baa57600080fd5b506104c07f65d7a28e3265b37a6474929f336521b332c1681b933f6cb9f3376673440d862a81565b348015610bde57600080fd5b506104c060025481565b348015610bf457600080fd5b506000546104c0565b348015610c0957600080fd5b506104c07f0ce23c3e399818cfee81a7ab0880f714e53d7672b08df0fa62f2843416e1ea0981565b348015610c3d57600080fd5b506104ee610c4c3660046127ce565b611fa4565b348015610c5d57600080fd5b506104ee610c6c3660046128eb565b612021565b348015610c7d57600080fd5b50610c91610c8c3660046128eb565b61205a565b6040516103f09190612b63565b348015610caa57600080fd5b506104ee610cb9366004612563565b612275565b348015610cca57600080fd5b506104c07f189ab7a9244df0848122154315af71fe140f3db0fe014031783b0946b8c9d2e381565b348015610cfe57600080fd5b506104c07f11a8cb5a02bd6c42679835e867ef2118ba78f088f8300511420c6603c21d9c7881565b60006001600160e01b03198216637965db0b60e01b1480610d5757506301ffc9a760e01b6001600160e01b03198316145b92915050565b6000828152600d602090815260408083206001600160a01b0385168452825291829020805483518184028101840190945280845260609392830182828015610dc457602002820191906000526020600020905b815481526020019060010190808311610db0575b5050505050905092915050565b3360009081526006602052604081205460ff1615159003610e055760405163fb83383760e01b815260040160405180910390fd5b6000838152600c602052604090206001600160a01b0383161580610e3057506001600160a01b038216155b15610e4e57604051630d806a2b60e11b815260040160405180910390fd5b600381015460ff161515600003610e78576040516355a150f760e11b815260040160405180910390fd5b60018101546001600160a01b03848116911614610ea857604051630d806a2b60e11b815260040160405180910390fd5b6001810180546001600160a01b0319166001600160a01b038481169190911790915581546000908152600d602090815260408083209387168352929052908120905b8154811015610fa05785828281548110610f0657610f06612c3e565b906000526020600020015403610f98578154600090610f2790600190612c6a565b9050808214610f6c57828181548110610f4257610f42612c3e565b9060005260206000200154838381548110610f5f57610f5f612c3e565b6000918252602090912001555b82805480610f7c57610f7c612c7d565b6001900381819060005260206000200160009055905550610fa0565b600101610eea565b5050546000908152600d602090815260408083206001600160a01b0390941683529281529181208054600181018255908252919020019190915550565b6000610fe8816122b8565b6000600783604051610ffa9190612c93565b908152604051908190036020019020546001600160a01b03169050806110325760405162b8005960e81b815260040160405180910390fd5b6007836040516110429190612c93565b90815260408051918290036020908101832080546001600160a01b03191690556001600160a01b03841660008181526006909252919020805460ff191690559061108d908590612c93565b604051908190038120907f7ad6d7c73213a93d033801d72c729d90fb72104796b75ad799858b26f2b9872f90600090a3505050565b6008602052600090815260409020805481906110dd90612caf565b80601f016020809104026020016040519081016040528092919081815260200182805461110990612caf565b80156111565780601f1061112b57610100808354040283529160200191611156565b820191906000526020600020905b81548152906001019060200180831161113957829003601f168201915b5050506001909301549192505060ff808216916101008104821691620100008204811691630100000090041685565b3360009081526006602052604081205460ff16151590036111b95760405163fb83383760e01b815260040160405180910390fd5b6001600160a01b038216600090815260086020526040812060018101549091630100000090910460ff1615159003611204576040516365553c4160e11b815260040160405180910390fd5b6001600160a01b038316600090815260086020526040902082906112288282612e5b565b5050505050565b3360009081526006602052604081205460ff16151590036112635760405163fb83383760e01b815260040160405180910390fd5b60006009836040516112759190612c93565b90815260405190819003602001902080549091506001600160a01b03166112af5760405163930b449560e01b815260040160405180910390fd5b80546001600160a01b03166000908152600a60205260409081902080546001600160b01b03191690555182906009906112e9908690612c93565b9081526040519081900360200190206113028282612ff1565b50829050600a60006113176020840184612563565b6001600160a01b0316815260208101919091526040016000206112288282612ff1565b3360009081526006602052604081205460ff161515900361136e5760405163fb83383760e01b815260040160405180910390fd5b6000828152600b602052604081206006810154909160ff909116151590036113a9576040516336f7ce4f60e11b815260040160405180910390fd5b600981016113b7838261305e565b50505050565b3360009081526006602052604081205460ff16151590036113f15760405163fb83383760e01b815260040160405180910390fd5b6000828152600b602052604081206006810154909160ff9091161515900361142c576040516336f7ce4f60e11b815260040160405180910390fd5b60088101805460ff1916831515179055604080518082019091526007815266697066733a2f2f60c81b602082015260098201906113b7908261305e565b6000908152600080516020613289833981519152602052604090206001015490565b61149482611469565b61149d816122b8565b6113b783836122c2565b600b60205260009081526040902080546001820180546001600160a01b0390921692916114d390612caf565b80601f01602080910402602001604051908101604052809291908181526020018280546114ff90612caf565b801561154c5780601f106115215761010080835404028352916020019161154c565b820191906000526020600020905b81548152906001019060200180831161152f57829003601f168201915b50505050600283015460038401546004850154600586015460068701546007880154600889015460098a018054999a60ff9889169a97995095979496938516959294808316946101009093041692916115a490612caf565b80601f01602080910402602001604051908101604052809291908181526020018280546115d090612caf565b801561161d5780601f106115f25761010080835404028352916020019161161d565b820191906000526020600020905b81548152906001019060200180831161160057829003601f168201915b505050505090508b565b6001600160a01b03811633146116505760405163334bd91960e11b815260040160405180910390fd5b61165a8282612367565b505050565b60408051606081018252600080825260208201819052818301529051600990611689908490612c93565b908152604080519182900360209081018320606084018352546001600160a01b038116845260ff600160a01b82048116151592850192909252600160a81b90041615159082015292915050565b3360009081526006602052604081205460ff161515900361170a5760405163fb83383760e01b815260040160405180910390fd5b600080548152600b6020526040902081906117258282613117565b5050600080549080611736836131ff565b919050555050565b3360009081526006602052604081205460ff16151590036117725760405163fb83383760e01b815260040160405180910390fd5b803560006117866040840160208501612563565b6000858152600c6020526040902090915083906117a38282613218565b50506000828152600d602090815260408083206001600160a01b0385168452825282208054600181810183559184529183209091018690558054916117e7836131ff565b919050555050505050565b7ff0c57e16840df040f15088dc2f81fe391c3923bec73e23a9662efc9c229c6a008054600160401b810460ff1615906001600160401b03166000811580156118375750825b90506000826001600160401b031660011480156118535750303b155b905081158015611861575080155b1561187f5760405163f92ee8a960e01b815260040160405180910390fd5b845467ffffffffffffffff1916600117855583156118a957845460ff60401b1916600160401b1785555b6118b2876123e3565b600580546001600160a01b0319166001600160a01b0388161790556000600281905560038190556103e86004556118e990886122c2565b50831561193057845460ff60401b19168555604051600181527fc7f505b2f371ae2175ee4913f4499e1f2633a7b5936321eed1cdaeb6115181d29060200160405180910390a15b50505050505050565b3360009081526006602052604081205460ff161515900361196d5760405163fb83383760e01b815260040160405180910390fd5b600060098360405161197f9190612c93565b90815260405190819003602001902080549091506001600160a01b0316156119ba57604051631192a36960e31b815260040160405180910390fd5b816009846040516112e99190612c93565b6040805160a0810182526060808252600060208301819052928201839052810182905260808101919091526001600160a01b03821660009081526008602052604090819020815160a08101909252805482908290611a2890612caf565b80601f0160208091040260200160405190810160405280929190818152602001828054611a5490612caf565b8015611aa15780601f10611a7657610100808354040283529160200191611aa1565b820191906000526020600020905b815481529060010190602001808311611a8457829003601f168201915b50505091835250506001919091015460ff808216151560208401526101008204811615156040840152620100008204811615156060840152630100000090910416151560809091015292915050565b3360009081526006602052604081205460ff1615159003611b245760405163fb83383760e01b815260040160405180910390fd5b6000828152600b602052604081206006810154909160ff90911615159003611b5f576040516336f7ce4f60e11b815260040160405180910390fd5b60a082013560058201556060820180356003830155611b81906040840161326b565b60028201805460ff1916911515919091179055611ba66101408301610120840161326b565b600890910180549115156101000261ff00199092169190911790555050565b611bcd6123f4565b611bd7600061244f565b565b6000918252600080516020613289833981519152602090815260408084206001600160a01b0393909316845291905290205460ff1690565b600d6020528260005260406000206020528160005260406000208181548110611c3957600080fd5b9060005260206000200160009250925050505481565b6000611c5a816122b8565b6001600160a01b038216611c8157604051633cefac3360e01b815260040160405180910390fd5b60006001600160a01b0316600784604051611c9c9190612c93565b908152604051908190036020019020546001600160a01b031614611cd357604051637044eb7960e01b815260040160405180910390fd5b81600784604051611ce49190612c93565b908152604080516020928190038301812080546001600160a01b0319166001600160a01b03958616179055928516600081815260069093529120805460ff1916600117905590611d35908590612c93565b604051908190038120907f8b4ef7d4e5bc8f098e6f637ac0acf4aee47b3f027efea6307264b06b4bc9d29890600090a3505050565b6000611d75816122b8565b6001600160a01b038216611d9c57604051633cefac3360e01b815260040160405180910390fd5b6000600784604051611dae9190612c93565b908152604051908190036020019020546001600160a01b0316905080611de65760405162b8005960e81b815260040160405180910390fd5b6001600160a01b03811660009081526006602052604090819020805460ff19169055518390600790611e19908790612c93565b908152604080516020928190038301812080546001600160a01b0319166001600160a01b03958616179055928616600081815260069093529120805460ff1916600117905590611e6a908690612c93565b604051908190038120907ff611fec7babefd259c57ea5b6006acff8140ab17bb816c65ba0aa7e36c09caa890600090a350505050565b3360009081526006602052604081205460ff1615159003611ed45760405163fb83383760e01b815260040160405180910390fd5b6000828152600c602052604081206003810154909160ff90911615159003611f0f576040516355a150f760e11b815260040160405180910390fd5b6002015550565b3360009081526006602052604081205460ff1615159003611f4a5760405163fb83383760e01b815260040160405180910390fd5b600355565b611f5882611469565b611f61816122b8565b6113b78383612367565b3360009081526006602052604081205460ff1615159003611f9f5760405163fb83383760e01b815260040160405180910390fd5b600455565b3360009081526006602052604081205460ff1615159003611fd85760405163fb83383760e01b815260040160405180910390fd5b6001600160a01b03821660009081526008602052604090206001808201546301000000900460ff16151590036112045760405163096bb4a360e41b815260040160405180910390fd5b3360009081526006602052604081205460ff16151590036120555760405163fb83383760e01b815260040160405180910390fd5b600255565b604080516101608101825260008082526060602083018190529282018190528282018190526080820181905260a0820181905260c0820181905260e0820181905261010082018190526101208201526101408101919091526000828152600b60209081526040918290208251610160810190935280546001600160a01b0316835260018101805491928401916120ef90612caf565b80601f016020809104026020016040519081016040528092919081815260200182805461211b90612caf565b80156121685780601f1061213d57610100808354040283529160200191612168565b820191906000526020600020905b81548152906001019060200180831161214b57829003601f168201915b5050509183525050600282015460ff9081161515602083015260038301546040830152600483015460608301526005830154608083015260068301548116151560a0830152600783015460c08301526008830154808216151560e084015261010090819004909116151590820152600982018054610120909201916121ec90612caf565b80601f016020809104026020016040519081016040528092919081815260200182805461221890612caf565b80156122655780601f1061223a57610100808354040283529160200191612265565b820191906000526020600020905b81548152906001019060200180831161224857829003601f168201915b5050505050815250509050919050565b61227d6123f4565b6001600160a01b0381166122ac57604051631e4fbdf760e01b8152600060048201526024015b60405180910390fd5b6122b58161244f565b50565b6122b581336124c0565b60006000805160206132898339815191526122dd8484611bd9565b61235d576000848152602082815260408083206001600160a01b03871684529091529020805460ff191660011790556123133390565b6001600160a01b0316836001600160a01b0316857f2f8788117e7eff1d82e926ec794901d17c78024a50270940304540a733656f0d60405160405180910390a46001915050610d57565b6000915050610d57565b60006000805160206132898339815191526123828484611bd9565b1561235d576000848152602082815260408083206001600160a01b0387168085529252808320805460ff1916905551339287917ff6391f5c32d9c69d2a47ea670b442974b53935d1edc7fd64eb21e047a839171b9190a46001915050610d57565b6123eb6124fd565b6122b581612546565b336124267f9016d09d72d40fdae2fd8ceac6b6234c7706214fd39c1cd1e609a0528c199300546001600160a01b031690565b6001600160a01b031614611bd75760405163118cdaa760e01b81523360048201526024016122a3565b7f9016d09d72d40fdae2fd8ceac6b6234c7706214fd39c1cd1e609a0528c19930080546001600160a01b031981166001600160a01b03848116918217845560405192169182907f8be0079c531659141344cd1fd0a4f28419497f9722a3daafe3b4186f6b6457e090600090a3505050565b6124ca8282611bd9565b6124f95760405163e2517d3f60e01b81526001600160a01b0382166004820152602481018390526044016122a3565b5050565b7ff0c57e16840df040f15088dc2f81fe391c3923bec73e23a9662efc9c229c6a0054600160401b900460ff16611bd757604051631afcd79f60e31b815260040160405180910390fd5b61227d6124fd565b6001600160a01b03811681146122b557600080fd5b60006020828403121561257557600080fd5b81356125808161254e565b9392505050565b60006020828403121561259957600080fd5b81356001600160e01b03198116811461258057600080fd5b634e487b7160e01b600052604160045260246000fd5b600082601f8301126125d857600080fd5b81356001600160401b03808211156125f2576125f26125b1565b604051601f8301601f19908116603f0116810190828211818310171561261a5761261a6125b1565b8160405283815286602085880101111561263357600080fd5b836020870160208301376000602085830101528094505050505092915050565b60006020828403121561266557600080fd5b81356001600160401b0381111561267b57600080fd5b612687848285016125c7565b949350505050565b600080604083850312156126a257600080fd5b8235915060208301356126b48161254e565b809150509250929050565b6020808252825182820181905260009190848201906040850190845b818110156126f7578351835292840192918401916001016126db565b50909695505050505050565b60008060006060848603121561271857600080fd5b83359250602084013561272a8161254e565b9150604084013561273a8161254e565b809150509250925092565b60005b83811015612760578181015183820152602001612748565b50506000910152565b60008151808452612781816020860160208601612745565b601f01601f19169290920160200192915050565b60a0815260006127a860a0830188612769565b951515602083015250921515604084015290151560608301521515608090910152919050565b600080604083850312156127e157600080fd5b82356127ec8161254e565b915060208301356001600160401b0381111561280757600080fd5b830160a081860312156126b457600080fd5b600080828403608081121561282d57600080fd5b83356001600160401b0381111561284357600080fd5b61284f868287016125c7565b9350506060601f198201121561286457600080fd5b506020830190509250929050565b6000806040838503121561288557600080fd5b8235915060208301356001600160401b038111156128a257600080fd5b6128ae858286016125c7565b9150509250929050565b80151581146122b557600080fd5b600080604083850312156128d957600080fd5b8235915060208301356126b4816128b8565b6000602082840312156128fd57600080fd5b5035919050565b6001600160a01b038c168152610160602082018190526000906129298382018e612769565b90508b151560408401528a60608401528960808401528860a084015287151560c08401528660e08401528515156101008401528415156101208401528281036101408401526129788185612769565b9e9d5050505050505050505050505050565b6000610160828403121561299d57600080fd5b50919050565b6000602082840312156129b557600080fd5b81356001600160401b038111156129cb57600080fd5b6126878482850161298a565b60008082840360a08112156129eb57600080fd5b833592506080601f198201121561286457600080fd5b60008060408385031215612a1457600080fd5b8235612a1f8161254e565b915060208301356126b48161254e565b602081526000825160a06020840152612a4b60c0840182612769565b90506020840151151560408401526040840151151560608401526060840151151560808401526080840151151560a08401528091505092915050565b60008060408385031215612a9a57600080fd5b8235915060208301356001600160401b03811115612ab757600080fd5b6128ae8582860161298a565b600080600060608486031215612ad857600080fd5b833592506020840135612aea8161254e565b929592945050506040919091013590565b60008060408385031215612b0e57600080fd5b82356001600160401b03811115612b2457600080fd5b612b30858286016125c7565b92505060208301356126b48161254e565b60008060408385031215612b5457600080fd5b50508035926020909101359150565b60208152612b7d6020820183516001600160a01b03169052565b60006020830151610160806040850152612b9b610180850183612769565b91506040850151612bb0606086018215159052565b5060608501516080850152608085015160a085015260a085015160c085015260c0850151612be260e086018215159052565b5060e085015161010085810191909152850151610120612c058187018315159052565b8601519050610140612c1a8682018315159052565b860151858403601f1901838701529050612c348382612769565b9695505050505050565b634e487b7160e01b600052603260045260246000fd5b634e487b7160e01b600052601160045260246000fd5b81810381811115610d5757610d57612c54565b634e487b7160e01b600052603160045260246000fd5b60008251612ca5818460208701612745565b9190910192915050565b600181811c90821680612cc357607f821691505b60208210810361299d57634e487b7160e01b600052602260045260246000fd5b6000808335601e19843603018112612cfa57600080fd5b8301803591506001600160401b03821115612d1457600080fd5b602001915036819003821315612d2957600080fd5b9250929050565b601f82111561165a576000816000526020600020601f850160051c81016020861015612d595750805b601f850160051c820191505b81811015612d7857828155600101612d65565b505050505050565b600019600383901b1c191660019190911b1790565b6001600160401b03831115612dac57612dac6125b1565b612dc083612dba8354612caf565b83612d30565b6000601f841160018114612dee5760008515612ddc5750838201355b612de68682612d80565b845550611228565b600083815260209020601f19861690835b82811015612e1f5786850135825560209485019460019092019101612dff565b5086821015612e3c5760001960f88860031b161c19848701351681555b505060018560011b0183555050505050565b60008135610d57816128b8565b612e658283612ce3565b6001600160401b03811115612e7c57612e7c6125b1565b612e9081612e8a8554612caf565b85612d30565b6000601f821160018114612ebe5760008315612eac5750838201355b612eb68482612d80565b865550612f18565b600085815260209020601f19841690835b82811015612eef5786850135825560209485019460019092019101612ecf565b5084821015612f0c5760001960f88660031b161c19848701351681555b505060018360011b0185555b5050505060018101612f43612f2f60208501612e4e565b825490151560ff1660ff1991909116178255565b612f6c612f5260408501612e4e565b82805461ff00191691151560081b61ff0016919091179055565b612f97612f7b60608501612e4e565b82805462ff0000191691151560101b62ff000016919091179055565b61165a612fa660808501612e4e565b82805463ff000000191691151560181b63ff00000016919091179055565b60008135610d578161254e565b80546001600160a01b0319166001600160a01b0392909216919091179055565b8135612ffc8161254e565b6130068183612fd1565b506020820135613015816128b8565b815460ff60a01b19811691151560a01b60ff60a01b169182178355604084013561303e816128b8565b61ffff60a01b199190911690911790151560a81b60ff60a81b1617905550565b81516001600160401b03811115613077576130776125b1565b61308b816130858454612caf565b84612d30565b602080601f8311600181146130ba57600084156130a85750858301515b6130b28582612d80565b865550612d78565b600085815260208120601f198616915b828110156130e9578886015182559484019460019091019084016130ca565b50858210156131075787850151600019600388901b60f8161c191681555b5050505050600190811b01905550565b61312961312383612fc4565b82612fd1565b6131366020830183612ce3565b613144818360018601612d95565b505061316e61315560408401612e4e565b6002830160ff1981541660ff8315151681178255505050565b606082013560038201556080820135600482015560a082013560058201556131b461319b60c08401612e4e565b6006830160ff1981541660ff8315151681178255505050565b60e08201356007820155600881016131d2612f2f6101008501612e4e565b6131e2612f526101208501612e4e565b506131f1610140830183612ce3565b6113b7818360098601612d95565b60006001820161321157613211612c54565b5060010190565b81358155602082013561322a8161254e565b6132378160018401612fd1565b50604082013560028201556060820135613250816128b8565b60038201805482151560ff1660ff1991909116179055505050565b60006020828403121561327d57600080fd5b8135612580816128b856fe02dd7bc7dec4dceedda775e58dd541e08a116c6c53815c0bd028192f7b626800a26469706673582212204958034c46b3d7a56873ba0410c2d2552a0cf0e323b8f3e642743e5b93adda2d64736f6c63430008170033",
    "linkReferences": {}
  },
  "methodIdentifiers": {
    "CLAIMER_ROLE()": "fc5f18d3",
    "DEFAULT_ADMIN_ROLE()": "a217fddf",
    "PAUSER_ROLE()": "e63ab1e9",
    "UPGRADER_ROLE()": "f72c0d8b",
    "URI_SETTER_ROLE()": "7f345710",
    "USER_MANAGER_ROLE()": "a41e35c3",
    "VERIFIER_ROLE()": "e7705db6",
    "addBadge(uint256,(uint256,address,uint256,bool))": "4085b527",
    "addBadgeModel((address,string,bool,uint256,uint256,uint256,bool,uint256,bool,bool,string))": "3ce35aac",
    "addBadgeModelController(string,(address,bool,bool))": "658658c6",
    "addPermittedContract(string,address)": "a1fa355c",
    "allowedContractAddresses(address)": "687a0557",
    "allowedContractAddressesByContractName(string)": "06d7a28c",
    "badgeModelControllers(string)": "7333b375",
    "badgeModelControllersByAddress(address)": "2f922796",
    "badgeModels(uint256)": "302b0180",
    "badges(uint256)": "98e36d8b",
    "createBadgeModelProtocolFee()": "64d8baef",
    "createUser(address,(string,bool,bool,bool,bool))": "e9ab224e",
    "feeCollector()": "c415b95c",
    "getBadge(uint256)": "8d838622",
    "getBadgeModel(uint256)": "f2be2c85",
    "getBadgeModelController(string)": "385c4372",
    "getBadgeModelControllerByAddress(address)": "01719d2b",
    "getCurrentBadgeIdCounter()": "08e5bf21",
    "getCurrentBadgeModelsIdCounter()": "e7343c8a",
    "getRoleAdmin(bytes32)": "248a9ca3",
    "getUser(address)": "6f77926b",
    "getUserMintedBadgesByBadgeModel(uint256,address)": "08473d4a",
    "grantRole(bytes32,address)": "2f2ff15d",
    "hasRole(bytes32,address)": "91d14854",
    "initialize(address,address)": "485cc955",
    "mintBadgeProtocolDefaultFeeInBps()": "4e5eceae",
    "owner()": "8da5cb5b",
    "registerUserProtocolFee()": "e70a0e69",
    "registeredUsers(address)": "0e50cee5",
    "removePermittedContract(string)": "0deee176",
    "renounceOwnership()": "715018a6",
    "renounceRole(bytes32,address)": "36568abe",
    "revokeRole(bytes32,address)": "d547741f",
    "supportsInterface(bytes4)": "01ffc9a7",
    "suspendBadgeModel(uint256,bool)": "1c38579e",
    "transferBadge(uint256,address,address)": "0a5f1ec5",
    "transferOwnership(address)": "f2fde38b",
    "updateBadgeDueDate(uint256,uint256)": "b2e92c93",
    "updateBadgeModel(uint256,(address,string,bool,uint256,uint256,uint256,bool,uint256,bool,bool,string))": "700f4923",
    "updateBadgeModelController(string,(address,bool,bool))": "1a9f36c0",
    "updateBadgeModelMetadata(uint256,string)": "1acd49b4",
    "updateCreateBadgeModelProtocolFee(uint256)": "c5a3c7ca",
    "updateMintBadgeDefaultProtocolFee(uint256)": "e1818651",
    "updatePermittedContract(string,address)": "b26fc204",
    "updateRegisterCreatorProtocolFee(uint256)": "f1fe717e",
    "updateUser(address,(string,bool,bool,bool,bool))": "178682c1",
    "userMintedBadgesByBadgeModel(uint256,address,uint256)": "99448a2c"
  },
  "id": 60
}