{
  "_format": "hh-sol-artifact-1",
  "contractName": "TheBadge",
  "sourceName": "src/contracts/thebadge/TheBadge.sol",
  "abi": [
    {
      "inputs": [],
      "stateMutability": "nonpayable",
      "type": "constructor"
    },
    {
      "inputs": [],
      "name": "AccessControlBadConfirmation",
      "type": "error"
    },
    {
      "inputs": [
        {
          "internalType": "address",
          "name": "account",
          "type": "address"
        },
        {
          "internalType": "bytes32",
          "name": "neededRole",
          "type": "bytes32"
        }
      ],
      "name": "AccessControlUnauthorizedAccount",
      "type": "error"
    },
    {
      "inputs": [
        {
          "internalType": "address",
          "name": "target",
          "type": "address"
        }
      ],
      "name": "AddressEmptyCode",
      "type": "error"
    },
    {
      "inputs": [
        {
          "internalType": "address",
          "name": "sender",
          "type": "address"
        },
        {
          "internalType": "uint256",
          "name": "balance",
          "type": "uint256"
        },
        {
          "internalType": "uint256",
          "name": "needed",
          "type": "uint256"
        },
        {
          "internalType": "uint256",
          "name": "tokenId",
          "type": "uint256"
        }
      ],
      "name": "ERC1155InsufficientBalance",
      "type": "error"
    },
    {
      "inputs": [
        {
          "internalType": "address",
          "name": "approver",
          "type": "address"
        }
      ],
      "name": "ERC1155InvalidApprover",
      "type": "error"
    },
    {
      "inputs": [
        {
          "internalType": "uint256",
          "name": "idsLength",
          "type": "uint256"
        },
        {
          "internalType": "uint256",
          "name": "valuesLength",
          "type": "uint256"
        }
      ],
      "name": "ERC1155InvalidArrayLength",
      "type": "error"
    },
    {
      "inputs": [
        {
          "internalType": "address",
          "name": "operator",
          "type": "address"
        }
      ],
      "name": "ERC1155InvalidOperator",
      "type": "error"
    },
    {
      "inputs": [
        {
          "internalType": "address",
          "name": "receiver",
          "type": "address"
        }
      ],
      "name": "ERC1155InvalidReceiver",
      "type": "error"
    },
    {
      "inputs": [
        {
          "internalType": "address",
          "name": "sender",
          "type": "address"
        }
      ],
      "name": "ERC1155InvalidSender",
      "type": "error"
    },
    {
      "inputs": [
        {
          "internalType": "address",
          "name": "operator",
          "type": "address"
        },
        {
          "internalType": "address",
          "name": "owner",
          "type": "address"
        }
      ],
      "name": "ERC1155MissingApprovalForAll",
      "type": "error"
    },
    {
      "inputs": [
        {
          "internalType": "address",
          "name": "implementation",
          "type": "address"
        }
      ],
      "name": "ERC1967InvalidImplementation",
      "type": "error"
    },
    {
      "inputs": [],
      "name": "ERC1967NonPayable",
      "type": "error"
    },
    {
      "inputs": [],
      "name": "EnforcedPause",
      "type": "error"
    },
    {
      "inputs": [],
      "name": "ExpectedPause",
      "type": "error"
    },
    {
      "inputs": [],
      "name": "FailedInnerCall",
      "type": "error"
    },
    {
      "inputs": [],
      "name": "InvalidInitialization",
      "type": "error"
    },
    {
      "inputs": [],
      "name": "NotInitializing",
      "type": "error"
    },
    {
      "inputs": [],
      "name": "ReentrancyGuardReentrantCall",
      "type": "error"
    },
    {
      "inputs": [],
      "name": "TheBadge__SBT",
      "type": "error"
    },
    {
      "inputs": [],
      "name": "TheBadge__calculateFee_protocolFeesInvalidValues",
      "type": "error"
    },
    {
      "inputs": [],
      "name": "TheBadge__mintInBatch_badgeModelsArrayEmpty",
      "type": "error"
    },
    {
      "inputs": [],
      "name": "TheBadge__mintInBatch_invalidParamsLength",
      "type": "error"
    },
    {
      "inputs": [],
      "name": "TheBadge__mint_creatorFeesPaymentFailed",
      "type": "error"
    },
    {
      "inputs": [],
      "name": "TheBadge__mint_protocolFeesPaymentFailed",
      "type": "error"
    },
    {
      "inputs": [],
      "name": "TheBadge__requestBadge_badgeModelIsSuspended",
      "type": "error"
    },
    {
      "inputs": [],
      "name": "TheBadge__requestBadge_badgeModelNotFound",
      "type": "error"
    },
    {
      "inputs": [],
      "name": "TheBadge__requestBadge_badgeNotClaimable",
      "type": "error"
    },
    {
      "inputs": [],
      "name": "TheBadge__requestBadge_badgeNotFound",
      "type": "error"
    },
    {
      "inputs": [],
      "name": "TheBadge__requestBadge_badgeNotMintable",
      "type": "error"
    },
    {
      "inputs": [],
      "name": "TheBadge__requestBadge_controllerIsPaused",
      "type": "error"
    },
    {
      "inputs": [],
      "name": "TheBadge__requestBadge_isDeprecated",
      "type": "error"
    },
    {
      "inputs": [],
      "name": "TheBadge__requestBadge_isPaused",
      "type": "error"
    },
    {
      "inputs": [],
      "name": "TheBadge__requestBadge_isSuspended",
      "type": "error"
    },
    {
      "inputs": [],
      "name": "TheBadge__requestBadge_wrongValue",
      "type": "error"
    },
    {
      "inputs": [],
      "name": "UUPSUnauthorizedCallContext",
      "type": "error"
    },
    {
      "inputs": [
        {
          "internalType": "bytes32",
          "name": "slot",
          "type": "bytes32"
        }
      ],
      "name": "UUPSUnsupportedProxiableUUID",
      "type": "error"
    },
    {
      "anonymous": false,
      "inputs": [
        {
          "indexed": true,
          "internalType": "address",
          "name": "account",
          "type": "address"
        },
        {
          "indexed": true,
          "internalType": "address",
          "name": "operator",
          "type": "address"
        },
        {
          "indexed": false,
          "internalType": "bool",
          "name": "approved",
          "type": "bool"
        }
      ],
      "name": "ApprovalForAll",
      "type": "event"
    },
    {
      "anonymous": false,
      "inputs": [
        {
          "indexed": true,
          "internalType": "uint256",
          "name": "badgeId",
          "type": "uint256"
        },
        {
          "indexed": true,
          "internalType": "address",
          "name": "origin",
          "type": "address"
        },
        {
          "indexed": true,
          "internalType": "address",
          "name": "destination",
          "type": "address"
        }
      ],
      "name": "BadgeClaimed",
      "type": "event"
    },
    {
      "anonymous": false,
      "inputs": [
        {
          "indexed": true,
          "internalType": "uint256",
          "name": "badgeModelID",
          "type": "uint256"
        },
        {
          "indexed": true,
          "internalType": "uint256",
          "name": "badgeID",
          "type": "uint256"
        },
        {
          "indexed": true,
          "internalType": "address",
          "name": "recipient",
          "type": "address"
        },
        {
          "indexed": false,
          "internalType": "address",
          "name": "controller",
          "type": "address"
        },
        {
          "indexed": false,
          "internalType": "uint256",
          "name": "controllerBadgeId",
          "type": "uint256"
        }
      ],
      "name": "BadgeRequested",
      "type": "event"
    },
    {
      "anonymous": false,
      "inputs": [
        {
          "indexed": true,
          "internalType": "address",
          "name": "admin",
          "type": "address"
        }
      ],
      "name": "Initialize",
      "type": "event"
    },
    {
      "anonymous": false,
      "inputs": [
        {
          "indexed": false,
          "internalType": "uint64",
          "name": "version",
          "type": "uint64"
        }
      ],
      "name": "Initialized",
      "type": "event"
    },
    {
      "anonymous": false,
      "inputs": [
        {
          "indexed": false,
          "internalType": "address",
          "name": "account",
          "type": "address"
        }
      ],
      "name": "Paused",
      "type": "event"
    },
    {
      "anonymous": false,
      "inputs": [
        {
          "indexed": true,
          "internalType": "address",
          "name": "recipient",
          "type": "address"
        },
        {
          "indexed": false,
          "internalType": "address",
          "name": "payer",
          "type": "address"
        },
        {
          "indexed": false,
          "internalType": "uint256",
          "name": "amount",
          "type": "uint256"
        },
        {
          "indexed": true,
          "internalType": "enum LibTheBadge.PaymentType",
          "name": "paymentType",
          "type": "uint8"
        },
        {
          "indexed": true,
          "internalType": "uint256",
          "name": "badgeModelId",
          "type": "uint256"
        },
        {
          "indexed": false,
          "internalType": "string",
          "name": "controllerName",
          "type": "string"
        }
      ],
      "name": "PaymentMade",
      "type": "event"
    },
    {
      "anonymous": false,
      "inputs": [],
      "name": "ProtocolSettingsUpdated",
      "type": "event"
    },
    {
      "anonymous": false,
      "inputs": [
        {
          "indexed": true,
          "internalType": "bytes32",
          "name": "role",
          "type": "bytes32"
        },
        {
          "indexed": true,
          "internalType": "bytes32",
          "name": "previousAdminRole",
          "type": "bytes32"
        },
        {
          "indexed": true,
          "internalType": "bytes32",
          "name": "newAdminRole",
          "type": "bytes32"
        }
      ],
      "name": "RoleAdminChanged",
      "type": "event"
    },
    {
      "anonymous": false,
      "inputs": [
        {
          "indexed": true,
          "internalType": "bytes32",
          "name": "role",
          "type": "bytes32"
        },
        {
          "indexed": true,
          "internalType": "address",
          "name": "account",
          "type": "address"
        },
        {
          "indexed": true,
          "internalType": "address",
          "name": "sender",
          "type": "address"
        }
      ],
      "name": "RoleGranted",
      "type": "event"
    },
    {
      "anonymous": false,
      "inputs": [
        {
          "indexed": true,
          "internalType": "bytes32",
          "name": "role",
          "type": "bytes32"
        },
        {
          "indexed": true,
          "internalType": "address",
          "name": "account",
          "type": "address"
        },
        {
          "indexed": true,
          "internalType": "address",
          "name": "sender",
          "type": "address"
        }
      ],
      "name": "RoleRevoked",
      "type": "event"
    },
    {
      "anonymous": false,
      "inputs": [
        {
          "indexed": true,
          "internalType": "address",
          "name": "operator",
          "type": "address"
        },
        {
          "indexed": true,
          "internalType": "address",
          "name": "from",
          "type": "address"
        },
        {
          "indexed": true,
          "internalType": "address",
          "name": "to",
          "type": "address"
        },
        {
          "indexed": false,
          "internalType": "uint256[]",
          "name": "ids",
          "type": "uint256[]"
        },
        {
          "indexed": false,
          "internalType": "uint256[]",
          "name": "values",
          "type": "uint256[]"
        }
      ],
      "name": "TransferBatch",
      "type": "event"
    },
    {
      "anonymous": false,
      "inputs": [
        {
          "indexed": true,
          "internalType": "address",
          "name": "operator",
          "type": "address"
        },
        {
          "indexed": true,
          "internalType": "address",
          "name": "from",
          "type": "address"
        },
        {
          "indexed": true,
          "internalType": "address",
          "name": "to",
          "type": "address"
        },
        {
          "indexed": false,
          "internalType": "uint256",
          "name": "id",
          "type": "uint256"
        },
        {
          "indexed": false,
          "internalType": "uint256",
          "name": "value",
          "type": "uint256"
        }
      ],
      "name": "TransferSingle",
      "type": "event"
    },
    {
      "anonymous": false,
      "inputs": [
        {
          "indexed": false,
          "internalType": "string",
          "name": "value",
          "type": "string"
        },
        {
          "indexed": true,
          "internalType": "uint256",
          "name": "id",
          "type": "uint256"
        }
      ],
      "name": "URI",
      "type": "event"
    },
    {
      "anonymous": false,
      "inputs": [
        {
          "indexed": false,
          "internalType": "address",
          "name": "account",
          "type": "address"
        }
      ],
      "name": "Unpaused",
      "type": "event"
    },
    {
      "anonymous": false,
      "inputs": [
        {
          "indexed": true,
          "internalType": "address",
          "name": "implementation",
          "type": "address"
        }
      ],
      "name": "Upgraded",
      "type": "event"
    },
    {
      "inputs": [],
      "name": "CLAIMER_ROLE",
      "outputs": [
        {
          "internalType": "bytes32",
          "name": "",
          "type": "bytes32"
        }
      ],
      "stateMutability": "view",
      "type": "function"
    },
    {
      "inputs": [],
      "name": "DEFAULT_ADMIN_ROLE",
      "outputs": [
        {
          "internalType": "bytes32",
          "name": "",
          "type": "bytes32"
        }
      ],
      "stateMutability": "view",
      "type": "function"
    },
    {
      "inputs": [],
      "name": "PAUSER_ROLE",
      "outputs": [
        {
          "internalType": "bytes32",
          "name": "",
          "type": "bytes32"
        }
      ],
      "stateMutability": "view",
      "type": "function"
    },
    {
      "inputs": [],
      "name": "UPGRADER_ROLE",
      "outputs": [
        {
          "internalType": "bytes32",
          "name": "",
          "type": "bytes32"
        }
      ],
      "stateMutability": "view",
      "type": "function"
    },
    {
      "inputs": [],
      "name": "UPGRADE_INTERFACE_VERSION",
      "outputs": [
        {
          "internalType": "string",
          "name": "",
          "type": "string"
        }
      ],
      "stateMutability": "view",
      "type": "function"
    },
    {
      "inputs": [],
      "name": "URI_SETTER_ROLE",
      "outputs": [
        {
          "internalType": "bytes32",
          "name": "",
          "type": "bytes32"
        }
      ],
      "stateMutability": "view",
      "type": "function"
    },
    {
      "inputs": [],
      "name": "USER_MANAGER_ROLE",
      "outputs": [
        {
          "internalType": "bytes32",
          "name": "",
          "type": "bytes32"
        }
      ],
      "stateMutability": "view",
      "type": "function"
    },
    {
      "inputs": [],
      "name": "VERIFIER_ROLE",
      "outputs": [
        {
          "internalType": "bytes32",
          "name": "",
          "type": "bytes32"
        }
      ],
      "stateMutability": "view",
      "type": "function"
    },
    {
      "inputs": [],
      "name": "_badgeStore",
      "outputs": [
        {
          "internalType": "contract TheBadgeStore",
          "name": "",
          "type": "address"
        }
      ],
      "stateMutability": "view",
      "type": "function"
    },
    {
      "inputs": [],
      "name": "_badgeUsers",
      "outputs": [
        {
          "internalType": "contract TheBadgeUsers",
          "name": "",
          "type": "address"
        }
      ],
      "stateMutability": "view",
      "type": "function"
    },
    {
      "inputs": [
        {
          "internalType": "address",
          "name": "account",
          "type": "address"
        },
        {
          "internalType": "uint256",
          "name": "badgeId",
          "type": "uint256"
        }
      ],
      "name": "balanceOf",
      "outputs": [
        {
          "internalType": "uint256",
          "name": "",
          "type": "uint256"
        }
      ],
      "stateMutability": "view",
      "type": "function"
    },
    {
      "inputs": [
        {
          "internalType": "address",
          "name": "account",
          "type": "address"
        },
        {
          "internalType": "uint256",
          "name": "badgeModelId",
          "type": "uint256"
        }
      ],
      "name": "balanceOfBadgeModel",
      "outputs": [
        {
          "internalType": "uint256",
          "name": "",
          "type": "uint256"
        }
      ],
      "stateMutability": "view",
      "type": "function"
    },
    {
      "inputs": [
        {
          "internalType": "address[]",
          "name": "accounts",
          "type": "address[]"
        },
        {
          "internalType": "uint256[]",
          "name": "ids",
          "type": "uint256[]"
        }
      ],
      "name": "balanceOfBatch",
      "outputs": [
        {
          "internalType": "uint256[]",
          "name": "",
          "type": "uint256[]"
        }
      ],
      "stateMutability": "view",
      "type": "function"
    },
    {
      "inputs": [
        {
          "internalType": "uint256",
          "name": "badgeId",
          "type": "uint256"
        },
        {
          "internalType": "bytes",
          "name": "data",
          "type": "bytes"
        }
      ],
      "name": "challenge",
      "outputs": [],
      "stateMutability": "payable",
      "type": "function"
    },
    {
      "inputs": [
        {
          "internalType": "uint256",
          "name": "badgeId",
          "type": "uint256"
        },
        {
          "internalType": "bytes",
          "name": "data",
          "type": "bytes"
        }
      ],
      "name": "claim",
      "outputs": [],
      "stateMutability": "nonpayable",
      "type": "function"
    },
    {
      "inputs": [
        {
          "internalType": "uint256",
          "name": "badgeId",
          "type": "uint256"
        }
      ],
      "name": "getChallengeDepositValue",
      "outputs": [
        {
          "internalType": "uint256",
          "name": "",
          "type": "uint256"
        }
      ],
      "stateMutability": "view",
      "type": "function"
    },
    {
      "inputs": [
        {
          "internalType": "uint256",
          "name": "badgeId",
          "type": "uint256"
        }
      ],
      "name": "getRemovalDepositValue",
      "outputs": [
        {
          "internalType": "uint256",
          "name": "",
          "type": "uint256"
        }
      ],
      "stateMutability": "view",
      "type": "function"
    },
    {
      "inputs": [
        {
          "internalType": "bytes32",
          "name": "role",
          "type": "bytes32"
        }
      ],
      "name": "getRoleAdmin",
      "outputs": [
        {
          "internalType": "bytes32",
          "name": "",
          "type": "bytes32"
        }
      ],
      "stateMutability": "view",
      "type": "function"
    },
    {
      "inputs": [
        {
          "internalType": "bytes32",
          "name": "role",
          "type": "bytes32"
        },
        {
          "internalType": "address",
          "name": "account",
          "type": "address"
        }
      ],
      "name": "grantRole",
      "outputs": [],
      "stateMutability": "nonpayable",
      "type": "function"
    },
    {
      "inputs": [
        {
          "internalType": "bytes32",
          "name": "role",
          "type": "bytes32"
        },
        {
          "internalType": "address",
          "name": "account",
          "type": "address"
        }
      ],
      "name": "hasRole",
      "outputs": [
        {
          "internalType": "bool",
          "name": "",
          "type": "bool"
        }
      ],
      "stateMutability": "view",
      "type": "function"
    },
    {
      "inputs": [
        {
          "internalType": "address",
          "name": "admin",
          "type": "address"
        },
        {
          "internalType": "address",
          "name": "badgeStore",
          "type": "address"
        },
        {
          "internalType": "address",
          "name": "badgeUsers",
          "type": "address"
        }
      ],
      "name": "initialize",
      "outputs": [],
      "stateMutability": "nonpayable",
      "type": "function"
    },
    {
      "inputs": [
        {
          "internalType": "address",
          "name": "account",
          "type": "address"
        },
        {
          "internalType": "address",
          "name": "operator",
          "type": "address"
        }
      ],
      "name": "isApprovedForAll",
      "outputs": [
        {
          "internalType": "bool",
          "name": "",
          "type": "bool"
        }
      ],
      "stateMutability": "view",
      "type": "function"
    },
    {
      "inputs": [
        {
          "internalType": "uint256",
          "name": "badgeId",
          "type": "uint256"
        }
      ],
      "name": "isClaimable",
      "outputs": [
        {
          "internalType": "bool",
          "name": "",
          "type": "bool"
        }
      ],
      "stateMutability": "view",
      "type": "function"
    },
    {
      "inputs": [
        {
          "internalType": "uint256",
          "name": "badgeId",
          "type": "uint256"
        }
      ],
      "name": "isExpired",
      "outputs": [
        {
          "internalType": "bool",
          "name": "",
          "type": "bool"
        }
      ],
      "stateMutability": "view",
      "type": "function"
    },
    {
      "inputs": [
        {
          "internalType": "uint256",
          "name": "badgeModelId",
          "type": "uint256"
        },
        {
          "internalType": "address",
          "name": "account",
          "type": "address"
        },
        {
          "internalType": "string",
          "name": "tokenURI",
          "type": "string"
        },
        {
          "internalType": "bytes",
          "name": "data",
          "type": "bytes"
        }
      ],
      "name": "mint",
      "outputs": [],
      "stateMutability": "payable",
      "type": "function"
    },
    {
      "inputs": [
        {
          "internalType": "uint256[]",
          "name": "badgeModelIds",
          "type": "uint256[]"
        },
        {
          "internalType": "address[]",
          "name": "recipients",
          "type": "address[]"
        },
        {
          "internalType": "string[]",
          "name": "tokenURIs",
          "type": "string[]"
        },
        {
          "internalType": "bytes[]",
          "name": "data",
          "type": "bytes[]"
        }
      ],
      "name": "mintInBatch",
      "outputs": [],
      "stateMutability": "payable",
      "type": "function"
    },
    {
      "inputs": [
        {
          "internalType": "uint256",
          "name": "badgeModelId",
          "type": "uint256"
        }
      ],
      "name": "mintValue",
      "outputs": [
        {
          "internalType": "uint256",
          "name": "",
          "type": "uint256"
        }
      ],
      "stateMutability": "view",
      "type": "function"
    },
    {
      "inputs": [],
      "name": "name",
      "outputs": [
        {
          "internalType": "string",
          "name": "",
          "type": "string"
        }
      ],
      "stateMutability": "view",
      "type": "function"
    },
    {
      "inputs": [],
      "name": "pause",
      "outputs": [],
      "stateMutability": "nonpayable",
      "type": "function"
    },
    {
      "inputs": [],
      "name": "paused",
      "outputs": [
        {
          "internalType": "bool",
          "name": "",
          "type": "bool"
        }
      ],
      "stateMutability": "view",
      "type": "function"
    },
    {
      "inputs": [],
      "name": "proxiableUUID",
      "outputs": [
        {
          "internalType": "bytes32",
          "name": "",
          "type": "bytes32"
        }
      ],
      "stateMutability": "view",
      "type": "function"
    },
    {
      "inputs": [
        {
          "internalType": "uint256",
          "name": "badgeId",
          "type": "uint256"
        },
        {
          "internalType": "bytes",
          "name": "data",
          "type": "bytes"
        }
      ],
      "name": "removeItem",
      "outputs": [],
      "stateMutability": "payable",
      "type": "function"
    },
    {
      "inputs": [
        {
          "internalType": "bytes32",
          "name": "role",
          "type": "bytes32"
        },
        {
          "internalType": "address",
          "name": "callerConfirmation",
          "type": "address"
        }
      ],
      "name": "renounceRole",
      "outputs": [],
      "stateMutability": "nonpayable",
      "type": "function"
    },
    {
      "inputs": [
        {
          "internalType": "bytes32",
          "name": "role",
          "type": "bytes32"
        },
        {
          "internalType": "address",
          "name": "account",
          "type": "address"
        }
      ],
      "name": "revokeRole",
      "outputs": [],
      "stateMutability": "nonpayable",
      "type": "function"
    },
    {
      "inputs": [
        {
          "internalType": "address",
          "name": "from",
          "type": "address"
        },
        {
          "internalType": "address",
          "name": "to",
          "type": "address"
        },
        {
          "internalType": "uint256[]",
          "name": "ids",
          "type": "uint256[]"
        },
        {
          "internalType": "uint256[]",
          "name": "values",
          "type": "uint256[]"
        },
        {
          "internalType": "bytes",
          "name": "data",
          "type": "bytes"
        }
      ],
      "name": "safeBatchTransferFrom",
      "outputs": [],
      "stateMutability": "nonpayable",
      "type": "function"
    },
    {
      "inputs": [
        {
          "internalType": "address",
          "name": "from",
          "type": "address"
        },
        {
          "internalType": "address",
          "name": "to",
          "type": "address"
        },
        {
          "internalType": "uint256",
          "name": "id",
          "type": "uint256"
        },
        {
          "internalType": "uint256",
          "name": "value",
          "type": "uint256"
        },
        {
          "internalType": "bytes",
          "name": "data",
          "type": "bytes"
        }
      ],
      "name": "safeTransferFrom",
      "outputs": [],
      "stateMutability": "nonpayable",
      "type": "function"
    },
    {
      "inputs": [
        {
          "internalType": "address",
          "name": "operator",
          "type": "address"
        },
        {
          "internalType": "bool",
          "name": "approved",
          "type": "bool"
        }
      ],
      "name": "setApprovalForAll",
      "outputs": [],
      "stateMutability": "nonpayable",
      "type": "function"
    },
    {
      "inputs": [
        {
          "internalType": "uint256",
          "name": "badgeId",
          "type": "uint256"
        },
        {
          "internalType": "bytes",
          "name": "data",
          "type": "bytes"
        }
      ],
      "name": "submitEvidence",
      "outputs": [],
      "stateMutability": "nonpayable",
      "type": "function"
    },
    {
      "inputs": [
        {
          "internalType": "bytes4",
          "name": "interfaceId",
          "type": "bytes4"
        }
      ],
      "name": "supportsInterface",
      "outputs": [
        {
          "internalType": "bool",
          "name": "",
          "type": "bool"
        }
      ],
      "stateMutability": "view",
      "type": "function"
    },
    {
      "inputs": [],
      "name": "symbol",
      "outputs": [
        {
          "internalType": "string",
          "name": "",
          "type": "string"
        }
      ],
      "stateMutability": "view",
      "type": "function"
    },
    {
      "inputs": [],
      "name": "unpause",
      "outputs": [],
      "stateMutability": "nonpayable",
      "type": "function"
    },
    {
      "inputs": [
        {
          "internalType": "uint256",
          "name": "_claimProtocolFee",
          "type": "uint256"
        }
      ],
      "name": "updateClaimBadgeProtocolFee",
      "outputs": [],
      "stateMutability": "nonpayable",
      "type": "function"
    },
    {
      "inputs": [
        {
          "internalType": "uint256",
          "name": "_createBadgeModelValue",
          "type": "uint256"
        }
      ],
      "name": "updateCreateBadgeModelProtocolFee",
      "outputs": [],
      "stateMutability": "nonpayable",
      "type": "function"
    },
    {
      "inputs": [
        {
          "internalType": "uint256",
          "name": "_mintBadgeDefaultFee",
          "type": "uint256"
        }
      ],
      "name": "updateMintBadgeDefaultProtocolFee",
      "outputs": [],
      "stateMutability": "nonpayable",
      "type": "function"
    },
    {
      "inputs": [
        {
          "internalType": "address",
          "name": "newImplementation",
          "type": "address"
        },
        {
          "internalType": "bytes",
          "name": "data",
          "type": "bytes"
        }
      ],
      "name": "upgradeToAndCall",
      "outputs": [],
      "stateMutability": "payable",
      "type": "function"
    },
    {
      "inputs": [
        {
          "internalType": "uint256",
          "name": "badgeId",
          "type": "uint256"
        }
      ],
      "name": "uri",
      "outputs": [
        {
          "internalType": "string",
          "name": "",
          "type": "string"
        }
      ],
      "stateMutability": "view",
      "type": "function"
    },
    {
      "stateMutability": "payable",
      "type": "receive"
    }
  ],
  "bytecode": "0x60a08060405234620000d157306080527ff0c57e16840df040f15088dc2f81fe391c3923bec73e23a9662efc9c229c6a009081549060ff8260401c16620000c257506001600160401b036002600160401b0319828216016200007c575b604051614def9081620000d6823960805181818161120c01526113400152f35b6001600160401b031990911681179091556040519081527fc7f505b2f371ae2175ee4913f4499e1f2633a7b5936321eed1cdaeb6115181d290602090a15f80806200005c565b63f92ee8a960e01b8152600490fd5b5f80fdfe6080604052600436101561001a575b3615610018575f80fd5b005b5f3560e01c8062fdd58e146102f857806301ffc9a7146102f357806306fdde03146102ee5780630e89341c146102e957806319b50c2a146102e4578063248a9ca3146102df5780632eb2c2d6146102da5780632f2ff15d146102d557806336568abe146102d057806338926b6d146102cb5780633f4ba83a146102c657806346c45758146102c15780634b0767d2146102bc5780634e1273f4146102b75780634f1ef286146102b257806352d1902d146102ad5780635c975abb146102a8578063632f7c83146102a35780637eb7f1761461029e5780637f345710146102995780638456cb5914610294578063892b4f491461028f57806389610a091461028a57806391d1485414610285578063921e90721461028057806393c7a71b1461027b57806395d89b41146102765780639faf715814610271578063a03aafbf1461026c578063a217fddf14610267578063a22cb46514610262578063a41e35c31461025d578063ad3cb1cc14610258578063c0c53b8b14610253578063c1d188401461024e578063c5a3c7ca14610249578063d547741f14610244578063d7deba151461023f578063d9548e531461023a578063e181865114610235578063e63ab1e914610230578063e7705db61461022b578063e985e9c514610226578063f242432a14610221578063f72c0d8b1461021c5763fc5f18d30361000e57612312565b6122eb565b6121d4565b61219b565b612161565b61213a565b6120ce565b6120a6565b611ffd565b611fb1565b611f45565b611ec3565b611d7e565b611d39565b611cff565b611cc6565b611ca2565b611c06565b611b56565b611ab3565b61198d565b6118a4565b6117c6565b61160c565b6115e4565b61157f565b611545565b6113e3565b6113c5565b611397565b61132e565b6111ca565b6110d3565b610fa8565b610f7d565b610f08565b610adf565b610a48565b6109fc565b6108ca565b61077c565b610755565b610722565b610643565b610357565b610312565b6001600160a01b0381160361030e57565b5f80fd5b3461030e57604036600319011261030e57602061033d600435610334816102fd565b60243590614123565b604051908152f35b6001600160e01b031981160361030e57565b3461030e57602036600319011261030e57602060043561037681610345565b63ffffffff60e01b16637965db0b60e01b811490811561039c575b506040519015158152f35b636cdb3d1360e11b8114915081156103ce575b81156103bd575b505f610391565b6301ffc9a760e01b1490505f6103b6565b6303a24d0760e21b811491506103af565b5f91031261030e57565b90600182811c92168015610417575b602083101461040357565b634e487b7160e01b5f52602260045260245ffd5b91607f16916103f8565b634e487b7160e01b5f52604160045260245ffd5b6001600160401b03811161044857604052565b610421565b60a081019081106001600160401b0382111761044857604052565b604081019081106001600160401b0382111761044857604052565b602081019081106001600160401b0382111761044857604052565b90601f801991011681019081106001600160401b0382111761044857604052565b604051905f825f80516020614d7a833981519152918254926104e0846103e9565b9081845260019485811690815f1461054b575060011461050b575b50506105099250038361049e565b565b909391505f52602090815f20935f915b81831061053357505061050993508201015f806104fb565b8554888401850152948501948794509183019161051b565b91505061050994506020925060ff191682840152151560051b8201015f806104fb565b9060405191825f825492610581846103e9565b9081845260019485811690815f1461054b57506001146105a95750506105099250038361049e565b909391505f52602090815f20935f915b8183106105d157505061050993508201015f806104fb565b855488840185015294850194879450918301916105b9565b5f5b8381106105fa5750505f910152565b81810151838201526020016105eb565b90602091610623815180928185528580860191016105e9565b601f01601f1916010190565b90602061064092818152019061060a565b90565b3461030e575f8060031936011261071f5760405181600254610664816103e9565b808452906001908181169081156106f7575060011461069e575b61069a8461068e8188038261049e565b6040519182918261062f565b0390f35b60028352602094507f405787fa12a823e0f2b7631cc41b3ba8828b3321ca811111fa75cd3aa3bb5ace5b8284106106e4575050508161069a9361068e928201019361067e565b80548585018701529285019281016106c8565b61069a965061068e9450602092508593915060ff191682840152151560051b8201019361067e565b80fd5b3461030e57602036600319011261030e5761069a6107416004356148c5565b60405191829160208352602083019061060a565b3461030e575f36600319011261030e575f546040516001600160a01b039091168152602090f35b3461030e57602036600319011261030e576004355f525f80516020614cfa8339815191526020526020600160405f200154604051908152f35b6040519061016082018281106001600160401b0382111761044857604052565b60405190608082018281106001600160401b0382111761044857604052565b6001600160401b0381116104485760051b60200190565b81601f8201121561030e57803591610822836107f4565b92610830604051948561049e565b808452602092838086019260051b82010192831161030e578301905b82821061085a575050505090565b8135815290830190830161084c565b6001600160401b03811161044857601f01601f191660200190565b81601f8201121561030e5780359061089b82610869565b926108a9604051948561049e565b8284526020838301011161030e57815f926020809301838601378301015290565b3461030e5760a036600319011261030e57600480356108e8816102fd565b6024356108f4816102fd565b6001600160401b039060443582811161030e57610914903690860161080b565b9060643583811161030e5761092c903690870161080b565b9260843590811161030e576109449036908701610884565b936001600160a01b038082169033821415806109cf575b6109a25783161561098b5715610975576100189550612856565b604051626a0d4560e21b81525f81880152602490fd5b604051632bfa23e760e11b81525f81890152602490fd5b6040805163711bec9160e11b815233818b019081526001600160a01b038616602082015290918291010390fd5b5060ff6109f4336109df86612379565b9060018060a01b03165f5260205260405f2090565b54161561095b565b3461030e57604036600319011261030e57610018602435600435610a1f826102fd565b805f525f80516020614cfa833981519152602052610a43600160405f2001546124b3565b612720565b3461030e57604036600319011261030e57602435610a65816102fd565b336001600160a01b03821603610a815761001890600435612758565b60405163334bd91960e11b8152600490fd5b604060031982011261030e57600435916024356001600160401b039283821161030e578060238301121561030e57816004013593841161030e576024848301011161030e576024019190565b3461030e57610aed36610a93565b91610af78161463b565b905f93610b19610b0d865460018060a01b031690565b6001600160a01b031690565b6040805163f2be2c8560e01b815260048082019690965294908786602481865afa928315610db257610b6e968994610ee4575b506020906060828601518451809a8192631c2e21b960e11b835288830161062f565b0381845afa978815610db2578a98610eb4575b506080835180926346c1c31160e11b82528180610ba58c8a83019190602083019252565b03915afa908115610db2578a91610e86575b508751610bcc906001600160a01b0316610b0d565b95610bda6060830151151590565b15610e765783516389610a0960e01b81528581018981526001600160a01b039889169291908590829081906020010381865afa908115610db2578d91610e59575b5015610e4957828401518c906001600160a01b03169a898c1615610e37575b509084918a9b9c88999a9b610c6489519b8c9586948594634e35cfc560e11b865233938601613e6a565b0391855af1958615610db2578b96610e01575b50828460808798990151930151918551968780926369922f9360e11b82525afa918215610db2578b95610cb2948794610dd2575b50506140b3565b8254610cc6906001600160a01b0316610b0d565b90813b15610dce57825163b2e92c9360e01b815285810189815260208101929092529391849182908490829060400103925af1918215610db2578892610dbb575b508154610d1c906001600160a01b0316610b0d565b803b15610db7579051630a5f1ec560e01b81529283018681526001600160a01b0380891660208301528516604082015292939284919082908490829060600103925af1918215610db2578392610d99575b50169216907f709d8d0348769d1caf88951a6bb5c48cdf1340f402b1db82922b3ce6126841258480a480f35b80610da6610dac92610435565b806103df565b5f610d6d565b6127fc565b8280fd5b80610da6610dc892610435565b5f610d07565b8380fd5b610df2929450803d10610dfa575b610dea818361049e565b810190613723565b915f80610cab565b503d610de0565b859650846080610e278693843d8611610e30575b610e1f818361049e565b810190613e55565b98505050610c77565b503d610e15565b516001600160a01b03169a5084610c3a565b8451632edd9d0f60e21b81528690fd5b610e709150853d8711610dfa57610dea818361049e565b5f610c1b565b50505051632edd9d0f60e21b8152fd5b610ea7915060803d8111610ead575b610e9f818361049e565b810190613df5565b5f610bb7565b503d610e95565b610ed691985060603d8111610edd575b610ece818361049e565b8101906132bc565b965f610b81565b503d610ec4565b610f019194503d808b833e610ef9818361049e565b8101906131d5565b925f610b4c565b3461030e575f36600319011261030e57610f206123b1565b5f80516020614d1a833981519152805460ff811615610f6b5760ff191690557f5db9ee0a495bf2e6ff9c91a7834c1ba4fdd244a5e8aa4e537bd38aeae4b073aa6020604051338152a1005b604051638dfc202b60e01b8152600490fd5b3461030e57604036600319011261030e57602061033d600435610f9f816102fd565b6024359061436e565b3461030e575f602036600319011261071f57610fc2612419565b805481906001600160a01b0316803b15611024578190602460405180948193632583b3e960e11b835260043560048401525af18015610db257611015575b505f80516020614d9a8339815191528180a180f35b61101e90610435565b5f611000565b50fd5b81601f8201121561030e5780359161103e836107f4565b9261104c604051948561049e565b808452602092838086019260051b82010192831161030e578301905b828210611076575050505090565b8380918335611084816102fd565b815201910190611068565b9081518082526020808093019301915f5b8281106110ae575050505090565b8351855293810193928101926001016110a0565b90602061064092818152019061108f565b3461030e57604036600319011261030e576001600160401b0360043581811161030e57611104903690600401611027565b9060243590811161030e5761111d90369060040161080b565b90805182518082036111a8575050805191611137836107f4565b92611145604051948561049e565b808452611154601f19916107f4565b0160209036828601375f5b835181101561119a57806111856111959260051b84808289010151918701015190614123565b61118f828861282e565b5261281b565b61115f565b6040518061069a87826110c2565b604051635b05999160e01b815260048101919091526024810191909152604490fd5b604036600319011261030e5760048035906111e4826102fd565b6024356001600160401b03811161030e576112029036908301610884565b6001600160a01b037f00000000000000000000000000000000000000000000000000000000000000008116308114908115611313575b5061130257906020839261124a61246f565b6040516352d1902d60e01b8152938491829088165afa5f92816112d2575b50611296575050604051634c9c8ce360e01b81526001600160a01b0390921690820190815281906020010390fd5b83835f80516020614cba83398151915284036112b6576100188383612c63565b604051632a87526960e21b815290810184815281906020010390fd5b6112f491935060203d81116112fb575b6112ec818361049e565b8101906127ed565b915f611268565b503d6112e2565b60405163703e46dd60e11b81528390fd5b9050815f80516020614cba833981519152541614155f611238565b3461030e575f36600319011261030e577f00000000000000000000000000000000000000000000000000000000000000006001600160a01b031630036113855760206040515f80516020614cba8339815191528152f35b60405163703e46dd60e11b8152600490fd5b3461030e575f36600319011261030e57602060ff5f80516020614d1a83398151915254166040519015158152f35b3461030e57602036600319011261030e57602061033d600435614737565b3461030e57602036600319011261030e5760043561143e6114038261463b565b5f805490939190849061141e906001600160a01b0316610b0d565b916040518095819263f2be2c8560e01b8352600483019190602083019252565b0381845afa908115610db257602060609261147995879161152b575b500151906040518080968194631c2e21b960e11b83526004830161062f565b03915afa908115610db2576114a9610b0d610b0d6020946114c996889161150d575b50516001600160a01b031690565b6040518080958194633f5bf8bb60e11b8352600483019190602083019252565b03915afa908115610db25761069a92916114ef575b506040519081529081906020820190565b611507915060203d81116112fb576112ec818361049e565b5f6114de565b611525915060603d8111610edd57610ece818361049e565b5f61149b565b61153f91503d8089833e610ef9818361049e565b5f61145a565b3461030e575f36600319011261030e5760206040517f7804d923f43a17d325d77e781528e0793b2edd9890ab45fc64efd7b4b427744c8152f35b3461030e575f36600319011261030e576115976123b1565b61159f6140f9565b5f80516020614d1a833981519152600160ff198254161790557f62e78cea01bee320cd4e420270b5ea74000d11b0c9f74754ebdbfc544b05a2586020604051338152a1005b3461030e575f36600319011261030e576001546040516001600160a01b039091168152602090f35b3461030e57602036600319011261030e575f805460049190823590611639906001600160a01b0316610b0d565b9260409182516346c1c31160e11b81526080818061165e858783019190602083019252565b0381895afa908115610db2576116809160609187916117a8575b500151151590565b156117995783946116b1946116948361463b565b85518097819263f2be2c8560e01b83528783019190602083019252565b0381845afa908115610db25760206060926116ea97899161177f575b5001519085518080988194631c2e21b960e11b835288830161062f565b03915afa918215610db257611719610b0d610b0d602095611739988a9161150d5750516001600160a01b031690565b84516389610a0960e01b8152918201928352909485928391829160200190565b03915afa918215610db25761069a939261175f575b505190151581529081906020820190565b61177891925060203d8111610dfa57610dea818361049e565b905f61174e565b61179391503d808b833e610ef9818361049e565b5f6116cd565b509051632edd9d0f60e21b8152fd5b6117c0915060803d8111610ead57610e9f818361049e565b5f611678565b3461030e57604036600319011261030e57602060ff6118186024356117ea816102fd565b6004355f525f80516020614cfa833981519152845260405f209060018060a01b03165f5260205260405f2090565b54166040519015158152f35b9080601f8301121561030e5781359061183c826107f4565b9261184a604051948561049e565b828452602092838086019160051b8301019280841161030e57848301915b8483106118785750505050505090565b82356001600160401b03811161030e57869161189984848094890101610884565b815201920191611868565b608036600319011261030e576001600160401b0360043581811161030e576118d090369060040161080b565b6024803583811161030e576118e9903690600401611027565b60443584811161030e573660238201121561030e5780600401359061190d826107f4565b9361191b604051958661049e565b828552602092818487019160051b8401019236841161030e57828101915b8483106119675750505050505060643593841161030e57611961610018943690600401611824565b926135af565b82358a811161030e5786916119828392873691870101610884565b815201920191611939565b3461030e576119e561199e36610a93565b9290916119aa8161463b565b5f80549095919086906119c5906001600160a01b0316610b0d565b916040518096819263f2be2c8560e01b8352600483019190602083019252565b0381845afa908115610db2576020606092611a20968991611a99575b500151906040518080978194631c2e21b960e11b83526004830161062f565b03915afa928315610db257610b0d610b0d8795611a4b93879161150d5750516001600160a01b031690565b90813b15610dce5783611a779560405196879586948593636c5f71ab60e11b8552339260048601613e6a565b03925af18015610db257611a89575080f35b80610da6611a9692610435565b80f35b611aad91503d808b833e610ef9818361049e565b5f611a01565b3461030e575f8060031936011261071f5760405181600354611ad4816103e9565b808452906001908181169081156106f75750600114611afd5761069a8461068e8188038261049e565b60038352602094507fc2575a0e9e593c00f959f8c92f12db2869c3395a3b0502d05e2516446f71f85b5b828410611b43575050508161069a9361068e928201019361067e565b8054858501870152928501928101611b27565b611b6261199e36610a93565b0381845afa908115610db2576020606092611b9c968991611a9957500151906040518080978194631c2e21b960e11b83526004830161062f565b03915afa928315610db257610b0d610b0d8795611bc793879161150d5750516001600160a01b031690565b90813b15610dce57611bf29460405195869485938493630c39ed6960e31b8552339260048601613e6a565b039134905af18015610db257611a89575080f35b611c1261199e36610a93565b0381845afa908115610db2576020606092611c4c968991611a9957500151906040518080978194631c2e21b960e11b83526004830161062f565b03915afa928315610db257610b0d610b0d8795611c7793879161150d5750516001600160a01b031690565b90813b15610dce57611bf29460405195869485938493631a04a52d60e21b8552339260048601613e6a565b3461030e575f36600319011261030e5760206040515f8152f35b8015150361030e57565b3461030e57604036600319011261030e57611ce26004356102fd565b611ced602435611cbc565b6040516305d39ac360e51b8152600490fd5b3461030e575f36600319011261030e5760206040517fcbaaf41b181bb6e269c490e876a7c97711b57e21dd8e5528423cf57579726b358152f35b3461030e575f36600319011261030e5761069a604051611d5881610468565b60058152640352e302e360dc1b602082015260405191829160208352602083019061060a565b3461030e57606036600319011261030e57600435611d9b816102fd565b60243590611da8826102fd565b604435611db4816102fd565b5f80516020614d5a83398151915254926001600160401b0360ff8560401c1615941680159081611ebb575b6001149081611eb1575b159081611ea8575b50611e96575f80516020614d5a833981519152805467ffffffffffffffff19166001179055611e249284611e7257612ee9565b611e2a57005b5f80516020614d5a833981519152805460ff60401b19169055604051600181527fc7f505b2f371ae2175ee4913f4499e1f2633a7b5936321eed1cdaeb6115181d290602090a1005b5f80516020614d5a833981519152805460ff60401b1916600160401b179055612ee9565b60405163f92ee8a960e01b8152600490fd5b9050155f611df1565b303b159150611de9565b859150611ddf565b608036600319011261030e57602435600435611ede826102fd565b6001600160401b039160443583811161030e57611eff903690600401610884565b9060643593841161030e57611f1b611f32943690600401610884565b92611f25816133b4565b611f2d61314e565b613790565b60015f80516020614d3a83398151915255005b3461030e575f602036600319011261071f57611f5f612419565b805481906001600160a01b0316803b156110245781906024604051809481936362d1e3e560e11b835260043560048401525af18015610db25761101557505f80516020614d9a8339815191528180a180f35b3461030e57604036600319011261030e57610018602435600435611fd4826102fd565b805f525f80516020614cfa833981519152602052611ff8600160405f2001546124b3565b612758565b3461030e57602036600319011261030e5760043561201d6114038261463b565b0381845afa908115610db257602060609261205795879161152b57500151906040518080968194631c2e21b960e11b83526004830161062f565b03915afa908115610db257612086610b0d610b0d6020946114c996889161150d5750516001600160a01b031690565b604051808095819463d7deba1560e01b8352600483019190602083019252565b3461030e57602036600319011261030e5760206120c4600435614560565b6040519015158152f35b3461030e575f602036600319011261071f576120e8612419565b805481906001600160a01b0316803b1561102457819060246040518094819363e181865160e01b835260043560048401525af18015610db25761101557505f80516020614d9a8339815191528180a180f35b3461030e575f36600319011261030e5760206040515f80516020614cda8339815191528152f35b3461030e575f36600319011261030e5760206040517f0ce23c3e399818cfee81a7ab0880f714e53d7672b08df0fa62f2843416e1ea098152f35b3461030e57604036600319011261030e57602060ff6118186004356121bf816102fd565b6109df602435916121cf836102fd565b612379565b3461030e5760a036600319011261030e576004356121f1816102fd565b6024356121fd816102fd565b6084356001600160401b03811161030e5761221c903690600401610884565b906001600160a01b038381169033821415806122d3575b6122ac57821615612294571561227d57610018926122756064356044359160405192600184526020840152604083019160018352606084015260808301604052565b929091612856565b604051626a0d4560e21b81525f6004820152602490fd5b604051632bfa23e760e11b81525f6004820152602490fd5b60405163711bec9160e11b81523360048201526001600160a01b0386166024820152604490fd5b5060ff6122e3336109df88612379565b541615612233565b3461030e575f36600319011261030e5760206040515f80516020614c9a8339815191528152f35b3461030e575f36600319011261030e5760206040517f11a8cb5a02bd6c42679835e867ef2118ba78f088f8300511420c6603c21d9c788152f35b5f527f88be536d5240c274a3b1d3a1be54482fd9caa294f08c62a7cde569f49a3c450060205260405f2090565b6001600160a01b03165f9081527f88be536d5240c274a3b1d3a1be54482fd9caa294f08c62a7cde569f49a3c45016020526040902090565b335f9081527f75442b0a96088b5456bc4ed01394c96a4feec0f883c9494257d76b96ab1c9b6b602052604090205f80516020614cda8339815191529060ff905b5416156123fb5750565b6044906040519063e2517d3f60e01b82523360048301526024820152fd5b335f9081527fb7db2dd08fcb62d0c9e08c51941cae53c267786a0b75803fb7960902fc8ef97d602052604090205460ff161561245157565b60405163e2517d3f60e01b81523360048201525f6024820152604490fd5b335f9081527fab71e3f32666744d246edff3f96e4bdafee2e9867098cdd118a979a7464786a8602052604090205f80516020614c9a8339815191529060ff906123f1565b5f8181525f80516020614cfa83398151915260209081526040808320338452909152902060ff906123f1565b6001600160a01b0381165f9081527fb7db2dd08fcb62d0c9e08c51941cae53c267786a0b75803fb7960902fc8ef97d60205260408120545f80516020614cfa8339815191529060ff1661258b57818052602090815260408083206001600160a01b0385165f90815292529020805460ff1916600117905533916001600160a01b0316907f2f8788117e7eff1d82e926ec794901d17c78024a50270940304540a733656f0d8180a4600190565b50905090565b6001600160a01b0381165f9081527f75442b0a96088b5456bc4ed01394c96a4feec0f883c9494257d76b96ab1c9b6b602052604081205f80516020614cda833981519152905f80516020614cfa8339815191529060ff905b541661264e57818352602090815260408084206001600160a01b0386165f90815292529020805460ff1916600117905533926001600160a01b0316917f2f8788117e7eff1d82e926ec794901d17c78024a50270940304540a733656f0d9080a4600190565b5050905090565b6001600160a01b0381165f9081527fab71e3f32666744d246edff3f96e4bdafee2e9867098cdd118a979a7464786a8602052604081205f80516020614c9a833981519152905f80516020614cfa8339815191529060ff906125e9565b6001600160a01b0381165f9081527fd56b761303e15a4cbea84f37eba80a5289f49fda0b4884e30ac1d73eb9b8b143602052604081207f0ce23c3e399818cfee81a7ab0880f714e53d7672b08df0fa62f2843416e1ea09905f80516020614cfa8339815191529060ff906125e9565b5f8181525f80516020614cfa833981519152602081815260408084206001600160a01b0387168552909152822091929160ff906125e9565b5f8181525f80516020614cfa833981519152602081815260408084206001600160a01b038716855290915282205491929160ff161561264e57818352602090815260408084206001600160a01b0386165f90815292529020805460ff1916905533926001600160a01b0316917ff6391f5c32d9c69d2a47ea670b442974b53935d1edc7fd64eb21e047a839171b9080a4600190565b9081602091031261030e575190565b6040513d5f823e3d90fd5b634e487b7160e01b5f52601160045260245ffd5b5f1981146128295760010190565b612807565b80518210156128425760209160051b010190565b634e487b7160e01b5f52603260045260245ffd5b919392906128626140f9565b5f54612876906001600160a01b0316610b0d565b6040516301719d2b60e01b81526001600160a01b038516600482015290606090829060249082905afa908115610db2575f91612926575b506001600160a01b039084821615159081612919575b50611ced576128d483878487614b0f565b81166128e2575b5050505050565b8451600103612908576020806128fe9601519201519233612ae3565b5f808080806128db565b61291494919233612c2c565b6128fe565b604001511590505f6128c3565b61293e915060603d8111610edd57610ece818361049e565b5f6128ad565b9081602091031261030e575161064081610345565b909260a0926106409594600180861b031683525f602084015260408301526060820152816080820152019061060a565b919261064095949160a094600180871b03809216855216602084015260408301526060820152816080820152019061060a565b3d156129e6573d906129cd82610869565b916129db604051938461049e565b82523d5f602084013e565b606090565b9293919093843b6129fd575050505050565b602091612a20604051948593849363f23a6e6160e01b9889865260048601612959565b03815f6001600160a01b0388165af15f9181612ab3575b50612a765782612a456129bc565b8051919082612a6f57604051632bfa23e760e11b81526001600160a01b0383166004820152602490fd5b9050602001fd5b6001600160e01b03191603612a9057505f808080806128db565b604051632bfa23e760e11b81526001600160a01b03919091166004820152602490fd5b612ad591925060203d8111612adc575b612acd818361049e565b810190612944565b905f612a37565b503d612ac3565b939290949194853b612af8575b505050505050565b612b1b602093604051958694859463f23a6e6160e01b998a875260048701612989565b03815f6001600160a01b0388165af15f9181612b5b575b50612b405782612a456129bc565b6001600160e01b03191603612a9057505f8080808080612af0565b612b7491925060203d8111612adc57612acd818361049e565b905f612b32565b92612ba96106409593612bb79360018060a01b031686525f602087015260a0604087015260a086019061108f565b90848203606086015261108f565b91608081840391015261060a565b93906106409593612ba991612bb79460018060a01b03809216885216602087015260a0604087015260a086019061108f565b9293919093843b612c09575050505050565b602091612a20604051948593849363bc197c8160e01b9889865260048601612b7b565b939290949194853b612c4057505050505050565b612b1b602093604051958694859463bc197c8160e01b998a875260048701612bc5565b90813b15612ce7575f80516020614cba83398151915280546001600160a01b0319166001600160a01b0384169081179091557fbc7cd75a20ee27fd9adebab32041f755214dbc6bffa90cc0225b39da2e5c2d3b5f80a2805115612ccc57612cc991612d08565b50565b505034612cd557565b60405163b398979f60e01b8152600490fd5b604051634c9c8ce360e01b81526001600160a01b0383166004820152602490fd5b5f8061064093602081519101845af4612d1f6129bc565b9190612d475750805115612d3557805190602001fd5b604051630a12f52160e11b8152600490fd5b81511580612d7a575b612d58575090565b604051639996b31560e01b81526001600160a01b039091166004820152602490fd5b50803b15612d50565b818110612d8e575050565b5f8155600101612d83565b90601f8211612da6575050565b610509915f80516020614d7a8339815191525f5260205f20906020601f840160051c83019310612dde575b601f0160051c0190612d83565b9091508190612dd1565b9190601f8111612df757505050565b610509925f5260205f20906020601f840160051c83019310612dde57601f0160051c0190612d83565b612e2b6002546103e9565b601f8111612e49575b50601067546865426164676560c01b01600255565b60025f52612e8190601f0160051c7f405787fa12a823e0f2b7631cc41b3ba8828b3321ca811111fa75cd3aa3bb5ace90810190612d83565b5f612e34565b612e926003546103e9565b601f8111612eab575b506006621091d160ea1b01600355565b60035f52612ee390601f0160051c7fc2575a0e9e593c00f959f8c92f12db2869c3395a3b0502d05e2516446f71f85b90810190612d83565b5f612e9b565b9060405192612ef784610483565b5f93848152612f046130f8565b612f0c6130f8565b80516001600160401b038111610448575f80516020614d7a83398151915291612f3e82612f3985546103e9565b612d99565b60209081601f841160011461303d57509282612ffa96937f36b1453565f45af7b509b59d5e2eac8f1948ea9e3e193db6663b4101afb6382c98969361301c968b92613032575b50508160011b915f199060031b1c19161790555b612fa06130f8565b612fa8613126565b612fb06130f8565b612fb9846124df565b50612fc384612591565b50612fcd84612655565b50612fd7846126b1565b505f80546001600160a01b0319166001600160a01b039384161790559093849190565b60018054919092166001600160a01b03166001600160a01b0319909116179055565b613024612e20565b61302c612e87565b169180a2565b015190505f80612f84565b5f80516020614d7a8339815191525f529190601f1984167ff429cb5e2ec84cbb765e76b31964a56ccde03e7a6122d6cc4afb19edc55edeed938a905b8282106130e0575050937f36b1453565f45af7b509b59d5e2eac8f1948ea9e3e193db6663b4101afb6382c98969361301c969360019383612ffa9b98106130c8575b505050811b019055612f98565b01515f1960f88460031b161c191690555f80806130bb565b80600186978294978701518155019601940190613079565b60ff5f80516020614d5a8339815191525460401c161561311457565b604051631afcd79f60e31b8152600490fd5b61312e6130f8565b6131366130f8565b5f80516020614d1a833981519152805460ff19169055565b5f80516020614d3a833981519152600281541461316b5760029055565b604051633ee5aeb560e01b8152600490fd5b5190610509826102fd565b81601f8201121561030e57805161319e81610869565b926131ac604051948561049e565b8184526020828401011161030e5761064091602080850191016105e9565b519061050982611cbc565b60208183031261030e5780516001600160401b039182821161030e57016101608184031261030e576132056107b5565b9261320f8261317d565b8452602082015183811161030e5781613229918401613188565b602085015261323a604083016131ca565b6040850152606082015160608501526080820151608085015260a082015160a085015261326960c083016131ca565b60c085015260e082015160e08501526101006132868184016131ca565b908501526101206132988184016131ca565b90850152610140928383015190811161030e576132b59201613188565b9082015290565b9081606091031261030e576040519060608201908282106001600160401b0383111761044857604091825280516132f2816102fd565b8352602081015161330281611cbc565b6020840152015161331281611cbc565b604082015290565b9060208282031261030e5781516001600160401b039283821161030e570160a08183031261030e576040519261334f8461044d565b815190811161030e57608092613366918301613188565b8352602081015161337681611cbc565b6020840152604081015161338981611cbc565b6040840152606081015161339c81611cbc565b606084015201516133ac81611cbc565b608082015290565b5f80546133c9906001600160a01b0316610b0d565b6040805163f2be2c8560e01b81526004808201959095529092918282602481845afa918215610db257839261358c575b50606061341f9160208401519086518080958194631c2e21b960e11b83528b830161062f565b03915afa908115610db257839161356e575b5081516001600160a01b03161561355e578184015161354e5761010082015161353e5761012082015161352e576020015161351f576001546134bf91839161349390613485906001600160a01b0316610b0d565b91516001600160a01b031690565b8551636f77926b60e01b81526001600160a01b0390911687820190815290938492918391829160200190565b03915afa918215610db2576001926134e49282606093926134fc575b50500151151590565b1515146134ef575050565b5163a800bb9d60e01b8152fd5b61351892503d8091833e613510818361049e565b81019061331a565b5f806134db565b505051631bd063c360e01b8152fd5b5050505163598e002360e11b8152fd5b50505051630f0365d360e21b8152fd5b50505051635d71fd6f60e01b8152fd5b505050516385a6706360e01b8152fd5b613586915060603d8111610edd57610ece818361049e565b5f613431565b61341f9192506135a76060913d8087833e610ef9818361049e565b9291506133f9565b929391938351156136f7575f5b84518110156135e657806135dc6135d66135e1938861282e565b516133b4565b61281b565b6135bc565b509091936135f261314e565b835183518114908115916136d7575b506136c5575f93845b81518610156136725761366661366c9161365f613627898661282e565b516136426136358b8b61282e565b516001600160a01b031690565b61364c8b8961282e565b51906136588c8b61282e565b5192613790565b3490613709565b9561281b565b9461360a565b945050505050348111613697575b5061050960015f80516020614d3a83398151915255565b5f80806136a681943490613716565b8181156136bc575b3390f115610db2575f613680565b506108fc6136ae565b60405163fe771c6960e01b8152600490fd5b82518114159150816136eb575b505f613601565b9050825114155f6136e4565b60405163275742e160e11b8152600490fd5b9190820180921161282957565b9190820391821161282957565b9081602091031261030e575161064081611cbc565b9360809361376b929397969760018060a01b0380951687526020870152604086015260a0606086015260a085019061060a565b9416910152565b6040519061377f82610468565b6002825261060f60f31b6020830152565b90928361379c83614737565b3410613be5576137ab83613ed7565b5f80549095906137c3906001600160a01b0316610b0d565b9460409687519463f2be2c8560e01b865260048287806137ea8b8583019190602083019252565b03818c5afa8015610db257613825978491613bcb575b5060209260608c8c86850151915180809d8194631c2e21b960e11b835289830161062f565b03915afa988915610db2578599613bab575b50885161384c906001600160a01b0316610b0d565b9a6001600160a01b03988d908d8d8c83811615613b0d575b5050505084939291869151948580926308e5bf2160e01b82525afa9b8c15610db2578d93879d613ae4575b50925163632f7c8360e01b81528481018c8152938a16938690829081906020015b0381875afa918215610db25789928f8f908f908a958c94613ac1575b506138ed90519687958694859463f6563d5f60e01b86528d33908701613738565b0391875af1968715610db2578c918798613a8d575b50849392613926836139176080948a96613ccb565b61391f613772565b908c613bf7565b0151918d51938480926369922f9360e11b82525afa908115610db257613953928692613a6e575b506140d7565b6139768661395f6107d5565b8b81526001600160a01b0390911694810194909452565b828b0152600160608301528254613995906001600160a01b0316610b0d565b90813b15610dce578a51634085b52760e01b81529081018a815283516020808301919091528401516001600160a01b0316604080830191909152840151606080830191909152909301511515608084015293929184919082908490829060a00103925af18015610db2577f186b125f639893ac3dcb02d857d0fd29319e8f764fd26f4a77310e8c678fbbd095613a5c93613a3b92613a615750516001600160a01b031690565b97516001600160a01b03909816885260208801529116949081906040820190565b0390a4565b80610da661152592610435565b613a86919250853d8711610dfa57610dea818361049e565b905f61394d565b6080919850926139268793613917613ab3899897873d89116112fb576112ec818361049e565b9b9450509350509293613902565b6138ed919450613add90873d89116112fb576112ec818361049e565b93906138cc565b6138b0919d508c8b613b038993843d86116112fb576112ec818361049e565b9f9350505061388f565b899a9b9c50613b4995969798999451809681958294631007fbe560e21b84528d84019092916020906040830194835260018060a01b0316910152565b0392165afa908115610db2578791613b8e575b5015613b7e5788516001600160a01b0316969594939291908c848d8d8c613864565b8b51634dae13df60e01b81528490fd5b613ba59150863d8811610dfa57610dea818361049e565b5f613b5c565b613bc491995060603d8111610edd57610ece818361049e565b975f613837565b613bdf91503d8086833e610ef9818361049e565b5f613800565b6040516393fda7e360e01b8152600490fd5b91906001600160a01b0383161561229457613c31604051916001835260208301526040820190600182526001606084015260808301604052565b90613c3a6140f9565b5f54613c4e906001600160a01b0316610b0d565b6040516301719d2b60e01b81525f600482015290606090829060249082905afa8015610db257613cad575b50613c858282866149ff565b8051600103613ca357906020806105099593015191015191336129eb565b6105099333612bf7565b613cc49060603d8111610edd57610ece818361049e565b505f613c79565b919091805f5260207f89fc852226e759c7c636cf34d732f0198fc56a54876b2374a52beb7b0c558601815260405f20908451906001600160401b03821161044857613d2082613d1a85546103e9565b85612de8565b80601f8311600114613d8a575081929394955f92613d7f575b50508160011b915f199060031b1c19161790555b7f6bb7ff708619ba0610cba295a58592e0451dee2622938c8755667688daf3529b613d7a61068e836148c5565b0390a2565b015190505f80613d39565b90601f19831696613d9e855f5260205f2090565b925f905b898210613ddd5750508360019596979810613dc5575b505050811b019055613d4d565b01515f1960f88460031b161c191690555f8080613db8565b80600185968294968601518155019501930190613da2565b9081608091031261030e576040519060808201908282106001600160401b0383111761044857606091604052805183526020810151613e33816102fd565b6020840152604081015160408401520151613e4d81611cbc565b606082015290565b9081602091031261030e5751610640816102fd565b9280604093608093979697865260606020870152816060870152838601375f828286010152601f80199101168301019360018060a01b0316910152565b909160a092600180851b031682526020820152606060408201526002606082015261060f60f31b60808201520190565b5f805490929190613ef0906001600160a01b0316610b0d565b6040805163f2be2c8560e01b8152600481018490529490918186602481845afa958615610db2578296614097575b50825163e09e589f60e01b8152916020908184600481865afa938415610db2578194614078575b506060880193600483613f6a613f628c60a08a5191015190614602565b809851613716565b958851928380926331056e5760e21b82525afa938415610db2578394614059575b505081808080613fa460018060a01b038816958a613709565b855af1613faf6129bc565b501561404857818791875196877fdf7cc5ebdb7be805a1d96fd982aba37cbf8e9169d6f34870e8d63a62cd492f649889923390613fec9183613ea7565b0390a4875181908190819086906001600160a01b03165af161400c6129bc565b501561403757613a5c61402c610b0d60019798995160018060a01b031690565b945192839283613ea7565b8351633b50281160e11b8152600490fd5b85516372f7724f60e01b8152600490fd5b614070929450803d10610e3057610e1f818361049e565b915f80613f8b565b614090919450823d84116112fb576112ec818361049e565b925f613f45565b6140ac9196503d8084833e610ef9818361049e565b945f613f1e565b9182156140d0576140cb575042018042116128295790565b905090565b5050505f90565b9081156140f3576140e757505f90565b42018042116128295790565b50505f90565b60ff5f80516020614d1a833981519152541661411157565b60405163d93c066560e01b8152600490fd5b5f805490929061413b906001600160a01b0316610b0d565b6040516346c1c31160e11b8152600481018390529092608082602481875afa918215610db25785926142d5575b506060820151159081156142b9575b506142925783600161418884614560565b1515146142b257905160405163f2be2c8560e01b815260048101919091529081602481865afa908115610db2578491614298575b5060016141d56141d0610100840151151590565b151590565b14614292576142019260206060920151906040518080968194631c2e21b960e11b83526004830161062f565b03915afa908115610db257614230610b0d610b0d60209461425096889161150d5750516001600160a01b031690565b6040518080958194631174806160e11b8352600483019190602083019252565b03915afa908115610db2578291614274575b501561426e5750600190565b60ff1690565b61428c915060203d8111610dfa57610dea818361049e565b5f614262565b50505090565b6142ac91503d8086833e610ef9818361049e565b5f6141bc565b5050505090565b60208301516001600160a01b039182169116141590505f614177565b6142ee91925060803d8111610ead57610e9f818361049e565b905f614168565b602090818184031261030e578051906001600160401b03821161030e57019180601f8401121561030e57825161432a816107f4565b93614338604051958661049e565b818552838086019260051b82010192831161030e578301905b82821061435f575050505090565b81518152908301908301614351565b5f80549093929190614388906001600160a01b0316610b0d565b604080516304239ea560e11b815260048082018690526001600160a01b03949094166024820152909590939091908285604481855afa948515610db257839561453c575b5084511561453357865163f2be2c8560e01b815284810191825291908390839081906020010381845afa918215610db2578392614510575b50606061442b916020809401519089518080958194631c2e21b960e11b83528a830161062f565b03915afa908115610db25761445291610b0d91859161150d5750516001600160a01b031690565b8294835b815181101561450557614469818361282e565b51846144776141d083614560565b1591826144a9575b5050614494575b61448f9061281b565b614456565b956144a161448f9161281b565b969050614486565b8b51631174806160e11b815289810191825292508290819060200103816001600160a01b0388165afa908115610db25786916144e8575b50845f61447f565b6144ff9150853d8711610dfa57610dea818361049e565b5f6144e0565b509496505050505050565b61442b91925061452b6060913d8087833e610ef9818361049e565b929150614404565b50909450505050565b6145599195503d8085833e614551818361049e565b8101906142f5565b935f6143cc565b61459a60805f9261457a610b0d855460018060a01b031690565b60405180809581946346c1c31160e11b8352600483019190602083019252565b03915afa908115610db25782916145d1575b506060810151156145cd576040015180156145cd5742106106405750600190565b5090565b6145e9915060803d8111610ead57610e9f818361049e565b5f6145ac565b8181029291811591840414171561282957565b80156140f357612710918261461782846145ef565b1061462957614625916145ef565b0490565b604051633032107560e21b8152600490fd5b5f546146779190608090614657906001600160a01b0316610b0d565b91604051809481926346c1c31160e11b8352600483019190602083019252565b0381845afa918215610db2575f92614717575b5060608201511561470557815160405163f2be2c8560e01b81526004810191909152905f90829060249082905afa908115610db2575f916146ec575b50516001600160a01b0316156146da575190565b6040516385a6706360e01b8152600490fd5b6146ff913d8091833e610ef9818361049e565b5f6146c6565b60405163f97195bf60e01b8152600490fd5b61473091925060803d8111610ead57610e9f818361049e565b905f61468a565b5f805461474c906001600160a01b0316610b0d565b60405163f2be2c8560e01b81526004810184905291908183602481845afa928315610db2578293614892575b506040519263e09e589f60e01b84526020948585600481865afa948515610db2578495614873575b5081516001600160a01b0316156146da5760606147d79387840151906040518080978194631c2e21b960e11b83526004830161062f565b03915afa908115610db257614805610b0d610b0d899461482597899161150d5750516001600160a01b031690565b604051808096819463632f7c8360e01b8352600483019190602083019252565b03915afa918215610db2576106409561484a949361484f575b50506060015190613709565b613709565b6060929350908161486b92903d106112fb576112ec818361049e565b91905f61483e565b61488b919550863d88116112fb576112ec818361049e565b935f6147a0565b6148a79193503d8084833e610ef9818361049e565b915f614778565b906148c1602092828151948592016105e9565b0190565b5f90815260207f89fc852226e759c7c636cf34d732f0198fc56a54876b2374a52beb7b0c55860181526148fa6040832061056e565b8051909190156149cf57604051928391817f89fc852226e759c7c636cf34d732f0198fc56a54876b2374a52beb7b0c558600908154614938816103e9565b926001918083169081156149ac575060011461496f575b505050505061496190610640936148ae565b03601f19810183528261049e565b90918093949550528382205b83831061499657505050820101826149616106405f8061494f565b805488840186015287955091840191810161497b565b60ff19168887015250505050801515028301019050826149616106405f8061494f565b5050506106406104bf565b90916149f16106409360408452604084019061108f565b91602081840391015261108f565b91909182518251908181036111a85750505f5b8351811015614a7357600581901b8481016020908101519185010151614a4c929184906001600160a01b038216614a51575b50505061281b565b614a12565b614a69916109df614a619261234c565b918254613709565b90555f8381614a44565b509160018151145f14614ad1576020908101519181015160408051938452918301526001600160a01b03909216915f9133917fc3d58168c5ae7397731d063d5bbf3d657854427343f4c083240f7aacaa2d0f62919081908101613a5c565b7f4a39dc06d4c0dbc64b70af90fd698a233a518aa5d07e595d983b8c0526c8f7fb613a5c5f939460405191829160018060a01b0316963395836149da565b93929180518351908181036111a85750505f5b8151811015614bf457600581901b82810160209081015191860101516001600160a01b0392918590898516614b83575b614b64948216614b695750505061281b565b614b22565b614b79916109df614a619261234c565b90555f8481614a44565b9192939050614b95896109df8461234c565b54838110614bbd5791869184614b6496959403614bb58c6109df8561234c565b559450614b52565b6040516303dee4c560e01b81526001600160a01b038b16600482015260248101919091526044810184905260648101839052608490fd5b508051939493919291600103614c56576020908101519181015160408051938452918301526001600160a01b03928316939092169133917fc3d58168c5ae7397731d063d5bbf3d657854427343f4c083240f7aacaa2d0f629181908101613a5c565b6040516001600160a01b03938416949093169233927f4a39dc06d4c0dbc64b70af90fd698a233a518aa5d07e595d983b8c0526c8f7fb928291613a5c91836149da56fe189ab7a9244df0848122154315af71fe140f3db0fe014031783b0946b8c9d2e3360894a13ba1a3210667c828492db98dca3e2076cc3735a920a3ca505d382bbc65d7a28e3265b37a6474929f336521b332c1681b933f6cb9f3376673440d862a02dd7bc7dec4dceedda775e58dd541e08a116c6c53815c0bd028192f7b626800cd5ed15c6e187e77e9aee88184c21f4f2182ab5827cb3b7e07fbedcd63f033009b779b17422d0df92223018b32b4d1fa46e071723d6817e2486d003becc55f00f0c57e16840df040f15088dc2f81fe391c3923bec73e23a9662efc9c229c6a0088be536d5240c274a3b1d3a1be54482fd9caa294f08c62a7cde569f49a3c4502810f1720fbc34c56d171f89315ad21708648fd17424c27b88fa208409845aa77a2646970667358221220ae3ad7956a8eb389038331fbf87492eaa57bc05c55030839b160258a88cd244264736f6c63430008140033",
  "linkReferences": {},
  "deployedLinkReferences": {}
}