{
  "_format": "hh-sol-artifact-1",
  "contractName": "TheBadge",
  "sourceName": "src/contracts/thebadge/TheBadge.sol",
  "abi": [
    {
      "inputs": [],
      "stateMutability": "nonpayable",
      "type": "constructor"
    },
    {
      "inputs": [],
      "name": "AccessControlBadConfirmation",
      "type": "error"
    },
    {
      "inputs": [
        {
          "internalType": "address",
          "name": "account",
          "type": "address"
        },
        {
          "internalType": "bytes32",
          "name": "neededRole",
          "type": "bytes32"
        }
      ],
      "name": "AccessControlUnauthorizedAccount",
      "type": "error"
    },
    {
      "inputs": [
        {
          "internalType": "address",
          "name": "target",
          "type": "address"
        }
      ],
      "name": "AddressEmptyCode",
      "type": "error"
    },
    {
      "inputs": [
        {
          "internalType": "address",
          "name": "sender",
          "type": "address"
        },
        {
          "internalType": "uint256",
          "name": "balance",
          "type": "uint256"
        },
        {
          "internalType": "uint256",
          "name": "needed",
          "type": "uint256"
        },
        {
          "internalType": "uint256",
          "name": "tokenId",
          "type": "uint256"
        }
      ],
      "name": "ERC1155InsufficientBalance",
      "type": "error"
    },
    {
      "inputs": [
        {
          "internalType": "address",
          "name": "approver",
          "type": "address"
        }
      ],
      "name": "ERC1155InvalidApprover",
      "type": "error"
    },
    {
      "inputs": [
        {
          "internalType": "uint256",
          "name": "idsLength",
          "type": "uint256"
        },
        {
          "internalType": "uint256",
          "name": "valuesLength",
          "type": "uint256"
        }
      ],
      "name": "ERC1155InvalidArrayLength",
      "type": "error"
    },
    {
      "inputs": [
        {
          "internalType": "address",
          "name": "operator",
          "type": "address"
        }
      ],
      "name": "ERC1155InvalidOperator",
      "type": "error"
    },
    {
      "inputs": [
        {
          "internalType": "address",
          "name": "receiver",
          "type": "address"
        }
      ],
      "name": "ERC1155InvalidReceiver",
      "type": "error"
    },
    {
      "inputs": [
        {
          "internalType": "address",
          "name": "sender",
          "type": "address"
        }
      ],
      "name": "ERC1155InvalidSender",
      "type": "error"
    },
    {
      "inputs": [
        {
          "internalType": "address",
          "name": "operator",
          "type": "address"
        },
        {
          "internalType": "address",
          "name": "owner",
          "type": "address"
        }
      ],
      "name": "ERC1155MissingApprovalForAll",
      "type": "error"
    },
    {
      "inputs": [
        {
          "internalType": "address",
          "name": "implementation",
          "type": "address"
        }
      ],
      "name": "ERC1967InvalidImplementation",
      "type": "error"
    },
    {
      "inputs": [],
      "name": "ERC1967NonPayable",
      "type": "error"
    },
    {
      "inputs": [],
      "name": "EnforcedPause",
      "type": "error"
    },
    {
      "inputs": [],
      "name": "ExpectedPause",
      "type": "error"
    },
    {
      "inputs": [],
      "name": "FailedInnerCall",
      "type": "error"
    },
    {
      "inputs": [],
      "name": "InvalidInitialization",
      "type": "error"
    },
    {
      "inputs": [],
      "name": "NotInitializing",
      "type": "error"
    },
    {
      "inputs": [],
      "name": "ReentrancyGuardReentrantCall",
      "type": "error"
    },
    {
      "inputs": [],
      "name": "TheBadge__SBT",
      "type": "error"
    },
    {
      "inputs": [],
      "name": "TheBadge__calculateFee_protocolFeesInvalidValues",
      "type": "error"
    },
    {
      "inputs": [],
      "name": "TheBadge__mint_creatorFeesPaymentFailed",
      "type": "error"
    },
    {
      "inputs": [],
      "name": "TheBadge__mint_protocolFeesPaymentFailed",
      "type": "error"
    },
    {
      "inputs": [],
      "name": "TheBadge__requestBadge_badgeModelIsSuspended",
      "type": "error"
    },
    {
      "inputs": [],
      "name": "TheBadge__requestBadge_badgeModelNotFound",
      "type": "error"
    },
    {
      "inputs": [],
      "name": "TheBadge__requestBadge_badgeNotClaimable",
      "type": "error"
    },
    {
      "inputs": [],
      "name": "TheBadge__requestBadge_badgeNotFound",
      "type": "error"
    },
    {
      "inputs": [],
      "name": "TheBadge__requestBadge_badgeNotMintable",
      "type": "error"
    },
    {
      "inputs": [],
      "name": "TheBadge__requestBadge_controllerIsPaused",
      "type": "error"
    },
    {
      "inputs": [],
      "name": "TheBadge__requestBadge_isPaused",
      "type": "error"
    },
    {
      "inputs": [],
      "name": "TheBadge__requestBadge_wrongValue",
      "type": "error"
    },
    {
      "inputs": [],
      "name": "UUPSUnauthorizedCallContext",
      "type": "error"
    },
    {
      "inputs": [
        {
          "internalType": "bytes32",
          "name": "slot",
          "type": "bytes32"
        }
      ],
      "name": "UUPSUnsupportedProxiableUUID",
      "type": "error"
    },
    {
      "anonymous": false,
      "inputs": [
        {
          "indexed": true,
          "internalType": "address",
          "name": "account",
          "type": "address"
        },
        {
          "indexed": true,
          "internalType": "address",
          "name": "operator",
          "type": "address"
        },
        {
          "indexed": false,
          "internalType": "bool",
          "name": "approved",
          "type": "bool"
        }
      ],
      "name": "ApprovalForAll",
      "type": "event"
    },
    {
      "anonymous": false,
      "inputs": [
        {
          "indexed": true,
          "internalType": "uint256",
          "name": "badgeModelID",
          "type": "uint256"
        },
        {
          "indexed": true,
          "internalType": "uint256",
          "name": "badgeID",
          "type": "uint256"
        },
        {
          "indexed": true,
          "internalType": "address",
          "name": "recipient",
          "type": "address"
        },
        {
          "indexed": false,
          "internalType": "address",
          "name": "controller",
          "type": "address"
        },
        {
          "indexed": false,
          "internalType": "uint256",
          "name": "controllerBadgeId",
          "type": "uint256"
        }
      ],
      "name": "BadgeRequested",
      "type": "event"
    },
    {
      "anonymous": false,
      "inputs": [
        {
          "indexed": true,
          "internalType": "uint256",
          "name": "badgeId",
          "type": "uint256"
        },
        {
          "indexed": true,
          "internalType": "address",
          "name": "origin",
          "type": "address"
        },
        {
          "indexed": true,
          "internalType": "address",
          "name": "destination",
          "type": "address"
        }
      ],
      "name": "BadgeTransferred",
      "type": "event"
    },
    {
      "anonymous": false,
      "inputs": [
        {
          "indexed": true,
          "internalType": "address",
          "name": "admin",
          "type": "address"
        }
      ],
      "name": "Initialize",
      "type": "event"
    },
    {
      "anonymous": false,
      "inputs": [
        {
          "indexed": false,
          "internalType": "uint64",
          "name": "version",
          "type": "uint64"
        }
      ],
      "name": "Initialized",
      "type": "event"
    },
    {
      "anonymous": false,
      "inputs": [
        {
          "indexed": false,
          "internalType": "address",
          "name": "account",
          "type": "address"
        }
      ],
      "name": "Paused",
      "type": "event"
    },
    {
      "anonymous": false,
      "inputs": [
        {
          "indexed": true,
          "internalType": "address",
          "name": "recipient",
          "type": "address"
        },
        {
          "indexed": false,
          "internalType": "address",
          "name": "payer",
          "type": "address"
        },
        {
          "indexed": false,
          "internalType": "uint256",
          "name": "amount",
          "type": "uint256"
        },
        {
          "indexed": true,
          "internalType": "enum LibTheBadge.PaymentType",
          "name": "paymentType",
          "type": "uint8"
        },
        {
          "indexed": true,
          "internalType": "uint256",
          "name": "badgeModelId",
          "type": "uint256"
        },
        {
          "indexed": false,
          "internalType": "string",
          "name": "controllerName",
          "type": "string"
        }
      ],
      "name": "PaymentMade",
      "type": "event"
    },
    {
      "anonymous": false,
      "inputs": [],
      "name": "ProtocolSettingsUpdated",
      "type": "event"
    },
    {
      "anonymous": false,
      "inputs": [
        {
          "indexed": true,
          "internalType": "bytes32",
          "name": "role",
          "type": "bytes32"
        },
        {
          "indexed": true,
          "internalType": "bytes32",
          "name": "previousAdminRole",
          "type": "bytes32"
        },
        {
          "indexed": true,
          "internalType": "bytes32",
          "name": "newAdminRole",
          "type": "bytes32"
        }
      ],
      "name": "RoleAdminChanged",
      "type": "event"
    },
    {
      "anonymous": false,
      "inputs": [
        {
          "indexed": true,
          "internalType": "bytes32",
          "name": "role",
          "type": "bytes32"
        },
        {
          "indexed": true,
          "internalType": "address",
          "name": "account",
          "type": "address"
        },
        {
          "indexed": true,
          "internalType": "address",
          "name": "sender",
          "type": "address"
        }
      ],
      "name": "RoleGranted",
      "type": "event"
    },
    {
      "anonymous": false,
      "inputs": [
        {
          "indexed": true,
          "internalType": "bytes32",
          "name": "role",
          "type": "bytes32"
        },
        {
          "indexed": true,
          "internalType": "address",
          "name": "account",
          "type": "address"
        },
        {
          "indexed": true,
          "internalType": "address",
          "name": "sender",
          "type": "address"
        }
      ],
      "name": "RoleRevoked",
      "type": "event"
    },
    {
      "anonymous": false,
      "inputs": [
        {
          "indexed": true,
          "internalType": "address",
          "name": "operator",
          "type": "address"
        },
        {
          "indexed": true,
          "internalType": "address",
          "name": "from",
          "type": "address"
        },
        {
          "indexed": true,
          "internalType": "address",
          "name": "to",
          "type": "address"
        },
        {
          "indexed": false,
          "internalType": "uint256[]",
          "name": "ids",
          "type": "uint256[]"
        },
        {
          "indexed": false,
          "internalType": "uint256[]",
          "name": "values",
          "type": "uint256[]"
        }
      ],
      "name": "TransferBatch",
      "type": "event"
    },
    {
      "anonymous": false,
      "inputs": [
        {
          "indexed": true,
          "internalType": "address",
          "name": "operator",
          "type": "address"
        },
        {
          "indexed": true,
          "internalType": "address",
          "name": "from",
          "type": "address"
        },
        {
          "indexed": true,
          "internalType": "address",
          "name": "to",
          "type": "address"
        },
        {
          "indexed": false,
          "internalType": "uint256",
          "name": "id",
          "type": "uint256"
        },
        {
          "indexed": false,
          "internalType": "uint256",
          "name": "value",
          "type": "uint256"
        }
      ],
      "name": "TransferSingle",
      "type": "event"
    },
    {
      "anonymous": false,
      "inputs": [
        {
          "indexed": false,
          "internalType": "string",
          "name": "value",
          "type": "string"
        },
        {
          "indexed": true,
          "internalType": "uint256",
          "name": "id",
          "type": "uint256"
        }
      ],
      "name": "URI",
      "type": "event"
    },
    {
      "anonymous": false,
      "inputs": [
        {
          "indexed": false,
          "internalType": "address",
          "name": "account",
          "type": "address"
        }
      ],
      "name": "Unpaused",
      "type": "event"
    },
    {
      "anonymous": false,
      "inputs": [
        {
          "indexed": true,
          "internalType": "address",
          "name": "implementation",
          "type": "address"
        }
      ],
      "name": "Upgraded",
      "type": "event"
    },
    {
      "inputs": [],
      "name": "CLAIMER_ROLE",
      "outputs": [
        {
          "internalType": "bytes32",
          "name": "",
          "type": "bytes32"
        }
      ],
      "stateMutability": "view",
      "type": "function"
    },
    {
      "inputs": [],
      "name": "DEFAULT_ADMIN_ROLE",
      "outputs": [
        {
          "internalType": "bytes32",
          "name": "",
          "type": "bytes32"
        }
      ],
      "stateMutability": "view",
      "type": "function"
    },
    {
      "inputs": [],
      "name": "PAUSER_ROLE",
      "outputs": [
        {
          "internalType": "bytes32",
          "name": "",
          "type": "bytes32"
        }
      ],
      "stateMutability": "view",
      "type": "function"
    },
    {
      "inputs": [],
      "name": "UPGRADER_ROLE",
      "outputs": [
        {
          "internalType": "bytes32",
          "name": "",
          "type": "bytes32"
        }
      ],
      "stateMutability": "view",
      "type": "function"
    },
    {
      "inputs": [],
      "name": "UPGRADE_INTERFACE_VERSION",
      "outputs": [
        {
          "internalType": "string",
          "name": "",
          "type": "string"
        }
      ],
      "stateMutability": "view",
      "type": "function"
    },
    {
      "inputs": [],
      "name": "URI_SETTER_ROLE",
      "outputs": [
        {
          "internalType": "bytes32",
          "name": "",
          "type": "bytes32"
        }
      ],
      "stateMutability": "view",
      "type": "function"
    },
    {
      "inputs": [],
      "name": "USER_MANAGER_ROLE",
      "outputs": [
        {
          "internalType": "bytes32",
          "name": "",
          "type": "bytes32"
        }
      ],
      "stateMutability": "view",
      "type": "function"
    },
    {
      "inputs": [],
      "name": "VERIFIER_ROLE",
      "outputs": [
        {
          "internalType": "bytes32",
          "name": "",
          "type": "bytes32"
        }
      ],
      "stateMutability": "view",
      "type": "function"
    },
    {
      "inputs": [],
      "name": "_badgeStore",
      "outputs": [
        {
          "internalType": "contract TheBadgeStore",
          "name": "",
          "type": "address"
        }
      ],
      "stateMutability": "view",
      "type": "function"
    },
    {
      "inputs": [
        {
          "internalType": "address",
          "name": "account",
          "type": "address"
        },
        {
          "internalType": "uint256",
          "name": "badgeId",
          "type": "uint256"
        }
      ],
      "name": "balanceOf",
      "outputs": [
        {
          "internalType": "uint256",
          "name": "",
          "type": "uint256"
        }
      ],
      "stateMutability": "view",
      "type": "function"
    },
    {
      "inputs": [
        {
          "internalType": "address",
          "name": "account",
          "type": "address"
        },
        {
          "internalType": "uint256",
          "name": "badgeModelId",
          "type": "uint256"
        }
      ],
      "name": "balanceOfBadgeModel",
      "outputs": [
        {
          "internalType": "uint256",
          "name": "",
          "type": "uint256"
        }
      ],
      "stateMutability": "view",
      "type": "function"
    },
    {
      "inputs": [
        {
          "internalType": "address[]",
          "name": "accounts",
          "type": "address[]"
        },
        {
          "internalType": "uint256[]",
          "name": "ids",
          "type": "uint256[]"
        }
      ],
      "name": "balanceOfBatch",
      "outputs": [
        {
          "internalType": "uint256[]",
          "name": "",
          "type": "uint256[]"
        }
      ],
      "stateMutability": "view",
      "type": "function"
    },
    {
      "inputs": [
        {
          "internalType": "uint256",
          "name": "badgeId",
          "type": "uint256"
        },
        {
          "internalType": "bytes",
          "name": "data",
          "type": "bytes"
        }
      ],
      "name": "challenge",
      "outputs": [],
      "stateMutability": "payable",
      "type": "function"
    },
    {
      "inputs": [
        {
          "internalType": "uint256",
          "name": "badgeId",
          "type": "uint256"
        },
        {
          "internalType": "bytes",
          "name": "data",
          "type": "bytes"
        }
      ],
      "name": "claim",
      "outputs": [],
      "stateMutability": "nonpayable",
      "type": "function"
    },
    {
      "inputs": [
        {
          "internalType": "uint256",
          "name": "badgeId",
          "type": "uint256"
        }
      ],
      "name": "getChallengeDepositValue",
      "outputs": [
        {
          "internalType": "uint256",
          "name": "",
          "type": "uint256"
        }
      ],
      "stateMutability": "view",
      "type": "function"
    },
    {
      "inputs": [
        {
          "internalType": "uint256",
          "name": "badgeId",
          "type": "uint256"
        }
      ],
      "name": "getRemovalDepositValue",
      "outputs": [
        {
          "internalType": "uint256",
          "name": "",
          "type": "uint256"
        }
      ],
      "stateMutability": "view",
      "type": "function"
    },
    {
      "inputs": [
        {
          "internalType": "bytes32",
          "name": "role",
          "type": "bytes32"
        }
      ],
      "name": "getRoleAdmin",
      "outputs": [
        {
          "internalType": "bytes32",
          "name": "",
          "type": "bytes32"
        }
      ],
      "stateMutability": "view",
      "type": "function"
    },
    {
      "inputs": [
        {
          "internalType": "bytes32",
          "name": "role",
          "type": "bytes32"
        },
        {
          "internalType": "address",
          "name": "account",
          "type": "address"
        }
      ],
      "name": "grantRole",
      "outputs": [],
      "stateMutability": "nonpayable",
      "type": "function"
    },
    {
      "inputs": [
        {
          "internalType": "bytes32",
          "name": "role",
          "type": "bytes32"
        },
        {
          "internalType": "address",
          "name": "account",
          "type": "address"
        }
      ],
      "name": "hasRole",
      "outputs": [
        {
          "internalType": "bool",
          "name": "",
          "type": "bool"
        }
      ],
      "stateMutability": "view",
      "type": "function"
    },
    {
      "inputs": [
        {
          "internalType": "address",
          "name": "admin",
          "type": "address"
        },
        {
          "internalType": "address",
          "name": "badgeStore",
          "type": "address"
        }
      ],
      "name": "initialize",
      "outputs": [],
      "stateMutability": "nonpayable",
      "type": "function"
    },
    {
      "inputs": [
        {
          "internalType": "address",
          "name": "account",
          "type": "address"
        },
        {
          "internalType": "address",
          "name": "operator",
          "type": "address"
        }
      ],
      "name": "isApprovedForAll",
      "outputs": [
        {
          "internalType": "bool",
          "name": "",
          "type": "bool"
        }
      ],
      "stateMutability": "view",
      "type": "function"
    },
    {
      "inputs": [
        {
          "internalType": "uint256",
          "name": "badgeId",
          "type": "uint256"
        }
      ],
      "name": "isExpired",
      "outputs": [
        {
          "internalType": "bool",
          "name": "",
          "type": "bool"
        }
      ],
      "stateMutability": "view",
      "type": "function"
    },
    {
      "inputs": [
        {
          "internalType": "uint256",
          "name": "badgeModelId",
          "type": "uint256"
        },
        {
          "internalType": "address",
          "name": "account",
          "type": "address"
        },
        {
          "internalType": "string",
          "name": "tokenURI",
          "type": "string"
        },
        {
          "internalType": "bytes",
          "name": "data",
          "type": "bytes"
        }
      ],
      "name": "mint",
      "outputs": [],
      "stateMutability": "payable",
      "type": "function"
    },
    {
      "inputs": [
        {
          "internalType": "uint256",
          "name": "badgeModelId",
          "type": "uint256"
        }
      ],
      "name": "mintValue",
      "outputs": [
        {
          "internalType": "uint256",
          "name": "",
          "type": "uint256"
        }
      ],
      "stateMutability": "view",
      "type": "function"
    },
    {
      "inputs": [],
      "name": "name",
      "outputs": [
        {
          "internalType": "string",
          "name": "",
          "type": "string"
        }
      ],
      "stateMutability": "view",
      "type": "function"
    },
    {
      "inputs": [],
      "name": "pause",
      "outputs": [],
      "stateMutability": "nonpayable",
      "type": "function"
    },
    {
      "inputs": [],
      "name": "paused",
      "outputs": [
        {
          "internalType": "bool",
          "name": "",
          "type": "bool"
        }
      ],
      "stateMutability": "view",
      "type": "function"
    },
    {
      "inputs": [],
      "name": "proxiableUUID",
      "outputs": [
        {
          "internalType": "bytes32",
          "name": "",
          "type": "bytes32"
        }
      ],
      "stateMutability": "view",
      "type": "function"
    },
    {
      "inputs": [
        {
          "internalType": "uint256",
          "name": "badgeId",
          "type": "uint256"
        },
        {
          "internalType": "bytes",
          "name": "data",
          "type": "bytes"
        }
      ],
      "name": "removeItem",
      "outputs": [],
      "stateMutability": "payable",
      "type": "function"
    },
    {
      "inputs": [
        {
          "internalType": "bytes32",
          "name": "role",
          "type": "bytes32"
        },
        {
          "internalType": "address",
          "name": "callerConfirmation",
          "type": "address"
        }
      ],
      "name": "renounceRole",
      "outputs": [],
      "stateMutability": "nonpayable",
      "type": "function"
    },
    {
      "inputs": [
        {
          "internalType": "bytes32",
          "name": "role",
          "type": "bytes32"
        },
        {
          "internalType": "address",
          "name": "account",
          "type": "address"
        }
      ],
      "name": "revokeRole",
      "outputs": [],
      "stateMutability": "nonpayable",
      "type": "function"
    },
    {
      "inputs": [
        {
          "internalType": "address",
          "name": "from",
          "type": "address"
        },
        {
          "internalType": "address",
          "name": "to",
          "type": "address"
        },
        {
          "internalType": "uint256[]",
          "name": "ids",
          "type": "uint256[]"
        },
        {
          "internalType": "uint256[]",
          "name": "values",
          "type": "uint256[]"
        },
        {
          "internalType": "bytes",
          "name": "data",
          "type": "bytes"
        }
      ],
      "name": "safeBatchTransferFrom",
      "outputs": [],
      "stateMutability": "nonpayable",
      "type": "function"
    },
    {
      "inputs": [
        {
          "internalType": "address",
          "name": "from",
          "type": "address"
        },
        {
          "internalType": "address",
          "name": "to",
          "type": "address"
        },
        {
          "internalType": "uint256",
          "name": "id",
          "type": "uint256"
        },
        {
          "internalType": "uint256",
          "name": "value",
          "type": "uint256"
        },
        {
          "internalType": "bytes",
          "name": "data",
          "type": "bytes"
        }
      ],
      "name": "safeTransferFrom",
      "outputs": [],
      "stateMutability": "nonpayable",
      "type": "function"
    },
    {
      "inputs": [
        {
          "internalType": "address",
          "name": "operator",
          "type": "address"
        },
        {
          "internalType": "bool",
          "name": "approved",
          "type": "bool"
        }
      ],
      "name": "setApprovalForAll",
      "outputs": [],
      "stateMutability": "nonpayable",
      "type": "function"
    },
    {
      "inputs": [
        {
          "internalType": "uint256",
          "name": "badgeId",
          "type": "uint256"
        },
        {
          "internalType": "bytes",
          "name": "data",
          "type": "bytes"
        }
      ],
      "name": "submitEvidence",
      "outputs": [],
      "stateMutability": "nonpayable",
      "type": "function"
    },
    {
      "inputs": [
        {
          "internalType": "bytes4",
          "name": "interfaceId",
          "type": "bytes4"
        }
      ],
      "name": "supportsInterface",
      "outputs": [
        {
          "internalType": "bool",
          "name": "",
          "type": "bool"
        }
      ],
      "stateMutability": "view",
      "type": "function"
    },
    {
      "inputs": [],
      "name": "symbol",
      "outputs": [
        {
          "internalType": "string",
          "name": "",
          "type": "string"
        }
      ],
      "stateMutability": "view",
      "type": "function"
    },
    {
      "inputs": [],
      "name": "unpause",
      "outputs": [],
      "stateMutability": "nonpayable",
      "type": "function"
    },
    {
      "inputs": [
        {
          "internalType": "uint256",
          "name": "_createBadgeModelValue",
          "type": "uint256"
        }
      ],
      "name": "updateCreateBadgeModelProtocolFee",
      "outputs": [],
      "stateMutability": "nonpayable",
      "type": "function"
    },
    {
      "inputs": [
        {
          "internalType": "uint256",
          "name": "_mintBadgeDefaultFee",
          "type": "uint256"
        }
      ],
      "name": "updateMintBadgeDefaultProtocolFee",
      "outputs": [],
      "stateMutability": "nonpayable",
      "type": "function"
    },
    {
      "inputs": [
        {
          "internalType": "uint256",
          "name": "_registerCreatorValue",
          "type": "uint256"
        }
      ],
      "name": "updateRegisterCreatorProtocolFee",
      "outputs": [],
      "stateMutability": "nonpayable",
      "type": "function"
    },
    {
      "inputs": [
        {
          "internalType": "address",
          "name": "newImplementation",
          "type": "address"
        },
        {
          "internalType": "bytes",
          "name": "data",
          "type": "bytes"
        }
      ],
      "name": "upgradeToAndCall",
      "outputs": [],
      "stateMutability": "payable",
      "type": "function"
    },
    {
      "inputs": [
        {
          "internalType": "uint256",
          "name": "badgeId",
          "type": "uint256"
        }
      ],
      "name": "uri",
      "outputs": [
        {
          "internalType": "string",
          "name": "",
          "type": "string"
        }
      ],
      "stateMutability": "view",
      "type": "function"
    },
    {
      "stateMutability": "payable",
      "type": "receive"
    }
  ],
  "bytecode": "0x60a06040523060805234801562000014575f80fd5b506200001f62000025565b620000d9565b7ff0c57e16840df040f15088dc2f81fe391c3923bec73e23a9662efc9c229c6a00805468010000000000000000900460ff1615620000765760405163f92ee8a960e01b815260040160405180910390fd5b80546001600160401b0390811614620000d65780546001600160401b0319166001600160401b0390811782556040519081527fc7f505b2f371ae2175ee4913f4499e1f2633a7b5936321eed1cdaeb6115181d29060200160405180910390a15b50565b608051614867620001005f395f81816129aa015281816129d30152612b1801526148675ff3fe60806040526004361061021a575f3560e01c806391d1485411610121578063d547741f116100a4578063d547741f1461060b578063d7deba151461062a578063d9548e5314610649578063e181865114610668578063e63ab1e914610687578063e7705db6146106a7578063e985e9c5146106da578063f1fe717e146106f9578063f242432a14610718578063f72c0d8b14610737578063fc5f18d314610757575f80fd5b806391d14854146104cc57806393c7a71b146104eb57806395d89b411461050a5780639faf71581461051e578063a03aafbf14610531578063a217fddf14610544578063a22cb46514610557578063a41e35c314610576578063ad3cb1cc146105a9578063c1d18840146105d9578063c5a3c7ca146105ec575f80fd5b80633f4ba83a116101a95780633f4ba83a1461038e57806346c45758146103a2578063485cc955146103c15780634e1273f4146103e05780634f1ef2861461040c57806352d1902d1461041f5780635c975abb14610433578063632f7c83146104475780637eb7f176146104665780637f345710146104855780638456cb59146104b8575f80fd5b8062fdd58e1461022557806301ffc9a71461025757806306fdde03146102865780630e89341c146102a757806319b50c2a146102c6578063248a9ca3146102f15780632eb2c2d6146103105780632f2ff15d1461033157806336568abe1461035057806338926b6d1461036f575f80fd5b3661022157005b5f80fd5b348015610230575f80fd5b5061024461023f366004613974565b61078a565b6040519081526020015b60405180910390f35b348015610262575f80fd5b506102766102713660046139b3565b6109bf565b604051901515815260200161024e565b348015610291575f80fd5b5061029a6109c9565b60405161024e9190613a1b565b3480156102b2575f80fd5b5061029a6102c1366004613a2d565b610a55565b3480156102d1575f80fd5b505f546102e4906001600160a01b031681565b60405161024e9190613a44565b3480156102fc575f80fd5b5061024461030b366004613a2d565b610a60565b34801561031b575f80fd5b5061032f61032a366004613beb565b610a7e565b005b34801561033c575f80fd5b5061032f61034b366004613c91565b610adf565b34801561035b575f80fd5b5061032f61036a366004613c91565b610b01565b34801561037a575f80fd5b5061032f610389366004613cbf565b610b39565b348015610399575f80fd5b5061032f610e7f565b3480156103ad575f80fd5b506102446103bc366004613974565b610ea1565b3480156103cc575f80fd5b5061032f6103db366004613d33565b6110e4565b3480156103eb575f80fd5b506103ff6103fa366004613d5f565b61130a565b60405161024e9190613e53565b61032f61041a366004613e65565b6113dc565b34801561042a575f80fd5b506102446113fb565b34801561043e575f80fd5b50610276611416565b348015610452575f80fd5b50610244610461366004613a2d565b61142a565b348015610471575f80fd5b50610244610480366004613a2d565b6115ba565b348015610490575f80fd5b506102447f7804d923f43a17d325d77e781528e0793b2edd9890ab45fc64efd7b4b427744c81565b3480156104c3575f80fd5b5061032f611727565b3480156104d7575f80fd5b506102766104e6366004613c91565b611746565b3480156104f6575f80fd5b5061032f610505366004613cbf565b61177a565b348015610515575f80fd5b5061029a6118dc565b61032f61052c366004613cbf565b6118e9565b61032f61053f366004613cbf565b611a4d565b34801561054f575f80fd5b506102445f81565b348015610562575f80fd5b5061032f610571366004613eb4565b611b5f565b348015610581575f80fd5b506102447fcbaaf41b181bb6e269c490e876a7c97711b57e21dd8e5528423cf57579726b3581565b3480156105b4575f80fd5b5061029a604051806040016040528060058152602001640352e302e360dc1b81525081565b61032f6105e7366004613ee0565b611b6a565b3480156105f7575f80fd5b5061032f610606366004613a2d565b612184565b348015610616575f80fd5b5061032f610625366004613c91565b612213565b348015610635575f80fd5b50610244610644366004613a2d565b61222f565b348015610654575f80fd5b50610276610663366004613a2d565b612357565b348015610673575f80fd5b5061032f610682366004613a2d565b612409565b348015610692575f80fd5b506102445f8051602061481283398151915281565b3480156106b2575f80fd5b506102447f0ce23c3e399818cfee81a7ab0880f714e53d7672b08df0fa62f2843416e1ea0981565b3480156106e5575f80fd5b506102766106f4366004613d33565b612443565b348015610704575f80fd5b5061032f610713366004613a2d565b612480565b348015610723575f80fd5b5061032f610732366004613f70565b6124ba565b348015610742575f80fd5b506102445f805160206147d283398151915281565b348015610762575f80fd5b506102447f11a8cb5a02bd6c42679835e867ef2118ba78f088f8300511420c6603c21d9c7881565b5f80546040516346c1c31160e11b81526004810184905282916001600160a01b031690638d83862290602401608060405180830381865afa1580156107d1573d5f803e3d5ffd5b505050506040513d601f19601f820116820180604052508101906107f59190613fee565b6060810151909150158061081f5750836001600160a01b031681602001516001600160a01b031614155b1561082d575f9150506109b9565b61083683612357565b1515600103610848575f9150506109b9565b5f8054825160405163f2be2c8560e01b81526001600160a01b039092169163f2be2c859161087c9160040190815260200190565b5f60405180830381865afa158015610896573d5f803e3d5ffd5b505050506040513d5f823e601f3d908101601f191682016040526108bd91908101906140a0565b5f80546020830151604051631c2e21b960e11b815293945091926001600160a01b039091169163385c4372916108f69190600401613a1b565b606060405180830381865afa158015610911573d5f803e3d5ffd5b505050506040513d601f19601f82011682018060405250810190610935919061417c565b8051604051631174806160e11b815260048101889052919250906001600160a01b038216906322e900c290602401602060405180830381865afa15801561097e573d5f803e3d5ffd5b505050506040513d601f19601f820116820180604052508101906109a291906141eb565b6109ac575f6109af565b60015b60ff169450505050505b92915050565b5f6109b98261250a565b600180546109d690614206565b80601f0160208091040260200160405190810160405280929190818152602001828054610a0290614206565b8015610a4d5780601f10610a2457610100808354040283529160200191610a4d565b820191905f5260205f20905b815481529060010190602001808311610a3057829003601f168201915b505050505081565b60606109b98261252e565b5f80610a6a612617565b5f9384526020525050604090206001015490565b336001600160a01b0386168114801590610a9f5750610a9d8682612443565b155b15610aca57808660405163711bec9160e11b8152600401610ac192919061423e565b60405180910390fd5b610ad7868686868661263b565b505050505050565b610ae882610a60565b610af1816126a0565b610afb83836126aa565b50505050565b6001600160a01b0381163314610b2a5760405163334bd91960e11b815260040160405180910390fd5b610b348282612748565b505050565b5f610b43846127be565b5f805460405163f2be2c8560e01b81526004810184905292935090916001600160a01b039091169063f2be2c85906024015f60405180830381865afa158015610b8e573d5f803e3d5ffd5b505050506040513d5f823e601f3d908101601f19168201604052610bb591908101906140a0565b5f80546020830151604051631c2e21b960e11b815293945091926001600160a01b039091169163385c437291610bee9190600401613a1b565b606060405180830381865afa158015610c09573d5f803e3d5ffd5b505050506040513d601f19601f82011682018060405250810190610c2d919061417c565b5f80546040516346c1c31160e11b8152600481018a905292935090916001600160a01b0390911690638d83862290602401608060405180830381865afa158015610c79573d5f803e3d5ffd5b505050506040513d601f19601f82011682018060405250810190610c9d9190613fee565b825160608201519192509015155f03610cc957604051632edd9d0f60e21b815260040160405180910390fd5b6040516389610a0960e01b8152600481018990526001600160a01b038216906389610a0990602401602060405180830381865afa158015610d0c573d5f803e3d5ffd5b505050506040513d601f19601f82011682018060405250810190610d3091906141eb565b15155f03610d5157604051632edd9d0f60e21b815260040160405180910390fd5b604051634e35cfc560e11b81525f906001600160a01b03831690639c6b9f8a90610d85908c908c908c903390600401614258565b6020604051808303815f875af1158015610da1573d5f803e3d5ffd5b505050506040513d601f19601f82011682018060405250810190610dc591906142a0565b5f548551604051630a5f1ec560e01b8152600481018d90526001600160a01b03918216602482015281841660448201529293501690630a5f1ec5906064015f604051808303815f87803b158015610e1a575f80fd5b505af1158015610e2c573d5f803e3d5ffd5b50505050806001600160a01b0316845f01516001600160a01b03168a7fd201fb416d8b5e50c9066521ecfc94d1821b6139fc0e7b39b3c680262c0fed9860405160405180910390a4505050505050505050565b5f80516020614812833981519152610e96816126a0565b610e9e6128fa565b50565b5f80546040516304239ea560e11b815282916001600160a01b0316906308473d4a90610ed390869088906004016142bb565b5f60405180830381865afa158015610eed573d5f803e3d5ffd5b505050506040513d5f823e601f3d908101601f19168201604052610f1491908101906142d2565b905080515f03610f27575f9150506109b9565b5f805460405163f2be2c8560e01b8152600481018690526001600160a01b039091169063f2be2c85906024015f60405180830381865afa158015610f6d573d5f803e3d5ffd5b505050506040513d5f823e601f3d908101601f19168201604052610f9491908101906140a0565b5f80546020830151604051631c2e21b960e11b815293945091926001600160a01b039091169163385c437291610fcd9190600401613a1b565b606060405180830381865afa158015610fe8573d5f803e3d5ffd5b505050506040513d601f19601f8201168201806040525081019061100c919061417c565b80519091505f805b85518110156110d8575f8682815181106110305761103061435d565b6020026020010151905061104381612357565b1580156110b25750604051631174806160e11b8152600481018290526001600160a01b038516906322e900c290602401602060405180830381865afa15801561108e573d5f803e3d5ffd5b505050506040513d601f19601f820116820180604052508101906110b291906141eb565b156110c557826110c181614385565b9350505b50806110d081614385565b915050611014565b50979650505050505050565b5f6110ed612950565b805490915060ff600160401b82041615906001600160401b03165f811580156111135750825b90505f826001600160401b0316600114801561112e5750303b155b90508115801561113c575080155b1561115a5760405163f92ee8a960e01b815260040160405180910390fd5b845467ffffffffffffffff19166001178555831561118457845460ff60401b1916600160401b1785555b61119b60405180602001604052805f815250612974565b6111a3612985565b6111ab61298f565b6111b3612985565b6111bd5f886126aa565b506111d55f80516020614812833981519152886126aa565b506111ed5f805160206147d2833981519152886126aa565b506112187f0ce23c3e399818cfee81a7ab0880f714e53d7672b08df0fa62f2843416e1ea09886126aa565b505f80546001600160a01b0319166001600160a01b038816179055604080518082019091526008815267546865426164676560c01b602082015260019061125f90826143e2565b506040805180820190915260038152621091d160ea1b602082015260029061128790826143e2565b506040516001600160a01b038816907f36b1453565f45af7b509b59d5e2eac8f1948ea9e3e193db6663b4101afb6382c905f90a2831561130157845460ff60401b19168555604051600181527fc7f505b2f371ae2175ee4913f4499e1f2633a7b5936321eed1cdaeb6115181d29060200160405180910390a15b50505050505050565b6060815183511461133b5781518351604051635b05999160e01b815260048101929092526024820152604401610ac1565b5f83516001600160401b0381111561135557611355613a58565b60405190808252806020026020018201604052801561137e578160200160208202803683370190505b5090505f5b84518110156113d4576020808202860101516113a79060208084028701015161078a565b8282815181106113b9576113b961435d565b60209081029190910101526113cd81614385565b9050611383565b509392505050565b6113e461299f565b6113ed82612a43565b6113f78282612a5a565b5050565b5f611404612b0d565b505f805160206147f283398151915290565b5f80611420612b56565b5460ff1692915050565b5f805460405163f2be2c8560e01b81526004810184905282916001600160a01b03169063f2be2c85906024015f60405180830381865afa158015611470573d5f803e3d5ffd5b505050506040513d5f823e601f3d908101601f1916820160405261149791908101906140a0565b80519091506001600160a01b03166114c2576040516385a6706360e01b815260040160405180910390fd5b5f80546020830151604051631c2e21b960e11b81526001600160a01b039092169163385c4372916114f591600401613a1b565b606060405180830381865afa158015611510573d5f803e3d5ffd5b505050506040513d601f19601f82011682018060405250810190611534919061417c565b8051606084015160405163632f7c8360e01b81526004810188905292935090916001600160a01b0383169063632f7c8390602401602060405180830381865afa158015611583573d5f803e3d5ffd5b505050506040513d601f19601f820116820180604052508101906115a7919061449d565b6115b191906144b4565b95945050505050565b5f806115c5836127be565b5f805460405163f2be2c8560e01b81526004810184905292935090916001600160a01b039091169063f2be2c85906024015f60405180830381865afa158015611610573d5f803e3d5ffd5b505050506040513d5f823e601f3d908101601f1916820160405261163791908101906140a0565b5f80546020830151604051631c2e21b960e11b815293945091926001600160a01b039091169163385c4372916116709190600401613a1b565b606060405180830381865afa15801561168b573d5f803e3d5ffd5b505050506040513d601f19601f820116820180604052508101906116af919061417c565b8051604051633f5bf8bb60e11b815260048101889052919250906001600160a01b03821690637eb7f176906024015b602060405180830381865afa1580156116f9573d5f803e3d5ffd5b505050506040513d601f19601f8201168201806040525081019061171d919061449d565b9695505050505050565b5f8051602061481283398151915261173e816126a0565b610e9e612b7a565b5f80611750612617565b5f948552602090815260408086206001600160a01b03959095168652939052505090205460ff1690565b5f611784846127be565b5f805460405163f2be2c8560e01b81526004810184905292935090916001600160a01b039091169063f2be2c85906024015f60405180830381865afa1580156117cf573d5f803e3d5ffd5b505050506040513d5f823e601f3d908101601f191682016040526117f691908101906140a0565b5f80546020830151604051631c2e21b960e11b815293945091926001600160a01b039091169163385c43729161182f9190600401613a1b565b606060405180830381865afa15801561184a573d5f803e3d5ffd5b505050506040513d601f19601f8201168201806040525081019061186e919061417c565b8051604051636c5f71ab60e11b8152919250906001600160a01b0382169063d8bee356906118a6908a908a908a903390600401614258565b5f604051808303815f87803b1580156118bd575f80fd5b505af11580156118cf573d5f803e3d5ffd5b5050505050505050505050565b600280546109d690614206565b5f6118f3846127be565b5f805460405163f2be2c8560e01b81526004810184905292935090916001600160a01b039091169063f2be2c85906024015f60405180830381865afa15801561193e573d5f803e3d5ffd5b505050506040513d5f823e601f3d908101601f1916820160405261196591908101906140a0565b5f80546020830151604051631c2e21b960e11b815293945091926001600160a01b039091169163385c43729161199e9190600401613a1b565b606060405180830381865afa1580156119b9573d5f803e3d5ffd5b505050506040513d601f19601f820116820180604052508101906119dd919061417c565b80519091506001600160a01b0381166361cf6b4834898989335b6040518663ffffffff1660e01b8152600401611a169493929190614258565b5f604051808303818588803b158015611a2d575f80fd5b505af1158015611a3f573d5f803e3d5ffd5b505050505050505050505050565b5f611a57846127be565b5f805460405163f2be2c8560e01b81526004810184905292935090916001600160a01b039091169063f2be2c85906024015f60405180830381865afa158015611aa2573d5f803e3d5ffd5b505050506040513d5f823e601f3d908101601f19168201604052611ac991908101906140a0565b5f80546020830151604051631c2e21b960e11b815293945091926001600160a01b039091169163385c437291611b029190600401613a1b565b606060405180830381865afa158015611b1d573d5f803e3d5ffd5b505050506040513d601f19601f82011682018060405250810190611b41919061417c565b80519091506001600160a01b03811663681294b434898989336119f7565b6113f7338383612bc0565b5f805460405163f2be2c8560e01b8152600481018790528692916001600160a01b03169063f2be2c85906024015f60405180830381865afa158015611bb1573d5f803e3d5ffd5b505050506040513d5f823e601f3d908101601f19168201604052611bd891908101906140a0565b5f80546020830151604051631c2e21b960e11b815293945091926001600160a01b039091169163385c437291611c119190600401613a1b565b606060405180830381865afa158015611c2c573d5f803e3d5ffd5b505050506040513d601f19601f82011682018060405250810190611c50919061417c565b80518351919250906001600160a01b0316611c7e576040516385a6706360e01b815260040160405180910390fd5b826040015115611ca157604051635d71fd6f60e01b815260040160405180910390fd5b816020015115611cc457604051631bd063c360e01b815260040160405180910390fd5b5f80548451604051636f77926b60e01b81526001600160a01b0390921691636f77926b91611cf491600401613a44565b5f60405180830381865afa158015611d0e573d5f803e3d5ffd5b505050506040513d5f823e601f3d908101601f19168201604052611d3591908101906144c7565b60608101519091501515600103611d5f5760405163a800bb9d60e01b815260040160405180910390fd5b611d67612bd9565b888880888a611d758561142a565b341015611d95576040516393fda7e360e01b815260040160405180910390fd5b5f805460405163f2be2c8560e01b8152600481018890526001600160a01b039091169063f2be2c85906024015f60405180830381865afa158015611ddb573d5f803e3d5ffd5b505050506040513d5f823e601f3d908101601f19168201604052611e0291908101906140a0565b606081015190915015611e1857611e1886612c0e565b5f80546020830151604051631c2e21b960e11b81526001600160a01b039092169163385c437291611e4b91600401613a1b565b606060405180830381865afa158015611e66573d5f803e3d5ffd5b505050506040513d601f19601f82011682018060405250810190611e8a919061417c565b80519091506001600160a01b038716611f2c57604051631007fbe560e21b81526001600160a01b0382169063401fef9490611ecb908b908b906004016142bb565b602060405180830381865afa158015611ee6573d5f803e3d5ffd5b505050506040513d601f19601f82011682018060405250810190611f0a91906141eb565b611f2757604051634dae13df60e01b815260040160405180910390fd5b815195505b5f805f9054906101000a90046001600160a01b03166001600160a01b03166308e5bf216040518163ffffffff1660e01b8152600401602060405180830381865afa158015611f7c573d5f803e3d5ffd5b505050506040513d601f19601f82011682018060405250810190611fa0919061449d565b90505f826001600160a01b031663f6563d5f866060015134611fc29190614587565b338d868c8e6040518763ffffffff1660e01b8152600401611fe795949392919061459a565b60206040518083038185885af1158015612003573d5f803e3d5ffd5b50505050506040513d601f19601f82011682018060405250810190612028919061449d565b90506120348287612e9c565b61205b8883600160405180604001604052806002815260200161060f60f31b815250612f07565b5f85608001515f1461207b57608086015161207690426144b4565b61207d565b5f5b604080516080810182528d81526001600160a01b038c8116602083019081528284018581526001606085019081525f549551634085b52760e01b8152600481018b9052855160248201529251841660448401529051606483015251151560848201529394509092911690634085b5279060a4015f604051808303815f87803b158015612107575f80fd5b505af1158015612119573d5f803e3d5ffd5b50505050896001600160a01b0316848d7f186b125f639893ac3dcb02d857d0fd29319e8f764fd26f4a77310e8c678fbbd0895f01518760405161215d9291906145dc565b60405180910390a4505050505050505050505050612179612f4d565b505050505050505050565b5f61218e816126a0565b5f546040516362d1e3e560e11b8152600481018490526001600160a01b039091169063c5a3c7ca906024015b5f604051808303815f87803b1580156121d1575f80fd5b505af11580156121e3573d5f803e3d5ffd5b50506040517f810f1720fbc34c56d171f89315ad21708648fd17424c27b88fa208409845aa7792505f9150a15050565b61221c82610a60565b612225816126a0565b610afb8383612748565b5f8061223a836127be565b5f805460405163f2be2c8560e01b81526004810184905292935090916001600160a01b039091169063f2be2c85906024015f60405180830381865afa158015612285573d5f803e3d5ffd5b505050506040513d5f823e601f3d908101601f191682016040526122ac91908101906140a0565b5f80546020830151604051631c2e21b960e11b815293945091926001600160a01b039091169163385c4372916122e59190600401613a1b565b606060405180830381865afa158015612300573d5f803e3d5ffd5b505050506040513d601f19601f82011682018060405250810190612324919061417c565b805160405163d7deba1560e01b815260048101889052919250906001600160a01b0382169063d7deba15906024016116de565b5f80546040516346c1c31160e11b81526004810184905282916001600160a01b031690638d83862290602401608060405180830381865afa15801561239e573d5f803e3d5ffd5b505050506040513d601f19601f820116820180604052508101906123c29190613fee565b606081015190915015155f036123da57505f92915050565b80604001515f036123ed57505f92915050565b42816040015111156123ff575f612402565b60015b9392505050565b5f612413816126a0565b5f5460405163e181865160e01b8152600481018490526001600160a01b039091169063e1818651906024016121ba565b5f8061244d612f5d565b6001600160a01b039485165f90815260019190910160209081526040808320959096168252939093525050205460ff1690565b5f61248a816126a0565b5f546040516378ff38bf60e11b8152600481018490526001600160a01b039091169063f1fe717e906024016121ba565b336001600160a01b03861681148015906124db57506124d98682612443565b155b156124fd57808660405163711bec9160e11b8152600401610ac192919061423e565b610ad78686868686612f81565b5f6001600160e01b03198216637965db0b60e01b14806109b957506109b982612fef565b60605f61253961303e565b5f84815260018201602052604081208054929350909161255890614206565b80601f016020809104026020016040519081016040528092919081815260200182805461258490614206565b80156125cf5780601f106125a6576101008083540402835291602001916125cf565b820191905f5260205f20905b8154815290600101906020018083116125b257829003601f168201915b505050505090505f8151116125ec576125e784613062565b61260f565b6040516125ff90839083906020016145f5565b6040516020818303038152906040525b949350505050565b7f02dd7bc7dec4dceedda775e58dd541e08a116c6c53815c0bd028192f7b62680090565b6001600160a01b038416612664575f604051632bfa23e760e11b8152600401610ac19190613a44565b6001600160a01b03851661268c575f604051626a0d4560e21b8152600401610ac19190613a44565b6126998585858585613102565b5050505050565b610e9e8133613155565b5f806126b4612617565b90506126c08484611746565b61273f575f848152602082815260408083206001600160a01b03871684529091529020805460ff191660011790556126f53390565b6001600160a01b0316836001600160a01b0316857f2f8788117e7eff1d82e926ec794901d17c78024a50270940304540a733656f0d60405160405180910390a460019150506109b9565b5f9150506109b9565b5f80612752612617565b905061275e8484611746565b1561273f575f848152602082815260408083206001600160a01b0387168085529252808320805460ff1916905551339287917ff6391f5c32d9c69d2a47ea670b442974b53935d1edc7fd64eb21e047a839171b9190a460019150506109b9565b5f80546040516346c1c31160e11b81526004810184905282916001600160a01b031690638d83862290602401608060405180830381865afa158015612805573d5f803e3d5ffd5b505050506040513d601f19601f820116820180604052508101906128299190613fee565b606081015190915015155f036128525760405163f97195bf60e01b815260040160405180910390fd5b5f8054825160405163f2be2c8560e01b81526001600160a01b039092169163f2be2c85916128869160040190815260200190565b5f60405180830381865afa1580156128a0573d5f803e3d5ffd5b505050506040513d5f823e601f3d908101601f191682016040526128c791908101906140a0565b80519091506001600160a01b03166128f2576040516385a6706360e01b815260040160405180910390fd5b505192915050565b612902613180565b5f61290b612b56565b805460ff1916815590507f5db9ee0a495bf2e6ff9c91a7834c1ba4fdd244a5e8aa4e537bd38aeae4b073aa335b6040516129459190613a44565b60405180910390a150565b7ff0c57e16840df040f15088dc2f81fe391c3923bec73e23a9662efc9c229c6a0090565b61297c6131a5565b610e9e816131ca565b61298d6131a5565b565b6129976131a5565b61298d6131db565b306001600160a01b037f0000000000000000000000000000000000000000000000000000000000000000161480612a2557507f00000000000000000000000000000000000000000000000000000000000000006001600160a01b0316612a195f805160206147f2833981519152546001600160a01b031690565b6001600160a01b031614155b1561298d5760405163703e46dd60e11b815260040160405180910390fd5b5f805160206147d28339815191526113f7816126a0565b816001600160a01b03166352d1902d6040518163ffffffff1660e01b8152600401602060405180830381865afa925050508015612ab4575060408051601f3d908101601f19168201909252612ab19181019061449d565b60015b612ad35781604051634c9c8ce360e01b8152600401610ac19190613a44565b5f805160206147f28339815191528114612b0357604051632a87526960e21b815260048101829052602401610ac1565b610b3483836131f7565b306001600160a01b037f0000000000000000000000000000000000000000000000000000000000000000161461298d5760405163703e46dd60e11b815260040160405180910390fd5b7fcd5ed15c6e187e77e9aee88184c21f4f2182ab5827cb3b7e07fbedcd63f0330090565b612b8261324c565b5f612b8b612b56565b805460ff1916600117815590507f62e78cea01bee320cd4e420270b5ea74000d11b0c9f74754ebdbfc544b05a2586129383390565b6040516305d39ac360e51b815260040160405180910390fd5b5f612be2613272565b805490915060011901612c0857604051633ee5aeb560e01b815260040160405180910390fd5b60029055565b5f805460405163f2be2c8560e01b8152600481018490526001600160a01b039091169063f2be2c85906024015f60405180830381865afa158015612c54573d5f803e3d5ffd5b505050506040513d5f823e601f3d908101601f19168201604052612c7b91908101906140a0565b90505f805f9054906101000a90046001600160a01b03166001600160a01b031663c415b95c6040518163ffffffff1660e01b8152600401602060405180830381865afa158015612ccd573d5f803e3d5ffd5b505050506040513d601f19601f82011682018060405250810190612cf191906142a0565b90505f612d0683606001518460a00151613296565b90505f818460600151612d199190614587565b90505f836001600160a01b0316836040515f6040518083038185875af1925050503d805f8114612d64576040519150601f19603f3d011682016040523d82523d5f602084013e612d69565b606091505b50909150508015155f03612d90576040516372f7724f60e01b815260040160405180910390fd5b855f6001600160a01b0386167fdf7cc5ebdb7be805a1d96fd982aba37cbf8e9169d6f34870e8d63a62cd492f643387604051612dcd929190614678565b60405180910390a484516040515f916001600160a01b03169084908381818185875af1925050503d805f8114612e1e576040519150601f19603f3d011682016040523d82523d5f602084013e612e23565b606091505b50909150508015155f03612e4a57604051633b50281160e11b815260040160405180910390fd5b866001875f01516001600160a01b03167fdf7cc5ebdb7be805a1d96fd982aba37cbf8e9169d6f34870e8d63a62cd492f648887604051612e8b929190614678565b60405180910390a450505050505050565b5f612ea561303e565b5f8481526001820160205260409020909150612ec183826143e2565b50827f6bb7ff708619ba0610cba295a58592e0451dee2622938c8755667688daf3529b612eed85610a55565b604051612efa9190613a1b565b60405180910390a2505050565b6001600160a01b038416612f30575f604051632bfa23e760e11b8152600401610ac19190613a44565b5f80612f3c85856132da565b91509150610ad75f87848487613102565b5f612f56613272565b6001905550565b7f88be536d5240c274a3b1d3a1be54482fd9caa294f08c62a7cde569f49a3c450090565b6001600160a01b038416612faa575f604051632bfa23e760e11b8152600401610ac19190613a44565b6001600160a01b038516612fd2575f604051626a0d4560e21b8152600401610ac19190613a44565b5f80612fde85856132da565b915091506113018787848487613102565b5f6001600160e01b03198216636cdb3d1360e11b148061301f57506001600160e01b031982166303a24d0760e21b145b806109b957506301ffc9a760e01b6001600160e01b03198316146109b9565b7f89fc852226e759c7c636cf34d732f0198fc56a54876b2374a52beb7b0c55860090565b60605f61306d612f5d565b905080600201805461307e90614206565b80601f01602080910402602001604051908101604052809291908181526020018280546130aa90614206565b80156130f55780601f106130cc576101008083540402835291602001916130f5565b820191905f5260205f20905b8154815290600101906020018083116130d857829003601f168201915b5050505050915050919050565b61310e85858585613302565b6001600160a01b03841615612699578251339060010361314757602084810151908401516131408389898585896133bf565b5050610ad7565b610ad78187878787876134ce565b61315f8282611746565b6113f757808260405163e2517d3f60e01b8152600401610ac19291906145dc565b613188611416565b61298d57604051638dfc202b60e01b815260040160405180910390fd5b6131ad6135ac565b61298d57604051631afcd79f60e31b815260040160405180910390fd5b6131d26131a5565b610e9e816135c5565b6131e36131a5565b5f6131ec612b56565b805460ff1916905550565b613200826135de565b6040516001600160a01b038316907fbc7cd75a20ee27fd9adebab32041f755214dbc6bffa90cc0225b39da2e5c2d3b905f90a280511561324457610b348282613638565b6113f76136a1565b613254611416565b1561298d5760405163d93c066560e01b815260040160405180910390fd5b7f9b779b17422d0df92223018b32b4d1fa46e071723d6817e2486d003becc55f0090565b5f6127106132a483856146ab565b10156132c357604051633032107560e21b815260040160405180910390fd5b6127106132d083856146ab565b61240291906146c2565b6040805160018082526020820194909452808201938452606081019290925260808201905291565b61330a61324c565b5f80546040516301719d2b60e01b81526001600160a01b03909116906301719d2b9061333a908890600401613a44565b606060405180830381865afa158015613355573d5f803e3d5ffd5b505050506040513d601f19601f82011682018060405250810190613379919061417c565b90506001600160a01b0385161580159061339557506040810151155b156133b3576040516305d39ac360e51b815260040160405180910390fd5b612699858585856136c0565b6001600160a01b0384163b15610ad75760405163f23a6e6160e01b81526001600160a01b0385169063f23a6e619061340390899089908890889088906004016146e1565b6020604051808303815f875af192505050801561343d575060408051601f3d908101601f1916820190925261343a9181019061471a565b60015b61349b573d80801561346a576040519150601f19603f3d011682016040523d82523d5f602084013e61346f565b606091505b5080515f036134935784604051632bfa23e760e11b8152600401610ac19190613a44565b805181602001fd5b6001600160e01b0319811663f23a6e6160e01b146113015784604051632bfa23e760e11b8152600401610ac19190613a44565b6001600160a01b0384163b15610ad75760405163bc197c8160e01b81526001600160a01b0385169063bc197c81906135129089908990889088908890600401614735565b6020604051808303815f875af192505050801561354c575060408051601f3d908101601f191682019092526135499181019061471a565b60015b613579573d80801561346a576040519150601f19603f3d011682016040523d82523d5f602084013e61346f565b6001600160e01b0319811663bc197c8160e01b146113015784604051632bfa23e760e11b8152600401610ac19190613a44565b5f6135b5612950565b54600160401b900460ff16919050565b5f6135ce612f5d565b905060028101610b3483826143e2565b806001600160a01b03163b5f0361360a5780604051634c9c8ce360e01b8152600401610ac19190613a44565b5f805160206147f283398151915280546001600160a01b0319166001600160a01b0392909216919091179055565b60605f80846001600160a01b0316846040516136549190614792565b5f60405180830381855af49150503d805f811461368c576040519150601f19603f3d011682016040523d82523d5f602084013e613691565b606091505b50915091506115b18583836138e4565b341561298d5760405163b398979f60e01b815260040160405180910390fd5b5f6136c9612f5d565b905081518351146136fa5782518251604051635b05999160e01b815260048101929092526024820152604401610ac1565b335f5b8451811015613805576020818102868101820151908601909101516001600160a01b038916156137ae575f828152602086815260408083206001600160a01b038d16845290915290205481811015613788576040516303dee4c560e01b81526001600160a01b038b166004820152602481018290526044810183905260648101849052608401610ac1565b5f838152602087815260408083206001600160a01b038e16845290915290209082900390555b6001600160a01b038816156137f2575f828152602086815260408083206001600160a01b038c168452909152812080548392906137ec9084906144b4565b90915550505b5050806137fe90614385565b90506136fd565b5083516001036138855760208401515f906020850151909150866001600160a01b0316886001600160a01b0316846001600160a01b03167fc3d58168c5ae7397731d063d5bbf3d657854427343f4c083240f7aacaa2d0f628585604051613876929190918252602082015260400190565b60405180910390a45050610ad7565b846001600160a01b0316866001600160a01b0316826001600160a01b03167f4a39dc06d4c0dbc64b70af90fd698a233a518aa5d07e595d983b8c0526c8f7fb87876040516138d49291906147ad565b60405180910390a4505050505050565b6060826138f9576138f482613937565b612402565b815115801561391057506001600160a01b0384163b155b156139305783604051639996b31560e01b8152600401610ac19190613a44565b5092915050565b8051156139475780518082602001fd5b604051630a12f52160e11b815260040160405180910390fd5b6001600160a01b0381168114610e9e575f80fd5b5f8060408385031215613985575f80fd5b823561399081613960565b946020939093013593505050565b6001600160e01b031981168114610e9e575f80fd5b5f602082840312156139c3575f80fd5b81356124028161399e565b5f5b838110156139e85781810151838201526020016139d0565b50505f910152565b5f8151808452613a078160208601602086016139ce565b601f01601f19169290920160200192915050565b602081525f61240260208301846139f0565b5f60208284031215613a3d575f80fd5b5035919050565b6001600160a01b0391909116815260200190565b634e487b7160e01b5f52604160045260245ffd5b60405161010081016001600160401b0381118282101715613a8f57613a8f613a58565b60405290565b60405160a081016001600160401b0381118282101715613a8f57613a8f613a58565b604051601f8201601f191681016001600160401b0381118282101715613adf57613adf613a58565b604052919050565b5f6001600160401b03821115613aff57613aff613a58565b5060051b60200190565b5f82601f830112613b18575f80fd5b81356020613b2d613b2883613ae7565b613ab7565b82815260059290921b84018101918181019086841115613b4b575f80fd5b8286015b84811015613b665780358352918301918301613b4f565b509695505050505050565b5f6001600160401b03821115613b8957613b89613a58565b50601f01601f191660200190565b5f613ba4613b2884613b71565b9050828152838383011115613bb7575f80fd5b828260208301375f602084830101529392505050565b5f82601f830112613bdc575f80fd5b61240283833560208501613b97565b5f805f805f60a08688031215613bff575f80fd5b8535613c0a81613960565b94506020860135613c1a81613960565b935060408601356001600160401b0380821115613c35575f80fd5b613c4189838a01613b09565b94506060880135915080821115613c56575f80fd5b613c6289838a01613b09565b93506080880135915080821115613c77575f80fd5b50613c8488828901613bcd565b9150509295509295909350565b5f8060408385031215613ca2575f80fd5b823591506020830135613cb481613960565b809150509250929050565b5f805f60408486031215613cd1575f80fd5b8335925060208401356001600160401b0380821115613cee575f80fd5b818601915086601f830112613d01575f80fd5b813581811115613d0f575f80fd5b876020828501011115613d20575f80fd5b6020830194508093505050509250925092565b5f8060408385031215613d44575f80fd5b8235613d4f81613960565b91506020830135613cb481613960565b5f8060408385031215613d70575f80fd5b82356001600160401b0380821115613d86575f80fd5b818501915085601f830112613d99575f80fd5b81356020613da9613b2883613ae7565b82815260059290921b84018101918181019089841115613dc7575f80fd5b948201945b83861015613dee578535613ddf81613960565b82529482019490820190613dcc565b96505086013592505080821115613e03575f80fd5b50613e1085828601613b09565b9150509250929050565b5f8151808452602080850194508084015f5b83811015613e4857815187529582019590820190600101613e2c565b509495945050505050565b602081525f6124026020830184613e1a565b5f8060408385031215613e76575f80fd5b8235613e8181613960565b915060208301356001600160401b03811115613e9b575f80fd5b613e1085828601613bcd565b8015158114610e9e575f80fd5b5f8060408385031215613ec5575f80fd5b8235613ed081613960565b91506020830135613cb481613ea7565b5f805f8060808587031215613ef3575f80fd5b843593506020850135613f0581613960565b925060408501356001600160401b0380821115613f20575f80fd5b818701915087601f830112613f33575f80fd5b613f4288833560208501613b97565b93506060870135915080821115613f57575f80fd5b50613f6487828801613bcd565b91505092959194509250565b5f805f805f60a08688031215613f84575f80fd5b8535613f8f81613960565b94506020860135613f9f81613960565b9350604086013592506060860135915060808601356001600160401b03811115613fc7575f80fd5b613c8488828901613bcd565b8051613fde81613960565b919050565b8051613fde81613ea7565b5f60808284031215613ffe575f80fd5b604051608081018181106001600160401b038211171561402057614020613a58565b60405282518152602083015161403581613960565b602082015260408381015190820152606083015161405281613ea7565b60608201529392505050565b5f82601f83011261406d575f80fd5b815161407b613b2882613b71565b81815284602083860101111561408f575f80fd5b61260f8260208301602087016139ce565b5f602082840312156140b0575f80fd5b81516001600160401b03808211156140c6575f80fd5b9083019061010082860312156140da575f80fd5b6140e2613a6c565b6140eb83613fd3565b81526020830151828111156140fe575f80fd5b61410a8782860161405e565b60208301525061411c60408401613fe3565b6040820152606083015160608201526080830151608082015260a083015160a082015261414b60c08401613fe3565b60c082015260e083015182811115614161575f80fd5b61416d8782860161405e565b60e08301525095945050505050565b5f6060828403121561418c575f80fd5b604051606081018181106001600160401b03821117156141ae576141ae613a58565b60405282516141bc81613960565b815260208301516141cc81613ea7565b602082015260408301516141df81613ea7565b60408201529392505050565b5f602082840312156141fb575f80fd5b815161240281613ea7565b600181811c9082168061421a57607f821691505b60208210810361423857634e487b7160e01b5f52602260045260245ffd5b50919050565b6001600160a01b0392831681529116602082015260400190565b84815260606020820152826060820152828460808301375f8184016080908101919091526001600160a01b03929092166040820152601f909201601f19169091010192915050565b5f602082840312156142b0575f80fd5b815161240281613960565b9182526001600160a01b0316602082015260400190565b5f60208083850312156142e3575f80fd5b82516001600160401b038111156142f8575f80fd5b8301601f81018513614308575f80fd5b8051614316613b2882613ae7565b81815260059190911b82018301908381019087831115614334575f80fd5b928401925b8284101561435257835182529284019290840190614339565b979650505050505050565b634e487b7160e01b5f52603260045260245ffd5b634e487b7160e01b5f52601160045260245ffd5b5f6001820161439657614396614371565b5060010190565b601f821115610b34575f81815260208120601f850160051c810160208610156143c35750805b601f850160051c820191505b81811015610ad7578281556001016143cf565b81516001600160401b038111156143fb576143fb613a58565b61440f816144098454614206565b8461439d565b602080601f831160018114614442575f841561442b5750858301515b5f19600386901b1c1916600185901b178555610ad7565b5f85815260208120601f198616915b8281101561447057888601518255948401946001909101908401614451565b508582101561448d57878501515f19600388901b60f8161c191681555b5050505050600190811b01905550565b5f602082840312156144ad575f80fd5b5051919050565b808201808211156109b9576109b9614371565b5f602082840312156144d7575f80fd5b81516001600160401b03808211156144ed575f80fd5b9083019060a08286031215614500575f80fd5b614508613a95565b825182811115614516575f80fd5b6145228782860161405e565b8252506020830151915061453582613ea7565b8160208201526040830151915061454b82613ea7565b8160408201526060830151915061456182613ea7565b8160608201526080830151925061457783613ea7565b6080810192909252509392505050565b818103818111156109b9576109b9614371565b5f60018060a01b03808816835286602084015285604084015260a060608401526145c760a08401866139f0565b91508084166080840152509695505050505050565b6001600160a01b03929092168252602082015260400190565b5f80845461460281614206565b6001828116801561461a576001811461462f5761465b565b60ff198416875282151583028701945061465b565b885f526020805f205f5b858110156146525781548a820152908401908201614639565b50505082870194505b50505050835161466f8183602088016139ce565b01949350505050565b6001600160a01b03929092168252602082015260606040820181905260029082015261060f60f31b608082015260a00190565b80820281158282048414176109b9576109b9614371565b5f826146dc57634e487b7160e01b5f52601260045260245ffd5b500490565b6001600160a01b03868116825285166020820152604081018490526060810183905260a0608082018190525f90614352908301846139f0565b5f6020828403121561472a575f80fd5b81516124028161399e565b6001600160a01b0386811682528516602082015260a0604082018190525f9061476090830186613e1a565b82810360608401526147728186613e1a565b9050828103608084015261478681856139f0565b98975050505050505050565b5f82516147a38184602087016139ce565b9190910192915050565b604081525f6147bf6040830185613e1a565b82810360208401526115b18185613e1a56fe189ab7a9244df0848122154315af71fe140f3db0fe014031783b0946b8c9d2e3360894a13ba1a3210667c828492db98dca3e2076cc3735a920a3ca505d382bbc65d7a28e3265b37a6474929f336521b332c1681b933f6cb9f3376673440d862aa264697066735822122067c8467b68898c3639f301a3a09e301c0b5a456a8cbf848f427472a669b8dc5864736f6c63430008140033",
  "linkReferences": {},
  "deployedLinkReferences": {}
}