{
  "_format": "hh-sol-artifact-1",
  "contractName": "TheBadgeUsers",
  "sourceName": "src/contracts/thebadge/TheBadgeUsers.sol",
  "abi": [
    {
      "inputs": [],
      "stateMutability": "nonpayable",
      "type": "constructor"
    },
    {
      "inputs": [],
      "name": "AccessControlBadConfirmation",
      "type": "error"
    },
    {
      "inputs": [
        {
          "internalType": "address",
          "name": "account",
          "type": "address"
        },
        {
          "internalType": "bytes32",
          "name": "neededRole",
          "type": "bytes32"
        }
      ],
      "name": "AccessControlUnauthorizedAccount",
      "type": "error"
    },
    {
      "inputs": [],
      "name": "InvalidInitialization",
      "type": "error"
    },
    {
      "inputs": [],
      "name": "NotInitializing",
      "type": "error"
    },
    {
      "inputs": [
        {
          "internalType": "address",
          "name": "owner",
          "type": "address"
        }
      ],
      "name": "OwnableInvalidOwner",
      "type": "error"
    },
    {
      "inputs": [
        {
          "internalType": "address",
          "name": "account",
          "type": "address"
        }
      ],
      "name": "OwnableUnauthorizedAccount",
      "type": "error"
    },
    {
      "inputs": [],
      "name": "ReentrancyGuardReentrantCall",
      "type": "error"
    },
    {
      "inputs": [],
      "name": "TheBadge__controller_controllerIsPaused",
      "type": "error"
    },
    {
      "inputs": [],
      "name": "TheBadge__controller_invalidController",
      "type": "error"
    },
    {
      "inputs": [],
      "name": "TheBadge__onlyCreator_senderIsAlreadyACreator",
      "type": "error"
    },
    {
      "inputs": [],
      "name": "TheBadge__onlyUser_userNotFound",
      "type": "error"
    },
    {
      "inputs": [],
      "name": "TheBadge__registerUser_alreadyRegistered",
      "type": "error"
    },
    {
      "inputs": [],
      "name": "TheBadge__registerUser_wrongValue",
      "type": "error"
    },
    {
      "inputs": [],
      "name": "TheBadge__updateUser_notFound",
      "type": "error"
    },
    {
      "inputs": [],
      "name": "TheBadge__updateUser_wrongMetadata",
      "type": "error"
    },
    {
      "inputs": [],
      "name": "TheBadge__users__onlyCreator_creatorIsSuspended",
      "type": "error"
    },
    {
      "inputs": [],
      "name": "TheBadge__verifyUser__userVerificationAlreadyStarted",
      "type": "error"
    },
    {
      "inputs": [],
      "name": "TheBadge__verifyUser__userVerificationNotStarted",
      "type": "error"
    },
    {
      "inputs": [],
      "name": "TheBadge__verifyUser_verificationProtocolFeesPaymentFailed",
      "type": "error"
    },
    {
      "inputs": [],
      "name": "TheBadge__verifyUser_wrongValue",
      "type": "error"
    },
    {
      "anonymous": false,
      "inputs": [
        {
          "indexed": true,
          "internalType": "address",
          "name": "admin",
          "type": "address"
        }
      ],
      "name": "Initialize",
      "type": "event"
    },
    {
      "anonymous": false,
      "inputs": [
        {
          "indexed": false,
          "internalType": "uint64",
          "name": "version",
          "type": "uint64"
        }
      ],
      "name": "Initialized",
      "type": "event"
    },
    {
      "anonymous": false,
      "inputs": [
        {
          "indexed": true,
          "internalType": "address",
          "name": "previousOwner",
          "type": "address"
        },
        {
          "indexed": true,
          "internalType": "address",
          "name": "newOwner",
          "type": "address"
        }
      ],
      "name": "OwnershipTransferred",
      "type": "event"
    },
    {
      "anonymous": false,
      "inputs": [
        {
          "indexed": true,
          "internalType": "address",
          "name": "recipient",
          "type": "address"
        },
        {
          "indexed": false,
          "internalType": "address",
          "name": "payer",
          "type": "address"
        },
        {
          "indexed": false,
          "internalType": "uint256",
          "name": "amount",
          "type": "uint256"
        },
        {
          "indexed": true,
          "internalType": "enum LibTheBadge.PaymentType",
          "name": "paymentType",
          "type": "uint8"
        },
        {
          "indexed": true,
          "internalType": "uint256",
          "name": "badgeModelId",
          "type": "uint256"
        },
        {
          "indexed": false,
          "internalType": "string",
          "name": "controllerName",
          "type": "string"
        }
      ],
      "name": "PaymentMade",
      "type": "event"
    },
    {
      "anonymous": false,
      "inputs": [],
      "name": "ProtocolSettingsUpdated",
      "type": "event"
    },
    {
      "anonymous": false,
      "inputs": [
        {
          "indexed": true,
          "internalType": "bytes32",
          "name": "role",
          "type": "bytes32"
        },
        {
          "indexed": true,
          "internalType": "bytes32",
          "name": "previousAdminRole",
          "type": "bytes32"
        },
        {
          "indexed": true,
          "internalType": "bytes32",
          "name": "newAdminRole",
          "type": "bytes32"
        }
      ],
      "name": "RoleAdminChanged",
      "type": "event"
    },
    {
      "anonymous": false,
      "inputs": [
        {
          "indexed": true,
          "internalType": "bytes32",
          "name": "role",
          "type": "bytes32"
        },
        {
          "indexed": true,
          "internalType": "address",
          "name": "account",
          "type": "address"
        },
        {
          "indexed": true,
          "internalType": "address",
          "name": "sender",
          "type": "address"
        }
      ],
      "name": "RoleGranted",
      "type": "event"
    },
    {
      "anonymous": false,
      "inputs": [
        {
          "indexed": true,
          "internalType": "bytes32",
          "name": "role",
          "type": "bytes32"
        },
        {
          "indexed": true,
          "internalType": "address",
          "name": "account",
          "type": "address"
        },
        {
          "indexed": true,
          "internalType": "address",
          "name": "sender",
          "type": "address"
        }
      ],
      "name": "RoleRevoked",
      "type": "event"
    },
    {
      "anonymous": false,
      "inputs": [
        {
          "indexed": true,
          "internalType": "address",
          "name": "userAddress",
          "type": "address"
        },
        {
          "indexed": false,
          "internalType": "string",
          "name": "metadata",
          "type": "string"
        },
        {
          "indexed": false,
          "internalType": "bool",
          "name": "suspended",
          "type": "bool"
        },
        {
          "indexed": false,
          "internalType": "bool",
          "name": "isCreator",
          "type": "bool"
        },
        {
          "indexed": false,
          "internalType": "bool",
          "name": "deleted",
          "type": "bool"
        }
      ],
      "name": "UpdatedUser",
      "type": "event"
    },
    {
      "anonymous": false,
      "inputs": [
        {
          "indexed": true,
          "internalType": "address",
          "name": "user",
          "type": "address"
        },
        {
          "indexed": false,
          "internalType": "string",
          "name": "metadata",
          "type": "string"
        }
      ],
      "name": "UserRegistered",
      "type": "event"
    },
    {
      "anonymous": false,
      "inputs": [
        {
          "indexed": true,
          "internalType": "address",
          "name": "user",
          "type": "address"
        },
        {
          "indexed": false,
          "internalType": "string",
          "name": "controllerName",
          "type": "string"
        },
        {
          "indexed": false,
          "internalType": "bool",
          "name": "verify",
          "type": "bool"
        }
      ],
      "name": "UserVerificationExecuted",
      "type": "event"
    },
    {
      "anonymous": false,
      "inputs": [
        {
          "indexed": true,
          "internalType": "address",
          "name": "user",
          "type": "address"
        },
        {
          "indexed": false,
          "internalType": "string",
          "name": "metadata",
          "type": "string"
        },
        {
          "indexed": false,
          "internalType": "string",
          "name": "controllerName",
          "type": "string"
        }
      ],
      "name": "UserVerificationRequested",
      "type": "event"
    },
    {
      "inputs": [],
      "name": "CLAIMER_ROLE",
      "outputs": [
        {
          "internalType": "bytes32",
          "name": "",
          "type": "bytes32"
        }
      ],
      "stateMutability": "view",
      "type": "function"
    },
    {
      "inputs": [],
      "name": "DEFAULT_ADMIN_ROLE",
      "outputs": [
        {
          "internalType": "bytes32",
          "name": "",
          "type": "bytes32"
        }
      ],
      "stateMutability": "view",
      "type": "function"
    },
    {
      "inputs": [],
      "name": "PAUSER_ROLE",
      "outputs": [
        {
          "internalType": "bytes32",
          "name": "",
          "type": "bytes32"
        }
      ],
      "stateMutability": "view",
      "type": "function"
    },
    {
      "inputs": [],
      "name": "UPGRADER_ROLE",
      "outputs": [
        {
          "internalType": "bytes32",
          "name": "",
          "type": "bytes32"
        }
      ],
      "stateMutability": "view",
      "type": "function"
    },
    {
      "inputs": [],
      "name": "URI_SETTER_ROLE",
      "outputs": [
        {
          "internalType": "bytes32",
          "name": "",
          "type": "bytes32"
        }
      ],
      "stateMutability": "view",
      "type": "function"
    },
    {
      "inputs": [],
      "name": "USER_MANAGER_ROLE",
      "outputs": [
        {
          "internalType": "bytes32",
          "name": "",
          "type": "bytes32"
        }
      ],
      "stateMutability": "view",
      "type": "function"
    },
    {
      "inputs": [],
      "name": "VERIFIER_ROLE",
      "outputs": [
        {
          "internalType": "bytes32",
          "name": "",
          "type": "bytes32"
        }
      ],
      "stateMutability": "view",
      "type": "function"
    },
    {
      "inputs": [],
      "name": "_badgeStore",
      "outputs": [
        {
          "internalType": "contract TheBadgeStore",
          "name": "",
          "type": "address"
        }
      ],
      "stateMutability": "view",
      "type": "function"
    },
    {
      "inputs": [],
      "name": "_badgeUsersStore",
      "outputs": [
        {
          "internalType": "contract TheBadgeUsersStore",
          "name": "",
          "type": "address"
        }
      ],
      "stateMutability": "view",
      "type": "function"
    },
    {
      "inputs": [
        {
          "internalType": "address",
          "name": "_user",
          "type": "address"
        },
        {
          "internalType": "string",
          "name": "controllerName",
          "type": "string"
        },
        {
          "internalType": "bool",
          "name": "verify",
          "type": "bool"
        }
      ],
      "name": "executeUserVerification",
      "outputs": [],
      "stateMutability": "nonpayable",
      "type": "function"
    },
    {
      "inputs": [],
      "name": "getRegisterFee",
      "outputs": [
        {
          "internalType": "uint256",
          "name": "",
          "type": "uint256"
        }
      ],
      "stateMutability": "view",
      "type": "function"
    },
    {
      "inputs": [
        {
          "internalType": "bytes32",
          "name": "role",
          "type": "bytes32"
        }
      ],
      "name": "getRoleAdmin",
      "outputs": [
        {
          "internalType": "bytes32",
          "name": "",
          "type": "bytes32"
        }
      ],
      "stateMutability": "view",
      "type": "function"
    },
    {
      "inputs": [
        {
          "internalType": "address",
          "name": "userAddress",
          "type": "address"
        }
      ],
      "name": "getUser",
      "outputs": [
        {
          "components": [
            {
              "internalType": "string",
              "name": "metadata",
              "type": "string"
            },
            {
              "internalType": "bool",
              "name": "isCompany",
              "type": "bool"
            },
            {
              "internalType": "bool",
              "name": "isCreator",
              "type": "bool"
            },
            {
              "internalType": "bool",
              "name": "suspended",
              "type": "bool"
            },
            {
              "internalType": "bool",
              "name": "initialized",
              "type": "bool"
            }
          ],
          "internalType": "struct TheBadgeUsersStore.User",
          "name": "",
          "type": "tuple"
        }
      ],
      "stateMutability": "view",
      "type": "function"
    },
    {
      "inputs": [
        {
          "internalType": "address",
          "name": "controllerAddress",
          "type": "address"
        },
        {
          "internalType": "address",
          "name": "userAddress",
          "type": "address"
        }
      ],
      "name": "getUserVerifyStatus",
      "outputs": [
        {
          "components": [
            {
              "internalType": "address",
              "name": "user",
              "type": "address"
            },
            {
              "internalType": "string",
              "name": "userMetadata",
              "type": "string"
            },
            {
              "internalType": "string",
              "name": "verificationEvidence",
              "type": "string"
            },
            {
              "internalType": "enum LibTheBadgeUsers.VerificationStatus",
              "name": "verificationStatus",
              "type": "uint8"
            },
            {
              "internalType": "address",
              "name": "verificationController",
              "type": "address"
            },
            {
              "internalType": "bool",
              "name": "initialized",
              "type": "bool"
            }
          ],
          "internalType": "struct TheBadgeUsersStore.UserVerification",
          "name": "",
          "type": "tuple"
        }
      ],
      "stateMutability": "view",
      "type": "function"
    },
    {
      "inputs": [
        {
          "internalType": "string",
          "name": "controllerName",
          "type": "string"
        }
      ],
      "name": "getVerificationFee",
      "outputs": [
        {
          "internalType": "uint256",
          "name": "",
          "type": "uint256"
        }
      ],
      "stateMutability": "view",
      "type": "function"
    },
    {
      "inputs": [
        {
          "internalType": "bytes32",
          "name": "role",
          "type": "bytes32"
        },
        {
          "internalType": "address",
          "name": "account",
          "type": "address"
        }
      ],
      "name": "grantRole",
      "outputs": [],
      "stateMutability": "nonpayable",
      "type": "function"
    },
    {
      "inputs": [
        {
          "internalType": "bytes32",
          "name": "role",
          "type": "bytes32"
        },
        {
          "internalType": "address",
          "name": "account",
          "type": "address"
        }
      ],
      "name": "hasRole",
      "outputs": [
        {
          "internalType": "bool",
          "name": "",
          "type": "bool"
        }
      ],
      "stateMutability": "view",
      "type": "function"
    },
    {
      "inputs": [
        {
          "internalType": "address",
          "name": "admin",
          "type": "address"
        },
        {
          "internalType": "address",
          "name": "badgeStore",
          "type": "address"
        },
        {
          "internalType": "address",
          "name": "badgeUsersStore",
          "type": "address"
        }
      ],
      "name": "initialize",
      "outputs": [],
      "stateMutability": "nonpayable",
      "type": "function"
    },
    {
      "inputs": [
        {
          "internalType": "address",
          "name": "_user",
          "type": "address"
        },
        {
          "internalType": "string",
          "name": "controllerName",
          "type": "string"
        }
      ],
      "name": "isUserVerified",
      "outputs": [
        {
          "internalType": "bool",
          "name": "",
          "type": "bool"
        }
      ],
      "stateMutability": "view",
      "type": "function"
    },
    {
      "inputs": [
        {
          "internalType": "address",
          "name": "_userAddress",
          "type": "address"
        }
      ],
      "name": "makeUserCreator",
      "outputs": [],
      "stateMutability": "nonpayable",
      "type": "function"
    },
    {
      "inputs": [],
      "name": "owner",
      "outputs": [
        {
          "internalType": "address",
          "name": "",
          "type": "address"
        }
      ],
      "stateMutability": "view",
      "type": "function"
    },
    {
      "inputs": [
        {
          "internalType": "string",
          "name": "_metadata",
          "type": "string"
        },
        {
          "internalType": "bool",
          "name": "_isCompany",
          "type": "bool"
        }
      ],
      "name": "registerUser",
      "outputs": [],
      "stateMutability": "payable",
      "type": "function"
    },
    {
      "inputs": [],
      "name": "renounceOwnership",
      "outputs": [],
      "stateMutability": "nonpayable",
      "type": "function"
    },
    {
      "inputs": [
        {
          "internalType": "bytes32",
          "name": "role",
          "type": "bytes32"
        },
        {
          "internalType": "address",
          "name": "callerConfirmation",
          "type": "address"
        }
      ],
      "name": "renounceRole",
      "outputs": [],
      "stateMutability": "nonpayable",
      "type": "function"
    },
    {
      "inputs": [
        {
          "internalType": "bytes32",
          "name": "role",
          "type": "bytes32"
        },
        {
          "internalType": "address",
          "name": "account",
          "type": "address"
        }
      ],
      "name": "revokeRole",
      "outputs": [],
      "stateMutability": "nonpayable",
      "type": "function"
    },
    {
      "inputs": [
        {
          "internalType": "string",
          "name": "controllerName",
          "type": "string"
        },
        {
          "internalType": "string",
          "name": "evidenceUri",
          "type": "string"
        }
      ],
      "name": "submitUserVerification",
      "outputs": [],
      "stateMutability": "payable",
      "type": "function"
    },
    {
      "inputs": [
        {
          "internalType": "address",
          "name": "userToVerify",
          "type": "address"
        },
        {
          "internalType": "string",
          "name": "controllerName",
          "type": "string"
        },
        {
          "internalType": "string",
          "name": "evidenceUri",
          "type": "string"
        }
      ],
      "name": "submitUserVerification",
      "outputs": [],
      "stateMutability": "payable",
      "type": "function"
    },
    {
      "inputs": [
        {
          "internalType": "bytes4",
          "name": "interfaceId",
          "type": "bytes4"
        }
      ],
      "name": "supportsInterface",
      "outputs": [
        {
          "internalType": "bool",
          "name": "",
          "type": "bool"
        }
      ],
      "stateMutability": "view",
      "type": "function"
    },
    {
      "inputs": [
        {
          "internalType": "address",
          "name": "_userAddress",
          "type": "address"
        },
        {
          "internalType": "bool",
          "name": "suspended",
          "type": "bool"
        }
      ],
      "name": "suspendUser",
      "outputs": [],
      "stateMutability": "nonpayable",
      "type": "function"
    },
    {
      "inputs": [
        {
          "internalType": "address",
          "name": "newOwner",
          "type": "address"
        }
      ],
      "name": "transferOwnership",
      "outputs": [],
      "stateMutability": "nonpayable",
      "type": "function"
    },
    {
      "inputs": [
        {
          "internalType": "string",
          "name": "_metadata",
          "type": "string"
        }
      ],
      "name": "updateProfile",
      "outputs": [],
      "stateMutability": "nonpayable",
      "type": "function"
    },
    {
      "inputs": [
        {
          "internalType": "uint256",
          "name": "_registerCreatorValue",
          "type": "uint256"
        }
      ],
      "name": "updateRegisterCreatorProtocolFee",
      "outputs": [],
      "stateMutability": "nonpayable",
      "type": "function"
    },
    {
      "inputs": [
        {
          "internalType": "address",
          "name": "_userAddress",
          "type": "address"
        },
        {
          "internalType": "string",
          "name": "_metadata",
          "type": "string"
        }
      ],
      "name": "updateUser",
      "outputs": [],
      "stateMutability": "nonpayable",
      "type": "function"
    },
    {
      "stateMutability": "payable",
      "type": "receive"
    }
  ],
  "bytecode": "0x608080604052346100b9577ff0c57e16840df040f15088dc2f81fe391c3923bec73e23a9662efc9c229c6a009081549060ff8260401c166100aa57506001600160401b036002600160401b031982821601610065575b604051612be19081620000be8239f35b6001600160401b031990911681179091556040519081527fc7f505b2f371ae2175ee4913f4499e1f2633a7b5936321eed1cdaeb6115181d290602090a15f8080610055565b63f92ee8a960e01b8152600490fd5b5f80fdfe6040608081526004908136101561001f575b5050361561001d575f80fd5b005b5f91823560e01c9081629299e3146119ea57816301ffc9a71461199457816319b50c2a1461196c5781631b6cd667146117eb578163248a9ca3146117b45781632acb0301146116e35781632f2ff15d146116b957816332a58e791461162e57816336568abe146115e85781635c3736f11461147e5781636f77926b146113d257816370c5a256146113a9578163715018a61461134057816379b233db1461108b5781637f345710146110505781638a4be49014610f095781638da5cb5b14610ed457816391d1485414610e84578163a217fddf14610e69578163a41e35c314610e41578163b088981914610d04578163b5a867fa14610b49578163c0c53b8b14610986578163c1b8c5f114610652578163d3fc8d4014610579578163d547741f1461052d578163e63ab1e914610505578163e71de0481461034d578163e7705db614610325578163f1fe717e1461023857508063f2fde38b14610208578063f72c0d8b146101ce5763fc5f18d30361001157346101ca57816003193601126101ca57602090517f11a8cb5a02bd6c42679835e867ef2118ba78f088f8300511420c6603c21d9c788152f35b5080fd5b50346101ca57816003193601126101ca57602090517f189ab7a9244df0848122154315af71fe140f3db0fe014031783b0946b8c9d2e38152f35b823461023557602036600319011261023557610232610225611c31565b61022d61226d565b6122a5565b80f35b80fd5b91905034610321576020366003190112610321575f80525f80516020612b4c833981519152602052805f20335f5260205260ff815f205416156103045760015483926001600160a01b039091169190823b156102ff57839260248492845195869384926378ff38bf60e11b84528035908401525af19081156102f657506102e2575b50807f810f1720fbc34c56d171f89315ad21708648fd17424c27b88fa208409845aa7791a180f35b6102eb90611b3c565b61023557805f6102ba565b513d84823e3d90fd5b505050fd5b60449250519063e2517d3f60e01b825233908201525f6024820152fd5b8280fd5b5050346101ca57816003193601126101ca57602090515f80516020612b8c8339815191528152f35b8383346101ca57602092836003193601126103215780356001600160401b0381116105015761037f9036908301611bd5565b83548351631c2e21b960e11b8082528482018890526001600160a01b0393606093909290851691908481806103b76024820188611cb9565b0381865afa9081156104f75789916104da575b5085815116156104ca5787810151156104ca578901516104ba5791839161040493885180958194829383528d8b8401526024830190611cb9565b03915afa9182156104b05790879392918792610483575b50505116835192838092637657dbdd60e01b82525afa9283156104785792610445575b5051908152f35b9091508281813d8311610471575b61045d8183611b99565b8101031261046d5751908361043e565b5f80fd5b503d610453565b8251903d90823e3d90fd5b6104a29250803d106104a9575b61049a8183611b99565b810190612518565b878061041b565b503d610490565b85513d88823e3d90fd5b865163526e73a560e01b81528690fd5b875163014eb98760e11b81528790fd5b6104f19150853d87116104a95761049a8183611b99565b8a6103ca565b88513d8b823e3d90fd5b8380fd5b5050346101ca57816003193601126101ca57602090515f80516020612b2c8339815191528152f35b9190503461032157806003193601126103215761057591356105706001610552611c1b565b938387525f80516020612b4c83398151915260205286200154611e5a565b6121ed565b5080f35b91905034610321578281600319360112610235576105f592610599611c31565b906105a2611c1b565b918360a086516105b181611b7e565b82815260606020820152606088820152826060820152826080820152015260018060a01b03600154169185519687948593849363034ff23560e61b855284016124fe565b03915afa918215610648578361061f9493610623575b505051918291602083526020830190611d45565b0390f35b6106409293503d8091833e6106388183611b99565b81019061244c565b905f8061060b565b81513d85823e3d90fd5b905034610321576060806003193601126105015761066e611c31565b926024356001600160401b0381116109825761068d9036908501611bd5565b91604435938415159485810361046d576106a5611e12565b87548451631c2e21b960e11b808252602085830152986001600160a01b0392831693918681806106d8602482018d611cb9565b0381885afa908115610978578c9161095b575b50838151161561094b57878101511561094b576020015161093b5782600154169387519a636f77926b60e01b8c528c8584169c8d8982015281816024818b5afa91821561093057809261090d575b5050805151156108fd5788015115156001146108ed578760208e9493898d946107738e519687958694859485528401526024830190611cb9565b03915afa9788156108e35783986108bc575b50508651885163034ff23560e61b81529291839182916107a99188168a84016124fe565b0381875afa9081156108b2579060a0918c91610898575b500151156108885789949392919015610880576001935b511690803b156108725784928360649261080e89519788968795632861626f60e11b87528601528d60248601526044850190611d24565b5af180156108765761085e575b50507fdea1140938dde90016dc539563f1fa2f3f675e2cdee8d0c6a7999e1830cc81be926108528251938385948552840190611cb9565b9060208301520390a280f35b61086790611b3c565b61087257845f61081b565b8480fd5b83513d84823e3d90fd5b6002936107d7565b85516380a3685160e01b81528490fd5b6108ac91503d808e833e6106388183611b99565b5f6107c0565b87513d8d823e3d90fd5b6107a99392985090816108da92903d106104a95761049a8183611b99565b9690915f610785565b89513d85823e3d90fd5b885163e9dc308560e01b81528790fd5b895163ce848fe360e01b81528890fd5b61092992503d8091833e6109218183611b99565b8101906123a6565b5f8e610739565b8b51903d90823e3d90fd5b865163526e73a560e01b81528590fd5b875163014eb98760e11b81528690fd5b6109729150873d89116104a95761049a8183611b99565b5f6106eb565b88513d8e823e3d90fd5b8580fd5b91905034610321576060366003190112610321576109a2611c31565b916109ab611c1b565b916001600160a01b03906044358281169081900361046d577ff0c57e16840df040f15088dc2f81fe391c3923bec73e23a9662efc9c229c6a0094855460ff81851c1615956001600160401b03821680159081610b41575b6001149081610b37575b159081610b2e575b50610b20575067ffffffffffffffff198116600117875585610b01575b50610a3a612316565b610a42612316565b610a4b876122a5565b610a5487611e88565b50610a5e87611f13565b50610a6887611fad565b50610a7287612041565b50610a7c876120e8565b508360018060a01b031991168189541617885560015416176001555193167f36b1453565f45af7b509b59d5e2eac8f1948ea9e3e193db6663b4101afb6382c8580a2610ac6578280f35b805460ff60401b19169055600181527fc7f505b2f371ae2175ee4913f4499e1f2633a7b5936321eed1cdaeb6115181d290602090a15f808280f35b68ffffffffffffffffff1916680100000000000000011786555f610a31565b845163f92ee8a960e01b8152fd5b9050155f610a14565b303b159150610a0c565b889150610a02565b838360603660031901126101ca57610b5f611c31565b6001600160401b039060243582811161087257610b7f9036908701611bd5565b9160443590811161087257610b979036908701611bd5565b92610ba0611e12565b6001548151636f77926b60e01b81526001600160a01b03848116898301529187908290602490829086165afa908115610cc0578791610cea575b5080515115610cda57606001511515600114610cca578086541690606083518093631c2e21b960e11b825260208b8301528180610c1a602482018b611cb9565b03915afa918215610cc0578792610ca0575b5081511615610c90578181015115610c905760200151610c815750610c5a939450610c556126df565b612721565b60017f9b779b17422d0df92223018b32b4d1fa46e071723d6817e2486d003becc55f005580f35b5163526e73a560e01b81528590fd5b815163014eb98760e11b81528790fd5b610cb991925060603d81116104a95761049a8183611b99565b9088610c2c565b83513d89823e3d90fd5b815163e9dc308560e01b81528790fd5b825163ce848fe360e01b81528890fd5b610cfe91503d8089833e6109218183611b99565b88610bda565b9190503461032157610d1536611c47565b92610d1e611dac565b6001548351636f77926b60e01b81526001600160a01b03848116828501819052969194921692908785602481875afa948515610e37578895610e1b575b5084515115610e0c57805115610dfd57845286929190823b1561050157610d9b92849283879389519687958694859363178682c160e01b85528401612692565b03925af18015610df357610ddf575b50505f80516020612b0c83398151915291610dd9825191806060850151151594015115159051938493846126b4565b0390a280f35b610de890611b3c565b61050157835f610daa565b84513d84823e3d90fd5b508451632bf9525960e11b8152fd5b5084516365553c4160e11b8152fd5b610e309195503d808a833e6109218183611b99565b935f610d5b565b86513d8a823e3d90fd5b5050346101ca57816003193601126101ca57602090515f80516020612b6c8339815191528152f35b5050346101ca57816003193601126101ca5751908152602090f35b90503461032157816003193601126103215781602093610ea2611c1b565b923581525f80516020612b4c8339815191528552209060018060a01b03165f52825260ff815f20541690519015158152f35b5050346101ca57816003193601126101ca575f80516020612aec8339815191525490516001600160a01b039091168152602090f35b9190503461032157602036600319011261032157610f25611c31565b91610f2e611dac565b6001548251636f77926b60e01b81526001600160a01b0385811684830181905295919216908683602481855afa92831561104657879361102a575b508251511561101a57848301936001855115151461100c579087929160018652823b1561050157610fb39284928387938a519687958694859363178682c160e01b85528401612692565b03925af1801561100257610fee575b5050610dd95f80516020612b0c83398151915293606083519301511515935115159051938493846126b4565b610ff790611b3c565b61087257845f610fc2565b85513d84823e3d90fd5b8551631edcfb9f60e21b8152fd5b84516365553c4160e11b81528490fd5b61103f9193503d8089833e6109218183611b99565b915f610f69565b85513d89823e3d90fd5b5050346101ca57816003193601126101ca57602090517f7804d923f43a17d325d77e781528e0793b2edd9890ab45fc64efd7b4b427744c8152f35b918091506003193601126103215781356001600160401b038111610501576110b69036908401611bd5565b6110be611c89565b6001548351636f77926b60e01b815233818701526001600160a01b0391821695909390929087856024818a5afa948515610e37578895611324575b50845151611314578551809763e70a0e6960e01b8252818660209a8b935afa90811561130a5789916112dd575b5034036112cd579087939291341580156111e2575b50855215158685015282858501528260608501526001608085015260015416803b1561032157838391611184938388518096819582946374d5912760e11b845233908401612692565b03925af18015610df3576111ce575b50507f48cac28ad4dc618e15f4c2dd5e97751182f166de97b25618318b2112aa951a2f91610dd9915190519182918583523395830190611cb9565b6111d790611b3c565b61050157835f611193565b8489858854168a51928380926331056e5760e21b82525afa9081156112c357879186918391611286575b501691819061127d575b81808092853491f11561127357600286917fdf7cc5ebdb7be805a1d96fd982aba37cbf8e9169d6f34870e8d63a62cd492f6460a08b513381528d349082015260608d82015284606082015261060f60f31b6080820152a45f61113b565b87513d87823e3d90fd5b506108fc611216565b925050508981813d83116112bc575b61129f8183611b99565b810103126112b857846112b28892612438565b5f61120c565b8680fd5b503d611295565b89513d89823e3d90fd5b8551638c77ddf360e01b81528490fd5b90508781813d8311611303575b6112f48183611b99565b8101031261046d57515f611126565b503d6112ea565b87513d8b823e3d90fd5b855163096bb4a360e41b81528490fd5b6113399195503d808a833e6109218183611b99565b935f6110f9565b833461023557806003193601126102355761135961226d565b5f80516020612aec83398151915280546001600160a01b031981169091555f906001600160a01b03167f8be0079c531659141344cd1fd0a4f28419497f9722a3daafe3b4186f6b6457e08280a380f35b5050346101ca57816003193601126101ca5760015490516001600160a01b039091168152602090f35b9190503461032157602036600319011261032157826113ef611c31565b81608084516113fd81611b63565b6060815282602082015282868201528260608201520152602460018060a01b0391826001541685519687948593636f77926b60e01b855216908301525afa918215610648578361061f9493611461575b505051918291602083526020830190611cde565b6114769293503d8091833e6109218183611b99565b905f8061144d565b91905034610321578060031936011261032157611499611c31565b6114a1611c89565b905f80516020612b2c833981519152805f525f80516020612b4c833981519152602052835f20335f5260205260ff845f205416156115ca57506001548351636f77926b60e01b81526001600160a01b03838116878301819052969193921691908784602481865afa938415610e375788946115ae575b50835151156115a057908792918515156060860152823b15610501576115569284928387938a519687958694859363178682c160e01b85528401612692565b03925af180156110025761158c575b5050610dd9835f80516020612b0c83398151915294835193015115159051938493846126b4565b61159590611b3c565b61087257845f611565565b85516365553c4160e11b8152fd5b6115c39194503d808a833e6109218183611b99565b925f611517565b835163e2517d3f60e01b815233818701526024810191909152604490fd5b8383346101ca57806003193601126101ca57611602611c1b565b90336001600160a01b0383160361161f57506105759192356121ed565b5163334bd91960e11b81528390fd5b8383346101ca57816003193601126101ca57600154815163e70a0e6960e01b81529360209185919082906001600160a01b03165afa9182156116ae579161167a575b6020925051908152f35b90506020823d82116116a6575b8161169460209383611b99565b8101031261046d576020915190611670565b3d9150611687565b9051903d90823e3d90fd5b9190503461032157806003193601126103215761057591356116de6001610552611c1b565b61217c565b828434610235576116f336611c47565b82548451631c2e21b960e11b815260208188015291959293916001600160a01b039160609082908416818061172b602482018d611cb9565b03915afa9283156117a95792611789575b508151161561177a57838101511561177a576020015161176c575060209261176391612570565b90519015158152f35b825163526e73a560e01b8152fd5b50825163014eb98760e11b8152fd5b6117a291925060603d81116104a95761049a8183611b99565b908661173c565b8651903d90823e3d90fd5b90503461032157602036600319011261032157816020936001923581525f80516020612b4c83398151915285522001549051908152f35b8383806003193601126101ca576001600160401b038335818111610501576118169036908601611bd5565b906024359081116105015761182e9036908601611bd5565b6001548351636f77926b60e01b815233878201529193916001600160a01b039186908290602490829086165afa908115611928578691611952575b508051511561194257606001511515600114611932578085541690606083518093631c2e21b960e11b825260208a83015281806118a9602482018a611cb9565b03915afa918215611928578692611908575b50815116156118f85781810151156118f857602001516118e9575090610c5a916118e36126df565b33612721565b5163526e73a560e01b81528490fd5b815163014eb98760e11b81528690fd5b61192191925060603d81116104a95761049a8183611b99565b90876118bb565b83513d88823e3d90fd5b815163e9dc308560e01b81528690fd5b825163ce848fe360e01b81528790fd5b61196691503d8088833e6109218183611b99565b87611869565b5050346101ca57816003193601126101ca57905490516001600160a01b039091168152602090f35b90503461032157602036600319011261032157359063ffffffff60e01b82168092036103215760209250637965db0b60e01b82149182156119d9575b50519015158152f35b6301ffc9a760e01b1491505f6119d0565b919050346103215760203660031901126103215781356001600160401b03811161050157611a1b9036908401611bd5565b6001548251636f77926b60e01b81523385820152936001600160a01b03909116918585602481865afa948515611b32578695611b16575b5084515115611b0757805115611af85784528490823b156101ca57611a8f92859183865180968195829463178682c160e01b845233908401612692565b03925af18015611aee57611ace575b505f80516020612b0c83398151915290825192610dd98260608301511515920151151592519283923396846126b4565b92611ae75f80516020612b0c8339815191529294611b3c565b9290611a9e565b82513d86823e3d90fd5b508251632bf9525960e11b8152fd5b5082516365553c4160e11b8152fd5b611b2b9195503d8088833e6109218183611b99565b935f611a52565b84513d88823e3d90fd5b6001600160401b038111611b4f57604052565b634e487b7160e01b5f52604160045260245ffd5b60a081019081106001600160401b03821117611b4f57604052565b60c081019081106001600160401b03821117611b4f57604052565b90601f801991011681019081106001600160401b03821117611b4f57604052565b6001600160401b038111611b4f57601f01601f191660200190565b81601f8201121561046d57803590611bec82611bba565b92611bfa6040519485611b99565b8284526020838301011161046d57815f926020809301838601378301015290565b602435906001600160a01b038216820361046d57565b600435906001600160a01b038216820361046d57565b90604060031983011261046d576004356001600160a01b038116810361046d5791602435906001600160401b03821161046d57611c8691600401611bd5565b90565b60243590811515820361046d57565b5f5b838110611ca95750505f910152565b8181015183820152602001611c9a565b90602091611cd281518092818552858086019101611c98565b601f01601f1916010190565b90608080611cf5845160a0855260a0850190611cb9565b936020810151151560208501526040810151151560408501526060810151151560608501520151151591015290565b906003821015611d315752565b634e487b7160e01b5f52602160045260245ffd5b9060a080600180821b0393848151168452611d84611d72602083015160c0602088015260c0870190611cb9565b60408301518682036040880152611cb9565b94611d9760608301516060870190611d24565b60808201511660808501520151151591015290565b335f9081527f739cde10a782e9a33d89b0a8d75532a668a23d692dcfad349651b427f16e43cf60205260409020545f80516020612b6c8339815191529060ff1615611df45750565b6044906040519063e2517d3f60e01b82523360048301526024820152fd5b335f9081527fd56b761303e15a4cbea84f37eba80a5289f49fda0b4884e30ac1d73eb9b8b14360205260409020545f80516020612b8c8339815191529060ff1615611df45750565b805f525f80516020612b4c83398151915260205260405f20335f5260205260ff60405f20541615611df45750565b6001600160a01b03165f8181527fb7db2dd08fcb62d0c9e08c51941cae53c267786a0b75803fb7960902fc8ef97d60205260408120549091905f80516020612b4c8339815191529060ff16611f0e578280526020526040822081835260205260408220600160ff1982541617905533915f80516020612acc8339815191528180a4600190565b505090565b6001600160a01b03165f8181527f739cde10a782e9a33d89b0a8d75532a668a23d692dcfad349651b427f16e43cf60205260408120549091905f80516020612b6c833981519152905f80516020612b4c8339815191529060ff16611fa7578184526020526040832082845260205260408320600160ff198254161790555f80516020612acc833981519152339380a4600190565b50505090565b6001600160a01b03165f8181527f75442b0a96088b5456bc4ed01394c96a4feec0f883c9494257d76b96ab1c9b6b60205260408120549091905f80516020612b2c833981519152905f80516020612b4c8339815191529060ff16611fa7578184526020526040832082845260205260408320600160ff198254161790555f80516020612acc833981519152339380a4600190565b6001600160a01b03165f8181527fab71e3f32666744d246edff3f96e4bdafee2e9867098cdd118a979a7464786a860205260408120549091907f189ab7a9244df0848122154315af71fe140f3db0fe014031783b0946b8c9d2e3905f80516020612b4c8339815191529060ff16611fa7578184526020526040832082845260205260408320600160ff198254161790555f80516020612acc833981519152339380a4600190565b6001600160a01b03165f8181527fd56b761303e15a4cbea84f37eba80a5289f49fda0b4884e30ac1d73eb9b8b14360205260408120549091905f80516020612b8c833981519152905f80516020612b4c8339815191529060ff16611fa7578184526020526040832082845260205260408320600160ff198254161790555f80516020612acc833981519152339380a4600190565b905f918083525f80516020612b4c83398151915280602052604084209260018060a01b03169283855260205260ff604085205416155f14611fa7578184526020526040832082845260205260408320600160ff198254161790555f80516020612acc833981519152339380a4600190565b905f918083525f80516020612b4c83398151915280602052604084209260018060a01b03169283855260205260ff6040852054165f14611fa757818452602052604083208284526020526040832060ff1981541690557ff6391f5c32d9c69d2a47ea670b442974b53935d1edc7fd64eb21e047a839171b339380a4600190565b5f80516020612aec833981519152546001600160a01b0316330361228d57565b60405163118cdaa760e01b8152336004820152602490fd5b6001600160a01b039081169081156122fe575f80516020612aec83398151915280546001600160a01b031981168417909155167f8be0079c531659141344cd1fd0a4f28419497f9722a3daafe3b4186f6b6457e05f80a3565b604051631e4fbdf760e01b81525f6004820152602490fd5b60ff7ff0c57e16840df040f15088dc2f81fe391c3923bec73e23a9662efc9c229c6a005460401c161561234557565b604051631afcd79f60e31b8152600490fd5b81601f8201121561046d57805161236d81611bba565b9261237b6040519485611b99565b8184526020828401011161046d57611c869160208085019101611c98565b5190811515820361046d57565b60208183031261046d5780516001600160401b039182821161046d57019160a08382031261046d57604051926123db84611b63565b805192831161046d576123f5608092612430948301612357565b845261240360208201612399565b602085015261241460408201612399565b604085015261242560608201612399565b606085015201612399565b608082015290565b51906001600160a01b038216820361046d57565b60208183031261046d5780516001600160401b039182821161046d57019060c08284031261046d576040519261248184611b7e565b61248a83612438565b8452602083015182811161046d57816124a4918501612357565b6020850152604083015191821161046d576124c0918301612357565b60408301526060810151600381101561046d576124f69160a09160608501526124eb60808201612438565b608085015201612399565b60a082015290565b6001600160a01b0391821681529116602082015260400190565b9081606091031261046d5760405190606082018281106001600160401b03821117611b4f5761256891604091825261254f81612438565b845261255d60208201612399565b602085015201612399565b604082015290565b6125a560018060a01b0360605f94828654166040518080968194631c2e21b960e11b8352602060048401526024830190611cb9565b03915afa91821561268757916125e4939185938492612667575b50806001541691511660405180958194829363034ff23560e61b8452600484016124fe565b03915afa90811561265c578291612642575b50600160a08201511515149081612616575b506126105790565b50600190565b606091500151600381101561262e576001145f612608565b634e487b7160e01b82526021600452602482fd5b61265691503d8084833e6106388183611b99565b5f6125f6565b6040513d84823e3d90fd5b61268091925060603d81116104a95761049a8183611b99565b905f6125bf565b6040513d86823e3d90fd5b6001600160a01b039091168152604060208201819052611c8692910190611cde565b5f9294936126cc606093608084526080840190611cb9565b9515156020830152151560408201520152565b7f9b779b17422d0df92223018b32b4d1fa46e071723d6817e2486d003becc55f00600281541461270f5760029055565b604051633ee5aeb560e01b8152600490fd5b5f805460408051631c2e21b960e11b8152602060048083018290526001600160a01b0394851698979396919593946060949385818c8180612765602482018d611cb9565b03915afa908115612ac1578591612aa4575b5081600154169a895190636f77926b60e01b825286828588169e8f88830152815a91602492fa91821561295a5785918b918994612a88575b508c516331056e5760e21b815292839182905afa90811561295a578791612a53575b50848a858551168d5192838092637657dbdd60e01b82525afa908115612a49578891612a18575b503403612a085734612964575b509082918661283195946001541696848451168d51978892839263034ff23560e61b84528984016124fe565b0381895afa94851561295a57879561293e575b5060a08501906001825115151461292e57906001918e8752518b8701528c8c870152878987015283835116608087015252511691833b156108725791848094926128b38d958c51998a97889687956307480abd60e11b8752860152602485015260448401526064830190611d45565b03925af19081156129235750917fb17b7f220d392b3fac92feead39a937412996860f3aacd51a13f9271239df6519594939161290f93612914575b506129028451958587968752860190611cb9565b9184830390850152611cb9565b0390a2565b61291d90611b3c565b5f6128ee565b8551903d90823e3d90fd5b8b5163285fe7f560e01b81528590fd5b6129539195503d8089833e6106388183611b99565b935f612844565b8b513d89823e3d90fd5b83168680808034855af13d15612a03578b3d61298b61298282611bba565b92519283611b99565b8152888c3d92013e5b156129f35790866003612831969594938f8d8f916129e78f8f80867fdf7cc5ebdb7be805a1d96fd982aba37cbf8e9169d6f34870e8d63a62cd492f64975196879687523490870152850152830190611cb9565b0390a490919293612805565b8a516331eb874960e21b81528590fd5b612994565b8a5163e1d94b7f60e01b81528590fd5b90508a81813d8311612a42575b612a2f8183611b99565b81010312612a3e57515f6127f8565b8780fd5b503d612a25565b8c513d8a823e3d90fd5b90508981813d8311612a81575b612a6a8183611b99565b810103126112b857612a7b90612438565b5f6127d1565b503d612a60565b612a9d9194503d808b833e6109218183611b99565b925f6127af565b612abb9150863d88116104a95761049a8183611b99565b5f612777565b89513d87823e3d90fdfe2f8788117e7eff1d82e926ec794901d17c78024a50270940304540a733656f0d9016d09d72d40fdae2fd8ceac6b6234c7706214fd39c1cd1e609a0528c19930052b0aedf558ae7ca1fea6363c537e188e53ef8982b74a564ee8eeae39d68017a65d7a28e3265b37a6474929f336521b332c1681b933f6cb9f3376673440d862a02dd7bc7dec4dceedda775e58dd541e08a116c6c53815c0bd028192f7b626800cbaaf41b181bb6e269c490e876a7c97711b57e21dd8e5528423cf57579726b350ce23c3e399818cfee81a7ab0880f714e53d7672b08df0fa62f2843416e1ea09a26469706673582212207d0b5dfaf17b06beadddd100e015ca4a04d82a94a57f6672853062967f0bc4b964736f6c63430008140033",
  "linkReferences": {},
  "deployedLinkReferences": {}
}