{
  "_format": "hh-sol-artifact-1",
  "contractName": "TheBadgeModels",
  "sourceName": "src/contracts/thebadge/TheBadgeModels.sol",
  "abi": [
    {
      "inputs": [],
      "stateMutability": "nonpayable",
      "type": "constructor"
    },
    {
      "inputs": [],
      "name": "AccessControlBadConfirmation",
      "type": "error"
    },
    {
      "inputs": [
        {
          "internalType": "address",
          "name": "account",
          "type": "address"
        },
        {
          "internalType": "bytes32",
          "name": "neededRole",
          "type": "bytes32"
        }
      ],
      "name": "AccessControlUnauthorizedAccount",
      "type": "error"
    },
    {
      "inputs": [],
      "name": "InvalidInitialization",
      "type": "error"
    },
    {
      "inputs": [],
      "name": "NotInitializing",
      "type": "error"
    },
    {
      "inputs": [
        {
          "internalType": "address",
          "name": "owner",
          "type": "address"
        }
      ],
      "name": "OwnableInvalidOwner",
      "type": "error"
    },
    {
      "inputs": [
        {
          "internalType": "address",
          "name": "account",
          "type": "address"
        }
      ],
      "name": "OwnableUnauthorizedAccount",
      "type": "error"
    },
    {
      "inputs": [],
      "name": "TheBadge__addBadgeModelController_alreadySet",
      "type": "error"
    },
    {
      "inputs": [],
      "name": "TheBadge__addBadgeModelController_emptyName",
      "type": "error"
    },
    {
      "inputs": [],
      "name": "TheBadge__badgeModel_badgeModelNotFound",
      "type": "error"
    },
    {
      "inputs": [],
      "name": "TheBadge__controller_controllerIsPaused",
      "type": "error"
    },
    {
      "inputs": [],
      "name": "TheBadge__controller_invalidController",
      "type": "error"
    },
    {
      "inputs": [],
      "name": "TheBadge__createBadgeModel_wrongValue",
      "type": "error"
    },
    {
      "inputs": [],
      "name": "TheBadge__method_not_supported",
      "type": "error"
    },
    {
      "inputs": [],
      "name": "TheBadge__onlyCreator_creatorIsSuspended",
      "type": "error"
    },
    {
      "inputs": [],
      "name": "TheBadge__onlyCreator_senderIsNotACreator",
      "type": "error"
    },
    {
      "inputs": [],
      "name": "TheBadge__onlyUser_userNotFound",
      "type": "error"
    },
    {
      "inputs": [],
      "name": "TheBadge__updateBadgeModel_badgeModelNotFound",
      "type": "error"
    },
    {
      "inputs": [],
      "name": "TheBadge__updateBadgeModel_notBadgeModelOwner",
      "type": "error"
    },
    {
      "anonymous": false,
      "inputs": [
        {
          "indexed": true,
          "internalType": "string",
          "name": "controllerName",
          "type": "string"
        },
        {
          "indexed": true,
          "internalType": "address",
          "name": "controllerAddress",
          "type": "address"
        }
      ],
      "name": "BadgeModelControllerAdded",
      "type": "event"
    },
    {
      "anonymous": false,
      "inputs": [
        {
          "indexed": true,
          "internalType": "string",
          "name": "controllerName",
          "type": "string"
        },
        {
          "indexed": true,
          "internalType": "address",
          "name": "controllerAddress",
          "type": "address"
        }
      ],
      "name": "BadgeModelControllerUpdated",
      "type": "event"
    },
    {
      "anonymous": false,
      "inputs": [
        {
          "indexed": true,
          "internalType": "uint256",
          "name": "badgeModelId",
          "type": "uint256"
        },
        {
          "indexed": false,
          "internalType": "string",
          "name": "metadata",
          "type": "string"
        }
      ],
      "name": "BadgeModelCreated",
      "type": "event"
    },
    {
      "anonymous": false,
      "inputs": [
        {
          "indexed": true,
          "internalType": "uint256",
          "name": "badgeModelId",
          "type": "uint256"
        }
      ],
      "name": "BadgeModelUpdated",
      "type": "event"
    },
    {
      "anonymous": false,
      "inputs": [
        {
          "indexed": true,
          "internalType": "address",
          "name": "admin",
          "type": "address"
        }
      ],
      "name": "Initialize",
      "type": "event"
    },
    {
      "anonymous": false,
      "inputs": [
        {
          "indexed": false,
          "internalType": "uint64",
          "name": "version",
          "type": "uint64"
        }
      ],
      "name": "Initialized",
      "type": "event"
    },
    {
      "anonymous": false,
      "inputs": [
        {
          "indexed": true,
          "internalType": "address",
          "name": "previousOwner",
          "type": "address"
        },
        {
          "indexed": true,
          "internalType": "address",
          "name": "newOwner",
          "type": "address"
        }
      ],
      "name": "OwnershipTransferred",
      "type": "event"
    },
    {
      "anonymous": false,
      "inputs": [
        {
          "indexed": true,
          "internalType": "bytes32",
          "name": "role",
          "type": "bytes32"
        },
        {
          "indexed": true,
          "internalType": "bytes32",
          "name": "previousAdminRole",
          "type": "bytes32"
        },
        {
          "indexed": true,
          "internalType": "bytes32",
          "name": "newAdminRole",
          "type": "bytes32"
        }
      ],
      "name": "RoleAdminChanged",
      "type": "event"
    },
    {
      "anonymous": false,
      "inputs": [
        {
          "indexed": true,
          "internalType": "bytes32",
          "name": "role",
          "type": "bytes32"
        },
        {
          "indexed": true,
          "internalType": "address",
          "name": "account",
          "type": "address"
        },
        {
          "indexed": true,
          "internalType": "address",
          "name": "sender",
          "type": "address"
        }
      ],
      "name": "RoleGranted",
      "type": "event"
    },
    {
      "anonymous": false,
      "inputs": [
        {
          "indexed": true,
          "internalType": "bytes32",
          "name": "role",
          "type": "bytes32"
        },
        {
          "indexed": true,
          "internalType": "address",
          "name": "account",
          "type": "address"
        },
        {
          "indexed": true,
          "internalType": "address",
          "name": "sender",
          "type": "address"
        }
      ],
      "name": "RoleRevoked",
      "type": "event"
    },
    {
      "inputs": [],
      "name": "CLAIMER_ROLE",
      "outputs": [
        {
          "internalType": "bytes32",
          "name": "",
          "type": "bytes32"
        }
      ],
      "stateMutability": "view",
      "type": "function"
    },
    {
      "inputs": [],
      "name": "DEFAULT_ADMIN_ROLE",
      "outputs": [
        {
          "internalType": "bytes32",
          "name": "",
          "type": "bytes32"
        }
      ],
      "stateMutability": "view",
      "type": "function"
    },
    {
      "inputs": [],
      "name": "PAUSER_ROLE",
      "outputs": [
        {
          "internalType": "bytes32",
          "name": "",
          "type": "bytes32"
        }
      ],
      "stateMutability": "view",
      "type": "function"
    },
    {
      "inputs": [],
      "name": "UPGRADER_ROLE",
      "outputs": [
        {
          "internalType": "bytes32",
          "name": "",
          "type": "bytes32"
        }
      ],
      "stateMutability": "view",
      "type": "function"
    },
    {
      "inputs": [],
      "name": "URI_SETTER_ROLE",
      "outputs": [
        {
          "internalType": "bytes32",
          "name": "",
          "type": "bytes32"
        }
      ],
      "stateMutability": "view",
      "type": "function"
    },
    {
      "inputs": [],
      "name": "USER_MANAGER_ROLE",
      "outputs": [
        {
          "internalType": "bytes32",
          "name": "",
          "type": "bytes32"
        }
      ],
      "stateMutability": "view",
      "type": "function"
    },
    {
      "inputs": [],
      "name": "VERIFIER_ROLE",
      "outputs": [
        {
          "internalType": "bytes32",
          "name": "",
          "type": "bytes32"
        }
      ],
      "stateMutability": "view",
      "type": "function"
    },
    {
      "inputs": [],
      "name": "_badgeStore",
      "outputs": [
        {
          "internalType": "contract TheBadgeStore",
          "name": "",
          "type": "address"
        }
      ],
      "stateMutability": "view",
      "type": "function"
    },
    {
      "inputs": [],
      "name": "_theBadgeUsers",
      "outputs": [
        {
          "internalType": "contract TheBadgeUsers",
          "name": "",
          "type": "address"
        }
      ],
      "stateMutability": "view",
      "type": "function"
    },
    {
      "inputs": [
        {
          "internalType": "string",
          "name": "controllerName",
          "type": "string"
        },
        {
          "internalType": "address",
          "name": "controllerAddress",
          "type": "address"
        }
      ],
      "name": "addBadgeModelController",
      "outputs": [],
      "stateMutability": "nonpayable",
      "type": "function"
    },
    {
      "inputs": [
        {
          "components": [
            {
              "internalType": "string",
              "name": "metadata",
              "type": "string"
            },
            {
              "internalType": "string",
              "name": "controllerName",
              "type": "string"
            },
            {
              "internalType": "uint256",
              "name": "mintCreatorFee",
              "type": "uint256"
            },
            {
              "internalType": "uint256",
              "name": "validFor",
              "type": "uint256"
            }
          ],
          "internalType": "struct TheBadgeStore.CreateBadgeModel",
          "name": "args",
          "type": "tuple"
        },
        {
          "internalType": "bytes",
          "name": "data",
          "type": "bytes"
        }
      ],
      "name": "createBadgeModel",
      "outputs": [],
      "stateMutability": "payable",
      "type": "function"
    },
    {
      "inputs": [
        {
          "internalType": "bytes32",
          "name": "role",
          "type": "bytes32"
        }
      ],
      "name": "getRoleAdmin",
      "outputs": [
        {
          "internalType": "bytes32",
          "name": "",
          "type": "bytes32"
        }
      ],
      "stateMutability": "view",
      "type": "function"
    },
    {
      "inputs": [
        {
          "internalType": "bytes32",
          "name": "role",
          "type": "bytes32"
        },
        {
          "internalType": "address",
          "name": "account",
          "type": "address"
        }
      ],
      "name": "grantRole",
      "outputs": [],
      "stateMutability": "nonpayable",
      "type": "function"
    },
    {
      "inputs": [
        {
          "internalType": "bytes32",
          "name": "role",
          "type": "bytes32"
        },
        {
          "internalType": "address",
          "name": "account",
          "type": "address"
        }
      ],
      "name": "hasRole",
      "outputs": [
        {
          "internalType": "bool",
          "name": "",
          "type": "bool"
        }
      ],
      "stateMutability": "view",
      "type": "function"
    },
    {
      "inputs": [
        {
          "internalType": "address",
          "name": "admin",
          "type": "address"
        },
        {
          "internalType": "address",
          "name": "badgeStore",
          "type": "address"
        },
        {
          "internalType": "address",
          "name": "badgeUsers",
          "type": "address"
        }
      ],
      "name": "initialize",
      "outputs": [],
      "stateMutability": "nonpayable",
      "type": "function"
    },
    {
      "inputs": [
        {
          "internalType": "uint256",
          "name": "badgeModelId",
          "type": "uint256"
        }
      ],
      "name": "isBadgeModelSuspended",
      "outputs": [
        {
          "internalType": "bool",
          "name": "",
          "type": "bool"
        }
      ],
      "stateMutability": "view",
      "type": "function"
    },
    {
      "inputs": [],
      "name": "owner",
      "outputs": [
        {
          "internalType": "address",
          "name": "",
          "type": "address"
        }
      ],
      "stateMutability": "view",
      "type": "function"
    },
    {
      "inputs": [],
      "name": "renounceOwnership",
      "outputs": [],
      "stateMutability": "nonpayable",
      "type": "function"
    },
    {
      "inputs": [
        {
          "internalType": "bytes32",
          "name": "role",
          "type": "bytes32"
        },
        {
          "internalType": "address",
          "name": "callerConfirmation",
          "type": "address"
        }
      ],
      "name": "renounceRole",
      "outputs": [],
      "stateMutability": "nonpayable",
      "type": "function"
    },
    {
      "inputs": [
        {
          "internalType": "bytes32",
          "name": "role",
          "type": "bytes32"
        },
        {
          "internalType": "address",
          "name": "account",
          "type": "address"
        }
      ],
      "name": "revokeRole",
      "outputs": [],
      "stateMutability": "nonpayable",
      "type": "function"
    },
    {
      "inputs": [
        {
          "internalType": "bytes4",
          "name": "interfaceId",
          "type": "bytes4"
        }
      ],
      "name": "supportsInterface",
      "outputs": [
        {
          "internalType": "bool",
          "name": "",
          "type": "bool"
        }
      ],
      "stateMutability": "view",
      "type": "function"
    },
    {
      "inputs": [],
      "name": "suspendBadgeModel",
      "outputs": [],
      "stateMutability": "view",
      "type": "function"
    },
    {
      "inputs": [
        {
          "internalType": "address",
          "name": "newOwner",
          "type": "address"
        }
      ],
      "name": "transferOwnership",
      "outputs": [],
      "stateMutability": "nonpayable",
      "type": "function"
    },
    {
      "inputs": [
        {
          "internalType": "uint256",
          "name": "badgeModelId",
          "type": "uint256"
        },
        {
          "internalType": "uint256",
          "name": "mintCreatorFee",
          "type": "uint256"
        },
        {
          "internalType": "bool",
          "name": "paused",
          "type": "bool"
        }
      ],
      "name": "updateBadgeModel",
      "outputs": [],
      "stateMutability": "nonpayable",
      "type": "function"
    },
    {
      "inputs": [
        {
          "internalType": "string",
          "name": "controllerName",
          "type": "string"
        },
        {
          "internalType": "address",
          "name": "controllerAddress",
          "type": "address"
        }
      ],
      "name": "updateBadgeModelController",
      "outputs": [],
      "stateMutability": "nonpayable",
      "type": "function"
    },
    {
      "inputs": [
        {
          "internalType": "uint256",
          "name": "badgeModelId",
          "type": "uint256"
        },
        {
          "internalType": "uint256",
          "name": "feeInBps",
          "type": "uint256"
        }
      ],
      "name": "updateBadgeModelProtocolFee",
      "outputs": [],
      "stateMutability": "nonpayable",
      "type": "function"
    },
    {
      "stateMutability": "payable",
      "type": "receive"
    }
  ],
  "bytecode": "0x608060405234801561000f575f80fd5b5061001861001d565b6100cf565b7ff0c57e16840df040f15088dc2f81fe391c3923bec73e23a9662efc9c229c6a00805468010000000000000000900460ff161561006d5760405163f92ee8a960e01b815260040160405180910390fd5b80546001600160401b03908116146100cc5780546001600160401b0319166001600160401b0390811782556040519081527fc7f505b2f371ae2175ee4913f4499e1f2633a7b5936321eed1cdaeb6115181d29060200160405180910390a15b50565b61219b80620000dd5f395ff3fe608060405260043610610142575f3560e01c8063a217fddf116100af578063a217fddf146102f8578063a41e35c31461030b578063c0a39d121461033e578063c0c53b8b1461035d578063c227fb111461037c578063d547741f1461039b578063e5088cdf146103ba578063e63ab1e9146103d9578063e7705db61461040c578063ede37dd41461043f578063f2fde38b1461045e578063f72c0d8b1461047d578063fc5f18d3146104b0575f80fd5b806301ffc9a71461014d578063177a0b6f1461018157806319b50c2a146101a25780631adb7682146101cd578063248a9ca3146101ec5780632f2ff15d1461021957806336568abe1461023857806341954e0914610257578063715018a61461026b5780637f3457101461027f578063828efb25146102b25780638da5cb5b146102c557806391d14854146102d9575f80fd5b3661014957005b5f80fd5b348015610158575f80fd5b5061016c6101673660046119a9565b6104e3565b60405190151581526020015b60405180910390f35b34801561018c575f80fd5b506101a061019b366004611b14565b610519565b005b3480156101ad575f80fd5b505f546101c0906001600160a01b031681565b6040516101789190611b62565b3480156101d8575f80fd5b506101a06101e7366004611b83565b61069b565b3480156101f7575f80fd5b5061020b610206366004611bb9565b61098b565b604051908152602001610178565b348015610224575f80fd5b506101a0610233366004611bd0565b6109a9565b348015610243575f80fd5b506101a0610252366004611bd0565b6109cb565b348015610262575f80fd5b506101a0610a03565b348015610276575f80fd5b506101a0610a26565b34801561028a575f80fd5b5061020b7f7804d923f43a17d325d77e781528e0793b2edd9890ab45fc64efd7b4b427744c81565b6101a06102c0366004611bf3565b610a39565b3480156102d0575f80fd5b506101c06110b9565b3480156102e4575f80fd5b5061016c6102f3366004611bd0565b6110d3565b348015610303575f80fd5b5061020b5f81565b348015610316575f80fd5b5061020b7fcbaaf41b181bb6e269c490e876a7c97711b57e21dd8e5528423cf57579726b3581565b348015610349575f80fd5b506101a0610358366004611b14565b611107565b348015610368575f80fd5b506101a0610377366004611cb7565b6112b3565b348015610387575f80fd5b5061016c610396366004611bb9565b611439565b3480156103a6575f80fd5b506101a06103b5366004611bd0565b611566565b3480156103c5575f80fd5b506001546101c0906001600160a01b031681565b3480156103e4575f80fd5b5061020b7f65d7a28e3265b37a6474929f336521b332c1681b933f6cb9f3376673440d862a81565b348015610417575f80fd5b5061020b7f0ce23c3e399818cfee81a7ab0880f714e53d7672b08df0fa62f2843416e1ea0981565b34801561044a575f80fd5b506101a0610459366004611cf4565b611582565b348015610469575f80fd5b506101a0610478366004611d14565b6116b9565b348015610488575f80fd5b5061020b7f189ab7a9244df0848122154315af71fe140f3db0fe014031783b0946b8c9d2e381565b3480156104bb575f80fd5b5061020b7f11a8cb5a02bd6c42679835e867ef2118ba78f088f8300511420c6603c21d9c7881565b5f6001600160e01b03198216637965db0b60e01b148061051357506301ffc9a760e01b6001600160e01b03198316145b92915050565b5f610523816116ff565b5f8054604051631c2e21b960e11b81526001600160a01b039091169063385c437290610553908790600401611d7c565b606060405180830381865afa15801561056e573d5f803e3d5ffd5b505050506040513d601f19601f820116820180604052508101906105929190611da9565b905083515f036105b557604051635f0b636f60e11b815260040160405180910390fd5b6001600160a01b0383166105dc576040516336f7ce4f60e11b815260040160405180910390fd5b6001600160a01b03808416825260016040808401919091525f60208401819052549051626a7cdb60e61b8152911690631a9f36c0906106219087908590600401611e18565b5f604051808303815f87803b158015610638575f80fd5b505af115801561064a573d5f803e3d5ffd5b50505050826001600160a01b0316846040516106669190611e5a565b604051908190038120907fb26a69d98cbba60a8375d2881325d884505f42d1f0e61a74e33abb3524a658aa905f90a350505050565b82335f8054604051636f77926b60e01b81526001600160a01b0390911690636f77926b906106cd908590600401611b62565b5f60405180830381865afa1580156106e7573d5f803e3d5ffd5b505050506040513d5f823e601f3d908101601f1916820160405261070e9190810190611ebf565b5f805460405163f2be2c8560e01b81526004810187905292935090916001600160a01b039091169063f2be2c85906024015f60405180830381865afa158015610759573d5f803e3d5ffd5b505050506040513d5f823e601f3d908101601f191682016040526107809190810190611f7f565b8251519091505f036107a557604051638fcc03fd60e01b815260040160405180910390fd5b604082015115155f036107cb57604051638fcc03fd60e01b815260040160405180910390fd5b606082015115156001036107f25760405163401d786960e11b815260040160405180910390fd5b80516001600160a01b031661081a57604051638fa97ef960e01b815260040160405180910390fd5b826001600160a01b0316815f01516001600160a01b03161461084f5760405163806ecc4960e01b815260040160405180910390fd5b5f805460405163f2be2c8560e01b8152600481018a90526001600160a01b039091169063f2be2c85906024015f60405180830381865afa158015610895573d5f803e3d5ffd5b505050506040513d5f823e601f3d908101601f191682016040526108bc9190810190611f7f565b80519091506001600160a01b03166108e7576040516336f7ce4f60e11b815260040160405180910390fd5b606081018790528515156040808301919091525f54905163c956ebd960e01b81526001600160a01b039091169063c956ebd99061092a908b9085906004016120e3565b5f604051808303815f87803b158015610941575f80fd5b505af1158015610953573d5f803e3d5ffd5b50506040518a92507fc7fe3866a4edc843062ecfa12604d4a6686605fb2bd8a2323d96dc40c08d9e3d91505f90a25050505050505050565b5f80610995611709565b5f9384526020525050604090206001015490565b6109b28261098b565b6109bb816116ff565b6109c5838361172d565b50505050565b6001600160a01b03811633146109f45760405163334bd91960e11b815260040160405180910390fd5b6109fe82826117cb565b505050565b5f610a0d816116ff565b60405163aaa2c00360e01b815260040160405180910390fd5b610a2e611841565b610a375f611873565b565b335f8054604051636f77926b60e01b81526001600160a01b0390911690636f77926b90610a6a908590600401611b62565b5f60405180830381865afa158015610a84573d5f803e3d5ffd5b505050506040513d5f823e601f3d908101601f19168201604052610aab9190810190611ebf565b8051519091505f03610ad05760405163ce848fe360e01b815260040160405180910390fd5b60208401515f8054604051631c2e21b960e11b81526001600160a01b039091169063385c437290610b05908590600401611d7c565b606060405180830381865afa158015610b20573d5f803e3d5ffd5b505050506040513d601f19601f82011682018060405250810190610b449190611da9565b80519091506001600160a01b0316610b6f5760405163014eb98760e11b815260040160405180910390fd5b604081015115155f03610b955760405163014eb98760e11b815260040160405180910390fd5b806020015115610bb85760405163526e73a560e01b815260040160405180910390fd5b5f805f9054906101000a90046001600160a01b03166001600160a01b03166364d8baef6040518163ffffffff1660e01b8152600401602060405180830381865afa158015610c08573d5f803e3d5ffd5b505050506040513d601f19601f82011682018060405250810190610c2c91906120fb565b905080341015610c4f5760405163043f7a7d60e21b815260040160405180910390fd5b5f805f9054906101000a90046001600160a01b03166001600160a01b031663c415b95c6040518163ffffffff1660e01b8152600401602060405180830381865afa158015610c9f573d5f803e3d5ffd5b505050506040513d601f19601f82011682018060405250810190610cc39190612112565b90503415610cff576040516001600160a01b038216903480156108fc02915f818181858888f19350505050158015610cfd573d5f803e3d5ffd5b505b5f805f9054906101000a90046001600160a01b03166001600160a01b0316634e5eceae6040518163ffffffff1660e01b8152600401602060405180830381865afa158015610d4f573d5f803e3d5ffd5b505050506040513d601f19601f82011682018060405250810190610d7391906120fb565b90505f604051806101000160405280610d893390565b6001600160a01b031681526020018b6020015181526020015f151581526020018b6040015181526020018b60600151815260200183815260200160011515815260200160405180604001604052806006815260200165076312e302e360d41b81525081525090505f805f9054906101000a90046001600160a01b03166001600160a01b031663e7343c8a6040518163ffffffff1660e01b8152600401602060405180830381865afa158015610e40573d5f803e3d5ffd5b505050506040513d601f19601f82011682018060405250810190610e6491906120fb565b5f546040516304db069f60e01b81529192506001600160a01b0316906304db069f90610e9490859060040161212d565b5f604051808303815f87803b158015610eab575f80fd5b505af1158015610ebd573d5f803e3d5ffd5b50505050807f584274d31df3e2cf85a9d6dfaf82b219994725ca486f214ef93fbec2d054dca08c5f0151604051610ef49190611d7c565b60405180910390a25f80546001600160a01b0316636f77926b336040518263ffffffff1660e01b8152600401610f2a9190611b62565b5f60405180830381865afa158015610f44573d5f803e3d5ffd5b505050506040513d5f823e601f3d908101601f19168201604052610f6b9190810190611ebf565b604081015190915015155f03610fd7576001546001600160a01b0316638a4be490336040518263ffffffff1660e01b8152600401610fa99190611b62565b5f604051808303815f87803b158015610fc0575f80fd5b505af1158015610fd2573d5f803e3d5ffd5b505050505b5f805460208e0151604051631c2e21b960e11b81526001600160a01b039092169163385c43729161100a91600401611d7c565b606060405180830381865afa158015611025573d5f803e3d5ffd5b505050506040513d601f19601f820116820180604052508101906110499190611da9565b80519091506001600160a01b03166304a3c5d733858f6040518463ffffffff1660e01b815260040161107d9392919061213f565b5f604051808303815f87803b158015611094575f80fd5b505af11580156110a6573d5f803e3d5ffd5b5050505050505050505050505050505050565b5f806110c36118cd565b546001600160a01b031692915050565b5f806110dd611709565b5f948552602090815260408086206001600160a01b03959095168652939052505090205460ff1690565b5f611111816116ff565b5f8054604051631c2e21b960e11b81526001600160a01b039091169063385c437290611141908790600401611d7c565b606060405180830381865afa15801561115c573d5f803e3d5ffd5b505050506040513d601f19601f820116820180604052508101906111809190611da9565b905083515f036111a357604051635f0b636f60e11b815260040160405180910390fd5b6001600160a01b0383166111ca576040516336f7ce4f60e11b815260040160405180910390fd5b80516001600160a01b0316156111f357604051631192a36960e31b815260040160405180910390fd5b6001600160a01b03808416825260016040808401919091525f602084018190525490516332c32c6360e11b815291169063658658c6906112399087908590600401611e18565b5f604051808303815f87803b158015611250575f80fd5b505af1158015611262573d5f803e3d5ffd5b50505050826001600160a01b03168460405161127e9190611e5a565b604051908190038120907fe5593a32c4e8802f5034c3eb5fb2d05210d31e05841af6500e5cac618d29605f905f90a350505050565b5f6112bc6118f1565b805490915060ff600160401b82041615906001600160401b03165f811580156112e25750825b90505f826001600160401b031660011480156112fd5750303b155b90508115801561130b575080155b156113295760405163f92ee8a960e01b815260040160405180910390fd5b845467ffffffffffffffff19166001178555831561135357845460ff60401b1916600160401b1785555b61135c88611915565b6113665f8961172d565b506113917f65d7a28e3265b37a6474929f336521b332c1681b933f6cb9f3376673440d862a8961172d565b505f80546001600160a01b03808a166001600160a01b0319928316178355600180548a8316931692909217909155604051908a16917f36b1453565f45af7b509b59d5e2eac8f1948ea9e3e193db6663b4101afb6382c91a2831561142f57845460ff60401b19168555604051600181527fc7f505b2f371ae2175ee4913f4499e1f2633a7b5936321eed1cdaeb6115181d29060200160405180910390a15b5050505050505050565b5f805460405163f2be2c8560e01b81526004810184905282916001600160a01b03169063f2be2c85906024015f60405180830381865afa15801561147f573d5f803e3d5ffd5b505050506040513d5f823e601f3d908101601f191682016040526114a69190810190611f7f565b80519091506001600160a01b03166114d1576040516336f7ce4f60e11b815260040160405180910390fd5b5f80548251604051636f77926b60e01b81526001600160a01b0390921691636f77926b9161150191600401611b62565b5f60405180830381865afa15801561151b573d5f803e3d5ffd5b505050506040513d5f823e601f3d908101601f191682016040526115429190810190611ebf565b6060810151909150151560010361155d575060019392505050565b505f9392505050565b61156f8261098b565b611578816116ff565b6109c583836117cb565b5f61158c816116ff565b5f805460405163f2be2c8560e01b8152600481018690526001600160a01b039091169063f2be2c85906024015f60405180830381865afa1580156115d2573d5f803e3d5ffd5b505050506040513d5f823e601f3d908101601f191682016040526115f99190810190611f7f565b80519091506001600160a01b0316611624576040516336f7ce4f60e11b815260040160405180910390fd5b60a081018390525f5460405163c956ebd960e01b81526001600160a01b039091169063c956ebd99061165c90879085906004016120e3565b5f604051808303815f87803b158015611673575f80fd5b505af1158015611685573d5f803e3d5ffd5b50506040518692507fc7fe3866a4edc843062ecfa12604d4a6686605fb2bd8a2323d96dc40c08d9e3d91505f90a250505050565b6116c1611841565b6001600160a01b0381166116f3575f604051631e4fbdf760e01b81526004016116ea9190611b62565b60405180910390fd5b6116fc81611873565b50565b6116fc8133611926565b7f02dd7bc7dec4dceedda775e58dd541e08a116c6c53815c0bd028192f7b62680090565b5f80611737611709565b905061174384846110d3565b6117c2575f848152602082815260408083206001600160a01b03871684529091529020805460ff191660011790556117783390565b6001600160a01b0316836001600160a01b0316857f2f8788117e7eff1d82e926ec794901d17c78024a50270940304540a733656f0d60405160405180910390a46001915050610513565b5f915050610513565b5f806117d5611709565b90506117e184846110d3565b156117c2575f848152602082815260408083206001600160a01b0387168085529252808320805460ff1916905551339287917ff6391f5c32d9c69d2a47ea670b442974b53935d1edc7fd64eb21e047a839171b9190a46001915050610513565b3361184a6110b9565b6001600160a01b031614610a37573360405163118cdaa760e01b81526004016116ea9190611b62565b5f61187c6118cd565b80546001600160a01b038481166001600160a01b031983168117845560405193945091169182907f8be0079c531659141344cd1fd0a4f28419497f9722a3daafe3b4186f6b6457e0905f90a3505050565b7f9016d09d72d40fdae2fd8ceac6b6234c7706214fd39c1cd1e609a0528c19930090565b7ff0c57e16840df040f15088dc2f81fe391c3923bec73e23a9662efc9c229c6a0090565b61191d611963565b6116fc81611988565b61193082826110d3565b61195f5760405163e2517d3f60e01b81526001600160a01b0382166004820152602481018390526044016116ea565b5050565b61196b611990565b610a3757604051631afcd79f60e31b815260040160405180910390fd5b6116c1611963565b5f6119996118f1565b54600160401b900460ff16919050565b5f602082840312156119b9575f80fd5b81356001600160e01b0319811681146119d0575f80fd5b9392505050565b634e487b7160e01b5f52604160045260245ffd5b604051608081016001600160401b0381118282101715611a0d57611a0d6119d7565b60405290565b60405160a081016001600160401b0381118282101715611a0d57611a0d6119d7565b60405161010081016001600160401b0381118282101715611a0d57611a0d6119d7565b604051601f8201601f191681016001600160401b0381118282101715611a8057611a806119d7565b604052919050565b5f6001600160401b03821115611aa057611aa06119d7565b50601f01601f191660200190565b5f82601f830112611abd575f80fd5b8135611ad0611acb82611a88565b611a58565b818152846020838601011115611ae4575f80fd5b816020850160208301375f918101602001919091529392505050565b6001600160a01b03811681146116fc575f80fd5b5f8060408385031215611b25575f80fd5b82356001600160401b03811115611b3a575f80fd5b611b4685828601611aae565b9250506020830135611b5781611b00565b809150509250929050565b6001600160a01b0391909116815260200190565b80151581146116fc575f80fd5b5f805f60608486031215611b95575f80fd5b83359250602084013591506040840135611bae81611b76565b809150509250925092565b5f60208284031215611bc9575f80fd5b5035919050565b5f8060408385031215611be1575f80fd5b823591506020830135611b5781611b00565b5f8060408385031215611c04575f80fd5b82356001600160401b0380821115611c1a575f80fd5b9084019060808287031215611c2d575f80fd5b611c356119eb565b823582811115611c43575f80fd5b611c4f88828601611aae565b825250602083013582811115611c63575f80fd5b611c6f88828601611aae565b6020830152506040830135604082015260608301356060820152809450506020850135915080821115611ca0575f80fd5b50611cad85828601611aae565b9150509250929050565b5f805f60608486031215611cc9575f80fd5b8335611cd481611b00565b92506020840135611ce481611b00565b91506040840135611bae81611b00565b5f8060408385031215611d05575f80fd5b50508035926020909101359150565b5f60208284031215611d24575f80fd5b81356119d081611b00565b5f5b83811015611d49578181015183820152602001611d31565b50505f910152565b5f8151808452611d68816020860160208601611d2f565b601f01601f19169290920160200192915050565b602081525f6119d06020830184611d51565b8051611d9981611b00565b919050565b8051611d9981611b76565b5f60608284031215611db9575f80fd5b604051606081018181106001600160401b0382111715611ddb57611ddb6119d7565b6040528251611de981611b00565b81526020830151611df981611b76565b60208201526040830151611e0c81611b76565b60408201529392505050565b608081525f611e2a6080830185611d51565b905060018060a01b0383511660208301526020830151151560408301526040830151151560608301529392505050565b5f8251611e6b818460208701611d2f565b9190910192915050565b5f82601f830112611e84575f80fd5b8151611e92611acb82611a88565b818152846020838601011115611ea6575f80fd5b611eb7826020830160208701611d2f565b949350505050565b5f60208284031215611ecf575f80fd5b81516001600160401b0380821115611ee5575f80fd5b9083019060a08286031215611ef8575f80fd5b611f00611a13565b825182811115611f0e575f80fd5b611f1a87828601611e75565b82525060208301519150611f2d82611b76565b81602082015260408301519150611f4382611b76565b81604082015260608301519150611f5982611b76565b81606082015260808301519250611f6f83611b76565b6080810192909252509392505050565b5f60208284031215611f8f575f80fd5b81516001600160401b0380821115611fa5575f80fd5b908301906101008286031215611fb9575f80fd5b611fc1611a35565b611fca83611d8e565b8152602083015182811115611fdd575f80fd5b611fe987828601611e75565b602083015250611ffb60408401611d9e565b6040820152606083015160608201526080830151608082015260a083015160a082015261202a60c08401611d9e565b60c082015260e083015182811115612040575f80fd5b61204c87828601611e75565b60e08301525095945050505050565b5f61010060018060a01b038351168452602083015181602086015261208282860182611d51565b915050604083015115156040850152606083015160608501526080830151608085015260a083015160a085015260c08301516120c260c086018215159052565b5060e083015184820360e08601526120da8282611d51565b95945050505050565b828152604060208201525f611eb7604083018461205b565b5f6020828403121561210b575f80fd5b5051919050565b5f60208284031215612122575f80fd5b81516119d081611b00565b602081525f6119d0602083018461205b565b60018060a01b0384168152826020820152606060408201525f6120da6060830184611d5156fea2646970667358221220405da6146cd4e95f64c3723b6f2b10b50ae2f4a02508970ba8a06ea863be749264736f6c63430008140033",
  "linkReferences": {},
  "deployedLinkReferences": {}
}