{
  "_format": "hh-sol-artifact-1",
  "contractName": "TheBadgeUsers",
  "sourceName": "src/contracts/thebadge/TheBadgeUsers.sol",
  "abi": [
    {
      "inputs": [],
      "stateMutability": "nonpayable",
      "type": "constructor"
    },
    {
      "inputs": [],
      "name": "TheBadge__controller_controllerIsPaused",
      "type": "error"
    },
    {
      "inputs": [],
      "name": "TheBadge__controller_invalidController",
      "type": "error"
    },
    {
      "inputs": [],
      "name": "TheBadge__onlyUser_userNotFound",
      "type": "error"
    },
    {
      "inputs": [],
      "name": "TheBadge__registerUser_alreadyRegistered",
      "type": "error"
    },
    {
      "inputs": [],
      "name": "TheBadge__registerUser_wrongValue",
      "type": "error"
    },
    {
      "inputs": [],
      "name": "TheBadge__updateUser_notFound",
      "type": "error"
    },
    {
      "inputs": [],
      "name": "TheBadge__verifyUser_verificationProtocolFeesPaymentFailed",
      "type": "error"
    },
    {
      "inputs": [],
      "name": "TheBadge__verifyUser_wrongValue",
      "type": "error"
    },
    {
      "anonymous": false,
      "inputs": [
        {
          "indexed": false,
          "internalType": "uint8",
          "name": "version",
          "type": "uint8"
        }
      ],
      "name": "Initialized",
      "type": "event"
    },
    {
      "anonymous": false,
      "inputs": [
        {
          "indexed": true,
          "internalType": "address",
          "name": "previousOwner",
          "type": "address"
        },
        {
          "indexed": true,
          "internalType": "address",
          "name": "newOwner",
          "type": "address"
        }
      ],
      "name": "OwnershipTransferred",
      "type": "event"
    },
    {
      "anonymous": false,
      "inputs": [
        {
          "indexed": true,
          "internalType": "bytes32",
          "name": "role",
          "type": "bytes32"
        },
        {
          "indexed": true,
          "internalType": "bytes32",
          "name": "previousAdminRole",
          "type": "bytes32"
        },
        {
          "indexed": true,
          "internalType": "bytes32",
          "name": "newAdminRole",
          "type": "bytes32"
        }
      ],
      "name": "RoleAdminChanged",
      "type": "event"
    },
    {
      "anonymous": false,
      "inputs": [
        {
          "indexed": true,
          "internalType": "bytes32",
          "name": "role",
          "type": "bytes32"
        },
        {
          "indexed": true,
          "internalType": "address",
          "name": "account",
          "type": "address"
        },
        {
          "indexed": true,
          "internalType": "address",
          "name": "sender",
          "type": "address"
        }
      ],
      "name": "RoleGranted",
      "type": "event"
    },
    {
      "anonymous": false,
      "inputs": [
        {
          "indexed": true,
          "internalType": "bytes32",
          "name": "role",
          "type": "bytes32"
        },
        {
          "indexed": true,
          "internalType": "address",
          "name": "account",
          "type": "address"
        },
        {
          "indexed": true,
          "internalType": "address",
          "name": "sender",
          "type": "address"
        }
      ],
      "name": "RoleRevoked",
      "type": "event"
    },
    {
      "inputs": [],
      "name": "DEFAULT_ADMIN_ROLE",
      "outputs": [
        {
          "internalType": "bytes32",
          "name": "",
          "type": "bytes32"
        }
      ],
      "stateMutability": "view",
      "type": "function"
    },
    {
      "inputs": [],
      "name": "PAUSER_ROLE",
      "outputs": [
        {
          "internalType": "bytes32",
          "name": "",
          "type": "bytes32"
        }
      ],
      "stateMutability": "view",
      "type": "function"
    },
    {
      "inputs": [],
      "name": "UPGRADER_ROLE",
      "outputs": [
        {
          "internalType": "bytes32",
          "name": "",
          "type": "bytes32"
        }
      ],
      "stateMutability": "view",
      "type": "function"
    },
    {
      "inputs": [],
      "name": "URI_SETTER_ROLE",
      "outputs": [
        {
          "internalType": "bytes32",
          "name": "",
          "type": "bytes32"
        }
      ],
      "stateMutability": "view",
      "type": "function"
    },
    {
      "inputs": [],
      "name": "VERIFIER_ROLE",
      "outputs": [
        {
          "internalType": "bytes32",
          "name": "",
          "type": "bytes32"
        }
      ],
      "stateMutability": "view",
      "type": "function"
    },
    {
      "inputs": [
        {
          "internalType": "address",
          "name": "_user",
          "type": "address"
        },
        {
          "internalType": "string",
          "name": "controllerName",
          "type": "string"
        },
        {
          "internalType": "bool",
          "name": "verify",
          "type": "bool"
        }
      ],
      "name": "executeUserVerification",
      "outputs": [],
      "stateMutability": "nonpayable",
      "type": "function"
    },
    {
      "inputs": [
        {
          "internalType": "bytes32",
          "name": "role",
          "type": "bytes32"
        }
      ],
      "name": "getRoleAdmin",
      "outputs": [
        {
          "internalType": "bytes32",
          "name": "",
          "type": "bytes32"
        }
      ],
      "stateMutability": "view",
      "type": "function"
    },
    {
      "inputs": [
        {
          "internalType": "string",
          "name": "controllerName",
          "type": "string"
        }
      ],
      "name": "getVerificationFee",
      "outputs": [
        {
          "internalType": "uint256",
          "name": "",
          "type": "uint256"
        }
      ],
      "stateMutability": "view",
      "type": "function"
    },
    {
      "inputs": [
        {
          "internalType": "bytes32",
          "name": "role",
          "type": "bytes32"
        },
        {
          "internalType": "address",
          "name": "account",
          "type": "address"
        }
      ],
      "name": "grantRole",
      "outputs": [],
      "stateMutability": "nonpayable",
      "type": "function"
    },
    {
      "inputs": [
        {
          "internalType": "bytes32",
          "name": "role",
          "type": "bytes32"
        },
        {
          "internalType": "address",
          "name": "account",
          "type": "address"
        }
      ],
      "name": "hasRole",
      "outputs": [
        {
          "internalType": "bool",
          "name": "",
          "type": "bool"
        }
      ],
      "stateMutability": "view",
      "type": "function"
    },
    {
      "inputs": [
        {
          "internalType": "address",
          "name": "admin",
          "type": "address"
        },
        {
          "internalType": "address",
          "name": "badgeStore",
          "type": "address"
        }
      ],
      "name": "initialize",
      "outputs": [],
      "stateMutability": "nonpayable",
      "type": "function"
    },
    {
      "inputs": [
        {
          "internalType": "address",
          "name": "_user",
          "type": "address"
        },
        {
          "internalType": "string",
          "name": "controllerName",
          "type": "string"
        }
      ],
      "name": "isUserVerified",
      "outputs": [
        {
          "internalType": "bool",
          "name": "",
          "type": "bool"
        }
      ],
      "stateMutability": "view",
      "type": "function"
    },
    {
      "inputs": [],
      "name": "owner",
      "outputs": [
        {
          "internalType": "address",
          "name": "",
          "type": "address"
        }
      ],
      "stateMutability": "view",
      "type": "function"
    },
    {
      "inputs": [
        {
          "internalType": "string",
          "name": "_metadata",
          "type": "string"
        },
        {
          "internalType": "bool",
          "name": "_isCompany",
          "type": "bool"
        }
      ],
      "name": "registerUser",
      "outputs": [],
      "stateMutability": "payable",
      "type": "function"
    },
    {
      "inputs": [],
      "name": "renounceOwnership",
      "outputs": [],
      "stateMutability": "nonpayable",
      "type": "function"
    },
    {
      "inputs": [
        {
          "internalType": "bytes32",
          "name": "role",
          "type": "bytes32"
        },
        {
          "internalType": "address",
          "name": "account",
          "type": "address"
        }
      ],
      "name": "renounceRole",
      "outputs": [],
      "stateMutability": "nonpayable",
      "type": "function"
    },
    {
      "inputs": [
        {
          "internalType": "bytes32",
          "name": "role",
          "type": "bytes32"
        },
        {
          "internalType": "address",
          "name": "account",
          "type": "address"
        }
      ],
      "name": "revokeRole",
      "outputs": [],
      "stateMutability": "nonpayable",
      "type": "function"
    },
    {
      "inputs": [
        {
          "internalType": "string",
          "name": "controllerName",
          "type": "string"
        },
        {
          "internalType": "string",
          "name": "evidenceUri",
          "type": "string"
        }
      ],
      "name": "submitUserVerification",
      "outputs": [],
      "stateMutability": "payable",
      "type": "function"
    },
    {
      "inputs": [
        {
          "internalType": "bytes4",
          "name": "interfaceId",
          "type": "bytes4"
        }
      ],
      "name": "supportsInterface",
      "outputs": [
        {
          "internalType": "bool",
          "name": "",
          "type": "bool"
        }
      ],
      "stateMutability": "view",
      "type": "function"
    },
    {
      "inputs": [
        {
          "internalType": "address",
          "name": "_user",
          "type": "address"
        },
        {
          "internalType": "bool",
          "name": "suspended",
          "type": "bool"
        }
      ],
      "name": "suspendUser",
      "outputs": [],
      "stateMutability": "nonpayable",
      "type": "function"
    },
    {
      "inputs": [
        {
          "internalType": "address",
          "name": "newOwner",
          "type": "address"
        }
      ],
      "name": "transferOwnership",
      "outputs": [],
      "stateMutability": "nonpayable",
      "type": "function"
    },
    {
      "inputs": [
        {
          "internalType": "address",
          "name": "_user",
          "type": "address"
        },
        {
          "internalType": "string",
          "name": "_metadata",
          "type": "string"
        }
      ],
      "name": "updateUser",
      "outputs": [],
      "stateMutability": "nonpayable",
      "type": "function"
    },
    {
      "stateMutability": "payable",
      "type": "receive"
    }
  ],
  "bytecode": "0x608060405234801561001057600080fd5b5061001961001e565b6100dd565b600054610100900460ff161561008a5760405162461bcd60e51b815260206004820152602760248201527f496e697469616c697a61626c653a20636f6e747261637420697320696e697469604482015266616c697a696e6760c81b606482015260840160405180910390fd5b60005460ff908116146100db576000805460ff191660ff9081179091556040519081527f7f26b83ff96e1f2b6a682f133852f6798a09c465da95921460cefb38474024989060200160405180910390a15b565b61237c80620000ed6000396000f3fe6080604052600436106101195760003560e01c80638da5cb5b1161009b5780638da5cb5b146102a957806391d14854146102cf578063a217fddf146102ef578063b088981914610304578063c1b8c5f114610324578063d547741f14610344578063e63ab1e914610364578063e71de04814610398578063e7705db6146103b8578063f2fde38b146103ec578063f72c0d8b1461040c57600080fd5b806301ffc9a7146101255780631b6cd6671461015a578063248a9ca31461016f5780632acb0301146101ad5780632f2ff15d146101cd57806336568abe146101ed578063485cc9551461020d5780635c3736f11461022d578063715018a61461024d57806379b233db146102625780637f3457101461027557600080fd5b3661012057005b600080fd5b34801561013157600080fd5b50610145610140366004611b58565b610440565b60405190151581526020015b60405180910390f35b61016d610168366004611c6d565b610477565b005b34801561017b57600080fd5b5061019f61018a366004611cd0565b60009081526065602052604090206001015490565b604051908152602001610151565b3480156101b957600080fd5b506101456101c8366004611cfe565b610970565b3480156101d957600080fd5b5061016d6101e8366004611d43565b610b48565b3480156101f957600080fd5b5061016d610208366004611d43565b610b72565b34801561021957600080fd5b5061016d610228366004611d73565b610bf5565b34801561023957600080fd5b5061016d610248366004611daf565b610d2d565b34801561025957600080fd5b5061016d610e64565b61016d610270366004611ddd565b610e78565b34801561028157600080fd5b5061019f7f7804d923f43a17d325d77e781528e0793b2edd9890ab45fc64efd7b4b427744c81565b3480156102b557600080fd5b506097546001600160a01b03166040516101519190611e23565b3480156102db57600080fd5b506101456102ea366004611d43565b61110c565b3480156102fb57600080fd5b5061019f600081565b34801561031057600080fd5b5061016d61031f366004611cfe565b611137565b34801561033057600080fd5b5061016d61033f366004611e37565b611200565b34801561035057600080fd5b5061016d61035f366004611d43565b6114dd565b34801561037057600080fd5b5061019f7f65d7a28e3265b37a6474929f336521b332c1681b933f6cb9f3376673440d862a81565b3480156103a457600080fd5b5061019f6103b3366004611e9a565b611502565b3480156103c457600080fd5b5061019f7f0ce23c3e399818cfee81a7ab0880f714e53d7672b08df0fa62f2843416e1ea0981565b3480156103f857600080fd5b5061016d610407366004611ed6565b6116d0565b34801561041857600080fd5b5061019f7f189ab7a9244df0848122154315af71fe140f3db0fe014031783b0946b8c9d2e381565b60006001600160e01b03198216637965db0b60e01b148061047157506301ffc9a760e01b6001600160e01b03198316145b92915050565b3360c954604051636f77926b60e01b81526000916001600160a01b031690636f77926b906104a9908590600401611e23565b600060405180830381865afa1580156104c6573d6000803e3d6000fd5b505050506040513d6000823e601f3d908101601f191682016040526104ee9190810190611f27565b8051519091506000036105145760405163ce848fe360e01b815260040160405180910390fd5b60c954604051631c2e21b960e11b815285916000916001600160a01b039091169063385c43729061054990859060040161203b565b606060405180830381865afa158015610566573d6000803e3d6000fd5b505050506040513d601f19601f8201168201806040525081019061058a919061204e565b80519091506001600160a01b03166105b55760405163014eb98760e11b815260040160405180910390fd5b604081015115156000036105dc5760405163014eb98760e11b815260040160405180910390fd5b8060200151156105ff5760405163526e73a560e01b815260040160405180910390fd5b60c954604051631c2e21b960e11b81526000916001600160a01b03169063385c437290610630908a9060040161203b565b606060405180830381865afa15801561064d573d6000803e3d6000fd5b505050506040513d601f19601f82011682018060405250810190610671919061204e565b60c9549091506000906001600160a01b0316636f77926b336040518263ffffffff1660e01b81526004016106a59190611e23565b600060405180830381865afa1580156106c2573d6000803e3d6000fd5b505050506040513d6000823e601f3d908101601f191682016040526106ea9190810190611f27565b60c954604080516331056e5760e21b815290519293508a926000926001600160a01b03169163c415b95c9160048083019260209291908290030181865afa158015610739573d6000803e3d6000fd5b505050506040513d601f19601f8201168201806040525081019061075d91906120bf565b9050600084600001516001600160a01b0316637657dbdd6040518163ffffffff1660e01b8152600401602060405180830381865afa1580156107a3573d6000803e3d6000fd5b505050506040513d601f19601f820116820180604052508101906107c791906120dc565b90508034146107e95760405163e1d94b7f60e01b815260040160405180910390fd5b34156108b4576000826001600160a01b03163460405160006040518083038185875af1925050503d806000811461083c576040519150601f19603f3d011682016040523d82523d6000602084013e610841565b606091505b5090915050801515600003610869576040516331eb874960e21b815260040160405180910390fd5b600060036001600160a01b0385167fdf7cc5ebdb7be805a1d96fd982aba37cbf8e9169d6f34870e8d63a62cd492f643334896040516108aa939291906120f5565b60405180910390a4505b84518451604051635ad433fd60e11b81526001600160a01b039092169163b5a867fa916108e8913391908f9060040161211c565b600060405180830381600087803b15801561090257600080fd5b505af1158015610916573d6000803e3d6000fd5b505050506109213390565b6001600160a01b03167fb17b7f220d392b3fac92feead39a937412996860f3aacd51a13f9271239df6518b8d60405161095b929190612152565b60405180910390a25050505050505050505050565b60c954604051631c2e21b960e11b8152600091839183916001600160a01b03169063385c4372906109a590859060040161203b565b606060405180830381865afa1580156109c2573d6000803e3d6000fd5b505050506040513d601f19601f820116820180604052508101906109e6919061204e565b80519091506001600160a01b0316610a115760405163014eb98760e11b815260040160405180910390fd5b60408101511515600003610a385760405163014eb98760e11b815260040160405180910390fd5b806020015115610a5b5760405163526e73a560e01b815260040160405180910390fd5b60c954604051631c2e21b960e11b81526000916001600160a01b03169063385c437290610a8c90889060040161203b565b606060405180830381865afa158015610aa9573d6000803e3d6000fd5b505050506040513d601f19601f82011682018060405250810190610acd919061204e565b805160405163056720bf60e51b81529192506001600160a01b03169063ace417e090610afd908990600401611e23565b602060405180830381865afa158015610b1a573d6000803e3d6000fd5b505050506040513d601f19601f82011682018060405250810190610b3e9190612177565b9695505050505050565b600082815260656020526040902060010154610b6381611749565b610b6d8383611753565b505050565b6001600160a01b0381163314610be75760405162461bcd60e51b815260206004820152602f60248201527f416363657373436f6e74726f6c3a2063616e206f6e6c792072656e6f756e636560448201526e103937b632b9903337b91039b2b63360891b60648201526084015b60405180910390fd5b610bf182826117d9565b5050565b600054610100900460ff1615808015610c155750600054600160ff909116105b80610c2f5750303b158015610c2f575060005460ff166001145b610c925760405162461bcd60e51b815260206004820152602e60248201527f496e697469616c697a61626c653a20636f6e747261637420697320616c72656160448201526d191e481a5b9a5d1a585b1a5e995960921b6064820152608401610bde565b6000805460ff191660011790558015610cb5576000805461ff0019166101001790555b610cbd611840565b610cc8600084611753565b60c980546001600160a01b0319166001600160a01b0384161790558015610b6d576000805461ff0019169055604051600181527f7f26b83ff96e1f2b6a682f133852f6798a09c465da95921460cefb38474024989060200160405180910390a1505050565b7f65d7a28e3265b37a6474929f336521b332c1681b933f6cb9f3376673440d862a610d5781611749565b60c954604051636f77926b60e01b81526000916001600160a01b031690636f77926b90610d88908790600401611e23565b600060405180830381865afa158015610da5573d6000803e3d6000fd5b505050506040513d6000823e601f3d908101601f19168201604052610dcd9190810190611f27565b805151909150600003610df3576040516365553c4160e11b815260040160405180910390fd5b821515606082015260c9546001600160a01b031663178682c1335b836040518363ffffffff1660e01b8152600401610e2c929190612194565b600060405180830381600087803b158015610e4657600080fd5b505af1158015610e5a573d6000803e3d6000fd5b5050505050505050565b610e6c61186f565b610e7660006118c9565b565b60c954604051636f77926b60e01b81526000916001600160a01b031690636f77926b90610ea9903390600401611e23565b600060405180830381865afa158015610ec6573d6000803e3d6000fd5b505050506040513d6000823e601f3d908101601f19168201604052610eee9190810190611f27565b80515190915015610f125760405163096bb4a360e41b815260040160405180910390fd5b60c9546040805163e70a0e6960e01b815290516000926001600160a01b03169163e70a0e699160048083019260209291908290030181865afa158015610f5c573d6000803e3d6000fd5b505050506040513d601f19601f82011682018060405250810190610f8091906120dc565b9050803414610fa257604051638c77ddf360e01b815260040160405180910390fd5b34156110bc5760c954604080516331056e5760e21b815290516000926001600160a01b03169163c415b95c9160048083019260209291908290030181865afa158015610ff2573d6000803e3d6000fd5b505050506040513d601f19601f8201168201806040525081019061101691906120bf565b6040519091506001600160a01b038216903480156108fc02916000818181858888f1935050505015801561104e573d6000803e3d6000fd5b50600060026001600160a01b0383167fdf7cc5ebdb7be805a1d96fd982aba37cbf8e9169d6f34870e8d63a62cd492f6433604080516001600160a01b039092168252346020830152606090820181905260029082015261060f60f31b608082015260a00160405180910390a4505b838252821515602083015260006040830181905260608301526001608083015260c9546001600160a01b031663e9ab224e33846040518363ffffffff1660e01b8152600401610e2c929190612194565b60009182526065602090815260408084206001600160a01b0393909316845291905290205460ff1690565b600061114281611749565b60c954604051636f77926b60e01b81526000916001600160a01b031690636f77926b90611173908790600401611e23565b600060405180830381865afa158015611190573d6000803e3d6000fd5b505050506040513d6000823e601f3d908101601f191682016040526111b89190810190611f27565b8051519091506000036111de576040516365553c4160e11b815260040160405180910390fd5b8251156111e9578281525b60c9546001600160a01b031663178682c133610e0e565b7f0ce23c3e399818cfee81a7ab0880f714e53d7672b08df0fa62f2843416e1ea0961122a81611749565b60c954604051631c2e21b960e11b815284916000916001600160a01b039091169063385c43729061125f90859060040161203b565b606060405180830381865afa15801561127c573d6000803e3d6000fd5b505050506040513d601f19601f820116820180604052508101906112a0919061204e565b80519091506001600160a01b03166112cb5760405163014eb98760e11b815260040160405180910390fd5b604081015115156000036112f25760405163014eb98760e11b815260040160405180910390fd5b8060200151156113155760405163526e73a560e01b815260040160405180910390fd5b60c954604051636f77926b60e01b815287916000916001600160a01b0390911690636f77926b9061134a908590600401611e23565b600060405180830381865afa158015611367573d6000803e3d6000fd5b505050506040513d6000823e601f3d908101601f1916820160405261138f9190810190611f27565b8051519091506000036113b55760405163ce848fe360e01b815260040160405180910390fd5b60c954604051631c2e21b960e11b81526000916001600160a01b03169063385c4372906113e6908b9060040161203b565b606060405180830381865afa158015611403573d6000803e3d6000fd5b505050506040513d601f19601f82011682018060405250810190611427919061204e565b805160405163130bd93f60e01b81526001600160a01b038c811660048301528a1515602483015292935091169063130bd93f90604401600060405180830381600087803b15801561147757600080fd5b505af115801561148b573d6000803e3d6000fd5b50505050886001600160a01b03167fdea1140938dde90016dc539563f1fa2f3f675e2cdee8d0c6a7999e1830cc81be89896040516114ca9291906121fb565b60405180910390a2505050505050505050565b6000828152606560205260409020600101546114f881611749565b610b6d83836117d9565b60c954604051631c2e21b960e11b8152600091839183916001600160a01b03169063385c43729061153790859060040161203b565b606060405180830381865afa158015611554573d6000803e3d6000fd5b505050506040513d601f19601f82011682018060405250810190611578919061204e565b80519091506001600160a01b03166115a35760405163014eb98760e11b815260040160405180910390fd5b604081015115156000036115ca5760405163014eb98760e11b815260040160405180910390fd5b8060200151156115ed5760405163526e73a560e01b815260040160405180910390fd5b60c954604051631c2e21b960e11b81526000916001600160a01b03169063385c43729061161e90889060040161203b565b606060405180830381865afa15801561163b573d6000803e3d6000fd5b505050506040513d601f19601f8201168201806040525081019061165f919061204e565b905080600001516001600160a01b0316637657dbdd6040518163ffffffff1660e01b8152600401602060405180830381865afa1580156116a3573d6000803e3d6000fd5b505050506040513d601f19601f820116820180604052508101906116c791906120dc565b95945050505050565b6116d861186f565b6001600160a01b03811661173d5760405162461bcd60e51b815260206004820152602660248201527f4f776e61626c653a206e6577206f776e657220697320746865207a65726f206160448201526564647265737360d01b6064820152608401610bde565b611746816118c9565b50565b611746813361191b565b61175d828261110c565b610bf15760008281526065602090815260408083206001600160a01b03851684529091529020805460ff191660011790556117953390565b6001600160a01b0316816001600160a01b0316837f2f8788117e7eff1d82e926ec794901d17c78024a50270940304540a733656f0d60405160405180910390a45050565b6117e3828261110c565b15610bf15760008281526065602090815260408083206001600160a01b0385168085529252808320805460ff1916905551339285917ff6391f5c32d9c69d2a47ea670b442974b53935d1edc7fd64eb21e047a839171b9190a45050565b600054610100900460ff166118675760405162461bcd60e51b8152600401610bde9061221f565b610e76611974565b6097546001600160a01b03163314610e765760405162461bcd60e51b815260206004820181905260248201527f4f776e61626c653a2063616c6c6572206973206e6f7420746865206f776e65726044820152606401610bde565b609780546001600160a01b038381166001600160a01b0319831681179093556040519116919082907f8be0079c531659141344cd1fd0a4f28419497f9722a3daafe3b4186f6b6457e090600090a35050565b611925828261110c565b610bf157611932816119a4565b61193d8360206119b6565b60405160200161194e92919061226a565b60408051601f198184030181529082905262461bcd60e51b8252610bde9160040161203b565b600054610100900460ff1661199b5760405162461bcd60e51b8152600401610bde9061221f565b610e76336118c9565b60606104716001600160a01b03831660145b606060006119c58360026122ef565b6119d0906002612306565b6001600160401b038111156119e7576119e7611b82565b6040519080825280601f01601f191660200182016040528015611a11576020820181803683370190505b509050600360fc1b81600081518110611a2c57611a2c612319565b60200101906001600160f81b031916908160001a905350600f60fb1b81600181518110611a5b57611a5b612319565b60200101906001600160f81b031916908160001a9053506000611a7f8460026122ef565b611a8a906001612306565b90505b6001811115611b02576f181899199a1a9b1b9c1cb0b131b232b360811b85600f1660108110611abe57611abe612319565b1a60f81b828281518110611ad457611ad4612319565b60200101906001600160f81b031916908160001a90535060049490941c93611afb8161232f565b9050611a8d565b508315611b515760405162461bcd60e51b815260206004820181905260248201527f537472696e67733a20686578206c656e67746820696e73756666696369656e746044820152606401610bde565b9392505050565b600060208284031215611b6a57600080fd5b81356001600160e01b031981168114611b5157600080fd5b634e487b7160e01b600052604160045260246000fd5b60405160a081016001600160401b0381118282101715611bba57611bba611b82565b60405290565b604051601f8201601f191681016001600160401b0381118282101715611be857611be8611b82565b604052919050565b60006001600160401b03821115611c0957611c09611b82565b50601f01601f191660200190565b600082601f830112611c2857600080fd5b8135611c3b611c3682611bf0565b611bc0565b818152846020838601011115611c5057600080fd5b816020850160208301376000918101602001919091529392505050565b60008060408385031215611c8057600080fd5b82356001600160401b0380821115611c9757600080fd5b611ca386838701611c17565b93506020850135915080821115611cb957600080fd5b50611cc685828601611c17565b9150509250929050565b600060208284031215611ce257600080fd5b5035919050565b6001600160a01b038116811461174657600080fd5b60008060408385031215611d1157600080fd5b8235611d1c81611ce9565b915060208301356001600160401b03811115611d3757600080fd5b611cc685828601611c17565b60008060408385031215611d5657600080fd5b823591506020830135611d6881611ce9565b809150509250929050565b60008060408385031215611d8657600080fd5b8235611d9181611ce9565b91506020830135611d6881611ce9565b801515811461174657600080fd5b60008060408385031215611dc257600080fd5b8235611dcd81611ce9565b91506020830135611d6881611da1565b60008060408385031215611df057600080fd5b82356001600160401b03811115611e0657600080fd5b611e1285828601611c17565b9250506020830135611d6881611da1565b6001600160a01b0391909116815260200190565b600080600060608486031215611e4c57600080fd5b8335611e5781611ce9565b925060208401356001600160401b03811115611e7257600080fd5b611e7e86828701611c17565b9250506040840135611e8f81611da1565b809150509250925092565b600060208284031215611eac57600080fd5b81356001600160401b03811115611ec257600080fd5b611ece84828501611c17565b949350505050565b600060208284031215611ee857600080fd5b8135611b5181611ce9565b60005b83811015611f0e578181015183820152602001611ef6565b50506000910152565b8051611f2281611da1565b919050565b60006020808385031215611f3a57600080fd5b82516001600160401b0380821115611f5157600080fd5b9084019060a08287031215611f6557600080fd5b611f6d611b98565b825182811115611f7c57600080fd5b83019150601f82018713611f8f57600080fd5b8151611f9d611c3682611bf0565b8181528886838601011115611fb157600080fd5b611fc082878301888701611ef3565b825250611fce838501611f17565b84820152611fde60408401611f17565b6040820152611fef60608401611f17565b606082015261200060808401611f17565b60808201529695505050505050565b60008151808452612027816020860160208601611ef3565b601f01601f19169290920160200192915050565b602081526000611b51602083018461200f565b60006060828403121561206057600080fd5b604051606081018181106001600160401b038211171561208257612082611b82565b604052825161209081611ce9565b815260208301516120a081611da1565b602082015260408301516120b381611da1565b60408201529392505050565b6000602082840312156120d157600080fd5b8151611b5181611ce9565b6000602082840312156120ee57600080fd5b5051919050565b60018060a01b03841681528260208201526060604082015260006116c7606083018461200f565b6001600160a01b03841681526060602082018190526000906121409083018561200f565b8281036040840152610b3e818561200f565b604081526000612165604083018561200f565b82810360208401526116c7818561200f565b60006020828403121561218957600080fd5b8151611b5181611da1565b60018060a01b0383168152604060208201526000825160a060408401526121be60e084018261200f565b90506020840151151560608401526040840151151560808401526060840151151560a08401526080840151151560c0840152809150509392505050565b60408152600061220e604083018561200f565b905082151560208301529392505050565b6020808252602b908201527f496e697469616c697a61626c653a20636f6e7472616374206973206e6f74206960408201526a6e697469616c697a696e6760a81b606082015260800190565b76020b1b1b2b9b9a1b7b73a3937b61d1030b1b1b7bab73a1604d1b81526000835161229c816017850160208801611ef3565b7001034b99036b4b9b9b4b733903937b6329607d1b60179184019182015283516122cd816028840160208801611ef3565b01602801949350505050565b634e487b7160e01b600052601160045260246000fd5b8082028115828204841417610471576104716122d9565b80820180821115610471576104716122d9565b634e487b7160e01b600052603260045260246000fd5b60008161233e5761233e6122d9565b50600019019056fea26469706673582212207ff5f7e6c0c8654538498078aa8c12ddcdf2469cf0f51e5fe8267def446c36b564736f6c63430008110033",
  "linkReferences": {},
  "deployedLinkReferences": {}
}