{
  "_format": "hh-sol-artifact-1",
  "contractName": "TheBadgeUsers",
  "sourceName": "src/contracts/thebadge/TheBadgeUsers.sol",
  "abi": [
    {
      "inputs": [],
      "stateMutability": "nonpayable",
      "type": "constructor"
    },
    {
      "inputs": [],
      "name": "TheBadge__controller_controllerIsPaused",
      "type": "error"
    },
    {
      "inputs": [],
      "name": "TheBadge__controller_invalidController",
      "type": "error"
    },
    {
      "inputs": [],
      "name": "TheBadge__onlyCreator_senderIsAlreadyACreator",
      "type": "error"
    },
    {
      "inputs": [],
      "name": "TheBadge__onlyUser_userNotFound",
      "type": "error"
    },
    {
      "inputs": [],
      "name": "TheBadge__registerUser_alreadyRegistered",
      "type": "error"
    },
    {
      "inputs": [],
      "name": "TheBadge__registerUser_wrongValue",
      "type": "error"
    },
    {
      "inputs": [],
      "name": "TheBadge__updateUser_notFound",
      "type": "error"
    },
    {
      "inputs": [],
      "name": "TheBadge__verifyUser_verificationProtocolFeesPaymentFailed",
      "type": "error"
    },
    {
      "inputs": [],
      "name": "TheBadge__verifyUser_wrongValue",
      "type": "error"
    },
    {
      "anonymous": false,
      "inputs": [
        {
          "indexed": true,
          "internalType": "address",
          "name": "user",
          "type": "address"
        }
      ],
      "name": "CreatorRegistered",
      "type": "event"
    },
    {
      "anonymous": false,
      "inputs": [
        {
          "indexed": false,
          "internalType": "uint8",
          "name": "version",
          "type": "uint8"
        }
      ],
      "name": "Initialized",
      "type": "event"
    },
    {
      "anonymous": false,
      "inputs": [
        {
          "indexed": true,
          "internalType": "address",
          "name": "previousOwner",
          "type": "address"
        },
        {
          "indexed": true,
          "internalType": "address",
          "name": "newOwner",
          "type": "address"
        }
      ],
      "name": "OwnershipTransferred",
      "type": "event"
    },
    {
      "anonymous": false,
      "inputs": [
        {
          "indexed": true,
          "internalType": "address",
          "name": "recipient",
          "type": "address"
        },
        {
          "indexed": false,
          "internalType": "address",
          "name": "payer",
          "type": "address"
        },
        {
          "indexed": false,
          "internalType": "uint256",
          "name": "amount",
          "type": "uint256"
        },
        {
          "indexed": true,
          "internalType": "enum LibTheBadge.PaymentType",
          "name": "paymentType",
          "type": "uint8"
        },
        {
          "indexed": true,
          "internalType": "uint256",
          "name": "badgeModelId",
          "type": "uint256"
        },
        {
          "indexed": false,
          "internalType": "string",
          "name": "controllerName",
          "type": "string"
        }
      ],
      "name": "PaymentMade",
      "type": "event"
    },
    {
      "anonymous": false,
      "inputs": [
        {
          "indexed": true,
          "internalType": "bytes32",
          "name": "role",
          "type": "bytes32"
        },
        {
          "indexed": true,
          "internalType": "bytes32",
          "name": "previousAdminRole",
          "type": "bytes32"
        },
        {
          "indexed": true,
          "internalType": "bytes32",
          "name": "newAdminRole",
          "type": "bytes32"
        }
      ],
      "name": "RoleAdminChanged",
      "type": "event"
    },
    {
      "anonymous": false,
      "inputs": [
        {
          "indexed": true,
          "internalType": "bytes32",
          "name": "role",
          "type": "bytes32"
        },
        {
          "indexed": true,
          "internalType": "address",
          "name": "account",
          "type": "address"
        },
        {
          "indexed": true,
          "internalType": "address",
          "name": "sender",
          "type": "address"
        }
      ],
      "name": "RoleGranted",
      "type": "event"
    },
    {
      "anonymous": false,
      "inputs": [
        {
          "indexed": true,
          "internalType": "bytes32",
          "name": "role",
          "type": "bytes32"
        },
        {
          "indexed": true,
          "internalType": "address",
          "name": "account",
          "type": "address"
        },
        {
          "indexed": true,
          "internalType": "address",
          "name": "sender",
          "type": "address"
        }
      ],
      "name": "RoleRevoked",
      "type": "event"
    },
    {
      "anonymous": false,
      "inputs": [
        {
          "indexed": true,
          "internalType": "address",
          "name": "userAddress",
          "type": "address"
        },
        {
          "indexed": false,
          "internalType": "string",
          "name": "metadata",
          "type": "string"
        },
        {
          "indexed": false,
          "internalType": "bool",
          "name": "suspended",
          "type": "bool"
        },
        {
          "indexed": false,
          "internalType": "bool",
          "name": "isCreator",
          "type": "bool"
        },
        {
          "indexed": false,
          "internalType": "bool",
          "name": "deleted",
          "type": "bool"
        }
      ],
      "name": "UpdatedUser",
      "type": "event"
    },
    {
      "anonymous": false,
      "inputs": [
        {
          "indexed": true,
          "internalType": "address",
          "name": "user",
          "type": "address"
        },
        {
          "indexed": false,
          "internalType": "string",
          "name": "metadata",
          "type": "string"
        }
      ],
      "name": "UserRegistered",
      "type": "event"
    },
    {
      "anonymous": false,
      "inputs": [
        {
          "indexed": true,
          "internalType": "address",
          "name": "user",
          "type": "address"
        },
        {
          "indexed": false,
          "internalType": "string",
          "name": "controllerName",
          "type": "string"
        },
        {
          "indexed": false,
          "internalType": "bool",
          "name": "verify",
          "type": "bool"
        }
      ],
      "name": "UserVerificationExecuted",
      "type": "event"
    },
    {
      "anonymous": false,
      "inputs": [
        {
          "indexed": true,
          "internalType": "address",
          "name": "user",
          "type": "address"
        },
        {
          "indexed": false,
          "internalType": "string",
          "name": "metadata",
          "type": "string"
        },
        {
          "indexed": false,
          "internalType": "string",
          "name": "controllerName",
          "type": "string"
        }
      ],
      "name": "UserVerificationRequested",
      "type": "event"
    },
    {
      "inputs": [],
      "name": "CLAIMER_ROLE",
      "outputs": [
        {
          "internalType": "bytes32",
          "name": "",
          "type": "bytes32"
        }
      ],
      "stateMutability": "view",
      "type": "function"
    },
    {
      "inputs": [],
      "name": "DEFAULT_ADMIN_ROLE",
      "outputs": [
        {
          "internalType": "bytes32",
          "name": "",
          "type": "bytes32"
        }
      ],
      "stateMutability": "view",
      "type": "function"
    },
    {
      "inputs": [],
      "name": "PAUSER_ROLE",
      "outputs": [
        {
          "internalType": "bytes32",
          "name": "",
          "type": "bytes32"
        }
      ],
      "stateMutability": "view",
      "type": "function"
    },
    {
      "inputs": [],
      "name": "UPGRADER_ROLE",
      "outputs": [
        {
          "internalType": "bytes32",
          "name": "",
          "type": "bytes32"
        }
      ],
      "stateMutability": "view",
      "type": "function"
    },
    {
      "inputs": [],
      "name": "URI_SETTER_ROLE",
      "outputs": [
        {
          "internalType": "bytes32",
          "name": "",
          "type": "bytes32"
        }
      ],
      "stateMutability": "view",
      "type": "function"
    },
    {
      "inputs": [],
      "name": "USER_MANAGER_ROLE",
      "outputs": [
        {
          "internalType": "bytes32",
          "name": "",
          "type": "bytes32"
        }
      ],
      "stateMutability": "view",
      "type": "function"
    },
    {
      "inputs": [],
      "name": "VERIFIER_ROLE",
      "outputs": [
        {
          "internalType": "bytes32",
          "name": "",
          "type": "bytes32"
        }
      ],
      "stateMutability": "view",
      "type": "function"
    },
    {
      "inputs": [],
      "name": "_badgeStore",
      "outputs": [
        {
          "internalType": "contract TheBadgeStore",
          "name": "",
          "type": "address"
        }
      ],
      "stateMutability": "view",
      "type": "function"
    },
    {
      "inputs": [
        {
          "internalType": "address",
          "name": "_user",
          "type": "address"
        },
        {
          "internalType": "string",
          "name": "controllerName",
          "type": "string"
        },
        {
          "internalType": "bool",
          "name": "verify",
          "type": "bool"
        }
      ],
      "name": "executeUserVerification",
      "outputs": [],
      "stateMutability": "nonpayable",
      "type": "function"
    },
    {
      "inputs": [
        {
          "internalType": "bytes32",
          "name": "role",
          "type": "bytes32"
        }
      ],
      "name": "getRoleAdmin",
      "outputs": [
        {
          "internalType": "bytes32",
          "name": "",
          "type": "bytes32"
        }
      ],
      "stateMutability": "view",
      "type": "function"
    },
    {
      "inputs": [
        {
          "internalType": "string",
          "name": "controllerName",
          "type": "string"
        }
      ],
      "name": "getVerificationFee",
      "outputs": [
        {
          "internalType": "uint256",
          "name": "",
          "type": "uint256"
        }
      ],
      "stateMutability": "view",
      "type": "function"
    },
    {
      "inputs": [
        {
          "internalType": "bytes32",
          "name": "role",
          "type": "bytes32"
        },
        {
          "internalType": "address",
          "name": "account",
          "type": "address"
        }
      ],
      "name": "grantRole",
      "outputs": [],
      "stateMutability": "nonpayable",
      "type": "function"
    },
    {
      "inputs": [
        {
          "internalType": "bytes32",
          "name": "role",
          "type": "bytes32"
        },
        {
          "internalType": "address",
          "name": "account",
          "type": "address"
        }
      ],
      "name": "hasRole",
      "outputs": [
        {
          "internalType": "bool",
          "name": "",
          "type": "bool"
        }
      ],
      "stateMutability": "view",
      "type": "function"
    },
    {
      "inputs": [
        {
          "internalType": "address",
          "name": "admin",
          "type": "address"
        },
        {
          "internalType": "address",
          "name": "badgeStore",
          "type": "address"
        }
      ],
      "name": "initialize",
      "outputs": [],
      "stateMutability": "nonpayable",
      "type": "function"
    },
    {
      "inputs": [
        {
          "internalType": "address",
          "name": "_user",
          "type": "address"
        },
        {
          "internalType": "string",
          "name": "controllerName",
          "type": "string"
        }
      ],
      "name": "isUserVerified",
      "outputs": [
        {
          "internalType": "bool",
          "name": "",
          "type": "bool"
        }
      ],
      "stateMutability": "view",
      "type": "function"
    },
    {
      "inputs": [
        {
          "internalType": "address",
          "name": "_userAddress",
          "type": "address"
        }
      ],
      "name": "makeUserCreator",
      "outputs": [],
      "stateMutability": "nonpayable",
      "type": "function"
    },
    {
      "inputs": [],
      "name": "owner",
      "outputs": [
        {
          "internalType": "address",
          "name": "",
          "type": "address"
        }
      ],
      "stateMutability": "view",
      "type": "function"
    },
    {
      "inputs": [
        {
          "internalType": "string",
          "name": "_metadata",
          "type": "string"
        },
        {
          "internalType": "bool",
          "name": "_isCompany",
          "type": "bool"
        }
      ],
      "name": "registerUser",
      "outputs": [],
      "stateMutability": "payable",
      "type": "function"
    },
    {
      "inputs": [],
      "name": "renounceOwnership",
      "outputs": [],
      "stateMutability": "nonpayable",
      "type": "function"
    },
    {
      "inputs": [
        {
          "internalType": "bytes32",
          "name": "role",
          "type": "bytes32"
        },
        {
          "internalType": "address",
          "name": "account",
          "type": "address"
        }
      ],
      "name": "renounceRole",
      "outputs": [],
      "stateMutability": "nonpayable",
      "type": "function"
    },
    {
      "inputs": [
        {
          "internalType": "bytes32",
          "name": "role",
          "type": "bytes32"
        },
        {
          "internalType": "address",
          "name": "account",
          "type": "address"
        }
      ],
      "name": "revokeRole",
      "outputs": [],
      "stateMutability": "nonpayable",
      "type": "function"
    },
    {
      "inputs": [
        {
          "internalType": "string",
          "name": "controllerName",
          "type": "string"
        },
        {
          "internalType": "string",
          "name": "evidenceUri",
          "type": "string"
        }
      ],
      "name": "submitUserVerification",
      "outputs": [],
      "stateMutability": "payable",
      "type": "function"
    },
    {
      "inputs": [
        {
          "internalType": "bytes4",
          "name": "interfaceId",
          "type": "bytes4"
        }
      ],
      "name": "supportsInterface",
      "outputs": [
        {
          "internalType": "bool",
          "name": "",
          "type": "bool"
        }
      ],
      "stateMutability": "view",
      "type": "function"
    },
    {
      "inputs": [
        {
          "internalType": "address",
          "name": "_userAddress",
          "type": "address"
        },
        {
          "internalType": "bool",
          "name": "suspended",
          "type": "bool"
        }
      ],
      "name": "suspendUser",
      "outputs": [],
      "stateMutability": "nonpayable",
      "type": "function"
    },
    {
      "inputs": [
        {
          "internalType": "address",
          "name": "newOwner",
          "type": "address"
        }
      ],
      "name": "transferOwnership",
      "outputs": [],
      "stateMutability": "nonpayable",
      "type": "function"
    },
    {
      "inputs": [
        {
          "internalType": "address",
          "name": "_userAddress",
          "type": "address"
        },
        {
          "internalType": "string",
          "name": "_metadata",
          "type": "string"
        }
      ],
      "name": "updateUser",
      "outputs": [],
      "stateMutability": "nonpayable",
      "type": "function"
    },
    {
      "stateMutability": "payable",
      "type": "receive"
    }
  ],
  "bytecode": "0x60806040523480156200001157600080fd5b506200001c62000022565b620000e3565b600054610100900460ff16156200008f5760405162461bcd60e51b815260206004820152602760248201527f496e697469616c697a61626c653a20636f6e747261637420697320696e697469604482015266616c697a696e6760c81b606482015260840160405180910390fd5b60005460ff90811614620000e1576000805460ff191660ff9081179091556040519081527f7f26b83ff96e1f2b6a682f133852f6798a09c465da95921460cefb38474024989060200160405180910390a15b565b61275780620000f36000396000f3fe6080604052600436106101455760003560e01c80638da5cb5b116100b15780638da5cb5b1461032257806391d1485414610340578063a217fddf14610360578063a41e35c314610375578063b0889819146103a9578063c1b8c5f1146103c9578063d547741f146103e9578063e63ab1e914610409578063e71de0481461043d578063e7705db61461045d578063f2fde38b14610491578063f72c0d8b146104b1578063fc5f18d3146104e557600080fd5b806301ffc9a71461015157806319b50c2a146101865780631b6cd667146101b3578063248a9ca3146101c85780632acb0301146102065780632f2ff15d1461022657806336568abe14610246578063485cc955146102665780635c3736f114610286578063715018a6146102a657806379b233db146102bb5780637f345710146102ce5780638a4be4901461030257600080fd5b3661014c57005b600080fd5b34801561015d57600080fd5b5061017161016c366004611f02565b610519565b60405190151581526020015b60405180910390f35b34801561019257600080fd5b5060c9546101a6906001600160a01b031681565b60405161017d9190611f2c565b6101c66101c136600461202b565b610550565b005b3480156101d457600080fd5b506101f86101e336600461208e565b60009081526065602052604090206001015490565b60405190815260200161017d565b34801561021257600080fd5b506101716102213660046120bc565b610a49565b34801561023257600080fd5b506101c6610241366004612101565b610c21565b34801561025257600080fd5b506101c6610261366004612101565b610c4b565b34801561027257600080fd5b506101c6610281366004612131565b610cce565b34801561029257600080fd5b506101c66102a136600461216d565b610e06565b3480156102b257600080fd5b506101c6610f3e565b6101c66102c936600461219b565b610f52565b3480156102da57600080fd5b506101f87f7804d923f43a17d325d77e781528e0793b2edd9890ab45fc64efd7b4b427744c81565b34801561030e57600080fd5b506101c661031d3660046121e1565b611269565b34801561032e57600080fd5b506097546001600160a01b03166101a6565b34801561034c57600080fd5b5061017161035b366004612101565b61141d565b34801561036c57600080fd5b506101f8600081565b34801561038157600080fd5b506101f87fcbaaf41b181bb6e269c490e876a7c97711b57e21dd8e5528423cf57579726b3581565b3480156103b557600080fd5b506101c66103c43660046120bc565b611448565b3480156103d557600080fd5b506101c66103e43660046121fe565b6115aa565b3480156103f557600080fd5b506101c6610404366004612101565b611887565b34801561041557600080fd5b506101f87f65d7a28e3265b37a6474929f336521b332c1681b933f6cb9f3376673440d862a81565b34801561044957600080fd5b506101f8610458366004612261565b6118ac565b34801561046957600080fd5b506101f87f0ce23c3e399818cfee81a7ab0880f714e53d7672b08df0fa62f2843416e1ea0981565b34801561049d57600080fd5b506101c66104ac3660046121e1565b611a7a565b3480156104bd57600080fd5b506101f87f189ab7a9244df0848122154315af71fe140f3db0fe014031783b0946b8c9d2e381565b3480156104f157600080fd5b506101f87f11a8cb5a02bd6c42679835e867ef2118ba78f088f8300511420c6603c21d9c7881565b60006001600160e01b03198216637965db0b60e01b148061054a57506301ffc9a760e01b6001600160e01b03198316145b92915050565b3360c954604051636f77926b60e01b81526000916001600160a01b031690636f77926b90610582908590600401611f2c565b600060405180830381865afa15801561059f573d6000803e3d6000fd5b505050506040513d6000823e601f3d908101601f191682016040526105c791908101906122d1565b8051519091506000036105ed5760405163ce848fe360e01b815260040160405180910390fd5b60c954604051631c2e21b960e11b815285916000916001600160a01b039091169063385c4372906106229085906004016123e5565b606060405180830381865afa15801561063f573d6000803e3d6000fd5b505050506040513d601f19601f8201168201806040525081019061066391906123f8565b80519091506001600160a01b031661068e5760405163014eb98760e11b815260040160405180910390fd5b604081015115156000036106b55760405163014eb98760e11b815260040160405180910390fd5b8060200151156106d85760405163526e73a560e01b815260040160405180910390fd5b60c954604051631c2e21b960e11b81526000916001600160a01b03169063385c437290610709908a906004016123e5565b606060405180830381865afa158015610726573d6000803e3d6000fd5b505050506040513d601f19601f8201168201806040525081019061074a91906123f8565b60c9549091506000906001600160a01b0316636f77926b336040518263ffffffff1660e01b815260040161077e9190611f2c565b600060405180830381865afa15801561079b573d6000803e3d6000fd5b505050506040513d6000823e601f3d908101601f191682016040526107c391908101906122d1565b60c954604080516331056e5760e21b815290519293508a926000926001600160a01b03169163c415b95c9160048083019260209291908290030181865afa158015610812573d6000803e3d6000fd5b505050506040513d601f19601f820116820180604052508101906108369190612469565b9050600084600001516001600160a01b0316637657dbdd6040518163ffffffff1660e01b8152600401602060405180830381865afa15801561087c573d6000803e3d6000fd5b505050506040513d601f19601f820116820180604052508101906108a09190612486565b90508034146108c25760405163e1d94b7f60e01b815260040160405180910390fd5b341561098d576000826001600160a01b03163460405160006040518083038185875af1925050503d8060008114610915576040519150601f19603f3d011682016040523d82523d6000602084013e61091a565b606091505b5090915050801515600003610942576040516331eb874960e21b815260040160405180910390fd5b600060036001600160a01b0385167fdf7cc5ebdb7be805a1d96fd982aba37cbf8e9169d6f34870e8d63a62cd492f643334896040516109839392919061249f565b60405180910390a4505b84518451604051635ad433fd60e11b81526001600160a01b039092169163b5a867fa916109c1913391908f906004016124c6565b600060405180830381600087803b1580156109db57600080fd5b505af11580156109ef573d6000803e3d6000fd5b505050506109fa3390565b6001600160a01b03167fb17b7f220d392b3fac92feead39a937412996860f3aacd51a13f9271239df6518b8d604051610a349291906124fc565b60405180910390a25050505050505050505050565b60c954604051631c2e21b960e11b8152600091839183916001600160a01b03169063385c437290610a7e9085906004016123e5565b606060405180830381865afa158015610a9b573d6000803e3d6000fd5b505050506040513d601f19601f82011682018060405250810190610abf91906123f8565b80519091506001600160a01b0316610aea5760405163014eb98760e11b815260040160405180910390fd5b60408101511515600003610b115760405163014eb98760e11b815260040160405180910390fd5b806020015115610b345760405163526e73a560e01b815260040160405180910390fd5b60c954604051631c2e21b960e11b81526000916001600160a01b03169063385c437290610b659088906004016123e5565b606060405180830381865afa158015610b82573d6000803e3d6000fd5b505050506040513d601f19601f82011682018060405250810190610ba691906123f8565b805160405163056720bf60e51b81529192506001600160a01b03169063ace417e090610bd6908990600401611f2c565b602060405180830381865afa158015610bf3573d6000803e3d6000fd5b505050506040513d601f19601f82011682018060405250810190610c179190612521565b9695505050505050565b600082815260656020526040902060010154610c3c81611af3565b610c468383611afd565b505050565b6001600160a01b0381163314610cc05760405162461bcd60e51b815260206004820152602f60248201527f416363657373436f6e74726f6c3a2063616e206f6e6c792072656e6f756e636560448201526e103937b632b9903337b91039b2b63360891b60648201526084015b60405180910390fd5b610cca8282611b83565b5050565b600054610100900460ff1615808015610cee5750600054600160ff909116105b80610d085750303b158015610d08575060005460ff166001145b610d6b5760405162461bcd60e51b815260206004820152602e60248201527f496e697469616c697a61626c653a20636f6e747261637420697320616c72656160448201526d191e481a5b9a5d1a585b1a5e995960921b6064820152608401610cb7565b6000805460ff191660011790558015610d8e576000805461ff0019166101001790555b610d96611bea565b610da1600084611afd565b60c980546001600160a01b0319166001600160a01b0384161790558015610c46576000805461ff0019169055604051600181527f7f26b83ff96e1f2b6a682f133852f6798a09c465da95921460cefb38474024989060200160405180910390a1505050565b7f65d7a28e3265b37a6474929f336521b332c1681b933f6cb9f3376673440d862a610e3081611af3565b60c954604051636f77926b60e01b81526000916001600160a01b031690636f77926b90610e61908790600401611f2c565b600060405180830381865afa158015610e7e573d6000803e3d6000fd5b505050506040513d6000823e601f3d908101601f19168201604052610ea691908101906122d1565b805151909150600003610ecc576040516365553c4160e11b815260040160405180910390fd5b821515606082015260c95460405163178682c160e01b81526001600160a01b039091169063178682c190610f06908790859060040161253e565b600060405180830381600087803b158015610f2057600080fd5b505af1158015610f34573d6000803e3d6000fd5b5050505050505050565b610f46611c19565b610f506000611c73565b565b60c954604051636f77926b60e01b81526000916001600160a01b031690636f77926b90610f83903390600401611f2c565b600060405180830381865afa158015610fa0573d6000803e3d6000fd5b505050506040513d6000823e601f3d908101601f19168201604052610fc891908101906122d1565b80515190915015610fec5760405163096bb4a360e41b815260040160405180910390fd5b60c9546040805163e70a0e6960e01b815290516000926001600160a01b03169163e70a0e699160048083019260209291908290030181865afa158015611036573d6000803e3d6000fd5b505050506040513d601f19601f8201168201806040525081019061105a9190612486565b905080341461107c57604051638c77ddf360e01b815260040160405180910390fd5b34156111965760c954604080516331056e5760e21b815290516000926001600160a01b03169163c415b95c9160048083019260209291908290030181865afa1580156110cc573d6000803e3d6000fd5b505050506040513d601f19601f820116820180604052508101906110f09190612469565b6040519091506001600160a01b038216903480156108fc02916000818181858888f19350505050158015611128573d6000803e3d6000fd5b50600060026001600160a01b0383167fdf7cc5ebdb7be805a1d96fd982aba37cbf8e9169d6f34870e8d63a62cd492f6433604080516001600160a01b039092168252346020830152606090820181905260029082015261060f60f31b608082015260a00160405180910390a4505b838252821515602083015260006040830181905260608301526001608083015260c9546001600160a01b031663e9ab224e33846040518363ffffffff1660e01b81526004016111e692919061253e565b600060405180830381600087803b15801561120057600080fd5b505af1158015611214573d6000803e3d6000fd5b5050505061121f3390565b6001600160a01b03167f48cac28ad4dc618e15f4c2dd5e97751182f166de97b25618318b2112aa951a2f836000015160405161125b91906123e5565b60405180910390a250505050565b7fcbaaf41b181bb6e269c490e876a7c97711b57e21dd8e5528423cf57579726b3561129381611af3565b60c954604051636f77926b60e01b81526000916001600160a01b031690636f77926b906112c4908690600401611f2c565b600060405180830381865afa1580156112e1573d6000803e3d6000fd5b505050506040513d6000823e601f3d908101601f1916820160405261130991908101906122d1565b80515190915060000361132f576040516365553c4160e11b815260040160405180910390fd5b6040810151151560010361135657604051631edcfb9f60e21b815260040160405180910390fd5b600160408083019190915260c954905163178682c160e01b81526001600160a01b039091169063178682c190611392908690859060040161253e565b600060405180830381600087803b1580156113ac57600080fd5b505af11580156113c0573d6000803e3d6000fd5b50505050826001600160a01b03167f52b0aedf558ae7ca1fea6363c537e188e53ef8982b74a564ee8eeae39d68017a826000015183606001518460400151600060405161141094939291906125a5565b60405180910390a2505050565b60009182526065602090815260408084206001600160a01b0393909316845291905290205460ff1690565b600061145381611af3565b60c954604051636f77926b60e01b81526000916001600160a01b031690636f77926b90611484908790600401611f2c565b600060405180830381865afa1580156114a1573d6000803e3d6000fd5b505050506040513d6000823e601f3d908101601f191682016040526114c991908101906122d1565b8051519091506000036114ef576040516365553c4160e11b815260040160405180910390fd5b8251156114fa578281525b60c95460405163178682c160e01b81526001600160a01b039091169063178682c19061152c908790859060040161253e565b600060405180830381600087803b15801561154657600080fd5b505af115801561155a573d6000803e3d6000fd5b50505050836001600160a01b03167f52b0aedf558ae7ca1fea6363c537e188e53ef8982b74a564ee8eeae39d68017a826000015183606001518460400151600060405161125b94939291906125a5565b7f0ce23c3e399818cfee81a7ab0880f714e53d7672b08df0fa62f2843416e1ea096115d481611af3565b60c954604051631c2e21b960e11b815284916000916001600160a01b039091169063385c4372906116099085906004016123e5565b606060405180830381865afa158015611626573d6000803e3d6000fd5b505050506040513d601f19601f8201168201806040525081019061164a91906123f8565b80519091506001600160a01b03166116755760405163014eb98760e11b815260040160405180910390fd5b6040810151151560000361169c5760405163014eb98760e11b815260040160405180910390fd5b8060200151156116bf5760405163526e73a560e01b815260040160405180910390fd5b60c954604051636f77926b60e01b815287916000916001600160a01b0390911690636f77926b906116f4908590600401611f2c565b600060405180830381865afa158015611711573d6000803e3d6000fd5b505050506040513d6000823e601f3d908101601f1916820160405261173991908101906122d1565b80515190915060000361175f5760405163ce848fe360e01b815260040160405180910390fd5b60c954604051631c2e21b960e11b81526000916001600160a01b03169063385c437290611790908b906004016123e5565b606060405180830381865afa1580156117ad573d6000803e3d6000fd5b505050506040513d601f19601f820116820180604052508101906117d191906123f8565b805160405163130bd93f60e01b81526001600160a01b038c811660048301528a1515602483015292935091169063130bd93f90604401600060405180830381600087803b15801561182157600080fd5b505af1158015611835573d6000803e3d6000fd5b50505050886001600160a01b03167fdea1140938dde90016dc539563f1fa2f3f675e2cdee8d0c6a7999e1830cc81be89896040516118749291906125d6565b60405180910390a2505050505050505050565b6000828152606560205260409020600101546118a281611af3565b610c468383611b83565b60c954604051631c2e21b960e11b8152600091839183916001600160a01b03169063385c4372906118e19085906004016123e5565b606060405180830381865afa1580156118fe573d6000803e3d6000fd5b505050506040513d601f19601f8201168201806040525081019061192291906123f8565b80519091506001600160a01b031661194d5760405163014eb98760e11b815260040160405180910390fd5b604081015115156000036119745760405163014eb98760e11b815260040160405180910390fd5b8060200151156119975760405163526e73a560e01b815260040160405180910390fd5b60c954604051631c2e21b960e11b81526000916001600160a01b03169063385c4372906119c89088906004016123e5565b606060405180830381865afa1580156119e5573d6000803e3d6000fd5b505050506040513d601f19601f82011682018060405250810190611a0991906123f8565b905080600001516001600160a01b0316637657dbdd6040518163ffffffff1660e01b8152600401602060405180830381865afa158015611a4d573d6000803e3d6000fd5b505050506040513d601f19601f82011682018060405250810190611a719190612486565b95945050505050565b611a82611c19565b6001600160a01b038116611ae75760405162461bcd60e51b815260206004820152602660248201527f4f776e61626c653a206e6577206f776e657220697320746865207a65726f206160448201526564647265737360d01b6064820152608401610cb7565b611af081611c73565b50565b611af08133611cc5565b611b07828261141d565b610cca5760008281526065602090815260408083206001600160a01b03851684529091529020805460ff19166001179055611b3f3390565b6001600160a01b0316816001600160a01b0316837f2f8788117e7eff1d82e926ec794901d17c78024a50270940304540a733656f0d60405160405180910390a45050565b611b8d828261141d565b15610cca5760008281526065602090815260408083206001600160a01b0385168085529252808320805460ff1916905551339285917ff6391f5c32d9c69d2a47ea670b442974b53935d1edc7fd64eb21e047a839171b9190a45050565b600054610100900460ff16611c115760405162461bcd60e51b8152600401610cb7906125fa565b610f50611d1e565b6097546001600160a01b03163314610f505760405162461bcd60e51b815260206004820181905260248201527f4f776e61626c653a2063616c6c6572206973206e6f7420746865206f776e65726044820152606401610cb7565b609780546001600160a01b038381166001600160a01b0319831681179093556040519116919082907f8be0079c531659141344cd1fd0a4f28419497f9722a3daafe3b4186f6b6457e090600090a35050565b611ccf828261141d565b610cca57611cdc81611d4e565b611ce7836020611d60565b604051602001611cf8929190612645565b60408051601f198184030181529082905262461bcd60e51b8252610cb7916004016123e5565b600054610100900460ff16611d455760405162461bcd60e51b8152600401610cb7906125fa565b610f5033611c73565b606061054a6001600160a01b03831660145b60606000611d6f8360026126ca565b611d7a9060026126e1565b6001600160401b03811115611d9157611d91611f40565b6040519080825280601f01601f191660200182016040528015611dbb576020820181803683370190505b509050600360fc1b81600081518110611dd657611dd66126f4565b60200101906001600160f81b031916908160001a905350600f60fb1b81600181518110611e0557611e056126f4565b60200101906001600160f81b031916908160001a9053506000611e298460026126ca565b611e349060016126e1565b90505b6001811115611eac576f181899199a1a9b1b9c1cb0b131b232b360811b85600f1660108110611e6857611e686126f4565b1a60f81b828281518110611e7e57611e7e6126f4565b60200101906001600160f81b031916908160001a90535060049490941c93611ea58161270a565b9050611e37565b508315611efb5760405162461bcd60e51b815260206004820181905260248201527f537472696e67733a20686578206c656e67746820696e73756666696369656e746044820152606401610cb7565b9392505050565b600060208284031215611f1457600080fd5b81356001600160e01b031981168114611efb57600080fd5b6001600160a01b0391909116815260200190565b634e487b7160e01b600052604160045260246000fd5b60405160a081016001600160401b0381118282101715611f7857611f78611f40565b60405290565b604051601f8201601f191681016001600160401b0381118282101715611fa657611fa6611f40565b604052919050565b60006001600160401b03821115611fc757611fc7611f40565b50601f01601f191660200190565b600082601f830112611fe657600080fd5b8135611ff9611ff482611fae565b611f7e565b81815284602083860101111561200e57600080fd5b816020850160208301376000918101602001919091529392505050565b6000806040838503121561203e57600080fd5b82356001600160401b038082111561205557600080fd5b61206186838701611fd5565b9350602085013591508082111561207757600080fd5b5061208485828601611fd5565b9150509250929050565b6000602082840312156120a057600080fd5b5035919050565b6001600160a01b0381168114611af057600080fd5b600080604083850312156120cf57600080fd5b82356120da816120a7565b915060208301356001600160401b038111156120f557600080fd5b61208485828601611fd5565b6000806040838503121561211457600080fd5b823591506020830135612126816120a7565b809150509250929050565b6000806040838503121561214457600080fd5b823561214f816120a7565b91506020830135612126816120a7565b8015158114611af057600080fd5b6000806040838503121561218057600080fd5b823561218b816120a7565b915060208301356121268161215f565b600080604083850312156121ae57600080fd5b82356001600160401b038111156121c457600080fd5b6121d085828601611fd5565b92505060208301356121268161215f565b6000602082840312156121f357600080fd5b8135611efb816120a7565b60008060006060848603121561221357600080fd5b833561221e816120a7565b925060208401356001600160401b0381111561223957600080fd5b61224586828701611fd5565b92505060408401356122568161215f565b809150509250925092565b60006020828403121561227357600080fd5b81356001600160401b0381111561228957600080fd5b61229584828501611fd5565b949350505050565b60005b838110156122b85781810151838201526020016122a0565b50506000910152565b80516122cc8161215f565b919050565b600060208083850312156122e457600080fd5b82516001600160401b03808211156122fb57600080fd5b9084019060a0828703121561230f57600080fd5b612317611f56565b82518281111561232657600080fd5b83019150601f8201871361233957600080fd5b8151612347611ff482611fae565b818152888683860101111561235b57600080fd5b61236a8287830188870161229d565b8252506123788385016122c1565b84820152612388604084016122c1565b6040820152612399606084016122c1565b60608201526123aa608084016122c1565b60808201529695505050505050565b600081518084526123d181602086016020860161229d565b601f01601f19169290920160200192915050565b602081526000611efb60208301846123b9565b60006060828403121561240a57600080fd5b604051606081018181106001600160401b038211171561242c5761242c611f40565b604052825161243a816120a7565b8152602083015161244a8161215f565b6020820152604083015161245d8161215f565b60408201529392505050565b60006020828403121561247b57600080fd5b8151611efb816120a7565b60006020828403121561249857600080fd5b5051919050565b60018060a01b0384168152826020820152606060408201526000611a7160608301846123b9565b6001600160a01b03841681526060602082018190526000906124ea908301856123b9565b8281036040840152610c1781856123b9565b60408152600061250f60408301856123b9565b8281036020840152611a7181856123b9565b60006020828403121561253357600080fd5b8151611efb8161215f565b60018060a01b0383168152604060208201526000825160a0604084015261256860e08401826123b9565b90506020840151151560608401526040840151151560808401526060840151151560a08401526080840151151560c0840152809150509392505050565b6080815260006125b860808301876123b9565b94151560208301525091151560408301521515606090910152919050565b6040815260006125e960408301856123b9565b905082151560208301529392505050565b6020808252602b908201527f496e697469616c697a61626c653a20636f6e7472616374206973206e6f74206960408201526a6e697469616c697a696e6760a81b606082015260800190565b76020b1b1b2b9b9a1b7b73a3937b61d1030b1b1b7bab73a1604d1b81526000835161267781601785016020880161229d565b7001034b99036b4b9b9b4b733903937b6329607d1b60179184019182015283516126a881602884016020880161229d565b01602801949350505050565b634e487b7160e01b600052601160045260246000fd5b808202811582820484141761054a5761054a6126b4565b8082018082111561054a5761054a6126b4565b634e487b7160e01b600052603260045260246000fd5b600081612719576127196126b4565b50600019019056fea2646970667358221220c25a420fcf5b5f6a7f936a6e06609c99823486e702d154b45a8c7e3ac020f8f464736f6c63430008110033",
  "linkReferences": {},
  "deployedLinkReferences": {}
}