{
  "_format": "hh-sol-artifact-1",
  "contractName": "TheBadgeUsers",
  "sourceName": "src/contracts/thebadge/TheBadgeUsers.sol",
  "abi": [
    {
      "inputs": [],
      "stateMutability": "nonpayable",
      "type": "constructor"
    },
    {
      "inputs": [],
      "name": "AccessControlBadConfirmation",
      "type": "error"
    },
    {
      "inputs": [
        {
          "internalType": "address",
          "name": "account",
          "type": "address"
        },
        {
          "internalType": "bytes32",
          "name": "neededRole",
          "type": "bytes32"
        }
      ],
      "name": "AccessControlUnauthorizedAccount",
      "type": "error"
    },
    {
      "inputs": [],
      "name": "InvalidInitialization",
      "type": "error"
    },
    {
      "inputs": [],
      "name": "NotInitializing",
      "type": "error"
    },
    {
      "inputs": [
        {
          "internalType": "address",
          "name": "owner",
          "type": "address"
        }
      ],
      "name": "OwnableInvalidOwner",
      "type": "error"
    },
    {
      "inputs": [
        {
          "internalType": "address",
          "name": "account",
          "type": "address"
        }
      ],
      "name": "OwnableUnauthorizedAccount",
      "type": "error"
    },
    {
      "inputs": [],
      "name": "ReentrancyGuardReentrantCall",
      "type": "error"
    },
    {
      "inputs": [],
      "name": "TheBadge__controller_controllerIsPaused",
      "type": "error"
    },
    {
      "inputs": [],
      "name": "TheBadge__controller_invalidController",
      "type": "error"
    },
    {
      "inputs": [],
      "name": "TheBadge__onlyCreator_senderIsAlreadyACreator",
      "type": "error"
    },
    {
      "inputs": [],
      "name": "TheBadge__onlyUser_userNotFound",
      "type": "error"
    },
    {
      "inputs": [],
      "name": "TheBadge__registerUser_alreadyRegistered",
      "type": "error"
    },
    {
      "inputs": [],
      "name": "TheBadge__registerUser_wrongValue",
      "type": "error"
    },
    {
      "inputs": [],
      "name": "TheBadge__updateUser_notFound",
      "type": "error"
    },
    {
      "inputs": [],
      "name": "TheBadge__verifyUser_verificationProtocolFeesPaymentFailed",
      "type": "error"
    },
    {
      "inputs": [],
      "name": "TheBadge__verifyUser_wrongValue",
      "type": "error"
    },
    {
      "anonymous": false,
      "inputs": [
        {
          "indexed": true,
          "internalType": "address",
          "name": "admin",
          "type": "address"
        }
      ],
      "name": "Initialize",
      "type": "event"
    },
    {
      "anonymous": false,
      "inputs": [
        {
          "indexed": false,
          "internalType": "uint64",
          "name": "version",
          "type": "uint64"
        }
      ],
      "name": "Initialized",
      "type": "event"
    },
    {
      "anonymous": false,
      "inputs": [
        {
          "indexed": true,
          "internalType": "address",
          "name": "previousOwner",
          "type": "address"
        },
        {
          "indexed": true,
          "internalType": "address",
          "name": "newOwner",
          "type": "address"
        }
      ],
      "name": "OwnershipTransferred",
      "type": "event"
    },
    {
      "anonymous": false,
      "inputs": [
        {
          "indexed": true,
          "internalType": "address",
          "name": "recipient",
          "type": "address"
        },
        {
          "indexed": false,
          "internalType": "address",
          "name": "payer",
          "type": "address"
        },
        {
          "indexed": false,
          "internalType": "uint256",
          "name": "amount",
          "type": "uint256"
        },
        {
          "indexed": true,
          "internalType": "enum LibTheBadge.PaymentType",
          "name": "paymentType",
          "type": "uint8"
        },
        {
          "indexed": true,
          "internalType": "uint256",
          "name": "badgeModelId",
          "type": "uint256"
        },
        {
          "indexed": false,
          "internalType": "string",
          "name": "controllerName",
          "type": "string"
        }
      ],
      "name": "PaymentMade",
      "type": "event"
    },
    {
      "anonymous": false,
      "inputs": [
        {
          "indexed": true,
          "internalType": "bytes32",
          "name": "role",
          "type": "bytes32"
        },
        {
          "indexed": true,
          "internalType": "bytes32",
          "name": "previousAdminRole",
          "type": "bytes32"
        },
        {
          "indexed": true,
          "internalType": "bytes32",
          "name": "newAdminRole",
          "type": "bytes32"
        }
      ],
      "name": "RoleAdminChanged",
      "type": "event"
    },
    {
      "anonymous": false,
      "inputs": [
        {
          "indexed": true,
          "internalType": "bytes32",
          "name": "role",
          "type": "bytes32"
        },
        {
          "indexed": true,
          "internalType": "address",
          "name": "account",
          "type": "address"
        },
        {
          "indexed": true,
          "internalType": "address",
          "name": "sender",
          "type": "address"
        }
      ],
      "name": "RoleGranted",
      "type": "event"
    },
    {
      "anonymous": false,
      "inputs": [
        {
          "indexed": true,
          "internalType": "bytes32",
          "name": "role",
          "type": "bytes32"
        },
        {
          "indexed": true,
          "internalType": "address",
          "name": "account",
          "type": "address"
        },
        {
          "indexed": true,
          "internalType": "address",
          "name": "sender",
          "type": "address"
        }
      ],
      "name": "RoleRevoked",
      "type": "event"
    },
    {
      "anonymous": false,
      "inputs": [
        {
          "indexed": true,
          "internalType": "address",
          "name": "userAddress",
          "type": "address"
        },
        {
          "indexed": false,
          "internalType": "string",
          "name": "metadata",
          "type": "string"
        },
        {
          "indexed": false,
          "internalType": "bool",
          "name": "suspended",
          "type": "bool"
        },
        {
          "indexed": false,
          "internalType": "bool",
          "name": "isCreator",
          "type": "bool"
        },
        {
          "indexed": false,
          "internalType": "bool",
          "name": "deleted",
          "type": "bool"
        }
      ],
      "name": "UpdatedUser",
      "type": "event"
    },
    {
      "anonymous": false,
      "inputs": [
        {
          "indexed": true,
          "internalType": "address",
          "name": "user",
          "type": "address"
        },
        {
          "indexed": false,
          "internalType": "string",
          "name": "metadata",
          "type": "string"
        }
      ],
      "name": "UserRegistered",
      "type": "event"
    },
    {
      "anonymous": false,
      "inputs": [
        {
          "indexed": true,
          "internalType": "address",
          "name": "user",
          "type": "address"
        },
        {
          "indexed": false,
          "internalType": "string",
          "name": "controllerName",
          "type": "string"
        },
        {
          "indexed": false,
          "internalType": "bool",
          "name": "verify",
          "type": "bool"
        }
      ],
      "name": "UserVerificationExecuted",
      "type": "event"
    },
    {
      "anonymous": false,
      "inputs": [
        {
          "indexed": true,
          "internalType": "address",
          "name": "user",
          "type": "address"
        },
        {
          "indexed": false,
          "internalType": "string",
          "name": "metadata",
          "type": "string"
        },
        {
          "indexed": false,
          "internalType": "string",
          "name": "controllerName",
          "type": "string"
        }
      ],
      "name": "UserVerificationRequested",
      "type": "event"
    },
    {
      "inputs": [],
      "name": "CLAIMER_ROLE",
      "outputs": [
        {
          "internalType": "bytes32",
          "name": "",
          "type": "bytes32"
        }
      ],
      "stateMutability": "view",
      "type": "function"
    },
    {
      "inputs": [],
      "name": "DEFAULT_ADMIN_ROLE",
      "outputs": [
        {
          "internalType": "bytes32",
          "name": "",
          "type": "bytes32"
        }
      ],
      "stateMutability": "view",
      "type": "function"
    },
    {
      "inputs": [],
      "name": "PAUSER_ROLE",
      "outputs": [
        {
          "internalType": "bytes32",
          "name": "",
          "type": "bytes32"
        }
      ],
      "stateMutability": "view",
      "type": "function"
    },
    {
      "inputs": [],
      "name": "UPGRADER_ROLE",
      "outputs": [
        {
          "internalType": "bytes32",
          "name": "",
          "type": "bytes32"
        }
      ],
      "stateMutability": "view",
      "type": "function"
    },
    {
      "inputs": [],
      "name": "URI_SETTER_ROLE",
      "outputs": [
        {
          "internalType": "bytes32",
          "name": "",
          "type": "bytes32"
        }
      ],
      "stateMutability": "view",
      "type": "function"
    },
    {
      "inputs": [],
      "name": "USER_MANAGER_ROLE",
      "outputs": [
        {
          "internalType": "bytes32",
          "name": "",
          "type": "bytes32"
        }
      ],
      "stateMutability": "view",
      "type": "function"
    },
    {
      "inputs": [],
      "name": "VERIFIER_ROLE",
      "outputs": [
        {
          "internalType": "bytes32",
          "name": "",
          "type": "bytes32"
        }
      ],
      "stateMutability": "view",
      "type": "function"
    },
    {
      "inputs": [],
      "name": "_badgeStore",
      "outputs": [
        {
          "internalType": "contract TheBadgeStore",
          "name": "",
          "type": "address"
        }
      ],
      "stateMutability": "view",
      "type": "function"
    },
    {
      "inputs": [
        {
          "internalType": "address",
          "name": "_user",
          "type": "address"
        },
        {
          "internalType": "string",
          "name": "controllerName",
          "type": "string"
        },
        {
          "internalType": "bool",
          "name": "verify",
          "type": "bool"
        }
      ],
      "name": "executeUserVerification",
      "outputs": [],
      "stateMutability": "nonpayable",
      "type": "function"
    },
    {
      "inputs": [
        {
          "internalType": "bytes32",
          "name": "role",
          "type": "bytes32"
        }
      ],
      "name": "getRoleAdmin",
      "outputs": [
        {
          "internalType": "bytes32",
          "name": "",
          "type": "bytes32"
        }
      ],
      "stateMutability": "view",
      "type": "function"
    },
    {
      "inputs": [
        {
          "internalType": "string",
          "name": "controllerName",
          "type": "string"
        }
      ],
      "name": "getVerificationFee",
      "outputs": [
        {
          "internalType": "uint256",
          "name": "",
          "type": "uint256"
        }
      ],
      "stateMutability": "view",
      "type": "function"
    },
    {
      "inputs": [
        {
          "internalType": "bytes32",
          "name": "role",
          "type": "bytes32"
        },
        {
          "internalType": "address",
          "name": "account",
          "type": "address"
        }
      ],
      "name": "grantRole",
      "outputs": [],
      "stateMutability": "nonpayable",
      "type": "function"
    },
    {
      "inputs": [
        {
          "internalType": "bytes32",
          "name": "role",
          "type": "bytes32"
        },
        {
          "internalType": "address",
          "name": "account",
          "type": "address"
        }
      ],
      "name": "hasRole",
      "outputs": [
        {
          "internalType": "bool",
          "name": "",
          "type": "bool"
        }
      ],
      "stateMutability": "view",
      "type": "function"
    },
    {
      "inputs": [
        {
          "internalType": "address",
          "name": "admin",
          "type": "address"
        },
        {
          "internalType": "address",
          "name": "badgeStore",
          "type": "address"
        }
      ],
      "name": "initialize",
      "outputs": [],
      "stateMutability": "nonpayable",
      "type": "function"
    },
    {
      "inputs": [
        {
          "internalType": "address",
          "name": "_user",
          "type": "address"
        },
        {
          "internalType": "string",
          "name": "controllerName",
          "type": "string"
        }
      ],
      "name": "isUserVerified",
      "outputs": [
        {
          "internalType": "bool",
          "name": "",
          "type": "bool"
        }
      ],
      "stateMutability": "view",
      "type": "function"
    },
    {
      "inputs": [
        {
          "internalType": "address",
          "name": "_userAddress",
          "type": "address"
        }
      ],
      "name": "makeUserCreator",
      "outputs": [],
      "stateMutability": "nonpayable",
      "type": "function"
    },
    {
      "inputs": [],
      "name": "owner",
      "outputs": [
        {
          "internalType": "address",
          "name": "",
          "type": "address"
        }
      ],
      "stateMutability": "view",
      "type": "function"
    },
    {
      "inputs": [
        {
          "internalType": "string",
          "name": "_metadata",
          "type": "string"
        },
        {
          "internalType": "bool",
          "name": "_isCompany",
          "type": "bool"
        }
      ],
      "name": "registerUser",
      "outputs": [],
      "stateMutability": "payable",
      "type": "function"
    },
    {
      "inputs": [],
      "name": "renounceOwnership",
      "outputs": [],
      "stateMutability": "nonpayable",
      "type": "function"
    },
    {
      "inputs": [
        {
          "internalType": "bytes32",
          "name": "role",
          "type": "bytes32"
        },
        {
          "internalType": "address",
          "name": "callerConfirmation",
          "type": "address"
        }
      ],
      "name": "renounceRole",
      "outputs": [],
      "stateMutability": "nonpayable",
      "type": "function"
    },
    {
      "inputs": [
        {
          "internalType": "bytes32",
          "name": "role",
          "type": "bytes32"
        },
        {
          "internalType": "address",
          "name": "account",
          "type": "address"
        }
      ],
      "name": "revokeRole",
      "outputs": [],
      "stateMutability": "nonpayable",
      "type": "function"
    },
    {
      "inputs": [
        {
          "internalType": "string",
          "name": "controllerName",
          "type": "string"
        },
        {
          "internalType": "string",
          "name": "evidenceUri",
          "type": "string"
        }
      ],
      "name": "submitUserVerification",
      "outputs": [],
      "stateMutability": "payable",
      "type": "function"
    },
    {
      "inputs": [
        {
          "internalType": "bytes4",
          "name": "interfaceId",
          "type": "bytes4"
        }
      ],
      "name": "supportsInterface",
      "outputs": [
        {
          "internalType": "bool",
          "name": "",
          "type": "bool"
        }
      ],
      "stateMutability": "view",
      "type": "function"
    },
    {
      "inputs": [
        {
          "internalType": "address",
          "name": "_userAddress",
          "type": "address"
        },
        {
          "internalType": "bool",
          "name": "suspended",
          "type": "bool"
        }
      ],
      "name": "suspendUser",
      "outputs": [],
      "stateMutability": "nonpayable",
      "type": "function"
    },
    {
      "inputs": [
        {
          "internalType": "address",
          "name": "newOwner",
          "type": "address"
        }
      ],
      "name": "transferOwnership",
      "outputs": [],
      "stateMutability": "nonpayable",
      "type": "function"
    },
    {
      "inputs": [
        {
          "internalType": "address",
          "name": "_userAddress",
          "type": "address"
        },
        {
          "internalType": "string",
          "name": "_metadata",
          "type": "string"
        }
      ],
      "name": "updateUser",
      "outputs": [],
      "stateMutability": "nonpayable",
      "type": "function"
    },
    {
      "stateMutability": "payable",
      "type": "receive"
    }
  ],
  "bytecode": "0x608060405234801561000f575f80fd5b5061001861001d565b6100cf565b7ff0c57e16840df040f15088dc2f81fe391c3923bec73e23a9662efc9c229c6a00805468010000000000000000900460ff161561006d5760405163f92ee8a960e01b815260040160405180910390fd5b80546001600160401b03908116146100cc5780546001600160401b0319166001600160401b0390811782556040519081527fc7f505b2f371ae2175ee4913f4499e1f2633a7b5936321eed1cdaeb6115181d29060200160405180910390a15b50565b61247780620000dd5f395ff3fe608060405260043610610142575f3560e01c80638da5cb5b116100af5780638da5cb5b1461030257806391d1485414610316578063a217fddf14610335578063a41e35c314610348578063b088981914610368578063c1b8c5f114610387578063d547741f146103a6578063e63ab1e9146103c5578063e71de048146103e5578063e7705db614610404578063f2fde38b14610424578063f72c0d8b14610443578063fc5f18d314610476575f80fd5b806301ffc9a71461014d57806319b50c2a146101815780631b6cd667146101ac578063248a9ca3146101c15780632acb0301146101ee5780632f2ff15d1461020d57806336568abe1461022c578063485cc9551461024b5780635c3736f11461026a578063715018a61461028957806379b233db1461029d5780637f345710146102b05780638a4be490146102e3575f80fd5b3661014957005b5f80fd5b348015610158575f80fd5b5061016c610167366004611d22565b6104a9565b60405190151581526020015b60405180910390f35b34801561018c575f80fd5b505f5461019f906001600160a01b031681565b6040516101789190611d50565b6101bf6101ba366004611e48565b6104df565b005b3480156101cc575f80fd5b506101e06101db366004611ea7565b6109c1565b604051908152602001610178565b3480156101f9575f80fd5b5061016c610208366004611ed2565b6109df565b348015610218575f80fd5b506101bf610227366004611f14565b610bae565b348015610237575f80fd5b506101bf610246366004611f14565b610bd0565b348015610256575f80fd5b506101bf610265366004611f42565b610c08565b348015610275575f80fd5b506101bf610284366004611f7b565b610dc6565b348015610294575f80fd5b506101bf610edf565b6101bf6102ab366004611fa7565b610ef2565b3480156102bb575f80fd5b506101e07f7804d923f43a17d325d77e781528e0793b2edd9890ab45fc64efd7b4b427744c81565b3480156102ee575f80fd5b506101bf6102fd366004611fea565b611203565b34801561030d575f80fd5b5061019f611396565b348015610321575f80fd5b5061016c610330366004611f14565b6113b0565b348015610340575f80fd5b506101e05f81565b348015610353575f80fd5b506101e05f8051602061240283398151915281565b348015610373575f80fd5b506101bf610382366004611ed2565b6113e4565b348015610392575f80fd5b506101bf6103a1366004612005565b611537565b3480156103b1575f80fd5b506101bf6103c0366004611f14565b6117e9565b3480156103d0575f80fd5b506101e05f805160206123e283398151915281565b3480156103f0575f80fd5b506101e06103ff366004612064565b611805565b34801561040f575f80fd5b506101e05f8051602061242283398151915281565b34801561042f575f80fd5b506101bf61043e366004611fea565b6119c9565b34801561044e575f80fd5b506101e07f189ab7a9244df0848122154315af71fe140f3db0fe014031783b0946b8c9d2e381565b348015610481575f80fd5b506101e07f11a8cb5a02bd6c42679835e867ef2118ba78f088f8300511420c6603c21d9c7881565b5f6001600160e01b03198216637965db0b60e01b14806104d957506301ffc9a760e01b6001600160e01b03198316145b92915050565b335f8054604051636f77926b60e01b81526001600160a01b0390911690636f77926b90610510908590600401611d50565b5f60405180830381865afa15801561052a573d5f803e3d5ffd5b505050506040513d5f823e601f3d908101601f1916820160405261055191908101906120cf565b8051519091505f036105765760405163ce848fe360e01b815260040160405180910390fd5b5f8054604051631c2e21b960e11b81528692916001600160a01b03169063385c4372906105a79085906004016121db565b606060405180830381865afa1580156105c2573d5f803e3d5ffd5b505050506040513d601f19601f820116820180604052508101906105e691906121ed565b80519091506001600160a01b03166106115760405163014eb98760e11b815260040160405180910390fd5b604081015115155f036106375760405163014eb98760e11b815260040160405180910390fd5b80602001511561065a5760405163526e73a560e01b815260040160405180910390fd5b610662611a0f565b5f8054604051631c2e21b960e11b81526001600160a01b039091169063385c437290610692908a906004016121db565b606060405180830381865afa1580156106ad573d5f803e3d5ffd5b505050506040513d601f19601f820116820180604052508101906106d191906121ed565b5f8054919250906001600160a01b0316636f77926b336040518263ffffffff1660e01b81526004016107039190611d50565b5f60405180830381865afa15801561071d573d5f803e3d5ffd5b505050506040513d5f823e601f3d908101601f1916820160405261074491908101906120cf565b5f8054604080516331056e5760e21b815290519394508b936001600160a01b039092169163c415b95c916004808201926020929091908290030181865afa158015610791573d5f803e3d5ffd5b505050506040513d601f19601f820116820180604052508101906107b5919061225c565b90505f845f01516001600160a01b0316637657dbdd6040518163ffffffff1660e01b8152600401602060405180830381865afa1580156107f7573d5f803e3d5ffd5b505050506040513d601f19601f8201168201806040525081019061081b9190612277565b905080341461083d5760405163e1d94b7f60e01b815260040160405180910390fd5b3415610902575f826001600160a01b0316346040515f6040518083038185875af1925050503d805f811461088c576040519150601f19603f3d011682016040523d82523d5f602084013e610891565b606091505b50909150508015155f036108b8576040516331eb874960e21b815260040160405180910390fd5b5f60036001600160a01b0385167fdf7cc5ebdb7be805a1d96fd982aba37cbf8e9169d6f34870e8d63a62cd492f643334896040516108f89392919061228e565b60405180910390a4505b84518451604051635ad433fd60e11b81526001600160a01b039092169163b5a867fa91610936913391908f906004016122b4565b5f604051808303815f87803b15801561094d575f80fd5b505af115801561095f573d5f803e3d5ffd5b5050505061096a3390565b6001600160a01b03167fb17b7f220d392b3fac92feead39a937412996860f3aacd51a13f9271239df6518b8d6040516109a49291906122e9565b60405180910390a250505050506109b9611a44565b505050505050565b5f806109cb611a54565b5f9384526020525050604090206001015490565b5f8054604051631c2e21b960e11b8152839183916001600160a01b039091169063385c437290610a139085906004016121db565b606060405180830381865afa158015610a2e573d5f803e3d5ffd5b505050506040513d601f19601f82011682018060405250810190610a5291906121ed565b80519091506001600160a01b0316610a7d5760405163014eb98760e11b815260040160405180910390fd5b604081015115155f03610aa35760405163014eb98760e11b815260040160405180910390fd5b806020015115610ac65760405163526e73a560e01b815260040160405180910390fd5b5f8054604051631c2e21b960e11b81526001600160a01b039091169063385c437290610af69088906004016121db565b606060405180830381865afa158015610b11573d5f803e3d5ffd5b505050506040513d601f19601f82011682018060405250810190610b3591906121ed565b805160405163056720bf60e51b81529192506001600160a01b03169063ace417e090610b65908990600401611d50565b602060405180830381865afa158015610b80573d5f803e3d5ffd5b505050506040513d601f19601f82011682018060405250810190610ba4919061230d565b9695505050505050565b610bb7826109c1565b610bc081611a78565b610bca8383611a82565b50505050565b6001600160a01b0381163314610bf95760405163334bd91960e11b815260040160405180910390fd5b610c038282611b20565b505050565b5f610c11611b96565b805490915060ff600160401b82041615906001600160401b03165f81158015610c375750825b90505f826001600160401b03166001148015610c525750303b155b905081158015610c60575080155b15610c7e5760405163f92ee8a960e01b815260040160405180910390fd5b845467ffffffffffffffff191660011785558315610ca857845460ff60401b1916600160401b1785555b610cb187611bba565b610cbb5f88611a82565b50610cd35f8051602061240283398151915288611a82565b50610ceb5f805160206123e283398151915288611a82565b50610d167f189ab7a9244df0848122154315af71fe140f3db0fe014031783b0946b8c9d2e388611a82565b50610d2e5f8051602061242283398151915288611a82565b505f80546001600160a01b0319166001600160a01b03888116919091178255604051908916917f36b1453565f45af7b509b59d5e2eac8f1948ea9e3e193db6663b4101afb6382c91a28315610dbd57845460ff60401b19168555604051600181527fc7f505b2f371ae2175ee4913f4499e1f2633a7b5936321eed1cdaeb6115181d29060200160405180910390a15b50505050505050565b5f805160206123e2833981519152610ddd81611a78565b5f8054604051636f77926b60e01b81526001600160a01b0390911690636f77926b90610e0d908790600401611d50565b5f60405180830381865afa158015610e27573d5f803e3d5ffd5b505050506040513d5f823e601f3d908101601f19168201604052610e4e91908101906120cf565b8051519091505f03610e73576040516365553c4160e11b815260040160405180910390fd5b82151560608201525f5460405163178682c160e01b81526001600160a01b039091169063178682c190610eac9087908590600401612328565b5f604051808303815f87803b158015610ec3575f80fd5b505af1158015610ed5573d5f803e3d5ffd5b5050505050505050565b610ee7611bcb565b610ef05f611bfd565b565b5f80546001600160a01b0316636f77926b336040518263ffffffff1660e01b8152600401610f209190611d50565b5f60405180830381865afa158015610f3a573d5f803e3d5ffd5b505050506040513d5f823e601f3d908101601f19168201604052610f6191908101906120cf565b80515190915015610f855760405163096bb4a360e41b815260040160405180910390fd5b5f805f9054906101000a90046001600160a01b03166001600160a01b031663e70a0e696040518163ffffffff1660e01b8152600401602060405180830381865afa158015610fd5573d5f803e3d5ffd5b505050506040513d601f19601f82011682018060405250810190610ff99190612277565b905080341461101b57604051638c77ddf360e01b815260040160405180910390fd5b3415611137575f805f9054906101000a90046001600160a01b03166001600160a01b031663c415b95c6040518163ffffffff1660e01b8152600401602060405180830381865afa158015611071573d5f803e3d5ffd5b505050506040513d601f19601f82011682018060405250810190611095919061225c565b6040519091506001600160a01b038216903480156108fc02915f818181858888f193505050501580156110ca573d5f803e3d5ffd5b505f60026001600160a01b0383167fdf7cc5ebdb7be805a1d96fd982aba37cbf8e9169d6f34870e8d63a62cd492f6433604080516001600160a01b039092168252346020830152606090820181905260029082015261060f60f31b608082015260a00160405180910390a4505b83825282151560208301525f604083018190526060830181905260016080840152546001600160a01b031663e9ab224e33846040518363ffffffff1660e01b8152600401611186929190612328565b5f604051808303815f87803b15801561119d575f80fd5b505af11580156111af573d5f803e3d5ffd5b505050506111ba3390565b6001600160a01b03167f48cac28ad4dc618e15f4c2dd5e97751182f166de97b25618318b2112aa951a2f835f01516040516111f591906121db565b60405180910390a250505050565b5f8051602061240283398151915261121a81611a78565b5f8054604051636f77926b60e01b81526001600160a01b0390911690636f77926b9061124a908690600401611d50565b5f60405180830381865afa158015611264573d5f803e3d5ffd5b505050506040513d5f823e601f3d908101601f1916820160405261128b91908101906120cf565b8051519091505f036112b0576040516365553c4160e11b815260040160405180910390fd5b604081015115156001036112d757604051631edcfb9f60e21b815260040160405180910390fd5b60016040808301919091525f54905163178682c160e01b81526001600160a01b039091169063178682c1906113129086908590600401612328565b5f604051808303815f87803b158015611329575f80fd5b505af115801561133b573d5f803e3d5ffd5b50505050826001600160a01b03167f52b0aedf558ae7ca1fea6363c537e188e53ef8982b74a564ee8eeae39d68017a825f0151836060015184604001515f604051611389949392919061238e565b60405180910390a2505050565b5f806113a0611c57565b546001600160a01b031692915050565b5f806113ba611a54565b5f948552602090815260408086206001600160a01b03959095168652939052505090205460ff1690565b5f6113ee81611a78565b5f8054604051636f77926b60e01b81526001600160a01b0390911690636f77926b9061141e908790600401611d50565b5f60405180830381865afa158015611438573d5f803e3d5ffd5b505050506040513d5f823e601f3d908101601f1916820160405261145f91908101906120cf565b8051519091505f03611484576040516365553c4160e11b815260040160405180910390fd5b82511561148f578281525b5f5460405163178682c160e01b81526001600160a01b039091169063178682c1906114c09087908590600401612328565b5f604051808303815f87803b1580156114d7575f80fd5b505af11580156114e9573d5f803e3d5ffd5b50505050836001600160a01b03167f52b0aedf558ae7ca1fea6363c537e188e53ef8982b74a564ee8eeae39d68017a825f0151836060015184604001515f6040516111f5949392919061238e565b5f8051602061242283398151915261154e81611a78565b5f8054604051631c2e21b960e11b81528592916001600160a01b03169063385c43729061157f9085906004016121db565b606060405180830381865afa15801561159a573d5f803e3d5ffd5b505050506040513d601f19601f820116820180604052508101906115be91906121ed565b80519091506001600160a01b03166115e95760405163014eb98760e11b815260040160405180910390fd5b604081015115155f0361160f5760405163014eb98760e11b815260040160405180910390fd5b8060200151156116325760405163526e73a560e01b815260040160405180910390fd5b5f8054604051636f77926b60e01b81528892916001600160a01b031690636f77926b90611663908590600401611d50565b5f60405180830381865afa15801561167d573d5f803e3d5ffd5b505050506040513d5f823e601f3d908101601f191682016040526116a491908101906120cf565b8051519091505f036116c95760405163ce848fe360e01b815260040160405180910390fd5b5f8054604051631c2e21b960e11b81526001600160a01b039091169063385c4372906116f9908b906004016121db565b606060405180830381865afa158015611714573d5f803e3d5ffd5b505050506040513d601f19601f8201168201806040525081019061173891906121ed565b805160405163130bd93f60e01b81526001600160a01b038c811660048301528a1515602483015292935091169063130bd93f906044015f604051808303815f87803b158015611785575f80fd5b505af1158015611797573d5f803e3d5ffd5b50505050886001600160a01b03167fdea1140938dde90016dc539563f1fa2f3f675e2cdee8d0c6a7999e1830cc81be89896040516117d69291906123be565b60405180910390a2505050505050505050565b6117f2826109c1565b6117fb81611a78565b610bca8383611b20565b5f8054604051631c2e21b960e11b8152839183916001600160a01b039091169063385c4372906118399085906004016121db565b606060405180830381865afa158015611854573d5f803e3d5ffd5b505050506040513d601f19601f8201168201806040525081019061187891906121ed565b80519091506001600160a01b03166118a35760405163014eb98760e11b815260040160405180910390fd5b604081015115155f036118c95760405163014eb98760e11b815260040160405180910390fd5b8060200151156118ec5760405163526e73a560e01b815260040160405180910390fd5b5f8054604051631c2e21b960e11b81526001600160a01b039091169063385c43729061191c9088906004016121db565b606060405180830381865afa158015611937573d5f803e3d5ffd5b505050506040513d601f19601f8201168201806040525081019061195b91906121ed565b9050805f01516001600160a01b0316637657dbdd6040518163ffffffff1660e01b8152600401602060405180830381865afa15801561199c573d5f803e3d5ffd5b505050506040513d601f19601f820116820180604052508101906119c09190612277565b95945050505050565b6119d1611bcb565b6001600160a01b038116611a03575f604051631e4fbdf760e01b81526004016119fa9190611d50565b60405180910390fd5b611a0c81611bfd565b50565b5f611a18611c7b565b805490915060011901611a3e57604051633ee5aeb560e01b815260040160405180910390fd5b60029055565b5f611a4d611c7b565b6001905550565b7f02dd7bc7dec4dceedda775e58dd541e08a116c6c53815c0bd028192f7b62680090565b611a0c8133611c9f565b5f80611a8c611a54565b9050611a9884846113b0565b611b17575f848152602082815260408083206001600160a01b03871684529091529020805460ff19166001179055611acd3390565b6001600160a01b0316836001600160a01b0316857f2f8788117e7eff1d82e926ec794901d17c78024a50270940304540a733656f0d60405160405180910390a460019150506104d9565b5f9150506104d9565b5f80611b2a611a54565b9050611b3684846113b0565b15611b17575f848152602082815260408083206001600160a01b0387168085529252808320805460ff1916905551339287917ff6391f5c32d9c69d2a47ea670b442974b53935d1edc7fd64eb21e047a839171b9190a460019150506104d9565b7ff0c57e16840df040f15088dc2f81fe391c3923bec73e23a9662efc9c229c6a0090565b611bc2611cdc565b611a0c81611d01565b33611bd4611396565b6001600160a01b031614610ef0573360405163118cdaa760e01b81526004016119fa9190611d50565b5f611c06611c57565b80546001600160a01b038481166001600160a01b031983168117845560405193945091169182907f8be0079c531659141344cd1fd0a4f28419497f9722a3daafe3b4186f6b6457e0905f90a3505050565b7f9016d09d72d40fdae2fd8ceac6b6234c7706214fd39c1cd1e609a0528c19930090565b7f9b779b17422d0df92223018b32b4d1fa46e071723d6817e2486d003becc55f0090565b611ca982826113b0565b611cd85760405163e2517d3f60e01b81526001600160a01b0382166004820152602481018390526044016119fa565b5050565b611ce4611d09565b610ef057604051631afcd79f60e31b815260040160405180910390fd5b6119d1611cdc565b5f611d12611b96565b54600160401b900460ff16919050565b5f60208284031215611d32575f80fd5b81356001600160e01b031981168114611d49575f80fd5b9392505050565b6001600160a01b0391909116815260200190565b634e487b7160e01b5f52604160045260245ffd5b60405160a081016001600160401b0381118282101715611d9a57611d9a611d64565b60405290565b604051601f8201601f191681016001600160401b0381118282101715611dc857611dc8611d64565b604052919050565b5f6001600160401b03821115611de857611de8611d64565b50601f01601f191660200190565b5f82601f830112611e05575f80fd5b8135611e18611e1382611dd0565b611da0565b818152846020838601011115611e2c575f80fd5b816020850160208301375f918101602001919091529392505050565b5f8060408385031215611e59575f80fd5b82356001600160401b0380821115611e6f575f80fd5b611e7b86838701611df6565b93506020850135915080821115611e90575f80fd5b50611e9d85828601611df6565b9150509250929050565b5f60208284031215611eb7575f80fd5b5035919050565b6001600160a01b0381168114611a0c575f80fd5b5f8060408385031215611ee3575f80fd5b8235611eee81611ebe565b915060208301356001600160401b03811115611f08575f80fd5b611e9d85828601611df6565b5f8060408385031215611f25575f80fd5b823591506020830135611f3781611ebe565b809150509250929050565b5f8060408385031215611f53575f80fd5b8235611f5e81611ebe565b91506020830135611f3781611ebe565b8015158114611a0c575f80fd5b5f8060408385031215611f8c575f80fd5b8235611f9781611ebe565b91506020830135611f3781611f6e565b5f8060408385031215611fb8575f80fd5b82356001600160401b03811115611fcd575f80fd5b611fd985828601611df6565b9250506020830135611f3781611f6e565b5f60208284031215611ffa575f80fd5b8135611d4981611ebe565b5f805f60608486031215612017575f80fd5b833561202281611ebe565b925060208401356001600160401b0381111561203c575f80fd5b61204886828701611df6565b925050604084013561205981611f6e565b809150509250925092565b5f60208284031215612074575f80fd5b81356001600160401b03811115612089575f80fd5b61209584828501611df6565b949350505050565b5f5b838110156120b757818101518382015260200161209f565b50505f910152565b80516120ca81611f6e565b919050565b5f60208083850312156120e0575f80fd5b82516001600160401b03808211156120f6575f80fd5b9084019060a08287031215612109575f80fd5b612111611d78565b82518281111561211f575f80fd5b83019150601f82018713612131575f80fd5b815161213f611e1382611dd0565b8181528886838601011115612152575f80fd5b6121618287830188870161209d565b82525061216f8385016120bf565b8482015261217f604084016120bf565b6040820152612190606084016120bf565b60608201526121a1608084016120bf565b60808201529695505050505050565b5f81518084526121c781602086016020860161209d565b601f01601f19169290920160200192915050565b602081525f611d4960208301846121b0565b5f606082840312156121fd575f80fd5b604051606081018181106001600160401b038211171561221f5761221f611d64565b604052825161222d81611ebe565b8152602083015161223d81611f6e565b6020820152604083015161225081611f6e565b60408201529392505050565b5f6020828403121561226c575f80fd5b8151611d4981611ebe565b5f60208284031215612287575f80fd5b5051919050565b60018060a01b0384168152826020820152606060408201525f6119c060608301846121b0565b6001600160a01b03841681526060602082018190525f906122d7908301856121b0565b8281036040840152610ba481856121b0565b604081525f6122fb60408301856121b0565b82810360208401526119c081856121b0565b5f6020828403121561231d575f80fd5b8151611d4981611f6e565b60018060a01b0383168152604060208201525f825160a0604084015261235160e08401826121b0565b90506020840151151560608401526040840151151560808401526060840151151560a08401526080840151151560c0840152809150509392505050565b608081525f6123a060808301876121b0565b94151560208301525091151560408301521515606090910152919050565b604081525f6123d060408301856121b0565b90508215156020830152939250505056fe65d7a28e3265b37a6474929f336521b332c1681b933f6cb9f3376673440d862acbaaf41b181bb6e269c490e876a7c97711b57e21dd8e5528423cf57579726b350ce23c3e399818cfee81a7ab0880f714e53d7672b08df0fa62f2843416e1ea09a264697066735822122089068f01e0ce2548c0ec06660534394501892beaf24d7f1883920775ba8e180264736f6c63430008140033",
  "linkReferences": {},
  "deployedLinkReferences": {}
}