{
  "_format": "hh-sol-artifact-1",
  "contractName": "TheBadgeUsers",
  "sourceName": "src/contracts/thebadge/TheBadgeUsers.sol",
  "abi": [
    {
      "inputs": [],
      "stateMutability": "nonpayable",
      "type": "constructor"
    },
    {
      "inputs": [],
      "name": "AccessControlBadConfirmation",
      "type": "error"
    },
    {
      "inputs": [
        {
          "internalType": "address",
          "name": "account",
          "type": "address"
        },
        {
          "internalType": "bytes32",
          "name": "neededRole",
          "type": "bytes32"
        }
      ],
      "name": "AccessControlUnauthorizedAccount",
      "type": "error"
    },
    {
      "inputs": [],
      "name": "InvalidInitialization",
      "type": "error"
    },
    {
      "inputs": [],
      "name": "NotInitializing",
      "type": "error"
    },
    {
      "inputs": [
        {
          "internalType": "address",
          "name": "owner",
          "type": "address"
        }
      ],
      "name": "OwnableInvalidOwner",
      "type": "error"
    },
    {
      "inputs": [
        {
          "internalType": "address",
          "name": "account",
          "type": "address"
        }
      ],
      "name": "OwnableUnauthorizedAccount",
      "type": "error"
    },
    {
      "inputs": [],
      "name": "ReentrancyGuardReentrantCall",
      "type": "error"
    },
    {
      "inputs": [],
      "name": "TheBadge__controller_controllerIsPaused",
      "type": "error"
    },
    {
      "inputs": [],
      "name": "TheBadge__controller_invalidController",
      "type": "error"
    },
    {
      "inputs": [],
      "name": "TheBadge__onlyCreator_creatorIsSuspended",
      "type": "error"
    },
    {
      "inputs": [],
      "name": "TheBadge__onlyCreator_senderIsAlreadyACreator",
      "type": "error"
    },
    {
      "inputs": [],
      "name": "TheBadge__onlyUser_userNotFound",
      "type": "error"
    },
    {
      "inputs": [],
      "name": "TheBadge__registerUser_alreadyRegistered",
      "type": "error"
    },
    {
      "inputs": [],
      "name": "TheBadge__registerUser_wrongValue",
      "type": "error"
    },
    {
      "inputs": [],
      "name": "TheBadge__updateUser_notFound",
      "type": "error"
    },
    {
      "inputs": [],
      "name": "TheBadge__updateUser_wrongMetadata",
      "type": "error"
    },
    {
      "inputs": [],
      "name": "TheBadge__verifyUser_verificationProtocolFeesPaymentFailed",
      "type": "error"
    },
    {
      "inputs": [],
      "name": "TheBadge__verifyUser_wrongValue",
      "type": "error"
    },
    {
      "anonymous": false,
      "inputs": [
        {
          "indexed": true,
          "internalType": "address",
          "name": "admin",
          "type": "address"
        }
      ],
      "name": "Initialize",
      "type": "event"
    },
    {
      "anonymous": false,
      "inputs": [
        {
          "indexed": false,
          "internalType": "uint64",
          "name": "version",
          "type": "uint64"
        }
      ],
      "name": "Initialized",
      "type": "event"
    },
    {
      "anonymous": false,
      "inputs": [
        {
          "indexed": true,
          "internalType": "address",
          "name": "previousOwner",
          "type": "address"
        },
        {
          "indexed": true,
          "internalType": "address",
          "name": "newOwner",
          "type": "address"
        }
      ],
      "name": "OwnershipTransferred",
      "type": "event"
    },
    {
      "anonymous": false,
      "inputs": [
        {
          "indexed": true,
          "internalType": "address",
          "name": "recipient",
          "type": "address"
        },
        {
          "indexed": false,
          "internalType": "address",
          "name": "payer",
          "type": "address"
        },
        {
          "indexed": false,
          "internalType": "uint256",
          "name": "amount",
          "type": "uint256"
        },
        {
          "indexed": true,
          "internalType": "enum LibTheBadge.PaymentType",
          "name": "paymentType",
          "type": "uint8"
        },
        {
          "indexed": true,
          "internalType": "uint256",
          "name": "badgeModelId",
          "type": "uint256"
        },
        {
          "indexed": false,
          "internalType": "string",
          "name": "controllerName",
          "type": "string"
        }
      ],
      "name": "PaymentMade",
      "type": "event"
    },
    {
      "anonymous": false,
      "inputs": [
        {
          "indexed": true,
          "internalType": "bytes32",
          "name": "role",
          "type": "bytes32"
        },
        {
          "indexed": true,
          "internalType": "bytes32",
          "name": "previousAdminRole",
          "type": "bytes32"
        },
        {
          "indexed": true,
          "internalType": "bytes32",
          "name": "newAdminRole",
          "type": "bytes32"
        }
      ],
      "name": "RoleAdminChanged",
      "type": "event"
    },
    {
      "anonymous": false,
      "inputs": [
        {
          "indexed": true,
          "internalType": "bytes32",
          "name": "role",
          "type": "bytes32"
        },
        {
          "indexed": true,
          "internalType": "address",
          "name": "account",
          "type": "address"
        },
        {
          "indexed": true,
          "internalType": "address",
          "name": "sender",
          "type": "address"
        }
      ],
      "name": "RoleGranted",
      "type": "event"
    },
    {
      "anonymous": false,
      "inputs": [
        {
          "indexed": true,
          "internalType": "bytes32",
          "name": "role",
          "type": "bytes32"
        },
        {
          "indexed": true,
          "internalType": "address",
          "name": "account",
          "type": "address"
        },
        {
          "indexed": true,
          "internalType": "address",
          "name": "sender",
          "type": "address"
        }
      ],
      "name": "RoleRevoked",
      "type": "event"
    },
    {
      "anonymous": false,
      "inputs": [
        {
          "indexed": true,
          "internalType": "address",
          "name": "userAddress",
          "type": "address"
        },
        {
          "indexed": false,
          "internalType": "string",
          "name": "metadata",
          "type": "string"
        },
        {
          "indexed": false,
          "internalType": "bool",
          "name": "suspended",
          "type": "bool"
        },
        {
          "indexed": false,
          "internalType": "bool",
          "name": "isCreator",
          "type": "bool"
        },
        {
          "indexed": false,
          "internalType": "bool",
          "name": "deleted",
          "type": "bool"
        }
      ],
      "name": "UpdatedUser",
      "type": "event"
    },
    {
      "anonymous": false,
      "inputs": [
        {
          "indexed": true,
          "internalType": "address",
          "name": "user",
          "type": "address"
        },
        {
          "indexed": false,
          "internalType": "string",
          "name": "metadata",
          "type": "string"
        }
      ],
      "name": "UserRegistered",
      "type": "event"
    },
    {
      "anonymous": false,
      "inputs": [
        {
          "indexed": true,
          "internalType": "address",
          "name": "user",
          "type": "address"
        },
        {
          "indexed": false,
          "internalType": "string",
          "name": "controllerName",
          "type": "string"
        },
        {
          "indexed": false,
          "internalType": "bool",
          "name": "verify",
          "type": "bool"
        }
      ],
      "name": "UserVerificationExecuted",
      "type": "event"
    },
    {
      "anonymous": false,
      "inputs": [
        {
          "indexed": true,
          "internalType": "address",
          "name": "user",
          "type": "address"
        },
        {
          "indexed": false,
          "internalType": "string",
          "name": "metadata",
          "type": "string"
        },
        {
          "indexed": false,
          "internalType": "string",
          "name": "controllerName",
          "type": "string"
        }
      ],
      "name": "UserVerificationRequested",
      "type": "event"
    },
    {
      "inputs": [],
      "name": "CLAIMER_ROLE",
      "outputs": [
        {
          "internalType": "bytes32",
          "name": "",
          "type": "bytes32"
        }
      ],
      "stateMutability": "view",
      "type": "function"
    },
    {
      "inputs": [],
      "name": "DEFAULT_ADMIN_ROLE",
      "outputs": [
        {
          "internalType": "bytes32",
          "name": "",
          "type": "bytes32"
        }
      ],
      "stateMutability": "view",
      "type": "function"
    },
    {
      "inputs": [],
      "name": "PAUSER_ROLE",
      "outputs": [
        {
          "internalType": "bytes32",
          "name": "",
          "type": "bytes32"
        }
      ],
      "stateMutability": "view",
      "type": "function"
    },
    {
      "inputs": [],
      "name": "UPGRADER_ROLE",
      "outputs": [
        {
          "internalType": "bytes32",
          "name": "",
          "type": "bytes32"
        }
      ],
      "stateMutability": "view",
      "type": "function"
    },
    {
      "inputs": [],
      "name": "URI_SETTER_ROLE",
      "outputs": [
        {
          "internalType": "bytes32",
          "name": "",
          "type": "bytes32"
        }
      ],
      "stateMutability": "view",
      "type": "function"
    },
    {
      "inputs": [],
      "name": "USER_MANAGER_ROLE",
      "outputs": [
        {
          "internalType": "bytes32",
          "name": "",
          "type": "bytes32"
        }
      ],
      "stateMutability": "view",
      "type": "function"
    },
    {
      "inputs": [],
      "name": "VERIFIER_ROLE",
      "outputs": [
        {
          "internalType": "bytes32",
          "name": "",
          "type": "bytes32"
        }
      ],
      "stateMutability": "view",
      "type": "function"
    },
    {
      "inputs": [],
      "name": "_badgeStore",
      "outputs": [
        {
          "internalType": "contract TheBadgeStore",
          "name": "",
          "type": "address"
        }
      ],
      "stateMutability": "view",
      "type": "function"
    },
    {
      "inputs": [
        {
          "internalType": "address",
          "name": "_user",
          "type": "address"
        },
        {
          "internalType": "string",
          "name": "controllerName",
          "type": "string"
        },
        {
          "internalType": "bool",
          "name": "verify",
          "type": "bool"
        }
      ],
      "name": "executeUserVerification",
      "outputs": [],
      "stateMutability": "nonpayable",
      "type": "function"
    },
    {
      "inputs": [
        {
          "internalType": "bytes32",
          "name": "role",
          "type": "bytes32"
        }
      ],
      "name": "getRoleAdmin",
      "outputs": [
        {
          "internalType": "bytes32",
          "name": "",
          "type": "bytes32"
        }
      ],
      "stateMutability": "view",
      "type": "function"
    },
    {
      "inputs": [
        {
          "internalType": "string",
          "name": "controllerName",
          "type": "string"
        }
      ],
      "name": "getVerificationFee",
      "outputs": [
        {
          "internalType": "uint256",
          "name": "",
          "type": "uint256"
        }
      ],
      "stateMutability": "view",
      "type": "function"
    },
    {
      "inputs": [
        {
          "internalType": "bytes32",
          "name": "role",
          "type": "bytes32"
        },
        {
          "internalType": "address",
          "name": "account",
          "type": "address"
        }
      ],
      "name": "grantRole",
      "outputs": [],
      "stateMutability": "nonpayable",
      "type": "function"
    },
    {
      "inputs": [
        {
          "internalType": "bytes32",
          "name": "role",
          "type": "bytes32"
        },
        {
          "internalType": "address",
          "name": "account",
          "type": "address"
        }
      ],
      "name": "hasRole",
      "outputs": [
        {
          "internalType": "bool",
          "name": "",
          "type": "bool"
        }
      ],
      "stateMutability": "view",
      "type": "function"
    },
    {
      "inputs": [
        {
          "internalType": "address",
          "name": "admin",
          "type": "address"
        },
        {
          "internalType": "address",
          "name": "badgeStore",
          "type": "address"
        }
      ],
      "name": "initialize",
      "outputs": [],
      "stateMutability": "nonpayable",
      "type": "function"
    },
    {
      "inputs": [
        {
          "internalType": "address",
          "name": "_user",
          "type": "address"
        },
        {
          "internalType": "string",
          "name": "controllerName",
          "type": "string"
        }
      ],
      "name": "isUserVerified",
      "outputs": [
        {
          "internalType": "bool",
          "name": "",
          "type": "bool"
        }
      ],
      "stateMutability": "view",
      "type": "function"
    },
    {
      "inputs": [
        {
          "internalType": "address",
          "name": "_userAddress",
          "type": "address"
        }
      ],
      "name": "makeUserCreator",
      "outputs": [],
      "stateMutability": "nonpayable",
      "type": "function"
    },
    {
      "inputs": [],
      "name": "owner",
      "outputs": [
        {
          "internalType": "address",
          "name": "",
          "type": "address"
        }
      ],
      "stateMutability": "view",
      "type": "function"
    },
    {
      "inputs": [
        {
          "internalType": "string",
          "name": "_metadata",
          "type": "string"
        },
        {
          "internalType": "bool",
          "name": "_isCompany",
          "type": "bool"
        }
      ],
      "name": "registerUser",
      "outputs": [],
      "stateMutability": "payable",
      "type": "function"
    },
    {
      "inputs": [],
      "name": "renounceOwnership",
      "outputs": [],
      "stateMutability": "nonpayable",
      "type": "function"
    },
    {
      "inputs": [
        {
          "internalType": "bytes32",
          "name": "role",
          "type": "bytes32"
        },
        {
          "internalType": "address",
          "name": "callerConfirmation",
          "type": "address"
        }
      ],
      "name": "renounceRole",
      "outputs": [],
      "stateMutability": "nonpayable",
      "type": "function"
    },
    {
      "inputs": [
        {
          "internalType": "bytes32",
          "name": "role",
          "type": "bytes32"
        },
        {
          "internalType": "address",
          "name": "account",
          "type": "address"
        }
      ],
      "name": "revokeRole",
      "outputs": [],
      "stateMutability": "nonpayable",
      "type": "function"
    },
    {
      "inputs": [
        {
          "internalType": "string",
          "name": "controllerName",
          "type": "string"
        },
        {
          "internalType": "string",
          "name": "evidenceUri",
          "type": "string"
        }
      ],
      "name": "submitUserVerification",
      "outputs": [],
      "stateMutability": "payable",
      "type": "function"
    },
    {
      "inputs": [
        {
          "internalType": "bytes4",
          "name": "interfaceId",
          "type": "bytes4"
        }
      ],
      "name": "supportsInterface",
      "outputs": [
        {
          "internalType": "bool",
          "name": "",
          "type": "bool"
        }
      ],
      "stateMutability": "view",
      "type": "function"
    },
    {
      "inputs": [
        {
          "internalType": "address",
          "name": "_userAddress",
          "type": "address"
        },
        {
          "internalType": "bool",
          "name": "suspended",
          "type": "bool"
        }
      ],
      "name": "suspendUser",
      "outputs": [],
      "stateMutability": "nonpayable",
      "type": "function"
    },
    {
      "inputs": [
        {
          "internalType": "address",
          "name": "newOwner",
          "type": "address"
        }
      ],
      "name": "transferOwnership",
      "outputs": [],
      "stateMutability": "nonpayable",
      "type": "function"
    },
    {
      "inputs": [
        {
          "internalType": "string",
          "name": "_metadata",
          "type": "string"
        }
      ],
      "name": "updateProfile",
      "outputs": [],
      "stateMutability": "nonpayable",
      "type": "function"
    },
    {
      "inputs": [
        {
          "internalType": "address",
          "name": "_userAddress",
          "type": "address"
        },
        {
          "internalType": "string",
          "name": "_metadata",
          "type": "string"
        }
      ],
      "name": "updateUser",
      "outputs": [],
      "stateMutability": "nonpayable",
      "type": "function"
    },
    {
      "stateMutability": "payable",
      "type": "receive"
    }
  ],
  "bytecode": "0x608060405234801562000010575f80fd5b506200001b62000021565b620000d5565b7ff0c57e16840df040f15088dc2f81fe391c3923bec73e23a9662efc9c229c6a00805468010000000000000000900460ff1615620000725760405163f92ee8a960e01b815260040160405180910390fd5b80546001600160401b0390811614620000d25780546001600160401b0319166001600160401b0390811782556040519081527fc7f505b2f371ae2175ee4913f4499e1f2633a7b5936321eed1cdaeb6115181d29060200160405180910390a15b50565b61266b80620000e35f395ff3fe60806040526004361061014c575f3560e01c80638a4be490116100ba5780638a4be4901461030c5780638da5cb5b1461032b57806391d148541461033f578063a217fddf1461035e578063a41e35c314610371578063b088981914610391578063c1b8c5f1146103b0578063d547741f146103cf578063e63ab1e9146103ee578063e71de0481461040e578063e7705db61461042d578063f2fde38b1461044d578063f72c0d8b1461046c578063fc5f18d31461049f575f80fd5b80629299e31461015757806301ffc9a71461017857806319b50c2a146101ac5780631b6cd667146101d7578063248a9ca3146101ea5780632acb0301146102175780632f2ff15d1461023657806336568abe14610255578063485cc955146102745780635c3736f114610293578063715018a6146102b257806379b233db146102c65780637f345710146102d9575f80fd5b3661015357005b5f80fd5b348015610162575f80fd5b50610176610171366004611fda565b6104d2565b005b348015610183575f80fd5b50610197610192366004612013565b61062f565b60405190151581526020015b60405180910390f35b3480156101b7575f80fd5b505f546101ca906001600160a01b031681565b6040516101a39190612041565b6101766101e5366004612055565b610665565b3480156101f5575f80fd5b506102096102043660046120b4565b610b6e565b6040519081526020016101a3565b348015610222575f80fd5b506101976102313660046120df565b610b8c565b348015610241575f80fd5b50610176610250366004612121565b610d5b565b348015610260575f80fd5b5061017661026f366004612121565b610d7d565b34801561027f575f80fd5b5061017661028e36600461214f565b610db5565b34801561029e575f80fd5b506101766102ad366004612188565b610f73565b3480156102bd575f80fd5b5061017661108c565b6101766102d43660046121b4565b61109f565b3480156102e4575f80fd5b506102097f7804d923f43a17d325d77e781528e0793b2edd9890ab45fc64efd7b4b427744c81565b348015610317575f80fd5b506101766103263660046121f7565b6113b0565b348015610336575f80fd5b506101ca611530565b34801561034a575f80fd5b50610197610359366004612121565b61154a565b348015610369575f80fd5b506102095f81565b34801561037c575f80fd5b506102095f805160206125f683398151915281565b34801561039c575f80fd5b506101766103ab3660046120df565b61157e565b3480156103bb575f80fd5b506101766103ca366004612212565b6116e4565b3480156103da575f80fd5b506101766103e9366004612121565b6119bd565b3480156103f9575f80fd5b506102095f805160206125d683398151915281565b348015610419575f80fd5b50610209610428366004611fda565b6119d9565b348015610438575f80fd5b506102095f8051602061261683398151915281565b348015610458575f80fd5b506101766104673660046121f7565b611b9d565b348015610477575f80fd5b506102097f189ab7a9244df0848122154315af71fe140f3db0fe014031783b0946b8c9d2e381565b3480156104aa575f80fd5b506102097f11a8cb5a02bd6c42679835e867ef2118ba78f088f8300511420c6603c21d9c7881565b5f80546001600160a01b0316636f77926b336040518263ffffffff1660e01b81526004016105009190612041565b5f60405180830381865afa15801561051a573d5f803e3d5ffd5b505050506040513d5f823e601f3d908101601f1916820160405261054191908101906122a3565b8051519091505f03610566576040516365553c4160e11b815260040160405180910390fd5b81515f0361058757604051632bf9525960e11b815260040160405180910390fd5b8181525f546001600160a01b031663178682c133836040518363ffffffff1660e01b81526004016105b99291906123af565b5f604051808303815f87803b1580156105d0575f80fd5b505af11580156105e2573d5f803e3d5ffd5b505050506105ed3390565b6001600160a01b03165f805160206125b6833981519152825f0151836060015184604001515f6040516106239493929190612415565b60405180910390a25050565b5f6001600160e01b03198216637965db0b60e01b148061065f57506301ffc9a760e01b6001600160e01b03198316145b92915050565b335f8054604051636f77926b60e01b81526001600160a01b0390911690636f77926b90610696908590600401612041565b5f60405180830381865afa1580156106b0573d5f803e3d5ffd5b505050506040513d5f823e601f3d908101601f191682016040526106d791908101906122a3565b8051519091505f036106fc5760405163ce848fe360e01b815260040160405180910390fd5b606081015115156001036107235760405163401d786960e11b815260040160405180910390fd5b5f8054604051631c2e21b960e11b81528692916001600160a01b03169063385c437290610754908590600401612445565b606060405180830381865afa15801561076f573d5f803e3d5ffd5b505050506040513d601f19601f820116820180604052508101906107939190612457565b80519091506001600160a01b03166107be5760405163014eb98760e11b815260040160405180910390fd5b604081015115155f036107e45760405163014eb98760e11b815260040160405180910390fd5b8060200151156108075760405163526e73a560e01b815260040160405180910390fd5b61080f611be3565b5f8054604051631c2e21b960e11b81526001600160a01b039091169063385c43729061083f908a90600401612445565b606060405180830381865afa15801561085a573d5f803e3d5ffd5b505050506040513d601f19601f8201168201806040525081019061087e9190612457565b5f8054919250906001600160a01b0316636f77926b336040518263ffffffff1660e01b81526004016108b09190612041565b5f60405180830381865afa1580156108ca573d5f803e3d5ffd5b505050506040513d5f823e601f3d908101601f191682016040526108f191908101906122a3565b5f8054604080516331056e5760e21b815290519394508b936001600160a01b039092169163c415b95c916004808201926020929091908290030181865afa15801561093e573d5f803e3d5ffd5b505050506040513d601f19601f8201168201806040525081019061096291906124c6565b90505f845f01516001600160a01b0316637657dbdd6040518163ffffffff1660e01b8152600401602060405180830381865afa1580156109a4573d5f803e3d5ffd5b505050506040513d601f19601f820116820180604052508101906109c891906124e1565b90508034146109ea5760405163e1d94b7f60e01b815260040160405180910390fd5b3415610aaf575f826001600160a01b0316346040515f6040518083038185875af1925050503d805f8114610a39576040519150601f19603f3d011682016040523d82523d5f602084013e610a3e565b606091505b50909150508015155f03610a65576040516331eb874960e21b815260040160405180910390fd5b5f60036001600160a01b0385167fdf7cc5ebdb7be805a1d96fd982aba37cbf8e9169d6f34870e8d63a62cd492f64333489604051610aa5939291906124f8565b60405180910390a4505b84518451604051635ad433fd60e11b81526001600160a01b039092169163b5a867fa91610ae3913391908f9060040161251e565b5f604051808303815f87803b158015610afa575f80fd5b505af1158015610b0c573d5f803e3d5ffd5b50505050610b173390565b6001600160a01b03167fb17b7f220d392b3fac92feead39a937412996860f3aacd51a13f9271239df6518b8d604051610b51929190612553565b60405180910390a25050505050610b66611c18565b505050505050565b5f80610b78611c28565b5f9384526020525050604090206001015490565b5f8054604051631c2e21b960e11b8152839183916001600160a01b039091169063385c437290610bc0908590600401612445565b606060405180830381865afa158015610bdb573d5f803e3d5ffd5b505050506040513d601f19601f82011682018060405250810190610bff9190612457565b80519091506001600160a01b0316610c2a5760405163014eb98760e11b815260040160405180910390fd5b604081015115155f03610c505760405163014eb98760e11b815260040160405180910390fd5b806020015115610c735760405163526e73a560e01b815260040160405180910390fd5b5f8054604051631c2e21b960e11b81526001600160a01b039091169063385c437290610ca3908890600401612445565b606060405180830381865afa158015610cbe573d5f803e3d5ffd5b505050506040513d601f19601f82011682018060405250810190610ce29190612457565b805160405163056720bf60e51b81529192506001600160a01b03169063ace417e090610d12908990600401612041565b602060405180830381865afa158015610d2d573d5f803e3d5ffd5b505050506040513d601f19601f82011682018060405250810190610d519190612577565b9695505050505050565b610d6482610b6e565b610d6d81611c4c565b610d778383611c56565b50505050565b6001600160a01b0381163314610da65760405163334bd91960e11b815260040160405180910390fd5b610db08282611cf4565b505050565b5f610dbe611d6a565b805490915060ff600160401b82041615906001600160401b03165f81158015610de45750825b90505f826001600160401b03166001148015610dff5750303b155b905081158015610e0d575080155b15610e2b5760405163f92ee8a960e01b815260040160405180910390fd5b845467ffffffffffffffff191660011785558315610e5557845460ff60401b1916600160401b1785555b610e5e87611d8e565b610e685f88611c56565b50610e805f805160206125f683398151915288611c56565b50610e985f805160206125d683398151915288611c56565b50610ec37f189ab7a9244df0848122154315af71fe140f3db0fe014031783b0946b8c9d2e388611c56565b50610edb5f8051602061261683398151915288611c56565b505f80546001600160a01b0319166001600160a01b03888116919091178255604051908916917f36b1453565f45af7b509b59d5e2eac8f1948ea9e3e193db6663b4101afb6382c91a28315610f6a57845460ff60401b19168555604051600181527fc7f505b2f371ae2175ee4913f4499e1f2633a7b5936321eed1cdaeb6115181d29060200160405180910390a15b50505050505050565b5f805160206125d6833981519152610f8a81611c4c565b5f8054604051636f77926b60e01b81526001600160a01b0390911690636f77926b90610fba908790600401612041565b5f60405180830381865afa158015610fd4573d5f803e3d5ffd5b505050506040513d5f823e601f3d908101601f19168201604052610ffb91908101906122a3565b8051519091505f03611020576040516365553c4160e11b815260040160405180910390fd5b82151560608201525f5460405163178682c160e01b81526001600160a01b039091169063178682c19061105990879085906004016123af565b5f604051808303815f87803b158015611070575f80fd5b505af1158015611082573d5f803e3d5ffd5b5050505050505050565b611094611d9f565b61109d5f611dd1565b565b5f80546001600160a01b0316636f77926b336040518263ffffffff1660e01b81526004016110cd9190612041565b5f60405180830381865afa1580156110e7573d5f803e3d5ffd5b505050506040513d5f823e601f3d908101601f1916820160405261110e91908101906122a3565b805151909150156111325760405163096bb4a360e41b815260040160405180910390fd5b5f805f9054906101000a90046001600160a01b03166001600160a01b031663e70a0e696040518163ffffffff1660e01b8152600401602060405180830381865afa158015611182573d5f803e3d5ffd5b505050506040513d601f19601f820116820180604052508101906111a691906124e1565b90508034146111c857604051638c77ddf360e01b815260040160405180910390fd5b34156112e4575f805f9054906101000a90046001600160a01b03166001600160a01b031663c415b95c6040518163ffffffff1660e01b8152600401602060405180830381865afa15801561121e573d5f803e3d5ffd5b505050506040513d601f19601f8201168201806040525081019061124291906124c6565b6040519091506001600160a01b038216903480156108fc02915f818181858888f19350505050158015611277573d5f803e3d5ffd5b505f60026001600160a01b0383167fdf7cc5ebdb7be805a1d96fd982aba37cbf8e9169d6f34870e8d63a62cd492f6433604080516001600160a01b039092168252346020830152606090820181905260029082015261060f60f31b608082015260a00160405180910390a4505b83825282151560208301525f604083018190526060830181905260016080840152546001600160a01b031663e9ab224e33846040518363ffffffff1660e01b81526004016113339291906123af565b5f604051808303815f87803b15801561134a575f80fd5b505af115801561135c573d5f803e3d5ffd5b505050506113673390565b6001600160a01b03167f48cac28ad4dc618e15f4c2dd5e97751182f166de97b25618318b2112aa951a2f835f01516040516113a29190612445565b60405180910390a250505050565b5f805160206125f68339815191526113c781611c4c565b5f8054604051636f77926b60e01b81526001600160a01b0390911690636f77926b906113f7908690600401612041565b5f60405180830381865afa158015611411573d5f803e3d5ffd5b505050506040513d5f823e601f3d908101601f1916820160405261143891908101906122a3565b8051519091505f0361145d576040516365553c4160e11b815260040160405180910390fd5b6040810151151560010361148457604051631edcfb9f60e21b815260040160405180910390fd5b60016040808301919091525f54905163178682c160e01b81526001600160a01b039091169063178682c1906114bf90869085906004016123af565b5f604051808303815f87803b1580156114d6575f80fd5b505af11580156114e8573d5f803e3d5ffd5b50505050826001600160a01b03165f805160206125b6833981519152825f0151836060015184604001515f6040516115239493929190612415565b60405180910390a2505050565b5f8061153a611e2b565b546001600160a01b031692915050565b5f80611554611c28565b5f948552602090815260408086206001600160a01b03959095168652939052505090205460ff1690565b5f805160206125f683398151915261159581611c4c565b5f8054604051636f77926b60e01b81526001600160a01b0390911690636f77926b906115c5908790600401612041565b5f60405180830381865afa1580156115df573d5f803e3d5ffd5b505050506040513d5f823e601f3d908101601f1916820160405261160691908101906122a3565b8051519091505f0361162b576040516365553c4160e11b815260040160405180910390fd5b82515f0361164c57604051632bf9525960e11b815260040160405180910390fd5b8281525f5460405163178682c160e01b81526001600160a01b039091169063178682c19061168090879085906004016123af565b5f604051808303815f87803b158015611697575f80fd5b505af11580156116a9573d5f803e3d5ffd5b50505050836001600160a01b03165f805160206125b6833981519152825f0151836060015184604001515f6040516113a29493929190612415565b5f805160206126168339815191526116fb81611c4c565b5f8054604051631c2e21b960e11b81528592916001600160a01b03169063385c43729061172c908590600401612445565b606060405180830381865afa158015611747573d5f803e3d5ffd5b505050506040513d601f19601f8201168201806040525081019061176b9190612457565b80519091506001600160a01b03166117965760405163014eb98760e11b815260040160405180910390fd5b604081015115155f036117bc5760405163014eb98760e11b815260040160405180910390fd5b8060200151156117df5760405163526e73a560e01b815260040160405180910390fd5b5f8054604051636f77926b60e01b81528892916001600160a01b031690636f77926b90611810908590600401612041565b5f60405180830381865afa15801561182a573d5f803e3d5ffd5b505050506040513d5f823e601f3d908101601f1916820160405261185191908101906122a3565b8051519091505f036118765760405163ce848fe360e01b815260040160405180910390fd5b6060810151151560010361189d5760405163401d786960e11b815260040160405180910390fd5b5f8054604051631c2e21b960e11b81526001600160a01b039091169063385c4372906118cd908b90600401612445565b606060405180830381865afa1580156118e8573d5f803e3d5ffd5b505050506040513d601f19601f8201168201806040525081019061190c9190612457565b805160405163130bd93f60e01b81526001600160a01b038c811660048301528a1515602483015292935091169063130bd93f906044015f604051808303815f87803b158015611959575f80fd5b505af115801561196b573d5f803e3d5ffd5b50505050886001600160a01b03167fdea1140938dde90016dc539563f1fa2f3f675e2cdee8d0c6a7999e1830cc81be89896040516119aa929190612592565b60405180910390a2505050505050505050565b6119c682610b6e565b6119cf81611c4c565b610d778383611cf4565b5f8054604051631c2e21b960e11b8152839183916001600160a01b039091169063385c437290611a0d908590600401612445565b606060405180830381865afa158015611a28573d5f803e3d5ffd5b505050506040513d601f19601f82011682018060405250810190611a4c9190612457565b80519091506001600160a01b0316611a775760405163014eb98760e11b815260040160405180910390fd5b604081015115155f03611a9d5760405163014eb98760e11b815260040160405180910390fd5b806020015115611ac05760405163526e73a560e01b815260040160405180910390fd5b5f8054604051631c2e21b960e11b81526001600160a01b039091169063385c437290611af0908890600401612445565b606060405180830381865afa158015611b0b573d5f803e3d5ffd5b505050506040513d601f19601f82011682018060405250810190611b2f9190612457565b9050805f01516001600160a01b0316637657dbdd6040518163ffffffff1660e01b8152600401602060405180830381865afa158015611b70573d5f803e3d5ffd5b505050506040513d601f19601f82011682018060405250810190611b9491906124e1565b95945050505050565b611ba5611d9f565b6001600160a01b038116611bd7575f604051631e4fbdf760e01b8152600401611bce9190612041565b60405180910390fd5b611be081611dd1565b50565b5f611bec611e4f565b805490915060011901611c1257604051633ee5aeb560e01b815260040160405180910390fd5b60029055565b5f611c21611e4f565b6001905550565b7f02dd7bc7dec4dceedda775e58dd541e08a116c6c53815c0bd028192f7b62680090565b611be08133611e73565b5f80611c60611c28565b9050611c6c848461154a565b611ceb575f848152602082815260408083206001600160a01b03871684529091529020805460ff19166001179055611ca13390565b6001600160a01b0316836001600160a01b0316857f2f8788117e7eff1d82e926ec794901d17c78024a50270940304540a733656f0d60405160405180910390a4600191505061065f565b5f91505061065f565b5f80611cfe611c28565b9050611d0a848461154a565b15611ceb575f848152602082815260408083206001600160a01b0387168085529252808320805460ff1916905551339287917ff6391f5c32d9c69d2a47ea670b442974b53935d1edc7fd64eb21e047a839171b9190a4600191505061065f565b7ff0c57e16840df040f15088dc2f81fe391c3923bec73e23a9662efc9c229c6a0090565b611d96611eb0565b611be081611ed5565b33611da8611530565b6001600160a01b03161461109d573360405163118cdaa760e01b8152600401611bce9190612041565b5f611dda611e2b565b80546001600160a01b038481166001600160a01b031983168117845560405193945091169182907f8be0079c531659141344cd1fd0a4f28419497f9722a3daafe3b4186f6b6457e0905f90a3505050565b7f9016d09d72d40fdae2fd8ceac6b6234c7706214fd39c1cd1e609a0528c19930090565b7f9b779b17422d0df92223018b32b4d1fa46e071723d6817e2486d003becc55f0090565b611e7d828261154a565b611eac5760405163e2517d3f60e01b81526001600160a01b038216600482015260248101839052604401611bce565b5050565b611eb8611edd565b61109d57604051631afcd79f60e31b815260040160405180910390fd5b611ba5611eb0565b5f611ee6611d6a565b54600160401b900460ff16919050565b634e487b7160e01b5f52604160045260245ffd5b60405160a081016001600160401b0381118282101715611f2c57611f2c611ef6565b60405290565b604051601f8201601f191681016001600160401b0381118282101715611f5a57611f5a611ef6565b604052919050565b5f6001600160401b03821115611f7a57611f7a611ef6565b50601f01601f191660200190565b5f82601f830112611f97575f80fd5b8135611faa611fa582611f62565b611f32565b818152846020838601011115611fbe575f80fd5b816020850160208301375f918101602001919091529392505050565b5f60208284031215611fea575f80fd5b81356001600160401b03811115611fff575f80fd5b61200b84828501611f88565b949350505050565b5f60208284031215612023575f80fd5b81356001600160e01b03198116811461203a575f80fd5b9392505050565b6001600160a01b0391909116815260200190565b5f8060408385031215612066575f80fd5b82356001600160401b038082111561207c575f80fd5b61208886838701611f88565b9350602085013591508082111561209d575f80fd5b506120aa85828601611f88565b9150509250929050565b5f602082840312156120c4575f80fd5b5035919050565b6001600160a01b0381168114611be0575f80fd5b5f80604083850312156120f0575f80fd5b82356120fb816120cb565b915060208301356001600160401b03811115612115575f80fd5b6120aa85828601611f88565b5f8060408385031215612132575f80fd5b823591506020830135612144816120cb565b809150509250929050565b5f8060408385031215612160575f80fd5b823561216b816120cb565b91506020830135612144816120cb565b8015158114611be0575f80fd5b5f8060408385031215612199575f80fd5b82356121a4816120cb565b915060208301356121448161217b565b5f80604083850312156121c5575f80fd5b82356001600160401b038111156121da575f80fd5b6121e685828601611f88565b92505060208301356121448161217b565b5f60208284031215612207575f80fd5b813561203a816120cb565b5f805f60608486031215612224575f80fd5b833561222f816120cb565b925060208401356001600160401b03811115612249575f80fd5b61225586828701611f88565b92505060408401356122668161217b565b809150509250925092565b5f5b8381101561228b578181015183820152602001612273565b50505f910152565b805161229e8161217b565b919050565b5f60208083850312156122b4575f80fd5b82516001600160401b03808211156122ca575f80fd5b9084019060a082870312156122dd575f80fd5b6122e5611f0a565b8251828111156122f3575f80fd5b83019150601f82018713612305575f80fd5b8151612313611fa582611f62565b8181528886838601011115612326575f80fd5b61233582878301888701612271565b825250612343838501612293565b8482015261235360408401612293565b604082015261236460608401612293565b606082015261237560808401612293565b60808201529695505050505050565b5f815180845261239b816020860160208601612271565b601f01601f19169290920160200192915050565b60018060a01b0383168152604060208201525f825160a060408401526123d860e0840182612384565b90506020840151151560608401526040840151151560808401526060840151151560a08401526080840151151560c0840152809150509392505050565b608081525f6124276080830187612384565b94151560208301525091151560408301521515606090910152919050565b602081525f61203a6020830184612384565b5f60608284031215612467575f80fd5b604051606081018181106001600160401b038211171561248957612489611ef6565b6040528251612497816120cb565b815260208301516124a78161217b565b602082015260408301516124ba8161217b565b60408201529392505050565b5f602082840312156124d6575f80fd5b815161203a816120cb565b5f602082840312156124f1575f80fd5b5051919050565b60018060a01b0384168152826020820152606060408201525f611b946060830184612384565b6001600160a01b03841681526060602082018190525f9061254190830185612384565b8281036040840152610d518185612384565b604081525f6125656040830185612384565b8281036020840152611b948185612384565b5f60208284031215612587575f80fd5b815161203a8161217b565b604081525f6125a46040830185612384565b90508215156020830152939250505056fe52b0aedf558ae7ca1fea6363c537e188e53ef8982b74a564ee8eeae39d68017a65d7a28e3265b37a6474929f336521b332c1681b933f6cb9f3376673440d862acbaaf41b181bb6e269c490e876a7c97711b57e21dd8e5528423cf57579726b350ce23c3e399818cfee81a7ab0880f714e53d7672b08df0fa62f2843416e1ea09a2646970667358221220e3d4e17901b51153016e7a653f5e0f9e4d0a12d304be6bf52504931ac3d69b8364736f6c63430008140033",
  "linkReferences": {},
  "deployedLinkReferences": {}
}