{
  "_format": "hh-sol-artifact-1",
  "contractName": "TheBadge",
  "sourceName": "src/contracts/thebadge/TheBadge.sol",
  "abi": [
    {
      "inputs": [],
      "stateMutability": "nonpayable",
      "type": "constructor"
    },
    {
      "inputs": [],
      "name": "TheBadge__SBT",
      "type": "error"
    },
    {
      "inputs": [],
      "name": "TheBadge__calculateFee_protocolFeesInvalidValues",
      "type": "error"
    },
    {
      "inputs": [],
      "name": "TheBadge__mint_creatorFeesPaymentFailed",
      "type": "error"
    },
    {
      "inputs": [],
      "name": "TheBadge__mint_protocolFeesPaymentFailed",
      "type": "error"
    },
    {
      "inputs": [],
      "name": "TheBadge__requestBadge_badgeModelIsSuspended",
      "type": "error"
    },
    {
      "inputs": [],
      "name": "TheBadge__requestBadge_badgeModelNotFound",
      "type": "error"
    },
    {
      "inputs": [],
      "name": "TheBadge__requestBadge_badgeNotClaimable",
      "type": "error"
    },
    {
      "inputs": [],
      "name": "TheBadge__requestBadge_badgeNotFound",
      "type": "error"
    },
    {
      "inputs": [],
      "name": "TheBadge__requestBadge_badgeNotMintable",
      "type": "error"
    },
    {
      "inputs": [],
      "name": "TheBadge__requestBadge_controllerIsPaused",
      "type": "error"
    },
    {
      "inputs": [],
      "name": "TheBadge__requestBadge_isPaused",
      "type": "error"
    },
    {
      "inputs": [],
      "name": "TheBadge__requestBadge_wrongValue",
      "type": "error"
    },
    {
      "anonymous": false,
      "inputs": [
        {
          "indexed": false,
          "internalType": "address",
          "name": "previousAdmin",
          "type": "address"
        },
        {
          "indexed": false,
          "internalType": "address",
          "name": "newAdmin",
          "type": "address"
        }
      ],
      "name": "AdminChanged",
      "type": "event"
    },
    {
      "anonymous": false,
      "inputs": [
        {
          "indexed": true,
          "internalType": "address",
          "name": "account",
          "type": "address"
        },
        {
          "indexed": true,
          "internalType": "address",
          "name": "operator",
          "type": "address"
        },
        {
          "indexed": false,
          "internalType": "bool",
          "name": "approved",
          "type": "bool"
        }
      ],
      "name": "ApprovalForAll",
      "type": "event"
    },
    {
      "anonymous": false,
      "inputs": [
        {
          "indexed": true,
          "internalType": "uint256",
          "name": "badgeModelID",
          "type": "uint256"
        },
        {
          "indexed": true,
          "internalType": "uint256",
          "name": "badgeID",
          "type": "uint256"
        },
        {
          "indexed": true,
          "internalType": "address",
          "name": "recipient",
          "type": "address"
        },
        {
          "indexed": false,
          "internalType": "address",
          "name": "controller",
          "type": "address"
        },
        {
          "indexed": false,
          "internalType": "uint256",
          "name": "controllerBadgeId",
          "type": "uint256"
        }
      ],
      "name": "BadgeRequested",
      "type": "event"
    },
    {
      "anonymous": false,
      "inputs": [
        {
          "indexed": true,
          "internalType": "uint256",
          "name": "badgeId",
          "type": "uint256"
        },
        {
          "indexed": true,
          "internalType": "address",
          "name": "origin",
          "type": "address"
        },
        {
          "indexed": true,
          "internalType": "address",
          "name": "destination",
          "type": "address"
        }
      ],
      "name": "BadgeTransferred",
      "type": "event"
    },
    {
      "anonymous": false,
      "inputs": [
        {
          "indexed": true,
          "internalType": "address",
          "name": "beacon",
          "type": "address"
        }
      ],
      "name": "BeaconUpgraded",
      "type": "event"
    },
    {
      "anonymous": false,
      "inputs": [
        {
          "indexed": true,
          "internalType": "address",
          "name": "admin",
          "type": "address"
        }
      ],
      "name": "Initialize",
      "type": "event"
    },
    {
      "anonymous": false,
      "inputs": [
        {
          "indexed": false,
          "internalType": "uint8",
          "name": "version",
          "type": "uint8"
        }
      ],
      "name": "Initialized",
      "type": "event"
    },
    {
      "anonymous": false,
      "inputs": [
        {
          "indexed": false,
          "internalType": "address",
          "name": "account",
          "type": "address"
        }
      ],
      "name": "Paused",
      "type": "event"
    },
    {
      "anonymous": false,
      "inputs": [
        {
          "indexed": true,
          "internalType": "address",
          "name": "recipient",
          "type": "address"
        },
        {
          "indexed": false,
          "internalType": "address",
          "name": "payer",
          "type": "address"
        },
        {
          "indexed": false,
          "internalType": "uint256",
          "name": "amount",
          "type": "uint256"
        },
        {
          "indexed": true,
          "internalType": "enum LibTheBadge.PaymentType",
          "name": "paymentType",
          "type": "uint8"
        },
        {
          "indexed": true,
          "internalType": "uint256",
          "name": "badgeModelId",
          "type": "uint256"
        },
        {
          "indexed": false,
          "internalType": "string",
          "name": "controllerName",
          "type": "string"
        }
      ],
      "name": "PaymentMade",
      "type": "event"
    },
    {
      "anonymous": false,
      "inputs": [],
      "name": "ProtocolSettingsUpdated",
      "type": "event"
    },
    {
      "anonymous": false,
      "inputs": [
        {
          "indexed": true,
          "internalType": "bytes32",
          "name": "role",
          "type": "bytes32"
        },
        {
          "indexed": true,
          "internalType": "bytes32",
          "name": "previousAdminRole",
          "type": "bytes32"
        },
        {
          "indexed": true,
          "internalType": "bytes32",
          "name": "newAdminRole",
          "type": "bytes32"
        }
      ],
      "name": "RoleAdminChanged",
      "type": "event"
    },
    {
      "anonymous": false,
      "inputs": [
        {
          "indexed": true,
          "internalType": "bytes32",
          "name": "role",
          "type": "bytes32"
        },
        {
          "indexed": true,
          "internalType": "address",
          "name": "account",
          "type": "address"
        },
        {
          "indexed": true,
          "internalType": "address",
          "name": "sender",
          "type": "address"
        }
      ],
      "name": "RoleGranted",
      "type": "event"
    },
    {
      "anonymous": false,
      "inputs": [
        {
          "indexed": true,
          "internalType": "bytes32",
          "name": "role",
          "type": "bytes32"
        },
        {
          "indexed": true,
          "internalType": "address",
          "name": "account",
          "type": "address"
        },
        {
          "indexed": true,
          "internalType": "address",
          "name": "sender",
          "type": "address"
        }
      ],
      "name": "RoleRevoked",
      "type": "event"
    },
    {
      "anonymous": false,
      "inputs": [
        {
          "indexed": true,
          "internalType": "address",
          "name": "operator",
          "type": "address"
        },
        {
          "indexed": true,
          "internalType": "address",
          "name": "from",
          "type": "address"
        },
        {
          "indexed": true,
          "internalType": "address",
          "name": "to",
          "type": "address"
        },
        {
          "indexed": false,
          "internalType": "uint256[]",
          "name": "ids",
          "type": "uint256[]"
        },
        {
          "indexed": false,
          "internalType": "uint256[]",
          "name": "values",
          "type": "uint256[]"
        }
      ],
      "name": "TransferBatch",
      "type": "event"
    },
    {
      "anonymous": false,
      "inputs": [
        {
          "indexed": true,
          "internalType": "address",
          "name": "operator",
          "type": "address"
        },
        {
          "indexed": true,
          "internalType": "address",
          "name": "from",
          "type": "address"
        },
        {
          "indexed": true,
          "internalType": "address",
          "name": "to",
          "type": "address"
        },
        {
          "indexed": false,
          "internalType": "uint256",
          "name": "id",
          "type": "uint256"
        },
        {
          "indexed": false,
          "internalType": "uint256",
          "name": "value",
          "type": "uint256"
        }
      ],
      "name": "TransferSingle",
      "type": "event"
    },
    {
      "anonymous": false,
      "inputs": [
        {
          "indexed": false,
          "internalType": "string",
          "name": "value",
          "type": "string"
        },
        {
          "indexed": true,
          "internalType": "uint256",
          "name": "id",
          "type": "uint256"
        }
      ],
      "name": "URI",
      "type": "event"
    },
    {
      "anonymous": false,
      "inputs": [
        {
          "indexed": false,
          "internalType": "address",
          "name": "account",
          "type": "address"
        }
      ],
      "name": "Unpaused",
      "type": "event"
    },
    {
      "anonymous": false,
      "inputs": [
        {
          "indexed": true,
          "internalType": "address",
          "name": "implementation",
          "type": "address"
        }
      ],
      "name": "Upgraded",
      "type": "event"
    },
    {
      "inputs": [],
      "name": "CLAIMER_ROLE",
      "outputs": [
        {
          "internalType": "bytes32",
          "name": "",
          "type": "bytes32"
        }
      ],
      "stateMutability": "view",
      "type": "function"
    },
    {
      "inputs": [],
      "name": "DEFAULT_ADMIN_ROLE",
      "outputs": [
        {
          "internalType": "bytes32",
          "name": "",
          "type": "bytes32"
        }
      ],
      "stateMutability": "view",
      "type": "function"
    },
    {
      "inputs": [],
      "name": "PAUSER_ROLE",
      "outputs": [
        {
          "internalType": "bytes32",
          "name": "",
          "type": "bytes32"
        }
      ],
      "stateMutability": "view",
      "type": "function"
    },
    {
      "inputs": [],
      "name": "UPGRADER_ROLE",
      "outputs": [
        {
          "internalType": "bytes32",
          "name": "",
          "type": "bytes32"
        }
      ],
      "stateMutability": "view",
      "type": "function"
    },
    {
      "inputs": [],
      "name": "URI_SETTER_ROLE",
      "outputs": [
        {
          "internalType": "bytes32",
          "name": "",
          "type": "bytes32"
        }
      ],
      "stateMutability": "view",
      "type": "function"
    },
    {
      "inputs": [],
      "name": "USER_MANAGER_ROLE",
      "outputs": [
        {
          "internalType": "bytes32",
          "name": "",
          "type": "bytes32"
        }
      ],
      "stateMutability": "view",
      "type": "function"
    },
    {
      "inputs": [],
      "name": "VERIFIER_ROLE",
      "outputs": [
        {
          "internalType": "bytes32",
          "name": "",
          "type": "bytes32"
        }
      ],
      "stateMutability": "view",
      "type": "function"
    },
    {
      "inputs": [],
      "name": "_badgeStore",
      "outputs": [
        {
          "internalType": "contract TheBadgeStore",
          "name": "",
          "type": "address"
        }
      ],
      "stateMutability": "view",
      "type": "function"
    },
    {
      "inputs": [
        {
          "internalType": "address",
          "name": "account",
          "type": "address"
        },
        {
          "internalType": "uint256",
          "name": "badgeId",
          "type": "uint256"
        }
      ],
      "name": "balanceOf",
      "outputs": [
        {
          "internalType": "uint256",
          "name": "",
          "type": "uint256"
        }
      ],
      "stateMutability": "view",
      "type": "function"
    },
    {
      "inputs": [
        {
          "internalType": "address",
          "name": "account",
          "type": "address"
        },
        {
          "internalType": "uint256",
          "name": "badgeModelId",
          "type": "uint256"
        }
      ],
      "name": "balanceOfBadgeModel",
      "outputs": [
        {
          "internalType": "uint256",
          "name": "",
          "type": "uint256"
        }
      ],
      "stateMutability": "view",
      "type": "function"
    },
    {
      "inputs": [
        {
          "internalType": "address[]",
          "name": "accounts",
          "type": "address[]"
        },
        {
          "internalType": "uint256[]",
          "name": "ids",
          "type": "uint256[]"
        }
      ],
      "name": "balanceOfBatch",
      "outputs": [
        {
          "internalType": "uint256[]",
          "name": "",
          "type": "uint256[]"
        }
      ],
      "stateMutability": "view",
      "type": "function"
    },
    {
      "inputs": [
        {
          "internalType": "uint256",
          "name": "badgeId",
          "type": "uint256"
        },
        {
          "internalType": "bytes",
          "name": "data",
          "type": "bytes"
        }
      ],
      "name": "challenge",
      "outputs": [],
      "stateMutability": "payable",
      "type": "function"
    },
    {
      "inputs": [
        {
          "internalType": "uint256",
          "name": "badgeId",
          "type": "uint256"
        },
        {
          "internalType": "bytes",
          "name": "data",
          "type": "bytes"
        }
      ],
      "name": "claim",
      "outputs": [],
      "stateMutability": "nonpayable",
      "type": "function"
    },
    {
      "inputs": [
        {
          "internalType": "uint256",
          "name": "badgeId",
          "type": "uint256"
        }
      ],
      "name": "getChallengeDepositValue",
      "outputs": [
        {
          "internalType": "uint256",
          "name": "",
          "type": "uint256"
        }
      ],
      "stateMutability": "view",
      "type": "function"
    },
    {
      "inputs": [
        {
          "internalType": "uint256",
          "name": "badgeId",
          "type": "uint256"
        }
      ],
      "name": "getRemovalDepositValue",
      "outputs": [
        {
          "internalType": "uint256",
          "name": "",
          "type": "uint256"
        }
      ],
      "stateMutability": "view",
      "type": "function"
    },
    {
      "inputs": [
        {
          "internalType": "bytes32",
          "name": "role",
          "type": "bytes32"
        }
      ],
      "name": "getRoleAdmin",
      "outputs": [
        {
          "internalType": "bytes32",
          "name": "",
          "type": "bytes32"
        }
      ],
      "stateMutability": "view",
      "type": "function"
    },
    {
      "inputs": [
        {
          "internalType": "bytes32",
          "name": "role",
          "type": "bytes32"
        },
        {
          "internalType": "address",
          "name": "account",
          "type": "address"
        }
      ],
      "name": "grantRole",
      "outputs": [],
      "stateMutability": "nonpayable",
      "type": "function"
    },
    {
      "inputs": [
        {
          "internalType": "bytes32",
          "name": "role",
          "type": "bytes32"
        },
        {
          "internalType": "address",
          "name": "account",
          "type": "address"
        }
      ],
      "name": "hasRole",
      "outputs": [
        {
          "internalType": "bool",
          "name": "",
          "type": "bool"
        }
      ],
      "stateMutability": "view",
      "type": "function"
    },
    {
      "inputs": [
        {
          "internalType": "address",
          "name": "admin",
          "type": "address"
        },
        {
          "internalType": "address",
          "name": "badgeStore",
          "type": "address"
        }
      ],
      "name": "initialize",
      "outputs": [],
      "stateMutability": "nonpayable",
      "type": "function"
    },
    {
      "inputs": [
        {
          "internalType": "address",
          "name": "account",
          "type": "address"
        },
        {
          "internalType": "address",
          "name": "operator",
          "type": "address"
        }
      ],
      "name": "isApprovedForAll",
      "outputs": [
        {
          "internalType": "bool",
          "name": "",
          "type": "bool"
        }
      ],
      "stateMutability": "view",
      "type": "function"
    },
    {
      "inputs": [
        {
          "internalType": "uint256",
          "name": "badgeId",
          "type": "uint256"
        }
      ],
      "name": "isExpired",
      "outputs": [
        {
          "internalType": "bool",
          "name": "",
          "type": "bool"
        }
      ],
      "stateMutability": "view",
      "type": "function"
    },
    {
      "inputs": [
        {
          "internalType": "uint256",
          "name": "badgeModelId",
          "type": "uint256"
        },
        {
          "internalType": "address",
          "name": "account",
          "type": "address"
        },
        {
          "internalType": "string",
          "name": "tokenURI",
          "type": "string"
        },
        {
          "internalType": "bytes",
          "name": "data",
          "type": "bytes"
        }
      ],
      "name": "mint",
      "outputs": [],
      "stateMutability": "payable",
      "type": "function"
    },
    {
      "inputs": [
        {
          "internalType": "uint256",
          "name": "badgeModelId",
          "type": "uint256"
        }
      ],
      "name": "mintValue",
      "outputs": [
        {
          "internalType": "uint256",
          "name": "",
          "type": "uint256"
        }
      ],
      "stateMutability": "view",
      "type": "function"
    },
    {
      "inputs": [],
      "name": "name",
      "outputs": [
        {
          "internalType": "string",
          "name": "",
          "type": "string"
        }
      ],
      "stateMutability": "view",
      "type": "function"
    },
    {
      "inputs": [],
      "name": "pause",
      "outputs": [],
      "stateMutability": "nonpayable",
      "type": "function"
    },
    {
      "inputs": [],
      "name": "paused",
      "outputs": [
        {
          "internalType": "bool",
          "name": "",
          "type": "bool"
        }
      ],
      "stateMutability": "view",
      "type": "function"
    },
    {
      "inputs": [],
      "name": "proxiableUUID",
      "outputs": [
        {
          "internalType": "bytes32",
          "name": "",
          "type": "bytes32"
        }
      ],
      "stateMutability": "view",
      "type": "function"
    },
    {
      "inputs": [
        {
          "internalType": "uint256",
          "name": "badgeId",
          "type": "uint256"
        },
        {
          "internalType": "bytes",
          "name": "data",
          "type": "bytes"
        }
      ],
      "name": "removeItem",
      "outputs": [],
      "stateMutability": "payable",
      "type": "function"
    },
    {
      "inputs": [
        {
          "internalType": "bytes32",
          "name": "role",
          "type": "bytes32"
        },
        {
          "internalType": "address",
          "name": "account",
          "type": "address"
        }
      ],
      "name": "renounceRole",
      "outputs": [],
      "stateMutability": "nonpayable",
      "type": "function"
    },
    {
      "inputs": [
        {
          "internalType": "bytes32",
          "name": "role",
          "type": "bytes32"
        },
        {
          "internalType": "address",
          "name": "account",
          "type": "address"
        }
      ],
      "name": "revokeRole",
      "outputs": [],
      "stateMutability": "nonpayable",
      "type": "function"
    },
    {
      "inputs": [
        {
          "internalType": "address",
          "name": "from",
          "type": "address"
        },
        {
          "internalType": "address",
          "name": "to",
          "type": "address"
        },
        {
          "internalType": "uint256[]",
          "name": "ids",
          "type": "uint256[]"
        },
        {
          "internalType": "uint256[]",
          "name": "amounts",
          "type": "uint256[]"
        },
        {
          "internalType": "bytes",
          "name": "data",
          "type": "bytes"
        }
      ],
      "name": "safeBatchTransferFrom",
      "outputs": [],
      "stateMutability": "nonpayable",
      "type": "function"
    },
    {
      "inputs": [
        {
          "internalType": "address",
          "name": "from",
          "type": "address"
        },
        {
          "internalType": "address",
          "name": "to",
          "type": "address"
        },
        {
          "internalType": "uint256",
          "name": "id",
          "type": "uint256"
        },
        {
          "internalType": "uint256",
          "name": "amount",
          "type": "uint256"
        },
        {
          "internalType": "bytes",
          "name": "data",
          "type": "bytes"
        }
      ],
      "name": "safeTransferFrom",
      "outputs": [],
      "stateMutability": "nonpayable",
      "type": "function"
    },
    {
      "inputs": [
        {
          "internalType": "address",
          "name": "operator",
          "type": "address"
        },
        {
          "internalType": "bool",
          "name": "approved",
          "type": "bool"
        }
      ],
      "name": "setApprovalForAll",
      "outputs": [],
      "stateMutability": "nonpayable",
      "type": "function"
    },
    {
      "inputs": [
        {
          "internalType": "uint256",
          "name": "badgeId",
          "type": "uint256"
        },
        {
          "internalType": "bytes",
          "name": "data",
          "type": "bytes"
        }
      ],
      "name": "submitEvidence",
      "outputs": [],
      "stateMutability": "nonpayable",
      "type": "function"
    },
    {
      "inputs": [
        {
          "internalType": "bytes4",
          "name": "interfaceId",
          "type": "bytes4"
        }
      ],
      "name": "supportsInterface",
      "outputs": [
        {
          "internalType": "bool",
          "name": "",
          "type": "bool"
        }
      ],
      "stateMutability": "view",
      "type": "function"
    },
    {
      "inputs": [],
      "name": "symbol",
      "outputs": [
        {
          "internalType": "string",
          "name": "",
          "type": "string"
        }
      ],
      "stateMutability": "view",
      "type": "function"
    },
    {
      "inputs": [],
      "name": "unpause",
      "outputs": [],
      "stateMutability": "nonpayable",
      "type": "function"
    },
    {
      "inputs": [
        {
          "internalType": "uint256",
          "name": "_createBadgeModelValue",
          "type": "uint256"
        }
      ],
      "name": "updateCreateBadgeModelProtocolFee",
      "outputs": [],
      "stateMutability": "nonpayable",
      "type": "function"
    },
    {
      "inputs": [
        {
          "internalType": "uint256",
          "name": "_mintBadgeDefaultFee",
          "type": "uint256"
        }
      ],
      "name": "updateMintBadgeDefaultProtocolFee",
      "outputs": [],
      "stateMutability": "nonpayable",
      "type": "function"
    },
    {
      "inputs": [
        {
          "internalType": "uint256",
          "name": "_registerCreatorValue",
          "type": "uint256"
        }
      ],
      "name": "updateRegisterCreatorProtocolFee",
      "outputs": [],
      "stateMutability": "nonpayable",
      "type": "function"
    },
    {
      "inputs": [
        {
          "internalType": "address",
          "name": "newImplementation",
          "type": "address"
        }
      ],
      "name": "upgradeTo",
      "outputs": [],
      "stateMutability": "nonpayable",
      "type": "function"
    },
    {
      "inputs": [
        {
          "internalType": "address",
          "name": "newImplementation",
          "type": "address"
        },
        {
          "internalType": "bytes",
          "name": "data",
          "type": "bytes"
        }
      ],
      "name": "upgradeToAndCall",
      "outputs": [],
      "stateMutability": "payable",
      "type": "function"
    },
    {
      "inputs": [
        {
          "internalType": "uint256",
          "name": "badgeId",
          "type": "uint256"
        }
      ],
      "name": "uri",
      "outputs": [
        {
          "internalType": "string",
          "name": "",
          "type": "string"
        }
      ],
      "stateMutability": "view",
      "type": "function"
    },
    {
      "stateMutability": "payable",
      "type": "receive"
    }
  ],
  "bytecode": "0x60a0604052306080523480156200001557600080fd5b506200002062000026565b620000e7565b600054610100900460ff1615620000935760405162461bcd60e51b815260206004820152602760248201527f496e697469616c697a61626c653a20636f6e747261637420697320696e697469604482015266616c697a696e6760c81b606482015260840160405180910390fd5b60005460ff90811614620000e5576000805460ff191660ff9081179091556040519081527f7f26b83ff96e1f2b6a682f133852f6798a09c465da95921460cefb38474024989060200160405180910390a15b565b6080516152a46200011f60003960008181610bdb01528181610c1b015281816116010152818161164101526116b901526152a46000f3fe60806040526004361061021f5760003560e01c80638456cb5911610124578063d547741f116100a6578063d547741f14610633578063d7deba1514610653578063d9548e5314610673578063e181865114610693578063e63ab1e9146106b3578063e7705db6146106d5578063e985e9c514610709578063f1fe717e14610752578063f242432a14610772578063f72c0d8b14610792578063fc5f18d3146107b457600080fd5b80638456cb591461050757806391d148541461051c57806393c7a71b1461053c57806395d89b411461055c5780639faf715814610571578063a03aafbf14610584578063a217fddf14610597578063a22cb465146105ac578063a41e35c3146105cc578063c1d1884014610600578063c5a3c7ca1461061357600080fd5b806338926b6d116101ad57806338926b6d146103b15780633f4ba83a146103d157806346c45758146103e6578063485cc955146104065780634e1273f4146104265780634f1ef2861461045357806352d1902d146104665780635c975abb1461047b578063632f7c83146104935780637eb7f176146104b35780637f345710146104d357600080fd5b8062fdd58e1461022b57806301ffc9a71461025e57806306fdde031461028e5780630e89341c146102b057806319b50c2a146102d0578063248a9ca3146102fe5780632eb2c2d61461032f5780632f2ff15d1461035157806336568abe146103715780633659cfe61461039157600080fd5b3661022657005b600080fd5b34801561023757600080fd5b5061024b610246366004613f90565b6107e8565b6040519081526020015b60405180910390f35b34801561026a57600080fd5b5061027e610279366004613fd2565b610a2e565b6040519015158152602001610255565b34801561029a57600080fd5b506102a3610a39565b604051610255919061403f565b3480156102bc57600080fd5b506102a36102cb366004614052565b610ac8565b3480156102dc57600080fd5b50610191546102f1906001600160a01b031681565b604051610255919061406b565b34801561030a57600080fd5b5061024b610319366004614052565b600090815261015f602052604090206001015490565b34801561033b57600080fd5b5061034f61034a366004614230565b610ad3565b005b34801561035d57600080fd5b5061034f61036c3660046142dd565b610b28565b34801561037d57600080fd5b5061034f61038c3660046142dd565b610b53565b34801561039d57600080fd5b5061034f6103ac36600461430d565b610bd1565b3480156103bd57600080fd5b5061034f6103cc36600461432a565b610c99565b3480156103dd57600080fd5b5061034f611005565b3480156103f257600080fd5b5061024b610401366004613f90565b611025565b34801561041257600080fd5b5061034f6104213660046143a5565b611281565b34801561043257600080fd5b506104466104413660046143d3565b6114ce565b60405161025591906144da565b61034f6104613660046144ed565b6115f7565b34801561047257600080fd5b5061024b6116ac565b34801561048757600080fd5b5060c95460ff1661027e565b34801561049f57600080fd5b5061024b6104ae366004614052565b61175b565b3480156104bf57600080fd5b5061024b6104ce366004614052565b6118fc565b3480156104df57600080fd5b5061024b7f7804d923f43a17d325d77e781528e0793b2edd9890ab45fc64efd7b4b427744c81565b34801561051357600080fd5b5061034f611a75565b34801561052857600080fd5b5061027e6105373660046142dd565b611a95565b34801561054857600080fd5b5061034f61055736600461432a565b611ac1565b34801561056857600080fd5b506102a3611c30565b61034f61057f36600461432a565b611c3e565b61034f61059236600461432a565b611daf565b3480156105a357600080fd5b5061024b600081565b3480156105b857600080fd5b5061034f6105c7366004614540565b611ee5565b3480156105d857600080fd5b5061024b7fcbaaf41b181bb6e269c490e876a7c97711b57e21dd8e5528423cf57579726b3581565b61034f61060e36600461456e565b611ef0565b34801561061f57600080fd5b5061034f61062e366004614052565b612527565b34801561063f57600080fd5b5061034f61064e3660046142dd565b6125bf565b34801561065f57600080fd5b5061024b61066e366004614052565b6125e5565b34801561067f57600080fd5b5061027e61068e366004614052565b612717565b34801561069f57600080fd5b5061034f6106ae366004614052565b6127d6565b3480156106bf57600080fd5b5061024b60008051602061522883398151915281565b3480156106e157600080fd5b5061024b7f0ce23c3e399818cfee81a7ab0880f714e53d7672b08df0fa62f2843416e1ea0981565b34801561071557600080fd5b5061027e6107243660046143a5565b6001600160a01b03918216600090815260666020908152604080832093909416825291909152205460ff1690565b34801561075e57600080fd5b5061034f61076d366004614052565b612813565b34801561077e57600080fd5b5061034f61078d366004614604565b612850565b34801561079e57600080fd5b5061024b6000805160206151e883398151915281565b3480156107c057600080fd5b5061024b7f11a8cb5a02bd6c42679835e867ef2118ba78f088f8300511420c6603c21d9c7881565b610191546040516346c1c31160e11b81526004810183905260009182916001600160a01b0390911690638d83862290602401608060405180830381865afa158015610837573d6000803e3d6000fd5b505050506040513d601f19601f8201168201806040525081019061085b9190614687565b606081015190915015806108855750836001600160a01b031681602001516001600160a01b031614155b15610894576000915050610a28565b61089d83612717565b15156001036108b0576000915050610a28565b61019154815160405163f2be2c8560e01b815260048101919091526000916001600160a01b03169063f2be2c8590602401600060405180830381865afa1580156108fe573d6000803e3d6000fd5b505050506040513d6000823e601f3d908101601f191682016040526109269190810190614748565b610191546020820151604051631c2e21b960e11b81529293506000926001600160a01b039092169163385c4372916109609160040161403f565b606060405180830381865afa15801561097d573d6000803e3d6000fd5b505050506040513d601f19601f820116820180604052508101906109a1919061482a565b8051604051631174806160e11b815260048101889052919250906001600160a01b038216906322e900c290602401602060405180830381865afa1580156109ec573d6000803e3d6000fd5b505050506040513d601f19601f82011682018060405250810190610a10919061489b565b610a1b576000610a1e565b60015b60ff169450505050505b92915050565b6000610a2882612895565b6101928054610a47906148b8565b80601f0160208091040260200160405190810160405280929190818152602001828054610a73906148b8565b8015610ac05780601f10610a9557610100808354040283529160200191610ac0565b820191906000526020600020905b815481529060010190602001808311610aa357829003601f168201915b505050505081565b6060610a28826128ba565b6001600160a01b038516331480610aef5750610aef8533610724565b610b145760405162461bcd60e51b8152600401610b0b906148f2565b60405180910390fd5b610b218585858585612999565b5050505050565b600082815261015f6020526040902060010154610b4481612b87565b610b4e8383612b91565b505050565b6001600160a01b0381163314610bc35760405162461bcd60e51b815260206004820152602f60248201527f416363657373436f6e74726f6c3a2063616e206f6e6c792072656e6f756e636560448201526e103937b632b9903337b91039b2b63360891b6064820152608401610b0b565b610bcd8282612c18565b5050565b6001600160a01b037f0000000000000000000000000000000000000000000000000000000000000000163003610c195760405162461bcd60e51b8152600401610b0b90614940565b7f00000000000000000000000000000000000000000000000000000000000000006001600160a01b0316610c4b612c80565b6001600160a01b031614610c715760405162461bcd60e51b8152600401610b0b9061498c565b610c7a81612c9c565b60408051600080825260208201909252610c9691839190612cb4565b50565b6000610ca484612e1f565b6101915460405163f2be2c8560e01b8152600481018390529192506000916001600160a01b039091169063f2be2c8590602401600060405180830381865afa158015610cf4573d6000803e3d6000fd5b505050506040513d6000823e601f3d908101601f19168201604052610d1c9190810190614748565b610191546020820151604051631c2e21b960e11b81529293506000926001600160a01b039092169163385c437291610d569160040161403f565b606060405180830381865afa158015610d73573d6000803e3d6000fd5b505050506040513d601f19601f82011682018060405250810190610d97919061482a565b610191546040516346c1c31160e11b8152600481018990529192506000916001600160a01b0390911690638d83862290602401608060405180830381865afa158015610de7573d6000803e3d6000fd5b505050506040513d601f19601f82011682018060405250810190610e0b9190614687565b82516060820151919250901515600003610e3857604051632edd9d0f60e21b815260040160405180910390fd5b604051631abe85dd60e21b81526001600160a01b03821690636afa177490610e6a908b908b908b903390600401614a01565b602060405180830381865afa158015610e87573d6000803e3d6000fd5b505050506040513d601f19601f82011682018060405250810190610eab919061489b565b1515600003610ecd57604051632edd9d0f60e21b815260040160405180910390fd5b6040516338926b6d60e01b81526000906001600160a01b038316906338926b6d90610f00908c908c908c90600401614a34565b6020604051808303816000875af1158015610f1f573d6000803e3d6000fd5b505050506040513d601f19601f82011682018060405250810190610f439190614a4e565b610191548551604051630a5f1ec560e01b8152600481018d90526001600160a01b03918216602482015281841660448201529293501690630a5f1ec590606401600060405180830381600087803b158015610f9d57600080fd5b505af1158015610fb1573d6000803e3d6000fd5b50505050806001600160a01b031684600001516001600160a01b03168a7fd201fb416d8b5e50c9066521ecfc94d1821b6139fc0e7b39b3c680262c0fed9860405160405180910390a4505050505050505050565b60008051602061522883398151915261101d81612b87565b610c96612f65565b610191546040516304239ea560e11b815260009182916001600160a01b03909116906308473d4a9061105d9086908890600401614a6b565b600060405180830381865afa15801561107a573d6000803e3d6000fd5b505050506040513d6000823e601f3d908101601f191682016040526110a29190810190614a82565b905080516000036110b7576000915050610a28565b6101915460405163f2be2c8560e01b8152600481018590526000916001600160a01b03169063f2be2c8590602401600060405180830381865afa158015611102573d6000803e3d6000fd5b505050506040513d6000823e601f3d908101601f1916820160405261112a9190810190614748565b610191546020820151604051631c2e21b960e11b81529293506000926001600160a01b039092169163385c4372916111649160040161403f565b606060405180830381865afa158015611181573d6000803e3d6000fd5b505050506040513d601f19601f820116820180604052508101906111a5919061482a565b80519091506000805b85518110156112755760008682815181106111cb576111cb614b1d565b602002602001015190506111de81612717565b15801561124f5750604051631174806160e11b8152600481018290526001600160a01b038516906322e900c290602401602060405180830381865afa15801561122b573d6000803e3d6000fd5b505050506040513d601f19601f8201168201806040525081019061124f919061489b565b15611262578261125e81614b49565b9350505b508061126d81614b49565b9150506111ae565b50979650505050505050565b600054610100900460ff16158080156112a15750600054600160ff909116105b806112c257506112b030612fb1565b1580156112c2575060005460ff166001145b6113255760405162461bcd60e51b815260206004820152602e60248201527f496e697469616c697a61626c653a20636f6e747261637420697320616c72656160448201526d191e481a5b9a5d1a585b1a5e995960921b6064820152608401610b0b565b6000805460ff191660011790558015611348576000805461ff0019166101001790555b61136060405180602001604052806000815250612fc0565b611368612ff0565b611370613019565b611378612ff0565b611383600084612b91565b61139b60008051602061522883398151915284612b91565b6113b36000805160206151e883398151915284612b91565b6113dd7f0ce23c3e399818cfee81a7ab0880f714e53d7672b08df0fa62f2843416e1ea0984612b91565b61019180546001600160a01b0319166001600160a01b038416179055604080518082019091526008815267546865426164676560c01b6020820152610192906114269082614ba8565b506040805180820190915260038152621091d160ea1b60208201526101939061144f9082614ba8565b506040516001600160a01b038416907f36b1453565f45af7b509b59d5e2eac8f1948ea9e3e193db6663b4101afb6382c90600090a28015610b4e576000805461ff0019169055604051600181527f7f26b83ff96e1f2b6a682f133852f6798a09c465da95921460cefb38474024989060200160405180910390a1505050565b606081518351146115335760405162461bcd60e51b815260206004820152602960248201527f455243313135353a206163636f756e747320616e6420696473206c656e677468604482015268040dad2e6dac2e8c6d60bb1b6064820152608401610b0b565b600083516001600160401b0381111561154e5761154e61407f565b604051908082528060200260200182016040528015611577578160200160208202803683370190505b50905060005b84518110156115ef576115c285828151811061159b5761159b614b1d565b60200260200101518583815181106115b5576115b5614b1d565b60200260200101516107e8565b8282815181106115d4576115d4614b1d565b60209081029190910101526115e881614b49565b905061157d565b509392505050565b6001600160a01b037f000000000000000000000000000000000000000000000000000000000000000016300361163f5760405162461bcd60e51b8152600401610b0b90614940565b7f00000000000000000000000000000000000000000000000000000000000000006001600160a01b0316611671612c80565b6001600160a01b0316146116975760405162461bcd60e51b8152600401610b0b9061498c565b6116a082612c9c565b610bcd82826001612cb4565b6000306001600160a01b037f000000000000000000000000000000000000000000000000000000000000000016146117475760405162461bcd60e51b815260206004820152603860248201527f555550535570677261646561626c653a206d757374206e6f742062652063616c6044820152771b1959081d1a1c9bdd59da0819195b1959d85d1958d85b1b60421b6064820152608401610b0b565b506000805160206152088339815191525b90565b6101915460405163f2be2c8560e01b81526004810183905260009182916001600160a01b039091169063f2be2c8590602401600060405180830381865afa1580156117aa573d6000803e3d6000fd5b505050506040513d6000823e601f3d908101601f191682016040526117d29190810190614748565b80519091506001600160a01b03166117fd576040516385a6706360e01b815260040160405180910390fd5b610191546020820151604051631c2e21b960e11b81526000926001600160a01b03169163385c437291611833919060040161403f565b606060405180830381865afa158015611850573d6000803e3d6000fd5b505050506040513d601f19601f82011682018060405250810190611874919061482a565b8051606084015160405163632f7c8360e01b81526004810188905292935090916001600160a01b0383169063632f7c8390602401602060405180830381865afa1580156118c5573d6000803e3d6000fd5b505050506040513d601f19601f820116820180604052508101906118e99190614c67565b6118f39190614c80565b95945050505050565b60008061190883612e1f565b6101915460405163f2be2c8560e01b8152600481018390529192506000916001600160a01b039091169063f2be2c8590602401600060405180830381865afa158015611958573d6000803e3d6000fd5b505050506040513d6000823e601f3d908101601f191682016040526119809190810190614748565b610191546020820151604051631c2e21b960e11b81529293506000926001600160a01b039092169163385c4372916119ba9160040161403f565b606060405180830381865afa1580156119d7573d6000803e3d6000fd5b505050506040513d601f19601f820116820180604052508101906119fb919061482a565b8051604051633f5bf8bb60e11b815260048101889052919250906001600160a01b03821690637eb7f176906024015b602060405180830381865afa158015611a47573d6000803e3d6000fd5b505050506040513d601f19601f82011682018060405250810190611a6b9190614c67565b9695505050505050565b600080516020615228833981519152611a8d81612b87565b610c96613048565b600091825261015f602090815260408084206001600160a01b0393909316845291905290205460ff1690565b6000611acc84612e1f565b6101915460405163f2be2c8560e01b8152600481018390529192506000916001600160a01b039091169063f2be2c8590602401600060405180830381865afa158015611b1c573d6000803e3d6000fd5b505050506040513d6000823e601f3d908101601f19168201604052611b449190810190614748565b610191546020820151604051631c2e21b960e11b81529293506000926001600160a01b039092169163385c437291611b7e9160040161403f565b606060405180830381865afa158015611b9b573d6000803e3d6000fd5b505050506040513d601f19601f82011682018060405250810190611bbf919061482a565b80516040516393c7a71b60e01b8152919250906001600160a01b038216906393c7a71b90611bf5908a908a908a90600401614a34565b600060405180830381600087803b158015611c0f57600080fd5b505af1158015611c23573d6000803e3d6000fd5b5050505050505050505050565b6101938054610a47906148b8565b6000611c4984612e1f565b6101915460405163f2be2c8560e01b8152600481018390529192506000916001600160a01b039091169063f2be2c8590602401600060405180830381865afa158015611c99573d6000803e3d6000fd5b505050506040513d6000823e601f3d908101601f19168201604052611cc19190810190614748565b610191546020820151604051631c2e21b960e11b81529293506000926001600160a01b039092169163385c437291611cfb9160040161403f565b606060405180830381865afa158015611d18573d6000803e3d6000fd5b505050506040513d601f19601f82011682018060405250810190611d3c919061482a565b80516040516313f5ee2b60e31b8152919250906001600160a01b03821690639faf7158903490611d74908b908b908b90600401614a34565b6000604051808303818588803b158015611d8d57600080fd5b505af1158015611da1573d6000803e3d6000fd5b505050505050505050505050565b6000611dba84612e1f565b6101915460405163f2be2c8560e01b8152600481018390529192506000916001600160a01b039091169063f2be2c8590602401600060405180830381865afa158015611e0a573d6000803e3d6000fd5b505050506040513d6000823e601f3d908101601f19168201604052611e329190810190614748565b610191546020820151604051631c2e21b960e11b81529293506000926001600160a01b039092169163385c437291611e6c9160040161403f565b606060405180830381865afa158015611e89573d6000803e3d6000fd5b505050506040513d601f19601f82011682018060405250810190611ead919061482a565b805160405163a03aafbf60e01b8152919250906001600160a01b0382169063a03aafbf903490611d74908b908b908b90600401614a34565b610bcd338383613085565b6101915460405163f2be2c8560e01b81526004810186905285916000916001600160a01b039091169063f2be2c8590602401600060405180830381865afa158015611f3f573d6000803e3d6000fd5b505050506040513d6000823e601f3d908101601f19168201604052611f679190810190614748565b610191546020820151604051631c2e21b960e11b81529293506000926001600160a01b039092169163385c437291611fa19160040161403f565b606060405180830381865afa158015611fbe573d6000803e3d6000fd5b505050506040513d601f19601f82011682018060405250810190611fe2919061482a565b80518351919250906001600160a01b0316612010576040516385a6706360e01b815260040160405180910390fd5b82604001511561203357604051635d71fd6f60e01b815260040160405180910390fd5b81602001511561205657604051631bd063c360e01b815260040160405180910390fd5b610191548351604051636f77926b60e01b81526000926001600160a01b031691636f77926b91612089919060040161406b565b600060405180830381865afa1580156120a6573d6000803e3d6000fd5b505050506040513d6000823e601f3d908101601f191682016040526120ce9190810190614c93565b606081015190915015156001036120f85760405163a800bb9d60e01b815260040160405180910390fd5b888880888a6121068561175b565b341015612126576040516393fda7e360e01b815260040160405180910390fd5b6101915460405163f2be2c8560e01b8152600481018790526000916001600160a01b03169063f2be2c8590602401600060405180830381865afa158015612171573d6000803e3d6000fd5b505050506040513d6000823e601f3d908101601f191682016040526121999190810190614748565b6060810151909150156121af576121af8661309e565b610191546020820151604051631c2e21b960e11b81526000926001600160a01b03169163385c4372916121e5919060040161403f565b606060405180830381865afa158015612202573d6000803e3d6000fd5b505050506040513d601f19601f82011682018060405250810190612226919061482a565b80519091506001600160a01b0387166122ca57604051631007fbe560e21b81526001600160a01b0382169063401fef9490612267908b908b90600401614a6b565b602060405180830381865afa158015612284573d6000803e3d6000fd5b505050506040513d601f19601f820116820180604052508101906122a8919061489b565b6122c557604051634dae13df60e01b815260040160405180910390fd5b815195505b61019154604080516308e5bf2160e01b815290516000926001600160a01b0316916308e5bf219160048083019260209291908290030181865afa158015612315573d6000803e3d6000fd5b505050506040513d601f19601f820116820180604052508101906123399190614c67565b90506000826001600160a01b031663f6563d5f86606001513461235c9190614d5c565b338d868c8e6040518763ffffffff1660e01b8152600401612381959493929190614d6f565b60206040518083038185885af115801561239f573d6000803e3d6000fd5b50505050506040513d601f19601f820116820180604052508101906123c49190614c67565b90506123d08287613345565b6123f78883600160405180604001604052806002815260200161060f60f31b8152506133a2565b600085608001516000146124195760808601516124149042614c80565b61241c565b60005b604080516080810182528d81526001600160a01b038c811660208301908152828401858152600160608501908152610191549551634085b52760e01b8152600481018b9052855160248201529251841660448401529051606483015251151560848201529394509092911690634085b5279060a401600060405180830381600087803b1580156124ab57600080fd5b505af11580156124bf573d6000803e3d6000fd5b50508751604080516001600160a01b03928316815260208101889052918e1693508792508f917f186b125f639893ac3dcb02d857d0fd29319e8f764fd26f4a77310e8c678fbbd0910160405180910390a4505050505050505050505050505050505050505050565b600061253281612b87565b610191546040516362d1e3e560e11b8152600481018490526001600160a01b039091169063c5a3c7ca906024015b600060405180830381600087803b15801561257a57600080fd5b505af115801561258e573d6000803e3d6000fd5b50506040517f810f1720fbc34c56d171f89315ad21708648fd17424c27b88fa208409845aa77925060009150a15050565b600082815261015f60205260409020600101546125db81612b87565b610b4e8383612c18565b6000806125f183612e1f565b6101915460405163f2be2c8560e01b8152600481018390529192506000916001600160a01b039091169063f2be2c8590602401600060405180830381865afa158015612641573d6000803e3d6000fd5b505050506040513d6000823e601f3d908101601f191682016040526126699190810190614748565b610191546020820151604051631c2e21b960e11b81529293506000926001600160a01b039092169163385c4372916126a39160040161403f565b606060405180830381865afa1580156126c0573d6000803e3d6000fd5b505050506040513d601f19601f820116820180604052508101906126e4919061482a565b805160405163d7deba1560e01b815260048101889052919250906001600160a01b0382169063d7deba1590602401611a2a565b610191546040516346c1c31160e11b81526004810183905260009182916001600160a01b0390911690638d83862290602401608060405180830381865afa158015612766573d6000803e3d6000fd5b505050506040513d601f19601f8201168201806040525081019061278a9190614687565b606081015190915015156000036127a45750600092915050565b80604001516000036127b95750600092915050565b42816040015111156127cc5760006127cf565b60015b9392505050565b60006127e181612b87565b6101915460405163e181865160e01b8152600481018490526001600160a01b039091169063e181865190602401612560565b600061281e81612b87565b610191546040516378ff38bf60e11b8152600481018490526001600160a01b039091169063f1fe717e90602401612560565b6001600160a01b03851633148061286c575061286c8533610724565b6128885760405162461bcd60e51b8152600401610b0b906148f2565b610b2185858585856134c7565b60006001600160e01b03198216637965db0b60e01b1480610a285750610a2882613603565b6000818152609860205260408120805460609291906128d8906148b8565b80601f0160208091040260200160405190810160405280929190818152602001828054612904906148b8565b80156129515780601f1061292657610100808354040283529160200191612951565b820191906000526020600020905b81548152906001019060200180831161293457829003601f168201915b50505050509050600081511161296f5761296a83613653565b6127cf565b609781604051602001612983929190614db2565b6040516020818303038152906040529392505050565b81518351146129fb5760405162461bcd60e51b815260206004820152602860248201527f455243313135353a2069647320616e6420616d6f756e7473206c656e677468206044820152670dad2e6dac2e8c6d60c31b6064820152608401610b0b565b6001600160a01b038416612a215760405162461bcd60e51b8152600401610b0b90614e39565b33612a308187878787876136e7565b60005b8451811015612b19576000858281518110612a5057612a50614b1d565b602002602001015190506000858381518110612a6e57612a6e614b1d565b60209081029190910181015160008481526065835260408082206001600160a01b038e168352909352919091205490915081811015612abf5760405162461bcd60e51b8152600401610b0b90614e7e565b60008381526065602090815260408083206001600160a01b038e8116855292528083208585039055908b16825281208054849290612afe908490614c80565b9250508190555050505080612b1290614b49565b9050612a33565b50846001600160a01b0316866001600160a01b0316826001600160a01b03167f4a39dc06d4c0dbc64b70af90fd698a233a518aa5d07e595d983b8c0526c8f7fb8787604051612b69929190614ec8565b60405180910390a4612b7f8187878787876137a1565b505050505050565b610c968133613903565b612b9b8282611a95565b610bcd57600082815261015f602090815260408083206001600160a01b03851684529091529020805460ff19166001179055612bd43390565b6001600160a01b0316816001600160a01b0316837f2f8788117e7eff1d82e926ec794901d17c78024a50270940304540a733656f0d60405160405180910390a45050565b612c228282611a95565b15610bcd57600082815261015f602090815260408083206001600160a01b0385168085529252808320805460ff1916905551339285917ff6391f5c32d9c69d2a47ea670b442974b53935d1edc7fd64eb21e047a839171b9190a45050565b600080516020615208833981519152546001600160a01b031690565b6000805160206151e8833981519152610bcd81612b87565b7f4910fdfa16fed3260ed0e7147f7cc6da11a60208b5b9406d12a635614ffd91435460ff1615612ce757610b4e8361395c565b826001600160a01b03166352d1902d6040518163ffffffff1660e01b8152600401602060405180830381865afa925050508015612d41575060408051601f3d908101601f19168201909252612d3e91810190614c67565b60015b612da45760405162461bcd60e51b815260206004820152602e60248201527f45524331393637557067726164653a206e657720696d706c656d656e7461746960448201526d6f6e206973206e6f74205555505360901b6064820152608401610b0b565b6000805160206152088339815191528114612e135760405162461bcd60e51b815260206004820152602960248201527f45524331393637557067726164653a20756e737570706f727465642070726f786044820152681a58589b195555525160ba1b6064820152608401610b0b565b50610b4e8383836139f6565b610191546040516346c1c31160e11b81526004810183905260009182916001600160a01b0390911690638d83862290602401608060405180830381865afa158015612e6e573d6000803e3d6000fd5b505050506040513d601f19601f82011682018060405250810190612e929190614687565b60608101519091501515600003612ebc5760405163f97195bf60e01b815260040160405180910390fd5b61019154815160405163f2be2c8560e01b815260048101919091526000916001600160a01b03169063f2be2c8590602401600060405180830381865afa158015612f0a573d6000803e3d6000fd5b505050506040513d6000823e601f3d908101601f19168201604052612f329190810190614748565b80519091506001600160a01b0316612f5d576040516385a6706360e01b815260040160405180910390fd5b505192915050565b612f6d613a21565b60c9805460ff191690557f5db9ee0a495bf2e6ff9c91a7834c1ba4fdd244a5e8aa4e537bd38aeae4b073aa335b604051612fa7919061406b565b60405180910390a1565b6001600160a01b03163b151590565b600054610100900460ff16612fe75760405162461bcd60e51b8152600401610b0b90614eed565b610c9681613a6a565b600054610100900460ff166130175760405162461bcd60e51b8152600401610b0b90614eed565b565b600054610100900460ff166130405760405162461bcd60e51b8152600401610b0b90614eed565b613017613a9a565b613050613acd565b60c9805460ff191660011790557f62e78cea01bee320cd4e420270b5ea74000d11b0c9f74754ebdbfc544b05a258612f9a3390565b6040516305d39ac360e51b815260040160405180910390fd5b6101915460405163f2be2c8560e01b8152600481018390526000916001600160a01b03169063f2be2c8590602401600060405180830381865afa1580156130e9573d6000803e3d6000fd5b505050506040513d6000823e601f3d908101601f191682016040526131119190810190614748565b9050600061019160009054906101000a90046001600160a01b03166001600160a01b031663c415b95c6040518163ffffffff1660e01b8152600401602060405180830381865afa158015613169573d6000803e3d6000fd5b505050506040513d601f19601f8201168201806040525081019061318d9190614a4e565b905060006131a383606001518460a00151613b13565b905060008184606001516131b79190614d5c565b90506000836001600160a01b03168360405160006040518083038185875af1925050503d8060008114613206576040519150601f19603f3d011682016040523d82523d6000602084013e61320b565b606091505b5090915050801515600003613233576040516372f7724f60e01b815260040160405180910390fd5b8560006001600160a01b0386167fdf7cc5ebdb7be805a1d96fd982aba37cbf8e9169d6f34870e8d63a62cd492f643387604051613271929190614f38565b60405180910390a484516040516000916001600160a01b03169084908381818185875af1925050503d80600081146132c5576040519150601f19603f3d011682016040523d82523d6000602084013e6132ca565b606091505b50909150508015156000036132f257604051633b50281160e11b815260040160405180910390fd5b86600187600001516001600160a01b03167fdf7cc5ebdb7be805a1d96fd982aba37cbf8e9169d6f34870e8d63a62cd492f648887604051613334929190614f38565b60405180910390a450505050505050565b600082815260986020526040902061335d8282614ba8565b50817f6bb7ff708619ba0610cba295a58592e0451dee2622938c8755667688daf3529b61338984610ac8565b604051613396919061403f565b60405180910390a25050565b6001600160a01b0384166134025760405162461bcd60e51b815260206004820152602160248201527f455243313135353a206d696e7420746f20746865207a65726f206164647265736044820152607360f81b6064820152608401610b0b565b33600061340e85613b58565b9050600061341b85613b58565b905061342c836000898585896136e7565b60008681526065602090815260408083206001600160a01b038b1684529091528120805487929061345e908490614c80565b909155505060408051878152602081018790526001600160a01b03808a1692600092918716917fc3d58168c5ae7397731d063d5bbf3d657854427343f4c083240f7aacaa2d0f62910160405180910390a46134be83600089898989613ba3565b50505050505050565b6001600160a01b0384166134ed5760405162461bcd60e51b8152600401610b0b90614e39565b3360006134f985613b58565b9050600061350685613b58565b90506135168389898585896136e7565b60008681526065602090815260408083206001600160a01b038c168452909152902054858110156135595760405162461bcd60e51b8152600401610b0b90614e7e565b60008781526065602090815260408083206001600160a01b038d8116855292528083208985039055908a16825281208054889290613598908490614c80565b909155505060408051888152602081018890526001600160a01b03808b16928c821692918816917fc3d58168c5ae7397731d063d5bbf3d657854427343f4c083240f7aacaa2d0f62910160405180910390a46135f8848a8a8a8a8a613ba3565b505050505050505050565b60006001600160e01b03198216636cdb3d1360e11b148061363457506001600160e01b031982166303a24d0760e21b145b80610a2857506301ffc9a760e01b6001600160e01b0319831614610a28565b606060678054613662906148b8565b80601f016020809104026020016040519081016040528092919081815260200182805461368e906148b8565b80156136db5780601f106136b0576101008083540402835291602001916136db565b820191906000526020600020905b8154815290600101906020018083116136be57829003601f168201915b50505050509050919050565b6136ef613acd565b610191546040516301719d2b60e01b81526000916001600160a01b0316906301719d2b9061372190899060040161406b565b606060405180830381865afa15801561373e573d6000803e3d6000fd5b505050506040513d601f19601f82011682018060405250810190613762919061482a565b6040810151909150158061377e57506001600160a01b03861615155b1561379c576040516305d39ac360e51b815260040160405180910390fd5b6134be565b6137b3846001600160a01b0316612fb1565b15612b7f5760405163bc197c8160e01b81526001600160a01b0385169063bc197c81906137ec9089908990889088908890600401614f6b565b6020604051808303816000875af1925050508015613827575060408051601f3d908101601f1916820190925261382491810190614fc9565b60015b6138d357613833614fe6565b806308c379a00361386c5750613847615001565b80613852575061386e565b8060405162461bcd60e51b8152600401610b0b919061403f565b505b60405162461bcd60e51b815260206004820152603460248201527f455243313135353a207472616e7366657220746f206e6f6e2d455243313135356044820152732932b1b2b4bb32b91034b6b83632b6b2b73a32b960611b6064820152608401610b0b565b6001600160e01b0319811663bc197c8160e01b146134be5760405162461bcd60e51b8152600401610b0b9061508a565b61390d8282611a95565b610bcd5761391a81613c65565b613925836020613c77565b6040516020016139369291906150d2565b60408051601f198184030181529082905262461bcd60e51b8252610b0b9160040161403f565b61396581612fb1565b6139c75760405162461bcd60e51b815260206004820152602d60248201527f455243313936373a206e657720696d706c656d656e746174696f6e206973206e60448201526c1bdd08184818dbdb9d1c9858dd609a1b6064820152608401610b0b565b60008051602061520883398151915280546001600160a01b0319166001600160a01b0392909216919091179055565b6139ff83613e12565b600082511180613a0c5750805b15610b4e57613a1b8383613e52565b50505050565b60c95460ff166130175760405162461bcd60e51b815260206004820152601460248201527314185d5cd8589b194e881b9bdd081c185d5cd95960621b6044820152606401610b0b565b600054610100900460ff16613a915760405162461bcd60e51b8152600401610b0b90614eed565b610c9681613e77565b600054610100900460ff16613ac15760405162461bcd60e51b8152600401610b0b90614eed565b60c9805460ff19169055565b60c95460ff16156130175760405162461bcd60e51b815260206004820152601060248201526f14185d5cd8589b194e881c185d5cd95960821b6044820152606401610b0b565b6000612710613b228385615141565b1015613b4157604051633032107560e21b815260040160405180910390fd5b612710613b4e8385615141565b6127cf9190615158565b60408051600180825281830190925260609160009190602080830190803683370190505090508281600081518110613b9257613b92614b1d565b602090810291909101015292915050565b613bb5846001600160a01b0316612fb1565b15612b7f5760405163f23a6e6160e01b81526001600160a01b0385169063f23a6e6190613bee908990899088908890889060040161517a565b6020604051808303816000875af1925050508015613c29575060408051601f3d908101601f19168201909252613c2691810190614fc9565b60015b613c3557613833614fe6565b6001600160e01b0319811663f23a6e6160e01b146134be5760405162461bcd60e51b8152600401610b0b9061508a565b6060610a286001600160a01b03831660145b60606000613c86836002615141565b613c91906002614c80565b6001600160401b03811115613ca857613ca861407f565b6040519080825280601f01601f191660200182016040528015613cd2576020820181803683370190505b509050600360fc1b81600081518110613ced57613ced614b1d565b60200101906001600160f81b031916908160001a905350600f60fb1b81600181518110613d1c57613d1c614b1d565b60200101906001600160f81b031916908160001a9053506000613d40846002615141565b613d4b906001614c80565b90505b6001811115613dc3576f181899199a1a9b1b9c1cb0b131b232b360811b85600f1660108110613d7f57613d7f614b1d565b1a60f81b828281518110613d9557613d95614b1d565b60200101906001600160f81b031916908160001a90535060049490941c93613dbc816151b4565b9050613d4e565b5083156127cf5760405162461bcd60e51b815260206004820181905260248201527f537472696e67733a20686578206c656e67746820696e73756666696369656e746044820152606401610b0b565b613e1b8161395c565b6040516001600160a01b038216907fbc7cd75a20ee27fd9adebab32041f755214dbc6bffa90cc0225b39da2e5c2d3b90600090a250565b60606127cf838360405180606001604052806027815260200161524860279139613e83565b6067610bcd8282614ba8565b6060600080856001600160a01b031685604051613ea091906151cb565b600060405180830381855af49150503d8060008114613edb576040519150601f19603f3d011682016040523d82523d6000602084013e613ee0565b606091505b5091509150611a6b8683838760608315613f59578251600003613f5257613f0685612fb1565b613f525760405162461bcd60e51b815260206004820152601d60248201527f416464726573733a2063616c6c20746f206e6f6e2d636f6e74726163740000006044820152606401610b0b565b5081613f63565b613f638383613f6b565b949350505050565b8151156138525781518083602001fd5b6001600160a01b0381168114610c9657600080fd5b60008060408385031215613fa357600080fd5b8235613fae81613f7b565b946020939093013593505050565b6001600160e01b031981168114610c9657600080fd5b600060208284031215613fe457600080fd5b81356127cf81613fbc565b60005b8381101561400a578181015183820152602001613ff2565b50506000910152565b6000815180845261402b816020860160208601613fef565b601f01601f19169290920160200192915050565b6020815260006127cf6020830184614013565b60006020828403121561406457600080fd5b5035919050565b6001600160a01b0391909116815260200190565b634e487b7160e01b600052604160045260246000fd5b60a081018181106001600160401b03821117156140b4576140b461407f565b60405250565b601f8201601f191681016001600160401b03811182821017156140df576140df61407f565b6040525050565b60405161010081016001600160401b03811182821017156141095761410961407f565b60405290565b60006001600160401b038211156141285761412861407f565b5060051b60200190565b600082601f83011261414357600080fd5b813560206141508261410f565b60405161415d82826140ba565b83815260059390931b850182019282810191508684111561417d57600080fd5b8286015b848110156141985780358352918301918301614181565b509695505050505050565b60006001600160401b038211156141bc576141bc61407f565b50601f01601f191660200190565b60006141d5836141a3565b6040516141e282826140ba565b8092508481528585850111156141f757600080fd5b8484602083013760006020868301015250509392505050565b600082601f83011261422157600080fd5b6127cf838335602085016141ca565b600080600080600060a0868803121561424857600080fd5b853561425381613f7b565b9450602086013561426381613f7b565b935060408601356001600160401b038082111561427f57600080fd5b61428b89838a01614132565b945060608801359150808211156142a157600080fd5b6142ad89838a01614132565b935060808801359150808211156142c357600080fd5b506142d088828901614210565b9150509295509295909350565b600080604083850312156142f057600080fd5b82359150602083013561430281613f7b565b809150509250929050565b60006020828403121561431f57600080fd5b81356127cf81613f7b565b60008060006040848603121561433f57600080fd5b8335925060208401356001600160401b038082111561435d57600080fd5b818601915086601f83011261437157600080fd5b81358181111561438057600080fd5b87602082850101111561439257600080fd5b6020830194508093505050509250925092565b600080604083850312156143b857600080fd5b82356143c381613f7b565b9150602083013561430281613f7b565b600080604083850312156143e657600080fd5b82356001600160401b03808211156143fd57600080fd5b818501915085601f83011261441157600080fd5b8135602061441e8261410f565b60405161442b82826140ba565b83815260059390931b850182019282810191508984111561444b57600080fd5b948201945b8386101561447257853561446381613f7b565b82529482019490820190614450565b9650508601359250508082111561448857600080fd5b5061449585828601614132565b9150509250929050565b600081518084526020808501945080840160005b838110156144cf578151875295820195908201906001016144b3565b509495945050505050565b6020815260006127cf602083018461449f565b6000806040838503121561450057600080fd5b823561450b81613f7b565b915060208301356001600160401b0381111561452657600080fd5b61449585828601614210565b8015158114610c9657600080fd5b6000806040838503121561455357600080fd5b823561455e81613f7b565b9150602083013561430281614532565b6000806000806080858703121561458457600080fd5b84359350602085013561459681613f7b565b925060408501356001600160401b03808211156145b257600080fd5b818701915087601f8301126145c657600080fd5b6145d5888335602085016141ca565b935060608701359150808211156145eb57600080fd5b506145f887828801614210565b91505092959194509250565b600080600080600060a0868803121561461c57600080fd5b853561462781613f7b565b9450602086013561463781613f7b565b9350604086013592506060860135915060808601356001600160401b0381111561466057600080fd5b6142d088828901614210565b805161467781613f7b565b919050565b805161467781614532565b60006080828403121561469957600080fd5b604051608081018181106001600160401b03821117156146bb576146bb61407f565b6040528251815260208301516146d081613f7b565b60208201526040838101519082015260608301516146ed81614532565b60608201529392505050565b600082601f83011261470a57600080fd5b8151614715816141a3565b60405161472282826140ba565b82815285602084870101111561473757600080fd5b6118f3836020830160208801613fef565b60006020828403121561475a57600080fd5b81516001600160401b038082111561477157600080fd5b90830190610100828603121561478657600080fd5b61478e6140e6565b6147978361466c565b81526020830151828111156147ab57600080fd5b6147b7878286016146f9565b6020830152506147c96040840161467c565b6040820152606083015160608201526080830151608082015260a083015160a08201526147f860c0840161467c565b60c082015260e08301518281111561480f57600080fd5b61481b878286016146f9565b60e08301525095945050505050565b60006060828403121561483c57600080fd5b604051606081018181106001600160401b038211171561485e5761485e61407f565b604052825161486c81613f7b565b8152602083015161487c81614532565b6020820152604083015161488f81614532565b60408201529392505050565b6000602082840312156148ad57600080fd5b81516127cf81614532565b600181811c908216806148cc57607f821691505b6020821081036148ec57634e487b7160e01b600052602260045260246000fd5b50919050565b6020808252602e908201527f455243313135353a2063616c6c6572206973206e6f7420746f6b656e206f776e60408201526d195c881bdc88185c1c1c9bdd995960921b606082015260800190565b6020808252602c908201527f46756e6374696f6e206d7573742062652063616c6c6564207468726f7567682060408201526b19195b1959d85d1958d85b1b60a21b606082015260800190565b6020808252602c908201527f46756e6374696f6e206d7573742062652063616c6c6564207468726f7567682060408201526b6163746976652070726f787960a01b606082015260800190565b81835281816020850137506000828201602090810191909152601f909101601f19169091010190565b848152606060208201526000614a1b6060830185876149d8565b905060018060a01b038316604083015295945050505050565b8381526040602082015260006118f36040830184866149d8565b600060208284031215614a6057600080fd5b81516127cf81613f7b565b9182526001600160a01b0316602082015260400190565b60006020808385031215614a9557600080fd5b82516001600160401b03811115614aab57600080fd5b8301601f81018513614abc57600080fd5b8051614ac78161410f565b604051614ad482826140ba565b82815260059290921b8301840191848101915087831115614af457600080fd5b928401925b82841015614b1257835182529284019290840190614af9565b979650505050505050565b634e487b7160e01b600052603260045260246000fd5b634e487b7160e01b600052601160045260246000fd5b600060018201614b5b57614b5b614b33565b5060010190565b601f821115610b4e57600081815260208120601f850160051c81016020861015614b895750805b601f850160051c820191505b81811015612b7f57828155600101614b95565b81516001600160401b03811115614bc157614bc161407f565b614bd581614bcf84546148b8565b84614b62565b602080601f831160018114614c0a5760008415614bf25750858301515b600019600386901b1c1916600185901b178555612b7f565b600085815260208120601f198616915b82811015614c3957888601518255948401946001909101908401614c1a565b5085821015614c575787850151600019600388901b60f8161c191681555b5050505050600190811b01905550565b600060208284031215614c7957600080fd5b5051919050565b80820180821115610a2857610a28614b33565b600060208284031215614ca557600080fd5b81516001600160401b0380821115614cbc57600080fd5b9083019060a08286031215614cd057600080fd5b604051614cdc81614095565b825182811115614ceb57600080fd5b614cf7878286016146f9565b82525060208301519150614d0a82614532565b81602082015260408301519150614d2082614532565b81604082015260608301519150614d3682614532565b81606082015260808301519250614d4c83614532565b6080810192909252509392505050565b81810381811115610a2857610a28614b33565b600060018060a01b03808816835286602084015285604084015260a06060840152614d9d60a0840186614013565b91508084166080840152509695505050505050565b6000808454614dc0816148b8565b60018281168015614dd85760018114614ded57614e1c565b60ff1984168752821515830287019450614e1c565b8860005260208060002060005b85811015614e135781548a820152908401908201614dfa565b50505082870194505b505050508351614e30818360208801613fef565b01949350505050565b60208082526025908201527f455243313135353a207472616e7366657220746f20746865207a65726f206164604082015264647265737360d81b606082015260800190565b6020808252602a908201527f455243313135353a20696e73756666696369656e742062616c616e636520666f60408201526939103a3930b739b332b960b11b606082015260800190565b604081526000614edb604083018561449f565b82810360208401526118f3818561449f565b6020808252602b908201527f496e697469616c697a61626c653a20636f6e7472616374206973206e6f74206960408201526a6e697469616c697a696e6760a81b606082015260800190565b6001600160a01b03929092168252602082015260606040820181905260029082015261060f60f31b608082015260a00190565b6001600160a01b0386811682528516602082015260a060408201819052600090614f979083018661449f565b8281036060840152614fa9818661449f565b90508281036080840152614fbd8185614013565b98975050505050505050565b600060208284031215614fdb57600080fd5b81516127cf81613fbc565b600060033d11156117585760046000803e5060005160e01c90565b600060443d101561500f5790565b6040516003193d81016004833e81513d6001600160401b03816024840111818411171561503e57505050505090565b82850191508151818111156150565750505050505090565b843d87010160208285010111156150705750505050505090565b61507f602082860101876140ba565b509095945050505050565b60208082526028908201527f455243313135353a204552433131353552656365697665722072656a656374656040820152676420746f6b656e7360c01b606082015260800190565b76020b1b1b2b9b9a1b7b73a3937b61d1030b1b1b7bab73a1604d1b815260008351615104816017850160208801613fef565b7001034b99036b4b9b9b4b733903937b6329607d1b6017918401918201528351615135816028840160208801613fef565b01602801949350505050565b8082028115828204841417610a2857610a28614b33565b60008261517557634e487b7160e01b600052601260045260246000fd5b500490565b6001600160a01b03868116825285166020820152604081018490526060810183905260a060808201819052600090614b1290830184614013565b6000816151c3576151c3614b33565b506000190190565b600082516151dd818460208701613fef565b919091019291505056fe189ab7a9244df0848122154315af71fe140f3db0fe014031783b0946b8c9d2e3360894a13ba1a3210667c828492db98dca3e2076cc3735a920a3ca505d382bbc65d7a28e3265b37a6474929f336521b332c1681b933f6cb9f3376673440d862a416464726573733a206c6f772d6c6576656c2064656c65676174652063616c6c206661696c6564a2646970667358221220eb92ce715f93be02ed5bd04063eae39d29bfbdf6d7d67f2bd6d2d54a8d0ab33d64736f6c63430008110033",
  "linkReferences": {},
  "deployedLinkReferences": {}
}