{
  "_format": "hh-sol-artifact-1",
  "contractName": "TheBadgeModels",
  "sourceName": "src/contracts/thebadge/TheBadgeModels.sol",
  "abi": [
    {
      "inputs": [],
      "stateMutability": "nonpayable",
      "type": "constructor"
    },
    {
      "inputs": [],
      "name": "TheBadge__addBadgeModelController_alreadySet",
      "type": "error"
    },
    {
      "inputs": [],
      "name": "TheBadge__addBadgeModelController_emptyName",
      "type": "error"
    },
    {
      "inputs": [],
      "name": "TheBadge__badgeModel_badgeModelNotFound",
      "type": "error"
    },
    {
      "inputs": [],
      "name": "TheBadge__controller_controllerIsPaused",
      "type": "error"
    },
    {
      "inputs": [],
      "name": "TheBadge__controller_invalidController",
      "type": "error"
    },
    {
      "inputs": [],
      "name": "TheBadge__createBadgeModel_wrongValue",
      "type": "error"
    },
    {
      "inputs": [],
      "name": "TheBadge__method_not_supported",
      "type": "error"
    },
    {
      "inputs": [],
      "name": "TheBadge__onlyCreator_creatorIsSuspended",
      "type": "error"
    },
    {
      "inputs": [],
      "name": "TheBadge__onlyCreator_senderIsNotACreator",
      "type": "error"
    },
    {
      "inputs": [],
      "name": "TheBadge__onlyUser_userNotFound",
      "type": "error"
    },
    {
      "inputs": [],
      "name": "TheBadge__updateBadgeModel_badgeModelNotFound",
      "type": "error"
    },
    {
      "inputs": [],
      "name": "TheBadge__updateBadgeModel_notBadgeModelOwner",
      "type": "error"
    },
    {
      "anonymous": false,
      "inputs": [
        {
          "indexed": true,
          "internalType": "string",
          "name": "controllerName",
          "type": "string"
        },
        {
          "indexed": true,
          "internalType": "address",
          "name": "controllerAddress",
          "type": "address"
        }
      ],
      "name": "BadgeModelControllerAdded",
      "type": "event"
    },
    {
      "anonymous": false,
      "inputs": [
        {
          "indexed": true,
          "internalType": "uint256",
          "name": "badgeModelId",
          "type": "uint256"
        },
        {
          "indexed": false,
          "internalType": "string",
          "name": "metadata",
          "type": "string"
        }
      ],
      "name": "BadgeModelCreated",
      "type": "event"
    },
    {
      "anonymous": false,
      "inputs": [
        {
          "indexed": true,
          "internalType": "uint256",
          "name": "badgeModelId",
          "type": "uint256"
        }
      ],
      "name": "BadgeModelUpdated",
      "type": "event"
    },
    {
      "anonymous": false,
      "inputs": [
        {
          "indexed": false,
          "internalType": "uint8",
          "name": "version",
          "type": "uint8"
        }
      ],
      "name": "Initialized",
      "type": "event"
    },
    {
      "anonymous": false,
      "inputs": [
        {
          "indexed": true,
          "internalType": "address",
          "name": "previousOwner",
          "type": "address"
        },
        {
          "indexed": true,
          "internalType": "address",
          "name": "newOwner",
          "type": "address"
        }
      ],
      "name": "OwnershipTransferred",
      "type": "event"
    },
    {
      "anonymous": false,
      "inputs": [
        {
          "indexed": true,
          "internalType": "bytes32",
          "name": "role",
          "type": "bytes32"
        },
        {
          "indexed": true,
          "internalType": "bytes32",
          "name": "previousAdminRole",
          "type": "bytes32"
        },
        {
          "indexed": true,
          "internalType": "bytes32",
          "name": "newAdminRole",
          "type": "bytes32"
        }
      ],
      "name": "RoleAdminChanged",
      "type": "event"
    },
    {
      "anonymous": false,
      "inputs": [
        {
          "indexed": true,
          "internalType": "bytes32",
          "name": "role",
          "type": "bytes32"
        },
        {
          "indexed": true,
          "internalType": "address",
          "name": "account",
          "type": "address"
        },
        {
          "indexed": true,
          "internalType": "address",
          "name": "sender",
          "type": "address"
        }
      ],
      "name": "RoleGranted",
      "type": "event"
    },
    {
      "anonymous": false,
      "inputs": [
        {
          "indexed": true,
          "internalType": "bytes32",
          "name": "role",
          "type": "bytes32"
        },
        {
          "indexed": true,
          "internalType": "address",
          "name": "account",
          "type": "address"
        },
        {
          "indexed": true,
          "internalType": "address",
          "name": "sender",
          "type": "address"
        }
      ],
      "name": "RoleRevoked",
      "type": "event"
    },
    {
      "inputs": [],
      "name": "DEFAULT_ADMIN_ROLE",
      "outputs": [
        {
          "internalType": "bytes32",
          "name": "",
          "type": "bytes32"
        }
      ],
      "stateMutability": "view",
      "type": "function"
    },
    {
      "inputs": [],
      "name": "PAUSER_ROLE",
      "outputs": [
        {
          "internalType": "bytes32",
          "name": "",
          "type": "bytes32"
        }
      ],
      "stateMutability": "view",
      "type": "function"
    },
    {
      "inputs": [],
      "name": "UPGRADER_ROLE",
      "outputs": [
        {
          "internalType": "bytes32",
          "name": "",
          "type": "bytes32"
        }
      ],
      "stateMutability": "view",
      "type": "function"
    },
    {
      "inputs": [],
      "name": "URI_SETTER_ROLE",
      "outputs": [
        {
          "internalType": "bytes32",
          "name": "",
          "type": "bytes32"
        }
      ],
      "stateMutability": "view",
      "type": "function"
    },
    {
      "inputs": [],
      "name": "USER_MANAGER_ROLE",
      "outputs": [
        {
          "internalType": "bytes32",
          "name": "",
          "type": "bytes32"
        }
      ],
      "stateMutability": "view",
      "type": "function"
    },
    {
      "inputs": [],
      "name": "VERIFIER_ROLE",
      "outputs": [
        {
          "internalType": "bytes32",
          "name": "",
          "type": "bytes32"
        }
      ],
      "stateMutability": "view",
      "type": "function"
    },
    {
      "inputs": [],
      "name": "_badgeStore",
      "outputs": [
        {
          "internalType": "contract TheBadgeStore",
          "name": "",
          "type": "address"
        }
      ],
      "stateMutability": "view",
      "type": "function"
    },
    {
      "inputs": [],
      "name": "_theBadgeUsers",
      "outputs": [
        {
          "internalType": "contract TheBadgeUsers",
          "name": "",
          "type": "address"
        }
      ],
      "stateMutability": "view",
      "type": "function"
    },
    {
      "inputs": [
        {
          "internalType": "string",
          "name": "controllerName",
          "type": "string"
        },
        {
          "internalType": "address",
          "name": "controllerAddress",
          "type": "address"
        }
      ],
      "name": "addBadgeModelController",
      "outputs": [],
      "stateMutability": "nonpayable",
      "type": "function"
    },
    {
      "inputs": [
        {
          "components": [
            {
              "internalType": "string",
              "name": "metadata",
              "type": "string"
            },
            {
              "internalType": "string",
              "name": "controllerName",
              "type": "string"
            },
            {
              "internalType": "uint256",
              "name": "mintCreatorFee",
              "type": "uint256"
            },
            {
              "internalType": "uint256",
              "name": "validFor",
              "type": "uint256"
            }
          ],
          "internalType": "struct TheBadgeStore.CreateBadgeModel",
          "name": "args",
          "type": "tuple"
        },
        {
          "internalType": "bytes",
          "name": "data",
          "type": "bytes"
        }
      ],
      "name": "createBadgeModel",
      "outputs": [],
      "stateMutability": "payable",
      "type": "function"
    },
    {
      "inputs": [
        {
          "internalType": "bytes32",
          "name": "role",
          "type": "bytes32"
        }
      ],
      "name": "getRoleAdmin",
      "outputs": [
        {
          "internalType": "bytes32",
          "name": "",
          "type": "bytes32"
        }
      ],
      "stateMutability": "view",
      "type": "function"
    },
    {
      "inputs": [
        {
          "internalType": "bytes32",
          "name": "role",
          "type": "bytes32"
        },
        {
          "internalType": "address",
          "name": "account",
          "type": "address"
        }
      ],
      "name": "grantRole",
      "outputs": [],
      "stateMutability": "nonpayable",
      "type": "function"
    },
    {
      "inputs": [
        {
          "internalType": "bytes32",
          "name": "role",
          "type": "bytes32"
        },
        {
          "internalType": "address",
          "name": "account",
          "type": "address"
        }
      ],
      "name": "hasRole",
      "outputs": [
        {
          "internalType": "bool",
          "name": "",
          "type": "bool"
        }
      ],
      "stateMutability": "view",
      "type": "function"
    },
    {
      "inputs": [
        {
          "internalType": "address",
          "name": "admin",
          "type": "address"
        },
        {
          "internalType": "address",
          "name": "badgeStore",
          "type": "address"
        },
        {
          "internalType": "address",
          "name": "badgeUsers",
          "type": "address"
        }
      ],
      "name": "initialize",
      "outputs": [],
      "stateMutability": "nonpayable",
      "type": "function"
    },
    {
      "inputs": [
        {
          "internalType": "uint256",
          "name": "badgeModelId",
          "type": "uint256"
        }
      ],
      "name": "isBadgeModelSuspended",
      "outputs": [
        {
          "internalType": "bool",
          "name": "",
          "type": "bool"
        }
      ],
      "stateMutability": "view",
      "type": "function"
    },
    {
      "inputs": [],
      "name": "owner",
      "outputs": [
        {
          "internalType": "address",
          "name": "",
          "type": "address"
        }
      ],
      "stateMutability": "view",
      "type": "function"
    },
    {
      "inputs": [],
      "name": "renounceOwnership",
      "outputs": [],
      "stateMutability": "nonpayable",
      "type": "function"
    },
    {
      "inputs": [
        {
          "internalType": "bytes32",
          "name": "role",
          "type": "bytes32"
        },
        {
          "internalType": "address",
          "name": "account",
          "type": "address"
        }
      ],
      "name": "renounceRole",
      "outputs": [],
      "stateMutability": "nonpayable",
      "type": "function"
    },
    {
      "inputs": [
        {
          "internalType": "bytes32",
          "name": "role",
          "type": "bytes32"
        },
        {
          "internalType": "address",
          "name": "account",
          "type": "address"
        }
      ],
      "name": "revokeRole",
      "outputs": [],
      "stateMutability": "nonpayable",
      "type": "function"
    },
    {
      "inputs": [
        {
          "internalType": "bytes4",
          "name": "interfaceId",
          "type": "bytes4"
        }
      ],
      "name": "supportsInterface",
      "outputs": [
        {
          "internalType": "bool",
          "name": "",
          "type": "bool"
        }
      ],
      "stateMutability": "view",
      "type": "function"
    },
    {
      "inputs": [],
      "name": "suspendBadgeModel",
      "outputs": [],
      "stateMutability": "view",
      "type": "function"
    },
    {
      "inputs": [
        {
          "internalType": "address",
          "name": "newOwner",
          "type": "address"
        }
      ],
      "name": "transferOwnership",
      "outputs": [],
      "stateMutability": "nonpayable",
      "type": "function"
    },
    {
      "inputs": [
        {
          "internalType": "uint256",
          "name": "badgeModelId",
          "type": "uint256"
        },
        {
          "internalType": "uint256",
          "name": "mintCreatorFee",
          "type": "uint256"
        },
        {
          "internalType": "bool",
          "name": "paused",
          "type": "bool"
        }
      ],
      "name": "updateBadgeModel",
      "outputs": [],
      "stateMutability": "nonpayable",
      "type": "function"
    },
    {
      "inputs": [
        {
          "internalType": "uint256",
          "name": "badgeModelId",
          "type": "uint256"
        },
        {
          "internalType": "uint256",
          "name": "feeInBps",
          "type": "uint256"
        }
      ],
      "name": "updateBadgeModelProtocolFee",
      "outputs": [],
      "stateMutability": "nonpayable",
      "type": "function"
    },
    {
      "stateMutability": "payable",
      "type": "receive"
    }
  ],
  "bytecode": "0x608060405234801561001057600080fd5b5061001961001e565b6100dd565b600054610100900460ff161561008a5760405162461bcd60e51b815260206004820152602760248201527f496e697469616c697a61626c653a20636f6e747261637420697320696e697469604482015266616c697a696e6760c81b606482015260840160405180910390fd5b60005460ff908116146100db576000805460ff191660ff9081179091556040519081527f7f26b83ff96e1f2b6a682f133852f6798a09c465da95921460cefb38474024989060200160405180910390a15b565b61231b80620000ed6000396000f3fe60806040526004361061012f5760003560e01c8063a217fddf116100a6578063a217fddf146102ec578063a41e35c314610301578063c0a39d1214610335578063c0c53b8b14610355578063c227fb1114610375578063d547741f14610395578063e5088cdf146103b5578063e63ab1e9146103d5578063e7705db614610409578063ede37dd41461043d578063f2fde38b1461045d578063f72c0d8b1461047d57600080fd5b806301ffc9a71461013b57806319b50c2a146101705780631adb76821461019d578063248a9ca3146101bf5780632f2ff15d146101fd57806336568abe1461021d57806341954e091461023d578063715018a6146102525780637f34571014610267578063828efb251461029b5780638da5cb5b146102ae57806391d14854146102cc57600080fd5b3661013657005b600080fd5b34801561014757600080fd5b5061015b6101563660046119d5565b6104b1565b60405190151581526020015b60405180910390f35b34801561017c57600080fd5b5060c954610190906001600160a01b031681565b60405161016791906119ff565b3480156101a957600080fd5b506101bd6101b8366004611a21565b6104e8565b005b3480156101cb57600080fd5b506101ef6101da366004611a5a565b60009081526065602052604090206001015490565b604051908152602001610167565b34801561020957600080fd5b506101bd610218366004611a88565b6107f1565b34801561022957600080fd5b506101bd610238366004611a88565b61081b565b34801561024957600080fd5b506101bd61089e565b34801561025e57600080fd5b506101bd6108c2565b34801561027357600080fd5b506101ef7f7804d923f43a17d325d77e781528e0793b2edd9890ab45fc64efd7b4b427744c81565b6101bd6102a9366004611be8565b6108d6565b3480156102ba57600080fd5b506097546001600160a01b0316610190565b3480156102d857600080fd5b5061015b6102e7366004611a88565b610f75565b3480156102f857600080fd5b506101ef600081565b34801561030d57600080fd5b506101ef7fcbaaf41b181bb6e269c490e876a7c97711b57e21dd8e5528423cf57579726b3581565b34801561034157600080fd5b506101bd610350366004611cb3565b610fa0565b34801561036157600080fd5b506101bd610370366004611cf9565b611158565b34801561038157600080fd5b5061015b610390366004611a5a565b6112a7565b3480156103a157600080fd5b506101bd6103b0366004611a88565b6113e4565b3480156103c157600080fd5b5060ca54610190906001600160a01b031681565b3480156103e157600080fd5b506101ef7f65d7a28e3265b37a6474929f336521b332c1681b933f6cb9f3376673440d862a81565b34801561041557600080fd5b506101ef7f0ce23c3e399818cfee81a7ab0880f714e53d7672b08df0fa62f2843416e1ea0981565b34801561044957600080fd5b506101bd610458366004611d39565b611409565b34801561046957600080fd5b506101bd610478366004611d5b565b61154d565b34801561048957600080fd5b506101ef7f189ab7a9244df0848122154315af71fe140f3db0fe014031783b0946b8c9d2e381565b60006001600160e01b03198216637965db0b60e01b14806104e257506301ffc9a760e01b6001600160e01b03198316145b92915050565b823360c954604051636f77926b60e01b81526000916001600160a01b031690636f77926b9061051b9085906004016119ff565b600060405180830381865afa158015610538573d6000803e3d6000fd5b505050506040513d6000823e601f3d908101601f191682016040526105609190810190611df9565b60c95460405163f2be2c8560e01b8152600481018690529192506000916001600160a01b039091169063f2be2c8590602401600060405180830381865afa1580156105af573d6000803e3d6000fd5b505050506040513d6000823e601f3d908101601f191682016040526105d79190810190611ec9565b8251519091506000036105fd57604051638fcc03fd60e01b815260040160405180910390fd5b6040820151151560000361062457604051638fcc03fd60e01b815260040160405180910390fd5b6060820151151560010361064b5760405163401d786960e11b815260040160405180910390fd5b80516001600160a01b031661067357604051638fa97ef960e01b815260040160405180910390fd5b826001600160a01b031681600001516001600160a01b0316146106a95760405163806ecc4960e01b815260040160405180910390fd5b60c95460405163f2be2c8560e01b8152600481018990526000916001600160a01b03169063f2be2c8590602401600060405180830381865afa1580156106f3573d6000803e3d6000fd5b505050506040513d6000823e601f3d908101601f1916820160405261071b9190810190611ec9565b80519091506001600160a01b0316610746576040516336f7ce4f60e11b815260040160405180910390fd5b6060810187905285151560408083019190915260c954905163c956ebd960e01b81526001600160a01b039091169063c956ebd99061078a908b908590600401612060565b600060405180830381600087803b1580156107a457600080fd5b505af11580156107b8573d6000803e3d6000fd5b50506040518a92507fc7fe3866a4edc843062ecfa12604d4a6686605fb2bd8a2323d96dc40c08d9e3d9150600090a25050505050505050565b60008281526065602052604090206001015461080c816115c6565b61081683836115d0565b505050565b6001600160a01b03811633146108905760405162461bcd60e51b815260206004820152602f60248201527f416363657373436f6e74726f6c3a2063616e206f6e6c792072656e6f756e636560448201526e103937b632b9903337b91039b2b63360891b60648201526084015b60405180910390fd5b61089a8282611656565b5050565b60006108a9816115c6565b60405163aaa2c00360e01b815260040160405180910390fd5b6108ca6116bd565b6108d46000611717565b565b3360c954604051636f77926b60e01b81526000916001600160a01b031690636f77926b906109089085906004016119ff565b600060405180830381865afa158015610925573d6000803e3d6000fd5b505050506040513d6000823e601f3d908101601f1916820160405261094d9190810190611df9565b8051519091506000036109735760405163ce848fe360e01b815260040160405180910390fd5b602084015160c954604051631c2e21b960e11b81526000916001600160a01b03169063385c4372906109a9908590600401612079565b606060405180830381865afa1580156109c6573d6000803e3d6000fd5b505050506040513d601f19601f820116820180604052508101906109ea919061208c565b80519091506001600160a01b0316610a155760405163014eb98760e11b815260040160405180910390fd5b60408101511515600003610a3c5760405163014eb98760e11b815260040160405180910390fd5b806020015115610a5f5760405163526e73a560e01b815260040160405180910390fd5b60c954604080516364d8baef60e01b815290516000926001600160a01b0316916364d8baef9160048083019260209291908290030181865afa158015610aa9573d6000803e3d6000fd5b505050506040513d601f19601f82011682018060405250810190610acd91906120fd565b905080341015610af05760405163043f7a7d60e21b815260040160405180910390fd5b60c954604080516331056e5760e21b815290516000926001600160a01b03169163c415b95c9160048083019260209291908290030181865afa158015610b3a573d6000803e3d6000fd5b505050506040513d601f19601f82011682018060405250810190610b5e9190612116565b90503415610b9d576040516001600160a01b038216903480156108fc02916000818181858888f19350505050158015610b9b573d6000803e3d6000fd5b505b60c9546040805163272f675760e11b815290516000926001600160a01b031691634e5eceae9160048083019260209291908290030181865afa158015610be7573d6000803e3d6000fd5b505050506040513d601f19601f82011682018060405250810190610c0b91906120fd565b90506000604051806101000160405280610c223390565b6001600160a01b031681526020018b6020015181526020016000151581526020018b6040015181526020018b60600151815260200183815260200160011515815260200160405180604001604052806006815260200165076312e302e360d41b8152508152509050600060c960009054906101000a90046001600160a01b03166001600160a01b031663e7343c8a6040518163ffffffff1660e01b8152600401602060405180830381865afa158015610cdf573d6000803e3d6000fd5b505050506040513d601f19601f82011682018060405250810190610d0391906120fd565b60c9546040516304db069f60e01b81529192506001600160a01b0316906304db069f90610d34908590600401612133565b600060405180830381600087803b158015610d4e57600080fd5b505af1158015610d62573d6000803e3d6000fd5b50505050807f584274d31df3e2cf85a9d6dfaf82b219994725ca486f214ef93fbec2d054dca08c60000151604051610d9a9190612079565b60405180910390a260c954604051636f77926b60e01b81526000916001600160a01b031690636f77926b90610dd39033906004016119ff565b600060405180830381865afa158015610df0573d6000803e3d6000fd5b505050506040513d6000823e601f3d908101601f19168201604052610e189190810190611df9565b60408101519091501515600003610e8a5760ca546001600160a01b0316638a4be490336040518263ffffffff1660e01b8152600401610e5791906119ff565b600060405180830381600087803b158015610e7157600080fd5b505af1158015610e85573d6000803e3d6000fd5b505050505b60c95460208d0151604051631c2e21b960e11b81526000926001600160a01b03169163385c437291610ebf9190600401612079565b606060405180830381865afa158015610edc573d6000803e3d6000fd5b505050506040513d601f19601f82011682018060405250810190610f00919061208c565b905080600001516001600160a01b03166377a3989e848e6040518363ffffffff1660e01b8152600401610f34929190612146565b600060405180830381600087803b158015610f4e57600080fd5b505af1158015610f62573d6000803e3d6000fd5b5050505050505050505050505050505050565b60009182526065602090815260408084206001600160a01b0393909316845291905290205460ff1690565b6000610fab816115c6565b60c954604051631c2e21b960e11b81526000916001600160a01b03169063385c437290610fdc908790600401612079565b606060405180830381865afa158015610ff9573d6000803e3d6000fd5b505050506040513d601f19601f8201168201806040525081019061101d919061208c565b9050835160000361104157604051635f0b636f60e11b815260040160405180910390fd5b6001600160a01b038316611068576040516336f7ce4f60e11b815260040160405180910390fd5b80516001600160a01b03161561109157604051631192a36960e31b815260040160405180910390fd5b6001600160a01b03808416825260016040808401919091526000602084015260c95490516332c32c6360e11b815291169063658658c6906110d8908790859060040161215f565b600060405180830381600087803b1580156110f257600080fd5b505af1158015611106573d6000803e3d6000fd5b50505050826001600160a01b03168460405161112291906121a2565b604051908190038120907fe5593a32c4e8802f5034c3eb5fb2d05210d31e05841af6500e5cac618d29605f90600090a350505050565b600054610100900460ff16158080156111785750600054600160ff909116105b806111925750303b158015611192575060005460ff166001145b6111f55760405162461bcd60e51b815260206004820152602e60248201527f496e697469616c697a61626c653a20636f6e747261637420697320616c72656160448201526d191e481a5b9a5d1a585b1a5e995960921b6064820152608401610887565b6000805460ff191660011790558015611218576000805461ff0019166101001790555b611220611769565b61122b6000856115d0565b60c980546001600160a01b038086166001600160a01b03199283161790925560ca80549285169290911691909117905580156112a1576000805461ff0019169055604051600181527f7f26b83ff96e1f2b6a682f133852f6798a09c465da95921460cefb38474024989060200160405180910390a15b50505050565b60c95460405163f2be2c8560e01b81526004810183905260009182916001600160a01b039091169063f2be2c8590602401600060405180830381865afa1580156112f5573d6000803e3d6000fd5b505050506040513d6000823e601f3d908101601f1916820160405261131d9190810190611ec9565b80519091506001600160a01b0316611348576040516336f7ce4f60e11b815260040160405180910390fd5b60c9548151604051636f77926b60e01b81526000926001600160a01b031691636f77926b9161137a91906004016119ff565b600060405180830381865afa158015611397573d6000803e3d6000fd5b505050506040513d6000823e601f3d908101601f191682016040526113bf9190810190611df9565b606081015190915015156001036113da575060019392505050565b5060009392505050565b6000828152606560205260409020600101546113ff816115c6565b6108168383611656565b6000611414816115c6565b60c95460405163f2be2c8560e01b8152600481018590526000916001600160a01b03169063f2be2c8590602401600060405180830381865afa15801561145e573d6000803e3d6000fd5b505050506040513d6000823e601f3d908101601f191682016040526114869190810190611ec9565b80519091506001600160a01b03166114b1576040516336f7ce4f60e11b815260040160405180910390fd5b60a0810183905260c95460405163c956ebd960e01b81526001600160a01b039091169063c956ebd9906114ea9087908590600401612060565b600060405180830381600087803b15801561150457600080fd5b505af1158015611518573d6000803e3d6000fd5b50506040518692507fc7fe3866a4edc843062ecfa12604d4a6686605fb2bd8a2323d96dc40c08d9e3d9150600090a250505050565b6115556116bd565b6001600160a01b0381166115ba5760405162461bcd60e51b815260206004820152602660248201527f4f776e61626c653a206e6577206f776e657220697320746865207a65726f206160448201526564647265737360d01b6064820152608401610887565b6115c381611717565b50565b6115c38133611798565b6115da8282610f75565b61089a5760008281526065602090815260408083206001600160a01b03851684529091529020805460ff191660011790556116123390565b6001600160a01b0316816001600160a01b0316837f2f8788117e7eff1d82e926ec794901d17c78024a50270940304540a733656f0d60405160405180910390a45050565b6116608282610f75565b1561089a5760008281526065602090815260408083206001600160a01b0385168085529252808320805460ff1916905551339285917ff6391f5c32d9c69d2a47ea670b442974b53935d1edc7fd64eb21e047a839171b9190a45050565b6097546001600160a01b031633146108d45760405162461bcd60e51b815260206004820181905260248201527f4f776e61626c653a2063616c6c6572206973206e6f7420746865206f776e65726044820152606401610887565b609780546001600160a01b038381166001600160a01b0319831681179093556040519116919082907f8be0079c531659141344cd1fd0a4f28419497f9722a3daafe3b4186f6b6457e090600090a35050565b600054610100900460ff166117905760405162461bcd60e51b8152600401610887906121be565b6108d46117f1565b6117a28282610f75565b61089a576117af81611821565b6117ba836020611833565b6040516020016117cb929190612209565b60408051601f198184030181529082905262461bcd60e51b825261088791600401612079565b600054610100900460ff166118185760405162461bcd60e51b8152600401610887906121be565b6108d433611717565b60606104e26001600160a01b03831660145b6060600061184283600261228e565b61184d9060026122a5565b6001600160401b0381111561186457611864611ab8565b6040519080825280601f01601f19166020018201604052801561188e576020820181803683370190505b509050600360fc1b816000815181106118a9576118a96122b8565b60200101906001600160f81b031916908160001a905350600f60fb1b816001815181106118d8576118d86122b8565b60200101906001600160f81b031916908160001a90535060006118fc84600261228e565b6119079060016122a5565b90505b600181111561197f576f181899199a1a9b1b9c1cb0b131b232b360811b85600f166010811061193b5761193b6122b8565b1a60f81b828281518110611951576119516122b8565b60200101906001600160f81b031916908160001a90535060049490941c93611978816122ce565b905061190a565b5083156119ce5760405162461bcd60e51b815260206004820181905260248201527f537472696e67733a20686578206c656e67746820696e73756666696369656e746044820152606401610887565b9392505050565b6000602082840312156119e757600080fd5b81356001600160e01b0319811681146119ce57600080fd5b6001600160a01b0391909116815260200190565b80151581146115c357600080fd5b600080600060608486031215611a3657600080fd5b83359250602084013591506040840135611a4f81611a13565b809150509250925092565b600060208284031215611a6c57600080fd5b5035919050565b6001600160a01b03811681146115c357600080fd5b60008060408385031215611a9b57600080fd5b823591506020830135611aad81611a73565b809150509250929050565b634e487b7160e01b600052604160045260246000fd5b604051608081016001600160401b0381118282101715611af057611af0611ab8565b60405290565b60405160a081016001600160401b0381118282101715611af057611af0611ab8565b60405161010081016001600160401b0381118282101715611af057611af0611ab8565b604051601f8201601f191681016001600160401b0381118282101715611b6357611b63611ab8565b604052919050565b60006001600160401b03821115611b8457611b84611ab8565b50601f01601f191660200190565b600082601f830112611ba357600080fd5b8135611bb6611bb182611b6b565b611b3b565b818152846020838601011115611bcb57600080fd5b816020850160208301376000918101602001919091529392505050565b60008060408385031215611bfb57600080fd5b82356001600160401b0380821115611c1257600080fd5b9084019060808287031215611c2657600080fd5b611c2e611ace565b823582811115611c3d57600080fd5b611c4988828601611b92565b825250602083013582811115611c5e57600080fd5b611c6a88828601611b92565b6020830152506040830135604082015260608301356060820152809450506020850135915080821115611c9c57600080fd5b50611ca985828601611b92565b9150509250929050565b60008060408385031215611cc657600080fd5b82356001600160401b03811115611cdc57600080fd5b611ce885828601611b92565b9250506020830135611aad81611a73565b600080600060608486031215611d0e57600080fd5b8335611d1981611a73565b92506020840135611d2981611a73565b91506040840135611a4f81611a73565b60008060408385031215611d4c57600080fd5b50508035926020909101359150565b600060208284031215611d6d57600080fd5b81356119ce81611a73565b60005b83811015611d93578181015183820152602001611d7b565b50506000910152565b600082601f830112611dad57600080fd5b8151611dbb611bb182611b6b565b818152846020838601011115611dd057600080fd5b611de1826020830160208701611d78565b949350505050565b8051611df481611a13565b919050565b600060208284031215611e0b57600080fd5b81516001600160401b0380821115611e2257600080fd5b9083019060a08286031215611e3657600080fd5b611e3e611af6565b825182811115611e4d57600080fd5b611e5987828601611d9c565b82525060208301519150611e6c82611a13565b81602082015260408301519150611e8282611a13565b81604082015260608301519150611e9882611a13565b81606082015260808301519250611eae83611a13565b6080810192909252509392505050565b8051611df481611a73565b600060208284031215611edb57600080fd5b81516001600160401b0380821115611ef257600080fd5b908301906101008286031215611f0757600080fd5b611f0f611b18565b611f1883611ebe565b8152602083015182811115611f2c57600080fd5b611f3887828601611d9c565b602083015250611f4a60408401611de9565b6040820152606083015160608201526080830151608082015260a083015160a0820152611f7960c08401611de9565b60c082015260e083015182811115611f9057600080fd5b611f9c87828601611d9c565b60e08301525095945050505050565b60008151808452611fc3816020860160208601611d78565b601f01601f19169290920160200192915050565b600061010060018060a01b0383511684526020830151816020860152611fff82860182611fab565b915050604083015115156040850152606083015160608501526080830151608085015260a083015160a085015260c083015161203f60c086018215159052565b5060e083015184820360e08601526120578282611fab565b95945050505050565b828152604060208201526000611de16040830184611fd7565b6020815260006119ce6020830184611fab565b60006060828403121561209e57600080fd5b604051606081018181106001600160401b03821117156120c0576120c0611ab8565b60405282516120ce81611a73565b815260208301516120de81611a13565b602082015260408301516120f181611a13565b60408201529392505050565b60006020828403121561210f57600080fd5b5051919050565b60006020828403121561212857600080fd5b81516119ce81611a73565b6020815260006119ce6020830184611fd7565b828152604060208201526000611de16040830184611fab565b6080815260006121726080830185611fab565b905060018060a01b0383511660208301526020830151151560408301526040830151151560608301529392505050565b600082516121b4818460208701611d78565b9190910192915050565b6020808252602b908201527f496e697469616c697a61626c653a20636f6e7472616374206973206e6f74206960408201526a6e697469616c697a696e6760a81b606082015260800190565b76020b1b1b2b9b9a1b7b73a3937b61d1030b1b1b7bab73a1604d1b81526000835161223b816017850160208801611d78565b7001034b99036b4b9b9b4b733903937b6329607d1b601791840191820152835161226c816028840160208801611d78565b01602801949350505050565b634e487b7160e01b600052601160045260246000fd5b80820281158282048414176104e2576104e2612278565b808201808211156104e2576104e2612278565b634e487b7160e01b600052603260045260246000fd5b6000816122dd576122dd612278565b50600019019056fea2646970667358221220f06f4695b3e99e017b9d2109faa3bdefda6189634ae1d0deda885c7e01b8127c64736f6c63430008110033",
  "linkReferences": {},
  "deployedLinkReferences": {}
}