{
  "_format": "hh-sol-artifact-1",
  "contractName": "TheBadgeUsers",
  "sourceName": "src/contracts/thebadge/TheBadgeUsers.sol",
  "abi": [
    {
      "inputs": [],
      "stateMutability": "nonpayable",
      "type": "constructor"
    },
    {
      "inputs": [],
      "name": "TheBadge__controller_controllerIsPaused",
      "type": "error"
    },
    {
      "inputs": [],
      "name": "TheBadge__controller_invalidController",
      "type": "error"
    },
    {
      "inputs": [],
      "name": "TheBadge__onlyCreator_senderIsAlreadyACreator",
      "type": "error"
    },
    {
      "inputs": [],
      "name": "TheBadge__onlyUser_userNotFound",
      "type": "error"
    },
    {
      "inputs": [],
      "name": "TheBadge__registerUser_alreadyRegistered",
      "type": "error"
    },
    {
      "inputs": [],
      "name": "TheBadge__registerUser_wrongValue",
      "type": "error"
    },
    {
      "inputs": [],
      "name": "TheBadge__updateUser_notFound",
      "type": "error"
    },
    {
      "inputs": [],
      "name": "TheBadge__verifyUser_verificationProtocolFeesPaymentFailed",
      "type": "error"
    },
    {
      "inputs": [],
      "name": "TheBadge__verifyUser_wrongValue",
      "type": "error"
    },
    {
      "anonymous": false,
      "inputs": [
        {
          "indexed": true,
          "internalType": "address",
          "name": "user",
          "type": "address"
        }
      ],
      "name": "CreatorRegistered",
      "type": "event"
    },
    {
      "anonymous": false,
      "inputs": [
        {
          "indexed": false,
          "internalType": "uint8",
          "name": "version",
          "type": "uint8"
        }
      ],
      "name": "Initialized",
      "type": "event"
    },
    {
      "anonymous": false,
      "inputs": [
        {
          "indexed": true,
          "internalType": "address",
          "name": "previousOwner",
          "type": "address"
        },
        {
          "indexed": true,
          "internalType": "address",
          "name": "newOwner",
          "type": "address"
        }
      ],
      "name": "OwnershipTransferred",
      "type": "event"
    },
    {
      "anonymous": false,
      "inputs": [
        {
          "indexed": true,
          "internalType": "address",
          "name": "recipient",
          "type": "address"
        },
        {
          "indexed": false,
          "internalType": "address",
          "name": "payer",
          "type": "address"
        },
        {
          "indexed": false,
          "internalType": "uint256",
          "name": "amount",
          "type": "uint256"
        },
        {
          "indexed": true,
          "internalType": "enum LibTheBadge.PaymentType",
          "name": "paymentType",
          "type": "uint8"
        },
        {
          "indexed": true,
          "internalType": "uint256",
          "name": "badgeModelId",
          "type": "uint256"
        },
        {
          "indexed": false,
          "internalType": "string",
          "name": "controllerName",
          "type": "string"
        }
      ],
      "name": "PaymentMade",
      "type": "event"
    },
    {
      "anonymous": false,
      "inputs": [
        {
          "indexed": true,
          "internalType": "bytes32",
          "name": "role",
          "type": "bytes32"
        },
        {
          "indexed": true,
          "internalType": "bytes32",
          "name": "previousAdminRole",
          "type": "bytes32"
        },
        {
          "indexed": true,
          "internalType": "bytes32",
          "name": "newAdminRole",
          "type": "bytes32"
        }
      ],
      "name": "RoleAdminChanged",
      "type": "event"
    },
    {
      "anonymous": false,
      "inputs": [
        {
          "indexed": true,
          "internalType": "bytes32",
          "name": "role",
          "type": "bytes32"
        },
        {
          "indexed": true,
          "internalType": "address",
          "name": "account",
          "type": "address"
        },
        {
          "indexed": true,
          "internalType": "address",
          "name": "sender",
          "type": "address"
        }
      ],
      "name": "RoleGranted",
      "type": "event"
    },
    {
      "anonymous": false,
      "inputs": [
        {
          "indexed": true,
          "internalType": "bytes32",
          "name": "role",
          "type": "bytes32"
        },
        {
          "indexed": true,
          "internalType": "address",
          "name": "account",
          "type": "address"
        },
        {
          "indexed": true,
          "internalType": "address",
          "name": "sender",
          "type": "address"
        }
      ],
      "name": "RoleRevoked",
      "type": "event"
    },
    {
      "anonymous": false,
      "inputs": [
        {
          "indexed": true,
          "internalType": "address",
          "name": "userAddress",
          "type": "address"
        },
        {
          "indexed": false,
          "internalType": "string",
          "name": "metadata",
          "type": "string"
        },
        {
          "indexed": false,
          "internalType": "bool",
          "name": "suspended",
          "type": "bool"
        },
        {
          "indexed": false,
          "internalType": "bool",
          "name": "isCreator",
          "type": "bool"
        },
        {
          "indexed": false,
          "internalType": "bool",
          "name": "deleted",
          "type": "bool"
        }
      ],
      "name": "UpdatedUser",
      "type": "event"
    },
    {
      "anonymous": false,
      "inputs": [
        {
          "indexed": true,
          "internalType": "address",
          "name": "user",
          "type": "address"
        },
        {
          "indexed": false,
          "internalType": "string",
          "name": "metadata",
          "type": "string"
        }
      ],
      "name": "UserRegistered",
      "type": "event"
    },
    {
      "anonymous": false,
      "inputs": [
        {
          "indexed": true,
          "internalType": "address",
          "name": "user",
          "type": "address"
        },
        {
          "indexed": false,
          "internalType": "string",
          "name": "controllerName",
          "type": "string"
        },
        {
          "indexed": false,
          "internalType": "bool",
          "name": "verify",
          "type": "bool"
        }
      ],
      "name": "UserVerificationExecuted",
      "type": "event"
    },
    {
      "anonymous": false,
      "inputs": [
        {
          "indexed": true,
          "internalType": "address",
          "name": "user",
          "type": "address"
        },
        {
          "indexed": false,
          "internalType": "string",
          "name": "metadata",
          "type": "string"
        },
        {
          "indexed": false,
          "internalType": "string",
          "name": "controllerName",
          "type": "string"
        }
      ],
      "name": "UserVerificationRequested",
      "type": "event"
    },
    {
      "inputs": [],
      "name": "DEFAULT_ADMIN_ROLE",
      "outputs": [
        {
          "internalType": "bytes32",
          "name": "",
          "type": "bytes32"
        }
      ],
      "stateMutability": "view",
      "type": "function"
    },
    {
      "inputs": [],
      "name": "PAUSER_ROLE",
      "outputs": [
        {
          "internalType": "bytes32",
          "name": "",
          "type": "bytes32"
        }
      ],
      "stateMutability": "view",
      "type": "function"
    },
    {
      "inputs": [],
      "name": "UPGRADER_ROLE",
      "outputs": [
        {
          "internalType": "bytes32",
          "name": "",
          "type": "bytes32"
        }
      ],
      "stateMutability": "view",
      "type": "function"
    },
    {
      "inputs": [],
      "name": "URI_SETTER_ROLE",
      "outputs": [
        {
          "internalType": "bytes32",
          "name": "",
          "type": "bytes32"
        }
      ],
      "stateMutability": "view",
      "type": "function"
    },
    {
      "inputs": [],
      "name": "USER_MANAGER_ROLE",
      "outputs": [
        {
          "internalType": "bytes32",
          "name": "",
          "type": "bytes32"
        }
      ],
      "stateMutability": "view",
      "type": "function"
    },
    {
      "inputs": [],
      "name": "VERIFIER_ROLE",
      "outputs": [
        {
          "internalType": "bytes32",
          "name": "",
          "type": "bytes32"
        }
      ],
      "stateMutability": "view",
      "type": "function"
    },
    {
      "inputs": [],
      "name": "_badgeStore",
      "outputs": [
        {
          "internalType": "contract TheBadgeStore",
          "name": "",
          "type": "address"
        }
      ],
      "stateMutability": "view",
      "type": "function"
    },
    {
      "inputs": [
        {
          "internalType": "address",
          "name": "_user",
          "type": "address"
        },
        {
          "internalType": "string",
          "name": "controllerName",
          "type": "string"
        },
        {
          "internalType": "bool",
          "name": "verify",
          "type": "bool"
        }
      ],
      "name": "executeUserVerification",
      "outputs": [],
      "stateMutability": "nonpayable",
      "type": "function"
    },
    {
      "inputs": [
        {
          "internalType": "bytes32",
          "name": "role",
          "type": "bytes32"
        }
      ],
      "name": "getRoleAdmin",
      "outputs": [
        {
          "internalType": "bytes32",
          "name": "",
          "type": "bytes32"
        }
      ],
      "stateMutability": "view",
      "type": "function"
    },
    {
      "inputs": [
        {
          "internalType": "string",
          "name": "controllerName",
          "type": "string"
        }
      ],
      "name": "getVerificationFee",
      "outputs": [
        {
          "internalType": "uint256",
          "name": "",
          "type": "uint256"
        }
      ],
      "stateMutability": "view",
      "type": "function"
    },
    {
      "inputs": [
        {
          "internalType": "bytes32",
          "name": "role",
          "type": "bytes32"
        },
        {
          "internalType": "address",
          "name": "account",
          "type": "address"
        }
      ],
      "name": "grantRole",
      "outputs": [],
      "stateMutability": "nonpayable",
      "type": "function"
    },
    {
      "inputs": [
        {
          "internalType": "bytes32",
          "name": "role",
          "type": "bytes32"
        },
        {
          "internalType": "address",
          "name": "account",
          "type": "address"
        }
      ],
      "name": "hasRole",
      "outputs": [
        {
          "internalType": "bool",
          "name": "",
          "type": "bool"
        }
      ],
      "stateMutability": "view",
      "type": "function"
    },
    {
      "inputs": [
        {
          "internalType": "address",
          "name": "admin",
          "type": "address"
        },
        {
          "internalType": "address",
          "name": "badgeStore",
          "type": "address"
        }
      ],
      "name": "initialize",
      "outputs": [],
      "stateMutability": "nonpayable",
      "type": "function"
    },
    {
      "inputs": [
        {
          "internalType": "address",
          "name": "_user",
          "type": "address"
        },
        {
          "internalType": "string",
          "name": "controllerName",
          "type": "string"
        }
      ],
      "name": "isUserVerified",
      "outputs": [
        {
          "internalType": "bool",
          "name": "",
          "type": "bool"
        }
      ],
      "stateMutability": "view",
      "type": "function"
    },
    {
      "inputs": [
        {
          "internalType": "address",
          "name": "_userAddress",
          "type": "address"
        }
      ],
      "name": "makeUserCreator",
      "outputs": [],
      "stateMutability": "nonpayable",
      "type": "function"
    },
    {
      "inputs": [],
      "name": "owner",
      "outputs": [
        {
          "internalType": "address",
          "name": "",
          "type": "address"
        }
      ],
      "stateMutability": "view",
      "type": "function"
    },
    {
      "inputs": [
        {
          "internalType": "string",
          "name": "_metadata",
          "type": "string"
        },
        {
          "internalType": "bool",
          "name": "_isCompany",
          "type": "bool"
        }
      ],
      "name": "registerUser",
      "outputs": [],
      "stateMutability": "payable",
      "type": "function"
    },
    {
      "inputs": [],
      "name": "renounceOwnership",
      "outputs": [],
      "stateMutability": "nonpayable",
      "type": "function"
    },
    {
      "inputs": [
        {
          "internalType": "bytes32",
          "name": "role",
          "type": "bytes32"
        },
        {
          "internalType": "address",
          "name": "account",
          "type": "address"
        }
      ],
      "name": "renounceRole",
      "outputs": [],
      "stateMutability": "nonpayable",
      "type": "function"
    },
    {
      "inputs": [
        {
          "internalType": "bytes32",
          "name": "role",
          "type": "bytes32"
        },
        {
          "internalType": "address",
          "name": "account",
          "type": "address"
        }
      ],
      "name": "revokeRole",
      "outputs": [],
      "stateMutability": "nonpayable",
      "type": "function"
    },
    {
      "inputs": [
        {
          "internalType": "string",
          "name": "controllerName",
          "type": "string"
        },
        {
          "internalType": "string",
          "name": "evidenceUri",
          "type": "string"
        }
      ],
      "name": "submitUserVerification",
      "outputs": [],
      "stateMutability": "payable",
      "type": "function"
    },
    {
      "inputs": [
        {
          "internalType": "bytes4",
          "name": "interfaceId",
          "type": "bytes4"
        }
      ],
      "name": "supportsInterface",
      "outputs": [
        {
          "internalType": "bool",
          "name": "",
          "type": "bool"
        }
      ],
      "stateMutability": "view",
      "type": "function"
    },
    {
      "inputs": [
        {
          "internalType": "address",
          "name": "_userAddress",
          "type": "address"
        },
        {
          "internalType": "bool",
          "name": "suspended",
          "type": "bool"
        }
      ],
      "name": "suspendUser",
      "outputs": [],
      "stateMutability": "nonpayable",
      "type": "function"
    },
    {
      "inputs": [
        {
          "internalType": "address",
          "name": "newOwner",
          "type": "address"
        }
      ],
      "name": "transferOwnership",
      "outputs": [],
      "stateMutability": "nonpayable",
      "type": "function"
    },
    {
      "inputs": [
        {
          "internalType": "address",
          "name": "_userAddress",
          "type": "address"
        },
        {
          "internalType": "string",
          "name": "_metadata",
          "type": "string"
        }
      ],
      "name": "updateUser",
      "outputs": [],
      "stateMutability": "nonpayable",
      "type": "function"
    },
    {
      "stateMutability": "payable",
      "type": "receive"
    }
  ],
  "bytecode": "0x60806040523480156200001157600080fd5b506200001c62000022565b620000e3565b600054610100900460ff16156200008f5760405162461bcd60e51b815260206004820152602760248201527f496e697469616c697a61626c653a20636f6e747261637420697320696e697469604482015266616c697a696e6760c81b606482015260840160405180910390fd5b60005460ff90811614620000e1576000805460ff191660ff9081179091556040519081527f7f26b83ff96e1f2b6a682f133852f6798a09c465da95921460cefb38474024989060200160405180910390a15b565b61271880620000f36000396000f3fe60806040526004361061013a5760003560e01c80638a4be490116100b15780638a4be490146102f75780638da5cb5b1461031757806391d1485414610335578063a217fddf14610355578063a41e35c31461036a578063b08898191461039e578063c1b8c5f1146103be578063d547741f146103de578063e63ab1e9146103fe578063e71de04814610432578063e7705db614610452578063f2fde38b14610486578063f72c0d8b146104a657600080fd5b806301ffc9a71461014657806319b50c2a1461017b5780631b6cd667146101a8578063248a9ca3146101bd5780632acb0301146101fb5780632f2ff15d1461021b57806336568abe1461023b578063485cc9551461025b5780635c3736f11461027b578063715018a61461029b57806379b233db146102b05780637f345710146102c357600080fd5b3661014157005b600080fd5b34801561015257600080fd5b50610166610161366004611ec3565b6104da565b60405190151581526020015b60405180910390f35b34801561018757600080fd5b5060c95461019b906001600160a01b031681565b6040516101729190611eed565b6101bb6101b6366004611fec565b610511565b005b3480156101c957600080fd5b506101ed6101d836600461204f565b60009081526065602052604090206001015490565b604051908152602001610172565b34801561020757600080fd5b5061016661021636600461207d565b610a0a565b34801561022757600080fd5b506101bb6102363660046120c2565b610be2565b34801561024757600080fd5b506101bb6102563660046120c2565b610c0c565b34801561026757600080fd5b506101bb6102763660046120f2565b610c8f565b34801561028757600080fd5b506101bb61029636600461212e565b610dc7565b3480156102a757600080fd5b506101bb610eff565b6101bb6102be36600461215c565b610f13565b3480156102cf57600080fd5b506101ed7f7804d923f43a17d325d77e781528e0793b2edd9890ab45fc64efd7b4b427744c81565b34801561030357600080fd5b506101bb6103123660046121a2565b61122a565b34801561032357600080fd5b506097546001600160a01b031661019b565b34801561034157600080fd5b506101666103503660046120c2565b6113de565b34801561036157600080fd5b506101ed600081565b34801561037657600080fd5b506101ed7fcbaaf41b181bb6e269c490e876a7c97711b57e21dd8e5528423cf57579726b3581565b3480156103aa57600080fd5b506101bb6103b936600461207d565b611409565b3480156103ca57600080fd5b506101bb6103d93660046121bf565b61156b565b3480156103ea57600080fd5b506101bb6103f93660046120c2565b611848565b34801561040a57600080fd5b506101ed7f65d7a28e3265b37a6474929f336521b332c1681b933f6cb9f3376673440d862a81565b34801561043e57600080fd5b506101ed61044d366004612222565b61186d565b34801561045e57600080fd5b506101ed7f0ce23c3e399818cfee81a7ab0880f714e53d7672b08df0fa62f2843416e1ea0981565b34801561049257600080fd5b506101bb6104a13660046121a2565b611a3b565b3480156104b257600080fd5b506101ed7f189ab7a9244df0848122154315af71fe140f3db0fe014031783b0946b8c9d2e381565b60006001600160e01b03198216637965db0b60e01b148061050b57506301ffc9a760e01b6001600160e01b03198316145b92915050565b3360c954604051636f77926b60e01b81526000916001600160a01b031690636f77926b90610543908590600401611eed565b600060405180830381865afa158015610560573d6000803e3d6000fd5b505050506040513d6000823e601f3d908101601f191682016040526105889190810190612292565b8051519091506000036105ae5760405163ce848fe360e01b815260040160405180910390fd5b60c954604051631c2e21b960e11b815285916000916001600160a01b039091169063385c4372906105e39085906004016123a6565b606060405180830381865afa158015610600573d6000803e3d6000fd5b505050506040513d601f19601f8201168201806040525081019061062491906123b9565b80519091506001600160a01b031661064f5760405163014eb98760e11b815260040160405180910390fd5b604081015115156000036106765760405163014eb98760e11b815260040160405180910390fd5b8060200151156106995760405163526e73a560e01b815260040160405180910390fd5b60c954604051631c2e21b960e11b81526000916001600160a01b03169063385c4372906106ca908a906004016123a6565b606060405180830381865afa1580156106e7573d6000803e3d6000fd5b505050506040513d601f19601f8201168201806040525081019061070b91906123b9565b60c9549091506000906001600160a01b0316636f77926b336040518263ffffffff1660e01b815260040161073f9190611eed565b600060405180830381865afa15801561075c573d6000803e3d6000fd5b505050506040513d6000823e601f3d908101601f191682016040526107849190810190612292565b60c954604080516331056e5760e21b815290519293508a926000926001600160a01b03169163c415b95c9160048083019260209291908290030181865afa1580156107d3573d6000803e3d6000fd5b505050506040513d601f19601f820116820180604052508101906107f7919061242a565b9050600084600001516001600160a01b0316637657dbdd6040518163ffffffff1660e01b8152600401602060405180830381865afa15801561083d573d6000803e3d6000fd5b505050506040513d601f19601f820116820180604052508101906108619190612447565b90508034146108835760405163e1d94b7f60e01b815260040160405180910390fd5b341561094e576000826001600160a01b03163460405160006040518083038185875af1925050503d80600081146108d6576040519150601f19603f3d011682016040523d82523d6000602084013e6108db565b606091505b5090915050801515600003610903576040516331eb874960e21b815260040160405180910390fd5b600060036001600160a01b0385167fdf7cc5ebdb7be805a1d96fd982aba37cbf8e9169d6f34870e8d63a62cd492f6433348960405161094493929190612460565b60405180910390a4505b84518451604051635ad433fd60e11b81526001600160a01b039092169163b5a867fa91610982913391908f90600401612487565b600060405180830381600087803b15801561099c57600080fd5b505af11580156109b0573d6000803e3d6000fd5b505050506109bb3390565b6001600160a01b03167fb17b7f220d392b3fac92feead39a937412996860f3aacd51a13f9271239df6518b8d6040516109f59291906124bd565b60405180910390a25050505050505050505050565b60c954604051631c2e21b960e11b8152600091839183916001600160a01b03169063385c437290610a3f9085906004016123a6565b606060405180830381865afa158015610a5c573d6000803e3d6000fd5b505050506040513d601f19601f82011682018060405250810190610a8091906123b9565b80519091506001600160a01b0316610aab5760405163014eb98760e11b815260040160405180910390fd5b60408101511515600003610ad25760405163014eb98760e11b815260040160405180910390fd5b806020015115610af55760405163526e73a560e01b815260040160405180910390fd5b60c954604051631c2e21b960e11b81526000916001600160a01b03169063385c437290610b269088906004016123a6565b606060405180830381865afa158015610b43573d6000803e3d6000fd5b505050506040513d601f19601f82011682018060405250810190610b6791906123b9565b805160405163056720bf60e51b81529192506001600160a01b03169063ace417e090610b97908990600401611eed565b602060405180830381865afa158015610bb4573d6000803e3d6000fd5b505050506040513d601f19601f82011682018060405250810190610bd891906124e2565b9695505050505050565b600082815260656020526040902060010154610bfd81611ab4565b610c078383611abe565b505050565b6001600160a01b0381163314610c815760405162461bcd60e51b815260206004820152602f60248201527f416363657373436f6e74726f6c3a2063616e206f6e6c792072656e6f756e636560448201526e103937b632b9903337b91039b2b63360891b60648201526084015b60405180910390fd5b610c8b8282611b44565b5050565b600054610100900460ff1615808015610caf5750600054600160ff909116105b80610cc95750303b158015610cc9575060005460ff166001145b610d2c5760405162461bcd60e51b815260206004820152602e60248201527f496e697469616c697a61626c653a20636f6e747261637420697320616c72656160448201526d191e481a5b9a5d1a585b1a5e995960921b6064820152608401610c78565b6000805460ff191660011790558015610d4f576000805461ff0019166101001790555b610d57611bab565b610d62600084611abe565b60c980546001600160a01b0319166001600160a01b0384161790558015610c07576000805461ff0019169055604051600181527f7f26b83ff96e1f2b6a682f133852f6798a09c465da95921460cefb38474024989060200160405180910390a1505050565b7f65d7a28e3265b37a6474929f336521b332c1681b933f6cb9f3376673440d862a610df181611ab4565b60c954604051636f77926b60e01b81526000916001600160a01b031690636f77926b90610e22908790600401611eed565b600060405180830381865afa158015610e3f573d6000803e3d6000fd5b505050506040513d6000823e601f3d908101601f19168201604052610e679190810190612292565b805151909150600003610e8d576040516365553c4160e11b815260040160405180910390fd5b821515606082015260c95460405163178682c160e01b81526001600160a01b039091169063178682c190610ec790879085906004016124ff565b600060405180830381600087803b158015610ee157600080fd5b505af1158015610ef5573d6000803e3d6000fd5b5050505050505050565b610f07611bda565b610f116000611c34565b565b60c954604051636f77926b60e01b81526000916001600160a01b031690636f77926b90610f44903390600401611eed565b600060405180830381865afa158015610f61573d6000803e3d6000fd5b505050506040513d6000823e601f3d908101601f19168201604052610f899190810190612292565b80515190915015610fad5760405163096bb4a360e41b815260040160405180910390fd5b60c9546040805163e70a0e6960e01b815290516000926001600160a01b03169163e70a0e699160048083019260209291908290030181865afa158015610ff7573d6000803e3d6000fd5b505050506040513d601f19601f8201168201806040525081019061101b9190612447565b905080341461103d57604051638c77ddf360e01b815260040160405180910390fd5b34156111575760c954604080516331056e5760e21b815290516000926001600160a01b03169163c415b95c9160048083019260209291908290030181865afa15801561108d573d6000803e3d6000fd5b505050506040513d601f19601f820116820180604052508101906110b1919061242a565b6040519091506001600160a01b038216903480156108fc02916000818181858888f193505050501580156110e9573d6000803e3d6000fd5b50600060026001600160a01b0383167fdf7cc5ebdb7be805a1d96fd982aba37cbf8e9169d6f34870e8d63a62cd492f6433604080516001600160a01b039092168252346020830152606090820181905260029082015261060f60f31b608082015260a00160405180910390a4505b838252821515602083015260006040830181905260608301526001608083015260c9546001600160a01b031663e9ab224e33846040518363ffffffff1660e01b81526004016111a79291906124ff565b600060405180830381600087803b1580156111c157600080fd5b505af11580156111d5573d6000803e3d6000fd5b505050506111e03390565b6001600160a01b03167f48cac28ad4dc618e15f4c2dd5e97751182f166de97b25618318b2112aa951a2f836000015160405161121c91906123a6565b60405180910390a250505050565b7fcbaaf41b181bb6e269c490e876a7c97711b57e21dd8e5528423cf57579726b3561125481611ab4565b60c954604051636f77926b60e01b81526000916001600160a01b031690636f77926b90611285908690600401611eed565b600060405180830381865afa1580156112a2573d6000803e3d6000fd5b505050506040513d6000823e601f3d908101601f191682016040526112ca9190810190612292565b8051519091506000036112f0576040516365553c4160e11b815260040160405180910390fd5b6040810151151560010361131757604051631edcfb9f60e21b815260040160405180910390fd5b600160408083019190915260c954905163178682c160e01b81526001600160a01b039091169063178682c19061135390869085906004016124ff565b600060405180830381600087803b15801561136d57600080fd5b505af1158015611381573d6000803e3d6000fd5b50505050826001600160a01b03167f52b0aedf558ae7ca1fea6363c537e188e53ef8982b74a564ee8eeae39d68017a82600001518360600151846040015160006040516113d19493929190612566565b60405180910390a2505050565b60009182526065602090815260408084206001600160a01b0393909316845291905290205460ff1690565b600061141481611ab4565b60c954604051636f77926b60e01b81526000916001600160a01b031690636f77926b90611445908790600401611eed565b600060405180830381865afa158015611462573d6000803e3d6000fd5b505050506040513d6000823e601f3d908101601f1916820160405261148a9190810190612292565b8051519091506000036114b0576040516365553c4160e11b815260040160405180910390fd5b8251156114bb578281525b60c95460405163178682c160e01b81526001600160a01b039091169063178682c1906114ed90879085906004016124ff565b600060405180830381600087803b15801561150757600080fd5b505af115801561151b573d6000803e3d6000fd5b50505050836001600160a01b03167f52b0aedf558ae7ca1fea6363c537e188e53ef8982b74a564ee8eeae39d68017a826000015183606001518460400151600060405161121c9493929190612566565b7f0ce23c3e399818cfee81a7ab0880f714e53d7672b08df0fa62f2843416e1ea0961159581611ab4565b60c954604051631c2e21b960e11b815284916000916001600160a01b039091169063385c4372906115ca9085906004016123a6565b606060405180830381865afa1580156115e7573d6000803e3d6000fd5b505050506040513d601f19601f8201168201806040525081019061160b91906123b9565b80519091506001600160a01b03166116365760405163014eb98760e11b815260040160405180910390fd5b6040810151151560000361165d5760405163014eb98760e11b815260040160405180910390fd5b8060200151156116805760405163526e73a560e01b815260040160405180910390fd5b60c954604051636f77926b60e01b815287916000916001600160a01b0390911690636f77926b906116b5908590600401611eed565b600060405180830381865afa1580156116d2573d6000803e3d6000fd5b505050506040513d6000823e601f3d908101601f191682016040526116fa9190810190612292565b8051519091506000036117205760405163ce848fe360e01b815260040160405180910390fd5b60c954604051631c2e21b960e11b81526000916001600160a01b03169063385c437290611751908b906004016123a6565b606060405180830381865afa15801561176e573d6000803e3d6000fd5b505050506040513d601f19601f8201168201806040525081019061179291906123b9565b805160405163130bd93f60e01b81526001600160a01b038c811660048301528a1515602483015292935091169063130bd93f90604401600060405180830381600087803b1580156117e257600080fd5b505af11580156117f6573d6000803e3d6000fd5b50505050886001600160a01b03167fdea1140938dde90016dc539563f1fa2f3f675e2cdee8d0c6a7999e1830cc81be8989604051611835929190612597565b60405180910390a2505050505050505050565b60008281526065602052604090206001015461186381611ab4565b610c078383611b44565b60c954604051631c2e21b960e11b8152600091839183916001600160a01b03169063385c4372906118a29085906004016123a6565b606060405180830381865afa1580156118bf573d6000803e3d6000fd5b505050506040513d601f19601f820116820180604052508101906118e391906123b9565b80519091506001600160a01b031661190e5760405163014eb98760e11b815260040160405180910390fd5b604081015115156000036119355760405163014eb98760e11b815260040160405180910390fd5b8060200151156119585760405163526e73a560e01b815260040160405180910390fd5b60c954604051631c2e21b960e11b81526000916001600160a01b03169063385c4372906119899088906004016123a6565b606060405180830381865afa1580156119a6573d6000803e3d6000fd5b505050506040513d601f19601f820116820180604052508101906119ca91906123b9565b905080600001516001600160a01b0316637657dbdd6040518163ffffffff1660e01b8152600401602060405180830381865afa158015611a0e573d6000803e3d6000fd5b505050506040513d601f19601f82011682018060405250810190611a329190612447565b95945050505050565b611a43611bda565b6001600160a01b038116611aa85760405162461bcd60e51b815260206004820152602660248201527f4f776e61626c653a206e6577206f776e657220697320746865207a65726f206160448201526564647265737360d01b6064820152608401610c78565b611ab181611c34565b50565b611ab18133611c86565b611ac882826113de565b610c8b5760008281526065602090815260408083206001600160a01b03851684529091529020805460ff19166001179055611b003390565b6001600160a01b0316816001600160a01b0316837f2f8788117e7eff1d82e926ec794901d17c78024a50270940304540a733656f0d60405160405180910390a45050565b611b4e82826113de565b15610c8b5760008281526065602090815260408083206001600160a01b0385168085529252808320805460ff1916905551339285917ff6391f5c32d9c69d2a47ea670b442974b53935d1edc7fd64eb21e047a839171b9190a45050565b600054610100900460ff16611bd25760405162461bcd60e51b8152600401610c78906125bb565b610f11611cdf565b6097546001600160a01b03163314610f115760405162461bcd60e51b815260206004820181905260248201527f4f776e61626c653a2063616c6c6572206973206e6f7420746865206f776e65726044820152606401610c78565b609780546001600160a01b038381166001600160a01b0319831681179093556040519116919082907f8be0079c531659141344cd1fd0a4f28419497f9722a3daafe3b4186f6b6457e090600090a35050565b611c9082826113de565b610c8b57611c9d81611d0f565b611ca8836020611d21565b604051602001611cb9929190612606565b60408051601f198184030181529082905262461bcd60e51b8252610c78916004016123a6565b600054610100900460ff16611d065760405162461bcd60e51b8152600401610c78906125bb565b610f1133611c34565b606061050b6001600160a01b03831660145b60606000611d3083600261268b565b611d3b9060026126a2565b6001600160401b03811115611d5257611d52611f01565b6040519080825280601f01601f191660200182016040528015611d7c576020820181803683370190505b509050600360fc1b81600081518110611d9757611d976126b5565b60200101906001600160f81b031916908160001a905350600f60fb1b81600181518110611dc657611dc66126b5565b60200101906001600160f81b031916908160001a9053506000611dea84600261268b565b611df59060016126a2565b90505b6001811115611e6d576f181899199a1a9b1b9c1cb0b131b232b360811b85600f1660108110611e2957611e296126b5565b1a60f81b828281518110611e3f57611e3f6126b5565b60200101906001600160f81b031916908160001a90535060049490941c93611e66816126cb565b9050611df8565b508315611ebc5760405162461bcd60e51b815260206004820181905260248201527f537472696e67733a20686578206c656e67746820696e73756666696369656e746044820152606401610c78565b9392505050565b600060208284031215611ed557600080fd5b81356001600160e01b031981168114611ebc57600080fd5b6001600160a01b0391909116815260200190565b634e487b7160e01b600052604160045260246000fd5b60405160a081016001600160401b0381118282101715611f3957611f39611f01565b60405290565b604051601f8201601f191681016001600160401b0381118282101715611f6757611f67611f01565b604052919050565b60006001600160401b03821115611f8857611f88611f01565b50601f01601f191660200190565b600082601f830112611fa757600080fd5b8135611fba611fb582611f6f565b611f3f565b818152846020838601011115611fcf57600080fd5b816020850160208301376000918101602001919091529392505050565b60008060408385031215611fff57600080fd5b82356001600160401b038082111561201657600080fd5b61202286838701611f96565b9350602085013591508082111561203857600080fd5b5061204585828601611f96565b9150509250929050565b60006020828403121561206157600080fd5b5035919050565b6001600160a01b0381168114611ab157600080fd5b6000806040838503121561209057600080fd5b823561209b81612068565b915060208301356001600160401b038111156120b657600080fd5b61204585828601611f96565b600080604083850312156120d557600080fd5b8235915060208301356120e781612068565b809150509250929050565b6000806040838503121561210557600080fd5b823561211081612068565b915060208301356120e781612068565b8015158114611ab157600080fd5b6000806040838503121561214157600080fd5b823561214c81612068565b915060208301356120e781612120565b6000806040838503121561216f57600080fd5b82356001600160401b0381111561218557600080fd5b61219185828601611f96565b92505060208301356120e781612120565b6000602082840312156121b457600080fd5b8135611ebc81612068565b6000806000606084860312156121d457600080fd5b83356121df81612068565b925060208401356001600160401b038111156121fa57600080fd5b61220686828701611f96565b925050604084013561221781612120565b809150509250925092565b60006020828403121561223457600080fd5b81356001600160401b0381111561224a57600080fd5b61225684828501611f96565b949350505050565b60005b83811015612279578181015183820152602001612261565b50506000910152565b805161228d81612120565b919050565b600060208083850312156122a557600080fd5b82516001600160401b03808211156122bc57600080fd5b9084019060a082870312156122d057600080fd5b6122d8611f17565b8251828111156122e757600080fd5b83019150601f820187136122fa57600080fd5b8151612308611fb582611f6f565b818152888683860101111561231c57600080fd5b61232b8287830188870161225e565b825250612339838501612282565b8482015261234960408401612282565b604082015261235a60608401612282565b606082015261236b60808401612282565b60808201529695505050505050565b6000815180845261239281602086016020860161225e565b601f01601f19169290920160200192915050565b602081526000611ebc602083018461237a565b6000606082840312156123cb57600080fd5b604051606081018181106001600160401b03821117156123ed576123ed611f01565b60405282516123fb81612068565b8152602083015161240b81612120565b6020820152604083015161241e81612120565b60408201529392505050565b60006020828403121561243c57600080fd5b8151611ebc81612068565b60006020828403121561245957600080fd5b5051919050565b60018060a01b0384168152826020820152606060408201526000611a32606083018461237a565b6001600160a01b03841681526060602082018190526000906124ab9083018561237a565b8281036040840152610bd8818561237a565b6040815260006124d0604083018561237a565b8281036020840152611a32818561237a565b6000602082840312156124f457600080fd5b8151611ebc81612120565b60018060a01b0383168152604060208201526000825160a0604084015261252960e084018261237a565b90506020840151151560608401526040840151151560808401526060840151151560a08401526080840151151560c0840152809150509392505050565b608081526000612579608083018761237a565b94151560208301525091151560408301521515606090910152919050565b6040815260006125aa604083018561237a565b905082151560208301529392505050565b6020808252602b908201527f496e697469616c697a61626c653a20636f6e7472616374206973206e6f74206960408201526a6e697469616c697a696e6760a81b606082015260800190565b76020b1b1b2b9b9a1b7b73a3937b61d1030b1b1b7bab73a1604d1b81526000835161263881601785016020880161225e565b7001034b99036b4b9b9b4b733903937b6329607d1b601791840191820152835161266981602884016020880161225e565b01602801949350505050565b634e487b7160e01b600052601160045260246000fd5b808202811582820484141761050b5761050b612675565b8082018082111561050b5761050b612675565b634e487b7160e01b600052603260045260246000fd5b6000816126da576126da612675565b50600019019056fea264697066735822122007f74ea14d385933168f21a7ece1c8eb057d93bdbf1cf17b79030837b8a5f92864736f6c63430008110033",
  "linkReferences": {},
  "deployedLinkReferences": {}
}