{
  "_format": "hh-sol-artifact-1",
  "contractName": "TheBadgeModels",
  "sourceName": "src/contracts/thebadge/TheBadgeModels.sol",
  "abi": [
    {
      "inputs": [],
      "stateMutability": "nonpayable",
      "type": "constructor"
    },
    {
      "inputs": [],
      "name": "TheBadge__addBadgeModelController_alreadySet",
      "type": "error"
    },
    {
      "inputs": [],
      "name": "TheBadge__addBadgeModelController_emptyName",
      "type": "error"
    },
    {
      "inputs": [],
      "name": "TheBadge__badgeModel_badgeModelNotFound",
      "type": "error"
    },
    {
      "inputs": [],
      "name": "TheBadge__controller_controllerIsPaused",
      "type": "error"
    },
    {
      "inputs": [],
      "name": "TheBadge__controller_invalidController",
      "type": "error"
    },
    {
      "inputs": [],
      "name": "TheBadge__createBadgeModel_wrongValue",
      "type": "error"
    },
    {
      "inputs": [],
      "name": "TheBadge__method_not_supported",
      "type": "error"
    },
    {
      "inputs": [],
      "name": "TheBadge__onlyCreator_creatorIsSuspended",
      "type": "error"
    },
    {
      "inputs": [],
      "name": "TheBadge__onlyCreator_senderIsNotACreator",
      "type": "error"
    },
    {
      "inputs": [],
      "name": "TheBadge__onlyUser_userNotFound",
      "type": "error"
    },
    {
      "inputs": [],
      "name": "TheBadge__updateBadgeModel_badgeModelNotFound",
      "type": "error"
    },
    {
      "inputs": [],
      "name": "TheBadge__updateBadgeModel_notBadgeModelOwner",
      "type": "error"
    },
    {
      "anonymous": false,
      "inputs": [
        {
          "indexed": true,
          "internalType": "string",
          "name": "controllerName",
          "type": "string"
        },
        {
          "indexed": true,
          "internalType": "address",
          "name": "controllerAddress",
          "type": "address"
        }
      ],
      "name": "BadgeModelControllerAdded",
      "type": "event"
    },
    {
      "anonymous": false,
      "inputs": [
        {
          "indexed": true,
          "internalType": "uint256",
          "name": "badgeModelId",
          "type": "uint256"
        },
        {
          "indexed": false,
          "internalType": "string",
          "name": "metadata",
          "type": "string"
        }
      ],
      "name": "BadgeModelCreated",
      "type": "event"
    },
    {
      "anonymous": false,
      "inputs": [
        {
          "indexed": true,
          "internalType": "uint256",
          "name": "badgeModelId",
          "type": "uint256"
        }
      ],
      "name": "BadgeModelUpdated",
      "type": "event"
    },
    {
      "anonymous": false,
      "inputs": [
        {
          "indexed": false,
          "internalType": "uint8",
          "name": "version",
          "type": "uint8"
        }
      ],
      "name": "Initialized",
      "type": "event"
    },
    {
      "anonymous": false,
      "inputs": [
        {
          "indexed": true,
          "internalType": "address",
          "name": "previousOwner",
          "type": "address"
        },
        {
          "indexed": true,
          "internalType": "address",
          "name": "newOwner",
          "type": "address"
        }
      ],
      "name": "OwnershipTransferred",
      "type": "event"
    },
    {
      "anonymous": false,
      "inputs": [
        {
          "indexed": true,
          "internalType": "bytes32",
          "name": "role",
          "type": "bytes32"
        },
        {
          "indexed": true,
          "internalType": "bytes32",
          "name": "previousAdminRole",
          "type": "bytes32"
        },
        {
          "indexed": true,
          "internalType": "bytes32",
          "name": "newAdminRole",
          "type": "bytes32"
        }
      ],
      "name": "RoleAdminChanged",
      "type": "event"
    },
    {
      "anonymous": false,
      "inputs": [
        {
          "indexed": true,
          "internalType": "bytes32",
          "name": "role",
          "type": "bytes32"
        },
        {
          "indexed": true,
          "internalType": "address",
          "name": "account",
          "type": "address"
        },
        {
          "indexed": true,
          "internalType": "address",
          "name": "sender",
          "type": "address"
        }
      ],
      "name": "RoleGranted",
      "type": "event"
    },
    {
      "anonymous": false,
      "inputs": [
        {
          "indexed": true,
          "internalType": "bytes32",
          "name": "role",
          "type": "bytes32"
        },
        {
          "indexed": true,
          "internalType": "address",
          "name": "account",
          "type": "address"
        },
        {
          "indexed": true,
          "internalType": "address",
          "name": "sender",
          "type": "address"
        }
      ],
      "name": "RoleRevoked",
      "type": "event"
    },
    {
      "inputs": [],
      "name": "CLAIMER_ROLE",
      "outputs": [
        {
          "internalType": "bytes32",
          "name": "",
          "type": "bytes32"
        }
      ],
      "stateMutability": "view",
      "type": "function"
    },
    {
      "inputs": [],
      "name": "DEFAULT_ADMIN_ROLE",
      "outputs": [
        {
          "internalType": "bytes32",
          "name": "",
          "type": "bytes32"
        }
      ],
      "stateMutability": "view",
      "type": "function"
    },
    {
      "inputs": [],
      "name": "PAUSER_ROLE",
      "outputs": [
        {
          "internalType": "bytes32",
          "name": "",
          "type": "bytes32"
        }
      ],
      "stateMutability": "view",
      "type": "function"
    },
    {
      "inputs": [],
      "name": "UPGRADER_ROLE",
      "outputs": [
        {
          "internalType": "bytes32",
          "name": "",
          "type": "bytes32"
        }
      ],
      "stateMutability": "view",
      "type": "function"
    },
    {
      "inputs": [],
      "name": "URI_SETTER_ROLE",
      "outputs": [
        {
          "internalType": "bytes32",
          "name": "",
          "type": "bytes32"
        }
      ],
      "stateMutability": "view",
      "type": "function"
    },
    {
      "inputs": [],
      "name": "USER_MANAGER_ROLE",
      "outputs": [
        {
          "internalType": "bytes32",
          "name": "",
          "type": "bytes32"
        }
      ],
      "stateMutability": "view",
      "type": "function"
    },
    {
      "inputs": [],
      "name": "VERIFIER_ROLE",
      "outputs": [
        {
          "internalType": "bytes32",
          "name": "",
          "type": "bytes32"
        }
      ],
      "stateMutability": "view",
      "type": "function"
    },
    {
      "inputs": [],
      "name": "_badgeStore",
      "outputs": [
        {
          "internalType": "contract TheBadgeStore",
          "name": "",
          "type": "address"
        }
      ],
      "stateMutability": "view",
      "type": "function"
    },
    {
      "inputs": [],
      "name": "_theBadgeUsers",
      "outputs": [
        {
          "internalType": "contract TheBadgeUsers",
          "name": "",
          "type": "address"
        }
      ],
      "stateMutability": "view",
      "type": "function"
    },
    {
      "inputs": [
        {
          "internalType": "string",
          "name": "controllerName",
          "type": "string"
        },
        {
          "internalType": "address",
          "name": "controllerAddress",
          "type": "address"
        }
      ],
      "name": "addBadgeModelController",
      "outputs": [],
      "stateMutability": "nonpayable",
      "type": "function"
    },
    {
      "inputs": [
        {
          "components": [
            {
              "internalType": "string",
              "name": "metadata",
              "type": "string"
            },
            {
              "internalType": "string",
              "name": "controllerName",
              "type": "string"
            },
            {
              "internalType": "uint256",
              "name": "mintCreatorFee",
              "type": "uint256"
            },
            {
              "internalType": "uint256",
              "name": "validFor",
              "type": "uint256"
            }
          ],
          "internalType": "struct TheBadgeStore.CreateBadgeModel",
          "name": "args",
          "type": "tuple"
        },
        {
          "internalType": "bytes",
          "name": "data",
          "type": "bytes"
        }
      ],
      "name": "createBadgeModel",
      "outputs": [],
      "stateMutability": "payable",
      "type": "function"
    },
    {
      "inputs": [
        {
          "internalType": "bytes32",
          "name": "role",
          "type": "bytes32"
        }
      ],
      "name": "getRoleAdmin",
      "outputs": [
        {
          "internalType": "bytes32",
          "name": "",
          "type": "bytes32"
        }
      ],
      "stateMutability": "view",
      "type": "function"
    },
    {
      "inputs": [
        {
          "internalType": "bytes32",
          "name": "role",
          "type": "bytes32"
        },
        {
          "internalType": "address",
          "name": "account",
          "type": "address"
        }
      ],
      "name": "grantRole",
      "outputs": [],
      "stateMutability": "nonpayable",
      "type": "function"
    },
    {
      "inputs": [
        {
          "internalType": "bytes32",
          "name": "role",
          "type": "bytes32"
        },
        {
          "internalType": "address",
          "name": "account",
          "type": "address"
        }
      ],
      "name": "hasRole",
      "outputs": [
        {
          "internalType": "bool",
          "name": "",
          "type": "bool"
        }
      ],
      "stateMutability": "view",
      "type": "function"
    },
    {
      "inputs": [
        {
          "internalType": "address",
          "name": "admin",
          "type": "address"
        },
        {
          "internalType": "address",
          "name": "badgeStore",
          "type": "address"
        },
        {
          "internalType": "address",
          "name": "badgeUsers",
          "type": "address"
        }
      ],
      "name": "initialize",
      "outputs": [],
      "stateMutability": "nonpayable",
      "type": "function"
    },
    {
      "inputs": [
        {
          "internalType": "uint256",
          "name": "badgeModelId",
          "type": "uint256"
        }
      ],
      "name": "isBadgeModelSuspended",
      "outputs": [
        {
          "internalType": "bool",
          "name": "",
          "type": "bool"
        }
      ],
      "stateMutability": "view",
      "type": "function"
    },
    {
      "inputs": [],
      "name": "owner",
      "outputs": [
        {
          "internalType": "address",
          "name": "",
          "type": "address"
        }
      ],
      "stateMutability": "view",
      "type": "function"
    },
    {
      "inputs": [],
      "name": "renounceOwnership",
      "outputs": [],
      "stateMutability": "nonpayable",
      "type": "function"
    },
    {
      "inputs": [
        {
          "internalType": "bytes32",
          "name": "role",
          "type": "bytes32"
        },
        {
          "internalType": "address",
          "name": "account",
          "type": "address"
        }
      ],
      "name": "renounceRole",
      "outputs": [],
      "stateMutability": "nonpayable",
      "type": "function"
    },
    {
      "inputs": [
        {
          "internalType": "bytes32",
          "name": "role",
          "type": "bytes32"
        },
        {
          "internalType": "address",
          "name": "account",
          "type": "address"
        }
      ],
      "name": "revokeRole",
      "outputs": [],
      "stateMutability": "nonpayable",
      "type": "function"
    },
    {
      "inputs": [
        {
          "internalType": "bytes4",
          "name": "interfaceId",
          "type": "bytes4"
        }
      ],
      "name": "supportsInterface",
      "outputs": [
        {
          "internalType": "bool",
          "name": "",
          "type": "bool"
        }
      ],
      "stateMutability": "view",
      "type": "function"
    },
    {
      "inputs": [],
      "name": "suspendBadgeModel",
      "outputs": [],
      "stateMutability": "view",
      "type": "function"
    },
    {
      "inputs": [
        {
          "internalType": "address",
          "name": "newOwner",
          "type": "address"
        }
      ],
      "name": "transferOwnership",
      "outputs": [],
      "stateMutability": "nonpayable",
      "type": "function"
    },
    {
      "inputs": [
        {
          "internalType": "uint256",
          "name": "badgeModelId",
          "type": "uint256"
        },
        {
          "internalType": "uint256",
          "name": "mintCreatorFee",
          "type": "uint256"
        },
        {
          "internalType": "bool",
          "name": "paused",
          "type": "bool"
        }
      ],
      "name": "updateBadgeModel",
      "outputs": [],
      "stateMutability": "nonpayable",
      "type": "function"
    },
    {
      "inputs": [
        {
          "internalType": "uint256",
          "name": "badgeModelId",
          "type": "uint256"
        },
        {
          "internalType": "uint256",
          "name": "feeInBps",
          "type": "uint256"
        }
      ],
      "name": "updateBadgeModelProtocolFee",
      "outputs": [],
      "stateMutability": "nonpayable",
      "type": "function"
    },
    {
      "stateMutability": "payable",
      "type": "receive"
    }
  ],
  "bytecode": "0x608060405234801561001057600080fd5b5061001961001e565b6100dd565b600054610100900460ff161561008a5760405162461bcd60e51b815260206004820152602760248201527f496e697469616c697a61626c653a20636f6e747261637420697320696e697469604482015266616c697a696e6760c81b606482015260840160405180910390fd5b60005460ff908116146100db576000805460ff191660ff9081179091556040519081527f7f26b83ff96e1f2b6a682f133852f6798a09c465da95921460cefb38474024989060200160405180910390a15b565b61235a80620000ed6000396000f3fe60806040526004361061013a5760003560e01c8063a217fddf116100b1578063a217fddf146102f7578063a41e35c31461030c578063c0a39d1214610340578063c0c53b8b14610360578063c227fb1114610380578063d547741f146103a0578063e5088cdf146103c0578063e63ab1e9146103e0578063e7705db614610414578063ede37dd414610448578063f2fde38b14610468578063f72c0d8b14610488578063fc5f18d3146104bc57600080fd5b806301ffc9a71461014657806319b50c2a1461017b5780631adb7682146101a8578063248a9ca3146101ca5780632f2ff15d1461020857806336568abe1461022857806341954e0914610248578063715018a61461025d5780637f34571014610272578063828efb25146102a65780638da5cb5b146102b957806391d14854146102d757600080fd5b3661014157005b600080fd5b34801561015257600080fd5b50610166610161366004611a14565b6104f0565b60405190151581526020015b60405180910390f35b34801561018757600080fd5b5060c95461019b906001600160a01b031681565b6040516101729190611a3e565b3480156101b457600080fd5b506101c86101c3366004611a60565b610527565b005b3480156101d657600080fd5b506101fa6101e5366004611a99565b60009081526065602052604090206001015490565b604051908152602001610172565b34801561021457600080fd5b506101c8610223366004611ac7565b610830565b34801561023457600080fd5b506101c8610243366004611ac7565b61085a565b34801561025457600080fd5b506101c86108dd565b34801561026957600080fd5b506101c8610901565b34801561027e57600080fd5b506101fa7f7804d923f43a17d325d77e781528e0793b2edd9890ab45fc64efd7b4b427744c81565b6101c86102b4366004611c27565b610915565b3480156102c557600080fd5b506097546001600160a01b031661019b565b3480156102e357600080fd5b506101666102f2366004611ac7565b610fb4565b34801561030357600080fd5b506101fa600081565b34801561031857600080fd5b506101fa7fcbaaf41b181bb6e269c490e876a7c97711b57e21dd8e5528423cf57579726b3581565b34801561034c57600080fd5b506101c861035b366004611cf2565b610fdf565b34801561036c57600080fd5b506101c861037b366004611d38565b611197565b34801561038c57600080fd5b5061016661039b366004611a99565b6112e6565b3480156103ac57600080fd5b506101c86103bb366004611ac7565b611423565b3480156103cc57600080fd5b5060ca5461019b906001600160a01b031681565b3480156103ec57600080fd5b506101fa7f65d7a28e3265b37a6474929f336521b332c1681b933f6cb9f3376673440d862a81565b34801561042057600080fd5b506101fa7f0ce23c3e399818cfee81a7ab0880f714e53d7672b08df0fa62f2843416e1ea0981565b34801561045457600080fd5b506101c8610463366004611d78565b611448565b34801561047457600080fd5b506101c8610483366004611d9a565b61158c565b34801561049457600080fd5b506101fa7f189ab7a9244df0848122154315af71fe140f3db0fe014031783b0946b8c9d2e381565b3480156104c857600080fd5b506101fa7f11a8cb5a02bd6c42679835e867ef2118ba78f088f8300511420c6603c21d9c7881565b60006001600160e01b03198216637965db0b60e01b148061052157506301ffc9a760e01b6001600160e01b03198316145b92915050565b823360c954604051636f77926b60e01b81526000916001600160a01b031690636f77926b9061055a908590600401611a3e565b600060405180830381865afa158015610577573d6000803e3d6000fd5b505050506040513d6000823e601f3d908101601f1916820160405261059f9190810190611e38565b60c95460405163f2be2c8560e01b8152600481018690529192506000916001600160a01b039091169063f2be2c8590602401600060405180830381865afa1580156105ee573d6000803e3d6000fd5b505050506040513d6000823e601f3d908101601f191682016040526106169190810190611f08565b82515190915060000361063c57604051638fcc03fd60e01b815260040160405180910390fd5b6040820151151560000361066357604051638fcc03fd60e01b815260040160405180910390fd5b6060820151151560010361068a5760405163401d786960e11b815260040160405180910390fd5b80516001600160a01b03166106b257604051638fa97ef960e01b815260040160405180910390fd5b826001600160a01b031681600001516001600160a01b0316146106e85760405163806ecc4960e01b815260040160405180910390fd5b60c95460405163f2be2c8560e01b8152600481018990526000916001600160a01b03169063f2be2c8590602401600060405180830381865afa158015610732573d6000803e3d6000fd5b505050506040513d6000823e601f3d908101601f1916820160405261075a9190810190611f08565b80519091506001600160a01b0316610785576040516336f7ce4f60e11b815260040160405180910390fd5b6060810187905285151560408083019190915260c954905163c956ebd960e01b81526001600160a01b039091169063c956ebd9906107c9908b90859060040161209f565b600060405180830381600087803b1580156107e357600080fd5b505af11580156107f7573d6000803e3d6000fd5b50506040518a92507fc7fe3866a4edc843062ecfa12604d4a6686605fb2bd8a2323d96dc40c08d9e3d9150600090a25050505050505050565b60008281526065602052604090206001015461084b81611605565b610855838361160f565b505050565b6001600160a01b03811633146108cf5760405162461bcd60e51b815260206004820152602f60248201527f416363657373436f6e74726f6c3a2063616e206f6e6c792072656e6f756e636560448201526e103937b632b9903337b91039b2b63360891b60648201526084015b60405180910390fd5b6108d98282611695565b5050565b60006108e881611605565b60405163aaa2c00360e01b815260040160405180910390fd5b6109096116fc565b6109136000611756565b565b3360c954604051636f77926b60e01b81526000916001600160a01b031690636f77926b90610947908590600401611a3e565b600060405180830381865afa158015610964573d6000803e3d6000fd5b505050506040513d6000823e601f3d908101601f1916820160405261098c9190810190611e38565b8051519091506000036109b25760405163ce848fe360e01b815260040160405180910390fd5b602084015160c954604051631c2e21b960e11b81526000916001600160a01b03169063385c4372906109e89085906004016120b8565b606060405180830381865afa158015610a05573d6000803e3d6000fd5b505050506040513d601f19601f82011682018060405250810190610a2991906120cb565b80519091506001600160a01b0316610a545760405163014eb98760e11b815260040160405180910390fd5b60408101511515600003610a7b5760405163014eb98760e11b815260040160405180910390fd5b806020015115610a9e5760405163526e73a560e01b815260040160405180910390fd5b60c954604080516364d8baef60e01b815290516000926001600160a01b0316916364d8baef9160048083019260209291908290030181865afa158015610ae8573d6000803e3d6000fd5b505050506040513d601f19601f82011682018060405250810190610b0c919061213c565b905080341015610b2f5760405163043f7a7d60e21b815260040160405180910390fd5b60c954604080516331056e5760e21b815290516000926001600160a01b03169163c415b95c9160048083019260209291908290030181865afa158015610b79573d6000803e3d6000fd5b505050506040513d601f19601f82011682018060405250810190610b9d9190612155565b90503415610bdc576040516001600160a01b038216903480156108fc02916000818181858888f19350505050158015610bda573d6000803e3d6000fd5b505b60c9546040805163272f675760e11b815290516000926001600160a01b031691634e5eceae9160048083019260209291908290030181865afa158015610c26573d6000803e3d6000fd5b505050506040513d601f19601f82011682018060405250810190610c4a919061213c565b90506000604051806101000160405280610c613390565b6001600160a01b031681526020018b6020015181526020016000151581526020018b6040015181526020018b60600151815260200183815260200160011515815260200160405180604001604052806006815260200165076312e302e360d41b8152508152509050600060c960009054906101000a90046001600160a01b03166001600160a01b031663e7343c8a6040518163ffffffff1660e01b8152600401602060405180830381865afa158015610d1e573d6000803e3d6000fd5b505050506040513d601f19601f82011682018060405250810190610d42919061213c565b60c9546040516304db069f60e01b81529192506001600160a01b0316906304db069f90610d73908590600401612172565b600060405180830381600087803b158015610d8d57600080fd5b505af1158015610da1573d6000803e3d6000fd5b50505050807f584274d31df3e2cf85a9d6dfaf82b219994725ca486f214ef93fbec2d054dca08c60000151604051610dd991906120b8565b60405180910390a260c954604051636f77926b60e01b81526000916001600160a01b031690636f77926b90610e12903390600401611a3e565b600060405180830381865afa158015610e2f573d6000803e3d6000fd5b505050506040513d6000823e601f3d908101601f19168201604052610e579190810190611e38565b60408101519091501515600003610ec95760ca546001600160a01b0316638a4be490336040518263ffffffff1660e01b8152600401610e969190611a3e565b600060405180830381600087803b158015610eb057600080fd5b505af1158015610ec4573d6000803e3d6000fd5b505050505b60c95460208d0151604051631c2e21b960e11b81526000926001600160a01b03169163385c437291610efe91906004016120b8565b606060405180830381865afa158015610f1b573d6000803e3d6000fd5b505050506040513d601f19601f82011682018060405250810190610f3f91906120cb565b905080600001516001600160a01b03166377a3989e848e6040518363ffffffff1660e01b8152600401610f73929190612185565b600060405180830381600087803b158015610f8d57600080fd5b505af1158015610fa1573d6000803e3d6000fd5b5050505050505050505050505050505050565b60009182526065602090815260408084206001600160a01b0393909316845291905290205460ff1690565b6000610fea81611605565b60c954604051631c2e21b960e11b81526000916001600160a01b03169063385c43729061101b9087906004016120b8565b606060405180830381865afa158015611038573d6000803e3d6000fd5b505050506040513d601f19601f8201168201806040525081019061105c91906120cb565b9050835160000361108057604051635f0b636f60e11b815260040160405180910390fd5b6001600160a01b0383166110a7576040516336f7ce4f60e11b815260040160405180910390fd5b80516001600160a01b0316156110d057604051631192a36960e31b815260040160405180910390fd5b6001600160a01b03808416825260016040808401919091526000602084015260c95490516332c32c6360e11b815291169063658658c690611117908790859060040161219e565b600060405180830381600087803b15801561113157600080fd5b505af1158015611145573d6000803e3d6000fd5b50505050826001600160a01b03168460405161116191906121e1565b604051908190038120907fe5593a32c4e8802f5034c3eb5fb2d05210d31e05841af6500e5cac618d29605f90600090a350505050565b600054610100900460ff16158080156111b75750600054600160ff909116105b806111d15750303b1580156111d1575060005460ff166001145b6112345760405162461bcd60e51b815260206004820152602e60248201527f496e697469616c697a61626c653a20636f6e747261637420697320616c72656160448201526d191e481a5b9a5d1a585b1a5e995960921b60648201526084016108c6565b6000805460ff191660011790558015611257576000805461ff0019166101001790555b61125f6117a8565b61126a60008561160f565b60c980546001600160a01b038086166001600160a01b03199283161790925560ca80549285169290911691909117905580156112e0576000805461ff0019169055604051600181527f7f26b83ff96e1f2b6a682f133852f6798a09c465da95921460cefb38474024989060200160405180910390a15b50505050565b60c95460405163f2be2c8560e01b81526004810183905260009182916001600160a01b039091169063f2be2c8590602401600060405180830381865afa158015611334573d6000803e3d6000fd5b505050506040513d6000823e601f3d908101601f1916820160405261135c9190810190611f08565b80519091506001600160a01b0316611387576040516336f7ce4f60e11b815260040160405180910390fd5b60c9548151604051636f77926b60e01b81526000926001600160a01b031691636f77926b916113b99190600401611a3e565b600060405180830381865afa1580156113d6573d6000803e3d6000fd5b505050506040513d6000823e601f3d908101601f191682016040526113fe9190810190611e38565b60608101519091501515600103611419575060019392505050565b5060009392505050565b60008281526065602052604090206001015461143e81611605565b6108558383611695565b600061145381611605565b60c95460405163f2be2c8560e01b8152600481018590526000916001600160a01b03169063f2be2c8590602401600060405180830381865afa15801561149d573d6000803e3d6000fd5b505050506040513d6000823e601f3d908101601f191682016040526114c59190810190611f08565b80519091506001600160a01b03166114f0576040516336f7ce4f60e11b815260040160405180910390fd5b60a0810183905260c95460405163c956ebd960e01b81526001600160a01b039091169063c956ebd990611529908790859060040161209f565b600060405180830381600087803b15801561154357600080fd5b505af1158015611557573d6000803e3d6000fd5b50506040518692507fc7fe3866a4edc843062ecfa12604d4a6686605fb2bd8a2323d96dc40c08d9e3d9150600090a250505050565b6115946116fc565b6001600160a01b0381166115f95760405162461bcd60e51b815260206004820152602660248201527f4f776e61626c653a206e6577206f776e657220697320746865207a65726f206160448201526564647265737360d01b60648201526084016108c6565b61160281611756565b50565b61160281336117d7565b6116198282610fb4565b6108d95760008281526065602090815260408083206001600160a01b03851684529091529020805460ff191660011790556116513390565b6001600160a01b0316816001600160a01b0316837f2f8788117e7eff1d82e926ec794901d17c78024a50270940304540a733656f0d60405160405180910390a45050565b61169f8282610fb4565b156108d95760008281526065602090815260408083206001600160a01b0385168085529252808320805460ff1916905551339285917ff6391f5c32d9c69d2a47ea670b442974b53935d1edc7fd64eb21e047a839171b9190a45050565b6097546001600160a01b031633146109135760405162461bcd60e51b815260206004820181905260248201527f4f776e61626c653a2063616c6c6572206973206e6f7420746865206f776e657260448201526064016108c6565b609780546001600160a01b038381166001600160a01b0319831681179093556040519116919082907f8be0079c531659141344cd1fd0a4f28419497f9722a3daafe3b4186f6b6457e090600090a35050565b600054610100900460ff166117cf5760405162461bcd60e51b81526004016108c6906121fd565b610913611830565b6117e18282610fb4565b6108d9576117ee81611860565b6117f9836020611872565b60405160200161180a929190612248565b60408051601f198184030181529082905262461bcd60e51b82526108c6916004016120b8565b600054610100900460ff166118575760405162461bcd60e51b81526004016108c6906121fd565b61091333611756565b60606105216001600160a01b03831660145b606060006118818360026122cd565b61188c9060026122e4565b6001600160401b038111156118a3576118a3611af7565b6040519080825280601f01601f1916602001820160405280156118cd576020820181803683370190505b509050600360fc1b816000815181106118e8576118e86122f7565b60200101906001600160f81b031916908160001a905350600f60fb1b81600181518110611917576119176122f7565b60200101906001600160f81b031916908160001a905350600061193b8460026122cd565b6119469060016122e4565b90505b60018111156119be576f181899199a1a9b1b9c1cb0b131b232b360811b85600f166010811061197a5761197a6122f7565b1a60f81b828281518110611990576119906122f7565b60200101906001600160f81b031916908160001a90535060049490941c936119b78161230d565b9050611949565b508315611a0d5760405162461bcd60e51b815260206004820181905260248201527f537472696e67733a20686578206c656e67746820696e73756666696369656e7460448201526064016108c6565b9392505050565b600060208284031215611a2657600080fd5b81356001600160e01b031981168114611a0d57600080fd5b6001600160a01b0391909116815260200190565b801515811461160257600080fd5b600080600060608486031215611a7557600080fd5b83359250602084013591506040840135611a8e81611a52565b809150509250925092565b600060208284031215611aab57600080fd5b5035919050565b6001600160a01b038116811461160257600080fd5b60008060408385031215611ada57600080fd5b823591506020830135611aec81611ab2565b809150509250929050565b634e487b7160e01b600052604160045260246000fd5b604051608081016001600160401b0381118282101715611b2f57611b2f611af7565b60405290565b60405160a081016001600160401b0381118282101715611b2f57611b2f611af7565b60405161010081016001600160401b0381118282101715611b2f57611b2f611af7565b604051601f8201601f191681016001600160401b0381118282101715611ba257611ba2611af7565b604052919050565b60006001600160401b03821115611bc357611bc3611af7565b50601f01601f191660200190565b600082601f830112611be257600080fd5b8135611bf5611bf082611baa565b611b7a565b818152846020838601011115611c0a57600080fd5b816020850160208301376000918101602001919091529392505050565b60008060408385031215611c3a57600080fd5b82356001600160401b0380821115611c5157600080fd5b9084019060808287031215611c6557600080fd5b611c6d611b0d565b823582811115611c7c57600080fd5b611c8888828601611bd1565b825250602083013582811115611c9d57600080fd5b611ca988828601611bd1565b6020830152506040830135604082015260608301356060820152809450506020850135915080821115611cdb57600080fd5b50611ce885828601611bd1565b9150509250929050565b60008060408385031215611d0557600080fd5b82356001600160401b03811115611d1b57600080fd5b611d2785828601611bd1565b9250506020830135611aec81611ab2565b600080600060608486031215611d4d57600080fd5b8335611d5881611ab2565b92506020840135611d6881611ab2565b91506040840135611a8e81611ab2565b60008060408385031215611d8b57600080fd5b50508035926020909101359150565b600060208284031215611dac57600080fd5b8135611a0d81611ab2565b60005b83811015611dd2578181015183820152602001611dba565b50506000910152565b600082601f830112611dec57600080fd5b8151611dfa611bf082611baa565b818152846020838601011115611e0f57600080fd5b611e20826020830160208701611db7565b949350505050565b8051611e3381611a52565b919050565b600060208284031215611e4a57600080fd5b81516001600160401b0380821115611e6157600080fd5b9083019060a08286031215611e7557600080fd5b611e7d611b35565b825182811115611e8c57600080fd5b611e9887828601611ddb565b82525060208301519150611eab82611a52565b81602082015260408301519150611ec182611a52565b81604082015260608301519150611ed782611a52565b81606082015260808301519250611eed83611a52565b6080810192909252509392505050565b8051611e3381611ab2565b600060208284031215611f1a57600080fd5b81516001600160401b0380821115611f3157600080fd5b908301906101008286031215611f4657600080fd5b611f4e611b57565b611f5783611efd565b8152602083015182811115611f6b57600080fd5b611f7787828601611ddb565b602083015250611f8960408401611e28565b6040820152606083015160608201526080830151608082015260a083015160a0820152611fb860c08401611e28565b60c082015260e083015182811115611fcf57600080fd5b611fdb87828601611ddb565b60e08301525095945050505050565b60008151808452612002816020860160208601611db7565b601f01601f19169290920160200192915050565b600061010060018060a01b038351168452602083015181602086015261203e82860182611fea565b915050604083015115156040850152606083015160608501526080830151608085015260a083015160a085015260c083015161207e60c086018215159052565b5060e083015184820360e08601526120968282611fea565b95945050505050565b828152604060208201526000611e206040830184612016565b602081526000611a0d6020830184611fea565b6000606082840312156120dd57600080fd5b604051606081018181106001600160401b03821117156120ff576120ff611af7565b604052825161210d81611ab2565b8152602083015161211d81611a52565b6020820152604083015161213081611a52565b60408201529392505050565b60006020828403121561214e57600080fd5b5051919050565b60006020828403121561216757600080fd5b8151611a0d81611ab2565b602081526000611a0d6020830184612016565b828152604060208201526000611e206040830184611fea565b6080815260006121b16080830185611fea565b905060018060a01b0383511660208301526020830151151560408301526040830151151560608301529392505050565b600082516121f3818460208701611db7565b9190910192915050565b6020808252602b908201527f496e697469616c697a61626c653a20636f6e7472616374206973206e6f74206960408201526a6e697469616c697a696e6760a81b606082015260800190565b76020b1b1b2b9b9a1b7b73a3937b61d1030b1b1b7bab73a1604d1b81526000835161227a816017850160208801611db7565b7001034b99036b4b9b9b4b733903937b6329607d1b60179184019182015283516122ab816028840160208801611db7565b01602801949350505050565b634e487b7160e01b600052601160045260246000fd5b8082028115828204841417610521576105216122b7565b80820180821115610521576105216122b7565b634e487b7160e01b600052603260045260246000fd5b60008161231c5761231c6122b7565b50600019019056fea26469706673582212205fdac6fcfbacfc7d3a6929e357b13012d16e3f08e73873d925498d14e25cdf2364736f6c63430008110033",
  "linkReferences": {},
  "deployedLinkReferences": {}
}