{
  "_format": "hh-sol-artifact-1",
  "contractName": "TheBadgeModels",
  "sourceName": "src/contracts/thebadge/TheBadgeModels.sol",
  "abi": [
    {
      "inputs": [],
      "stateMutability": "nonpayable",
      "type": "constructor"
    },
    {
      "inputs": [],
      "name": "AccessControlBadConfirmation",
      "type": "error"
    },
    {
      "inputs": [
        {
          "internalType": "address",
          "name": "account",
          "type": "address"
        },
        {
          "internalType": "bytes32",
          "name": "neededRole",
          "type": "bytes32"
        }
      ],
      "name": "AccessControlUnauthorizedAccount",
      "type": "error"
    },
    {
      "inputs": [],
      "name": "InvalidInitialization",
      "type": "error"
    },
    {
      "inputs": [],
      "name": "NotInitializing",
      "type": "error"
    },
    {
      "inputs": [
        {
          "internalType": "address",
          "name": "owner",
          "type": "address"
        }
      ],
      "name": "OwnableInvalidOwner",
      "type": "error"
    },
    {
      "inputs": [
        {
          "internalType": "address",
          "name": "account",
          "type": "address"
        }
      ],
      "name": "OwnableUnauthorizedAccount",
      "type": "error"
    },
    {
      "inputs": [],
      "name": "TheBadge__addBadgeModelController_alreadySet",
      "type": "error"
    },
    {
      "inputs": [],
      "name": "TheBadge__addBadgeModelController_emptyName",
      "type": "error"
    },
    {
      "inputs": [],
      "name": "TheBadge__badgeModel_badgeModelNotFound",
      "type": "error"
    },
    {
      "inputs": [],
      "name": "TheBadge__badgeModel_badgeModelNotUpgradeable",
      "type": "error"
    },
    {
      "inputs": [],
      "name": "TheBadge__badgeModel_isSuspended",
      "type": "error"
    },
    {
      "inputs": [],
      "name": "TheBadge__controller_controllerIsPaused",
      "type": "error"
    },
    {
      "inputs": [],
      "name": "TheBadge__controller_invalidController",
      "type": "error"
    },
    {
      "inputs": [],
      "name": "TheBadge__createBadgeModel_wrongValue",
      "type": "error"
    },
    {
      "inputs": [],
      "name": "TheBadge__onlyCreator_senderIsNotACreator",
      "type": "error"
    },
    {
      "inputs": [],
      "name": "TheBadge__onlyUser_userNotFound",
      "type": "error"
    },
    {
      "inputs": [],
      "name": "TheBadge__updateBadgeModel_badgeModelNotFound",
      "type": "error"
    },
    {
      "inputs": [],
      "name": "TheBadge__updateBadgeModel_notBadgeModelOwner",
      "type": "error"
    },
    {
      "inputs": [],
      "name": "TheBadge__users__onlyCreator_creatorIsSuspended",
      "type": "error"
    },
    {
      "anonymous": false,
      "inputs": [
        {
          "indexed": true,
          "internalType": "string",
          "name": "controllerName",
          "type": "string"
        },
        {
          "indexed": true,
          "internalType": "address",
          "name": "controllerAddress",
          "type": "address"
        }
      ],
      "name": "BadgeModelControllerAdded",
      "type": "event"
    },
    {
      "anonymous": false,
      "inputs": [
        {
          "indexed": true,
          "internalType": "string",
          "name": "controllerName",
          "type": "string"
        },
        {
          "indexed": true,
          "internalType": "address",
          "name": "controllerAddress",
          "type": "address"
        }
      ],
      "name": "BadgeModelControllerUpdated",
      "type": "event"
    },
    {
      "anonymous": false,
      "inputs": [
        {
          "indexed": true,
          "internalType": "uint256",
          "name": "badgeModelId",
          "type": "uint256"
        }
      ],
      "name": "BadgeModelCreated",
      "type": "event"
    },
    {
      "anonymous": false,
      "inputs": [
        {
          "indexed": true,
          "internalType": "uint256",
          "name": "badgeModelId",
          "type": "uint256"
        },
        {
          "indexed": false,
          "internalType": "bool",
          "name": "suspended",
          "type": "bool"
        }
      ],
      "name": "BadgeModelSuspended",
      "type": "event"
    },
    {
      "anonymous": false,
      "inputs": [
        {
          "indexed": true,
          "internalType": "uint256",
          "name": "badgeModelId",
          "type": "uint256"
        }
      ],
      "name": "BadgeModelUpdated",
      "type": "event"
    },
    {
      "anonymous": false,
      "inputs": [
        {
          "indexed": true,
          "internalType": "uint256",
          "name": "badgeModelId",
          "type": "uint256"
        },
        {
          "indexed": true,
          "internalType": "uint256",
          "name": "newBadgeModelId",
          "type": "uint256"
        },
        {
          "indexed": true,
          "internalType": "uint256",
          "name": "version",
          "type": "uint256"
        }
      ],
      "name": "BadgeModelVersionUpdated",
      "type": "event"
    },
    {
      "anonymous": false,
      "inputs": [
        {
          "indexed": true,
          "internalType": "address",
          "name": "admin",
          "type": "address"
        }
      ],
      "name": "Initialize",
      "type": "event"
    },
    {
      "anonymous": false,
      "inputs": [
        {
          "indexed": false,
          "internalType": "uint64",
          "name": "version",
          "type": "uint64"
        }
      ],
      "name": "Initialized",
      "type": "event"
    },
    {
      "anonymous": false,
      "inputs": [
        {
          "indexed": true,
          "internalType": "address",
          "name": "previousOwner",
          "type": "address"
        },
        {
          "indexed": true,
          "internalType": "address",
          "name": "newOwner",
          "type": "address"
        }
      ],
      "name": "OwnershipTransferred",
      "type": "event"
    },
    {
      "anonymous": false,
      "inputs": [
        {
          "indexed": true,
          "internalType": "bytes32",
          "name": "role",
          "type": "bytes32"
        },
        {
          "indexed": true,
          "internalType": "bytes32",
          "name": "previousAdminRole",
          "type": "bytes32"
        },
        {
          "indexed": true,
          "internalType": "bytes32",
          "name": "newAdminRole",
          "type": "bytes32"
        }
      ],
      "name": "RoleAdminChanged",
      "type": "event"
    },
    {
      "anonymous": false,
      "inputs": [
        {
          "indexed": true,
          "internalType": "bytes32",
          "name": "role",
          "type": "bytes32"
        },
        {
          "indexed": true,
          "internalType": "address",
          "name": "account",
          "type": "address"
        },
        {
          "indexed": true,
          "internalType": "address",
          "name": "sender",
          "type": "address"
        }
      ],
      "name": "RoleGranted",
      "type": "event"
    },
    {
      "anonymous": false,
      "inputs": [
        {
          "indexed": true,
          "internalType": "bytes32",
          "name": "role",
          "type": "bytes32"
        },
        {
          "indexed": true,
          "internalType": "address",
          "name": "account",
          "type": "address"
        },
        {
          "indexed": true,
          "internalType": "address",
          "name": "sender",
          "type": "address"
        }
      ],
      "name": "RoleRevoked",
      "type": "event"
    },
    {
      "inputs": [],
      "name": "CLAIMER_ROLE",
      "outputs": [
        {
          "internalType": "bytes32",
          "name": "",
          "type": "bytes32"
        }
      ],
      "stateMutability": "view",
      "type": "function"
    },
    {
      "inputs": [],
      "name": "DEFAULT_ADMIN_ROLE",
      "outputs": [
        {
          "internalType": "bytes32",
          "name": "",
          "type": "bytes32"
        }
      ],
      "stateMutability": "view",
      "type": "function"
    },
    {
      "inputs": [],
      "name": "PAUSER_ROLE",
      "outputs": [
        {
          "internalType": "bytes32",
          "name": "",
          "type": "bytes32"
        }
      ],
      "stateMutability": "view",
      "type": "function"
    },
    {
      "inputs": [],
      "name": "UPGRADER_ROLE",
      "outputs": [
        {
          "internalType": "bytes32",
          "name": "",
          "type": "bytes32"
        }
      ],
      "stateMutability": "view",
      "type": "function"
    },
    {
      "inputs": [],
      "name": "URI_SETTER_ROLE",
      "outputs": [
        {
          "internalType": "bytes32",
          "name": "",
          "type": "bytes32"
        }
      ],
      "stateMutability": "view",
      "type": "function"
    },
    {
      "inputs": [],
      "name": "USER_MANAGER_ROLE",
      "outputs": [
        {
          "internalType": "bytes32",
          "name": "",
          "type": "bytes32"
        }
      ],
      "stateMutability": "view",
      "type": "function"
    },
    {
      "inputs": [],
      "name": "VERIFIER_ROLE",
      "outputs": [
        {
          "internalType": "bytes32",
          "name": "",
          "type": "bytes32"
        }
      ],
      "stateMutability": "view",
      "type": "function"
    },
    {
      "inputs": [],
      "name": "_badgeStore",
      "outputs": [
        {
          "internalType": "contract TheBadgeStore",
          "name": "",
          "type": "address"
        }
      ],
      "stateMutability": "view",
      "type": "function"
    },
    {
      "inputs": [],
      "name": "_theBadgeUsers",
      "outputs": [
        {
          "internalType": "contract TheBadgeUsers",
          "name": "",
          "type": "address"
        }
      ],
      "stateMutability": "view",
      "type": "function"
    },
    {
      "inputs": [
        {
          "internalType": "string",
          "name": "controllerName",
          "type": "string"
        },
        {
          "internalType": "address",
          "name": "controllerAddress",
          "type": "address"
        }
      ],
      "name": "addBadgeModelController",
      "outputs": [],
      "stateMutability": "nonpayable",
      "type": "function"
    },
    {
      "inputs": [
        {
          "components": [
            {
              "internalType": "string",
              "name": "metadata",
              "type": "string"
            },
            {
              "internalType": "string",
              "name": "controllerName",
              "type": "string"
            },
            {
              "internalType": "uint256",
              "name": "mintCreatorFee",
              "type": "uint256"
            },
            {
              "internalType": "uint256",
              "name": "validFor",
              "type": "uint256"
            }
          ],
          "internalType": "struct TheBadgeStore.CreateBadgeModel",
          "name": "args",
          "type": "tuple"
        },
        {
          "internalType": "bytes",
          "name": "data",
          "type": "bytes"
        }
      ],
      "name": "createBadgeModel",
      "outputs": [],
      "stateMutability": "payable",
      "type": "function"
    },
    {
      "inputs": [
        {
          "internalType": "bytes32",
          "name": "role",
          "type": "bytes32"
        }
      ],
      "name": "getRoleAdmin",
      "outputs": [
        {
          "internalType": "bytes32",
          "name": "",
          "type": "bytes32"
        }
      ],
      "stateMutability": "view",
      "type": "function"
    },
    {
      "inputs": [
        {
          "internalType": "bytes32",
          "name": "role",
          "type": "bytes32"
        },
        {
          "internalType": "address",
          "name": "account",
          "type": "address"
        }
      ],
      "name": "grantRole",
      "outputs": [],
      "stateMutability": "nonpayable",
      "type": "function"
    },
    {
      "inputs": [
        {
          "internalType": "bytes32",
          "name": "role",
          "type": "bytes32"
        },
        {
          "internalType": "address",
          "name": "account",
          "type": "address"
        }
      ],
      "name": "hasRole",
      "outputs": [
        {
          "internalType": "bool",
          "name": "",
          "type": "bool"
        }
      ],
      "stateMutability": "view",
      "type": "function"
    },
    {
      "inputs": [
        {
          "internalType": "address",
          "name": "admin",
          "type": "address"
        },
        {
          "internalType": "address",
          "name": "badgeStore",
          "type": "address"
        },
        {
          "internalType": "address",
          "name": "badgeUsers",
          "type": "address"
        }
      ],
      "name": "initialize",
      "outputs": [],
      "stateMutability": "nonpayable",
      "type": "function"
    },
    {
      "inputs": [
        {
          "internalType": "uint256",
          "name": "badgeModelId",
          "type": "uint256"
        }
      ],
      "name": "isBadgeModelSuspended",
      "outputs": [
        {
          "internalType": "bool",
          "name": "",
          "type": "bool"
        }
      ],
      "stateMutability": "view",
      "type": "function"
    },
    {
      "inputs": [],
      "name": "owner",
      "outputs": [
        {
          "internalType": "address",
          "name": "",
          "type": "address"
        }
      ],
      "stateMutability": "view",
      "type": "function"
    },
    {
      "inputs": [],
      "name": "renounceOwnership",
      "outputs": [],
      "stateMutability": "nonpayable",
      "type": "function"
    },
    {
      "inputs": [
        {
          "internalType": "bytes32",
          "name": "role",
          "type": "bytes32"
        },
        {
          "internalType": "address",
          "name": "callerConfirmation",
          "type": "address"
        }
      ],
      "name": "renounceRole",
      "outputs": [],
      "stateMutability": "nonpayable",
      "type": "function"
    },
    {
      "inputs": [
        {
          "internalType": "bytes32",
          "name": "role",
          "type": "bytes32"
        },
        {
          "internalType": "address",
          "name": "account",
          "type": "address"
        }
      ],
      "name": "revokeRole",
      "outputs": [],
      "stateMutability": "nonpayable",
      "type": "function"
    },
    {
      "inputs": [
        {
          "internalType": "bytes4",
          "name": "interfaceId",
          "type": "bytes4"
        }
      ],
      "name": "supportsInterface",
      "outputs": [
        {
          "internalType": "bool",
          "name": "",
          "type": "bool"
        }
      ],
      "stateMutability": "view",
      "type": "function"
    },
    {
      "inputs": [
        {
          "internalType": "uint256",
          "name": "badgeModelId",
          "type": "uint256"
        },
        {
          "internalType": "bool",
          "name": "suspended",
          "type": "bool"
        }
      ],
      "name": "suspendBadgeModel",
      "outputs": [],
      "stateMutability": "nonpayable",
      "type": "function"
    },
    {
      "inputs": [
        {
          "internalType": "address",
          "name": "newOwner",
          "type": "address"
        }
      ],
      "name": "transferOwnership",
      "outputs": [],
      "stateMutability": "nonpayable",
      "type": "function"
    },
    {
      "inputs": [
        {
          "internalType": "uint256",
          "name": "badgeModelId",
          "type": "uint256"
        },
        {
          "internalType": "uint256",
          "name": "mintCreatorFee",
          "type": "uint256"
        },
        {
          "internalType": "bool",
          "name": "paused",
          "type": "bool"
        }
      ],
      "name": "updateBadgeModel",
      "outputs": [],
      "stateMutability": "nonpayable",
      "type": "function"
    },
    {
      "inputs": [
        {
          "internalType": "string",
          "name": "controllerName",
          "type": "string"
        },
        {
          "internalType": "address",
          "name": "controllerAddress",
          "type": "address"
        }
      ],
      "name": "updateBadgeModelController",
      "outputs": [],
      "stateMutability": "nonpayable",
      "type": "function"
    },
    {
      "inputs": [
        {
          "internalType": "uint256",
          "name": "badgeModelId",
          "type": "uint256"
        },
        {
          "internalType": "string",
          "name": "metadata",
          "type": "string"
        },
        {
          "internalType": "bytes",
          "name": "data",
          "type": "bytes"
        }
      ],
      "name": "updateBadgeModelMetadata",
      "outputs": [],
      "stateMutability": "nonpayable",
      "type": "function"
    },
    {
      "inputs": [
        {
          "internalType": "uint256",
          "name": "badgeModelId",
          "type": "uint256"
        },
        {
          "internalType": "uint256",
          "name": "feeInBps",
          "type": "uint256"
        }
      ],
      "name": "updateBadgeModelProtocolFee",
      "outputs": [],
      "stateMutability": "nonpayable",
      "type": "function"
    },
    {
      "stateMutability": "payable",
      "type": "receive"
    }
  ],
  "bytecode": "0x608080604052346100b8577ff0c57e16840df040f15088dc2f81fe391c3923bec73e23a9662efc9c229c6a009081549060ff8260401c166100a957506001600160401b036002600160401b031982821601610064575b6040516124b890816100bd8239f35b6001600160401b031990911681179091556040519081527fc7f505b2f371ae2175ee4913f4499e1f2633a7b5936321eed1cdaeb6115181d290602090a15f8080610055565b63f92ee8a960e01b8152600490fd5b5f80fdfe608080604052600436101561001c575b50361561001a575f80fd5b005b5f90813560e01c90816301ffc9a714611a6557508063177a0b6f1461193957806319b50c2a146119125780631adb7682146117825780631c38579e14611624578063248a9ca3146115eb5780632f2ff15d146115a157806336568abe14611559578063414a501614610f42578063715018a614610ed95780637f34571014610e9e578063828efb251461084e5780638da5cb5b1461081957806391d14854146107c3578063a217fddf146107a7578063a41e35c31461076c578063c0a39d1214610602578063c0c53b8b14610456578063c227fb111461042d578063d547741f146103df578063e5088cdf146103b6578063e63ab1e91461038e578063e7705db614610353578063ede37dd4146101f2578063f2fde38b146101c5578063f72c0d8b1461018a5763fc5f18d30361000f573461018757806003193601126101875760206040517f11a8cb5a02bd6c42679835e867ef2118ba78f088f8300511420c6603c21d9c788152f35b80fd5b503461018757806003193601126101875760206040517f189ab7a9244df0848122154315af71fe140f3db0fe014031783b0946b8c9d2e38152f35b5034610187576020366003190112610187576101ef6101e2611b81565b6101ea611e82565b611eba565b80f35b50346101875760403660031901126101875760043561020f611c05565b815460405163f2be2c8560e01b8152600481018390526001600160a01b03918216918482602481865afa918215610348578592610324575b508151161561031257600161010082015115151461030057839160243560a0830152803b156102fc576102a2839291839260405194858094819363700f492360e01b83528a600484015260406024840152604483019061216c565b03925af180156102f1576102d9575b50807fc7fe3866a4edc843062ecfa12604d4a6686605fb2bd8a2323d96dc40c08d9e3d91a280f35b6102e290611aba565b6102ed57815f6102b1565b5080fd5b6040513d84823e3d90fd5b8280fd5b60405163149838bd60e31b8152600490fd5b6040516336f7ce4f60e11b8152600490fd5b6103419192503d8087833e6103398183611ae9565b81019061223e565b905f610247565b6040513d87823e3d90fd5b503461018757806003193601126101875760206040517f0ce23c3e399818cfee81a7ab0880f714e53d7672b08df0fa62f2843416e1ea098152f35b503461018757806003193601126101875760206040515f805160206124438339815191528152f35b50346101875780600319360112610187576001546040516001600160a01b039091168152602090f35b5034610187576040366003190112610187576104296004356103ff611b6b565b908084525f805160206124638339815191526020526104246001604086200154611c3e565b611e02565b5080f35b503461018757602036600319011261018757602061044c600435612329565b6040519015158152f35b503461018757606036600319011261018757610470611b81565b610478611b6b565b6044356001600160a01b0381811692918390036105fe577ff0c57e16840df040f15088dc2f81fe391c3923bec73e23a9662efc9c229c6a009283549260ff8460401c1615936001600160401b038116801590816105f6575b60011490816105ec575b1590816105e3575b506105d15767ffffffffffffffff1981166001178655846105b2575b50610507611f2b565b61050f611f2b565b61051886611eba565b61052186611c6c565b5061052b86611cf7565b508260018060a01b0319911681885416178755600154161760015560405193167f36b1453565f45af7b509b59d5e2eac8f1948ea9e3e193db6663b4101afb6382c8580a2610577578280f35b805460ff60401b19169055600181527fc7f505b2f371ae2175ee4913f4499e1f2633a7b5936321eed1cdaeb6115181d290602090a15f808280f35b68ffffffffffffffffff1916680100000000000000011785555f6104fe565b60405163f92ee8a960e01b8152600490fd5b9050155f6104e2565b303b1591506104da565b8691506104d0565b5f80fd5b50346101875761061136611b97565b9061061a611c05565b8254604051631c2e21b960e11b8152602060048201526001600160a01b0393918416916060828061064e6024820188612006565b0381865afa918215610761578692610731575b5083511561071f5784169384156103125781511661070d57849184825260016040830152826020830152803b156102fc576040516332c32c6360e11b815291839183918290849082906106b8908a6004840161202b565b03925af180156102f1576106f9575b50506106d29061206c565b7fe5593a32c4e8802f5034c3eb5fb2d05210d31e05841af6500e5cac618d29605f8380a380f35b61070290611aba565b6102fc57825f6106c7565b604051631192a36960e31b8152600490fd5b604051635f0b636f60e11b8152600490fd5b61075391925060603d811161075a575b61074b8183611ae9565b810190611f8d565b905f610661565b503d610741565b6040513d88823e3d90fd5b503461018757806003193601126101875760206040517fcbaaf41b181bb6e269c490e876a7c97711b57e21dd8e5528423cf57579726b358152f35b5034610187578060031936011261018757602090604051908152f35b50346101875760403660031901126101875760406107df611b6b565b9160043581525f80516020612463833981519152602052209060018060a01b03165f52602052602060ff60405f2054166040519015158152f35b50346101875780600319360112610187575f80516020612423833981519152546040516001600160a01b039091168152602090f35b506003196040368201126102ed57600435906001600160401b0390818311610e9a5760809083360301126102fc57604051916080830183811083821117610e86576040528060040135828111610bee576108ae9060043691840101611b25565b8352602481013590828211610bee576108cf60649260043691840101611b25565b602085015260448101356040850152013560608301526024359081116102fc576108fd903690600401611bd8565b8354604051636f77926b60e01b81523360048201526001600160a01b039091169391908581602481885afa908115610761578691610e6c575b5080515115610e5a57606001511515600114610e48576109786060602084015160405180938192631c2e21b960e11b8352602060048401526024830190612006565b0381885afa908115610761578691610e29575b5080516001600160a01b031615610e1757604081015115610e175760200151610e05576040516364d8baef60e01b8152602081600481885afa908115610761578691610dd3575b503410610dc157849334610d20575b50835460405163272f675760e11b81526001600160a01b039091169290602081600481875afa908115610761578691610ceb575b5060405163739a1e4560e11b815293602085600481845afa948515610ce0578795610ca9575b50602083015191604084015190606085015185519260405195610a5d87611acd565b33875260208701528a60408701526060860152608085015260a0840152600160c0840152600160e08401528761010084015287610120840152610140830152803b15610ca557604051630f38d6ab60e21b8152602060048201529187918391829084908290610ad090602483019061216c565b03925af1908115610761578691610c91575b5050604051837ffcf96e6a11b2c1924752c2575537a1eca64d4ac36e44c6c4919d48e9d0c26a638780a28554636f77926b60e01b82523360048301528690829060249082906001600160a01b03165afa8015610761576040918791610c6f575b50015115610c11575b6060610b8491602060018060a01b03885416910151906040518080958194631c2e21b960e11b8352602060048401526024830190612006565b03915afa908115610348578591610bf2575b50516001600160a01b0316803b15610bee57610bcd93858094604051968795869485936304a3c5d760e01b85523360048601612204565b03925af180156102f157610bde5750f35b610be790611aba565b6101875780f35b8480fd5b610c0b915060603d60601161075a5761074b8183611ae9565b5f610b96565b6001546001600160a01b0316803b15610c6b578580916024604051809481936308a4be4960e41b83523360048401525af1908115610761578691610c57575b5050610b4b565b610c6090611aba565b610bee57845f610c50565b8580fd5b610c8b91503d8089833e610c838183611ae9565b8101906120d1565b5f610b42565b610c9a90611aba565b610bee57845f610ae2565b8680fd5b965093506020863d602011610cd8575b81610cc660209383611ae9565b810103126105fe57869551935f610a3b565b3d9150610cb9565b6040513d89823e3d90fd5b9550506020853d602011610d18575b81610d0760209383611ae9565b810103126105fe578594515f610a15565b3d9150610cfa565b6020600491604051928380926331056e5760e21b82525afa80156103485785918291610d80575b5081808092813415610d77575b34916001600160a01b031690f115610d6c575f6109e1565b6040513d85823e3d90fd5b506108fc610d54565b9150506020813d602011610db9575b81610d9c60209383611ae9565b81010312610bee57848080610db18194611f6c565b925050610d47565b3d9150610d8f565b60405163043f7a7d60e21b8152600490fd5b90506020813d602011610dfd575b81610dee60209383611ae9565b810103126105fe57515f6109d2565b3d9150610de1565b60405163526e73a560e01b8152600490fd5b60405163014eb98760e11b8152600490fd5b610e42915060603d60601161075a5761074b8183611ae9565b5f61098b565b60405163e9dc308560e01b8152600490fd5b60405163ce848fe360e01b8152600490fd5b610e8091503d8088833e610c838183611ae9565b5f610936565b634e487b7160e01b5f52604160045260245ffd5b8380fd5b503461018757806003193601126101875760206040517f7804d923f43a17d325d77e781528e0793b2edd9890ab45fc64efd7b4b427744c8152f35b5034610187578060031936011261018757610ef2611e82565b5f8051602061242383398151915280546001600160a01b031981169091555f906001600160a01b03167f8be0079c531659141344cd1fd0a4f28419497f9722a3daafe3b4186f6b6457e08280a380f35b5034610187576060366003190112610187576001600160401b036024358181116102fc57610f74903690600401611b25565b906044359081116102fc57610f8d903690600401611bd8565b8354604051636f77926b60e01b81523360048201526001600160a01b0390911693929091908583602481885afa92831561076157869361153d575b5060405163f2be2c8560e01b80825260048035908301529387826024818a5afa918215611459578892611521575b508051511561150f5760408101511561150f57606001511515600114610e485780516001600160a01b0316156114fd5751336001600160a01b03909116036114eb5760405192835260043560048401528583602481885afa9283156107615786936114cf575b5082516001600160a01b031615610312576001610100840151151514610e48576110a86060602085015160405180938192631c2e21b960e11b8352602060048401526024830190612006565b0381895afa908115610ce05787916114b0575b508051604051631361532d60e21b815290602090829060049082906001600160a01b03165afa908115611459578891611476575b5015611464578051604051630d3f350760e01b8152889791602090829060049082906001600160a01b03165afa801561145957889061141b575b15156001141590506111d457505084546001600160a01b031692505050803b156111d05761118183929183926040519485809481936306b3526d60e21b83526004356004840152604060248401526044830190612006565b03925af180156102f1576111bc575b50506004357fc7fe3866a4edc843062ecfa12604d4a6686605fb2bd8a2323d96dc40c08d9e3d8280a280f35b6111c590611aba565b61018757805f611190565b5050fd5b6001610120869798939495960152803b156102ed5781604051809263700f492360e01b8252600435600483015260406024830152818381611218604482018d61216c565b03925af180156102f157611407575b505060e0840151936001850185116113f357865460405163739a1e4560e11b8152968895949392916001600160a01b031690602089600481855afa988915610ce05787996113bc575b5060208301519260608101519060a06080820151910151916040519561129587611acd565b33875260208701528960408701526060860152608085015260a0840152600160c08401526001880160e08401528661010084015286610120840152610140830152803b15610c6b57604051630f38d6ab60e21b815260206004820152918691839182908490829061130a90602483019061216c565b03925af19081156103485785916113a8575b5050516001600160a01b031691823b15610e9a57611355928492836040518096819582946304a3c5d760e01b84528c3360048601612204565b03925af180156102f157611394575b5050600101906004357f2ceb6559a44e182ef54894f4f21a8897fb538351aaba1333d732a088a7a4404c8480a480f35b61139d90611aba565b6102fc57825f611364565b6113b190611aba565b610e9a57835f61131c565b965097506020863d6020116113eb575b816113d960209383611ae9565b810103126105fe57889551975f611270565b3d91506113cc565b634e487b7160e01b87526011600452602487fd5b61141090611aba565b610c6b57855f611227565b506020813d602011611451575b8161143560209383611ae9565b8101031261144d57611448600191611f80565b611129565b8780fd5b3d9150611428565b6040513d8a823e3d90fd5b60405163b4ea754b60e01b8152600490fd5b90506020813d6020116114a8575b8161149160209383611ae9565b8101031261144d576114a290611f80565b5f6110ef565b3d9150611484565b6114c9915060603d60601161075a5761074b8183611ae9565b5f6110bb565b6114e49193503d8088833e6103398183611ae9565b915f61105c565b60405163806ecc4960e01b8152600490fd5b604051638fa97ef960e01b8152600490fd5b604051638fcc03fd60e01b8152600490fd5b6115369192503d808a833e6103398183611ae9565b905f610ff6565b6115529193503d8088833e610c838183611ae9565b915f610fc8565b503461018757604036600319011261018757611573611b6b565b336001600160a01b0382160361158f5761042990600435611e02565b60405163334bd91960e11b8152600490fd5b5034610187576040366003190112610187576104296004356115c1611b6b565b908084525f805160206124638339815191526020526115e66001604086200154611c3e565b611d91565b5034610187576020366003190112610187576001604060209260043581525f805160206124638339815191528452200154604051908152f35b5034610187576040366003190112610187576004356024358015158091036105fe57335f9081527f75442b0a96088b5456bc4ed01394c96a4feec0f883c9494257d76b96ab1c9b6b60205260409020545f805160206124438339815191529060ff16156117645750825460405163f2be2c8560e01b8152600481018490526001600160a01b03909116908481602481855afa80156103485760c091869161174a575b500151156114fd578084913b156102ed57818091604460405180948193630e1c2bcf60e11b83528960048401528860248401525af180156102f157611736575b505060207f5f062aa313aef1e7311684fc58adc2e6be9a42aaa5440bd11ecc935110ce188891604051908152a280f35b61173f90611aba565b6102fc57825f611706565b61175e91503d8088833e6103398183611ae9565b5f6116c6565b6044906040519063e2517d3f60e01b82523360048301526024820152fd5b5034610187576060366003190112610187576004356044358015158091036105fe578254604051636f77926b60e01b8152336004820152906001600160a01b03908116908583602481855afa9283156107615786936118f6575b5060405163f2be2c8560e01b80825260048201879052938782602481875afa9182156114595788926118da575b508051511561150f5760408101511561150f57606001511515600114610e485781815116156114fd578133915116036114eb576040519283528460048401528583602481855afa9283156107615786936118be575b5082511615610312576001610100830151151514610e4857849260243560608401526040830152803b156102fc576102a2839291839260405194858094819363700f492360e01b83528a600484015260406024840152604483019061216c565b6118d39193503d8088833e6103398183611ae9565b915f61185e565b6118ef9192503d808a833e6103398183611ae9565b905f611809565b61190b9193503d8088833e610c838183611ae9565b915f6117dc565b5034610187578060031936011261018757546040516001600160a01b039091168152602090f35b50346101875761194836611b97565b90611951611c05565b8254604051631c2e21b960e11b8152602060048201526001600160a01b0391821693909190606083806119876024820188612006565b0381885afa928315610761578693611a45575b5083511561071f571692831561031257818486935260016040820152826020820152813b156102fc5782916119e591604051948580948193626a7cdb60e61b8352896004840161202b565b03925af18015611a3a57611a25575b506119fe9061206c565b7fb26a69d98cbba60a8375d2881325d884505f42d1f0e61a74e33abb3524a658aa8380a380f35b92611a336119fe9294611aba565b92906119f4565b6040513d86823e3d90fd5b611a5e91935060603d811161075a5761074b8183611ae9565b915f61199a565b9050346102ed5760203660031901126102ed5760043563ffffffff60e01b81168091036102fc5760209250637965db0b60e01b8114908115611aa9575b5015158152f35b6301ffc9a760e01b1490505f611aa2565b6001600160401b038111610e8657604052565b61016081019081106001600160401b03821117610e8657604052565b90601f801991011681019081106001600160401b03821117610e8657604052565b6001600160401b038111610e8657601f01601f191660200190565b81601f820112156105fe57803590611b3c82611b0a565b92611b4a6040519485611ae9565b828452602083830101116105fe57815f926020809301838601378301015290565b602435906001600160a01b03821682036105fe57565b600435906001600160a01b03821682036105fe57565b60406003198201126105fe57600435906001600160401b0382116105fe57611bc191600401611b25565b906024356001600160a01b03811681036105fe5790565b9181601f840112156105fe578235916001600160401b0383116105fe57602083818601950101116105fe57565b335f9081527fb7db2dd08fcb62d0c9e08c51941cae53c267786a0b75803fb7960902fc8ef97d602052604081205460ff16156117645750565b805f525f8051602061246383398151915260205260405f20335f5260205260ff60405f205416156117645750565b6001600160a01b03165f8181527fb7db2dd08fcb62d0c9e08c51941cae53c267786a0b75803fb7960902fc8ef97d60205260408120549091905f805160206124638339815191529060ff16611cf2578280526020526040822081835260205260408220600160ff1982541617905533915f805160206124038339815191528180a4600190565b505090565b6001600160a01b03165f8181527f75442b0a96088b5456bc4ed01394c96a4feec0f883c9494257d76b96ab1c9b6b60205260408120549091905f80516020612443833981519152905f805160206124638339815191529060ff16611d8b578184526020526040832082845260205260408320600160ff198254161790555f80516020612403833981519152339380a4600190565b50505090565b905f918083525f8051602061246383398151915280602052604084209260018060a01b03169283855260205260ff604085205416155f14611d8b578184526020526040832082845260205260408320600160ff198254161790555f80516020612403833981519152339380a4600190565b905f918083525f8051602061246383398151915280602052604084209260018060a01b03169283855260205260ff6040852054165f14611d8b57818452602052604083208284526020526040832060ff1981541690557ff6391f5c32d9c69d2a47ea670b442974b53935d1edc7fd64eb21e047a839171b339380a4600190565b5f80516020612423833981519152546001600160a01b03163303611ea257565b60405163118cdaa760e01b8152336004820152602490fd5b6001600160a01b03908116908115611f13575f8051602061242383398151915280546001600160a01b031981168417909155167f8be0079c531659141344cd1fd0a4f28419497f9722a3daafe3b4186f6b6457e05f80a3565b604051631e4fbdf760e01b81525f6004820152602490fd5b60ff7ff0c57e16840df040f15088dc2f81fe391c3923bec73e23a9662efc9c229c6a005460401c1615611f5a57565b604051631afcd79f60e31b8152600490fd5b51906001600160a01b03821682036105fe57565b519081151582036105fe57565b908160609103126105fe5760405190606082018281106001600160401b03821117610e8657611fdd916040918252611fc481611f6c565b8452611fd260208201611f80565b602085015201611f80565b604082015290565b5f5b838110611ff65750505f910152565b8181015183820152602001611fe7565b9060209161201f81518092818552858086019101611fe5565b601f01601f1916010190565b906040612045606092959495608085526080850190612006565b85516001600160a01b03166020858101919091528601511515828501529401511515910152565b61208490602060405192828480945193849201611fe5565b810103902090565b81601f820112156105fe5780516120a281611b0a565b926120b06040519485611ae9565b818452602082840101116105fe576120ce9160208085019101611fe5565b90565b6020818303126105fe5780516001600160401b03918282116105fe57019160a0838203126105fe576040519260a0840184811084821117610e865760405280519283116105fe5761212960809261216494830161208c565b845261213760208201611f80565b602085015261214860408201611f80565b604085015261215960608201611f80565b606085015201611f80565b608082015290565b906120ce9160018060a01b0381511682526121966020820151610160806020860152840190612006565b91604082015115156040820152606082015160608201526080820151608082015260a082015160a082015260c0820151151560c082015260e082015160e082015261010080830151151590820152610120808301511515908201526101408092015191818403910152612006565b9284926080959260018060a01b03168552602085015260606040850152816060850152848401375f828201840152601f01601f1916010190565b6020818303126105fe5780516001600160401b03918282116105fe5701610160818403126105fe576040519261227384611acd565b61227c82611f6c565b845260208201518381116105fe578161229691840161208c565b60208501526122a760408301611f80565b6040850152606082015160608501526080820151608085015260a082015160a08501526122d660c08301611f80565b60c085015260e082015160e08501526101006122f3818401611f80565b90850152610120612305818401611f80565b9085015261014092838301519081116105fe57612322920161208c565b9082015290565b5f805460405163f2be2c8560e01b8152600481019390935290916001600160a01b03918216918382602481865afa918215611a3a5784926123e6575b5080825116156103125760016101008301511515146123dd5783915116602460405180948193636f77926b60e01b835260048301525afa9081156102f15760019160609184916123c3575b5001511515146123bd5790565b50600190565b6123d791503d8086833e610c838183611ae9565b5f6123b0565b50505050600190565b6123fb9192503d8086833e6103398183611ae9565b905f61236556fe2f8788117e7eff1d82e926ec794901d17c78024a50270940304540a733656f0d9016d09d72d40fdae2fd8ceac6b6234c7706214fd39c1cd1e609a0528c19930065d7a28e3265b37a6474929f336521b332c1681b933f6cb9f3376673440d862a02dd7bc7dec4dceedda775e58dd541e08a116c6c53815c0bd028192f7b626800a264697066735822122029f0484ff5fc710ea9e4e94986af93c0546e48025b6828209f73386b3bac78e964736f6c63430008140033",
  "linkReferences": {},
  "deployedLinkReferences": {}
}