{
  "_format": "hh-sol-artifact-1",
  "contractName": "TheBadgeUsers",
  "sourceName": "src/contracts/thebadge/TheBadgeUsers.sol",
  "abi": [
    {
      "inputs": [],
      "stateMutability": "nonpayable",
      "type": "constructor"
    },
    {
      "inputs": [],
      "name": "AccessControlBadConfirmation",
      "type": "error"
    },
    {
      "inputs": [
        {
          "internalType": "address",
          "name": "account",
          "type": "address"
        },
        {
          "internalType": "bytes32",
          "name": "neededRole",
          "type": "bytes32"
        }
      ],
      "name": "AccessControlUnauthorizedAccount",
      "type": "error"
    },
    {
      "inputs": [],
      "name": "InvalidInitialization",
      "type": "error"
    },
    {
      "inputs": [],
      "name": "NotInitializing",
      "type": "error"
    },
    {
      "inputs": [
        {
          "internalType": "address",
          "name": "owner",
          "type": "address"
        }
      ],
      "name": "OwnableInvalidOwner",
      "type": "error"
    },
    {
      "inputs": [
        {
          "internalType": "address",
          "name": "account",
          "type": "address"
        }
      ],
      "name": "OwnableUnauthorizedAccount",
      "type": "error"
    },
    {
      "inputs": [],
      "name": "ReentrancyGuardReentrantCall",
      "type": "error"
    },
    {
      "inputs": [],
      "name": "TheBadge__controller_controllerIsPaused",
      "type": "error"
    },
    {
      "inputs": [],
      "name": "TheBadge__controller_invalidController",
      "type": "error"
    },
    {
      "inputs": [],
      "name": "TheBadge__onlyCreator_senderIsAlreadyACreator",
      "type": "error"
    },
    {
      "inputs": [],
      "name": "TheBadge__onlyUser_userNotFound",
      "type": "error"
    },
    {
      "inputs": [],
      "name": "TheBadge__registerUser_alreadyRegistered",
      "type": "error"
    },
    {
      "inputs": [],
      "name": "TheBadge__registerUser_wrongValue",
      "type": "error"
    },
    {
      "inputs": [],
      "name": "TheBadge__updateUser_notFound",
      "type": "error"
    },
    {
      "inputs": [],
      "name": "TheBadge__updateUser_wrongMetadata",
      "type": "error"
    },
    {
      "inputs": [],
      "name": "TheBadge__users__onlyCreator_creatorIsSuspended",
      "type": "error"
    },
    {
      "inputs": [],
      "name": "TheBadge__verifyUser_verificationProtocolFeesPaymentFailed",
      "type": "error"
    },
    {
      "inputs": [],
      "name": "TheBadge__verifyUser_wrongValue",
      "type": "error"
    },
    {
      "anonymous": false,
      "inputs": [
        {
          "indexed": true,
          "internalType": "address",
          "name": "admin",
          "type": "address"
        }
      ],
      "name": "Initialize",
      "type": "event"
    },
    {
      "anonymous": false,
      "inputs": [
        {
          "indexed": false,
          "internalType": "uint64",
          "name": "version",
          "type": "uint64"
        }
      ],
      "name": "Initialized",
      "type": "event"
    },
    {
      "anonymous": false,
      "inputs": [
        {
          "indexed": true,
          "internalType": "address",
          "name": "previousOwner",
          "type": "address"
        },
        {
          "indexed": true,
          "internalType": "address",
          "name": "newOwner",
          "type": "address"
        }
      ],
      "name": "OwnershipTransferred",
      "type": "event"
    },
    {
      "anonymous": false,
      "inputs": [
        {
          "indexed": true,
          "internalType": "address",
          "name": "recipient",
          "type": "address"
        },
        {
          "indexed": false,
          "internalType": "address",
          "name": "payer",
          "type": "address"
        },
        {
          "indexed": false,
          "internalType": "uint256",
          "name": "amount",
          "type": "uint256"
        },
        {
          "indexed": true,
          "internalType": "enum LibTheBadge.PaymentType",
          "name": "paymentType",
          "type": "uint8"
        },
        {
          "indexed": true,
          "internalType": "uint256",
          "name": "badgeModelId",
          "type": "uint256"
        },
        {
          "indexed": false,
          "internalType": "string",
          "name": "controllerName",
          "type": "string"
        }
      ],
      "name": "PaymentMade",
      "type": "event"
    },
    {
      "anonymous": false,
      "inputs": [
        {
          "indexed": true,
          "internalType": "bytes32",
          "name": "role",
          "type": "bytes32"
        },
        {
          "indexed": true,
          "internalType": "bytes32",
          "name": "previousAdminRole",
          "type": "bytes32"
        },
        {
          "indexed": true,
          "internalType": "bytes32",
          "name": "newAdminRole",
          "type": "bytes32"
        }
      ],
      "name": "RoleAdminChanged",
      "type": "event"
    },
    {
      "anonymous": false,
      "inputs": [
        {
          "indexed": true,
          "internalType": "bytes32",
          "name": "role",
          "type": "bytes32"
        },
        {
          "indexed": true,
          "internalType": "address",
          "name": "account",
          "type": "address"
        },
        {
          "indexed": true,
          "internalType": "address",
          "name": "sender",
          "type": "address"
        }
      ],
      "name": "RoleGranted",
      "type": "event"
    },
    {
      "anonymous": false,
      "inputs": [
        {
          "indexed": true,
          "internalType": "bytes32",
          "name": "role",
          "type": "bytes32"
        },
        {
          "indexed": true,
          "internalType": "address",
          "name": "account",
          "type": "address"
        },
        {
          "indexed": true,
          "internalType": "address",
          "name": "sender",
          "type": "address"
        }
      ],
      "name": "RoleRevoked",
      "type": "event"
    },
    {
      "anonymous": false,
      "inputs": [
        {
          "indexed": true,
          "internalType": "address",
          "name": "userAddress",
          "type": "address"
        },
        {
          "indexed": false,
          "internalType": "string",
          "name": "metadata",
          "type": "string"
        },
        {
          "indexed": false,
          "internalType": "bool",
          "name": "suspended",
          "type": "bool"
        },
        {
          "indexed": false,
          "internalType": "bool",
          "name": "isCreator",
          "type": "bool"
        },
        {
          "indexed": false,
          "internalType": "bool",
          "name": "deleted",
          "type": "bool"
        }
      ],
      "name": "UpdatedUser",
      "type": "event"
    },
    {
      "anonymous": false,
      "inputs": [
        {
          "indexed": true,
          "internalType": "address",
          "name": "user",
          "type": "address"
        },
        {
          "indexed": false,
          "internalType": "string",
          "name": "metadata",
          "type": "string"
        }
      ],
      "name": "UserRegistered",
      "type": "event"
    },
    {
      "anonymous": false,
      "inputs": [
        {
          "indexed": true,
          "internalType": "address",
          "name": "user",
          "type": "address"
        },
        {
          "indexed": false,
          "internalType": "string",
          "name": "controllerName",
          "type": "string"
        },
        {
          "indexed": false,
          "internalType": "bool",
          "name": "verify",
          "type": "bool"
        }
      ],
      "name": "UserVerificationExecuted",
      "type": "event"
    },
    {
      "anonymous": false,
      "inputs": [
        {
          "indexed": true,
          "internalType": "address",
          "name": "user",
          "type": "address"
        },
        {
          "indexed": false,
          "internalType": "string",
          "name": "metadata",
          "type": "string"
        },
        {
          "indexed": false,
          "internalType": "string",
          "name": "controllerName",
          "type": "string"
        }
      ],
      "name": "UserVerificationRequested",
      "type": "event"
    },
    {
      "inputs": [],
      "name": "CLAIMER_ROLE",
      "outputs": [
        {
          "internalType": "bytes32",
          "name": "",
          "type": "bytes32"
        }
      ],
      "stateMutability": "view",
      "type": "function"
    },
    {
      "inputs": [],
      "name": "DEFAULT_ADMIN_ROLE",
      "outputs": [
        {
          "internalType": "bytes32",
          "name": "",
          "type": "bytes32"
        }
      ],
      "stateMutability": "view",
      "type": "function"
    },
    {
      "inputs": [],
      "name": "PAUSER_ROLE",
      "outputs": [
        {
          "internalType": "bytes32",
          "name": "",
          "type": "bytes32"
        }
      ],
      "stateMutability": "view",
      "type": "function"
    },
    {
      "inputs": [],
      "name": "UPGRADER_ROLE",
      "outputs": [
        {
          "internalType": "bytes32",
          "name": "",
          "type": "bytes32"
        }
      ],
      "stateMutability": "view",
      "type": "function"
    },
    {
      "inputs": [],
      "name": "URI_SETTER_ROLE",
      "outputs": [
        {
          "internalType": "bytes32",
          "name": "",
          "type": "bytes32"
        }
      ],
      "stateMutability": "view",
      "type": "function"
    },
    {
      "inputs": [],
      "name": "USER_MANAGER_ROLE",
      "outputs": [
        {
          "internalType": "bytes32",
          "name": "",
          "type": "bytes32"
        }
      ],
      "stateMutability": "view",
      "type": "function"
    },
    {
      "inputs": [],
      "name": "VERIFIER_ROLE",
      "outputs": [
        {
          "internalType": "bytes32",
          "name": "",
          "type": "bytes32"
        }
      ],
      "stateMutability": "view",
      "type": "function"
    },
    {
      "inputs": [],
      "name": "_badgeStore",
      "outputs": [
        {
          "internalType": "contract TheBadgeStore",
          "name": "",
          "type": "address"
        }
      ],
      "stateMutability": "view",
      "type": "function"
    },
    {
      "inputs": [
        {
          "internalType": "address",
          "name": "_user",
          "type": "address"
        },
        {
          "internalType": "string",
          "name": "controllerName",
          "type": "string"
        },
        {
          "internalType": "bool",
          "name": "verify",
          "type": "bool"
        }
      ],
      "name": "executeUserVerification",
      "outputs": [],
      "stateMutability": "nonpayable",
      "type": "function"
    },
    {
      "inputs": [
        {
          "internalType": "bytes32",
          "name": "role",
          "type": "bytes32"
        }
      ],
      "name": "getRoleAdmin",
      "outputs": [
        {
          "internalType": "bytes32",
          "name": "",
          "type": "bytes32"
        }
      ],
      "stateMutability": "view",
      "type": "function"
    },
    {
      "inputs": [
        {
          "internalType": "string",
          "name": "controllerName",
          "type": "string"
        }
      ],
      "name": "getVerificationFee",
      "outputs": [
        {
          "internalType": "uint256",
          "name": "",
          "type": "uint256"
        }
      ],
      "stateMutability": "view",
      "type": "function"
    },
    {
      "inputs": [
        {
          "internalType": "bytes32",
          "name": "role",
          "type": "bytes32"
        },
        {
          "internalType": "address",
          "name": "account",
          "type": "address"
        }
      ],
      "name": "grantRole",
      "outputs": [],
      "stateMutability": "nonpayable",
      "type": "function"
    },
    {
      "inputs": [
        {
          "internalType": "bytes32",
          "name": "role",
          "type": "bytes32"
        },
        {
          "internalType": "address",
          "name": "account",
          "type": "address"
        }
      ],
      "name": "hasRole",
      "outputs": [
        {
          "internalType": "bool",
          "name": "",
          "type": "bool"
        }
      ],
      "stateMutability": "view",
      "type": "function"
    },
    {
      "inputs": [
        {
          "internalType": "address",
          "name": "admin",
          "type": "address"
        },
        {
          "internalType": "address",
          "name": "badgeStore",
          "type": "address"
        }
      ],
      "name": "initialize",
      "outputs": [],
      "stateMutability": "nonpayable",
      "type": "function"
    },
    {
      "inputs": [
        {
          "internalType": "address",
          "name": "_user",
          "type": "address"
        },
        {
          "internalType": "string",
          "name": "controllerName",
          "type": "string"
        }
      ],
      "name": "isUserVerified",
      "outputs": [
        {
          "internalType": "bool",
          "name": "",
          "type": "bool"
        }
      ],
      "stateMutability": "view",
      "type": "function"
    },
    {
      "inputs": [
        {
          "internalType": "address",
          "name": "_userAddress",
          "type": "address"
        }
      ],
      "name": "makeUserCreator",
      "outputs": [],
      "stateMutability": "nonpayable",
      "type": "function"
    },
    {
      "inputs": [],
      "name": "owner",
      "outputs": [
        {
          "internalType": "address",
          "name": "",
          "type": "address"
        }
      ],
      "stateMutability": "view",
      "type": "function"
    },
    {
      "inputs": [
        {
          "internalType": "string",
          "name": "_metadata",
          "type": "string"
        },
        {
          "internalType": "bool",
          "name": "_isCompany",
          "type": "bool"
        }
      ],
      "name": "registerUser",
      "outputs": [],
      "stateMutability": "payable",
      "type": "function"
    },
    {
      "inputs": [],
      "name": "renounceOwnership",
      "outputs": [],
      "stateMutability": "nonpayable",
      "type": "function"
    },
    {
      "inputs": [
        {
          "internalType": "bytes32",
          "name": "role",
          "type": "bytes32"
        },
        {
          "internalType": "address",
          "name": "callerConfirmation",
          "type": "address"
        }
      ],
      "name": "renounceRole",
      "outputs": [],
      "stateMutability": "nonpayable",
      "type": "function"
    },
    {
      "inputs": [
        {
          "internalType": "bytes32",
          "name": "role",
          "type": "bytes32"
        },
        {
          "internalType": "address",
          "name": "account",
          "type": "address"
        }
      ],
      "name": "revokeRole",
      "outputs": [],
      "stateMutability": "nonpayable",
      "type": "function"
    },
    {
      "inputs": [
        {
          "internalType": "string",
          "name": "controllerName",
          "type": "string"
        },
        {
          "internalType": "string",
          "name": "evidenceUri",
          "type": "string"
        }
      ],
      "name": "submitUserVerification",
      "outputs": [],
      "stateMutability": "payable",
      "type": "function"
    },
    {
      "inputs": [
        {
          "internalType": "bytes4",
          "name": "interfaceId",
          "type": "bytes4"
        }
      ],
      "name": "supportsInterface",
      "outputs": [
        {
          "internalType": "bool",
          "name": "",
          "type": "bool"
        }
      ],
      "stateMutability": "view",
      "type": "function"
    },
    {
      "inputs": [
        {
          "internalType": "address",
          "name": "_userAddress",
          "type": "address"
        },
        {
          "internalType": "bool",
          "name": "suspended",
          "type": "bool"
        }
      ],
      "name": "suspendUser",
      "outputs": [],
      "stateMutability": "nonpayable",
      "type": "function"
    },
    {
      "inputs": [
        {
          "internalType": "address",
          "name": "newOwner",
          "type": "address"
        }
      ],
      "name": "transferOwnership",
      "outputs": [],
      "stateMutability": "nonpayable",
      "type": "function"
    },
    {
      "inputs": [
        {
          "internalType": "string",
          "name": "_metadata",
          "type": "string"
        }
      ],
      "name": "updateProfile",
      "outputs": [],
      "stateMutability": "nonpayable",
      "type": "function"
    },
    {
      "inputs": [
        {
          "internalType": "address",
          "name": "_userAddress",
          "type": "address"
        },
        {
          "internalType": "string",
          "name": "_metadata",
          "type": "string"
        }
      ],
      "name": "updateUser",
      "outputs": [],
      "stateMutability": "nonpayable",
      "type": "function"
    },
    {
      "stateMutability": "payable",
      "type": "receive"
    }
  ],
  "bytecode": "0x608080604052346100b8577ff0c57e16840df040f15088dc2f81fe391c3923bec73e23a9662efc9c229c6a009081549060ff8260401c166100a957506001600160401b036002600160401b031982821601610064575b60405161231d90816100bd8239f35b6001600160401b031990911681179091556040519081527fc7f505b2f371ae2175ee4913f4499e1f2633a7b5936321eed1cdaeb6115181d290602090a15f8080610055565b63f92ee8a960e01b8152600490fd5b5f80fdfe6040608081526004908136101561001f575b5050361561001d575f80fd5b005b5f91823560e01c9081629299e31461181f57816301ffc9a7146117c957816319b50c2a146117a15781631b6cd667146112d9578163248a9ca3146112a25781632acb0301146111105781632f2ff15d146110e657816336568abe146110a0578163485cc95514610ef65781635c3736f114610dad578163715018a614610d4457816379b233db14610a905781637f34571014610a555781638a4be4901461090b5781638da5cb5b146108d657816391d1485414610886578163a217fddf1461086b578163a41e35c314610843578163b088981914610711578163c1b8c5f11461044d578163d547741f14610401578163e63ab1e9146103d9578163e71de0481461021d57508063e7705db6146101f6578063f2fde38b146101c6578063f72c0d8b1461018c5763fc5f18d3036100115734610188578160031936011261018857602090517f11a8cb5a02bd6c42679835e867ef2118ba78f088f8300511420c6603c21d9c788152f35b5080fd5b5034610188578160031936011261018857602090517f189ab7a9244df0848122154315af71fe140f3db0fe014031783b0946b8c9d2e38152f35b82346101f35760203660031901126101f3576101f06101e3611a25565b6101eb611f05565b611f3d565b80f35b80fd5b5034610188578160031936011261018857602090515f805160206122c88339815191528152f35b83833461018857602092836003193601126103d55780356001600160401b0381116103d15761024f90369083016119c9565b83548351631c2e21b960e11b8082528482018890526001600160a01b0393606093909290851691908481806102876024820188612105565b0381865afa9081156103c75789916103aa575b50858151161561039a57878101511561039a5789015161038a579183916102d493885180958194829383528d8b8401526024830190612105565b03915afa9182156103805790879392918792610353575b50505116835192838092637657dbdd60e01b82525afa9283156103485792610315575b5051908152f35b9091508281813d8311610341575b61032d818361198d565b8101031261033d5751908361030e565b5f80fd5b503d610323565b8251903d90823e3d90fd5b6103729250803d10610379575b61036a818361198d565b8101906121af565b87806102eb565b503d610360565b85513d88823e3d90fd5b865163526e73a560e01b81528690fd5b875163014eb98760e11b81528790fd5b6103c19150853d87116103795761036a818361198d565b8a61029a565b88513d8b823e3d90fd5b8380fd5b8280fd5b505034610188578160031936011261018857602090515f805160206122688339815191528152f35b919050346103d557806003193601126103d55761044991356104446001610426611a0f565b938387525f8051602061228883398151915260205286200154611af2565b611e85565b5080f35b9050346103d5576060806003193601126103d157610469611a25565b9260249182356001600160401b03811161070d5761048a90369086016119c9565b926044359485151580960361033d575f805160206122c883398151915292835f526020935f805160206122888339815191528552855f20335f52855260ff865f205416156106f1575088548551631c2e21b960e11b8082528482018790526001600160a01b0393928416918381806105048a82018e612105565b0381865afa9081156106aa578d916106d4575b5084815116156106c45788810151156106c4578701516106b4578751636f77926b60e01b81529a8416858c018190529a8c818881865afa9081156106aa578d91610688575b50805151156106785783015115156001146106685787519081528085018790528b9594939291829082908180610594818b018f612105565b03915afa91821561065e578692610641575b5050511690813b156103d157604489918580948b8a51978896879563130bd93f60e01b87528601528401525af180156106375761061f575b50507fdea1140938dde90016dc539563f1fa2f3f675e2cdee8d0c6a7999e1830cc81be936106158351948486958652850190612105565b918301520390a280f35b61062890611966565b61063357855f6105de565b8580fd5b84513d84823e3d90fd5b6106579250803d106103795761036a818361198d565b5f806105a6565b88513d88823e3d90fd5b875163e9dc308560e01b81528590fd5b885163ce848fe360e01b81528690fd5b6106a491503d808f833e61069c818361198d565b81019061201d565b5f61055c565b89513d8f823e3d90fd5b875163526e73a560e01b81528590fd5b885163014eb98760e11b81528690fd5b6106eb9150843d86116103795761036a818361198d565b5f610517565b905060449285519263e2517d3f60e01b84523390840152820152fd5b8680fd5b919050346103d55761072236611a3b565b9261072b611a8c565b84548351636f77926b60e01b81526001600160a01b03848116828501819052969194921692908785602481875afa94851561083957889561081d575b508451511561080e578051156107ff57845286929190823b156103d1576107a792849283879389519687958694859363178682c160e01b8552840161212a565b03925af18015610637576107eb575b50505f80516020612248833981519152916107e582519180606085015115159401511515905193849384612184565b0390a280f35b6107f490611966565b6103d157835f6107b6565b508451632bf9525960e11b8152fd5b5084516365553c4160e11b8152fd5b6108329195503d808a833e61069c818361198d565b935f610767565b86513d8a823e3d90fd5b505034610188578160031936011261018857602090515f805160206122a88339815191528152f35b50503461018857816003193601126101885751908152602090f35b9050346103d557816003193601126103d557816020936108a4611a0f565b923581525f805160206122888339815191528552209060018060a01b03165f52825260ff815f20541690519015158152f35b5050346101885781600319360112610188575f805160206122288339815191525490516001600160a01b039091168152602090f35b919050346103d55760203660031901126103d557610927611a25565b91610930611a8c565b83548251636f77926b60e01b81526001600160a01b0385811684830181905295919216908683602481855afa928315610a4b578793610a2f575b5082515115610a1f578483019360018551151514610a11579087929160018652823b156103d1576109b49284928387938a519687958694859363178682c160e01b8552840161212a565b03925af18015610a07576109ef575b50506107e55f805160206122488339815191529360608351930151151593511515905193849384612184565b6109f890611966565b610a0357845f6109c3565b8480fd5b85513d84823e3d90fd5b8551631edcfb9f60e21b8152fd5b84516365553c4160e11b81528490fd5b610a449193503d8089833e61069c818361198d565b915f61096a565b85513d89823e3d90fd5b505034610188578160031936011261018857602090517f7804d923f43a17d325d77e781528e0793b2edd9890ab45fc64efd7b4b427744c8152f35b918091506003193601126103d55781356001600160401b0381116103d157610abb90369084016119c9565b610ac3611a7d565b84548351636f77926b60e01b815233818701526001600160a01b0391821695909390929087856024818a5afa948515610839578895610d28575b50845151610d1857855163e70a0e6960e01b81526020979088818781855afa908115610d0e578a91610ce1575b503403610cd15790849392918995893415928315610bec575b505050508552151586850152828585015282606085015260016080850152825416803b156103d557838391610b8e938388518096819582946374d5912760e11b84523390840161212a565b03925af1801561063757610bd8575b50507f48cac28ad4dc618e15f4c2dd5e97751182f166de97b25618318b2112aa951a2f916107e5915190519182918583523395830190612105565b610be190611966565b6103d157835f610b9d565b8a516331056e5760e21b815292839182905afa908115610cc757879186918391610c8e575b5016918190610c85575b81808092853491f115610c7b57600286917fdf7cc5ebdb7be805a1d96fd982aba37cbf8e9169d6f34870e8d63a62cd492f6460a08b513381528d349082015260608d82015284606082015261060f60f31b6080820152a45f848982610b43565b87513d87823e3d90fd5b506108fc610c1b565b925050508981813d8311610cc0575b610ca7818361198d565b8101031261070d5784610cba88926120f1565b5f610c11565b503d610c9d565b89513d89823e3d90fd5b8651638c77ddf360e01b81528590fd5b90508881813d8311610d07575b610cf8818361198d565b8101031261033d57515f610b2a565b503d610cee565b88513d8c823e3d90fd5b855163096bb4a360e41b81528490fd5b610d3d9195503d808a833e61069c818361198d565b935f610afd565b83346101f357806003193601126101f357610d5d611f05565b5f8051602061222883398151915280546001600160a01b031981169091555f906001600160a01b03167f8be0079c531659141344cd1fd0a4f28419497f9722a3daafe3b4186f6b6457e08280a380f35b838334610188578060031936011261018857610dc7611a25565b90610dd0611a7d565b935f80516020612268833981519152805f525f80516020612288833981519152602052825f20335f5260205260ff835f20541615610edb575083548251636f77926b60e01b81526001600160a01b03858116848301529091168582602481845afa918215610ed1578692610eb5575b5081515115610ea557859615156060830152803b1561063357610e799486809486519788958694859363178682c160e01b8552840161212a565b03925af1908115610e9c5750610e8c5750f35b610e9590611966565b6101f35780f35b513d84823e3d90fd5b83516365553c4160e11b81528390fd5b610eca9192503d8088833e61069c818361198d565b9087610e3f565b84513d88823e3d90fd5b604492519163e2517d3f60e01b835233908301526024820152fd5b919050346103d557806003193601126103d557610f11611a25565b91610f1a611a0f565b7ff0c57e16840df040f15088dc2f81fe391c3923bec73e23a9662efc9c229c6a0092835460ff81831c1615936001600160401b03821680159081611098575b600114908161108e575b159081611085575b50611077575067ffffffffffffffff198116600117855583611058575b50610f91611fae565b610f99611fae565b610fa285611f3d565b610fab85611b20565b50610fb585611bab565b50610fbf85611c45565b50610fc985611cd9565b50610fd385611d80565b5085546001600160a01b0319166001600160a01b039283161786555193167f36b1453565f45af7b509b59d5e2eac8f1948ea9e3e193db6663b4101afb6382c8580a261101d578280f35b805460ff60401b19169055600181527fc7f505b2f371ae2175ee4913f4499e1f2633a7b5936321eed1cdaeb6115181d290602090a15f808280f35b68ffffffffffffffffff1916680100000000000000011784555f610f88565b825163f92ee8a960e01b8152fd5b9050155f610f6b565b303b159150610f63565b869150610f59565b8383346101885780600319360112610188576110ba611a0f565b90336001600160a01b038316036110d75750610449919235611e85565b5163334bd91960e11b81528390fd5b919050346103d557806003193601126103d557610449913561110b6001610426611a0f565b611e14565b8383346101885761112036611a3b565b83548351631c2e21b960e11b808252602082890181905297946001600160a01b0394909360609391929086169184818061115d6024820188612105565b0381865afa908115611298578a9161127b575b50868151161561126b57888101511561126b578a015161125b579183918a6111ab948a519586948593849384528c8401526024830190612105565b03915afa91821561125157936024928194928a968a92611234575b505051168651958694859363056720bf60e51b855216908301525afa9283156103485780936111fa575b5050519015158152f35b909192508382813d831161122d575b611213818361198d565b810103126101f3575061122590612010565b9083806111f0565b503d611209565b61124a9250803d106103795761036a818361198d565b8a806111c6565b86513d89823e3d90fd5b875163526e73a560e01b81528790fd5b885163014eb98760e11b81528890fd5b6112929150853d87116103795761036a818361198d565b8b611170565b89513d8c823e3d90fd5b9050346103d55760203660031901126103d557816020936001923581525f8051602061228883398151915285522001549051908152f35b905060031982813601126103d1576001600160401b039180358381116106335761130690369083016119c9565b91602493843590811161070d5761132090369084016119c9565b86548651636f77926b60e01b80825233828701526001600160a01b039283169793959391929091908a8483818c5afa938415611797578b9461177b575b508351511561176b57600160608095015115151461175b57908795949392918a51998c631c2e21b960e11b9b8c81528681806113a360209d8e8d84015289830190612105565b0381865afa918215611703579161173e575b50828151161561172e578c8101511561172e5788015161171e577f9b779b17422d0df92223018b32b4d1fa46e071723d6817e2486d003becc55f009a60028c541461170e57908a868f938f908f8d926002611420925551948593849384528d84015289830190612105565b0381855afa92831561170357926116e4575b508c5194855233878601528d8d81878781865afa9687156116bd5789938c9184996116c8575b5082516331056e5760e21b815294859182905afa9283156116bd5789918c918495611681575b5085519051637657dbdd60e01b8152928391829089165afa9182156116765791611649575b50340361163957908d979695949392913461158a575b505116915194823b1561070d57869461150586926114f58f51998a9889978896635ad433fd60e11b885233908801528601526064850190612105565b908382030160448401528b612105565b03925af1801561158057611568575b505090846115617fb17b7f220d392b3fac92feead39a937412996860f3aacd51a13f9271239df6519361155260019851948486958652850190612105565b90838203908401523395612105565b0390a25580f35b61157490939293611966565b6106335790855f611514565b87513d84823e3d90fd5b8293949596979850919091168d8d8180808034875af1913d15611632573d6115bd6115b4826119ae565b9351938461198d565b82528b3d92013e5b1561162257908d600387969594938f808f6116198f91879f9e9d7fdf7cc5ebdb7be805a1d96fd982aba37cbf8e9169d6f34870e8d63a62cd492f64955194859433865234908601528401528c830190612105565b0390a45f6114b9565b8c516331eb874960e21b81528790fd5b50506115c5565b8c5163e1d94b7f60e01b81528790fd5b90508981813d831161166f575b611660818361198d565b8101031261033d57515f6114a3565b503d611656565b8f51903d90823e3d90fd5b945050905082813d83116116b6575b61169a818361198d565b810103126101f357878a8f936116af906120f1565b935f61147e565b503d611690565b5051903d90823e3d90fd5b6116dd9199503d8086833e61069c818361198d565b975f611458565b6116fc919250863d88116103795761036a818361198d565b905f611432565b8e51903d90823e3d90fd5b8c51633ee5aeb560e01b81528790fd5b8b5163526e73a560e01b81528690fd5b8c5163014eb98760e11b81528790fd5b6117559150863d88116103795761036a818361198d565b5f6113b5565b895163e9dc308560e01b81528590fd5b895163ce848fe360e01b81528590fd5b6117909194503d808d833e61069c818361198d565b925f61135d565b8a513d8d823e3d90fd5b505034610188578160031936011261018857905490516001600160a01b039091168152602090f35b9050346103d55760203660031901126103d557359063ffffffff60e01b82168092036103d55760209250637965db0b60e01b821491821561180e575b50519015158152f35b6301ffc9a760e01b1491505f611805565b919050346103d55760203660031901126103d55781356001600160401b0381116103d15761185090369084016119c9565b83548251636f77926b60e01b81523385820152936001600160a01b03909116918585602481865afa948515610ed157869561194a575b508451511561193b5780511561192c5784528490823b15610188576118c392859183865180968195829463178682c160e01b84523390840161212a565b03925af1801561192257611902575b505f80516020612248833981519152908251926107e5826060830151151592015115159251928392339684612184565b9261191b5f805160206122488339815191529294611966565b92906118d2565b82513d86823e3d90fd5b508251632bf9525960e11b8152fd5b5082516365553c4160e11b8152fd5b61195f9195503d8088833e61069c818361198d565b935f611886565b6001600160401b03811161197957604052565b634e487b7160e01b5f52604160045260245ffd5b90601f801991011681019081106001600160401b0382111761197957604052565b6001600160401b03811161197957601f01601f191660200190565b81601f8201121561033d578035906119e0826119ae565b926119ee604051948561198d565b8284526020838301011161033d57815f926020809301838601378301015290565b602435906001600160a01b038216820361033d57565b600435906001600160a01b038216820361033d57565b90604060031983011261033d576004356001600160a01b038116810361033d5791602435906001600160401b03821161033d57611a7a916004016119c9565b90565b60243590811515820361033d57565b335f9081527f739cde10a782e9a33d89b0a8d75532a668a23d692dcfad349651b427f16e43cf60205260409020545f805160206122a88339815191529060ff1615611ad45750565b6044906040519063e2517d3f60e01b82523360048301526024820152fd5b805f525f8051602061228883398151915260205260405f20335f5260205260ff60405f20541615611ad45750565b6001600160a01b03165f8181527fb7db2dd08fcb62d0c9e08c51941cae53c267786a0b75803fb7960902fc8ef97d60205260408120549091905f805160206122888339815191529060ff16611ba6578280526020526040822081835260205260408220600160ff1982541617905533915f805160206122088339815191528180a4600190565b505090565b6001600160a01b03165f8181527f739cde10a782e9a33d89b0a8d75532a668a23d692dcfad349651b427f16e43cf60205260408120549091905f805160206122a8833981519152905f805160206122888339815191529060ff16611c3f578184526020526040832082845260205260408320600160ff198254161790555f80516020612208833981519152339380a4600190565b50505090565b6001600160a01b03165f8181527f75442b0a96088b5456bc4ed01394c96a4feec0f883c9494257d76b96ab1c9b6b60205260408120549091905f80516020612268833981519152905f805160206122888339815191529060ff16611c3f578184526020526040832082845260205260408320600160ff198254161790555f80516020612208833981519152339380a4600190565b6001600160a01b03165f8181527fab71e3f32666744d246edff3f96e4bdafee2e9867098cdd118a979a7464786a860205260408120549091907f189ab7a9244df0848122154315af71fe140f3db0fe014031783b0946b8c9d2e3905f805160206122888339815191529060ff16611c3f578184526020526040832082845260205260408320600160ff198254161790555f80516020612208833981519152339380a4600190565b6001600160a01b03165f8181527fd56b761303e15a4cbea84f37eba80a5289f49fda0b4884e30ac1d73eb9b8b14360205260408120549091905f805160206122c8833981519152905f805160206122888339815191529060ff16611c3f578184526020526040832082845260205260408320600160ff198254161790555f80516020612208833981519152339380a4600190565b905f918083525f8051602061228883398151915280602052604084209260018060a01b03169283855260205260ff604085205416155f14611c3f578184526020526040832082845260205260408320600160ff198254161790555f80516020612208833981519152339380a4600190565b905f918083525f8051602061228883398151915280602052604084209260018060a01b03169283855260205260ff6040852054165f14611c3f57818452602052604083208284526020526040832060ff1981541690557ff6391f5c32d9c69d2a47ea670b442974b53935d1edc7fd64eb21e047a839171b339380a4600190565b5f80516020612228833981519152546001600160a01b03163303611f2557565b60405163118cdaa760e01b8152336004820152602490fd5b6001600160a01b03908116908115611f96575f8051602061222883398151915280546001600160a01b031981168417909155167f8be0079c531659141344cd1fd0a4f28419497f9722a3daafe3b4186f6b6457e05f80a3565b604051631e4fbdf760e01b81525f6004820152602490fd5b60ff7ff0c57e16840df040f15088dc2f81fe391c3923bec73e23a9662efc9c229c6a005460401c1615611fdd57565b604051631afcd79f60e31b8152600490fd5b5f5b8381106120005750505f910152565b8181015183820152602001611ff1565b5190811515820361033d57565b90602090818382031261033d5782516001600160401b039384821161033d570160a08183031261033d576040519360a085018581108282111761197957604052815190811161033d5781019282601f8501121561033d57835192612080846119ae565b9061208e604051928361198d565b84825282858701011161033d576120b06080946120e996848085019101611fef565b85526120bd818301612010565b908501526120cd60408201612010565b60408501526120de60608201612010565b606085015201612010565b608082015290565b51906001600160a01b038216820361033d57565b9060209161211e81518092818552858086019101611fef565b601f01601f1916010190565b9060018060a01b031681526040602082015260c06080612156845160a0604086015260e0850190612105565b9360208101511515606085015260408101511515828501526060810151151560a08501520151151591015290565b5f92949361219c606093608084526080840190612105565b9515156020830152151560408201520152565b9081606091031261033d5760405190606082018281106001600160401b03821117611979576121ff9160409182526121e6816120f1565b84526121f460208201612010565b602085015201612010565b60408201529056fe2f8788117e7eff1d82e926ec794901d17c78024a50270940304540a733656f0d9016d09d72d40fdae2fd8ceac6b6234c7706214fd39c1cd1e609a0528c19930052b0aedf558ae7ca1fea6363c537e188e53ef8982b74a564ee8eeae39d68017a65d7a28e3265b37a6474929f336521b332c1681b933f6cb9f3376673440d862a02dd7bc7dec4dceedda775e58dd541e08a116c6c53815c0bd028192f7b626800cbaaf41b181bb6e269c490e876a7c97711b57e21dd8e5528423cf57579726b350ce23c3e399818cfee81a7ab0880f714e53d7672b08df0fa62f2843416e1ea09a2646970667358221220a9bf5d9dbf28b8a383394729927a344b7ffc8bb32a2863a99cda0d64bf8ef2d964736f6c63430008140033",
  "linkReferences": {},
  "deployedLinkReferences": {}
}