{
  "_format": "hh-sol-artifact-1",
  "contractName": "TheBadgeUsers",
  "sourceName": "src/contracts/thebadge/TheBadgeUsers.sol",
  "abi": [
    {
      "inputs": [],
      "stateMutability": "nonpayable",
      "type": "constructor"
    },
    {
      "inputs": [],
      "name": "AccessControlBadConfirmation",
      "type": "error"
    },
    {
      "inputs": [
        {
          "internalType": "address",
          "name": "account",
          "type": "address"
        },
        {
          "internalType": "bytes32",
          "name": "neededRole",
          "type": "bytes32"
        }
      ],
      "name": "AccessControlUnauthorizedAccount",
      "type": "error"
    },
    {
      "inputs": [],
      "name": "InvalidInitialization",
      "type": "error"
    },
    {
      "inputs": [],
      "name": "NotInitializing",
      "type": "error"
    },
    {
      "inputs": [
        {
          "internalType": "address",
          "name": "owner",
          "type": "address"
        }
      ],
      "name": "OwnableInvalidOwner",
      "type": "error"
    },
    {
      "inputs": [
        {
          "internalType": "address",
          "name": "account",
          "type": "address"
        }
      ],
      "name": "OwnableUnauthorizedAccount",
      "type": "error"
    },
    {
      "inputs": [],
      "name": "ReentrancyGuardReentrantCall",
      "type": "error"
    },
    {
      "inputs": [],
      "name": "TheBadge__controller_controllerIsPaused",
      "type": "error"
    },
    {
      "inputs": [],
      "name": "TheBadge__controller_invalidController",
      "type": "error"
    },
    {
      "inputs": [],
      "name": "TheBadge__onlyCreator_senderIsAlreadyACreator",
      "type": "error"
    },
    {
      "inputs": [],
      "name": "TheBadge__onlyUser_userNotFound",
      "type": "error"
    },
    {
      "inputs": [],
      "name": "TheBadge__registerUser_alreadyRegistered",
      "type": "error"
    },
    {
      "inputs": [],
      "name": "TheBadge__registerUser_wrongValue",
      "type": "error"
    },
    {
      "inputs": [],
      "name": "TheBadge__updateUser_notFound",
      "type": "error"
    },
    {
      "inputs": [],
      "name": "TheBadge__updateUser_wrongMetadata",
      "type": "error"
    },
    {
      "inputs": [],
      "name": "TheBadge__users__onlyCreator_creatorIsSuspended",
      "type": "error"
    },
    {
      "inputs": [],
      "name": "TheBadge__verifyUser__userVerificationAlreadyStarted",
      "type": "error"
    },
    {
      "inputs": [],
      "name": "TheBadge__verifyUser__userVerificationNotStarted",
      "type": "error"
    },
    {
      "inputs": [],
      "name": "TheBadge__verifyUser_verificationProtocolFeesPaymentFailed",
      "type": "error"
    },
    {
      "inputs": [],
      "name": "TheBadge__verifyUser_wrongValue",
      "type": "error"
    },
    {
      "anonymous": false,
      "inputs": [
        {
          "indexed": true,
          "internalType": "address",
          "name": "admin",
          "type": "address"
        }
      ],
      "name": "Initialize",
      "type": "event"
    },
    {
      "anonymous": false,
      "inputs": [
        {
          "indexed": false,
          "internalType": "uint64",
          "name": "version",
          "type": "uint64"
        }
      ],
      "name": "Initialized",
      "type": "event"
    },
    {
      "anonymous": false,
      "inputs": [
        {
          "indexed": true,
          "internalType": "address",
          "name": "previousOwner",
          "type": "address"
        },
        {
          "indexed": true,
          "internalType": "address",
          "name": "newOwner",
          "type": "address"
        }
      ],
      "name": "OwnershipTransferred",
      "type": "event"
    },
    {
      "anonymous": false,
      "inputs": [
        {
          "indexed": true,
          "internalType": "address",
          "name": "recipient",
          "type": "address"
        },
        {
          "indexed": false,
          "internalType": "address",
          "name": "payer",
          "type": "address"
        },
        {
          "indexed": false,
          "internalType": "uint256",
          "name": "amount",
          "type": "uint256"
        },
        {
          "indexed": true,
          "internalType": "enum LibTheBadge.PaymentType",
          "name": "paymentType",
          "type": "uint8"
        },
        {
          "indexed": true,
          "internalType": "uint256",
          "name": "badgeModelId",
          "type": "uint256"
        },
        {
          "indexed": false,
          "internalType": "string",
          "name": "controllerName",
          "type": "string"
        }
      ],
      "name": "PaymentMade",
      "type": "event"
    },
    {
      "anonymous": false,
      "inputs": [],
      "name": "ProtocolSettingsUpdated",
      "type": "event"
    },
    {
      "anonymous": false,
      "inputs": [
        {
          "indexed": true,
          "internalType": "bytes32",
          "name": "role",
          "type": "bytes32"
        },
        {
          "indexed": true,
          "internalType": "bytes32",
          "name": "previousAdminRole",
          "type": "bytes32"
        },
        {
          "indexed": true,
          "internalType": "bytes32",
          "name": "newAdminRole",
          "type": "bytes32"
        }
      ],
      "name": "RoleAdminChanged",
      "type": "event"
    },
    {
      "anonymous": false,
      "inputs": [
        {
          "indexed": true,
          "internalType": "bytes32",
          "name": "role",
          "type": "bytes32"
        },
        {
          "indexed": true,
          "internalType": "address",
          "name": "account",
          "type": "address"
        },
        {
          "indexed": true,
          "internalType": "address",
          "name": "sender",
          "type": "address"
        }
      ],
      "name": "RoleGranted",
      "type": "event"
    },
    {
      "anonymous": false,
      "inputs": [
        {
          "indexed": true,
          "internalType": "bytes32",
          "name": "role",
          "type": "bytes32"
        },
        {
          "indexed": true,
          "internalType": "address",
          "name": "account",
          "type": "address"
        },
        {
          "indexed": true,
          "internalType": "address",
          "name": "sender",
          "type": "address"
        }
      ],
      "name": "RoleRevoked",
      "type": "event"
    },
    {
      "anonymous": false,
      "inputs": [
        {
          "indexed": true,
          "internalType": "address",
          "name": "userAddress",
          "type": "address"
        },
        {
          "indexed": false,
          "internalType": "string",
          "name": "metadata",
          "type": "string"
        },
        {
          "indexed": false,
          "internalType": "bool",
          "name": "suspended",
          "type": "bool"
        },
        {
          "indexed": false,
          "internalType": "bool",
          "name": "isCreator",
          "type": "bool"
        },
        {
          "indexed": false,
          "internalType": "bool",
          "name": "deleted",
          "type": "bool"
        }
      ],
      "name": "UpdatedUser",
      "type": "event"
    },
    {
      "anonymous": false,
      "inputs": [
        {
          "indexed": true,
          "internalType": "address",
          "name": "user",
          "type": "address"
        },
        {
          "indexed": false,
          "internalType": "string",
          "name": "metadata",
          "type": "string"
        }
      ],
      "name": "UserRegistered",
      "type": "event"
    },
    {
      "anonymous": false,
      "inputs": [
        {
          "indexed": true,
          "internalType": "address",
          "name": "user",
          "type": "address"
        },
        {
          "indexed": false,
          "internalType": "string",
          "name": "controllerName",
          "type": "string"
        },
        {
          "indexed": false,
          "internalType": "bool",
          "name": "verify",
          "type": "bool"
        }
      ],
      "name": "UserVerificationExecuted",
      "type": "event"
    },
    {
      "anonymous": false,
      "inputs": [
        {
          "indexed": true,
          "internalType": "address",
          "name": "user",
          "type": "address"
        },
        {
          "indexed": false,
          "internalType": "string",
          "name": "metadata",
          "type": "string"
        },
        {
          "indexed": false,
          "internalType": "string",
          "name": "controllerName",
          "type": "string"
        }
      ],
      "name": "UserVerificationRequested",
      "type": "event"
    },
    {
      "inputs": [],
      "name": "CLAIMER_ROLE",
      "outputs": [
        {
          "internalType": "bytes32",
          "name": "",
          "type": "bytes32"
        }
      ],
      "stateMutability": "view",
      "type": "function"
    },
    {
      "inputs": [],
      "name": "DEFAULT_ADMIN_ROLE",
      "outputs": [
        {
          "internalType": "bytes32",
          "name": "",
          "type": "bytes32"
        }
      ],
      "stateMutability": "view",
      "type": "function"
    },
    {
      "inputs": [],
      "name": "PAUSER_ROLE",
      "outputs": [
        {
          "internalType": "bytes32",
          "name": "",
          "type": "bytes32"
        }
      ],
      "stateMutability": "view",
      "type": "function"
    },
    {
      "inputs": [],
      "name": "UPGRADER_ROLE",
      "outputs": [
        {
          "internalType": "bytes32",
          "name": "",
          "type": "bytes32"
        }
      ],
      "stateMutability": "view",
      "type": "function"
    },
    {
      "inputs": [],
      "name": "URI_SETTER_ROLE",
      "outputs": [
        {
          "internalType": "bytes32",
          "name": "",
          "type": "bytes32"
        }
      ],
      "stateMutability": "view",
      "type": "function"
    },
    {
      "inputs": [],
      "name": "USER_MANAGER_ROLE",
      "outputs": [
        {
          "internalType": "bytes32",
          "name": "",
          "type": "bytes32"
        }
      ],
      "stateMutability": "view",
      "type": "function"
    },
    {
      "inputs": [],
      "name": "VERIFIER_ROLE",
      "outputs": [
        {
          "internalType": "bytes32",
          "name": "",
          "type": "bytes32"
        }
      ],
      "stateMutability": "view",
      "type": "function"
    },
    {
      "inputs": [],
      "name": "_badgeStore",
      "outputs": [
        {
          "internalType": "contract TheBadgeStore",
          "name": "",
          "type": "address"
        }
      ],
      "stateMutability": "view",
      "type": "function"
    },
    {
      "inputs": [],
      "name": "_badgeUsersStore",
      "outputs": [
        {
          "internalType": "contract TheBadgeUsersStore",
          "name": "",
          "type": "address"
        }
      ],
      "stateMutability": "view",
      "type": "function"
    },
    {
      "inputs": [
        {
          "internalType": "address",
          "name": "_user",
          "type": "address"
        },
        {
          "internalType": "string",
          "name": "controllerName",
          "type": "string"
        },
        {
          "internalType": "bool",
          "name": "verify",
          "type": "bool"
        }
      ],
      "name": "executeUserVerification",
      "outputs": [],
      "stateMutability": "nonpayable",
      "type": "function"
    },
    {
      "inputs": [],
      "name": "getRegisterFee",
      "outputs": [
        {
          "internalType": "uint256",
          "name": "",
          "type": "uint256"
        }
      ],
      "stateMutability": "view",
      "type": "function"
    },
    {
      "inputs": [
        {
          "internalType": "bytes32",
          "name": "role",
          "type": "bytes32"
        }
      ],
      "name": "getRoleAdmin",
      "outputs": [
        {
          "internalType": "bytes32",
          "name": "",
          "type": "bytes32"
        }
      ],
      "stateMutability": "view",
      "type": "function"
    },
    {
      "inputs": [
        {
          "internalType": "address",
          "name": "userAddress",
          "type": "address"
        }
      ],
      "name": "getUser",
      "outputs": [
        {
          "components": [
            {
              "internalType": "string",
              "name": "metadata",
              "type": "string"
            },
            {
              "internalType": "bool",
              "name": "isCompany",
              "type": "bool"
            },
            {
              "internalType": "bool",
              "name": "isCreator",
              "type": "bool"
            },
            {
              "internalType": "bool",
              "name": "suspended",
              "type": "bool"
            },
            {
              "internalType": "bool",
              "name": "initialized",
              "type": "bool"
            }
          ],
          "internalType": "struct TheBadgeUsersStore.User",
          "name": "",
          "type": "tuple"
        }
      ],
      "stateMutability": "view",
      "type": "function"
    },
    {
      "inputs": [
        {
          "internalType": "address",
          "name": "controllerAddress",
          "type": "address"
        },
        {
          "internalType": "address",
          "name": "userAddress",
          "type": "address"
        }
      ],
      "name": "getUserVerifyStatus",
      "outputs": [
        {
          "components": [
            {
              "internalType": "address",
              "name": "user",
              "type": "address"
            },
            {
              "internalType": "string",
              "name": "userMetadata",
              "type": "string"
            },
            {
              "internalType": "string",
              "name": "verificationEvidence",
              "type": "string"
            },
            {
              "internalType": "enum LibTheBadgeUsers.VerificationStatus",
              "name": "verificationStatus",
              "type": "uint8"
            },
            {
              "internalType": "address",
              "name": "verificationController",
              "type": "address"
            },
            {
              "internalType": "bool",
              "name": "initialized",
              "type": "bool"
            }
          ],
          "internalType": "struct TheBadgeUsersStore.UserVerification",
          "name": "",
          "type": "tuple"
        }
      ],
      "stateMutability": "view",
      "type": "function"
    },
    {
      "inputs": [
        {
          "internalType": "string",
          "name": "controllerName",
          "type": "string"
        }
      ],
      "name": "getVerificationFee",
      "outputs": [
        {
          "internalType": "uint256",
          "name": "",
          "type": "uint256"
        }
      ],
      "stateMutability": "view",
      "type": "function"
    },
    {
      "inputs": [
        {
          "internalType": "bytes32",
          "name": "role",
          "type": "bytes32"
        },
        {
          "internalType": "address",
          "name": "account",
          "type": "address"
        }
      ],
      "name": "grantRole",
      "outputs": [],
      "stateMutability": "nonpayable",
      "type": "function"
    },
    {
      "inputs": [
        {
          "internalType": "bytes32",
          "name": "role",
          "type": "bytes32"
        },
        {
          "internalType": "address",
          "name": "account",
          "type": "address"
        }
      ],
      "name": "hasRole",
      "outputs": [
        {
          "internalType": "bool",
          "name": "",
          "type": "bool"
        }
      ],
      "stateMutability": "view",
      "type": "function"
    },
    {
      "inputs": [
        {
          "internalType": "address",
          "name": "admin",
          "type": "address"
        },
        {
          "internalType": "address",
          "name": "badgeStore",
          "type": "address"
        },
        {
          "internalType": "address",
          "name": "badgeUsersStore",
          "type": "address"
        }
      ],
      "name": "initialize",
      "outputs": [],
      "stateMutability": "nonpayable",
      "type": "function"
    },
    {
      "inputs": [
        {
          "internalType": "address",
          "name": "_user",
          "type": "address"
        },
        {
          "internalType": "string",
          "name": "controllerName",
          "type": "string"
        }
      ],
      "name": "isUserVerified",
      "outputs": [
        {
          "internalType": "bool",
          "name": "",
          "type": "bool"
        }
      ],
      "stateMutability": "view",
      "type": "function"
    },
    {
      "inputs": [
        {
          "internalType": "address",
          "name": "_userAddress",
          "type": "address"
        }
      ],
      "name": "makeUserCreator",
      "outputs": [],
      "stateMutability": "nonpayable",
      "type": "function"
    },
    {
      "inputs": [],
      "name": "owner",
      "outputs": [
        {
          "internalType": "address",
          "name": "",
          "type": "address"
        }
      ],
      "stateMutability": "view",
      "type": "function"
    },
    {
      "inputs": [
        {
          "internalType": "string",
          "name": "_metadata",
          "type": "string"
        },
        {
          "internalType": "bool",
          "name": "_isCompany",
          "type": "bool"
        }
      ],
      "name": "registerUser",
      "outputs": [],
      "stateMutability": "payable",
      "type": "function"
    },
    {
      "inputs": [],
      "name": "renounceOwnership",
      "outputs": [],
      "stateMutability": "nonpayable",
      "type": "function"
    },
    {
      "inputs": [
        {
          "internalType": "bytes32",
          "name": "role",
          "type": "bytes32"
        },
        {
          "internalType": "address",
          "name": "callerConfirmation",
          "type": "address"
        }
      ],
      "name": "renounceRole",
      "outputs": [],
      "stateMutability": "nonpayable",
      "type": "function"
    },
    {
      "inputs": [
        {
          "internalType": "bytes32",
          "name": "role",
          "type": "bytes32"
        },
        {
          "internalType": "address",
          "name": "account",
          "type": "address"
        }
      ],
      "name": "revokeRole",
      "outputs": [],
      "stateMutability": "nonpayable",
      "type": "function"
    },
    {
      "inputs": [
        {
          "internalType": "string",
          "name": "controllerName",
          "type": "string"
        },
        {
          "internalType": "string",
          "name": "evidenceUri",
          "type": "string"
        }
      ],
      "name": "submitUserVerification",
      "outputs": [],
      "stateMutability": "payable",
      "type": "function"
    },
    {
      "inputs": [
        {
          "internalType": "bytes4",
          "name": "interfaceId",
          "type": "bytes4"
        }
      ],
      "name": "supportsInterface",
      "outputs": [
        {
          "internalType": "bool",
          "name": "",
          "type": "bool"
        }
      ],
      "stateMutability": "view",
      "type": "function"
    },
    {
      "inputs": [
        {
          "internalType": "address",
          "name": "_userAddress",
          "type": "address"
        },
        {
          "internalType": "bool",
          "name": "suspended",
          "type": "bool"
        }
      ],
      "name": "suspendUser",
      "outputs": [],
      "stateMutability": "nonpayable",
      "type": "function"
    },
    {
      "inputs": [
        {
          "internalType": "address",
          "name": "newOwner",
          "type": "address"
        }
      ],
      "name": "transferOwnership",
      "outputs": [],
      "stateMutability": "nonpayable",
      "type": "function"
    },
    {
      "inputs": [
        {
          "internalType": "string",
          "name": "_metadata",
          "type": "string"
        }
      ],
      "name": "updateProfile",
      "outputs": [],
      "stateMutability": "nonpayable",
      "type": "function"
    },
    {
      "inputs": [
        {
          "internalType": "uint256",
          "name": "_registerCreatorValue",
          "type": "uint256"
        }
      ],
      "name": "updateRegisterCreatorProtocolFee",
      "outputs": [],
      "stateMutability": "nonpayable",
      "type": "function"
    },
    {
      "inputs": [
        {
          "internalType": "address",
          "name": "_userAddress",
          "type": "address"
        },
        {
          "internalType": "string",
          "name": "_metadata",
          "type": "string"
        }
      ],
      "name": "updateUser",
      "outputs": [],
      "stateMutability": "nonpayable",
      "type": "function"
    },
    {
      "stateMutability": "payable",
      "type": "receive"
    }
  ],
  "bytecode": "0x608080604052346100b8577ff0c57e16840df040f15088dc2f81fe391c3923bec73e23a9662efc9c229c6a009081549060ff8260401c166100a957506001600160401b036002600160401b031982821601610064575b6040516129ed90816100bd8239f35b6001600160401b031990911681179091556040519081527fc7f505b2f371ae2175ee4913f4499e1f2633a7b5936321eed1cdaeb6115181d290602090a15f8080610055565b63f92ee8a960e01b8152600490fd5b5f80fdfe6040608081526004908136101561001f575b5050361561001d575f80fd5b005b5f91823560e01c9081629299e314611c2a57816301ffc9a714611bd457816319b50c2a14611bac5781631b6cd66714611671578163248a9ca31461163a5781632acb0301146115695781632f2ff15d1461153f57816332a58e79146114b457816336568abe1461146e5781635c3736f1146113045781636f77926b1461125857816370c5a2561461122f578163715018a6146111c657816379b233db14610f115781637f34571014610ed65781638a4be49014610d8b5781638da5cb5b14610d5657816391d1485414610d06578163a217fddf14610ceb578163a41e35c314610cc3578163b088981914610b90578163c0c53b8b146109cd578163c1b8c5f114610647578163d3fc8d401461056e578163d547741f14610522578163e63ab1e9146104fa578163e71de04814610342578163e7705db61461031a578163f1fe717e1461022d57508063f2fde38b146101fd578063f72c0d8b146101c35763fc5f18d30361001157346101bf57816003193601126101bf57602090517f11a8cb5a02bd6c42679835e867ef2118ba78f088f8300511420c6603c21d9c788152f35b5080fd5b50346101bf57816003193601126101bf57602090517f189ab7a9244df0848122154315af71fe140f3db0fe014031783b0946b8c9d2e38152f35b823461022a57602036600319011261022a5761022761021a611e71565b610222612465565b61249d565b80f35b80fd5b91905034610316576020366003190112610316575f80525f80516020612958833981519152602052805f20335f5260205260ff815f205416156102f95760015483926001600160a01b039091169190823b156102f457839260248492845195869384926378ff38bf60e11b84528035908401525af19081156102eb57506102d7575b50807f810f1720fbc34c56d171f89315ad21708648fd17424c27b88fa208409845aa7791a180f35b6102e090611d7c565b61022a57805f6102af565b513d84823e3d90fd5b505050fd5b60449250519063e2517d3f60e01b825233908201525f6024820152fd5b8280fd5b5050346101bf57816003193601126101bf57602090515f805160206129988339815191528152f35b8383346101bf57602092836003193601126103165780356001600160401b0381116104f6576103749036908301611e15565b83548351631c2e21b960e11b8082528482018890526001600160a01b0393606093909290851691908481806103ac6024820188611ef9565b0381865afa9081156104ec5789916104cf575b5085815116156104bf5787810151156104bf578901516104af579183916103f993885180958194829383528d8b8401526024830190611ef9565b03915afa9182156104a55790879392918792610478575b50505116835192838092637657dbdd60e01b82525afa92831561046d579261043a575b5051908152f35b9091508281813d8311610466575b6104528183611dd9565b8101031261046257519083610433565b5f80fd5b503d610448565b8251903d90823e3d90fd5b6104979250803d1061049e575b61048f8183611dd9565b810190612710565b8780610410565b503d610485565b85513d88823e3d90fd5b865163526e73a560e01b81528690fd5b875163014eb98760e11b81528790fd5b6104e69150853d871161049e5761048f8183611dd9565b8a6103bf565b88513d8b823e3d90fd5b8380fd5b5050346101bf57816003193601126101bf57602090515f805160206129388339815191528152f35b9190503461031657806003193601126103165761056a91356105656001610547611e5b565b938387525f8051602061295883398151915260205286200154612052565b6123e5565b5080f35b9190503461031657828160031936011261022a576105ea9261058e611e71565b90610597611e5b565b918360a086516105a681611dbe565b82815260606020820152606088820152826060820152826080820152015260018060a01b03600154169185519687948593849363034ff23560e61b855284016126f6565b03915afa91821561063d57836106149493610618575b505051918291602083526020830190611f85565b0390f35b6106359293503d8091833e61062d8183611dd9565b810190612644565b905f80610600565b81513d85823e3d90fd5b839150346101bf5760608060031936011261031657610664611e71565b9360249182356001600160401b03811161089e576106859036908601611e15565b926044359182151595868403610462575f8051602061299883398151915293845f526020945f805160206129588339815191528652865f20335f52865260ff875f205416156109b057508490600160a01b6001900390818b54169b8c868b8b519283808093631c2e21b960e11b9a8b83528c8301528d820161070691611ef9565b03915afa9081156109a6578d91610989575b50838151161561097957898101511561097957880151610969578b9c8360015416948a519d8e636f77926b60e01b90528584169e8f8982015281818c818b5afa91821561095e57809261093b575b50508051511561092b57880151151560011461091b57878f93928b90898f948f8e966107a19151978896879586958652850152830190611ef9565b03915afa9788156109115783986108ea575b505086518a5163034ff23560e61b81529291839182916107d79188168a84016126f6565b0381875afa908d82156108df57908160a0936108c4575b50500151156108b4578b959493929190156108ac576001935b511691813b1561089e578560649261083c82968e8c51998a988997632861626f60e11b89528801528601526044850190611f64565b5af180156108a25761088a575b50507fdea1140938dde90016dc539563f1fa2f3f675e2cdee8d0c6a7999e1830cc81be936108808351948486958652850190611ef9565b918301520390a280f35b61089390611d7c565b61089e578587610849565b8580fd5b84513d84823e3d90fd5b600293610807565b87516380a3685160e01b81528490fd5b6108d892503d8091833e61062d8183611dd9565b8e8e6107ee565b8a51903d90823e3d90fd5b6107d793929850908161090892903d1061049e5761048f8183611dd9565b9690918f6107b3565b8b513d85823e3d90fd5b8a5163e9dc308560e01b81528790fd5b8b5163ce848fe360e01b81528890fd5b61095792503d8091833e61094f8183611dd9565b81019061259e565b8f80610766565b8d51903d90823e3d90fd5b885163526e73a560e01b81528590fd5b895163014eb98760e11b81528690fd5b6109a09150873d891161049e5761048f8183611dd9565b8e610718565b8a513d8f823e3d90fd5b865163e2517d3f60e01b8152338185015280860191909152604490fd5b91905034610316576060366003190112610316576109e9611e71565b916109f2611e5b565b916001600160a01b039060443582811690819003610462577ff0c57e16840df040f15088dc2f81fe391c3923bec73e23a9662efc9c229c6a0094855460ff81851c1615956001600160401b03821680159081610b88575b6001149081610b7e575b159081610b75575b50610b67575067ffffffffffffffff198116600117875585610b48575b50610a8161250e565b610a8961250e565b610a928761249d565b610a9b87612080565b50610aa58761210b565b50610aaf876121a5565b50610ab987612239565b50610ac3876122e0565b508360018060a01b031991168189541617885560015416176001555193167f36b1453565f45af7b509b59d5e2eac8f1948ea9e3e193db6663b4101afb6382c8580a2610b0d578280f35b805460ff60401b19169055600181527fc7f505b2f371ae2175ee4913f4499e1f2633a7b5936321eed1cdaeb6115181d290602090a15f808280f35b68ffffffffffffffffff1916680100000000000000011786555f610a78565b845163f92ee8a960e01b8152fd5b9050155f610a5b565b303b159150610a53565b889150610a49565b9190503461031657610ba136611e87565b92610baa611fec565b6001548351636f77926b60e01b81526001600160a01b03848116828501819052969194921692908785602481875afa948515610cb9578895610c9d575b5084515115610c8e57805115610c7f57845286929190823b156104f657610c2792849283879389519687958694859363178682c160e01b8552840161288a565b03925af180156108a257610c6b575b50505f8051602061291883398151915291610c65825191806060850151151594015115159051938493846128ac565b0390a280f35b610c7490611d7c565b6104f657835f610c36565b508451632bf9525960e11b8152fd5b5084516365553c4160e11b8152fd5b610cb29195503d808a833e61094f8183611dd9565b935f610be7565b86513d8a823e3d90fd5b5050346101bf57816003193601126101bf57602090515f805160206129788339815191528152f35b5050346101bf57816003193601126101bf5751908152602090f35b90503461031657816003193601126103165781602093610d24611e5b565b923581525f805160206129588339815191528552209060018060a01b03165f52825260ff815f20541690519015158152f35b5050346101bf57816003193601126101bf575f805160206128f88339815191525490516001600160a01b039091168152602090f35b9190503461031657602036600319011261031657610da7611e71565b91610db0611fec565b6001548251636f77926b60e01b81526001600160a01b0385811684830181905295919216908683602481855afa928315610ecc578793610eb0575b5082515115610ea0578483019360018551151514610e92579087929160018652823b156104f657610e359284928387938a519687958694859363178682c160e01b8552840161288a565b03925af18015610e8857610e70575b5050610c655f8051602061291883398151915293606083519301511515935115159051938493846128ac565b610e7990611d7c565b610e8457845f610e44565b8480fd5b85513d84823e3d90fd5b8551631edcfb9f60e21b8152fd5b84516365553c4160e11b81528490fd5b610ec59193503d8089833e61094f8183611dd9565b915f610deb565b85513d89823e3d90fd5b5050346101bf57816003193601126101bf57602090517f7804d923f43a17d325d77e781528e0793b2edd9890ab45fc64efd7b4b427744c8152f35b918091506003193601126103165781356001600160401b0381116104f657610f3c9036908401611e15565b610f44611ec9565b6001548351636f77926b60e01b815233818701526001600160a01b0391821695909390929087856024818a5afa948515610cb95788956111aa575b5084515161119a578551809763e70a0e6960e01b8252818660209a8b935afa908115611190578991611163575b50340361115357908793929134158015611068575b50855215158685015282858501528260608501526001608085015260015416803b156103165783839161100a938388518096819582946374d5912760e11b84523390840161288a565b03925af180156108a257611054575b50507f48cac28ad4dc618e15f4c2dd5e97751182f166de97b25618318b2112aa951a2f91610c65915190519182918583523395830190611ef9565b61105d90611d7c565b6104f657835f611019565b8489858854168a51928380926331056e5760e21b82525afa9081156111495787918691839161110c575b5016918190611103575b81808092853491f1156110f957600286917fdf7cc5ebdb7be805a1d96fd982aba37cbf8e9169d6f34870e8d63a62cd492f6460a08b513381528d349082015260608d82015284606082015261060f60f31b6080820152a45f610fc1565b87513d87823e3d90fd5b506108fc61109c565b925050508981813d8311611142575b6111258183611dd9565b8101031261113e57846111388892612630565b5f611092565b8680fd5b503d61111b565b89513d89823e3d90fd5b8551638c77ddf360e01b81528490fd5b90508781813d8311611189575b61117a8183611dd9565b8101031261046257515f610fac565b503d611170565b87513d8b823e3d90fd5b855163096bb4a360e41b81528490fd5b6111bf9195503d808a833e61094f8183611dd9565b935f610f7f565b833461022a578060031936011261022a576111df612465565b5f805160206128f883398151915280546001600160a01b031981169091555f906001600160a01b03167f8be0079c531659141344cd1fd0a4f28419497f9722a3daafe3b4186f6b6457e08280a380f35b5050346101bf57816003193601126101bf5760015490516001600160a01b039091168152602090f35b919050346103165760203660031901126103165782611275611e71565b816080845161128381611da3565b6060815282602082015282868201528260608201520152602460018060a01b0391826001541685519687948593636f77926b60e01b855216908301525afa91821561063d578361061494936112e7575b505051918291602083526020830190611f1e565b6112fc9293503d8091833e61094f8183611dd9565b905f806112d3565b9190503461031657806003193601126103165761131f611e71565b611327611ec9565b905f80516020612938833981519152805f525f80516020612958833981519152602052835f20335f5260205260ff845f2054161561145057506001548351636f77926b60e01b81526001600160a01b03838116878301819052969193921691908784602481865afa938415610cb9578894611434575b508351511561142657908792918515156060860152823b156104f6576113dc9284928387938a519687958694859363178682c160e01b8552840161288a565b03925af18015610e8857611412575b5050610c65835f8051602061291883398151915294835193015115159051938493846128ac565b61141b90611d7c565b610e8457845f6113eb565b85516365553c4160e11b8152fd5b6114499194503d808a833e61094f8183611dd9565b925f61139d565b835163e2517d3f60e01b815233818701526024810191909152604490fd5b8383346101bf57806003193601126101bf57611488611e5b565b90336001600160a01b038316036114a5575061056a9192356123e5565b5163334bd91960e11b81528390fd5b8383346101bf57816003193601126101bf57600154815163e70a0e6960e01b81529360209185919082906001600160a01b03165afa9182156115345791611500575b6020925051908152f35b90506020823d821161152c575b8161151a60209383611dd9565b810103126104625760209151906114f6565b3d915061150d565b9051903d90823e3d90fd5b9190503461031657806003193601126103165761056a91356115646001610547611e5b565b612374565b82843461022a5761157936611e87565b82548451631c2e21b960e11b815260208188015291959293916001600160a01b03916060908290841681806115b1602482018d611ef9565b03915afa92831561162f579261160f575b508151161561160057838101511561160057602001516115f257506020926115e991612768565b90519015158152f35b825163526e73a560e01b8152fd5b50825163014eb98760e11b8152fd5b61162891925060603d811161049e5761048f8183611dd9565b90866115c2565b8651903d90823e3d90fd5b90503461031657602036600319011261031657816020936001923581525f8051602061295883398151915285522001549051908152f35b839150826003193601126101bf576001600160401b039080358281116104f65761169e9036908301611e15565b6024928335908111610e84576116b79036908401611e15565b600180548751636f77926b60e01b80825233828801526001600160a01b03999397909691928a1689848381845afa938415611ba2578a94611b86575b5083515115611b765788606080950151151514611b66578a8a9b88999a9b541686519a8d631c2e21b960e11b9c8d815288818060209e8f8c8301528a820161173a91611ef9565b0381875afa9182156108df5791611b49575b508381511615611b39578881015115611b39578a0151611b29577f9b779b17422d0df92223018b32b4d1fa46e071723d6817e2486d003becc55f009b60028d5414611b1957918e91888c8f958f96600290556117b78d51978893849384528d8401528b830190611ef9565b0381855afa938415611b0f578394611aee575b508290878b51809881938252338c8301525afa948515611ae45787918c918497611ac8575b508a516331056e5760e21b815292839182905afa918215611abd5791611a84575b508d868b858551168b5192838092637657dbdd60e01b82525afa9182156108df5791611a57575b503403611a4757908d9291346119a3575b50818d54169361187084848451168b518093819263034ff23560e61b835233908d84016126f6565b0381895afa9485156108df57908f92918096611986575b505060a08501918251151514611976578f98979695949392918f91338652518d8601528b8b860152898986015283835116608086015252511690823b1561113e5786946118f986928a51988997889687956307480abd60e11b8752860152339085015260448401526064830190611f85565b03925af1801561196c57611958575b50506119517fb17b7f220d392b3fac92feead39a937412996860f3aacd51a13f9271239df651936119428351948486958652850190611ef9565b90838203908401523395611ef9565b0390a25580f35b61196190611d7c565b61113e578688611908565b83513d84823e3d90fd5b895163285fe7f560e01b81528890fd5b61199b9296503d8091833e61062d8183611dd9565b938f80611887565b9192509082168d8080808034865af1903d15611a41573d906119c482611dfa565b916119d18c519384611dd9565b82528c3d92013e5b15611a3157908d60038194937fdf7cc5ebdb7be805a1d96fd982aba37cbf8e9169d6f34870e8d63a62cd492f648b8f8f90611a28908e8085519586953387523490870152850152830190611ef9565b0390a48e611848565b87516331eb874960e21b81528690fd5b506119d9565b875163e1d94b7f60e01b81528690fd5b90508a81813d8311611a7d575b611a6e8183611dd9565b8101031261046257518f611837565b503d611a64565b90508981813d8311611ab6575b611a9b8183611dd9565b81010312611ab257611aac90612630565b8e611810565b8d80fd5b503d611a91565b8951903d90823e3d90fd5b611add9197503d8086833e61094f8183611dd9565b955f6117ef565b89513d84823e3d90fd5b83919450611b08908a3d8c1161049e5761048f8183611dd9565b93906117ca565b8a513d85823e3d90fd5b8851633ee5aeb560e01b81528790fd5b875163526e73a560e01b81528690fd5b885163014eb98760e11b81528790fd5b611b609150883d8a1161049e5761048f8183611dd9565b8f61174c565b845163e9dc308560e01b81528390fd5b845163ce848fe360e01b81528390fd5b611b9b9194503d808c833e61094f8183611dd9565b928b6116f3565b85513d8c823e3d90fd5b5050346101bf57816003193601126101bf57905490516001600160a01b039091168152602090f35b90503461031657602036600319011261031657359063ffffffff60e01b82168092036103165760209250637965db0b60e01b8214918215611c19575b50519015158152f35b6301ffc9a760e01b1491505f611c10565b919050346103165760203660031901126103165781356001600160401b0381116104f657611c5b9036908401611e15565b6001548251636f77926b60e01b81523385820152936001600160a01b03909116918585602481865afa948515611d72578695611d56575b5084515115611d4757805115611d385784528490823b156101bf57611ccf92859183865180968195829463178682c160e01b84523390840161288a565b03925af18015611d2e57611d0e575b505f8051602061291883398151915290825192610c658260608301511515920151151592519283923396846128ac565b92611d275f805160206129188339815191529294611d7c565b9290611cde565b82513d86823e3d90fd5b508251632bf9525960e11b8152fd5b5082516365553c4160e11b8152fd5b611d6b9195503d8088833e61094f8183611dd9565b935f611c92565b84513d88823e3d90fd5b6001600160401b038111611d8f57604052565b634e487b7160e01b5f52604160045260245ffd5b60a081019081106001600160401b03821117611d8f57604052565b60c081019081106001600160401b03821117611d8f57604052565b90601f801991011681019081106001600160401b03821117611d8f57604052565b6001600160401b038111611d8f57601f01601f191660200190565b81601f8201121561046257803590611e2c82611dfa565b92611e3a6040519485611dd9565b8284526020838301011161046257815f926020809301838601378301015290565b602435906001600160a01b038216820361046257565b600435906001600160a01b038216820361046257565b906040600319830112610462576004356001600160a01b03811681036104625791602435906001600160401b03821161046257611ec691600401611e15565b90565b60243590811515820361046257565b5f5b838110611ee95750505f910152565b8181015183820152602001611eda565b90602091611f1281518092818552858086019101611ed8565b601f01601f1916010190565b90608080611f35845160a0855260a0850190611ef9565b936020810151151560208501526040810151151560408501526060810151151560608501520151151591015290565b906003821015611f715752565b634e487b7160e01b5f52602160045260245ffd5b9060a080600180821b0393848151168452611fc4611fb2602083015160c0602088015260c0870190611ef9565b60408301518682036040880152611ef9565b94611fd760608301516060870190611f64565b60808201511660808501520151151591015290565b335f9081527f739cde10a782e9a33d89b0a8d75532a668a23d692dcfad349651b427f16e43cf60205260409020545f805160206129788339815191529060ff16156120345750565b6044906040519063e2517d3f60e01b82523360048301526024820152fd5b805f525f8051602061295883398151915260205260405f20335f5260205260ff60405f205416156120345750565b6001600160a01b03165f8181527fb7db2dd08fcb62d0c9e08c51941cae53c267786a0b75803fb7960902fc8ef97d60205260408120549091905f805160206129588339815191529060ff16612106578280526020526040822081835260205260408220600160ff1982541617905533915f805160206128d88339815191528180a4600190565b505090565b6001600160a01b03165f8181527f739cde10a782e9a33d89b0a8d75532a668a23d692dcfad349651b427f16e43cf60205260408120549091905f80516020612978833981519152905f805160206129588339815191529060ff1661219f578184526020526040832082845260205260408320600160ff198254161790555f805160206128d8833981519152339380a4600190565b50505090565b6001600160a01b03165f8181527f75442b0a96088b5456bc4ed01394c96a4feec0f883c9494257d76b96ab1c9b6b60205260408120549091905f80516020612938833981519152905f805160206129588339815191529060ff1661219f578184526020526040832082845260205260408320600160ff198254161790555f805160206128d8833981519152339380a4600190565b6001600160a01b03165f8181527fab71e3f32666744d246edff3f96e4bdafee2e9867098cdd118a979a7464786a860205260408120549091907f189ab7a9244df0848122154315af71fe140f3db0fe014031783b0946b8c9d2e3905f805160206129588339815191529060ff1661219f578184526020526040832082845260205260408320600160ff198254161790555f805160206128d8833981519152339380a4600190565b6001600160a01b03165f8181527fd56b761303e15a4cbea84f37eba80a5289f49fda0b4884e30ac1d73eb9b8b14360205260408120549091905f80516020612998833981519152905f805160206129588339815191529060ff1661219f578184526020526040832082845260205260408320600160ff198254161790555f805160206128d8833981519152339380a4600190565b905f918083525f8051602061295883398151915280602052604084209260018060a01b03169283855260205260ff604085205416155f1461219f578184526020526040832082845260205260408320600160ff198254161790555f805160206128d8833981519152339380a4600190565b905f918083525f8051602061295883398151915280602052604084209260018060a01b03169283855260205260ff6040852054165f1461219f57818452602052604083208284526020526040832060ff1981541690557ff6391f5c32d9c69d2a47ea670b442974b53935d1edc7fd64eb21e047a839171b339380a4600190565b5f805160206128f8833981519152546001600160a01b0316330361248557565b60405163118cdaa760e01b8152336004820152602490fd5b6001600160a01b039081169081156124f6575f805160206128f883398151915280546001600160a01b031981168417909155167f8be0079c531659141344cd1fd0a4f28419497f9722a3daafe3b4186f6b6457e05f80a3565b604051631e4fbdf760e01b81525f6004820152602490fd5b60ff7ff0c57e16840df040f15088dc2f81fe391c3923bec73e23a9662efc9c229c6a005460401c161561253d57565b604051631afcd79f60e31b8152600490fd5b81601f8201121561046257805161256581611dfa565b926125736040519485611dd9565b8184526020828401011161046257611ec69160208085019101611ed8565b5190811515820361046257565b6020818303126104625780516001600160401b039182821161046257019160a08382031261046257604051926125d384611da3565b8051928311610462576125ed60809261262894830161254f565b84526125fb60208201612591565b602085015261260c60408201612591565b604085015261261d60608201612591565b606085015201612591565b608082015290565b51906001600160a01b038216820361046257565b6020818303126104625780516001600160401b039182821161046257019060c082840312610462576040519261267984611dbe565b61268283612630565b84526020830151828111610462578161269c91850161254f565b60208501526040830151918211610462576126b891830161254f565b604083015260608101516003811015610462576126ee9160a09160608501526126e360808201612630565b608085015201612591565b60a082015290565b6001600160a01b0391821681529116602082015260400190565b908160609103126104625760405190606082018281106001600160401b03821117611d8f5761276091604091825261274781612630565b845261275560208201612591565b602085015201612591565b604082015290565b61279d60018060a01b0360605f94828654166040518080968194631c2e21b960e11b8352602060048401526024830190611ef9565b03915afa91821561287f57916127dc93918593849261285f575b50806001541691511660405180958194829363034ff23560e61b8452600484016126f6565b03915afa90811561285457829161283a575b50600160a0820151151514908161280e575b506128085790565b50600190565b6060915001516003811015612826576001145f612800565b634e487b7160e01b82526021600452602482fd5b61284e91503d8084833e61062d8183611dd9565b5f6127ee565b6040513d84823e3d90fd5b61287891925060603d811161049e5761048f8183611dd9565b905f6127b7565b6040513d86823e3d90fd5b6001600160a01b039091168152604060208201819052611ec692910190611f1e565b5f9294936128c4606093608084526080840190611ef9565b951515602083015215156040820152015256fe2f8788117e7eff1d82e926ec794901d17c78024a50270940304540a733656f0d9016d09d72d40fdae2fd8ceac6b6234c7706214fd39c1cd1e609a0528c19930052b0aedf558ae7ca1fea6363c537e188e53ef8982b74a564ee8eeae39d68017a65d7a28e3265b37a6474929f336521b332c1681b933f6cb9f3376673440d862a02dd7bc7dec4dceedda775e58dd541e08a116c6c53815c0bd028192f7b626800cbaaf41b181bb6e269c490e876a7c97711b57e21dd8e5528423cf57579726b350ce23c3e399818cfee81a7ab0880f714e53d7672b08df0fa62f2843416e1ea09a2646970667358221220128f4bbc71b42eae0393660dd2a35a7f7c0737d15c56cafd27cfdba7d427cc0464736f6c63430008140033",
  "linkReferences": {},
  "deployedLinkReferences": {}
}