{
  "_format": "hh-sol-artifact-1",
  "contractName": "TheBadge",
  "sourceName": "src/contracts/thebadge/TheBadge.sol",
  "abi": [
    {
      "inputs": [],
      "stateMutability": "nonpayable",
      "type": "constructor"
    },
    {
      "inputs": [],
      "name": "AccessControlBadConfirmation",
      "type": "error"
    },
    {
      "inputs": [
        {
          "internalType": "address",
          "name": "account",
          "type": "address"
        },
        {
          "internalType": "bytes32",
          "name": "neededRole",
          "type": "bytes32"
        }
      ],
      "name": "AccessControlUnauthorizedAccount",
      "type": "error"
    },
    {
      "inputs": [
        {
          "internalType": "address",
          "name": "target",
          "type": "address"
        }
      ],
      "name": "AddressEmptyCode",
      "type": "error"
    },
    {
      "inputs": [
        {
          "internalType": "address",
          "name": "sender",
          "type": "address"
        },
        {
          "internalType": "uint256",
          "name": "balance",
          "type": "uint256"
        },
        {
          "internalType": "uint256",
          "name": "needed",
          "type": "uint256"
        },
        {
          "internalType": "uint256",
          "name": "tokenId",
          "type": "uint256"
        }
      ],
      "name": "ERC1155InsufficientBalance",
      "type": "error"
    },
    {
      "inputs": [
        {
          "internalType": "address",
          "name": "approver",
          "type": "address"
        }
      ],
      "name": "ERC1155InvalidApprover",
      "type": "error"
    },
    {
      "inputs": [
        {
          "internalType": "uint256",
          "name": "idsLength",
          "type": "uint256"
        },
        {
          "internalType": "uint256",
          "name": "valuesLength",
          "type": "uint256"
        }
      ],
      "name": "ERC1155InvalidArrayLength",
      "type": "error"
    },
    {
      "inputs": [
        {
          "internalType": "address",
          "name": "operator",
          "type": "address"
        }
      ],
      "name": "ERC1155InvalidOperator",
      "type": "error"
    },
    {
      "inputs": [
        {
          "internalType": "address",
          "name": "receiver",
          "type": "address"
        }
      ],
      "name": "ERC1155InvalidReceiver",
      "type": "error"
    },
    {
      "inputs": [
        {
          "internalType": "address",
          "name": "sender",
          "type": "address"
        }
      ],
      "name": "ERC1155InvalidSender",
      "type": "error"
    },
    {
      "inputs": [
        {
          "internalType": "address",
          "name": "operator",
          "type": "address"
        },
        {
          "internalType": "address",
          "name": "owner",
          "type": "address"
        }
      ],
      "name": "ERC1155MissingApprovalForAll",
      "type": "error"
    },
    {
      "inputs": [
        {
          "internalType": "address",
          "name": "implementation",
          "type": "address"
        }
      ],
      "name": "ERC1967InvalidImplementation",
      "type": "error"
    },
    {
      "inputs": [],
      "name": "ERC1967NonPayable",
      "type": "error"
    },
    {
      "inputs": [],
      "name": "EnforcedPause",
      "type": "error"
    },
    {
      "inputs": [],
      "name": "ExpectedPause",
      "type": "error"
    },
    {
      "inputs": [],
      "name": "FailedInnerCall",
      "type": "error"
    },
    {
      "inputs": [],
      "name": "InvalidInitialization",
      "type": "error"
    },
    {
      "inputs": [],
      "name": "NotInitializing",
      "type": "error"
    },
    {
      "inputs": [],
      "name": "ReentrancyGuardReentrantCall",
      "type": "error"
    },
    {
      "inputs": [],
      "name": "TheBadge__SBT",
      "type": "error"
    },
    {
      "inputs": [],
      "name": "TheBadge__calculateFee_protocolFeesInvalidValues",
      "type": "error"
    },
    {
      "inputs": [],
      "name": "TheBadge__mint_creatorFeesPaymentFailed",
      "type": "error"
    },
    {
      "inputs": [],
      "name": "TheBadge__mint_protocolFeesPaymentFailed",
      "type": "error"
    },
    {
      "inputs": [],
      "name": "TheBadge__requestBadge_badgeModelIsSuspended",
      "type": "error"
    },
    {
      "inputs": [],
      "name": "TheBadge__requestBadge_badgeModelNotFound",
      "type": "error"
    },
    {
      "inputs": [],
      "name": "TheBadge__requestBadge_badgeNotClaimable",
      "type": "error"
    },
    {
      "inputs": [],
      "name": "TheBadge__requestBadge_badgeNotFound",
      "type": "error"
    },
    {
      "inputs": [],
      "name": "TheBadge__requestBadge_badgeNotMintable",
      "type": "error"
    },
    {
      "inputs": [],
      "name": "TheBadge__requestBadge_controllerIsPaused",
      "type": "error"
    },
    {
      "inputs": [],
      "name": "TheBadge__requestBadge_isDeprecated",
      "type": "error"
    },
    {
      "inputs": [],
      "name": "TheBadge__requestBadge_isPaused",
      "type": "error"
    },
    {
      "inputs": [],
      "name": "TheBadge__requestBadge_isSuspended",
      "type": "error"
    },
    {
      "inputs": [],
      "name": "TheBadge__requestBadge_wrongValue",
      "type": "error"
    },
    {
      "inputs": [],
      "name": "UUPSUnauthorizedCallContext",
      "type": "error"
    },
    {
      "inputs": [
        {
          "internalType": "bytes32",
          "name": "slot",
          "type": "bytes32"
        }
      ],
      "name": "UUPSUnsupportedProxiableUUID",
      "type": "error"
    },
    {
      "anonymous": false,
      "inputs": [
        {
          "indexed": true,
          "internalType": "address",
          "name": "account",
          "type": "address"
        },
        {
          "indexed": true,
          "internalType": "address",
          "name": "operator",
          "type": "address"
        },
        {
          "indexed": false,
          "internalType": "bool",
          "name": "approved",
          "type": "bool"
        }
      ],
      "name": "ApprovalForAll",
      "type": "event"
    },
    {
      "anonymous": false,
      "inputs": [
        {
          "indexed": true,
          "internalType": "uint256",
          "name": "badgeModelID",
          "type": "uint256"
        },
        {
          "indexed": true,
          "internalType": "uint256",
          "name": "badgeID",
          "type": "uint256"
        },
        {
          "indexed": true,
          "internalType": "address",
          "name": "recipient",
          "type": "address"
        },
        {
          "indexed": false,
          "internalType": "address",
          "name": "controller",
          "type": "address"
        },
        {
          "indexed": false,
          "internalType": "uint256",
          "name": "controllerBadgeId",
          "type": "uint256"
        }
      ],
      "name": "BadgeRequested",
      "type": "event"
    },
    {
      "anonymous": false,
      "inputs": [
        {
          "indexed": true,
          "internalType": "uint256",
          "name": "badgeId",
          "type": "uint256"
        },
        {
          "indexed": true,
          "internalType": "address",
          "name": "origin",
          "type": "address"
        },
        {
          "indexed": true,
          "internalType": "address",
          "name": "destination",
          "type": "address"
        }
      ],
      "name": "BadgeTransferred",
      "type": "event"
    },
    {
      "anonymous": false,
      "inputs": [
        {
          "indexed": true,
          "internalType": "address",
          "name": "admin",
          "type": "address"
        }
      ],
      "name": "Initialize",
      "type": "event"
    },
    {
      "anonymous": false,
      "inputs": [
        {
          "indexed": false,
          "internalType": "uint64",
          "name": "version",
          "type": "uint64"
        }
      ],
      "name": "Initialized",
      "type": "event"
    },
    {
      "anonymous": false,
      "inputs": [
        {
          "indexed": false,
          "internalType": "address",
          "name": "account",
          "type": "address"
        }
      ],
      "name": "Paused",
      "type": "event"
    },
    {
      "anonymous": false,
      "inputs": [
        {
          "indexed": true,
          "internalType": "address",
          "name": "recipient",
          "type": "address"
        },
        {
          "indexed": false,
          "internalType": "address",
          "name": "payer",
          "type": "address"
        },
        {
          "indexed": false,
          "internalType": "uint256",
          "name": "amount",
          "type": "uint256"
        },
        {
          "indexed": true,
          "internalType": "enum LibTheBadge.PaymentType",
          "name": "paymentType",
          "type": "uint8"
        },
        {
          "indexed": true,
          "internalType": "uint256",
          "name": "badgeModelId",
          "type": "uint256"
        },
        {
          "indexed": false,
          "internalType": "string",
          "name": "controllerName",
          "type": "string"
        }
      ],
      "name": "PaymentMade",
      "type": "event"
    },
    {
      "anonymous": false,
      "inputs": [],
      "name": "ProtocolSettingsUpdated",
      "type": "event"
    },
    {
      "anonymous": false,
      "inputs": [
        {
          "indexed": true,
          "internalType": "bytes32",
          "name": "role",
          "type": "bytes32"
        },
        {
          "indexed": true,
          "internalType": "bytes32",
          "name": "previousAdminRole",
          "type": "bytes32"
        },
        {
          "indexed": true,
          "internalType": "bytes32",
          "name": "newAdminRole",
          "type": "bytes32"
        }
      ],
      "name": "RoleAdminChanged",
      "type": "event"
    },
    {
      "anonymous": false,
      "inputs": [
        {
          "indexed": true,
          "internalType": "bytes32",
          "name": "role",
          "type": "bytes32"
        },
        {
          "indexed": true,
          "internalType": "address",
          "name": "account",
          "type": "address"
        },
        {
          "indexed": true,
          "internalType": "address",
          "name": "sender",
          "type": "address"
        }
      ],
      "name": "RoleGranted",
      "type": "event"
    },
    {
      "anonymous": false,
      "inputs": [
        {
          "indexed": true,
          "internalType": "bytes32",
          "name": "role",
          "type": "bytes32"
        },
        {
          "indexed": true,
          "internalType": "address",
          "name": "account",
          "type": "address"
        },
        {
          "indexed": true,
          "internalType": "address",
          "name": "sender",
          "type": "address"
        }
      ],
      "name": "RoleRevoked",
      "type": "event"
    },
    {
      "anonymous": false,
      "inputs": [
        {
          "indexed": true,
          "internalType": "address",
          "name": "operator",
          "type": "address"
        },
        {
          "indexed": true,
          "internalType": "address",
          "name": "from",
          "type": "address"
        },
        {
          "indexed": true,
          "internalType": "address",
          "name": "to",
          "type": "address"
        },
        {
          "indexed": false,
          "internalType": "uint256[]",
          "name": "ids",
          "type": "uint256[]"
        },
        {
          "indexed": false,
          "internalType": "uint256[]",
          "name": "values",
          "type": "uint256[]"
        }
      ],
      "name": "TransferBatch",
      "type": "event"
    },
    {
      "anonymous": false,
      "inputs": [
        {
          "indexed": true,
          "internalType": "address",
          "name": "operator",
          "type": "address"
        },
        {
          "indexed": true,
          "internalType": "address",
          "name": "from",
          "type": "address"
        },
        {
          "indexed": true,
          "internalType": "address",
          "name": "to",
          "type": "address"
        },
        {
          "indexed": false,
          "internalType": "uint256",
          "name": "id",
          "type": "uint256"
        },
        {
          "indexed": false,
          "internalType": "uint256",
          "name": "value",
          "type": "uint256"
        }
      ],
      "name": "TransferSingle",
      "type": "event"
    },
    {
      "anonymous": false,
      "inputs": [
        {
          "indexed": false,
          "internalType": "string",
          "name": "value",
          "type": "string"
        },
        {
          "indexed": true,
          "internalType": "uint256",
          "name": "id",
          "type": "uint256"
        }
      ],
      "name": "URI",
      "type": "event"
    },
    {
      "anonymous": false,
      "inputs": [
        {
          "indexed": false,
          "internalType": "address",
          "name": "account",
          "type": "address"
        }
      ],
      "name": "Unpaused",
      "type": "event"
    },
    {
      "anonymous": false,
      "inputs": [
        {
          "indexed": true,
          "internalType": "address",
          "name": "implementation",
          "type": "address"
        }
      ],
      "name": "Upgraded",
      "type": "event"
    },
    {
      "inputs": [],
      "name": "CLAIMER_ROLE",
      "outputs": [
        {
          "internalType": "bytes32",
          "name": "",
          "type": "bytes32"
        }
      ],
      "stateMutability": "view",
      "type": "function"
    },
    {
      "inputs": [],
      "name": "DEFAULT_ADMIN_ROLE",
      "outputs": [
        {
          "internalType": "bytes32",
          "name": "",
          "type": "bytes32"
        }
      ],
      "stateMutability": "view",
      "type": "function"
    },
    {
      "inputs": [],
      "name": "PAUSER_ROLE",
      "outputs": [
        {
          "internalType": "bytes32",
          "name": "",
          "type": "bytes32"
        }
      ],
      "stateMutability": "view",
      "type": "function"
    },
    {
      "inputs": [],
      "name": "UPGRADER_ROLE",
      "outputs": [
        {
          "internalType": "bytes32",
          "name": "",
          "type": "bytes32"
        }
      ],
      "stateMutability": "view",
      "type": "function"
    },
    {
      "inputs": [],
      "name": "UPGRADE_INTERFACE_VERSION",
      "outputs": [
        {
          "internalType": "string",
          "name": "",
          "type": "string"
        }
      ],
      "stateMutability": "view",
      "type": "function"
    },
    {
      "inputs": [],
      "name": "URI_SETTER_ROLE",
      "outputs": [
        {
          "internalType": "bytes32",
          "name": "",
          "type": "bytes32"
        }
      ],
      "stateMutability": "view",
      "type": "function"
    },
    {
      "inputs": [],
      "name": "USER_MANAGER_ROLE",
      "outputs": [
        {
          "internalType": "bytes32",
          "name": "",
          "type": "bytes32"
        }
      ],
      "stateMutability": "view",
      "type": "function"
    },
    {
      "inputs": [],
      "name": "VERIFIER_ROLE",
      "outputs": [
        {
          "internalType": "bytes32",
          "name": "",
          "type": "bytes32"
        }
      ],
      "stateMutability": "view",
      "type": "function"
    },
    {
      "inputs": [],
      "name": "_badgeStore",
      "outputs": [
        {
          "internalType": "contract TheBadgeStore",
          "name": "",
          "type": "address"
        }
      ],
      "stateMutability": "view",
      "type": "function"
    },
    {
      "inputs": [
        {
          "internalType": "address",
          "name": "account",
          "type": "address"
        },
        {
          "internalType": "uint256",
          "name": "badgeId",
          "type": "uint256"
        }
      ],
      "name": "balanceOf",
      "outputs": [
        {
          "internalType": "uint256",
          "name": "",
          "type": "uint256"
        }
      ],
      "stateMutability": "view",
      "type": "function"
    },
    {
      "inputs": [
        {
          "internalType": "address",
          "name": "account",
          "type": "address"
        },
        {
          "internalType": "uint256",
          "name": "badgeModelId",
          "type": "uint256"
        }
      ],
      "name": "balanceOfBadgeModel",
      "outputs": [
        {
          "internalType": "uint256",
          "name": "",
          "type": "uint256"
        }
      ],
      "stateMutability": "view",
      "type": "function"
    },
    {
      "inputs": [
        {
          "internalType": "address[]",
          "name": "accounts",
          "type": "address[]"
        },
        {
          "internalType": "uint256[]",
          "name": "ids",
          "type": "uint256[]"
        }
      ],
      "name": "balanceOfBatch",
      "outputs": [
        {
          "internalType": "uint256[]",
          "name": "",
          "type": "uint256[]"
        }
      ],
      "stateMutability": "view",
      "type": "function"
    },
    {
      "inputs": [
        {
          "internalType": "uint256",
          "name": "badgeId",
          "type": "uint256"
        },
        {
          "internalType": "bytes",
          "name": "data",
          "type": "bytes"
        }
      ],
      "name": "challenge",
      "outputs": [],
      "stateMutability": "payable",
      "type": "function"
    },
    {
      "inputs": [
        {
          "internalType": "uint256",
          "name": "badgeId",
          "type": "uint256"
        },
        {
          "internalType": "bytes",
          "name": "data",
          "type": "bytes"
        }
      ],
      "name": "claim",
      "outputs": [],
      "stateMutability": "nonpayable",
      "type": "function"
    },
    {
      "inputs": [
        {
          "internalType": "uint256",
          "name": "badgeId",
          "type": "uint256"
        }
      ],
      "name": "getChallengeDepositValue",
      "outputs": [
        {
          "internalType": "uint256",
          "name": "",
          "type": "uint256"
        }
      ],
      "stateMutability": "view",
      "type": "function"
    },
    {
      "inputs": [
        {
          "internalType": "uint256",
          "name": "badgeId",
          "type": "uint256"
        }
      ],
      "name": "getRemovalDepositValue",
      "outputs": [
        {
          "internalType": "uint256",
          "name": "",
          "type": "uint256"
        }
      ],
      "stateMutability": "view",
      "type": "function"
    },
    {
      "inputs": [
        {
          "internalType": "bytes32",
          "name": "role",
          "type": "bytes32"
        }
      ],
      "name": "getRoleAdmin",
      "outputs": [
        {
          "internalType": "bytes32",
          "name": "",
          "type": "bytes32"
        }
      ],
      "stateMutability": "view",
      "type": "function"
    },
    {
      "inputs": [
        {
          "internalType": "bytes32",
          "name": "role",
          "type": "bytes32"
        },
        {
          "internalType": "address",
          "name": "account",
          "type": "address"
        }
      ],
      "name": "grantRole",
      "outputs": [],
      "stateMutability": "nonpayable",
      "type": "function"
    },
    {
      "inputs": [
        {
          "internalType": "bytes32",
          "name": "role",
          "type": "bytes32"
        },
        {
          "internalType": "address",
          "name": "account",
          "type": "address"
        }
      ],
      "name": "hasRole",
      "outputs": [
        {
          "internalType": "bool",
          "name": "",
          "type": "bool"
        }
      ],
      "stateMutability": "view",
      "type": "function"
    },
    {
      "inputs": [
        {
          "internalType": "address",
          "name": "admin",
          "type": "address"
        },
        {
          "internalType": "address",
          "name": "badgeStore",
          "type": "address"
        }
      ],
      "name": "initialize",
      "outputs": [],
      "stateMutability": "nonpayable",
      "type": "function"
    },
    {
      "inputs": [
        {
          "internalType": "address",
          "name": "account",
          "type": "address"
        },
        {
          "internalType": "address",
          "name": "operator",
          "type": "address"
        }
      ],
      "name": "isApprovedForAll",
      "outputs": [
        {
          "internalType": "bool",
          "name": "",
          "type": "bool"
        }
      ],
      "stateMutability": "view",
      "type": "function"
    },
    {
      "inputs": [
        {
          "internalType": "uint256",
          "name": "badgeId",
          "type": "uint256"
        }
      ],
      "name": "isClaimable",
      "outputs": [
        {
          "internalType": "bool",
          "name": "",
          "type": "bool"
        }
      ],
      "stateMutability": "view",
      "type": "function"
    },
    {
      "inputs": [
        {
          "internalType": "uint256",
          "name": "badgeId",
          "type": "uint256"
        }
      ],
      "name": "isExpired",
      "outputs": [
        {
          "internalType": "bool",
          "name": "",
          "type": "bool"
        }
      ],
      "stateMutability": "view",
      "type": "function"
    },
    {
      "inputs": [
        {
          "internalType": "uint256",
          "name": "badgeModelId",
          "type": "uint256"
        },
        {
          "internalType": "address",
          "name": "account",
          "type": "address"
        },
        {
          "internalType": "string",
          "name": "tokenURI",
          "type": "string"
        },
        {
          "internalType": "bytes",
          "name": "data",
          "type": "bytes"
        }
      ],
      "name": "mint",
      "outputs": [],
      "stateMutability": "payable",
      "type": "function"
    },
    {
      "inputs": [
        {
          "internalType": "uint256",
          "name": "badgeModelId",
          "type": "uint256"
        }
      ],
      "name": "mintValue",
      "outputs": [
        {
          "internalType": "uint256",
          "name": "",
          "type": "uint256"
        }
      ],
      "stateMutability": "view",
      "type": "function"
    },
    {
      "inputs": [],
      "name": "name",
      "outputs": [
        {
          "internalType": "string",
          "name": "",
          "type": "string"
        }
      ],
      "stateMutability": "view",
      "type": "function"
    },
    {
      "inputs": [],
      "name": "pause",
      "outputs": [],
      "stateMutability": "nonpayable",
      "type": "function"
    },
    {
      "inputs": [],
      "name": "paused",
      "outputs": [
        {
          "internalType": "bool",
          "name": "",
          "type": "bool"
        }
      ],
      "stateMutability": "view",
      "type": "function"
    },
    {
      "inputs": [],
      "name": "proxiableUUID",
      "outputs": [
        {
          "internalType": "bytes32",
          "name": "",
          "type": "bytes32"
        }
      ],
      "stateMutability": "view",
      "type": "function"
    },
    {
      "inputs": [
        {
          "internalType": "uint256",
          "name": "badgeId",
          "type": "uint256"
        },
        {
          "internalType": "bytes",
          "name": "data",
          "type": "bytes"
        }
      ],
      "name": "removeItem",
      "outputs": [],
      "stateMutability": "payable",
      "type": "function"
    },
    {
      "inputs": [
        {
          "internalType": "bytes32",
          "name": "role",
          "type": "bytes32"
        },
        {
          "internalType": "address",
          "name": "callerConfirmation",
          "type": "address"
        }
      ],
      "name": "renounceRole",
      "outputs": [],
      "stateMutability": "nonpayable",
      "type": "function"
    },
    {
      "inputs": [
        {
          "internalType": "bytes32",
          "name": "role",
          "type": "bytes32"
        },
        {
          "internalType": "address",
          "name": "account",
          "type": "address"
        }
      ],
      "name": "revokeRole",
      "outputs": [],
      "stateMutability": "nonpayable",
      "type": "function"
    },
    {
      "inputs": [
        {
          "internalType": "address",
          "name": "from",
          "type": "address"
        },
        {
          "internalType": "address",
          "name": "to",
          "type": "address"
        },
        {
          "internalType": "uint256[]",
          "name": "ids",
          "type": "uint256[]"
        },
        {
          "internalType": "uint256[]",
          "name": "values",
          "type": "uint256[]"
        },
        {
          "internalType": "bytes",
          "name": "data",
          "type": "bytes"
        }
      ],
      "name": "safeBatchTransferFrom",
      "outputs": [],
      "stateMutability": "nonpayable",
      "type": "function"
    },
    {
      "inputs": [
        {
          "internalType": "address",
          "name": "from",
          "type": "address"
        },
        {
          "internalType": "address",
          "name": "to",
          "type": "address"
        },
        {
          "internalType": "uint256",
          "name": "id",
          "type": "uint256"
        },
        {
          "internalType": "uint256",
          "name": "value",
          "type": "uint256"
        },
        {
          "internalType": "bytes",
          "name": "data",
          "type": "bytes"
        }
      ],
      "name": "safeTransferFrom",
      "outputs": [],
      "stateMutability": "nonpayable",
      "type": "function"
    },
    {
      "inputs": [
        {
          "internalType": "address",
          "name": "operator",
          "type": "address"
        },
        {
          "internalType": "bool",
          "name": "approved",
          "type": "bool"
        }
      ],
      "name": "setApprovalForAll",
      "outputs": [],
      "stateMutability": "nonpayable",
      "type": "function"
    },
    {
      "inputs": [
        {
          "internalType": "uint256",
          "name": "badgeId",
          "type": "uint256"
        },
        {
          "internalType": "bytes",
          "name": "data",
          "type": "bytes"
        }
      ],
      "name": "submitEvidence",
      "outputs": [],
      "stateMutability": "nonpayable",
      "type": "function"
    },
    {
      "inputs": [
        {
          "internalType": "bytes4",
          "name": "interfaceId",
          "type": "bytes4"
        }
      ],
      "name": "supportsInterface",
      "outputs": [
        {
          "internalType": "bool",
          "name": "",
          "type": "bool"
        }
      ],
      "stateMutability": "view",
      "type": "function"
    },
    {
      "inputs": [],
      "name": "symbol",
      "outputs": [
        {
          "internalType": "string",
          "name": "",
          "type": "string"
        }
      ],
      "stateMutability": "view",
      "type": "function"
    },
    {
      "inputs": [],
      "name": "unpause",
      "outputs": [],
      "stateMutability": "nonpayable",
      "type": "function"
    },
    {
      "inputs": [
        {
          "internalType": "uint256",
          "name": "_createBadgeModelValue",
          "type": "uint256"
        }
      ],
      "name": "updateCreateBadgeModelProtocolFee",
      "outputs": [],
      "stateMutability": "nonpayable",
      "type": "function"
    },
    {
      "inputs": [
        {
          "internalType": "uint256",
          "name": "_mintBadgeDefaultFee",
          "type": "uint256"
        }
      ],
      "name": "updateMintBadgeDefaultProtocolFee",
      "outputs": [],
      "stateMutability": "nonpayable",
      "type": "function"
    },
    {
      "inputs": [
        {
          "internalType": "uint256",
          "name": "_registerCreatorValue",
          "type": "uint256"
        }
      ],
      "name": "updateRegisterCreatorProtocolFee",
      "outputs": [],
      "stateMutability": "nonpayable",
      "type": "function"
    },
    {
      "inputs": [
        {
          "internalType": "address",
          "name": "newImplementation",
          "type": "address"
        },
        {
          "internalType": "bytes",
          "name": "data",
          "type": "bytes"
        }
      ],
      "name": "upgradeToAndCall",
      "outputs": [],
      "stateMutability": "payable",
      "type": "function"
    },
    {
      "inputs": [
        {
          "internalType": "uint256",
          "name": "badgeId",
          "type": "uint256"
        }
      ],
      "name": "uri",
      "outputs": [
        {
          "internalType": "string",
          "name": "",
          "type": "string"
        }
      ],
      "stateMutability": "view",
      "type": "function"
    },
    {
      "stateMutability": "payable",
      "type": "receive"
    }
  ],
  "bytecode": "0x60a08060405234620000d157306080527ff0c57e16840df040f15088dc2f81fe391c3923bec73e23a9662efc9c229c6a009081549060ff8260401c16620000c257506001600160401b036002600160401b0319828216016200007c575b60405161485f9081620000d6823960805181818161112e01526112620152f35b6001600160401b031990911681179091556040519081527fc7f505b2f371ae2175ee4913f4499e1f2633a7b5936321eed1cdaeb6115181d290602090a15f80806200005c565b63f92ee8a960e01b8152600490fd5b5f80fdfe6080604052600436101561001a575b3615610018575f80fd5b005b5f3560e01c8062fdd58e146102d857806301ffc9a7146102d357806306fdde03146102ce5780630e89341c146102c957806319b50c2a146102c4578063248a9ca3146102bf5780632eb2c2d6146102ba5780632f2ff15d146102b557806336568abe146102b057806338926b6d146102ab5780633f4ba83a146102a657806346c45758146102a1578063485cc9551461029c5780634e1273f4146102975780634f1ef2861461029257806352d1902d1461028d5780635c975abb14610288578063632f7c83146102835780637eb7f1761461027e5780637f345710146102795780638456cb591461027457806389610a091461026f57806391d148541461026a57806393c7a71b1461026557806395d89b41146102605780639faf71581461025b578063a03aafbf14610256578063a217fddf14610251578063a22cb4651461024c578063a41e35c314610247578063ad3cb1cc14610242578063c1d188401461023d578063c5a3c7ca14610238578063d547741f14610233578063d7deba151461022e578063d9548e5314610229578063e181865114610224578063e63ab1e91461021f578063e7705db61461021a578063e985e9c514610215578063f1fe717e14610210578063f242432a1461020b578063f72c0d8b146102065763fc5f18d30361000e57612174565b61214d565b612036565b611fca565b611fab565b611f71565b611f4a565b611ede565b611eb6565b611e0d565b611dc1565b611d42565b611b13565b611ace565b611a94565b611a5b565b611a37565b61199b565b6118eb565b611848565b61171e565b6116c0565b611506565b6114a1565b611467565b611305565b6112e7565b6112b9565b611250565b6110ec565b611031565b610ecf565b610e7f565b610e0a565b610aab565b610a14565b6109c8565b610896565b61073d565b610716565b6106e3565b610623565b610337565b6102f2565b6001600160a01b038116036102ee57565b5f80fd5b346102ee5760403660031901126102ee57602061031d600435610314816102dd565b60243590613c06565b604051908152f35b6001600160e01b03198116036102ee57565b346102ee5760203660031901126102ee57602060043561035681610325565b63ffffffff60e01b16637965db0b60e01b811490811561037c575b506040519015158152f35b636cdb3d1360e11b8114915081156103ae575b811561039d575b505f610371565b6301ffc9a760e01b1490505f610396565b6303a24d0760e21b8114915061038f565b5f9103126102ee57565b90600182811c921680156103f7575b60208310146103e357565b634e487b7160e01b5f52602260045260245ffd5b91607f16916103d8565b634e487b7160e01b5f52604160045260245ffd5b6001600160401b03811161042857604052565b610401565b60a081019081106001600160401b0382111761042857604052565b604081019081106001600160401b0382111761042857604052565b602081019081106001600160401b0382111761042857604052565b90601f801991011681019081106001600160401b0382111761042857604052565b604051905f825f805160206147ea833981519152918254926104c0846103c9565b9081845260019485811690815f1461052b57506001146104eb575b50506104e99250038361047e565b565b909391505f52602090815f20935f915b8183106105135750506104e993508201015f806104db565b855488840185015294850194879450918301916104fb565b9150506104e994506020925060ff191682840152151560051b8201015f806104db565b9060405191825f825492610561846103c9565b9081845260019485811690815f1461052b57506001146105895750506104e99250038361047e565b909391505f52602090815f20935f915b8183106105b15750506104e993508201015f806104db565b85548884018501529485019487945091830191610599565b5f5b8381106105da5750505f910152565b81810151838201526020016105cb565b90602091610603815180928185528580860191016105c9565b601f01601f1916010190565b9060206106209281815201906105ea565b90565b346102ee575f806003193601126106e057604051816001805490610646826103c9565b808552918181169081156106b8575060011461067d575b6106798461066d8188038261047e565b6040519182918261060f565b0390f35b80945082526020938483205b8284106106a557505050816106799361066d928201019361065d565b8054858501870152928501928101610689565b610679965061066d9450602092508593915060ff191682840152151560051b8201019361065d565b80fd5b346102ee5760203660031901126102ee57610679610702600435614355565b6040519182916020835260208301906105ea565b346102ee575f3660031901126102ee575f546040516001600160a01b039091168152602090f35b346102ee5760203660031901126102ee576004355f525f8051602061478a8339815191526020526020600160405f200154604051908152f35b6040519061016082018281106001600160401b0382111761042857604052565b60405190608082018281106001600160401b0382111761042857604052565b6001600160401b0381116104285760051b60200190565b81601f820112156102ee578035916107e3836107b5565b926107f1604051948561047e565b808452602092838086019260051b8201019283116102ee578301905b82821061081b575050505090565b8135815290830190830161080d565b6001600160401b03811161042857601f01601f191660200190565b9291926108518261082a565b9161085f604051938461047e565b8294818452818301116102ee578281602093845f960137010152565b9080601f830112156102ee5781602061062093359101610845565b346102ee5760a03660031901126102ee57600480356108b4816102dd565b6024356108c0816102dd565b6001600160401b03906044358281116102ee576108e090369086016107cc565b906064358381116102ee576108f890369087016107cc565b926084359081116102ee57610910903690870161087b565b936001600160a01b0380821690338214158061099b575b61096e578316156109575715610941576100189550612762565b604051626a0d4560e21b81525f81880152602490fd5b604051632bfa23e760e11b81525f81890152602490fd5b6040805163711bec9160e11b815233818b019081526001600160a01b038616602082015290918291010390fd5b5060ff6109c0336109ab866121db565b9060018060a01b03165f5260205260405f2090565b541615610927565b346102ee5760403660031901126102ee576100186024356004356109eb826102dd565b805f525f8051602061478a833981519152602052610a0f600160405f200154612315565b612582565b346102ee5760403660031901126102ee57602435610a31816102dd565b336001600160a01b03821603610a4d57610018906004356125ba565b60405163334bd91960e11b8152600490fd5b60406003198201126102ee57600435916024356001600160401b03928382116102ee57806023830112156102ee5781600401359384116102ee57602484830101116102ee576024019190565b346102ee57610ab936610a5f565b9091610ac481614118565b905f93610ae6610ada865460018060a01b031690565b6001600160a01b031690565b6040805163f2be2c8560e01b81526004808201969096529491908786602481855afa918215610cf157610b3b968993610de6575b506060602080940151835180998192631c2e21b960e11b835288830161060f565b0381845afa968715610cf1578997610db6575b506080825180926346c1c31160e11b82528180610b728b8a83019190602083019252565b03915afa908115610cf1578991610d88575b508651610b99906001600160a01b0316610ada565b94610ba76060830151151590565b15610d785782516389610a0960e01b81528581018881526001600160a01b039788169391908690829081906020010381875afa908115610cf1578c91610d4b575b5015610d3b578401518a91906001600160a01b031698878a1615610d29575b5091879899610c3197989286948651998a9586948593634e35cfc560e11b855233928d86016139d2565b03925af1938415610cf15788928395610cfa575b50508154610c5b906001600160a01b0316610ada565b803b15610cf6579051630a5f1ec560e01b81529283018681526001600160a01b0380891660208301528516604082015292939284919082908490829060600103925af1918215610cf1578392610cd8575b50169216907fd201fb416d8b5e50c9066521ecfc94d1821b6139fc0e7b39b3c680262c0fed988480a480f35b80610ce5610ceb92610415565b806103bf565b5f610cac565b61265e565b8280fd5b610d1a929550803d10610d22575b610d12818361047e565b8101906139bd565b925f80610c45565b503d610d08565b516001600160a01b0316985084610c07565b8351632edd9d0f60e21b81528690fd5b610d6b9150863d8811610d71575b610d63818361047e565b8101906136d8565b5f610be8565b503d610d59565b8251632edd9d0f60e21b81528590fd5b610da9915060803d8111610daf575b610da1818361047e565b81019061395d565b5f610b84565b503d610d97565b610dd891975060603d8111610ddf575b610dd0818361047e565b81019061315e565b955f610b4e565b503d610dc6565b610e039193503d808b833e610dfb818361047e565b810190613077565b915f610b1a565b346102ee575f3660031901126102ee57610e22612213565b5f805160206147aa833981519152805460ff811615610e6d5760ff191690557f5db9ee0a495bf2e6ff9c91a7834c1ba4fdd244a5e8aa4e537bd38aeae4b073aa6020604051338152a1005b604051638dfc202b60e01b8152600490fd5b346102ee5760403660031901126102ee57602061031d600435610ea1816102dd565b60243590613e51565b60409060031901126102ee57600435610ec2816102dd565b90602435610620816102dd565b346102ee57610edd36610eaa565b905f805160206147ca83398151915254916001600160401b0360ff8460401c1615931680159081610fe5575b6001149081610fdb575b159081610fd2575b50610fc0575f805160206147ca833981519152805467ffffffffffffffff19166001179055610f4e9183610f9c57612df5565b610f5457005b5f805160206147ca833981519152805460ff60401b19169055604051600181527fc7f505b2f371ae2175ee4913f4499e1f2633a7b5936321eed1cdaeb6115181d290602090a1005b5f805160206147ca833981519152805460ff60401b1916600160401b179055612df5565b60405163f92ee8a960e01b8152600490fd5b9050155f610f1b565b303b159150610f13565b849150610f09565b9081518082526020808093019301915f5b82811061100c575050505090565b835185529381019392810192600101610ffe565b906020610620928181520190610fed565b346102ee5760403660031901126102ee576004356001600160401b038082116102ee57366023830112156102ee57816004013561106d816107b5565b9261107b604051948561047e565b81845260209160248386019160051b830101913683116102ee57602401905b8282106110d357856024358681116102ee57610679916110c16110c79236906004016107cc565b906126b8565b60405191829182611020565b83809183356110e1816102dd565b81520191019061109a565b60403660031901126102ee576004803590611106826102dd565b6024356001600160401b0381116102ee57611124903690830161087b565b6001600160a01b037f00000000000000000000000000000000000000000000000000000000000000008116308114908115611235575b5061122457906020839261116c61227b565b6040516352d1902d60e01b8152938491829088165afa5f92816111f4575b506111b8575050604051634c9c8ce360e01b81526001600160a01b0390921690820190815281906020010390fd5b83835f8051602061474a83398151915284036111d8576100188383612b6f565b604051632a87526960e21b815290810184815281906020010390fd5b61121691935060203d811161121d575b61120e818361047e565b81019061264f565b915f61118a565b503d611204565b60405163703e46dd60e11b81528390fd5b9050815f8051602061474a833981519152541614155f61115a565b346102ee575f3660031901126102ee577f00000000000000000000000000000000000000000000000000000000000000006001600160a01b031630036112a75760206040515f8051602061474a8339815191528152f35b60405163703e46dd60e11b8152600490fd5b346102ee575f3660031901126102ee57602060ff5f805160206147aa83398151915254166040519015158152f35b346102ee5760203660031901126102ee57602061031d600435614214565b346102ee5760203660031901126102ee5760043561136061132582614118565b5f8054909391908490611340906001600160a01b0316610ada565b916040518095819263f2be2c8560e01b8352600483019190602083019252565b0381845afa908115610cf157602060609261139b95879161144d575b500151906040518080968194631c2e21b960e11b83526004830161060f565b03915afa908115610cf1576113cb610ada610ada6020946113eb96889161142f575b50516001600160a01b031690565b6040518080958194633f5bf8bb60e11b8352600483019190602083019252565b03915afa908115610cf1576106799291611411575b506040519081529081906020820190565b611429915060203d811161121d5761120e818361047e565b5f611400565b611447915060603d8111610ddf57610dd0818361047e565b5f6113bd565b61146191503d8089833e610dfb818361047e565b5f61137c565b346102ee575f3660031901126102ee5760206040517f7804d923f43a17d325d77e781528e0793b2edd9890ab45fc64efd7b4b427744c8152f35b346102ee575f3660031901126102ee576114b9612213565b6114c1613bdc565b5f805160206147aa833981519152600160ff198254161790557f62e78cea01bee320cd4e420270b5ea74000d11b0c9f74754ebdbfc544b05a2586020604051338152a1005b346102ee5760203660031901126102ee575f805460049190823590611533906001600160a01b0316610ada565b9260409182516346c1c31160e11b815260808180611558858783019190602083019252565b0381895afa908115610cf15761157a9160609187916116a2575b500151151590565b156116935783946115ab9461158e83614118565b85518097819263f2be2c8560e01b83528783019190602083019252565b0381845afa908115610cf15760206060926115e4978991611679575b5001519085518080988194631c2e21b960e11b835288830161060f565b03915afa918215610cf157611613610ada610ada602095611633988a9161142f5750516001600160a01b031690565b84516389610a0960e01b8152918201928352909485928391829160200190565b03915afa918215610cf1576106799392611659575b505190151581529081906020820190565b61167291925060203d8111610d7157610d63818361047e565b905f611648565b61168d91503d808b833e610dfb818361047e565b5f6115c7565b509051632edd9d0f60e21b8152fd5b6116ba915060803d8111610daf57610da1818361047e565b5f611572565b346102ee5760403660031901126102ee57602060ff6117126024356116e4816102dd565b6004355f525f8051602061478a833981519152845260405f209060018060a01b03165f5260205260405f2090565b54166040519015158152f35b346102ee5761177661172f36610a5f565b92909161173b81614118565b5f8054909591908690611756906001600160a01b0316610ada565b916040518096819263f2be2c8560e01b8352600483019190602083019252565b0381845afa908115610cf15760206060926117b196899161182e575b500151906040518080978194631c2e21b960e11b83526004830161060f565b03915afa928315610cf157610ada610ada87956117dc93879161142f5750516001600160a01b031690565b90813b1561182a57836118089560405196879586948593636c5f71ab60e11b85523392600486016139d2565b03925af18015610cf15761181a575080f35b80610ce561182792610415565b80f35b8380fd5b61184291503d808b833e610dfb818361047e565b5f611792565b346102ee575f806003193601126106e05760405181600254611869816103c9565b808452906001908181169081156106b85750600114611892576106798461066d8188038261047e565b60028352602094507f405787fa12a823e0f2b7631cc41b3ba8828b3321ca811111fa75cd3aa3bb5ace5b8284106118d857505050816106799361066d928201019361065d565b80548585018701529285019281016118bc565b6118f761172f36610a5f565b0381845afa908115610cf157602060609261193196899161182e57500151906040518080978194631c2e21b960e11b83526004830161060f565b03915afa928315610cf157610ada610ada879561195c93879161142f5750516001600160a01b031690565b90813b1561182a576119879460405195869485938493630c39ed6960e31b85523392600486016139d2565b039134905af18015610cf15761181a575080f35b6119a761172f36610a5f565b0381845afa908115610cf15760206060926119e196899161182e57500151906040518080978194631c2e21b960e11b83526004830161060f565b03915afa928315610cf157610ada610ada8795611a0c93879161142f5750516001600160a01b031690565b90813b1561182a576119879460405195869485938493631a04a52d60e21b85523392600486016139d2565b346102ee575f3660031901126102ee5760206040515f8152f35b801515036102ee57565b346102ee5760403660031901126102ee57611a776004356102dd565b611a82602435611a51565b6040516305d39ac360e51b8152600490fd5b346102ee575f3660031901126102ee5760206040517fcbaaf41b181bb6e269c490e876a7c97711b57e21dd8e5528423cf57579726b358152f35b346102ee575f3660031901126102ee57610679604051611aed81610448565b60058152640352e302e360dc1b60208201526040519182916020835260208301906105ea565b60803660031901126102ee5760048035602435611b2f816102dd565b6001600160401b036044358181116102ee57366023820112156102ee57611b5f9036906024818801359101610845565b906064359081116102ee57611b77903690860161087b565b915f93611b8d610ada865460018060a01b031690565b604090815163f2be2c8560e01b8152878180611bb0878d83019190602083019252565b0381855afa908115610cf1578891611d28575b50611be7606060208301518b86519384928392631c2e21b960e11b8452830161060f565b0381865afa908115610cf1578991611d0a575b5081516001600160a01b031615611cfa5781840151611cea57610100820151611cda57610120820151611cca5760200151611cba57518251636f77926b60e01b81526001600160a01b03909116898201908152909188918391908290819060200103915afa8015610cf1576060611c7c916001938a91611c9e57500151151590565b151514611c8f5750611827949550613256565b5163a800bb9d60e01b81528690fd5b6116ba91503d808c833e611cb2818361047e565b8101906131bc565b8251631bd063c360e01b81528990fd5b835163598e002360e11b81528a90fd5b8351630f0365d360e21b81528a90fd5b8351635d71fd6f60e01b81528a90fd5b83516385a6706360e01b81528a90fd5b611d22915060603d8111610ddf57610dd0818361047e565b5f611bfa565b611d3c91503d808a833e610dfb818361047e565b5f611bc3565b346102ee575f60203660031901126106e057611d5c6122bf565b805481906001600160a01b0316803b15611dbe5781906024604051809481936362d1e3e560e11b835260043560048401525af18015610cf157611daf575b505f8051602061480a8339815191528180a180f35b611db890610415565b5f611d9a565b50fd5b346102ee5760403660031901126102ee57610018602435600435611de4826102dd565b805f525f8051602061478a833981519152602052611e08600160405f200154612315565b6125ba565b346102ee5760203660031901126102ee57600435611e2d61132582614118565b0381845afa908115610cf1576020606092611e6795879161144d57500151906040518080968194631c2e21b960e11b83526004830161060f565b03915afa908115610cf157611e96610ada610ada6020946113eb96889161142f5750516001600160a01b031690565b604051808095819463d7deba1560e01b8352600483019190602083019252565b346102ee5760203660031901126102ee576020611ed4600435614043565b6040519015158152f35b346102ee575f60203660031901126106e057611ef86122bf565b805481906001600160a01b0316803b15611dbe57819060246040518094819363e181865160e01b835260043560048401525af18015610cf157611daf57505f8051602061480a8339815191528180a180f35b346102ee575f3660031901126102ee5760206040515f8051602061476a8339815191528152f35b346102ee575f3660031901126102ee5760206040517f0ce23c3e399818cfee81a7ab0880f714e53d7672b08df0fa62f2843416e1ea098152f35b346102ee57602060ff6117126109ab611fc336610eaa565b91906121db565b346102ee575f60203660031901126106e057611fe46122bf565b805481906001600160a01b0316803b15611dbe5781906024604051809481936378ff38bf60e11b835260043560048401525af18015610cf157611daf57505f8051602061480a8339815191528180a180f35b346102ee5760a03660031901126102ee57600435612053816102dd565b60243561205f816102dd565b6084356001600160401b0381116102ee5761207e90369060040161087b565b906001600160a01b03838116903382141580612135575b61210e578216156120f657156120df57610018926120d76064356044359160405192600184526020840152604083019160018352606084015260808301604052565b929091612762565b604051626a0d4560e21b81525f6004820152602490fd5b604051632bfa23e760e11b81525f6004820152602490fd5b60405163711bec9160e11b81523360048201526001600160a01b0386166024820152604490fd5b5060ff612145336109ab886121db565b541615612095565b346102ee575f3660031901126102ee5760206040515f8051602061472a8339815191528152f35b346102ee575f3660031901126102ee5760206040517f11a8cb5a02bd6c42679835e867ef2118ba78f088f8300511420c6603c21d9c788152f35b5f527f88be536d5240c274a3b1d3a1be54482fd9caa294f08c62a7cde569f49a3c450060205260405f2090565b6001600160a01b03165f9081527f88be536d5240c274a3b1d3a1be54482fd9caa294f08c62a7cde569f49a3c45016020526040902090565b335f9081527f75442b0a96088b5456bc4ed01394c96a4feec0f883c9494257d76b96ab1c9b6b602052604090205f8051602061476a8339815191529060ff905b54161561225d5750565b6044906040519063e2517d3f60e01b82523360048301526024820152fd5b335f9081527fab71e3f32666744d246edff3f96e4bdafee2e9867098cdd118a979a7464786a8602052604090205f8051602061472a8339815191529060ff90612253565b335f9081527fb7db2dd08fcb62d0c9e08c51941cae53c267786a0b75803fb7960902fc8ef97d602052604090205460ff16156122f757565b60405163e2517d3f60e01b81523360048201525f6024820152604490fd5b5f8181525f8051602061478a83398151915260209081526040808320338452909152902060ff90612253565b6001600160a01b0381165f9081527fb7db2dd08fcb62d0c9e08c51941cae53c267786a0b75803fb7960902fc8ef97d60205260408120545f8051602061478a8339815191529060ff166123ed57818052602090815260408083206001600160a01b0385165f90815292529020805460ff1916600117905533916001600160a01b0316907f2f8788117e7eff1d82e926ec794901d17c78024a50270940304540a733656f0d8180a4600190565b50905090565b6001600160a01b0381165f9081527f75442b0a96088b5456bc4ed01394c96a4feec0f883c9494257d76b96ab1c9b6b602052604081205f8051602061476a833981519152905f8051602061478a8339815191529060ff905b54166124b057818352602090815260408084206001600160a01b0386165f90815292529020805460ff1916600117905533926001600160a01b0316917f2f8788117e7eff1d82e926ec794901d17c78024a50270940304540a733656f0d9080a4600190565b5050905090565b6001600160a01b0381165f9081527fab71e3f32666744d246edff3f96e4bdafee2e9867098cdd118a979a7464786a8602052604081205f8051602061472a833981519152905f8051602061478a8339815191529060ff9061244b565b6001600160a01b0381165f9081527fd56b761303e15a4cbea84f37eba80a5289f49fda0b4884e30ac1d73eb9b8b143602052604081207f0ce23c3e399818cfee81a7ab0880f714e53d7672b08df0fa62f2843416e1ea09905f8051602061478a8339815191529060ff9061244b565b5f8181525f8051602061478a833981519152602081815260408084206001600160a01b0387168552909152822091929160ff9061244b565b5f8181525f8051602061478a833981519152602081815260408084206001600160a01b038716855290915282205491929160ff16156124b057818352602090815260408084206001600160a01b0386165f90815292529020805460ff1916905533926001600160a01b0316917ff6391f5c32d9c69d2a47ea670b442974b53935d1edc7fd64eb21e047a839171b9080a4600190565b908160209103126102ee575190565b6040513d5f823e3d90fd5b634e487b7160e01b5f52601160045260245ffd5b5f19811461268b5760010190565b612669565b80518210156126a45760209160051b010190565b634e487b7160e01b5f52603260045260245ffd5b919091805183518082036127405750508051906126d4826107b5565b916126e2604051938461047e565b8083526126f1601f19916107b5565b019060209136838501375f5b815181101561273857806127236127339260051b85808287010151918a01015190613c06565b61272d8287612690565b5261267d565b6126fd565b509193505050565b604051635b05999160e01b815260048101919091526024810191909152604490fd5b9193929061276e613bdc565b5f54612782906001600160a01b0316610ada565b6040516301719d2b60e01b81526001600160a01b038516600482015290606090829060249082905afa908115610cf1575f91612832575b506001600160a01b039084821615159081612825575b50611a82576127e08387848761459f565b81166127ee575b5050505050565b84516001036128145760208061280a96015192015192336129ef565b5f808080806127e7565b61282094919233612b38565b61280a565b604001511590505f6127cf565b61284a915060603d8111610ddf57610dd0818361047e565b5f6127b9565b908160209103126102ee575161062081610325565b909260a0926106209594600180861b031683525f60208401526040830152606082015281608082015201906105ea565b919261062095949160a094600180871b0380921685521660208401526040830152606082015281608082015201906105ea565b3d156128f2573d906128d98261082a565b916128e7604051938461047e565b82523d5f602084013e565b606090565b9293919093843b612909575050505050565b60209161292c604051948593849363f23a6e6160e01b9889865260048601612865565b03815f6001600160a01b0388165af15f91816129bf575b5061298257826129516128c8565b805191908261297b57604051632bfa23e760e11b81526001600160a01b0383166004820152602490fd5b9050602001fd5b6001600160e01b0319160361299c57505f808080806127e7565b604051632bfa23e760e11b81526001600160a01b03919091166004820152602490fd5b6129e191925060203d81116129e8575b6129d9818361047e565b810190612850565b905f612943565b503d6129cf565b939290949194853b612a04575b505050505050565b612a27602093604051958694859463f23a6e6160e01b998a875260048701612895565b03815f6001600160a01b0388165af15f9181612a67575b50612a4c57826129516128c8565b6001600160e01b0319160361299c57505f80808080806129fc565b612a8091925060203d81116129e8576129d9818361047e565b905f612a3e565b92612ab56106209593612ac39360018060a01b031686525f602087015260a0604087015260a0860190610fed565b908482036060860152610fed565b9160808184039101526105ea565b93906106209593612ab591612ac39460018060a01b03809216885216602087015260a0604087015260a0860190610fed565b9293919093843b612b15575050505050565b60209161292c604051948593849363bc197c8160e01b9889865260048601612a87565b939290949194853b612b4c57505050505050565b612a27602093604051958694859463bc197c8160e01b998a875260048701612ad1565b90813b15612bf3575f8051602061474a83398151915280546001600160a01b0319166001600160a01b0384169081179091557fbc7cd75a20ee27fd9adebab32041f755214dbc6bffa90cc0225b39da2e5c2d3b5f80a2805115612bd857612bd591612c14565b50565b505034612be157565b60405163b398979f60e01b8152600490fd5b604051634c9c8ce360e01b81526001600160a01b0383166004820152602490fd5b5f8061062093602081519101845af4612c2b6128c8565b9190612c535750805115612c4157805190602001fd5b604051630a12f52160e11b8152600490fd5b81511580612c86575b612c64575090565b604051639996b31560e01b81526001600160a01b039091166004820152602490fd5b50803b15612c5c565b818110612c9a575050565b5f8155600101612c8f565b90601f8211612cb2575050565b6104e9915f805160206147ea8339815191525f5260205f20906020601f840160051c83019310612cea575b601f0160051c0190612c8f565b9091508190612cdd565b9190601f8111612d0357505050565b6104e9925f5260205f20906020601f840160051c83019310612cea57601f0160051c0190612c8f565b612d376001546103c9565b601f8111612d55575b50601067546865426164676560c01b01600155565b60015f52612d8d90601f0160051c7fb10e2d527612073b26eecdfd717e6a320cf44b4afac2b0732d9fcbe2b7fa0cf690810190612c8f565b5f612d40565b612d9e6002546103c9565b601f8111612db7575b506006621091d160ea1b01600255565b60025f52612def90601f0160051c7f405787fa12a823e0f2b7631cc41b3ba8828b3321ca811111fa75cd3aa3bb5ace90810190612c8f565b5f612da7565b6040519291612e0384610463565b5f91828552612e10612fc9565b612e18612fc9565b84516001600160401b038111610428575f805160206147ea83398151915290612e4a81612e4584546103c9565b612ca5565b602080601f8311600114612f16575081908697987f36b1453565f45af7b509b59d5e2eac8f1948ea9e3e193db6663b4101afb6382c9792612f0b575b50508160011b915f199060031b1c19161790555b612ea2612fc9565b612eaa612ff7565b612eb2612fc9565b612ebb81612341565b50612ec5816123f3565b50612ecf816124b7565b50612ed981612513565b505f80546001600160a01b0319166001600160a01b03938416179055612efd612d2c565b612f05612d93565b169180a2565b015190505f80612e86565b5f805160206147ea8339815191525f529197601f1989167ff429cb5e2ec84cbb765e76b31964a56ccde03e7a6122d6cc4afb19edc55edeed9388905b828210612fb157505091600193918a7f36b1453565f45af7b509b59d5e2eac8f1948ea9e3e193db6663b4101afb6382c999a9b9410612f99575b505050811b019055612e9a565b01515f1960f88460031b161c191690555f8080612f8c565b80600186978294978701518155019601940190612f52565b60ff5f805160206147ca8339815191525460401c1615612fe557565b604051631afcd79f60e31b8152600490fd5b612fff612fc9565b613007612fc9565b5f805160206147aa833981519152805460ff19169055565b51906104e9826102dd565b81601f820112156102ee5780516130408161082a565b9261304e604051948561047e565b818452602082840101116102ee5761062091602080850191016105c9565b51906104e982611a51565b6020818303126102ee5780516001600160401b03918282116102ee5701610160818403126102ee576130a7610776565b926130b18261301f565b845260208201518381116102ee57816130cb91840161302a565b60208501526130dc6040830161306c565b6040850152606082015160608501526080820151608085015260a082015160a085015261310b60c0830161306c565b60c085015260e082015160e085015261010061312881840161306c565b9085015261012061313a81840161306c565b9085015261014092838301519081116102ee57613157920161302a565b9082015290565b908160609103126102ee576040519060608201908282106001600160401b038311176104285760409182528051613194816102dd565b835260208101516131a481611a51565b602084015201516131b481611a51565b604082015290565b906020828203126102ee5781516001600160401b03928382116102ee570160a0818303126102ee57604051926131f18461042d565b81519081116102ee5760809261320891830161302a565b8352602081015161321881611a51565b6020840152604081015161322b81611a51565b6040840152606081015161323e81611a51565b6060840152015161324e81611a51565b608082015290565b9192907f9b779b17422d0df92223018b32b4d1fa46e071723d6817e2486d003becc55f0060028154146136c657600290558061329184614214565b34106136b4575f805490938593916132b1906001600160a01b0316610ada565b94604097818951809863f2be2c8560e01b825281806132d960049d8e83019190602083019252565b03915afa968715610cf1578297613694575b5086976060613335979801988951613686575b8354613312906001600160a01b0316610ada565b9260209360608d868501519051809c8192631c2e21b960e11b835288830161060f565b0381845afa998a15610cf157869a613666575b50895161335d906001600160a01b0316610ada565b6001600160a01b03999091908e908d818d16156135c6575b5050516308e5bf2160e01b81529086908290879082905afa9c8d15610cf1578e91889e613586575b50918c8e928c886133d08e6133b48d9951346136ed565b945163f6563d5f60e01b81529e8f9889978895339087016136fa565b0393165af1958615610cf157859661355e575b50906133f16080928c613833565b6134036133fc613734565b8c8961375f565b01518061354f5750825b61343086613419610796565b8b81526001600160a01b0390911694810194909452565b828b015260016060830152825461344f906001600160a01b0316610ada565b90813b1561182a578a51634085b52760e01b81529081018a815283516020808301919091528401516001600160a01b0316604080830191909152840151606080830191909152909301511515608084015293929184919082908490829060a00103925af18015610cf1577f186b125f639893ac3dcb02d857d0fd29319e8f764fd26f4a77310e8c678fbbd095613516936134f5926135425750516001600160a01b031690565b97516001600160a01b03909816885260208801529116949081906040820190565b0390a46104e960017f9b779b17422d0df92223018b32b4d1fa46e071723d6817e2486d003becc55f0055565b80610ce561144792610415565b6135599042613752565b61340d565b60809291965061357d6133f191863d881161121d5761120e818361047e565b969192506133e3565b8793919e508a928c8f928990873d89116135bf575b6135a5818361047e565b81016135b09161264f565b9e50509c9f929450925061339d565b503d61359b565b9151631007fbe560e21b81528088019283526001600160a01b03909116602083015298995096979596949593949293919290919087908290819060400103818d87165afa908115610cf1578891613649575b50156136395789516001600160a01b031697969594939291908d858d613375565b8c51634dae13df60e01b81528590fd5b6136609150873d8911610d7157610d63818361047e565b5f613618565b61367f919a5060603d8111610ddf57610dd0818361047e565b985f613348565b61368f89613a3f565b6132fe565b6133359697506136ad903d8085833e610dfb818361047e565b96956132eb565b6040516393fda7e360e01b8152600490fd5b604051633ee5aeb560e01b8152600490fd5b908160209103126102ee575161062081611a51565b9190820391821161268b57565b9360809361372d929397969760018060a01b0380951687526020870152604086015260a0606086015260a08501906105ea565b9416910152565b6040519061374182610448565b6002825261060f60f31b6020830152565b9190820180921161268b57565b91906001600160a01b038316156120f657613799604051916001835260208301526040820190600182526001606084015260808301604052565b906137a2613bdc565b5f546137b6906001600160a01b0316610ada565b6040516301719d2b60e01b81525f600482015290606090829060249082905afa8015610cf157613815575b506137ed82828661448f565b805160010361380b57906020806104e99593015191015191336128f7565b6104e99333612b03565b61382c9060603d8111610ddf57610dd0818361047e565b505f6137e1565b919091805f5260207f89fc852226e759c7c636cf34d732f0198fc56a54876b2374a52beb7b0c558601815260405f20908451906001600160401b038211610428576138888261388285546103c9565b85612cf4565b80601f83116001146138f2575081929394955f926138e7575b50508160011b915f199060031b1c19161790555b7f6bb7ff708619ba0610cba295a58592e0451dee2622938c8755667688daf3529b6138e261066d83614355565b0390a2565b015190505f806138a1565b90601f19831696613906855f5260205f2090565b925f905b898210613945575050836001959697981061392d575b505050811b0190556138b5565b01515f1960f88460031b161c191690555f8080613920565b8060018596829496860151815501950193019061390a565b908160809103126102ee576040519060808201908282106001600160401b038311176104285760609160405280518352602081015161399b816102dd565b60208401526040810151604084015201516139b581611a51565b606082015290565b908160209103126102ee5751610620816102dd565b9280604093608093979697865260606020870152816060870152838601375f828286010152601f80199101168301019360018060a01b0316910152565b909160a092600180851b031682526020820152606060408201526002606082015261060f60f31b60808201520190565b5f805490929190613a58906001600160a01b0316610ada565b6040805163f2be2c8560e01b8152600481018490529490918186602481845afa958615610cf1578296613bb8575b509060206004928451938480926331056e5760e21b82525afa918215610cf1578192613b98575b506060860191613ace613ac6845160a08a0151906140e5565b8094516136ed565b916001600160a01b0382168180808088855af1613ae96128c8565b5015613b8757818791875196877fdf7cc5ebdb7be805a1d96fd982aba37cbf8e9169d6f34870e8d63a62cd492f649889923390613b269183613a0f565b0390a4875181908190819086906001600160a01b03165af1613b466128c8565b5015613b7657613b71613b66610ada60019798995160018060a01b031690565b945192839283613a0f565b0390a4565b8351633b50281160e11b8152600490fd5b85516372f7724f60e01b8152600490fd5b613bb191925060203d8111610d2257610d12818361047e565b905f613aad565b600492919650613bd36020913d8085833e610dfb818361047e565b96919250613a86565b60ff5f805160206147aa8339815191525416613bf457565b60405163d93c066560e01b8152600490fd5b5f8054909290613c1e906001600160a01b0316610ada565b6040516346c1c31160e11b8152600481018390529092608082602481875afa918215610cf1578592613db8575b50606082015115908115613d9c575b50613d7557836001613c6b84614043565b151514613d9557905160405163f2be2c8560e01b815260048101919091529081602481865afa908115610cf1578491613d7b575b506001613cb8613cb3610100840151151590565b151590565b14613d7557613ce49260206060920151906040518080968194631c2e21b960e11b83526004830161060f565b03915afa908115610cf157613d13610ada610ada602094613d3396889161142f5750516001600160a01b031690565b6040518080958194631174806160e11b8352600483019190602083019252565b03915afa908115610cf1578291613d57575b5015613d515750600190565b60ff1690565b613d6f915060203d8111610d7157610d63818361047e565b5f613d45565b50505090565b613d8f91503d8086833e610dfb818361047e565b5f613c9f565b5050505090565b60208301516001600160a01b039182169116141590505f613c5a565b613dd191925060803d8111610daf57610da1818361047e565b905f613c4b565b60209081818403126102ee578051906001600160401b0382116102ee57019180601f840112156102ee578251613e0d816107b5565b93613e1b604051958661047e565b818552838086019260051b8201019283116102ee578301905b828210613e42575050505090565b81518152908301908301613e34565b5f80549093929190613e6b906001600160a01b0316610ada565b604080516304239ea560e11b815260048082018690526001600160a01b03949094166024820152909590939091908285604481855afa948515610cf157839561401f575b5084511561401657865163f2be2c8560e01b815284810191825291908390839081906020010381845afa918215610cf1578392613ff3575b506060613f0e916020809401519089518080958194631c2e21b960e11b83528a830161060f565b03915afa908115610cf157613f3591610ada91859161142f5750516001600160a01b031690565b8294835b8151811015613fe857613f4c8183612690565b5184613f5a613cb383614043565b159182613f8c575b5050613f77575b613f729061267d565b613f39565b95613f84613f729161267d565b969050613f69565b8b51631174806160e11b815289810191825292508290819060200103816001600160a01b0388165afa908115610cf1578691613fcb575b50845f613f62565b613fe29150853d8711610d7157610d63818361047e565b5f613fc3565b509496505050505050565b613f0e91925061400e6060913d8087833e610dfb818361047e565b929150613ee7565b50909450505050565b61403c9195503d8085833e614034818361047e565b810190613dd8565b935f613eaf565b61407d60805f9261405d610ada855460018060a01b031690565b60405180809581946346c1c31160e11b8352600483019190602083019252565b03915afa908115610cf15782916140b4575b506060810151156140b0576040015180156140b05742106106205750600190565b5090565b6140cc915060803d8111610daf57610da1818361047e565b5f61408f565b8181029291811591840414171561268b57565b61271091826140f482846140d2565b1061410657614102916140d2565b0490565b604051633032107560e21b8152600490fd5b5f546141549190608090614134906001600160a01b0316610ada565b91604051809481926346c1c31160e11b8352600483019190602083019252565b0381845afa918215610cf1575f926141f4575b506060820151156141e257815160405163f2be2c8560e01b81526004810191909152905f90829060249082905afa908115610cf1575f916141c9575b50516001600160a01b0316156141b7575190565b6040516385a6706360e01b8152600490fd5b6141dc913d8091833e610dfb818361047e565b5f6141a3565b60405163f97195bf60e01b8152600490fd5b61420d91925060803d8111610daf57610da1818361047e565b905f614167565b5f805490919061422c906001600160a01b0316610ada565b60405163f2be2c8560e01b81526004810183905290918382602481865afa918215610cf1578492614322575b5081516001600160a01b0316156141b7576060614290936020840151906040518080978194631c2e21b960e11b83526004830161060f565b03915afa908115610cf1576142bf610ada610ada6020946142df97899161142f5750516001600160a01b031690565b604051808096819463632f7c8360e01b8352600483019190602083019252565b03915afa918215610cf15761062093926142ff575b506060015190613752565b606091925061431b9060203d811161121d5761120e818361047e565b91906142f4565b6143379192503d8086833e610dfb818361047e565b905f614258565b90614351602092828151948592016105c9565b0190565b5f90815260207f89fc852226e759c7c636cf34d732f0198fc56a54876b2374a52beb7b0c558601815261438a6040832061054e565b80519091901561445f57604051928391817f89fc852226e759c7c636cf34d732f0198fc56a54876b2374a52beb7b0c5586009081546143c8816103c9565b9260019180831690811561443c57506001146143ff575b50505050506143f1906106209361433e565b03601f19810183528261047e565b90918093949550528382205b83831061442657505050820101826143f16106205f806143df565b805488840186015287955091840191810161440b565b60ff19168887015250505050801515028301019050826143f16106205f806143df565b50505061062061049f565b909161448161062093604084526040840190610fed565b916020818403910152610fed565b91909182518251908181036127405750505f5b835181101561450357600581901b84810160209081015191850101516144dc929184906001600160a01b0382166144e1575b50505061267d565b6144a2565b6144f9916109ab6144f1926121ae565b918254613752565b90555f83816144d4565b509160018151145f14614561576020908101519181015160408051938452918301526001600160a01b03909216915f9133917fc3d58168c5ae7397731d063d5bbf3d657854427343f4c083240f7aacaa2d0f62919081908101613b71565b7f4a39dc06d4c0dbc64b70af90fd698a233a518aa5d07e595d983b8c0526c8f7fb613b715f939460405191829160018060a01b03169633958361446a565b93929180518351908181036127405750505f5b815181101561468457600581901b82810160209081015191860101516001600160a01b0392918590898516614613575b6145f49482166145f95750505061267d565b6145b2565b614609916109ab6144f1926121ae565b90555f84816144d4565b9192939050614625896109ab846121ae565b5483811061464d57918691846145f4969594036146458c6109ab856121ae565b5594506145e2565b6040516303dee4c560e01b81526001600160a01b038b16600482015260248101919091526044810184905260648101839052608490fd5b5080519394939192916001036146e6576020908101519181015160408051938452918301526001600160a01b03928316939092169133917fc3d58168c5ae7397731d063d5bbf3d657854427343f4c083240f7aacaa2d0f629181908101613b71565b6040516001600160a01b03938416949093169233927f4a39dc06d4c0dbc64b70af90fd698a233a518aa5d07e595d983b8c0526c8f7fb928291613b71918361446a56fe189ab7a9244df0848122154315af71fe140f3db0fe014031783b0946b8c9d2e3360894a13ba1a3210667c828492db98dca3e2076cc3735a920a3ca505d382bbc65d7a28e3265b37a6474929f336521b332c1681b933f6cb9f3376673440d862a02dd7bc7dec4dceedda775e58dd541e08a116c6c53815c0bd028192f7b626800cd5ed15c6e187e77e9aee88184c21f4f2182ab5827cb3b7e07fbedcd63f03300f0c57e16840df040f15088dc2f81fe391c3923bec73e23a9662efc9c229c6a0088be536d5240c274a3b1d3a1be54482fd9caa294f08c62a7cde569f49a3c4502810f1720fbc34c56d171f89315ad21708648fd17424c27b88fa208409845aa77a26469706673582212204df57f74d1f0821ef0a3ca87781202bf07e67bdd6831ad407c75f881b6cae9b964736f6c63430008140033",
  "linkReferences": {},
  "deployedLinkReferences": {}
}