{
  "_format": "hh-sol-artifact-1",
  "contractName": "TheBadge",
  "sourceName": "src/contracts/thebadge/TheBadge.sol",
  "abi": [
    {
      "inputs": [],
      "stateMutability": "nonpayable",
      "type": "constructor"
    },
    {
      "inputs": [],
      "name": "TheBadge__SBT",
      "type": "error"
    },
    {
      "inputs": [],
      "name": "TheBadge__calculateFee_protocolFeesInvalidValues",
      "type": "error"
    },
    {
      "inputs": [],
      "name": "TheBadge__mint_creatorFeesPaymentFailed",
      "type": "error"
    },
    {
      "inputs": [],
      "name": "TheBadge__mint_protocolFeesPaymentFailed",
      "type": "error"
    },
    {
      "inputs": [],
      "name": "TheBadge__requestBadge_badgeModelIsSuspended",
      "type": "error"
    },
    {
      "inputs": [],
      "name": "TheBadge__requestBadge_badgeModelNotFound",
      "type": "error"
    },
    {
      "inputs": [],
      "name": "TheBadge__requestBadge_badgeNotClaimable",
      "type": "error"
    },
    {
      "inputs": [],
      "name": "TheBadge__requestBadge_badgeNotFound",
      "type": "error"
    },
    {
      "inputs": [],
      "name": "TheBadge__requestBadge_controllerIsPaused",
      "type": "error"
    },
    {
      "inputs": [],
      "name": "TheBadge__requestBadge_isPaused",
      "type": "error"
    },
    {
      "inputs": [],
      "name": "TheBadge__requestBadge_wrongValue",
      "type": "error"
    },
    {
      "anonymous": false,
      "inputs": [
        {
          "indexed": false,
          "internalType": "address",
          "name": "previousAdmin",
          "type": "address"
        },
        {
          "indexed": false,
          "internalType": "address",
          "name": "newAdmin",
          "type": "address"
        }
      ],
      "name": "AdminChanged",
      "type": "event"
    },
    {
      "anonymous": false,
      "inputs": [
        {
          "indexed": true,
          "internalType": "address",
          "name": "account",
          "type": "address"
        },
        {
          "indexed": true,
          "internalType": "address",
          "name": "operator",
          "type": "address"
        },
        {
          "indexed": false,
          "internalType": "bool",
          "name": "approved",
          "type": "bool"
        }
      ],
      "name": "ApprovalForAll",
      "type": "event"
    },
    {
      "anonymous": false,
      "inputs": [
        {
          "indexed": true,
          "internalType": "uint256",
          "name": "badgeModelID",
          "type": "uint256"
        },
        {
          "indexed": true,
          "internalType": "uint256",
          "name": "badgeID",
          "type": "uint256"
        },
        {
          "indexed": true,
          "internalType": "address",
          "name": "recipient",
          "type": "address"
        },
        {
          "indexed": false,
          "internalType": "address",
          "name": "controller",
          "type": "address"
        },
        {
          "indexed": false,
          "internalType": "uint256",
          "name": "controllerBadgeId",
          "type": "uint256"
        }
      ],
      "name": "BadgeRequested",
      "type": "event"
    },
    {
      "anonymous": false,
      "inputs": [
        {
          "indexed": true,
          "internalType": "address",
          "name": "beacon",
          "type": "address"
        }
      ],
      "name": "BeaconUpgraded",
      "type": "event"
    },
    {
      "anonymous": false,
      "inputs": [
        {
          "indexed": true,
          "internalType": "address",
          "name": "admin",
          "type": "address"
        }
      ],
      "name": "Initialize",
      "type": "event"
    },
    {
      "anonymous": false,
      "inputs": [
        {
          "indexed": false,
          "internalType": "uint8",
          "name": "version",
          "type": "uint8"
        }
      ],
      "name": "Initialized",
      "type": "event"
    },
    {
      "anonymous": false,
      "inputs": [
        {
          "indexed": false,
          "internalType": "address",
          "name": "account",
          "type": "address"
        }
      ],
      "name": "Paused",
      "type": "event"
    },
    {
      "anonymous": false,
      "inputs": [
        {
          "indexed": true,
          "internalType": "address",
          "name": "recipient",
          "type": "address"
        },
        {
          "indexed": false,
          "internalType": "address",
          "name": "payer",
          "type": "address"
        },
        {
          "indexed": false,
          "internalType": "uint256",
          "name": "amount",
          "type": "uint256"
        },
        {
          "indexed": true,
          "internalType": "enum LibTheBadge.PaymentType",
          "name": "paymentType",
          "type": "uint8"
        },
        {
          "indexed": true,
          "internalType": "uint256",
          "name": "badgeModelId",
          "type": "uint256"
        },
        {
          "indexed": false,
          "internalType": "string",
          "name": "controllerName",
          "type": "string"
        }
      ],
      "name": "PaymentMade",
      "type": "event"
    },
    {
      "anonymous": false,
      "inputs": [],
      "name": "ProtocolSettingsUpdated",
      "type": "event"
    },
    {
      "anonymous": false,
      "inputs": [
        {
          "indexed": true,
          "internalType": "bytes32",
          "name": "role",
          "type": "bytes32"
        },
        {
          "indexed": true,
          "internalType": "bytes32",
          "name": "previousAdminRole",
          "type": "bytes32"
        },
        {
          "indexed": true,
          "internalType": "bytes32",
          "name": "newAdminRole",
          "type": "bytes32"
        }
      ],
      "name": "RoleAdminChanged",
      "type": "event"
    },
    {
      "anonymous": false,
      "inputs": [
        {
          "indexed": true,
          "internalType": "bytes32",
          "name": "role",
          "type": "bytes32"
        },
        {
          "indexed": true,
          "internalType": "address",
          "name": "account",
          "type": "address"
        },
        {
          "indexed": true,
          "internalType": "address",
          "name": "sender",
          "type": "address"
        }
      ],
      "name": "RoleGranted",
      "type": "event"
    },
    {
      "anonymous": false,
      "inputs": [
        {
          "indexed": true,
          "internalType": "bytes32",
          "name": "role",
          "type": "bytes32"
        },
        {
          "indexed": true,
          "internalType": "address",
          "name": "account",
          "type": "address"
        },
        {
          "indexed": true,
          "internalType": "address",
          "name": "sender",
          "type": "address"
        }
      ],
      "name": "RoleRevoked",
      "type": "event"
    },
    {
      "anonymous": false,
      "inputs": [
        {
          "indexed": true,
          "internalType": "address",
          "name": "operator",
          "type": "address"
        },
        {
          "indexed": true,
          "internalType": "address",
          "name": "from",
          "type": "address"
        },
        {
          "indexed": true,
          "internalType": "address",
          "name": "to",
          "type": "address"
        },
        {
          "indexed": false,
          "internalType": "uint256[]",
          "name": "ids",
          "type": "uint256[]"
        },
        {
          "indexed": false,
          "internalType": "uint256[]",
          "name": "values",
          "type": "uint256[]"
        }
      ],
      "name": "TransferBatch",
      "type": "event"
    },
    {
      "anonymous": false,
      "inputs": [
        {
          "indexed": true,
          "internalType": "address",
          "name": "operator",
          "type": "address"
        },
        {
          "indexed": true,
          "internalType": "address",
          "name": "from",
          "type": "address"
        },
        {
          "indexed": true,
          "internalType": "address",
          "name": "to",
          "type": "address"
        },
        {
          "indexed": false,
          "internalType": "uint256",
          "name": "id",
          "type": "uint256"
        },
        {
          "indexed": false,
          "internalType": "uint256",
          "name": "value",
          "type": "uint256"
        }
      ],
      "name": "TransferSingle",
      "type": "event"
    },
    {
      "anonymous": false,
      "inputs": [
        {
          "indexed": false,
          "internalType": "string",
          "name": "value",
          "type": "string"
        },
        {
          "indexed": true,
          "internalType": "uint256",
          "name": "id",
          "type": "uint256"
        }
      ],
      "name": "URI",
      "type": "event"
    },
    {
      "anonymous": false,
      "inputs": [
        {
          "indexed": false,
          "internalType": "address",
          "name": "account",
          "type": "address"
        }
      ],
      "name": "Unpaused",
      "type": "event"
    },
    {
      "anonymous": false,
      "inputs": [
        {
          "indexed": true,
          "internalType": "address",
          "name": "implementation",
          "type": "address"
        }
      ],
      "name": "Upgraded",
      "type": "event"
    },
    {
      "inputs": [],
      "name": "DEFAULT_ADMIN_ROLE",
      "outputs": [
        {
          "internalType": "bytes32",
          "name": "",
          "type": "bytes32"
        }
      ],
      "stateMutability": "view",
      "type": "function"
    },
    {
      "inputs": [],
      "name": "PAUSER_ROLE",
      "outputs": [
        {
          "internalType": "bytes32",
          "name": "",
          "type": "bytes32"
        }
      ],
      "stateMutability": "view",
      "type": "function"
    },
    {
      "inputs": [],
      "name": "UPGRADER_ROLE",
      "outputs": [
        {
          "internalType": "bytes32",
          "name": "",
          "type": "bytes32"
        }
      ],
      "stateMutability": "view",
      "type": "function"
    },
    {
      "inputs": [],
      "name": "URI_SETTER_ROLE",
      "outputs": [
        {
          "internalType": "bytes32",
          "name": "",
          "type": "bytes32"
        }
      ],
      "stateMutability": "view",
      "type": "function"
    },
    {
      "inputs": [],
      "name": "USER_MANAGER_ROLE",
      "outputs": [
        {
          "internalType": "bytes32",
          "name": "",
          "type": "bytes32"
        }
      ],
      "stateMutability": "view",
      "type": "function"
    },
    {
      "inputs": [],
      "name": "VERIFIER_ROLE",
      "outputs": [
        {
          "internalType": "bytes32",
          "name": "",
          "type": "bytes32"
        }
      ],
      "stateMutability": "view",
      "type": "function"
    },
    {
      "inputs": [],
      "name": "_badgeStore",
      "outputs": [
        {
          "internalType": "contract TheBadgeStore",
          "name": "",
          "type": "address"
        }
      ],
      "stateMutability": "view",
      "type": "function"
    },
    {
      "inputs": [
        {
          "internalType": "address",
          "name": "account",
          "type": "address"
        },
        {
          "internalType": "uint256",
          "name": "badgeId",
          "type": "uint256"
        }
      ],
      "name": "balanceOf",
      "outputs": [
        {
          "internalType": "uint256",
          "name": "",
          "type": "uint256"
        }
      ],
      "stateMutability": "view",
      "type": "function"
    },
    {
      "inputs": [
        {
          "internalType": "address",
          "name": "account",
          "type": "address"
        },
        {
          "internalType": "uint256",
          "name": "badgeModelId",
          "type": "uint256"
        }
      ],
      "name": "balanceOfBadgeModel",
      "outputs": [
        {
          "internalType": "uint256",
          "name": "",
          "type": "uint256"
        }
      ],
      "stateMutability": "view",
      "type": "function"
    },
    {
      "inputs": [
        {
          "internalType": "address[]",
          "name": "accounts",
          "type": "address[]"
        },
        {
          "internalType": "uint256[]",
          "name": "ids",
          "type": "uint256[]"
        }
      ],
      "name": "balanceOfBatch",
      "outputs": [
        {
          "internalType": "uint256[]",
          "name": "",
          "type": "uint256[]"
        }
      ],
      "stateMutability": "view",
      "type": "function"
    },
    {
      "inputs": [
        {
          "internalType": "uint256",
          "name": "badgeId",
          "type": "uint256"
        },
        {
          "internalType": "bytes",
          "name": "data",
          "type": "bytes"
        }
      ],
      "name": "challenge",
      "outputs": [],
      "stateMutability": "payable",
      "type": "function"
    },
    {
      "inputs": [
        {
          "internalType": "uint256",
          "name": "badgeId",
          "type": "uint256"
        },
        {
          "internalType": "bytes",
          "name": "data",
          "type": "bytes"
        }
      ],
      "name": "claim",
      "outputs": [],
      "stateMutability": "nonpayable",
      "type": "function"
    },
    {
      "inputs": [
        {
          "internalType": "uint256",
          "name": "badgeId",
          "type": "uint256"
        }
      ],
      "name": "getChallengeDepositValue",
      "outputs": [
        {
          "internalType": "uint256",
          "name": "",
          "type": "uint256"
        }
      ],
      "stateMutability": "view",
      "type": "function"
    },
    {
      "inputs": [
        {
          "internalType": "uint256",
          "name": "badgeId",
          "type": "uint256"
        }
      ],
      "name": "getRemovalDepositValue",
      "outputs": [
        {
          "internalType": "uint256",
          "name": "",
          "type": "uint256"
        }
      ],
      "stateMutability": "view",
      "type": "function"
    },
    {
      "inputs": [
        {
          "internalType": "bytes32",
          "name": "role",
          "type": "bytes32"
        }
      ],
      "name": "getRoleAdmin",
      "outputs": [
        {
          "internalType": "bytes32",
          "name": "",
          "type": "bytes32"
        }
      ],
      "stateMutability": "view",
      "type": "function"
    },
    {
      "inputs": [
        {
          "internalType": "bytes32",
          "name": "role",
          "type": "bytes32"
        },
        {
          "internalType": "address",
          "name": "account",
          "type": "address"
        }
      ],
      "name": "grantRole",
      "outputs": [],
      "stateMutability": "nonpayable",
      "type": "function"
    },
    {
      "inputs": [
        {
          "internalType": "bytes32",
          "name": "role",
          "type": "bytes32"
        },
        {
          "internalType": "address",
          "name": "account",
          "type": "address"
        }
      ],
      "name": "hasRole",
      "outputs": [
        {
          "internalType": "bool",
          "name": "",
          "type": "bool"
        }
      ],
      "stateMutability": "view",
      "type": "function"
    },
    {
      "inputs": [
        {
          "internalType": "address",
          "name": "admin",
          "type": "address"
        },
        {
          "internalType": "address",
          "name": "badgeStore",
          "type": "address"
        }
      ],
      "name": "initialize",
      "outputs": [],
      "stateMutability": "nonpayable",
      "type": "function"
    },
    {
      "inputs": [
        {
          "internalType": "address",
          "name": "account",
          "type": "address"
        },
        {
          "internalType": "address",
          "name": "operator",
          "type": "address"
        }
      ],
      "name": "isApprovedForAll",
      "outputs": [
        {
          "internalType": "bool",
          "name": "",
          "type": "bool"
        }
      ],
      "stateMutability": "view",
      "type": "function"
    },
    {
      "inputs": [
        {
          "internalType": "uint256",
          "name": "badgeId",
          "type": "uint256"
        }
      ],
      "name": "isExpired",
      "outputs": [
        {
          "internalType": "bool",
          "name": "",
          "type": "bool"
        }
      ],
      "stateMutability": "view",
      "type": "function"
    },
    {
      "inputs": [
        {
          "internalType": "uint256",
          "name": "badgeModelId",
          "type": "uint256"
        },
        {
          "internalType": "address",
          "name": "account",
          "type": "address"
        },
        {
          "internalType": "string",
          "name": "tokenURI",
          "type": "string"
        },
        {
          "internalType": "bytes",
          "name": "data",
          "type": "bytes"
        }
      ],
      "name": "mint",
      "outputs": [],
      "stateMutability": "payable",
      "type": "function"
    },
    {
      "inputs": [
        {
          "internalType": "uint256",
          "name": "badgeModelId",
          "type": "uint256"
        }
      ],
      "name": "mintValue",
      "outputs": [
        {
          "internalType": "uint256",
          "name": "",
          "type": "uint256"
        }
      ],
      "stateMutability": "view",
      "type": "function"
    },
    {
      "inputs": [],
      "name": "name",
      "outputs": [
        {
          "internalType": "string",
          "name": "",
          "type": "string"
        }
      ],
      "stateMutability": "view",
      "type": "function"
    },
    {
      "inputs": [],
      "name": "pause",
      "outputs": [],
      "stateMutability": "nonpayable",
      "type": "function"
    },
    {
      "inputs": [],
      "name": "paused",
      "outputs": [
        {
          "internalType": "bool",
          "name": "",
          "type": "bool"
        }
      ],
      "stateMutability": "view",
      "type": "function"
    },
    {
      "inputs": [],
      "name": "proxiableUUID",
      "outputs": [
        {
          "internalType": "bytes32",
          "name": "",
          "type": "bytes32"
        }
      ],
      "stateMutability": "view",
      "type": "function"
    },
    {
      "inputs": [
        {
          "internalType": "uint256",
          "name": "badgeId",
          "type": "uint256"
        },
        {
          "internalType": "bytes",
          "name": "data",
          "type": "bytes"
        }
      ],
      "name": "removeItem",
      "outputs": [],
      "stateMutability": "payable",
      "type": "function"
    },
    {
      "inputs": [
        {
          "internalType": "bytes32",
          "name": "role",
          "type": "bytes32"
        },
        {
          "internalType": "address",
          "name": "account",
          "type": "address"
        }
      ],
      "name": "renounceRole",
      "outputs": [],
      "stateMutability": "nonpayable",
      "type": "function"
    },
    {
      "inputs": [
        {
          "internalType": "bytes32",
          "name": "role",
          "type": "bytes32"
        },
        {
          "internalType": "address",
          "name": "account",
          "type": "address"
        }
      ],
      "name": "revokeRole",
      "outputs": [],
      "stateMutability": "nonpayable",
      "type": "function"
    },
    {
      "inputs": [
        {
          "internalType": "address",
          "name": "from",
          "type": "address"
        },
        {
          "internalType": "address",
          "name": "to",
          "type": "address"
        },
        {
          "internalType": "uint256[]",
          "name": "ids",
          "type": "uint256[]"
        },
        {
          "internalType": "uint256[]",
          "name": "amounts",
          "type": "uint256[]"
        },
        {
          "internalType": "bytes",
          "name": "data",
          "type": "bytes"
        }
      ],
      "name": "safeBatchTransferFrom",
      "outputs": [],
      "stateMutability": "nonpayable",
      "type": "function"
    },
    {
      "inputs": [
        {
          "internalType": "address",
          "name": "from",
          "type": "address"
        },
        {
          "internalType": "address",
          "name": "to",
          "type": "address"
        },
        {
          "internalType": "uint256",
          "name": "id",
          "type": "uint256"
        },
        {
          "internalType": "uint256",
          "name": "amount",
          "type": "uint256"
        },
        {
          "internalType": "bytes",
          "name": "data",
          "type": "bytes"
        }
      ],
      "name": "safeTransferFrom",
      "outputs": [],
      "stateMutability": "nonpayable",
      "type": "function"
    },
    {
      "inputs": [
        {
          "internalType": "address",
          "name": "operator",
          "type": "address"
        },
        {
          "internalType": "bool",
          "name": "approved",
          "type": "bool"
        }
      ],
      "name": "setApprovalForAll",
      "outputs": [],
      "stateMutability": "nonpayable",
      "type": "function"
    },
    {
      "inputs": [
        {
          "internalType": "uint256",
          "name": "badgeId",
          "type": "uint256"
        },
        {
          "internalType": "bytes",
          "name": "data",
          "type": "bytes"
        }
      ],
      "name": "submitEvidence",
      "outputs": [],
      "stateMutability": "nonpayable",
      "type": "function"
    },
    {
      "inputs": [
        {
          "internalType": "bytes4",
          "name": "interfaceId",
          "type": "bytes4"
        }
      ],
      "name": "supportsInterface",
      "outputs": [
        {
          "internalType": "bool",
          "name": "",
          "type": "bool"
        }
      ],
      "stateMutability": "view",
      "type": "function"
    },
    {
      "inputs": [],
      "name": "symbol",
      "outputs": [
        {
          "internalType": "string",
          "name": "",
          "type": "string"
        }
      ],
      "stateMutability": "view",
      "type": "function"
    },
    {
      "inputs": [],
      "name": "unpause",
      "outputs": [],
      "stateMutability": "nonpayable",
      "type": "function"
    },
    {
      "inputs": [
        {
          "internalType": "uint256",
          "name": "_createBadgeModelValue",
          "type": "uint256"
        }
      ],
      "name": "updateCreateBadgeModelProtocolFee",
      "outputs": [],
      "stateMutability": "nonpayable",
      "type": "function"
    },
    {
      "inputs": [
        {
          "internalType": "uint256",
          "name": "_mintBadgeDefaultFee",
          "type": "uint256"
        }
      ],
      "name": "updateMintBadgeDefaultProtocolFee",
      "outputs": [],
      "stateMutability": "nonpayable",
      "type": "function"
    },
    {
      "inputs": [
        {
          "internalType": "uint256",
          "name": "_registerCreatorValue",
          "type": "uint256"
        }
      ],
      "name": "updateRegisterCreatorProtocolFee",
      "outputs": [],
      "stateMutability": "nonpayable",
      "type": "function"
    },
    {
      "inputs": [
        {
          "internalType": "address",
          "name": "newImplementation",
          "type": "address"
        }
      ],
      "name": "upgradeTo",
      "outputs": [],
      "stateMutability": "nonpayable",
      "type": "function"
    },
    {
      "inputs": [
        {
          "internalType": "address",
          "name": "newImplementation",
          "type": "address"
        },
        {
          "internalType": "bytes",
          "name": "data",
          "type": "bytes"
        }
      ],
      "name": "upgradeToAndCall",
      "outputs": [],
      "stateMutability": "payable",
      "type": "function"
    },
    {
      "inputs": [
        {
          "internalType": "uint256",
          "name": "badgeId",
          "type": "uint256"
        }
      ],
      "name": "uri",
      "outputs": [
        {
          "internalType": "string",
          "name": "",
          "type": "string"
        }
      ],
      "stateMutability": "view",
      "type": "function"
    },
    {
      "stateMutability": "payable",
      "type": "receive"
    }
  ],
  "bytecode": "0x60a0604052306080523480156200001557600080fd5b506200002062000026565b620000e7565b600054610100900460ff1615620000935760405162461bcd60e51b815260206004820152602760248201527f496e697469616c697a61626c653a20636f6e747261637420697320696e697469604482015266616c697a696e6760c81b606482015260840160405180910390fd5b60005460ff90811614620000e5576000805460ff191660ff9081179091556040519081527f7f26b83ff96e1f2b6a682f133852f6798a09c465da95921460cefb38474024989060200160405180910390a15b565b608051614f286200011f60003960008181610b9c01528181610bdc015281816114510152818161149101526115090152614f286000f3fe6080604052600436106102145760003560e01c80638456cb5911610119578063c5a3c7ca116100a6578063c5a3c7ca14610608578063d547741f14610628578063d7deba1514610648578063d9548e5314610668578063e181865114610688578063e63ab1e9146106a8578063e7705db6146106ca578063e985e9c5146106fe578063f1fe717e14610747578063f242432a14610767578063f72c0d8b1461078757600080fd5b80638456cb59146104fc57806391d148541461051157806393c7a71b1461053157806395d89b41146105515780639faf715814610566578063a03aafbf14610579578063a217fddf1461058c578063a22cb465146105a1578063a41e35c3146105c1578063c1d18840146105f557600080fd5b806338926b6d116101a257806338926b6d146103a65780633f4ba83a146103c657806346c45758146103db578063485cc955146103fb5780634e1273f41461041b5780634f1ef2861461044857806352d1902d1461045b5780635c975abb14610470578063632f7c83146104885780637eb7f176146104a85780637f345710146104c857600080fd5b8062fdd58e1461022057806301ffc9a71461025357806306fdde03146102835780630e89341c146102a557806319b50c2a146102c5578063248a9ca3146102f35780632eb2c2d6146103245780632f2ff15d1461034657806336568abe146103665780633659cfe61461038657600080fd5b3661021b57005b600080fd5b34801561022c57600080fd5b5061024061023b366004613c81565b6107a9565b6040519081526020015b60405180910390f35b34801561025f57600080fd5b5061027361026e366004613cc3565b6109ef565b604051901515815260200161024a565b34801561028f57600080fd5b506102986109fa565b60405161024a9190613d30565b3480156102b157600080fd5b506102986102c0366004613d43565b610a89565b3480156102d157600080fd5b50610191546102e6906001600160a01b031681565b60405161024a9190613d5c565b3480156102ff57600080fd5b5061024061030e366004613d43565b600090815261015f602052604090206001015490565b34801561033057600080fd5b5061034461033f366004613f21565b610a94565b005b34801561035257600080fd5b50610344610361366004613fce565b610ae9565b34801561037257600080fd5b50610344610381366004613fce565b610b14565b34801561039257600080fd5b506103446103a1366004613ffe565b610b92565b3480156103b257600080fd5b506103446103c136600461401b565b610c5a565b3480156103d257600080fd5b50610344610e54565b3480156103e757600080fd5b506102406103f6366004613c81565b610e74565b34801561040757600080fd5b50610344610416366004614096565b6110d1565b34801561042757600080fd5b5061043b6104363660046140c4565b61131e565b60405161024a91906141cb565b6103446104563660046141de565b611447565b34801561046757600080fd5b506102406114fc565b34801561047c57600080fd5b5060c95460ff16610273565b34801561049457600080fd5b506102406104a3366004613d43565b6115ab565b3480156104b457600080fd5b506102406104c3366004613d43565b61174c565b3480156104d457600080fd5b506102407f7804d923f43a17d325d77e781528e0793b2edd9890ab45fc64efd7b4b427744c81565b34801561050857600080fd5b506103446118c5565b34801561051d57600080fd5b5061027361052c366004613fce565b6118e5565b34801561053d57600080fd5b5061034461054c36600461401b565b611911565b34801561055d57600080fd5b50610298611a45565b61034461057436600461401b565b611a53565b61034461058736600461401b565b611bc4565b34801561059857600080fd5b50610240600081565b3480156105ad57600080fd5b506103446105bc366004614231565b611cfa565b3480156105cd57600080fd5b506102407fcbaaf41b181bb6e269c490e876a7c97711b57e21dd8e5528423cf57579726b3581565b61034461060336600461425f565b611d05565b34801561061457600080fd5b50610344610623366004613d43565b61229d565b34801561063457600080fd5b50610344610643366004613fce565b612335565b34801561065457600080fd5b50610240610663366004613d43565b61235b565b34801561067457600080fd5b50610273610683366004613d43565b61248d565b34801561069457600080fd5b506103446106a3366004613d43565b61254c565b3480156106b457600080fd5b50610240600080516020614eac83398151915281565b3480156106d657600080fd5b506102407f0ce23c3e399818cfee81a7ab0880f714e53d7672b08df0fa62f2843416e1ea0981565b34801561070a57600080fd5b50610273610719366004614096565b6001600160a01b03918216600090815260666020908152604080832093909416825291909152205460ff1690565b34801561075357600080fd5b50610344610762366004613d43565b612589565b34801561077357600080fd5b506103446107823660046142f5565b6125c6565b34801561079357600080fd5b50610240600080516020614e6c83398151915281565b610191546040516346c1c31160e11b81526004810183905260009182916001600160a01b0390911690638d83862290602401608060405180830381865afa1580156107f8573d6000803e3d6000fd5b505050506040513d601f19601f8201168201806040525081019061081c9190614378565b606081015190915015806108465750836001600160a01b031681602001516001600160a01b031614155b156108555760009150506109e9565b61085e8361248d565b15156001036108715760009150506109e9565b61019154815160405163f2be2c8560e01b815260048101919091526000916001600160a01b03169063f2be2c8590602401600060405180830381865afa1580156108bf573d6000803e3d6000fd5b505050506040513d6000823e601f3d908101601f191682016040526108e79190810190614439565b610191546020820151604051631c2e21b960e11b81529293506000926001600160a01b039092169163385c43729161092191600401613d30565b606060405180830381865afa15801561093e573d6000803e3d6000fd5b505050506040513d601f19601f82011682018060405250810190610962919061451b565b8051604051631174806160e11b815260048101889052919250906001600160a01b038216906322e900c290602401602060405180830381865afa1580156109ad573d6000803e3d6000fd5b505050506040513d601f19601f820116820180604052508101906109d1919061458c565b6109dc5760006109df565b60015b60ff169450505050505b92915050565b60006109e98261260b565b6101928054610a08906145a9565b80601f0160208091040260200160405190810160405280929190818152602001828054610a34906145a9565b8015610a815780601f10610a5657610100808354040283529160200191610a81565b820191906000526020600020905b815481529060010190602001808311610a6457829003601f168201915b505050505081565b60606109e982612630565b6001600160a01b038516331480610ab05750610ab08533610719565b610ad55760405162461bcd60e51b8152600401610acc906145e3565b60405180910390fd5b610ae2858585858561270f565b5050505050565b600082815261015f6020526040902060010154610b05816128fd565b610b0f8383612907565b505050565b6001600160a01b0381163314610b845760405162461bcd60e51b815260206004820152602f60248201527f416363657373436f6e74726f6c3a2063616e206f6e6c792072656e6f756e636560448201526e103937b632b9903337b91039b2b63360891b6064820152608401610acc565b610b8e828261298e565b5050565b6001600160a01b037f0000000000000000000000000000000000000000000000000000000000000000163003610bda5760405162461bcd60e51b8152600401610acc90614631565b7f00000000000000000000000000000000000000000000000000000000000000006001600160a01b0316610c0c6129f6565b6001600160a01b031614610c325760405162461bcd60e51b8152600401610acc9061467d565b610c3b81612a12565b60408051600080825260208201909252610c5791839190612a2a565b50565b6000610c6584612b95565b6101915460405163f2be2c8560e01b8152600481018390529192506000916001600160a01b039091169063f2be2c8590602401600060405180830381865afa158015610cb5573d6000803e3d6000fd5b505050506040513d6000823e601f3d908101601f19168201604052610cdd9190810190614439565b610191546020820151604051631c2e21b960e11b81529293506000926001600160a01b039092169163385c437291610d1791600401613d30565b606060405180830381865afa158015610d34573d6000803e3d6000fd5b505050506040513d601f19601f82011682018060405250810190610d58919061451b565b80516040516389610a0960e01b815260048101899052919250906001600160a01b038216906389610a0990602401602060405180830381865afa158015610da3573d6000803e3d6000fd5b505050506040513d601f19601f82011682018060405250810190610dc7919061458c565b1515600003610de957604051632edd9d0f60e21b815260040160405180910390fd5b6040516338926b6d60e01b81526001600160a01b038216906338926b6d90610e19908a908a908a906004016146c9565b600060405180830381600087803b158015610e3357600080fd5b505af1158015610e47573d6000803e3d6000fd5b5050505050505050505050565b600080516020614eac833981519152610e6c816128fd565b610c57612cdb565b610191546040516304239ea560e11b8152600481018390526001600160a01b03848116602483015260009283929116906308473d4a90604401600060405180830381865afa158015610eca573d6000803e3d6000fd5b505050506040513d6000823e601f3d908101601f19168201604052610ef291908101906146ff565b90508051600003610f075760009150506109e9565b6101915460405163f2be2c8560e01b8152600481018590526000916001600160a01b03169063f2be2c8590602401600060405180830381865afa158015610f52573d6000803e3d6000fd5b505050506040513d6000823e601f3d908101601f19168201604052610f7a9190810190614439565b610191546020820151604051631c2e21b960e11b81529293506000926001600160a01b039092169163385c437291610fb491600401613d30565b606060405180830381865afa158015610fd1573d6000803e3d6000fd5b505050506040513d601f19601f82011682018060405250810190610ff5919061451b565b80519091506000805b85518110156110c557600086828151811061101b5761101b61479a565b6020026020010151905061102e8161248d565b15801561109f5750604051631174806160e11b8152600481018290526001600160a01b038516906322e900c290602401602060405180830381865afa15801561107b573d6000803e3d6000fd5b505050506040513d601f19601f8201168201806040525081019061109f919061458c565b156110b257826110ae816147c6565b9350505b50806110bd816147c6565b915050610ffe565b50979650505050505050565b600054610100900460ff16158080156110f15750600054600160ff909116105b80611112575061110030612d27565b158015611112575060005460ff166001145b6111755760405162461bcd60e51b815260206004820152602e60248201527f496e697469616c697a61626c653a20636f6e747261637420697320616c72656160448201526d191e481a5b9a5d1a585b1a5e995960921b6064820152608401610acc565b6000805460ff191660011790558015611198576000805461ff0019166101001790555b6111b060405180602001604052806000815250612d36565b6111b8612d66565b6111c0612d8f565b6111c8612d66565b6111d3600084612907565b6111eb600080516020614eac83398151915284612907565b611203600080516020614e6c83398151915284612907565b61122d7f0ce23c3e399818cfee81a7ab0880f714e53d7672b08df0fa62f2843416e1ea0984612907565b61019180546001600160a01b0319166001600160a01b038416179055604080518082019091526008815267546865426164676560c01b6020820152610192906112769082614825565b506040805180820190915260038152621091d160ea1b60208201526101939061129f9082614825565b506040516001600160a01b038416907f36b1453565f45af7b509b59d5e2eac8f1948ea9e3e193db6663b4101afb6382c90600090a28015610b0f576000805461ff0019169055604051600181527f7f26b83ff96e1f2b6a682f133852f6798a09c465da95921460cefb38474024989060200160405180910390a1505050565b606081518351146113835760405162461bcd60e51b815260206004820152602960248201527f455243313135353a206163636f756e747320616e6420696473206c656e677468604482015268040dad2e6dac2e8c6d60bb1b6064820152608401610acc565b600083516001600160401b0381111561139e5761139e613d70565b6040519080825280602002602001820160405280156113c7578160200160208202803683370190505b50905060005b845181101561143f576114128582815181106113eb576113eb61479a565b60200260200101518583815181106114055761140561479a565b60200260200101516107a9565b8282815181106114245761142461479a565b6020908102919091010152611438816147c6565b90506113cd565b509392505050565b6001600160a01b037f000000000000000000000000000000000000000000000000000000000000000016300361148f5760405162461bcd60e51b8152600401610acc90614631565b7f00000000000000000000000000000000000000000000000000000000000000006001600160a01b03166114c16129f6565b6001600160a01b0316146114e75760405162461bcd60e51b8152600401610acc9061467d565b6114f082612a12565b610b8e82826001612a2a565b6000306001600160a01b037f000000000000000000000000000000000000000000000000000000000000000016146115975760405162461bcd60e51b815260206004820152603860248201527f555550535570677261646561626c653a206d757374206e6f742062652063616c6044820152771b1959081d1a1c9bdd59da0819195b1959d85d1958d85b1b60421b6064820152608401610acc565b50600080516020614e8c8339815191525b90565b6101915460405163f2be2c8560e01b81526004810183905260009182916001600160a01b039091169063f2be2c8590602401600060405180830381865afa1580156115fa573d6000803e3d6000fd5b505050506040513d6000823e601f3d908101601f191682016040526116229190810190614439565b80519091506001600160a01b031661164d576040516385a6706360e01b815260040160405180910390fd5b610191546020820151604051631c2e21b960e11b81526000926001600160a01b03169163385c4372916116839190600401613d30565b606060405180830381865afa1580156116a0573d6000803e3d6000fd5b505050506040513d601f19601f820116820180604052508101906116c4919061451b565b8051606084015160405163632f7c8360e01b81526004810188905292935090916001600160a01b0383169063632f7c8390602401602060405180830381865afa158015611715573d6000803e3d6000fd5b505050506040513d601f19601f8201168201806040525081019061173991906148e4565b61174391906148fd565b95945050505050565b60008061175883612b95565b6101915460405163f2be2c8560e01b8152600481018390529192506000916001600160a01b039091169063f2be2c8590602401600060405180830381865afa1580156117a8573d6000803e3d6000fd5b505050506040513d6000823e601f3d908101601f191682016040526117d09190810190614439565b610191546020820151604051631c2e21b960e11b81529293506000926001600160a01b039092169163385c43729161180a91600401613d30565b606060405180830381865afa158015611827573d6000803e3d6000fd5b505050506040513d601f19601f8201168201806040525081019061184b919061451b565b8051604051633f5bf8bb60e11b815260048101889052919250906001600160a01b03821690637eb7f176906024015b602060405180830381865afa158015611897573d6000803e3d6000fd5b505050506040513d601f19601f820116820180604052508101906118bb91906148e4565b9695505050505050565b600080516020614eac8339815191526118dd816128fd565b610c57612dbe565b600091825261015f602090815260408084206001600160a01b0393909316845291905290205460ff1690565b600061191c84612b95565b6101915460405163f2be2c8560e01b8152600481018390529192506000916001600160a01b039091169063f2be2c8590602401600060405180830381865afa15801561196c573d6000803e3d6000fd5b505050506040513d6000823e601f3d908101601f191682016040526119949190810190614439565b610191546020820151604051631c2e21b960e11b81529293506000926001600160a01b039092169163385c4372916119ce91600401613d30565b606060405180830381865afa1580156119eb573d6000803e3d6000fd5b505050506040513d601f19601f82011682018060405250810190611a0f919061451b565b80516040516393c7a71b60e01b8152919250906001600160a01b038216906393c7a71b90610e19908a908a908a906004016146c9565b6101938054610a08906145a9565b6000611a5e84612b95565b6101915460405163f2be2c8560e01b8152600481018390529192506000916001600160a01b039091169063f2be2c8590602401600060405180830381865afa158015611aae573d6000803e3d6000fd5b505050506040513d6000823e601f3d908101601f19168201604052611ad69190810190614439565b610191546020820151604051631c2e21b960e11b81529293506000926001600160a01b039092169163385c437291611b1091600401613d30565b606060405180830381865afa158015611b2d573d6000803e3d6000fd5b505050506040513d601f19601f82011682018060405250810190611b51919061451b565b80516040516313f5ee2b60e31b8152919250906001600160a01b03821690639faf7158903490611b89908b908b908b906004016146c9565b6000604051808303818588803b158015611ba257600080fd5b505af1158015611bb6573d6000803e3d6000fd5b505050505050505050505050565b6000611bcf84612b95565b6101915460405163f2be2c8560e01b8152600481018390529192506000916001600160a01b039091169063f2be2c8590602401600060405180830381865afa158015611c1f573d6000803e3d6000fd5b505050506040513d6000823e601f3d908101601f19168201604052611c479190810190614439565b610191546020820151604051631c2e21b960e11b81529293506000926001600160a01b039092169163385c437291611c8191600401613d30565b606060405180830381865afa158015611c9e573d6000803e3d6000fd5b505050506040513d601f19601f82011682018060405250810190611cc2919061451b565b805160405163a03aafbf60e01b8152919250906001600160a01b0382169063a03aafbf903490611b89908b908b908b906004016146c9565b610b8e338383612dfb565b6101915460405163f2be2c8560e01b81526004810186905285916000916001600160a01b039091169063f2be2c8590602401600060405180830381865afa158015611d54573d6000803e3d6000fd5b505050506040513d6000823e601f3d908101601f19168201604052611d7c9190810190614439565b610191546020820151604051631c2e21b960e11b81529293506000926001600160a01b039092169163385c437291611db691600401613d30565b606060405180830381865afa158015611dd3573d6000803e3d6000fd5b505050506040513d601f19601f82011682018060405250810190611df7919061451b565b80518351919250906001600160a01b0316611e25576040516385a6706360e01b815260040160405180910390fd5b826040015115611e4857604051635d71fd6f60e01b815260040160405180910390fd5b816020015115611e6b57604051631bd063c360e01b815260040160405180910390fd5b610191548351604051636f77926b60e01b81526000926001600160a01b031691636f77926b91611e9e9190600401613d5c565b600060405180830381865afa158015611ebb573d6000803e3d6000fd5b505050506040513d6000823e601f3d908101601f19168201604052611ee39190810190614910565b60608101519091501515600103611f0d5760405163a800bb9d60e01b815260040160405180910390fd5b88888789611f1a846115ab565b341015611f3a576040516393fda7e360e01b815260040160405180910390fd5b6101915460405163f2be2c8560e01b8152600481018690526000916001600160a01b03169063f2be2c8590602401600060405180830381865afa158015611f85573d6000803e3d6000fd5b505050506040513d6000823e601f3d908101601f19168201604052611fad9190810190614439565b606081015190915015611fc357611fc385612e14565b610191546020820151604051631c2e21b960e11b81526000926001600160a01b03169163385c437291611ff99190600401613d30565b606060405180830381865afa158015612016573d6000803e3d6000fd5b505050506040513d601f19601f8201168201806040525081019061203a919061451b565b805161019154604080516308e5bf2160e01b8152905193945091926000926001600160a01b03909216916308e5bf219160048083019260209291908290030181865afa15801561208e573d6000803e3d6000fd5b505050506040513d601f19601f820116820180604052508101906120b291906148e4565b90506120be81866130bb565b6120e58782600160405180604001604052806002815260200161060f60f31b815250613118565b6000826001600160a01b031663731133e986606001513461210691906149d9565b338c868c6040518663ffffffff1660e01b815260040161212994939291906149ec565b60206040518083038185885af1158015612147573d6000803e3d6000fd5b50505050506040513d601f19601f8201168201806040525081019061216c91906148e4565b90506000856080015160001461219057608086015161218b90426148fd565b612193565b60005b604080516080810182528c81526001600160a01b038c811660208301908152828401858152600160608501908152610191549551634085b52760e01b8152600481018b9052855160248201529251841660448401529051606483015251151560848201529394509092911690634085b5279060a401600060405180830381600087803b15801561222257600080fd5b505af1158015612236573d6000803e3d6000fd5b50508751604080516001600160a01b03928316815260208101889052918e1693508792508e917f186b125f639893ac3dcb02d857d0fd29319e8f764fd26f4a77310e8c678fbbd0910160405180910390a45050505050505050505050505050505050505050565b60006122a8816128fd565b610191546040516362d1e3e560e11b8152600481018490526001600160a01b039091169063c5a3c7ca906024015b600060405180830381600087803b1580156122f057600080fd5b505af1158015612304573d6000803e3d6000fd5b50506040517f810f1720fbc34c56d171f89315ad21708648fd17424c27b88fa208409845aa77925060009150a15050565b600082815261015f6020526040902060010154612351816128fd565b610b0f838361298e565b60008061236783612b95565b6101915460405163f2be2c8560e01b8152600481018390529192506000916001600160a01b039091169063f2be2c8590602401600060405180830381865afa1580156123b7573d6000803e3d6000fd5b505050506040513d6000823e601f3d908101601f191682016040526123df9190810190614439565b610191546020820151604051631c2e21b960e11b81529293506000926001600160a01b039092169163385c43729161241991600401613d30565b606060405180830381865afa158015612436573d6000803e3d6000fd5b505050506040513d601f19601f8201168201806040525081019061245a919061451b565b805160405163d7deba1560e01b815260048101889052919250906001600160a01b0382169063d7deba159060240161187a565b610191546040516346c1c31160e11b81526004810183905260009182916001600160a01b0390911690638d83862290602401608060405180830381865afa1580156124dc573d6000803e3d6000fd5b505050506040513d601f19601f820116820180604052508101906125009190614378565b6060810151909150151560000361251a5750600092915050565b806040015160000361252f5750600092915050565b4281604001511115612542576000612545565b60015b9392505050565b6000612557816128fd565b6101915460405163e181865160e01b8152600481018490526001600160a01b039091169063e1818651906024016122d6565b6000612594816128fd565b610191546040516378ff38bf60e11b8152600481018490526001600160a01b039091169063f1fe717e906024016122d6565b6001600160a01b0385163314806125e257506125e28533610719565b6125fe5760405162461bcd60e51b8152600401610acc906145e3565b610ae2858585858561323d565b60006001600160e01b03198216637965db0b60e01b14806109e957506109e982613379565b60008181526098602052604081208054606092919061264e906145a9565b80601f016020809104026020016040519081016040528092919081815260200182805461267a906145a9565b80156126c75780601f1061269c576101008083540402835291602001916126c7565b820191906000526020600020905b8154815290600101906020018083116126aa57829003601f168201915b5050505050905060008151116126e5576126e0836133c9565b612545565b6097816040516020016126f9929190614a19565b6040516020818303038152906040529392505050565b81518351146127715760405162461bcd60e51b815260206004820152602860248201527f455243313135353a2069647320616e6420616d6f756e7473206c656e677468206044820152670dad2e6dac2e8c6d60c31b6064820152608401610acc565b6001600160a01b0384166127975760405162461bcd60e51b8152600401610acc90614aa0565b336127a681878787878761345d565b60005b845181101561288f5760008582815181106127c6576127c661479a565b6020026020010151905060008583815181106127e4576127e461479a565b60209081029190910181015160008481526065835260408082206001600160a01b038e1683529093529190912054909150818110156128355760405162461bcd60e51b8152600401610acc90614ae5565b60008381526065602090815260408083206001600160a01b038e8116855292528083208585039055908b168252812080548492906128749084906148fd565b9250508190555050505080612888906147c6565b90506127a9565b50846001600160a01b0316866001600160a01b0316826001600160a01b03167f4a39dc06d4c0dbc64b70af90fd698a233a518aa5d07e595d983b8c0526c8f7fb87876040516128df929190614b2f565b60405180910390a46128f5818787878787613492565b505050505050565b610c5781336135f4565b61291182826118e5565b610b8e57600082815261015f602090815260408083206001600160a01b03851684529091529020805460ff1916600117905561294a3390565b6001600160a01b0316816001600160a01b0316837f2f8788117e7eff1d82e926ec794901d17c78024a50270940304540a733656f0d60405160405180910390a45050565b61299882826118e5565b15610b8e57600082815261015f602090815260408083206001600160a01b0385168085529252808320805460ff1916905551339285917ff6391f5c32d9c69d2a47ea670b442974b53935d1edc7fd64eb21e047a839171b9190a45050565b600080516020614e8c833981519152546001600160a01b031690565b600080516020614e6c833981519152610b8e816128fd565b7f4910fdfa16fed3260ed0e7147f7cc6da11a60208b5b9406d12a635614ffd91435460ff1615612a5d57610b0f8361364d565b826001600160a01b03166352d1902d6040518163ffffffff1660e01b8152600401602060405180830381865afa925050508015612ab7575060408051601f3d908101601f19168201909252612ab4918101906148e4565b60015b612b1a5760405162461bcd60e51b815260206004820152602e60248201527f45524331393637557067726164653a206e657720696d706c656d656e7461746960448201526d6f6e206973206e6f74205555505360901b6064820152608401610acc565b600080516020614e8c8339815191528114612b895760405162461bcd60e51b815260206004820152602960248201527f45524331393637557067726164653a20756e737570706f727465642070726f786044820152681a58589b195555525160ba1b6064820152608401610acc565b50610b0f8383836136e7565b610191546040516346c1c31160e11b81526004810183905260009182916001600160a01b0390911690638d83862290602401608060405180830381865afa158015612be4573d6000803e3d6000fd5b505050506040513d601f19601f82011682018060405250810190612c089190614378565b60608101519091501515600003612c325760405163f97195bf60e01b815260040160405180910390fd5b61019154815160405163f2be2c8560e01b815260048101919091526000916001600160a01b03169063f2be2c8590602401600060405180830381865afa158015612c80573d6000803e3d6000fd5b505050506040513d6000823e601f3d908101601f19168201604052612ca89190810190614439565b80519091506001600160a01b0316612cd3576040516385a6706360e01b815260040160405180910390fd5b505192915050565b612ce3613712565b60c9805460ff191690557f5db9ee0a495bf2e6ff9c91a7834c1ba4fdd244a5e8aa4e537bd38aeae4b073aa335b604051612d1d9190613d5c565b60405180910390a1565b6001600160a01b03163b151590565b600054610100900460ff16612d5d5760405162461bcd60e51b8152600401610acc90614b54565b610c578161375b565b600054610100900460ff16612d8d5760405162461bcd60e51b8152600401610acc90614b54565b565b600054610100900460ff16612db65760405162461bcd60e51b8152600401610acc90614b54565b612d8d61378b565b612dc66137be565b60c9805460ff191660011790557f62e78cea01bee320cd4e420270b5ea74000d11b0c9f74754ebdbfc544b05a258612d103390565b6040516305d39ac360e51b815260040160405180910390fd5b6101915460405163f2be2c8560e01b8152600481018390526000916001600160a01b03169063f2be2c8590602401600060405180830381865afa158015612e5f573d6000803e3d6000fd5b505050506040513d6000823e601f3d908101601f19168201604052612e879190810190614439565b9050600061019160009054906101000a90046001600160a01b03166001600160a01b031663c415b95c6040518163ffffffff1660e01b8152600401602060405180830381865afa158015612edf573d6000803e3d6000fd5b505050506040513d601f19601f82011682018060405250810190612f039190614b9f565b90506000612f1983606001518460a00151613804565b90506000818460600151612f2d91906149d9565b90506000836001600160a01b03168360405160006040518083038185875af1925050503d8060008114612f7c576040519150601f19603f3d011682016040523d82523d6000602084013e612f81565b606091505b5090915050801515600003612fa9576040516372f7724f60e01b815260040160405180910390fd5b8560006001600160a01b0386167fdf7cc5ebdb7be805a1d96fd982aba37cbf8e9169d6f34870e8d63a62cd492f643387604051612fe7929190614bbc565b60405180910390a484516040516000916001600160a01b03169084908381818185875af1925050503d806000811461303b576040519150601f19603f3d011682016040523d82523d6000602084013e613040565b606091505b509091505080151560000361306857604051633b50281160e11b815260040160405180910390fd5b86600187600001516001600160a01b03167fdf7cc5ebdb7be805a1d96fd982aba37cbf8e9169d6f34870e8d63a62cd492f6488876040516130aa929190614bbc565b60405180910390a450505050505050565b60008281526098602052604090206130d38282614825565b50817f6bb7ff708619ba0610cba295a58592e0451dee2622938c8755667688daf3529b6130ff84610a89565b60405161310c9190613d30565b60405180910390a25050565b6001600160a01b0384166131785760405162461bcd60e51b815260206004820152602160248201527f455243313135353a206d696e7420746f20746865207a65726f206164647265736044820152607360f81b6064820152608401610acc565b33600061318485613849565b9050600061319185613849565b90506131a28360008985858961345d565b60008681526065602090815260408083206001600160a01b038b168452909152812080548792906131d49084906148fd565b909155505060408051878152602081018790526001600160a01b03808a1692600092918716917fc3d58168c5ae7397731d063d5bbf3d657854427343f4c083240f7aacaa2d0f62910160405180910390a461323483600089898989613894565b50505050505050565b6001600160a01b0384166132635760405162461bcd60e51b8152600401610acc90614aa0565b33600061326f85613849565b9050600061327c85613849565b905061328c83898985858961345d565b60008681526065602090815260408083206001600160a01b038c168452909152902054858110156132cf5760405162461bcd60e51b8152600401610acc90614ae5565b60008781526065602090815260408083206001600160a01b038d8116855292528083208985039055908a1682528120805488929061330e9084906148fd565b909155505060408051888152602081018890526001600160a01b03808b16928c821692918816917fc3d58168c5ae7397731d063d5bbf3d657854427343f4c083240f7aacaa2d0f62910160405180910390a461336e848a8a8a8a8a613894565b505050505050505050565b60006001600160e01b03198216636cdb3d1360e11b14806133aa57506001600160e01b031982166303a24d0760e21b145b806109e957506301ffc9a760e01b6001600160e01b03198316146109e9565b6060606780546133d8906145a9565b80601f0160208091040260200160405190810160405280929190818152602001828054613404906145a9565b80156134515780601f1061342657610100808354040283529160200191613451565b820191906000526020600020905b81548152906001019060200180831161343457829003601f168201915b50505050509050919050565b6134656137be565b6001600160a01b0385161561348d576040516305d39ac360e51b815260040160405180910390fd5b6128f5565b6134a4846001600160a01b0316612d27565b156128f55760405163bc197c8160e01b81526001600160a01b0385169063bc197c81906134dd9089908990889088908890600401614bef565b6020604051808303816000875af1925050508015613518575060408051601f3d908101601f1916820190925261351591810190614c4d565b60015b6135c457613524614c6a565b806308c379a00361355d5750613538614c85565b80613543575061355f565b8060405162461bcd60e51b8152600401610acc9190613d30565b505b60405162461bcd60e51b815260206004820152603460248201527f455243313135353a207472616e7366657220746f206e6f6e2d455243313135356044820152732932b1b2b4bb32b91034b6b83632b6b2b73a32b960611b6064820152608401610acc565b6001600160e01b0319811663bc197c8160e01b146132345760405162461bcd60e51b8152600401610acc90614d0e565b6135fe82826118e5565b610b8e5761360b81613956565b613616836020613968565b604051602001613627929190614d56565b60408051601f198184030181529082905262461bcd60e51b8252610acc91600401613d30565b61365681612d27565b6136b85760405162461bcd60e51b815260206004820152602d60248201527f455243313936373a206e657720696d706c656d656e746174696f6e206973206e60448201526c1bdd08184818dbdb9d1c9858dd609a1b6064820152608401610acc565b600080516020614e8c83398151915280546001600160a01b0319166001600160a01b0392909216919091179055565b6136f083613b03565b6000825111806136fd5750805b15610b0f5761370c8383613b43565b50505050565b60c95460ff16612d8d5760405162461bcd60e51b815260206004820152601460248201527314185d5cd8589b194e881b9bdd081c185d5cd95960621b6044820152606401610acc565b600054610100900460ff166137825760405162461bcd60e51b8152600401610acc90614b54565b610c5781613b68565b600054610100900460ff166137b25760405162461bcd60e51b8152600401610acc90614b54565b60c9805460ff19169055565b60c95460ff1615612d8d5760405162461bcd60e51b815260206004820152601060248201526f14185d5cd8589b194e881c185d5cd95960821b6044820152606401610acc565b60006127106138138385614dc5565b101561383257604051633032107560e21b815260040160405180910390fd5b61271061383f8385614dc5565b6125459190614ddc565b604080516001808252818301909252606091600091906020808301908036833701905050905082816000815181106138835761388361479a565b602090810291909101015292915050565b6138a6846001600160a01b0316612d27565b156128f55760405163f23a6e6160e01b81526001600160a01b0385169063f23a6e61906138df9089908990889088908890600401614dfe565b6020604051808303816000875af192505050801561391a575060408051601f3d908101601f1916820190925261391791810190614c4d565b60015b61392657613524614c6a565b6001600160e01b0319811663f23a6e6160e01b146132345760405162461bcd60e51b8152600401610acc90614d0e565b60606109e96001600160a01b03831660145b60606000613977836002614dc5565b6139829060026148fd565b6001600160401b0381111561399957613999613d70565b6040519080825280601f01601f1916602001820160405280156139c3576020820181803683370190505b509050600360fc1b816000815181106139de576139de61479a565b60200101906001600160f81b031916908160001a905350600f60fb1b81600181518110613a0d57613a0d61479a565b60200101906001600160f81b031916908160001a9053506000613a31846002614dc5565b613a3c9060016148fd565b90505b6001811115613ab4576f181899199a1a9b1b9c1cb0b131b232b360811b85600f1660108110613a7057613a7061479a565b1a60f81b828281518110613a8657613a8661479a565b60200101906001600160f81b031916908160001a90535060049490941c93613aad81614e38565b9050613a3f565b5083156125455760405162461bcd60e51b815260206004820181905260248201527f537472696e67733a20686578206c656e67746820696e73756666696369656e746044820152606401610acc565b613b0c8161364d565b6040516001600160a01b038216907fbc7cd75a20ee27fd9adebab32041f755214dbc6bffa90cc0225b39da2e5c2d3b90600090a250565b60606125458383604051806060016040528060278152602001614ecc60279139613b74565b6067610b8e8282614825565b6060600080856001600160a01b031685604051613b919190614e4f565b600060405180830381855af49150503d8060008114613bcc576040519150601f19603f3d011682016040523d82523d6000602084013e613bd1565b606091505b50915091506118bb8683838760608315613c4a578251600003613c4357613bf785612d27565b613c435760405162461bcd60e51b815260206004820152601d60248201527f416464726573733a2063616c6c20746f206e6f6e2d636f6e74726163740000006044820152606401610acc565b5081613c54565b613c548383613c5c565b949350505050565b8151156135435781518083602001fd5b6001600160a01b0381168114610c5757600080fd5b60008060408385031215613c9457600080fd5b8235613c9f81613c6c565b946020939093013593505050565b6001600160e01b031981168114610c5757600080fd5b600060208284031215613cd557600080fd5b813561254581613cad565b60005b83811015613cfb578181015183820152602001613ce3565b50506000910152565b60008151808452613d1c816020860160208601613ce0565b601f01601f19169290920160200192915050565b6020815260006125456020830184613d04565b600060208284031215613d5557600080fd5b5035919050565b6001600160a01b0391909116815260200190565b634e487b7160e01b600052604160045260246000fd5b60a081018181106001600160401b0382111715613da557613da5613d70565b60405250565b601f8201601f191681016001600160401b0381118282101715613dd057613dd0613d70565b6040525050565b60405161010081016001600160401b0381118282101715613dfa57613dfa613d70565b60405290565b60006001600160401b03821115613e1957613e19613d70565b5060051b60200190565b600082601f830112613e3457600080fd5b81356020613e4182613e00565b604051613e4e8282613dab565b83815260059390931b8501820192828101915086841115613e6e57600080fd5b8286015b84811015613e895780358352918301918301613e72565b509695505050505050565b60006001600160401b03821115613ead57613ead613d70565b50601f01601f191660200190565b6000613ec683613e94565b604051613ed38282613dab565b809250848152858585011115613ee857600080fd5b8484602083013760006020868301015250509392505050565b600082601f830112613f1257600080fd5b61254583833560208501613ebb565b600080600080600060a08688031215613f3957600080fd5b8535613f4481613c6c565b94506020860135613f5481613c6c565b935060408601356001600160401b0380821115613f7057600080fd5b613f7c89838a01613e23565b94506060880135915080821115613f9257600080fd5b613f9e89838a01613e23565b93506080880135915080821115613fb457600080fd5b50613fc188828901613f01565b9150509295509295909350565b60008060408385031215613fe157600080fd5b823591506020830135613ff381613c6c565b809150509250929050565b60006020828403121561401057600080fd5b813561254581613c6c565b60008060006040848603121561403057600080fd5b8335925060208401356001600160401b038082111561404e57600080fd5b818601915086601f83011261406257600080fd5b81358181111561407157600080fd5b87602082850101111561408357600080fd5b6020830194508093505050509250925092565b600080604083850312156140a957600080fd5b82356140b481613c6c565b91506020830135613ff381613c6c565b600080604083850312156140d757600080fd5b82356001600160401b03808211156140ee57600080fd5b818501915085601f83011261410257600080fd5b8135602061410f82613e00565b60405161411c8282613dab565b83815260059390931b850182019282810191508984111561413c57600080fd5b948201945b8386101561416357853561415481613c6c565b82529482019490820190614141565b9650508601359250508082111561417957600080fd5b5061418685828601613e23565b9150509250929050565b600081518084526020808501945080840160005b838110156141c0578151875295820195908201906001016141a4565b509495945050505050565b6020815260006125456020830184614190565b600080604083850312156141f157600080fd5b82356141fc81613c6c565b915060208301356001600160401b0381111561421757600080fd5b61418685828601613f01565b8015158114610c5757600080fd5b6000806040838503121561424457600080fd5b823561424f81613c6c565b91506020830135613ff381614223565b6000806000806080858703121561427557600080fd5b84359350602085013561428781613c6c565b925060408501356001600160401b03808211156142a357600080fd5b818701915087601f8301126142b757600080fd5b6142c688833560208501613ebb565b935060608701359150808211156142dc57600080fd5b506142e987828801613f01565b91505092959194509250565b600080600080600060a0868803121561430d57600080fd5b853561431881613c6c565b9450602086013561432881613c6c565b9350604086013592506060860135915060808601356001600160401b0381111561435157600080fd5b613fc188828901613f01565b805161436881613c6c565b919050565b805161436881614223565b60006080828403121561438a57600080fd5b604051608081018181106001600160401b03821117156143ac576143ac613d70565b6040528251815260208301516143c181613c6c565b60208201526040838101519082015260608301516143de81614223565b60608201529392505050565b600082601f8301126143fb57600080fd5b815161440681613e94565b6040516144138282613dab565b82815285602084870101111561442857600080fd5b611743836020830160208801613ce0565b60006020828403121561444b57600080fd5b81516001600160401b038082111561446257600080fd5b90830190610100828603121561447757600080fd5b61447f613dd7565b6144888361435d565b815260208301518281111561449c57600080fd5b6144a8878286016143ea565b6020830152506144ba6040840161436d565b6040820152606083015160608201526080830151608082015260a083015160a08201526144e960c0840161436d565b60c082015260e08301518281111561450057600080fd5b61450c878286016143ea565b60e08301525095945050505050565b60006060828403121561452d57600080fd5b604051606081018181106001600160401b038211171561454f5761454f613d70565b604052825161455d81613c6c565b8152602083015161456d81614223565b6020820152604083015161458081614223565b60408201529392505050565b60006020828403121561459e57600080fd5b815161254581614223565b600181811c908216806145bd57607f821691505b6020821081036145dd57634e487b7160e01b600052602260045260246000fd5b50919050565b6020808252602e908201527f455243313135353a2063616c6c6572206973206e6f7420746f6b656e206f776e60408201526d195c881bdc88185c1c1c9bdd995960921b606082015260800190565b6020808252602c908201527f46756e6374696f6e206d7573742062652063616c6c6564207468726f7567682060408201526b19195b1959d85d1958d85b1b60a21b606082015260800190565b6020808252602c908201527f46756e6374696f6e206d7573742062652063616c6c6564207468726f7567682060408201526b6163746976652070726f787960a01b606082015260800190565b83815260406020820152816040820152818360608301376000818301606090810191909152601f909201601f1916010192915050565b6000602080838503121561471257600080fd5b82516001600160401b0381111561472857600080fd5b8301601f8101851361473957600080fd5b805161474481613e00565b6040516147518282613dab565b82815260059290921b830184019184810191508783111561477157600080fd5b928401925b8284101561478f57835182529284019290840190614776565b979650505050505050565b634e487b7160e01b600052603260045260246000fd5b634e487b7160e01b600052601160045260246000fd5b6000600182016147d8576147d86147b0565b5060010190565b601f821115610b0f57600081815260208120601f850160051c810160208610156148065750805b601f850160051c820191505b818110156128f557828155600101614812565b81516001600160401b0381111561483e5761483e613d70565b6148528161484c84546145a9565b846147df565b602080601f831160018114614887576000841561486f5750858301515b600019600386901b1c1916600185901b1785556128f5565b600085815260208120601f198616915b828110156148b657888601518255948401946001909101908401614897565b50858210156148d45787850151600019600388901b60f8161c191681555b5050505050600190811b01905550565b6000602082840312156148f657600080fd5b5051919050565b808201808211156109e9576109e96147b0565b60006020828403121561492257600080fd5b81516001600160401b038082111561493957600080fd5b9083019060a0828603121561494d57600080fd5b60405161495981613d86565b82518281111561496857600080fd5b614974878286016143ea565b8252506020830151915061498782614223565b8160208201526040830151915061499d82614223565b816040820152606083015191506149b382614223565b816060820152608083015192506149c983614223565b6080810192909252509392505050565b818103818111156109e9576109e96147b0565b60018060a01b03851681528360208201528260408201526080606082015260006118bb6080830184613d04565b6000808454614a27816145a9565b60018281168015614a3f5760018114614a5457614a83565b60ff1984168752821515830287019450614a83565b8860005260208060002060005b85811015614a7a5781548a820152908401908201614a61565b50505082870194505b505050508351614a97818360208801613ce0565b01949350505050565b60208082526025908201527f455243313135353a207472616e7366657220746f20746865207a65726f206164604082015264647265737360d81b606082015260800190565b6020808252602a908201527f455243313135353a20696e73756666696369656e742062616c616e636520666f60408201526939103a3930b739b332b960b11b606082015260800190565b604081526000614b426040830185614190565b82810360208401526117438185614190565b6020808252602b908201527f496e697469616c697a61626c653a20636f6e7472616374206973206e6f74206960408201526a6e697469616c697a696e6760a81b606082015260800190565b600060208284031215614bb157600080fd5b815161254581613c6c565b6001600160a01b03929092168252602082015260606040820181905260029082015261060f60f31b608082015260a00190565b6001600160a01b0386811682528516602082015260a060408201819052600090614c1b90830186614190565b8281036060840152614c2d8186614190565b90508281036080840152614c418185613d04565b98975050505050505050565b600060208284031215614c5f57600080fd5b815161254581613cad565b600060033d11156115a85760046000803e5060005160e01c90565b600060443d1015614c935790565b6040516003193d81016004833e81513d6001600160401b038160248401118184111715614cc257505050505090565b8285019150815181811115614cda5750505050505090565b843d8701016020828501011115614cf45750505050505090565b614d0360208286010187613dab565b509095945050505050565b60208082526028908201527f455243313135353a204552433131353552656365697665722072656a656374656040820152676420746f6b656e7360c01b606082015260800190565b76020b1b1b2b9b9a1b7b73a3937b61d1030b1b1b7bab73a1604d1b815260008351614d88816017850160208801613ce0565b7001034b99036b4b9b9b4b733903937b6329607d1b6017918401918201528351614db9816028840160208801613ce0565b01602801949350505050565b80820281158282048414176109e9576109e96147b0565b600082614df957634e487b7160e01b600052601260045260246000fd5b500490565b6001600160a01b03868116825285166020820152604081018490526060810183905260a06080820181905260009061478f90830184613d04565b600081614e4757614e476147b0565b506000190190565b60008251614e61818460208701613ce0565b919091019291505056fe189ab7a9244df0848122154315af71fe140f3db0fe014031783b0946b8c9d2e3360894a13ba1a3210667c828492db98dca3e2076cc3735a920a3ca505d382bbc65d7a28e3265b37a6474929f336521b332c1681b933f6cb9f3376673440d862a416464726573733a206c6f772d6c6576656c2064656c65676174652063616c6c206661696c6564a2646970667358221220e156c7d44e3b4c21bec1bde2eadaaa2b0d18ef6a0186052263588344524d7f3f64736f6c63430008110033",
  "linkReferences": {},
  "deployedLinkReferences": {}
}