{
  "_format": "hh-sol-artifact-1",
  "contractName": "TheBadgeModels",
  "sourceName": "src/contracts/thebadge/TheBadgeModels.sol",
  "abi": [
    {
      "inputs": [],
      "stateMutability": "nonpayable",
      "type": "constructor"
    },
    {
      "inputs": [],
      "name": "TheBadge__addBadgeModelController_alreadySet",
      "type": "error"
    },
    {
      "inputs": [],
      "name": "TheBadge__addBadgeModelController_emptyName",
      "type": "error"
    },
    {
      "inputs": [],
      "name": "TheBadge__badgeModel_badgeModelNotFound",
      "type": "error"
    },
    {
      "inputs": [],
      "name": "TheBadge__controller_controllerIsPaused",
      "type": "error"
    },
    {
      "inputs": [],
      "name": "TheBadge__controller_invalidController",
      "type": "error"
    },
    {
      "inputs": [],
      "name": "TheBadge__createBadgeModel_wrongValue",
      "type": "error"
    },
    {
      "inputs": [],
      "name": "TheBadge__method_not_supported",
      "type": "error"
    },
    {
      "inputs": [],
      "name": "TheBadge__onlyCreator_creatorIsSuspended",
      "type": "error"
    },
    {
      "inputs": [],
      "name": "TheBadge__onlyCreator_senderIsNotACreator",
      "type": "error"
    },
    {
      "inputs": [],
      "name": "TheBadge__onlyUser_userNotFound",
      "type": "error"
    },
    {
      "inputs": [],
      "name": "TheBadge__updateBadgeModel_badgeModelNotFound",
      "type": "error"
    },
    {
      "inputs": [],
      "name": "TheBadge__updateBadgeModel_notBadgeModelOwner",
      "type": "error"
    },
    {
      "anonymous": false,
      "inputs": [
        {
          "indexed": false,
          "internalType": "uint8",
          "name": "version",
          "type": "uint8"
        }
      ],
      "name": "Initialized",
      "type": "event"
    },
    {
      "anonymous": false,
      "inputs": [
        {
          "indexed": true,
          "internalType": "address",
          "name": "previousOwner",
          "type": "address"
        },
        {
          "indexed": true,
          "internalType": "address",
          "name": "newOwner",
          "type": "address"
        }
      ],
      "name": "OwnershipTransferred",
      "type": "event"
    },
    {
      "anonymous": false,
      "inputs": [
        {
          "indexed": true,
          "internalType": "bytes32",
          "name": "role",
          "type": "bytes32"
        },
        {
          "indexed": true,
          "internalType": "bytes32",
          "name": "previousAdminRole",
          "type": "bytes32"
        },
        {
          "indexed": true,
          "internalType": "bytes32",
          "name": "newAdminRole",
          "type": "bytes32"
        }
      ],
      "name": "RoleAdminChanged",
      "type": "event"
    },
    {
      "anonymous": false,
      "inputs": [
        {
          "indexed": true,
          "internalType": "bytes32",
          "name": "role",
          "type": "bytes32"
        },
        {
          "indexed": true,
          "internalType": "address",
          "name": "account",
          "type": "address"
        },
        {
          "indexed": true,
          "internalType": "address",
          "name": "sender",
          "type": "address"
        }
      ],
      "name": "RoleGranted",
      "type": "event"
    },
    {
      "anonymous": false,
      "inputs": [
        {
          "indexed": true,
          "internalType": "bytes32",
          "name": "role",
          "type": "bytes32"
        },
        {
          "indexed": true,
          "internalType": "address",
          "name": "account",
          "type": "address"
        },
        {
          "indexed": true,
          "internalType": "address",
          "name": "sender",
          "type": "address"
        }
      ],
      "name": "RoleRevoked",
      "type": "event"
    },
    {
      "inputs": [],
      "name": "DEFAULT_ADMIN_ROLE",
      "outputs": [
        {
          "internalType": "bytes32",
          "name": "",
          "type": "bytes32"
        }
      ],
      "stateMutability": "view",
      "type": "function"
    },
    {
      "inputs": [],
      "name": "PAUSER_ROLE",
      "outputs": [
        {
          "internalType": "bytes32",
          "name": "",
          "type": "bytes32"
        }
      ],
      "stateMutability": "view",
      "type": "function"
    },
    {
      "inputs": [],
      "name": "UPGRADER_ROLE",
      "outputs": [
        {
          "internalType": "bytes32",
          "name": "",
          "type": "bytes32"
        }
      ],
      "stateMutability": "view",
      "type": "function"
    },
    {
      "inputs": [],
      "name": "URI_SETTER_ROLE",
      "outputs": [
        {
          "internalType": "bytes32",
          "name": "",
          "type": "bytes32"
        }
      ],
      "stateMutability": "view",
      "type": "function"
    },
    {
      "inputs": [],
      "name": "VERIFIER_ROLE",
      "outputs": [
        {
          "internalType": "bytes32",
          "name": "",
          "type": "bytes32"
        }
      ],
      "stateMutability": "view",
      "type": "function"
    },
    {
      "inputs": [
        {
          "internalType": "string",
          "name": "controllerName",
          "type": "string"
        },
        {
          "internalType": "address",
          "name": "controllerAddress",
          "type": "address"
        }
      ],
      "name": "addBadgeModelController",
      "outputs": [],
      "stateMutability": "nonpayable",
      "type": "function"
    },
    {
      "inputs": [
        {
          "components": [
            {
              "internalType": "string",
              "name": "metadata",
              "type": "string"
            },
            {
              "internalType": "string",
              "name": "controllerName",
              "type": "string"
            },
            {
              "internalType": "uint256",
              "name": "mintCreatorFee",
              "type": "uint256"
            },
            {
              "internalType": "uint256",
              "name": "validFor",
              "type": "uint256"
            }
          ],
          "internalType": "struct TheBadgeStore.CreateBadgeModel",
          "name": "args",
          "type": "tuple"
        },
        {
          "internalType": "bytes",
          "name": "data",
          "type": "bytes"
        }
      ],
      "name": "createBadgeModel",
      "outputs": [],
      "stateMutability": "payable",
      "type": "function"
    },
    {
      "inputs": [
        {
          "internalType": "bytes32",
          "name": "role",
          "type": "bytes32"
        }
      ],
      "name": "getRoleAdmin",
      "outputs": [
        {
          "internalType": "bytes32",
          "name": "",
          "type": "bytes32"
        }
      ],
      "stateMutability": "view",
      "type": "function"
    },
    {
      "inputs": [
        {
          "internalType": "bytes32",
          "name": "role",
          "type": "bytes32"
        },
        {
          "internalType": "address",
          "name": "account",
          "type": "address"
        }
      ],
      "name": "grantRole",
      "outputs": [],
      "stateMutability": "nonpayable",
      "type": "function"
    },
    {
      "inputs": [
        {
          "internalType": "bytes32",
          "name": "role",
          "type": "bytes32"
        },
        {
          "internalType": "address",
          "name": "account",
          "type": "address"
        }
      ],
      "name": "hasRole",
      "outputs": [
        {
          "internalType": "bool",
          "name": "",
          "type": "bool"
        }
      ],
      "stateMutability": "view",
      "type": "function"
    },
    {
      "inputs": [
        {
          "internalType": "address",
          "name": "admin",
          "type": "address"
        },
        {
          "internalType": "address",
          "name": "badgeStore",
          "type": "address"
        }
      ],
      "name": "initialize",
      "outputs": [],
      "stateMutability": "nonpayable",
      "type": "function"
    },
    {
      "inputs": [
        {
          "internalType": "uint256",
          "name": "badgeModelId",
          "type": "uint256"
        }
      ],
      "name": "isBadgeModelSuspended",
      "outputs": [
        {
          "internalType": "bool",
          "name": "",
          "type": "bool"
        }
      ],
      "stateMutability": "view",
      "type": "function"
    },
    {
      "inputs": [],
      "name": "owner",
      "outputs": [
        {
          "internalType": "address",
          "name": "",
          "type": "address"
        }
      ],
      "stateMutability": "view",
      "type": "function"
    },
    {
      "inputs": [],
      "name": "renounceOwnership",
      "outputs": [],
      "stateMutability": "nonpayable",
      "type": "function"
    },
    {
      "inputs": [
        {
          "internalType": "bytes32",
          "name": "role",
          "type": "bytes32"
        },
        {
          "internalType": "address",
          "name": "account",
          "type": "address"
        }
      ],
      "name": "renounceRole",
      "outputs": [],
      "stateMutability": "nonpayable",
      "type": "function"
    },
    {
      "inputs": [
        {
          "internalType": "bytes32",
          "name": "role",
          "type": "bytes32"
        },
        {
          "internalType": "address",
          "name": "account",
          "type": "address"
        }
      ],
      "name": "revokeRole",
      "outputs": [],
      "stateMutability": "nonpayable",
      "type": "function"
    },
    {
      "inputs": [
        {
          "internalType": "bytes4",
          "name": "interfaceId",
          "type": "bytes4"
        }
      ],
      "name": "supportsInterface",
      "outputs": [
        {
          "internalType": "bool",
          "name": "",
          "type": "bool"
        }
      ],
      "stateMutability": "view",
      "type": "function"
    },
    {
      "inputs": [],
      "name": "suspendBadgeModel",
      "outputs": [],
      "stateMutability": "view",
      "type": "function"
    },
    {
      "inputs": [
        {
          "internalType": "address",
          "name": "newOwner",
          "type": "address"
        }
      ],
      "name": "transferOwnership",
      "outputs": [],
      "stateMutability": "nonpayable",
      "type": "function"
    },
    {
      "inputs": [
        {
          "internalType": "uint256",
          "name": "badgeModelId",
          "type": "uint256"
        },
        {
          "internalType": "uint256",
          "name": "mintCreatorFee",
          "type": "uint256"
        },
        {
          "internalType": "bool",
          "name": "paused",
          "type": "bool"
        }
      ],
      "name": "updateBadgeModel",
      "outputs": [],
      "stateMutability": "nonpayable",
      "type": "function"
    },
    {
      "inputs": [
        {
          "internalType": "uint256",
          "name": "badgeModelId",
          "type": "uint256"
        },
        {
          "internalType": "uint256",
          "name": "feeInBps",
          "type": "uint256"
        }
      ],
      "name": "updateBadgeModelProtocolFee",
      "outputs": [],
      "stateMutability": "nonpayable",
      "type": "function"
    },
    {
      "stateMutability": "payable",
      "type": "receive"
    }
  ],
  "bytecode": "0x608060405234801561001057600080fd5b5061001961001e565b6100dd565b600054610100900460ff161561008a5760405162461bcd60e51b815260206004820152602760248201527f496e697469616c697a61626c653a20636f6e747261637420697320696e697469604482015266616c697a696e6760c81b606482015260840160405180910390fd5b60005460ff908116146100db576000805460ff191660ff9081179091556040519081527f7f26b83ff96e1f2b6a682f133852f6798a09c465da95921460cefb38474024989060200160405180910390a15b565b6121b380620000ed6000396000f3fe60806040526004361061010e5760003560e01c80638da5cb5b1161009b5780638da5cb5b1461028057806391d14854146102a6578063a217fddf146102c6578063c0a39d12146102db578063c227fb11146102fb578063d547741f1461031b578063e63ab1e91461033b578063e7705db61461036f578063ede37dd4146103a3578063f2fde38b146103c3578063f72c0d8b146103e357600080fd5b806301ffc9a71461011a5780631adb76821461014f578063248a9ca3146101715780632f2ff15d146101af57806336568abe146101cf57806341954e09146101ef578063485cc95514610204578063715018a6146102245780637f34571014610239578063828efb251461026d57600080fd5b3661011557005b600080fd5b34801561012657600080fd5b5061013a610135366004611822565b610417565b60405190151581526020015b60405180910390f35b34801561015b57600080fd5b5061016f61016a36600461185a565b61044e565b005b34801561017d57600080fd5b506101a161018c366004611893565b60009081526065602052604090206001015490565b604051908152602001610146565b3480156101bb57600080fd5b5061016f6101ca3660046118c1565b61072c565b3480156101db57600080fd5b5061016f6101ea3660046118c1565b610756565b3480156101fb57600080fd5b5061016f6107d9565b34801561021057600080fd5b5061016f61021f3660046118f1565b6107fd565b34801561023057600080fd5b5061016f610935565b34801561024557600080fd5b506101a17f7804d923f43a17d325d77e781528e0793b2edd9890ab45fc64efd7b4b427744c81565b61016f61027b366004611a4f565b610949565b34801561028c57600080fd5b506097546001600160a01b03166040516101469190611b1a565b3480156102b257600080fd5b5061013a6102c13660046118c1565b610fbc565b3480156102d257600080fd5b506101a1600081565b3480156102e757600080fd5b5061016f6102f6366004611b2e565b610fe7565b34801561030757600080fd5b5061013a610316366004611893565b611157565b34801561032757600080fd5b5061016f6103363660046118c1565b611294565b34801561034757600080fd5b506101a17f65d7a28e3265b37a6474929f336521b332c1681b933f6cb9f3376673440d862a81565b34801561037b57600080fd5b506101a17f0ce23c3e399818cfee81a7ab0880f714e53d7672b08df0fa62f2843416e1ea0981565b3480156103af57600080fd5b5061016f6103be366004611b74565b6112b9565b3480156103cf57600080fd5b5061016f6103de366004611b96565b61139a565b3480156103ef57600080fd5b506101a17f189ab7a9244df0848122154315af71fe140f3db0fe014031783b0946b8c9d2e381565b60006001600160e01b03198216637965db0b60e01b148061044857506301ffc9a760e01b6001600160e01b03198316145b92915050565b823360c954604051636f77926b60e01b81526000916001600160a01b031690636f77926b90610481908590600401611b1a565b600060405180830381865afa15801561049e573d6000803e3d6000fd5b505050506040513d6000823e601f3d908101601f191682016040526104c69190810190611c34565b60c95460405163f2be2c8560e01b8152600481018690529192506000916001600160a01b039091169063f2be2c8590602401600060405180830381865afa158015610515573d6000803e3d6000fd5b505050506040513d6000823e601f3d908101601f1916820160405261053d9190810190611d04565b82515190915060000361056357604051638fcc03fd60e01b815260040160405180910390fd5b6040820151151560000361058a57604051638fcc03fd60e01b815260040160405180910390fd5b606082015115156001036105b15760405163401d786960e11b815260040160405180910390fd5b80516001600160a01b03166105d957604051638fa97ef960e01b815260040160405180910390fd5b826001600160a01b031681600001516001600160a01b03161461060f5760405163806ecc4960e01b815260040160405180910390fd5b60c95460405163f2be2c8560e01b8152600481018990526000916001600160a01b03169063f2be2c8590602401600060405180830381865afa158015610659573d6000803e3d6000fd5b505050506040513d6000823e601f3d908101601f191682016040526106819190810190611d04565b80519091506001600160a01b03166106ac576040516336f7ce4f60e11b815260040160405180910390fd5b6060810187905285151560408083019190915260c954905163c956ebd960e01b81526001600160a01b039091169063c956ebd9906106f0908b908590600401611e9b565b600060405180830381600087803b15801561070a57600080fd5b505af115801561071e573d6000803e3d6000fd5b505050505050505050505050565b60008281526065602052604090206001015461074781611413565b610751838361141d565b505050565b6001600160a01b03811633146107cb5760405162461bcd60e51b815260206004820152602f60248201527f416363657373436f6e74726f6c3a2063616e206f6e6c792072656e6f756e636560448201526e103937b632b9903337b91039b2b63360891b60648201526084015b60405180910390fd5b6107d582826114a3565b5050565b60006107e481611413565b60405163aaa2c00360e01b815260040160405180910390fd5b600054610100900460ff161580801561081d5750600054600160ff909116105b806108375750303b158015610837575060005460ff166001145b61089a5760405162461bcd60e51b815260206004820152602e60248201527f496e697469616c697a61626c653a20636f6e747261637420697320616c72656160448201526d191e481a5b9a5d1a585b1a5e995960921b60648201526084016107c2565b6000805460ff1916600117905580156108bd576000805461ff0019166101001790555b6108c561150a565b6108d060008461141d565b60c980546001600160a01b0319166001600160a01b0384161790558015610751576000805461ff0019169055604051600181527f7f26b83ff96e1f2b6a682f133852f6798a09c465da95921460cefb38474024989060200160405180910390a1505050565b61093d611539565b6109476000611593565b565b3360c954604051636f77926b60e01b81526000916001600160a01b031690636f77926b9061097b908590600401611b1a565b600060405180830381865afa158015610998573d6000803e3d6000fd5b505050506040513d6000823e601f3d908101601f191682016040526109c09190810190611c34565b8051519091506000036109e65760405163ce848fe360e01b815260040160405180910390fd5b602084015160c954604051631c2e21b960e11b81526000916001600160a01b03169063385c437290610a1c908590600401611eb4565b606060405180830381865afa158015610a39573d6000803e3d6000fd5b505050506040513d601f19601f82011682018060405250810190610a5d9190611ec7565b80519091506001600160a01b0316610a885760405163014eb98760e11b815260040160405180910390fd5b60408101511515600003610aaf5760405163014eb98760e11b815260040160405180910390fd5b806020015115610ad25760405163526e73a560e01b815260040160405180910390fd5b60c954604080516364d8baef60e01b815290516000926001600160a01b0316916364d8baef9160048083019260209291908290030181865afa158015610b1c573d6000803e3d6000fd5b505050506040513d601f19601f82011682018060405250810190610b409190611f38565b905080341015610b635760405163043f7a7d60e21b815260040160405180910390fd5b60c954604080516331056e5760e21b815290516000926001600160a01b03169163c415b95c9160048083019260209291908290030181865afa158015610bad573d6000803e3d6000fd5b505050506040513d601f19601f82011682018060405250810190610bd19190611f51565b90503415610c10576040516001600160a01b038216903480156108fc02916000818181858888f19350505050158015610c0e573d6000803e3d6000fd5b505b60c9546040805163272f675760e11b815290516000926001600160a01b031691634e5eceae9160048083019260209291908290030181865afa158015610c5a573d6000803e3d6000fd5b505050506040513d601f19601f82011682018060405250810190610c7e9190611f38565b90506000604051806101000160405280610c953390565b6001600160a01b031681526020018b6020015181526020016000151581526020018b6040015181526020018b60600151815260200183815260200160011515815260200160405180604001604052806006815260200165076312e302e360d41b8152508152509050600060c960009054906101000a90046001600160a01b03166001600160a01b031663e7343c8a6040518163ffffffff1660e01b8152600401602060405180830381865afa158015610d52573d6000803e3d6000fd5b505050506040513d601f19601f82011682018060405250810190610d769190611f38565b60c9548c516040516303a45af560e41b81529293506001600160a01b0390911691633a45af5091610dac91869190600401611f6e565b600060405180830381600087803b158015610dc657600080fd5b505af1158015610dda573d6000803e3d6000fd5b505060c954604051636f77926b60e01b8152600093506001600160a01b039091169150636f77926b90610e11903390600401611b1a565b600060405180830381865afa158015610e2e573d6000803e3d6000fd5b505050506040513d6000823e601f3d908101601f19168201604052610e569190810190611c34565b60408101519091501515600003610ed1576001604082015260c9546001600160a01b031663178682c133836040518363ffffffff1660e01b8152600401610e9e929190611f93565b600060405180830381600087803b158015610eb857600080fd5b505af1158015610ecc573d6000803e3d6000fd5b505050505b60c95460208d0151604051631c2e21b960e11b81526000926001600160a01b03169163385c437291610f069190600401611eb4565b606060405180830381865afa158015610f23573d6000803e3d6000fd5b505050506040513d601f19601f82011682018060405250810190610f479190611ec7565b905080600001516001600160a01b03166377a3989e848e6040518363ffffffff1660e01b8152600401610f7b929190611ffa565b600060405180830381600087803b158015610f9557600080fd5b505af1158015610fa9573d6000803e3d6000fd5b5050505050505050505050505050505050565b60009182526065602090815260408084206001600160a01b0393909316845291905290205460ff1690565b6000610ff281611413565b60c954604051631c2e21b960e11b81526000916001600160a01b03169063385c437290611023908790600401611eb4565b606060405180830381865afa158015611040573d6000803e3d6000fd5b505050506040513d601f19601f820116820180604052508101906110649190611ec7565b9050835160000361108857604051635f0b636f60e11b815260040160405180910390fd5b6001600160a01b0383166110af576040516336f7ce4f60e11b815260040160405180910390fd5b80516001600160a01b0316156110d857604051631192a36960e31b815260040160405180910390fd5b6001600160a01b03808416825260016040808401919091526000602084015260c95490516332c32c6360e11b815291169063658658c69061111f9087908590600401612013565b600060405180830381600087803b15801561113957600080fd5b505af115801561114d573d6000803e3d6000fd5b5050505050505050565b60c95460405163f2be2c8560e01b81526004810183905260009182916001600160a01b039091169063f2be2c8590602401600060405180830381865afa1580156111a5573d6000803e3d6000fd5b505050506040513d6000823e601f3d908101601f191682016040526111cd9190810190611d04565b80519091506001600160a01b03166111f8576040516336f7ce4f60e11b815260040160405180910390fd5b60c9548151604051636f77926b60e01b81526000926001600160a01b031691636f77926b9161122a9190600401611b1a565b600060405180830381865afa158015611247573d6000803e3d6000fd5b505050506040513d6000823e601f3d908101601f1916820160405261126f9190810190611c34565b6060810151909150151560010361128a575060019392505050565b5060009392505050565b6000828152606560205260409020600101546112af81611413565b61075183836114a3565b60006112c481611413565b60c95460405163f2be2c8560e01b8152600481018590526000916001600160a01b03169063f2be2c8590602401600060405180830381865afa15801561130e573d6000803e3d6000fd5b505050506040513d6000823e601f3d908101601f191682016040526113369190810190611d04565b80519091506001600160a01b0316611361576040516336f7ce4f60e11b815260040160405180910390fd5b60a0810183905260c95460405163c956ebd960e01b81526001600160a01b039091169063c956ebd99061111f9087908590600401611e9b565b6113a2611539565b6001600160a01b0381166114075760405162461bcd60e51b815260206004820152602660248201527f4f776e61626c653a206e6577206f776e657220697320746865207a65726f206160448201526564647265737360d01b60648201526084016107c2565b61141081611593565b50565b61141081336115e5565b6114278282610fbc565b6107d55760008281526065602090815260408083206001600160a01b03851684529091529020805460ff1916600117905561145f3390565b6001600160a01b0316816001600160a01b0316837f2f8788117e7eff1d82e926ec794901d17c78024a50270940304540a733656f0d60405160405180910390a45050565b6114ad8282610fbc565b156107d55760008281526065602090815260408083206001600160a01b0385168085529252808320805460ff1916905551339285917ff6391f5c32d9c69d2a47ea670b442974b53935d1edc7fd64eb21e047a839171b9190a45050565b600054610100900460ff166115315760405162461bcd60e51b81526004016107c290612056565b61094761163e565b6097546001600160a01b031633146109475760405162461bcd60e51b815260206004820181905260248201527f4f776e61626c653a2063616c6c6572206973206e6f7420746865206f776e657260448201526064016107c2565b609780546001600160a01b038381166001600160a01b0319831681179093556040519116919082907f8be0079c531659141344cd1fd0a4f28419497f9722a3daafe3b4186f6b6457e090600090a35050565b6115ef8282610fbc565b6107d5576115fc8161166e565b611607836020611680565b6040516020016116189291906120a1565b60408051601f198184030181529082905262461bcd60e51b82526107c291600401611eb4565b600054610100900460ff166116655760405162461bcd60e51b81526004016107c290612056565b61094733611593565b60606104486001600160a01b03831660145b6060600061168f836002612126565b61169a90600261213d565b6001600160401b038111156116b1576116b161191f565b6040519080825280601f01601f1916602001820160405280156116db576020820181803683370190505b509050600360fc1b816000815181106116f6576116f6612150565b60200101906001600160f81b031916908160001a905350600f60fb1b8160018151811061172557611725612150565b60200101906001600160f81b031916908160001a9053506000611749846002612126565b61175490600161213d565b90505b60018111156117cc576f181899199a1a9b1b9c1cb0b131b232b360811b85600f166010811061178857611788612150565b1a60f81b82828151811061179e5761179e612150565b60200101906001600160f81b031916908160001a90535060049490941c936117c581612166565b9050611757565b50831561181b5760405162461bcd60e51b815260206004820181905260248201527f537472696e67733a20686578206c656e67746820696e73756666696369656e7460448201526064016107c2565b9392505050565b60006020828403121561183457600080fd5b81356001600160e01b03198116811461181b57600080fd5b801515811461141057600080fd5b60008060006060848603121561186f57600080fd5b833592506020840135915060408401356118888161184c565b809150509250925092565b6000602082840312156118a557600080fd5b5035919050565b6001600160a01b038116811461141057600080fd5b600080604083850312156118d457600080fd5b8235915060208301356118e6816118ac565b809150509250929050565b6000806040838503121561190457600080fd5b823561190f816118ac565b915060208301356118e6816118ac565b634e487b7160e01b600052604160045260246000fd5b604051608081016001600160401b03811182821017156119575761195761191f565b60405290565b60405160a081016001600160401b03811182821017156119575761195761191f565b60405161010081016001600160401b03811182821017156119575761195761191f565b604051601f8201601f191681016001600160401b03811182821017156119ca576119ca61191f565b604052919050565b60006001600160401b038211156119eb576119eb61191f565b50601f01601f191660200190565b600082601f830112611a0a57600080fd5b8135611a1d611a18826119d2565b6119a2565b818152846020838601011115611a3257600080fd5b816020850160208301376000918101602001919091529392505050565b60008060408385031215611a6257600080fd5b82356001600160401b0380821115611a7957600080fd5b9084019060808287031215611a8d57600080fd5b611a95611935565b823582811115611aa457600080fd5b611ab0888286016119f9565b825250602083013582811115611ac557600080fd5b611ad1888286016119f9565b6020830152506040830135604082015260608301356060820152809450506020850135915080821115611b0357600080fd5b50611b10858286016119f9565b9150509250929050565b6001600160a01b0391909116815260200190565b60008060408385031215611b4157600080fd5b82356001600160401b03811115611b5757600080fd5b611b63858286016119f9565b92505060208301356118e6816118ac565b60008060408385031215611b8757600080fd5b50508035926020909101359150565b600060208284031215611ba857600080fd5b813561181b816118ac565b60005b83811015611bce578181015183820152602001611bb6565b50506000910152565b600082601f830112611be857600080fd5b8151611bf6611a18826119d2565b818152846020838601011115611c0b57600080fd5b611c1c826020830160208701611bb3565b949350505050565b8051611c2f8161184c565b919050565b600060208284031215611c4657600080fd5b81516001600160401b0380821115611c5d57600080fd5b9083019060a08286031215611c7157600080fd5b611c7961195d565b825182811115611c8857600080fd5b611c9487828601611bd7565b82525060208301519150611ca78261184c565b81602082015260408301519150611cbd8261184c565b81604082015260608301519150611cd38261184c565b81606082015260808301519250611ce98361184c565b6080810192909252509392505050565b8051611c2f816118ac565b600060208284031215611d1657600080fd5b81516001600160401b0380821115611d2d57600080fd5b908301906101008286031215611d4257600080fd5b611d4a61197f565b611d5383611cf9565b8152602083015182811115611d6757600080fd5b611d7387828601611bd7565b602083015250611d8560408401611c24565b6040820152606083015160608201526080830151608082015260a083015160a0820152611db460c08401611c24565b60c082015260e083015182811115611dcb57600080fd5b611dd787828601611bd7565b60e08301525095945050505050565b60008151808452611dfe816020860160208601611bb3565b601f01601f19169290920160200192915050565b600061010060018060a01b0383511684526020830151816020860152611e3a82860182611de6565b915050604083015115156040850152606083015160608501526080830151608085015260a083015160a085015260c0830151611e7a60c086018215159052565b5060e083015184820360e0860152611e928282611de6565b95945050505050565b828152604060208201526000611c1c6040830184611e12565b60208152600061181b6020830184611de6565b600060608284031215611ed957600080fd5b604051606081018181106001600160401b0382111715611efb57611efb61191f565b6040528251611f09816118ac565b81526020830151611f198161184c565b60208201526040830151611f2c8161184c565b60408201529392505050565b600060208284031215611f4a57600080fd5b5051919050565b600060208284031215611f6357600080fd5b815161181b816118ac565b604081526000611f816040830185611e12565b8281036020840152611e928185611de6565b60018060a01b0383168152604060208201526000825160a06040840152611fbd60e0840182611de6565b90506020840151151560608401526040840151151560808401526060840151151560a08401526080840151151560c0840152809150509392505050565b828152604060208201526000611c1c6040830184611de6565b6080815260006120266080830185611de6565b905060018060a01b0383511660208301526020830151151560408301526040830151151560608301529392505050565b6020808252602b908201527f496e697469616c697a61626c653a20636f6e7472616374206973206e6f74206960408201526a6e697469616c697a696e6760a81b606082015260800190565b76020b1b1b2b9b9a1b7b73a3937b61d1030b1b1b7bab73a1604d1b8152600083516120d3816017850160208801611bb3565b7001034b99036b4b9b9b4b733903937b6329607d1b6017918401918201528351612104816028840160208801611bb3565b01602801949350505050565b634e487b7160e01b600052601160045260246000fd5b808202811582820484141761044857610448612110565b8082018082111561044857610448612110565b634e487b7160e01b600052603260045260246000fd5b60008161217557612175612110565b50600019019056fea264697066735822122068ebf7b78ca50a81183adeb5c2c34c5f99397b4f97663a3618555d4ef16e489964736f6c63430008110033",
  "linkReferences": {},
  "deployedLinkReferences": {}
}