{
  "_format": "hh-sol-artifact-1",
  "contractName": "TheBadgeModels",
  "sourceName": "src/contracts/thebadge/TheBadgeModels.sol",
  "abi": [
    {
      "inputs": [],
      "stateMutability": "nonpayable",
      "type": "constructor"
    },
    {
      "inputs": [],
      "name": "AccessControlBadConfirmation",
      "type": "error"
    },
    {
      "inputs": [
        {
          "internalType": "address",
          "name": "account",
          "type": "address"
        },
        {
          "internalType": "bytes32",
          "name": "neededRole",
          "type": "bytes32"
        }
      ],
      "name": "AccessControlUnauthorizedAccount",
      "type": "error"
    },
    {
      "inputs": [],
      "name": "InvalidInitialization",
      "type": "error"
    },
    {
      "inputs": [],
      "name": "NotInitializing",
      "type": "error"
    },
    {
      "inputs": [
        {
          "internalType": "address",
          "name": "owner",
          "type": "address"
        }
      ],
      "name": "OwnableInvalidOwner",
      "type": "error"
    },
    {
      "inputs": [
        {
          "internalType": "address",
          "name": "account",
          "type": "address"
        }
      ],
      "name": "OwnableUnauthorizedAccount",
      "type": "error"
    },
    {
      "inputs": [],
      "name": "TheBadge__addBadgeModelController_alreadySet",
      "type": "error"
    },
    {
      "inputs": [],
      "name": "TheBadge__addBadgeModelController_emptyName",
      "type": "error"
    },
    {
      "inputs": [],
      "name": "TheBadge__addBadgeModelController_notFound",
      "type": "error"
    },
    {
      "inputs": [],
      "name": "TheBadge__badgeModel_badgeModelNotFound",
      "type": "error"
    },
    {
      "inputs": [],
      "name": "TheBadge__badgeModel_badgeModelNotUpgradeable",
      "type": "error"
    },
    {
      "inputs": [],
      "name": "TheBadge__badgeModel_isSuspended",
      "type": "error"
    },
    {
      "inputs": [],
      "name": "TheBadge__controller_controllerIsPaused",
      "type": "error"
    },
    {
      "inputs": [],
      "name": "TheBadge__controller_invalidController",
      "type": "error"
    },
    {
      "inputs": [],
      "name": "TheBadge__createBadgeModel_wrongValue",
      "type": "error"
    },
    {
      "inputs": [],
      "name": "TheBadge__onlyCreator_senderIsNotACreator",
      "type": "error"
    },
    {
      "inputs": [],
      "name": "TheBadge__onlyUser_userNotFound",
      "type": "error"
    },
    {
      "inputs": [],
      "name": "TheBadge__updateBadgeModel_badgeModelNotFound",
      "type": "error"
    },
    {
      "inputs": [],
      "name": "TheBadge__updateBadgeModel_notBadgeModelOwner",
      "type": "error"
    },
    {
      "inputs": [],
      "name": "TheBadge__users__onlyCreator_creatorIsSuspended",
      "type": "error"
    },
    {
      "anonymous": false,
      "inputs": [
        {
          "indexed": true,
          "internalType": "string",
          "name": "controllerName",
          "type": "string"
        },
        {
          "indexed": true,
          "internalType": "address",
          "name": "controllerAddress",
          "type": "address"
        }
      ],
      "name": "BadgeModelControllerAdded",
      "type": "event"
    },
    {
      "anonymous": false,
      "inputs": [
        {
          "indexed": true,
          "internalType": "string",
          "name": "controllerName",
          "type": "string"
        },
        {
          "indexed": true,
          "internalType": "address",
          "name": "controllerAddress",
          "type": "address"
        }
      ],
      "name": "BadgeModelControllerUpdated",
      "type": "event"
    },
    {
      "anonymous": false,
      "inputs": [
        {
          "indexed": true,
          "internalType": "uint256",
          "name": "badgeModelId",
          "type": "uint256"
        }
      ],
      "name": "BadgeModelCreated",
      "type": "event"
    },
    {
      "anonymous": false,
      "inputs": [
        {
          "indexed": true,
          "internalType": "uint256",
          "name": "badgeModelId",
          "type": "uint256"
        },
        {
          "indexed": false,
          "internalType": "bool",
          "name": "suspended",
          "type": "bool"
        }
      ],
      "name": "BadgeModelSuspended",
      "type": "event"
    },
    {
      "anonymous": false,
      "inputs": [
        {
          "indexed": true,
          "internalType": "uint256",
          "name": "badgeModelId",
          "type": "uint256"
        }
      ],
      "name": "BadgeModelUpdated",
      "type": "event"
    },
    {
      "anonymous": false,
      "inputs": [
        {
          "indexed": true,
          "internalType": "uint256",
          "name": "badgeModelId",
          "type": "uint256"
        },
        {
          "indexed": true,
          "internalType": "uint256",
          "name": "newBadgeModelId",
          "type": "uint256"
        },
        {
          "indexed": true,
          "internalType": "uint256",
          "name": "version",
          "type": "uint256"
        }
      ],
      "name": "BadgeModelVersionUpdated",
      "type": "event"
    },
    {
      "anonymous": false,
      "inputs": [
        {
          "indexed": true,
          "internalType": "address",
          "name": "admin",
          "type": "address"
        }
      ],
      "name": "Initialize",
      "type": "event"
    },
    {
      "anonymous": false,
      "inputs": [
        {
          "indexed": false,
          "internalType": "uint64",
          "name": "version",
          "type": "uint64"
        }
      ],
      "name": "Initialized",
      "type": "event"
    },
    {
      "anonymous": false,
      "inputs": [
        {
          "indexed": true,
          "internalType": "address",
          "name": "previousOwner",
          "type": "address"
        },
        {
          "indexed": true,
          "internalType": "address",
          "name": "newOwner",
          "type": "address"
        }
      ],
      "name": "OwnershipTransferred",
      "type": "event"
    },
    {
      "anonymous": false,
      "inputs": [
        {
          "indexed": true,
          "internalType": "bytes32",
          "name": "role",
          "type": "bytes32"
        },
        {
          "indexed": true,
          "internalType": "bytes32",
          "name": "previousAdminRole",
          "type": "bytes32"
        },
        {
          "indexed": true,
          "internalType": "bytes32",
          "name": "newAdminRole",
          "type": "bytes32"
        }
      ],
      "name": "RoleAdminChanged",
      "type": "event"
    },
    {
      "anonymous": false,
      "inputs": [
        {
          "indexed": true,
          "internalType": "bytes32",
          "name": "role",
          "type": "bytes32"
        },
        {
          "indexed": true,
          "internalType": "address",
          "name": "account",
          "type": "address"
        },
        {
          "indexed": true,
          "internalType": "address",
          "name": "sender",
          "type": "address"
        }
      ],
      "name": "RoleGranted",
      "type": "event"
    },
    {
      "anonymous": false,
      "inputs": [
        {
          "indexed": true,
          "internalType": "bytes32",
          "name": "role",
          "type": "bytes32"
        },
        {
          "indexed": true,
          "internalType": "address",
          "name": "account",
          "type": "address"
        },
        {
          "indexed": true,
          "internalType": "address",
          "name": "sender",
          "type": "address"
        }
      ],
      "name": "RoleRevoked",
      "type": "event"
    },
    {
      "inputs": [],
      "name": "CLAIMER_ROLE",
      "outputs": [
        {
          "internalType": "bytes32",
          "name": "",
          "type": "bytes32"
        }
      ],
      "stateMutability": "view",
      "type": "function"
    },
    {
      "inputs": [],
      "name": "DEFAULT_ADMIN_ROLE",
      "outputs": [
        {
          "internalType": "bytes32",
          "name": "",
          "type": "bytes32"
        }
      ],
      "stateMutability": "view",
      "type": "function"
    },
    {
      "inputs": [],
      "name": "PAUSER_ROLE",
      "outputs": [
        {
          "internalType": "bytes32",
          "name": "",
          "type": "bytes32"
        }
      ],
      "stateMutability": "view",
      "type": "function"
    },
    {
      "inputs": [],
      "name": "UPGRADER_ROLE",
      "outputs": [
        {
          "internalType": "bytes32",
          "name": "",
          "type": "bytes32"
        }
      ],
      "stateMutability": "view",
      "type": "function"
    },
    {
      "inputs": [],
      "name": "URI_SETTER_ROLE",
      "outputs": [
        {
          "internalType": "bytes32",
          "name": "",
          "type": "bytes32"
        }
      ],
      "stateMutability": "view",
      "type": "function"
    },
    {
      "inputs": [],
      "name": "USER_MANAGER_ROLE",
      "outputs": [
        {
          "internalType": "bytes32",
          "name": "",
          "type": "bytes32"
        }
      ],
      "stateMutability": "view",
      "type": "function"
    },
    {
      "inputs": [],
      "name": "VERIFIER_ROLE",
      "outputs": [
        {
          "internalType": "bytes32",
          "name": "",
          "type": "bytes32"
        }
      ],
      "stateMutability": "view",
      "type": "function"
    },
    {
      "inputs": [],
      "name": "_badgeStore",
      "outputs": [
        {
          "internalType": "contract TheBadgeStore",
          "name": "",
          "type": "address"
        }
      ],
      "stateMutability": "view",
      "type": "function"
    },
    {
      "inputs": [],
      "name": "_theBadgeUsers",
      "outputs": [
        {
          "internalType": "contract TheBadgeUsers",
          "name": "",
          "type": "address"
        }
      ],
      "stateMutability": "view",
      "type": "function"
    },
    {
      "inputs": [
        {
          "internalType": "string",
          "name": "controllerName",
          "type": "string"
        },
        {
          "internalType": "address",
          "name": "controllerAddress",
          "type": "address"
        }
      ],
      "name": "addBadgeModelController",
      "outputs": [],
      "stateMutability": "nonpayable",
      "type": "function"
    },
    {
      "inputs": [
        {
          "components": [
            {
              "internalType": "string",
              "name": "metadata",
              "type": "string"
            },
            {
              "internalType": "string",
              "name": "controllerName",
              "type": "string"
            },
            {
              "internalType": "uint256",
              "name": "mintCreatorFee",
              "type": "uint256"
            },
            {
              "internalType": "uint256",
              "name": "validFor",
              "type": "uint256"
            }
          ],
          "internalType": "struct TheBadgeStore.CreateBadgeModel",
          "name": "args",
          "type": "tuple"
        },
        {
          "internalType": "bytes",
          "name": "data",
          "type": "bytes"
        }
      ],
      "name": "createBadgeModel",
      "outputs": [],
      "stateMutability": "payable",
      "type": "function"
    },
    {
      "inputs": [
        {
          "internalType": "string",
          "name": "badgeModelName",
          "type": "string"
        }
      ],
      "name": "getBadgeModelController",
      "outputs": [
        {
          "components": [
            {
              "internalType": "address",
              "name": "controller",
              "type": "address"
            },
            {
              "internalType": "bool",
              "name": "paused",
              "type": "bool"
            },
            {
              "internalType": "bool",
              "name": "initialized",
              "type": "bool"
            }
          ],
          "internalType": "struct TheBadgeStore.BadgeModelController",
          "name": "badgeModelController",
          "type": "tuple"
        }
      ],
      "stateMutability": "view",
      "type": "function"
    },
    {
      "inputs": [
        {
          "internalType": "bytes32",
          "name": "role",
          "type": "bytes32"
        }
      ],
      "name": "getRoleAdmin",
      "outputs": [
        {
          "internalType": "bytes32",
          "name": "",
          "type": "bytes32"
        }
      ],
      "stateMutability": "view",
      "type": "function"
    },
    {
      "inputs": [
        {
          "internalType": "bytes32",
          "name": "role",
          "type": "bytes32"
        },
        {
          "internalType": "address",
          "name": "account",
          "type": "address"
        }
      ],
      "name": "grantRole",
      "outputs": [],
      "stateMutability": "nonpayable",
      "type": "function"
    },
    {
      "inputs": [
        {
          "internalType": "bytes32",
          "name": "role",
          "type": "bytes32"
        },
        {
          "internalType": "address",
          "name": "account",
          "type": "address"
        }
      ],
      "name": "hasRole",
      "outputs": [
        {
          "internalType": "bool",
          "name": "",
          "type": "bool"
        }
      ],
      "stateMutability": "view",
      "type": "function"
    },
    {
      "inputs": [
        {
          "internalType": "address",
          "name": "admin",
          "type": "address"
        },
        {
          "internalType": "address",
          "name": "badgeStore",
          "type": "address"
        },
        {
          "internalType": "address",
          "name": "badgeUsers",
          "type": "address"
        }
      ],
      "name": "initialize",
      "outputs": [],
      "stateMutability": "nonpayable",
      "type": "function"
    },
    {
      "inputs": [
        {
          "internalType": "uint256",
          "name": "badgeModelId",
          "type": "uint256"
        }
      ],
      "name": "isBadgeModelSuspended",
      "outputs": [
        {
          "internalType": "bool",
          "name": "",
          "type": "bool"
        }
      ],
      "stateMutability": "view",
      "type": "function"
    },
    {
      "inputs": [],
      "name": "owner",
      "outputs": [
        {
          "internalType": "address",
          "name": "",
          "type": "address"
        }
      ],
      "stateMutability": "view",
      "type": "function"
    },
    {
      "inputs": [],
      "name": "renounceOwnership",
      "outputs": [],
      "stateMutability": "nonpayable",
      "type": "function"
    },
    {
      "inputs": [
        {
          "internalType": "bytes32",
          "name": "role",
          "type": "bytes32"
        },
        {
          "internalType": "address",
          "name": "callerConfirmation",
          "type": "address"
        }
      ],
      "name": "renounceRole",
      "outputs": [],
      "stateMutability": "nonpayable",
      "type": "function"
    },
    {
      "inputs": [
        {
          "internalType": "bytes32",
          "name": "role",
          "type": "bytes32"
        },
        {
          "internalType": "address",
          "name": "account",
          "type": "address"
        }
      ],
      "name": "revokeRole",
      "outputs": [],
      "stateMutability": "nonpayable",
      "type": "function"
    },
    {
      "inputs": [
        {
          "internalType": "bytes4",
          "name": "interfaceId",
          "type": "bytes4"
        }
      ],
      "name": "supportsInterface",
      "outputs": [
        {
          "internalType": "bool",
          "name": "",
          "type": "bool"
        }
      ],
      "stateMutability": "view",
      "type": "function"
    },
    {
      "inputs": [
        {
          "internalType": "uint256",
          "name": "badgeModelId",
          "type": "uint256"
        },
        {
          "internalType": "bool",
          "name": "suspended",
          "type": "bool"
        }
      ],
      "name": "suspendBadgeModel",
      "outputs": [],
      "stateMutability": "nonpayable",
      "type": "function"
    },
    {
      "inputs": [
        {
          "internalType": "address",
          "name": "newOwner",
          "type": "address"
        }
      ],
      "name": "transferOwnership",
      "outputs": [],
      "stateMutability": "nonpayable",
      "type": "function"
    },
    {
      "inputs": [
        {
          "internalType": "uint256",
          "name": "badgeModelId",
          "type": "uint256"
        },
        {
          "internalType": "uint256",
          "name": "mintCreatorFee",
          "type": "uint256"
        },
        {
          "internalType": "bool",
          "name": "paused",
          "type": "bool"
        }
      ],
      "name": "updateBadgeModel",
      "outputs": [],
      "stateMutability": "nonpayable",
      "type": "function"
    },
    {
      "inputs": [
        {
          "internalType": "string",
          "name": "controllerName",
          "type": "string"
        },
        {
          "internalType": "address",
          "name": "controllerAddress",
          "type": "address"
        },
        {
          "internalType": "bool",
          "name": "paused",
          "type": "bool"
        }
      ],
      "name": "updateBadgeModelController",
      "outputs": [],
      "stateMutability": "nonpayable",
      "type": "function"
    },
    {
      "inputs": [
        {
          "internalType": "uint256",
          "name": "badgeModelId",
          "type": "uint256"
        },
        {
          "internalType": "string",
          "name": "metadata",
          "type": "string"
        },
        {
          "internalType": "bytes",
          "name": "data",
          "type": "bytes"
        }
      ],
      "name": "updateBadgeModelMetadata",
      "outputs": [],
      "stateMutability": "nonpayable",
      "type": "function"
    },
    {
      "inputs": [
        {
          "internalType": "uint256",
          "name": "badgeModelId",
          "type": "uint256"
        },
        {
          "internalType": "uint256",
          "name": "feeInBps",
          "type": "uint256"
        }
      ],
      "name": "updateBadgeModelProtocolFee",
      "outputs": [],
      "stateMutability": "nonpayable",
      "type": "function"
    },
    {
      "stateMutability": "payable",
      "type": "receive"
    }
  ],
  "bytecode": "0x608080604052346100b8577ff0c57e16840df040f15088dc2f81fe391c3923bec73e23a9662efc9c229c6a009081549060ff8260401c166100a957506001600160401b036002600160401b031982821601610064575b6040516125fe90816100bd8239f35b6001600160401b031990911681179091556040519081527fc7f505b2f371ae2175ee4913f4499e1f2633a7b5936321eed1cdaeb6115181d290602090a15f8080610055565b63f92ee8a960e01b8152600490fd5b5f80fdfe608080604052600436101561001c575b50361561001a575f80fd5b005b5f90813560e01c90816301ffc9a714611bce5750806319b50c2a14611ba75780631adb7682146119dd5780631c38579e1461187f5780631c58f00714611713578063248a9ca3146116da5780632f2ff15d1461169057806336568abe14611648578063385c43721461158b578063414a501614610f8a578063715018a614610f215780637f34571014610ee6578063828efb25146108945780638da5cb5b1461085f57806391d1485414610809578063a217fddf146107ed578063a41e35c3146107b2578063c0a39d12146105fa578063c0c53b8b1461044e578063c227fb1114610425578063d547741f146103d7578063e5088cdf146103ae578063e63ab1e914610386578063e7705db61461034b578063ede37dd4146101fd578063f2fde38b146101d0578063f72c0d8b146101955763fc5f18d30361000f573461019257806003193601126101925760206040517f11a8cb5a02bd6c42679835e867ef2118ba78f088f8300511420c6603c21d9c788152f35b80fd5b503461019257806003193601126101925760206040517f189ab7a9244df0848122154315af71fe140f3db0fe014031783b0946b8c9d2e38152f35b5034610192576020366003190112610192576101fa6101ed611d14565b6101f5611ffa565b612032565b80f35b50346101925760403660031901126101925760043561021a611d7d565b815460405163f2be2c8560e01b8152600481018390526001600160a01b03918216918482602481865afa91821561034057859261031c575b508151161561030a5760016101008201511515146102f857839160243560a0830152803b156102f4576102ad839291839260405194858094819363700f492360e01b83528a6004840152604060248401526044830190612291565b03925af180156102e9576102d1575b50805f8051602061256983398151915291a280f35b6102da90611c32565b6102e557815f6102bc565b5080fd5b6040513d84823e3d90fd5b8280fd5b60405163149838bd60e31b8152600490fd5b6040516336f7ce4f60e11b8152600490fd5b6103399192503d8087833e6103318183611c7c565b810190612363565b905f610252565b6040513d87823e3d90fd5b503461019257806003193601126101925760206040517f0ce23c3e399818cfee81a7ab0880f714e53d7672b08df0fa62f2843416e1ea098152f35b503461019257806003193601126101925760206040515f805160206125898339815191528152f35b50346101925780600319360112610192576001546040516001600160a01b039091168152602090f35b5034610192576040366003190112610192576104216004356103f7611cfe565b908084525f805160206125a983398151915260205261041c6001604086200154611db6565b611f7a565b5080f35b503461019257602036600319011261019257602061044460043561244e565b6040519015158152f35b503461019257606036600319011261019257610468611d14565b610470611cfe565b6044356001600160a01b0381811692918390036105f6577ff0c57e16840df040f15088dc2f81fe391c3923bec73e23a9662efc9c229c6a009283549260ff8460401c1615936001600160401b038116801590816105ee575b60011490816105e4575b1590816105db575b506105c95767ffffffffffffffff1981166001178655846105aa575b506104ff6120a3565b6105076120a3565b61051086612032565b61051986611de4565b5061052386611e6f565b508260018060a01b0319911681885416178755600154161760015560405193167f36b1453565f45af7b509b59d5e2eac8f1948ea9e3e193db6663b4101afb6382c8580a261056f578280f35b805460ff60401b19169055600181527fc7f505b2f371ae2175ee4913f4499e1f2633a7b5936321eed1cdaeb6115181d290602090a15f808280f35b68ffffffffffffffffff1916680100000000000000011785555f6104f6565b60405163f92ee8a960e01b8152600490fd5b9050155f6104da565b303b1591506104d2565b8691506104c8565b5f80fd5b5034610192576040366003190112610192576004356001600160401b0381116102e55761062b903690600401611cb8565b610633611cfe565b9061063c611d7d565b8254604051631c2e21b960e11b8152602060048201526001600160a01b03939184169160608280610670602482018861216c565b0381865afa9182156107a7578692610777575b508351156107655784169384156107535781511661074157849184825260016040830152826020830152803b156102f4578291829160405180948180946332c32c6360e11b8252608060048301526106ec6106e1608484018c61216c565b916024840190611d2a565b03925af180156102e95761072d575b505061070690612191565b7fe5593a32c4e8802f5034c3eb5fb2d05210d31e05841af6500e5cac618d29605f8380a380f35b61073690611c32565b6102f457825f6106fb565b604051631192a36960e31b8152600490fd5b60405163930b449560e01b8152600490fd5b604051635f0b636f60e11b8152600490fd5b61079991925060603d81116107a0575b6107918183611c7c565b810190612105565b905f610683565b503d610787565b6040513d88823e3d90fd5b503461019257806003193601126101925760206040517fcbaaf41b181bb6e269c490e876a7c97711b57e21dd8e5528423cf57579726b358152f35b5034610192578060031936011261019257602090604051908152f35b5034610192576040366003190112610192576040610825611cfe565b9160043581525f805160206125a9833981519152602052209060018060a01b03165f52602052602060ff60405f2054166040519015158152f35b50346101925780600319360112610192575f80516020612549833981519152546040516001600160a01b039091168152602090f35b506003196040368201126102e557600435906001600160401b0390818311610ee25760809083360301126102f457604051916080830183811083821117610ece576040528060040135828111610c43576108f49060043691840101611cb8565b8352602481013590828211610c435761091560649260043691840101611cb8565b602085015260448101356040850152013560608301526024359081116102f457610943903690600401611d50565b600154604051636f77926b60e01b8152336004820152919391908590829060249082906001600160a01b03165afa908115610340578591610eb4575b5080515115610ea257606001511515600114610e90576020810151926109cd606060018060a01b038754169560405180938192631c2e21b960e11b835260206004840152602483019061216c565b0381885afa9081156107a7578691610e71575b5080516001600160a01b031615610e5f57604081015115610e5f5760200151610e4d576040516364d8baef60e01b8152602081600481885afa9081156107a7578691610e1b575b503410610e0957849334610d68575b50835460405163272f675760e11b81526001600160a01b039091169290602081600481875afa9081156107a7578691610d33575b5060405163739a1e4560e11b815293602085600481845afa948515610cd9578795610cfc575b50602083015191604084015190606085015185519260405195610ab287611c60565b33875260208701528a60408701526060860152608085015260a0840152600160c0840152600160e08401528761010084015287610120840152610140830152803b15610cf857604051630f38d6ab60e21b8152602060048201529187918391829084908290610b25906024830190612291565b03925af19081156107a7578691610ce4575b5050604051837ffcf96e6a11b2c1924752c2575537a1eca64d4ac36e44c6c4919d48e9d0c26a638780a2600154636f77926b60e01b82523360048301526001600160a01b0316908681602481855afa8015610cd9576040918891610cb7575b50015115610c66575b506060610bd991602060018060a01b03885416910151906040518080958194631c2e21b960e11b835260206004840152602483019061216c565b03915afa908115610340578591610c47575b50516001600160a01b0316803b15610c4357610c2293858094604051968795869485936304a3c5d760e01b85523360048601612329565b03925af180156102e957610c335750f35b610c3c90611c32565b6101925780f35b8480fd5b610c60915060603d6060116107a0576107918183611c7c565b5f610beb565b803b15610cb3578580916024604051809481936308a4be4960e41b83523360048401525af19081156107a7578691610c9f575b50610b9f565b610ca890611c32565b610c4357845f610c99565b8580fd5b610cd391503d808a833e610ccb8183611c7c565b8101906121f6565b5f610b96565b6040513d89823e3d90fd5b610ced90611c32565b610c4357845f610b37565b8680fd5b965093506020863d602011610d2b575b81610d1960209383611c7c565b810103126105f657869551935f610a90565b3d9150610d0c565b9550506020853d602011610d60575b81610d4f60209383611c7c565b810103126105f6578594515f610a6a565b3d9150610d42565b6020600491604051928380926331056e5760e21b82525afa80156103405785918291610dc8575b5081808092813415610dbf575b34916001600160a01b031690f115610db4575f610a36565b6040513d85823e3d90fd5b506108fc610d9c565b9150506020813d602011610e01575b81610de460209383611c7c565b81010312610c4357848080610df981946120e4565b925050610d8f565b3d9150610dd7565b60405163043f7a7d60e21b8152600490fd5b90506020813d602011610e45575b81610e3660209383611c7c565b810103126105f657515f610a27565b3d9150610e29565b60405163526e73a560e01b8152600490fd5b60405163014eb98760e11b8152600490fd5b610e8a915060603d6060116107a0576107918183611c7c565b5f6109e0565b60405163e9dc308560e01b8152600490fd5b60405163ce848fe360e01b8152600490fd5b610ec891503d8087833e610ccb8183611c7c565b5f61097f565b634e487b7160e01b5f52604160045260245ffd5b8380fd5b503461019257806003193601126101925760206040517f7804d923f43a17d325d77e781528e0793b2edd9890ab45fc64efd7b4b427744c8152f35b5034610192578060031936011261019257610f3a611ffa565b5f8051602061254983398151915280546001600160a01b031981169091555f906001600160a01b03167f8be0079c531659141344cd1fd0a4f28419497f9722a3daafe3b4186f6b6457e08280a380f35b5034610192576060366003190112610192576001600160401b036024358181116102f457610fbc903690600401611cb8565b6044359182116102f457610fd66024923690600401611d50565b600154604051636f77926b60e01b81523360048201529294869184919082906001600160a01b03165afa91821561034057859261156f575b50845460405163f2be2c8560e01b80825260048035908301526001600160a01b0390921695919387826024818a5afa91821561148b578892611553575b50805151156115415760408101511561154157606001511515600114610e905780516001600160a01b03161561152f5751336001600160a01b039091160361151d5760405192835260043560048401528583602481885afa9283156107a7578693611501575b506001610100840151151514610e90576110ed6060602085015160405180938192631c2e21b960e11b835260206004840152602483019061216c565b0381895afa908115610cd95787916114e2575b508051604051631361532d60e21b815290602090829060049082906001600160a01b03165afa90811561148b5788916114a8575b5015611496578051604051630d3f350760e01b8152889791602090829060049082906001600160a01b03165afa801561148b57889061144d575b151560011415905061120657505084546001600160a01b031692505050803b15611202576111c683929183926040519485809481936306b3526d60e21b8352600435600484015260406024840152604483019061216c565b03925af180156102e9576111ee575b50506004355f805160206125698339815191528280a280f35b6111f790611c32565b61019257805f6111d5565b5050fd5b6001610120869798939495960152803b156102e55781604051809263700f492360e01b825260043560048301526040602483015281838161124a604482018d612291565b03925af180156102e957611439575b505060e08401519360018501851161142557865460405163739a1e4560e11b8152968895949392916001600160a01b031690602089600481855afa988915610cd95787996113ee575b5060208301519260608101519060a0608082015191015191604051956112c787611c60565b33875260208701528960408701526060860152608085015260a0840152600160c08401526001880160e08401528661010084015286610120840152610140830152803b15610cb357604051630f38d6ab60e21b815260206004820152918691839182908490829061133c906024830190612291565b03925af19081156103405785916113da575b5050516001600160a01b031691823b15610ee257611387928492836040518096819582946304a3c5d760e01b84528c3360048601612329565b03925af180156102e9576113c6575b5050600101906004357f2ceb6559a44e182ef54894f4f21a8897fb538351aaba1333d732a088a7a4404c8480a480f35b6113cf90611c32565b6102f457825f611396565b6113e390611c32565b610ee257835f61134e565b965097506020863d60201161141d575b8161140b60209383611c7c565b810103126105f657889551975f6112a2565b3d91506113fe565b634e487b7160e01b87526011600452602487fd5b61144290611c32565b610cb357855f611259565b506020813d602011611483575b8161146760209383611c7c565b8101031261147f5761147a6001916120f8565b61116e565b8780fd5b3d915061145a565b6040513d8a823e3d90fd5b60405163b4ea754b60e01b8152600490fd5b90506020813d6020116114da575b816114c360209383611c7c565b8101031261147f576114d4906120f8565b5f611134565b3d91506114b6565b6114fb915060603d6060116107a0576107918183611c7c565b5f611100565b6115169193503d8088833e6103318183611c7c565b915f6110b1565b60405163806ecc4960e01b8152600490fd5b604051638fa97ef960e01b8152600490fd5b604051638fcc03fd60e01b8152600490fd5b6115689192503d808a833e6103318183611c7c565b905f61104b565b6115849192503d8087833e610ccb8183611c7c565b905f61100e565b5034610192576020366003190112610192576004356001600160401b0381116102e55760606115c1611607923690600401611cb8565b83604080516115cf81611c45565b828152826020820152015260018060a01b038454166040518080958194631c2e21b960e11b835260206004840152602483019061216c565b03915afa9081156102e9576060929161162b575b506116296040518092611d2a565bf35b6116429150823d81116107a0576107918183611c7c565b5f61161b565b503461019257604036600319011261019257611662611cfe565b336001600160a01b0382160361167e5761042190600435611f7a565b60405163334bd91960e11b8152600490fd5b5034610192576040366003190112610192576104216004356116b0611cfe565b908084525f805160206125a98339815191526020526116d56001604086200154611db6565b611f09565b5034610192576020366003190112610192576001604060209260043581525f805160206125a98339815191528452200154604051908152f35b5034610192576060366003190112610192576004356001600160401b0381116102e557611744903690600401611cb8565b61174c611cfe565b90611755611c23565b61175d611d7d565b815115610765576001600160a01b0392831692831561030a578085541660405191631c2e21b960e11b835260206004840152606083806117a0602482018961216c565b0381855afa928315610cd957879361185f575b5082511615610e5f576040820192835115610e5f57600187948785525215156020830152803b156102f457829182916040518094818094626a7cdb60e61b82526080600483015261180a6106e1608484018c61216c565b03925af180156102e95761184b575b505061182490612191565b7fb26a69d98cbba60a8375d2881325d884505f42d1f0e61a74e33abb3524a658aa8380a380f35b61185490611c32565b6102f457825f611819565b61187891935060603d81116107a0576107918183611c7c565b915f6117b3565b5034610192576040366003190112610192576004356024358015158091036105f657335f9081527f75442b0a96088b5456bc4ed01394c96a4feec0f883c9494257d76b96ab1c9b6b60205260409020545f805160206125898339815191529060ff16156119bf5750825460405163f2be2c8560e01b8152600481018490526001600160a01b03909116908481602481855afa80156103405760c09186916119a5575b5001511561152f578084913b156102e557818091604460405180948193630e1c2bcf60e11b83528960048401528860248401525af180156102e957611991575b505060207f5f062aa313aef1e7311684fc58adc2e6be9a42aaa5440bd11ecc935110ce188891604051908152a280f35b61199a90611c32565b6102f457825f611961565b6119b991503d8088833e6103318183611c7c565b5f611921565b6044906040519063e2517d3f60e01b82523360048301526024820152fd5b503461019257606036600319011261019257600435906119fb611c23565b600154604051636f77926b60e01b81523360048201526001600160a01b0392909184908390602490829087165afa918215611b64578492611b8b575b5082845416926040519063f2be2c8560e01b938483528760048401528683602481895afa928315610cd9578793611b6f575b50805151156115415760408101511561154157606001511515600114610e9057808251161561152f57339151160361151d576040519182528460048301528382602481865afa918215611b64578492611b48575b506001610100830151151514610e9057602435606083015215156040820152813b156102f457611b148392839260405194858094819363700f492360e01b83528a6004840152604060248401526044830190612291565b03925af180156102e957611b39575b50905f805160206125698339815191528280a280f35b611b4290611c32565b5f611b23565b611b5d9192503d8086833e6103318183611c7c565b905f611abd565b6040513d86823e3d90fd5b611b849193503d8089833e6103318183611c7c565b915f611a69565b611ba09192503d8086833e610ccb8183611c7c565b905f611a37565b5034610192578060031936011261019257546040516001600160a01b039091168152602090f35b9050346102e55760203660031901126102e55760043563ffffffff60e01b81168091036102f45760209250637965db0b60e01b8114908115611c12575b5015158152f35b6301ffc9a760e01b1490505f611c0b565b6044359081151582036105f657565b6001600160401b038111610ece57604052565b606081019081106001600160401b03821117610ece57604052565b61016081019081106001600160401b03821117610ece57604052565b90601f801991011681019081106001600160401b03821117610ece57604052565b6001600160401b038111610ece57601f01601f191660200190565b81601f820112156105f657803590611ccf82611c9d565b92611cdd6040519485611c7c565b828452602083830101116105f657815f926020809301838601378301015290565b602435906001600160a01b03821682036105f657565b600435906001600160a01b03821682036105f657565b80516001600160a01b031682526020808201511515908301526040908101511515910152565b9181601f840112156105f6578235916001600160401b0383116105f657602083818601950101116105f657565b335f9081527fb7db2dd08fcb62d0c9e08c51941cae53c267786a0b75803fb7960902fc8ef97d602052604081205460ff16156119bf5750565b805f525f805160206125a983398151915260205260405f20335f5260205260ff60405f205416156119bf5750565b6001600160a01b03165f8181527fb7db2dd08fcb62d0c9e08c51941cae53c267786a0b75803fb7960902fc8ef97d60205260408120549091905f805160206125a98339815191529060ff16611e6a578280526020526040822081835260205260408220600160ff1982541617905533915f805160206125298339815191528180a4600190565b505090565b6001600160a01b03165f8181527f75442b0a96088b5456bc4ed01394c96a4feec0f883c9494257d76b96ab1c9b6b60205260408120549091905f80516020612589833981519152905f805160206125a98339815191529060ff16611f03578184526020526040832082845260205260408320600160ff198254161790555f80516020612529833981519152339380a4600190565b50505090565b905f918083525f805160206125a983398151915280602052604084209260018060a01b03169283855260205260ff604085205416155f14611f03578184526020526040832082845260205260408320600160ff198254161790555f80516020612529833981519152339380a4600190565b905f918083525f805160206125a983398151915280602052604084209260018060a01b03169283855260205260ff6040852054165f14611f0357818452602052604083208284526020526040832060ff1981541690557ff6391f5c32d9c69d2a47ea670b442974b53935d1edc7fd64eb21e047a839171b339380a4600190565b5f80516020612549833981519152546001600160a01b0316330361201a57565b60405163118cdaa760e01b8152336004820152602490fd5b6001600160a01b0390811690811561208b575f8051602061254983398151915280546001600160a01b031981168417909155167f8be0079c531659141344cd1fd0a4f28419497f9722a3daafe3b4186f6b6457e05f80a3565b604051631e4fbdf760e01b81525f6004820152602490fd5b60ff7ff0c57e16840df040f15088dc2f81fe391c3923bec73e23a9662efc9c229c6a005460401c16156120d257565b604051631afcd79f60e31b8152600490fd5b51906001600160a01b03821682036105f657565b519081151582036105f657565b908160609103126105f657612143604080519261212184611c45565b61212a816120e4565b8452612138602082016120f8565b6020850152016120f8565b604082015290565b5f5b83811061215c5750505f910152565b818101518382015260200161214d565b906020916121858151809281855285808601910161214b565b601f01601f1916010190565b6121a99060206040519282848094519384920161214b565b810103902090565b81601f820112156105f65780516121c781611c9d565b926121d56040519485611c7c565b818452602082840101116105f6576121f3916020808501910161214b565b90565b6020818303126105f65780516001600160401b03918282116105f657019160a0838203126105f6576040519260a0840184811084821117610ece5760405280519283116105f65761224e6080926122899483016121b1565b845261225c602082016120f8565b602085015261226d604082016120f8565b604085015261227e606082016120f8565b6060850152016120f8565b608082015290565b906121f39160018060a01b0381511682526122bb602082015161016080602086015284019061216c565b91604082015115156040820152606082015160608201526080820151608082015260a082015160a082015260c0820151151560c082015260e082015160e08201526101008083015115159082015261012080830151151590820152610140809201519181840391015261216c565b9284926080959260018060a01b03168552602085015260606040850152816060850152848401375f828201840152601f01601f1916010190565b6020818303126105f65780516001600160401b03918282116105f65701610160818403126105f6576040519261239884611c60565b6123a1826120e4565b845260208201518381116105f657816123bb9184016121b1565b60208501526123cc604083016120f8565b6040850152606082015160608501526080820151608085015260a082015160a08501526123fb60c083016120f8565b60c085015260e082015160e08501526101006124188184016120f8565b9085015261012061242a8184016120f8565b9085015261014092838301519081116105f65761244792016121b1565b9082015290565b60018060a01b03905f9182818154169260246040518095819363f2be2c8560e01b835260048301525afa918215610db457839261250c575b50808251161561030a5760016101008301511515146125045780839160015416925116602460405180948193636f77926b60e01b835260048301525afa9081156102e95760019160609184916124ea575b5001511515146124e45790565b50600190565b6124fe91503d8086833e610ccb8183611c7c565b5f6124d7565b505050600190565b6125219192503d8085833e6103318183611c7c565b905f61248656fe2f8788117e7eff1d82e926ec794901d17c78024a50270940304540a733656f0d9016d09d72d40fdae2fd8ceac6b6234c7706214fd39c1cd1e609a0528c199300c7fe3866a4edc843062ecfa12604d4a6686605fb2bd8a2323d96dc40c08d9e3d65d7a28e3265b37a6474929f336521b332c1681b933f6cb9f3376673440d862a02dd7bc7dec4dceedda775e58dd541e08a116c6c53815c0bd028192f7b626800a2646970667358221220150423e7ee53968fe01c497a398e576d2a933c20b27b8c5a1d16f25897f9834c64736f6c63430008140033",
  "linkReferences": {},
  "deployedLinkReferences": {}
}