{
  "_format": "hh-sol-artifact-1",
  "contractName": "TheBadge",
  "sourceName": "src/contracts/thebadge/TheBadge.sol",
  "abi": [
    {
      "inputs": [],
      "stateMutability": "nonpayable",
      "type": "constructor"
    },
    {
      "inputs": [],
      "name": "TheBadge__SBT",
      "type": "error"
    },
    {
      "inputs": [],
      "name": "TheBadge__calculateFee_protocolFeesInvalidValues",
      "type": "error"
    },
    {
      "inputs": [],
      "name": "TheBadge__mint_creatorFeesPaymentFailed",
      "type": "error"
    },
    {
      "inputs": [],
      "name": "TheBadge__mint_protocolFeesPaymentFailed",
      "type": "error"
    },
    {
      "inputs": [],
      "name": "TheBadge__requestBadge_badgeModelIsSuspended",
      "type": "error"
    },
    {
      "inputs": [],
      "name": "TheBadge__requestBadge_badgeModelNotFound",
      "type": "error"
    },
    {
      "inputs": [],
      "name": "TheBadge__requestBadge_badgeNotClaimable",
      "type": "error"
    },
    {
      "inputs": [],
      "name": "TheBadge__requestBadge_badgeNotFound",
      "type": "error"
    },
    {
      "inputs": [],
      "name": "TheBadge__requestBadge_controllerIsPaused",
      "type": "error"
    },
    {
      "inputs": [],
      "name": "TheBadge__requestBadge_isPaused",
      "type": "error"
    },
    {
      "inputs": [],
      "name": "TheBadge__requestBadge_wrongValue",
      "type": "error"
    },
    {
      "anonymous": false,
      "inputs": [
        {
          "indexed": false,
          "internalType": "address",
          "name": "previousAdmin",
          "type": "address"
        },
        {
          "indexed": false,
          "internalType": "address",
          "name": "newAdmin",
          "type": "address"
        }
      ],
      "name": "AdminChanged",
      "type": "event"
    },
    {
      "anonymous": false,
      "inputs": [
        {
          "indexed": true,
          "internalType": "address",
          "name": "account",
          "type": "address"
        },
        {
          "indexed": true,
          "internalType": "address",
          "name": "operator",
          "type": "address"
        },
        {
          "indexed": false,
          "internalType": "bool",
          "name": "approved",
          "type": "bool"
        }
      ],
      "name": "ApprovalForAll",
      "type": "event"
    },
    {
      "anonymous": false,
      "inputs": [
        {
          "indexed": true,
          "internalType": "uint256",
          "name": "badgeModelID",
          "type": "uint256"
        },
        {
          "indexed": true,
          "internalType": "uint256",
          "name": "badgeID",
          "type": "uint256"
        },
        {
          "indexed": true,
          "internalType": "address",
          "name": "recipient",
          "type": "address"
        },
        {
          "indexed": false,
          "internalType": "address",
          "name": "controller",
          "type": "address"
        },
        {
          "indexed": false,
          "internalType": "uint256",
          "name": "controllerBadgeId",
          "type": "uint256"
        }
      ],
      "name": "BadgeRequested",
      "type": "event"
    },
    {
      "anonymous": false,
      "inputs": [
        {
          "indexed": true,
          "internalType": "address",
          "name": "beacon",
          "type": "address"
        }
      ],
      "name": "BeaconUpgraded",
      "type": "event"
    },
    {
      "anonymous": false,
      "inputs": [
        {
          "indexed": true,
          "internalType": "address",
          "name": "admin",
          "type": "address"
        }
      ],
      "name": "Initialize",
      "type": "event"
    },
    {
      "anonymous": false,
      "inputs": [
        {
          "indexed": false,
          "internalType": "uint8",
          "name": "version",
          "type": "uint8"
        }
      ],
      "name": "Initialized",
      "type": "event"
    },
    {
      "anonymous": false,
      "inputs": [
        {
          "indexed": false,
          "internalType": "address",
          "name": "account",
          "type": "address"
        }
      ],
      "name": "Paused",
      "type": "event"
    },
    {
      "anonymous": false,
      "inputs": [
        {
          "indexed": true,
          "internalType": "address",
          "name": "recipient",
          "type": "address"
        },
        {
          "indexed": false,
          "internalType": "address",
          "name": "payer",
          "type": "address"
        },
        {
          "indexed": false,
          "internalType": "uint256",
          "name": "amount",
          "type": "uint256"
        },
        {
          "indexed": true,
          "internalType": "enum LibTheBadge.PaymentType",
          "name": "paymentType",
          "type": "uint8"
        },
        {
          "indexed": true,
          "internalType": "uint256",
          "name": "badgeModelId",
          "type": "uint256"
        },
        {
          "indexed": false,
          "internalType": "string",
          "name": "controllerName",
          "type": "string"
        }
      ],
      "name": "PaymentMade",
      "type": "event"
    },
    {
      "anonymous": false,
      "inputs": [],
      "name": "ProtocolSettingsUpdated",
      "type": "event"
    },
    {
      "anonymous": false,
      "inputs": [
        {
          "indexed": true,
          "internalType": "bytes32",
          "name": "role",
          "type": "bytes32"
        },
        {
          "indexed": true,
          "internalType": "bytes32",
          "name": "previousAdminRole",
          "type": "bytes32"
        },
        {
          "indexed": true,
          "internalType": "bytes32",
          "name": "newAdminRole",
          "type": "bytes32"
        }
      ],
      "name": "RoleAdminChanged",
      "type": "event"
    },
    {
      "anonymous": false,
      "inputs": [
        {
          "indexed": true,
          "internalType": "bytes32",
          "name": "role",
          "type": "bytes32"
        },
        {
          "indexed": true,
          "internalType": "address",
          "name": "account",
          "type": "address"
        },
        {
          "indexed": true,
          "internalType": "address",
          "name": "sender",
          "type": "address"
        }
      ],
      "name": "RoleGranted",
      "type": "event"
    },
    {
      "anonymous": false,
      "inputs": [
        {
          "indexed": true,
          "internalType": "bytes32",
          "name": "role",
          "type": "bytes32"
        },
        {
          "indexed": true,
          "internalType": "address",
          "name": "account",
          "type": "address"
        },
        {
          "indexed": true,
          "internalType": "address",
          "name": "sender",
          "type": "address"
        }
      ],
      "name": "RoleRevoked",
      "type": "event"
    },
    {
      "anonymous": false,
      "inputs": [
        {
          "indexed": true,
          "internalType": "address",
          "name": "operator",
          "type": "address"
        },
        {
          "indexed": true,
          "internalType": "address",
          "name": "from",
          "type": "address"
        },
        {
          "indexed": true,
          "internalType": "address",
          "name": "to",
          "type": "address"
        },
        {
          "indexed": false,
          "internalType": "uint256[]",
          "name": "ids",
          "type": "uint256[]"
        },
        {
          "indexed": false,
          "internalType": "uint256[]",
          "name": "values",
          "type": "uint256[]"
        }
      ],
      "name": "TransferBatch",
      "type": "event"
    },
    {
      "anonymous": false,
      "inputs": [
        {
          "indexed": true,
          "internalType": "address",
          "name": "operator",
          "type": "address"
        },
        {
          "indexed": true,
          "internalType": "address",
          "name": "from",
          "type": "address"
        },
        {
          "indexed": true,
          "internalType": "address",
          "name": "to",
          "type": "address"
        },
        {
          "indexed": false,
          "internalType": "uint256",
          "name": "id",
          "type": "uint256"
        },
        {
          "indexed": false,
          "internalType": "uint256",
          "name": "value",
          "type": "uint256"
        }
      ],
      "name": "TransferSingle",
      "type": "event"
    },
    {
      "anonymous": false,
      "inputs": [
        {
          "indexed": false,
          "internalType": "string",
          "name": "value",
          "type": "string"
        },
        {
          "indexed": true,
          "internalType": "uint256",
          "name": "id",
          "type": "uint256"
        }
      ],
      "name": "URI",
      "type": "event"
    },
    {
      "anonymous": false,
      "inputs": [
        {
          "indexed": false,
          "internalType": "address",
          "name": "account",
          "type": "address"
        }
      ],
      "name": "Unpaused",
      "type": "event"
    },
    {
      "anonymous": false,
      "inputs": [
        {
          "indexed": true,
          "internalType": "address",
          "name": "implementation",
          "type": "address"
        }
      ],
      "name": "Upgraded",
      "type": "event"
    },
    {
      "inputs": [],
      "name": "DEFAULT_ADMIN_ROLE",
      "outputs": [
        {
          "internalType": "bytes32",
          "name": "",
          "type": "bytes32"
        }
      ],
      "stateMutability": "view",
      "type": "function"
    },
    {
      "inputs": [],
      "name": "PAUSER_ROLE",
      "outputs": [
        {
          "internalType": "bytes32",
          "name": "",
          "type": "bytes32"
        }
      ],
      "stateMutability": "view",
      "type": "function"
    },
    {
      "inputs": [],
      "name": "UPGRADER_ROLE",
      "outputs": [
        {
          "internalType": "bytes32",
          "name": "",
          "type": "bytes32"
        }
      ],
      "stateMutability": "view",
      "type": "function"
    },
    {
      "inputs": [],
      "name": "URI_SETTER_ROLE",
      "outputs": [
        {
          "internalType": "bytes32",
          "name": "",
          "type": "bytes32"
        }
      ],
      "stateMutability": "view",
      "type": "function"
    },
    {
      "inputs": [],
      "name": "USER_MANAGER_ROLE",
      "outputs": [
        {
          "internalType": "bytes32",
          "name": "",
          "type": "bytes32"
        }
      ],
      "stateMutability": "view",
      "type": "function"
    },
    {
      "inputs": [],
      "name": "VERIFIER_ROLE",
      "outputs": [
        {
          "internalType": "bytes32",
          "name": "",
          "type": "bytes32"
        }
      ],
      "stateMutability": "view",
      "type": "function"
    },
    {
      "inputs": [],
      "name": "_badgeStore",
      "outputs": [
        {
          "internalType": "contract TheBadgeStore",
          "name": "",
          "type": "address"
        }
      ],
      "stateMutability": "view",
      "type": "function"
    },
    {
      "inputs": [
        {
          "internalType": "address",
          "name": "account",
          "type": "address"
        },
        {
          "internalType": "uint256",
          "name": "badgeId",
          "type": "uint256"
        }
      ],
      "name": "balanceOf",
      "outputs": [
        {
          "internalType": "uint256",
          "name": "",
          "type": "uint256"
        }
      ],
      "stateMutability": "view",
      "type": "function"
    },
    {
      "inputs": [
        {
          "internalType": "address",
          "name": "account",
          "type": "address"
        },
        {
          "internalType": "uint256",
          "name": "badgeModelId",
          "type": "uint256"
        }
      ],
      "name": "balanceOfBadgeModel",
      "outputs": [
        {
          "internalType": "uint256",
          "name": "",
          "type": "uint256"
        }
      ],
      "stateMutability": "view",
      "type": "function"
    },
    {
      "inputs": [
        {
          "internalType": "address[]",
          "name": "accounts",
          "type": "address[]"
        },
        {
          "internalType": "uint256[]",
          "name": "ids",
          "type": "uint256[]"
        }
      ],
      "name": "balanceOfBatch",
      "outputs": [
        {
          "internalType": "uint256[]",
          "name": "",
          "type": "uint256[]"
        }
      ],
      "stateMutability": "view",
      "type": "function"
    },
    {
      "inputs": [
        {
          "internalType": "uint256",
          "name": "badgeId",
          "type": "uint256"
        },
        {
          "internalType": "bytes",
          "name": "data",
          "type": "bytes"
        }
      ],
      "name": "challenge",
      "outputs": [],
      "stateMutability": "payable",
      "type": "function"
    },
    {
      "inputs": [
        {
          "internalType": "uint256",
          "name": "badgeId",
          "type": "uint256"
        },
        {
          "internalType": "bytes",
          "name": "data",
          "type": "bytes"
        }
      ],
      "name": "claim",
      "outputs": [],
      "stateMutability": "nonpayable",
      "type": "function"
    },
    {
      "inputs": [
        {
          "internalType": "uint256",
          "name": "badgeId",
          "type": "uint256"
        }
      ],
      "name": "getChallengeDepositValue",
      "outputs": [
        {
          "internalType": "uint256",
          "name": "",
          "type": "uint256"
        }
      ],
      "stateMutability": "view",
      "type": "function"
    },
    {
      "inputs": [
        {
          "internalType": "uint256",
          "name": "badgeId",
          "type": "uint256"
        }
      ],
      "name": "getRemovalDepositValue",
      "outputs": [
        {
          "internalType": "uint256",
          "name": "",
          "type": "uint256"
        }
      ],
      "stateMutability": "view",
      "type": "function"
    },
    {
      "inputs": [
        {
          "internalType": "bytes32",
          "name": "role",
          "type": "bytes32"
        }
      ],
      "name": "getRoleAdmin",
      "outputs": [
        {
          "internalType": "bytes32",
          "name": "",
          "type": "bytes32"
        }
      ],
      "stateMutability": "view",
      "type": "function"
    },
    {
      "inputs": [],
      "name": "getStoreAddress",
      "outputs": [
        {
          "internalType": "address",
          "name": "",
          "type": "address"
        }
      ],
      "stateMutability": "view",
      "type": "function"
    },
    {
      "inputs": [
        {
          "internalType": "bytes32",
          "name": "role",
          "type": "bytes32"
        },
        {
          "internalType": "address",
          "name": "account",
          "type": "address"
        }
      ],
      "name": "grantRole",
      "outputs": [],
      "stateMutability": "nonpayable",
      "type": "function"
    },
    {
      "inputs": [
        {
          "internalType": "bytes32",
          "name": "role",
          "type": "bytes32"
        },
        {
          "internalType": "address",
          "name": "account",
          "type": "address"
        }
      ],
      "name": "hasRole",
      "outputs": [
        {
          "internalType": "bool",
          "name": "",
          "type": "bool"
        }
      ],
      "stateMutability": "view",
      "type": "function"
    },
    {
      "inputs": [
        {
          "internalType": "address",
          "name": "admin",
          "type": "address"
        },
        {
          "internalType": "address",
          "name": "badgeStore",
          "type": "address"
        }
      ],
      "name": "initialize",
      "outputs": [],
      "stateMutability": "nonpayable",
      "type": "function"
    },
    {
      "inputs": [
        {
          "internalType": "address",
          "name": "account",
          "type": "address"
        },
        {
          "internalType": "address",
          "name": "operator",
          "type": "address"
        }
      ],
      "name": "isApprovedForAll",
      "outputs": [
        {
          "internalType": "bool",
          "name": "",
          "type": "bool"
        }
      ],
      "stateMutability": "view",
      "type": "function"
    },
    {
      "inputs": [
        {
          "internalType": "uint256",
          "name": "badgeId",
          "type": "uint256"
        }
      ],
      "name": "isExpired",
      "outputs": [
        {
          "internalType": "bool",
          "name": "",
          "type": "bool"
        }
      ],
      "stateMutability": "view",
      "type": "function"
    },
    {
      "inputs": [
        {
          "internalType": "uint256",
          "name": "badgeModelId",
          "type": "uint256"
        },
        {
          "internalType": "address",
          "name": "account",
          "type": "address"
        },
        {
          "internalType": "string",
          "name": "tokenURI",
          "type": "string"
        },
        {
          "internalType": "bytes",
          "name": "data",
          "type": "bytes"
        }
      ],
      "name": "mint",
      "outputs": [],
      "stateMutability": "payable",
      "type": "function"
    },
    {
      "inputs": [
        {
          "internalType": "uint256",
          "name": "badgeModelId",
          "type": "uint256"
        }
      ],
      "name": "mintValue",
      "outputs": [
        {
          "internalType": "uint256",
          "name": "",
          "type": "uint256"
        }
      ],
      "stateMutability": "view",
      "type": "function"
    },
    {
      "inputs": [],
      "name": "name",
      "outputs": [
        {
          "internalType": "string",
          "name": "",
          "type": "string"
        }
      ],
      "stateMutability": "view",
      "type": "function"
    },
    {
      "inputs": [],
      "name": "pause",
      "outputs": [],
      "stateMutability": "nonpayable",
      "type": "function"
    },
    {
      "inputs": [],
      "name": "paused",
      "outputs": [
        {
          "internalType": "bool",
          "name": "",
          "type": "bool"
        }
      ],
      "stateMutability": "view",
      "type": "function"
    },
    {
      "inputs": [],
      "name": "proxiableUUID",
      "outputs": [
        {
          "internalType": "bytes32",
          "name": "",
          "type": "bytes32"
        }
      ],
      "stateMutability": "view",
      "type": "function"
    },
    {
      "inputs": [
        {
          "internalType": "uint256",
          "name": "badgeId",
          "type": "uint256"
        },
        {
          "internalType": "bytes",
          "name": "data",
          "type": "bytes"
        }
      ],
      "name": "removeItem",
      "outputs": [],
      "stateMutability": "payable",
      "type": "function"
    },
    {
      "inputs": [
        {
          "internalType": "bytes32",
          "name": "role",
          "type": "bytes32"
        },
        {
          "internalType": "address",
          "name": "account",
          "type": "address"
        }
      ],
      "name": "renounceRole",
      "outputs": [],
      "stateMutability": "nonpayable",
      "type": "function"
    },
    {
      "inputs": [
        {
          "internalType": "bytes32",
          "name": "role",
          "type": "bytes32"
        },
        {
          "internalType": "address",
          "name": "account",
          "type": "address"
        }
      ],
      "name": "revokeRole",
      "outputs": [],
      "stateMutability": "nonpayable",
      "type": "function"
    },
    {
      "inputs": [
        {
          "internalType": "address",
          "name": "from",
          "type": "address"
        },
        {
          "internalType": "address",
          "name": "to",
          "type": "address"
        },
        {
          "internalType": "uint256[]",
          "name": "ids",
          "type": "uint256[]"
        },
        {
          "internalType": "uint256[]",
          "name": "amounts",
          "type": "uint256[]"
        },
        {
          "internalType": "bytes",
          "name": "data",
          "type": "bytes"
        }
      ],
      "name": "safeBatchTransferFrom",
      "outputs": [],
      "stateMutability": "nonpayable",
      "type": "function"
    },
    {
      "inputs": [
        {
          "internalType": "address",
          "name": "from",
          "type": "address"
        },
        {
          "internalType": "address",
          "name": "to",
          "type": "address"
        },
        {
          "internalType": "uint256",
          "name": "id",
          "type": "uint256"
        },
        {
          "internalType": "uint256",
          "name": "amount",
          "type": "uint256"
        },
        {
          "internalType": "bytes",
          "name": "data",
          "type": "bytes"
        }
      ],
      "name": "safeTransferFrom",
      "outputs": [],
      "stateMutability": "nonpayable",
      "type": "function"
    },
    {
      "inputs": [
        {
          "internalType": "address",
          "name": "operator",
          "type": "address"
        },
        {
          "internalType": "bool",
          "name": "approved",
          "type": "bool"
        }
      ],
      "name": "setApprovalForAll",
      "outputs": [],
      "stateMutability": "nonpayable",
      "type": "function"
    },
    {
      "inputs": [
        {
          "internalType": "uint256",
          "name": "badgeId",
          "type": "uint256"
        },
        {
          "internalType": "bytes",
          "name": "data",
          "type": "bytes"
        }
      ],
      "name": "submitEvidence",
      "outputs": [],
      "stateMutability": "nonpayable",
      "type": "function"
    },
    {
      "inputs": [
        {
          "internalType": "bytes4",
          "name": "interfaceId",
          "type": "bytes4"
        }
      ],
      "name": "supportsInterface",
      "outputs": [
        {
          "internalType": "bool",
          "name": "",
          "type": "bool"
        }
      ],
      "stateMutability": "view",
      "type": "function"
    },
    {
      "inputs": [],
      "name": "unpause",
      "outputs": [],
      "stateMutability": "nonpayable",
      "type": "function"
    },
    {
      "inputs": [
        {
          "internalType": "uint256",
          "name": "_createBadgeModelValue",
          "type": "uint256"
        }
      ],
      "name": "updateCreateBadgeModelProtocolFee",
      "outputs": [],
      "stateMutability": "nonpayable",
      "type": "function"
    },
    {
      "inputs": [
        {
          "internalType": "uint256",
          "name": "_mintBadgeDefaultFee",
          "type": "uint256"
        }
      ],
      "name": "updateMintBadgeDefaultProtocolFee",
      "outputs": [],
      "stateMutability": "nonpayable",
      "type": "function"
    },
    {
      "inputs": [
        {
          "internalType": "uint256",
          "name": "_registerCreatorValue",
          "type": "uint256"
        }
      ],
      "name": "updateRegisterCreatorProtocolFee",
      "outputs": [],
      "stateMutability": "nonpayable",
      "type": "function"
    },
    {
      "inputs": [
        {
          "internalType": "address",
          "name": "newImplementation",
          "type": "address"
        }
      ],
      "name": "upgradeTo",
      "outputs": [],
      "stateMutability": "nonpayable",
      "type": "function"
    },
    {
      "inputs": [
        {
          "internalType": "address",
          "name": "newImplementation",
          "type": "address"
        },
        {
          "internalType": "bytes",
          "name": "data",
          "type": "bytes"
        }
      ],
      "name": "upgradeToAndCall",
      "outputs": [],
      "stateMutability": "payable",
      "type": "function"
    },
    {
      "inputs": [
        {
          "internalType": "uint256",
          "name": "badgeId",
          "type": "uint256"
        }
      ],
      "name": "uri",
      "outputs": [
        {
          "internalType": "string",
          "name": "",
          "type": "string"
        }
      ],
      "stateMutability": "view",
      "type": "function"
    },
    {
      "stateMutability": "payable",
      "type": "receive"
    }
  ],
  "bytecode": "0x60a0604052306080523480156200001557600080fd5b506200002062000026565b620000e7565b600054610100900460ff1615620000935760405162461bcd60e51b815260206004820152602760248201527f496e697469616c697a61626c653a20636f6e747261637420697320696e697469604482015266616c697a696e6760c81b606482015260840160405180910390fd5b60005460ff90811614620000e5576000805460ff191660ff9081179091556040519081527f7f26b83ff96e1f2b6a682f133852f6798a09c465da95921460cefb38474024989060200160405180910390a15b565b608051614efb6200011f60003960008181610ba601528181610be6015281816114320152818161147201526114ea0152614efb6000f3fe6080604052600436106102145760003560e01c80638456cb5911610119578063c5a3c7ca116100a6578063c5a3c7ca14610612578063d547741f14610632578063d7deba1514610652578063d9548e5314610672578063e181865114610692578063e63ab1e9146106b2578063e7705db6146106d4578063e985e9c514610708578063f1fe717e14610751578063f242432a14610771578063f72c0d8b1461079157600080fd5b80638456cb59146104fc57806391d148541461051157806393c7a71b146105315780639faf715814610551578063a03aafbf14610564578063a217fddf14610577578063a22cb4651461058c578063a41e35c3146105ac578063b07ed3a9146105e0578063c1d18840146105ff57600080fd5b806338926b6d116101a257806338926b6d146103a65780633f4ba83a146103c657806346c45758146103db578063485cc955146103fb5780634e1273f41461041b5780634f1ef2861461044857806352d1902d1461045b5780635c975abb14610470578063632f7c83146104885780637eb7f176146104a85780637f345710146104c857600080fd5b8062fdd58e1461022057806301ffc9a71461025357806306fdde03146102835780630e89341c146102a557806319b50c2a146102c5578063248a9ca3146102f35780632eb2c2d6146103245780632f2ff15d1461034657806336568abe146103665780633659cfe61461038657600080fd5b3661021b57005b600080fd5b34801561022c57600080fd5b5061024061023b366004613c54565b6107b3565b6040519081526020015b60405180910390f35b34801561025f57600080fd5b5061027361026e366004613c96565b6109f9565b604051901515815260200161024a565b34801561028f57600080fd5b50610298610a04565b60405161024a9190613d03565b3480156102b157600080fd5b506102986102c0366004613d16565b610a93565b3480156102d157600080fd5b50610191546102e6906001600160a01b031681565b60405161024a9190613d2f565b3480156102ff57600080fd5b5061024061030e366004613d16565b600090815261015f602052604090206001015490565b34801561033057600080fd5b5061034461033f366004613ef4565b610a9e565b005b34801561035257600080fd5b50610344610361366004613fa1565b610af3565b34801561037257600080fd5b50610344610381366004613fa1565b610b1e565b34801561039257600080fd5b506103446103a1366004613fd1565b610b9c565b3480156103b257600080fd5b506103446103c1366004613fee565b610c64565b3480156103d257600080fd5b50610344610e5e565b3480156103e757600080fd5b506102406103f6366004613c54565b610e7e565b34801561040757600080fd5b50610344610416366004614069565b6110db565b34801561042757600080fd5b5061043b610436366004614097565b6112ff565b60405161024a919061419e565b6103446104563660046141b1565b611428565b34801561046757600080fd5b506102406114dd565b34801561047c57600080fd5b5060c95460ff16610273565b34801561049457600080fd5b506102406104a3366004613d16565b61158c565b3480156104b457600080fd5b506102406104c3366004613d16565b61172d565b3480156104d457600080fd5b506102407f7804d923f43a17d325d77e781528e0793b2edd9890ab45fc64efd7b4b427744c81565b34801561050857600080fd5b506103446118a6565b34801561051d57600080fd5b5061027361052c366004613fa1565b6118c6565b34801561053d57600080fd5b5061034461054c366004613fee565b6118f2565b61034461055f366004613fee565b611a26565b610344610572366004613fee565b611b97565b34801561058357600080fd5b50610240600081565b34801561059857600080fd5b506103446105a7366004614204565b611ccd565b3480156105b857600080fd5b506102407fcbaaf41b181bb6e269c490e876a7c97711b57e21dd8e5528423cf57579726b3581565b3480156105ec57600080fd5b50610191546001600160a01b03166102e6565b61034461060d366004614232565b611cd8565b34801561061e57600080fd5b5061034461062d366004613d16565b612270565b34801561063e57600080fd5b5061034461064d366004613fa1565b612308565b34801561065e57600080fd5b5061024061066d366004613d16565b61232e565b34801561067e57600080fd5b5061027361068d366004613d16565b612460565b34801561069e57600080fd5b506103446106ad366004613d16565b61251f565b3480156106be57600080fd5b50610240600080516020614e7f83398151915281565b3480156106e057600080fd5b506102407f0ce23c3e399818cfee81a7ab0880f714e53d7672b08df0fa62f2843416e1ea0981565b34801561071457600080fd5b50610273610723366004614069565b6001600160a01b03918216600090815260666020908152604080832093909416825291909152205460ff1690565b34801561075d57600080fd5b5061034461076c366004613d16565b61255c565b34801561077d57600080fd5b5061034461078c3660046142c8565b612599565b34801561079d57600080fd5b50610240600080516020614e3f83398151915281565b610191546040516346c1c31160e11b81526004810183905260009182916001600160a01b0390911690638d83862290602401608060405180830381865afa158015610802573d6000803e3d6000fd5b505050506040513d601f19601f82011682018060405250810190610826919061434b565b606081015190915015806108505750836001600160a01b031681602001516001600160a01b031614155b1561085f5760009150506109f3565b61086883612460565b151560010361087b5760009150506109f3565b61019154815160405163f2be2c8560e01b815260048101919091526000916001600160a01b03169063f2be2c8590602401600060405180830381865afa1580156108c9573d6000803e3d6000fd5b505050506040513d6000823e601f3d908101601f191682016040526108f1919081019061440c565b610191546020820151604051631c2e21b960e11b81529293506000926001600160a01b039092169163385c43729161092b91600401613d03565b606060405180830381865afa158015610948573d6000803e3d6000fd5b505050506040513d601f19601f8201168201806040525081019061096c91906144ee565b8051604051631174806160e11b815260048101889052919250906001600160a01b038216906322e900c290602401602060405180830381865afa1580156109b7573d6000803e3d6000fd5b505050506040513d601f19601f820116820180604052508101906109db919061455f565b6109e65760006109e9565b60015b60ff169450505050505b92915050565b60006109f3826125de565b6101928054610a129061457c565b80601f0160208091040260200160405190810160405280929190818152602001828054610a3e9061457c565b8015610a8b5780601f10610a6057610100808354040283529160200191610a8b565b820191906000526020600020905b815481529060010190602001808311610a6e57829003601f168201915b505050505081565b60606109f382612603565b6001600160a01b038516331480610aba5750610aba8533610723565b610adf5760405162461bcd60e51b8152600401610ad6906145b6565b60405180910390fd5b610aec85858585856126e2565b5050505050565b600082815261015f6020526040902060010154610b0f816128d0565b610b1983836128da565b505050565b6001600160a01b0381163314610b8e5760405162461bcd60e51b815260206004820152602f60248201527f416363657373436f6e74726f6c3a2063616e206f6e6c792072656e6f756e636560448201526e103937b632b9903337b91039b2b63360891b6064820152608401610ad6565b610b988282612961565b5050565b6001600160a01b037f0000000000000000000000000000000000000000000000000000000000000000163003610be45760405162461bcd60e51b8152600401610ad690614604565b7f00000000000000000000000000000000000000000000000000000000000000006001600160a01b0316610c166129c9565b6001600160a01b031614610c3c5760405162461bcd60e51b8152600401610ad690614650565b610c45816129e5565b60408051600080825260208201909252610c61918391906129fd565b50565b6000610c6f84612b68565b6101915460405163f2be2c8560e01b8152600481018390529192506000916001600160a01b039091169063f2be2c8590602401600060405180830381865afa158015610cbf573d6000803e3d6000fd5b505050506040513d6000823e601f3d908101601f19168201604052610ce7919081019061440c565b610191546020820151604051631c2e21b960e11b81529293506000926001600160a01b039092169163385c437291610d2191600401613d03565b606060405180830381865afa158015610d3e573d6000803e3d6000fd5b505050506040513d601f19601f82011682018060405250810190610d6291906144ee565b80516040516389610a0960e01b815260048101899052919250906001600160a01b038216906389610a0990602401602060405180830381865afa158015610dad573d6000803e3d6000fd5b505050506040513d601f19601f82011682018060405250810190610dd1919061455f565b1515600003610df357604051632edd9d0f60e21b815260040160405180910390fd5b6040516338926b6d60e01b81526001600160a01b038216906338926b6d90610e23908a908a908a9060040161469c565b600060405180830381600087803b158015610e3d57600080fd5b505af1158015610e51573d6000803e3d6000fd5b5050505050505050505050565b600080516020614e7f833981519152610e76816128d0565b610c61612cae565b610191546040516304239ea560e11b8152600481018390526001600160a01b03848116602483015260009283929116906308473d4a90604401600060405180830381865afa158015610ed4573d6000803e3d6000fd5b505050506040513d6000823e601f3d908101601f19168201604052610efc91908101906146d2565b90508051600003610f115760009150506109f3565b6101915460405163f2be2c8560e01b8152600481018590526000916001600160a01b03169063f2be2c8590602401600060405180830381865afa158015610f5c573d6000803e3d6000fd5b505050506040513d6000823e601f3d908101601f19168201604052610f84919081019061440c565b610191546020820151604051631c2e21b960e11b81529293506000926001600160a01b039092169163385c437291610fbe91600401613d03565b606060405180830381865afa158015610fdb573d6000803e3d6000fd5b505050506040513d601f19601f82011682018060405250810190610fff91906144ee565b80519091506000805b85518110156110cf5760008682815181106110255761102561476d565b6020026020010151905061103881612460565b1580156110a95750604051631174806160e11b8152600481018290526001600160a01b038516906322e900c290602401602060405180830381865afa158015611085573d6000803e3d6000fd5b505050506040513d601f19601f820116820180604052508101906110a9919061455f565b156110bc57826110b881614799565b9350505b50806110c781614799565b915050611008565b50979650505050505050565b600054610100900460ff16158080156110fb5750600054600160ff909116105b8061111c575061110a30612cfa565b15801561111c575060005460ff166001145b61117f5760405162461bcd60e51b815260206004820152602e60248201527f496e697469616c697a61626c653a20636f6e747261637420697320616c72656160448201526d191e481a5b9a5d1a585b1a5e995960921b6064820152608401610ad6565b6000805460ff1916600117905580156111a2576000805461ff0019166101001790555b6111ba60405180602001604052806000815250612d09565b6111c2612d39565b6111ca612d62565b6111d2612d39565b6111dd6000846128da565b6111f5600080516020614e7f833981519152846128da565b61120d600080516020614e3f833981519152846128da565b6112377f0ce23c3e399818cfee81a7ab0880f714e53d7672b08df0fa62f2843416e1ea09846128da565b61019180546001600160a01b0319166001600160a01b038416179055604080518082019091526008815267546865426164676560c01b60208201526101929061128090826147f8565b506040516001600160a01b038416907f36b1453565f45af7b509b59d5e2eac8f1948ea9e3e193db6663b4101afb6382c90600090a28015610b19576000805461ff0019169055604051600181527f7f26b83ff96e1f2b6a682f133852f6798a09c465da95921460cefb38474024989060200160405180910390a1505050565b606081518351146113645760405162461bcd60e51b815260206004820152602960248201527f455243313135353a206163636f756e747320616e6420696473206c656e677468604482015268040dad2e6dac2e8c6d60bb1b6064820152608401610ad6565b600083516001600160401b0381111561137f5761137f613d43565b6040519080825280602002602001820160405280156113a8578160200160208202803683370190505b50905060005b8451811015611420576113f38582815181106113cc576113cc61476d565b60200260200101518583815181106113e6576113e661476d565b60200260200101516107b3565b8282815181106114055761140561476d565b602090810291909101015261141981614799565b90506113ae565b509392505050565b6001600160a01b037f00000000000000000000000000000000000000000000000000000000000000001630036114705760405162461bcd60e51b8152600401610ad690614604565b7f00000000000000000000000000000000000000000000000000000000000000006001600160a01b03166114a26129c9565b6001600160a01b0316146114c85760405162461bcd60e51b8152600401610ad690614650565b6114d1826129e5565b610b98828260016129fd565b6000306001600160a01b037f000000000000000000000000000000000000000000000000000000000000000016146115785760405162461bcd60e51b815260206004820152603860248201527f555550535570677261646561626c653a206d757374206e6f742062652063616c6044820152771b1959081d1a1c9bdd59da0819195b1959d85d1958d85b1b60421b6064820152608401610ad6565b50600080516020614e5f8339815191525b90565b6101915460405163f2be2c8560e01b81526004810183905260009182916001600160a01b039091169063f2be2c8590602401600060405180830381865afa1580156115db573d6000803e3d6000fd5b505050506040513d6000823e601f3d908101601f19168201604052611603919081019061440c565b80519091506001600160a01b031661162e576040516385a6706360e01b815260040160405180910390fd5b610191546020820151604051631c2e21b960e11b81526000926001600160a01b03169163385c4372916116649190600401613d03565b606060405180830381865afa158015611681573d6000803e3d6000fd5b505050506040513d601f19601f820116820180604052508101906116a591906144ee565b8051606084015160405163632f7c8360e01b81526004810188905292935090916001600160a01b0383169063632f7c8390602401602060405180830381865afa1580156116f6573d6000803e3d6000fd5b505050506040513d601f19601f8201168201806040525081019061171a91906148b7565b61172491906148d0565b95945050505050565b60008061173983612b68565b6101915460405163f2be2c8560e01b8152600481018390529192506000916001600160a01b039091169063f2be2c8590602401600060405180830381865afa158015611789573d6000803e3d6000fd5b505050506040513d6000823e601f3d908101601f191682016040526117b1919081019061440c565b610191546020820151604051631c2e21b960e11b81529293506000926001600160a01b039092169163385c4372916117eb91600401613d03565b606060405180830381865afa158015611808573d6000803e3d6000fd5b505050506040513d601f19601f8201168201806040525081019061182c91906144ee565b8051604051633f5bf8bb60e11b815260048101889052919250906001600160a01b03821690637eb7f176906024015b602060405180830381865afa158015611878573d6000803e3d6000fd5b505050506040513d601f19601f8201168201806040525081019061189c91906148b7565b9695505050505050565b600080516020614e7f8339815191526118be816128d0565b610c61612d91565b600091825261015f602090815260408084206001600160a01b0393909316845291905290205460ff1690565b60006118fd84612b68565b6101915460405163f2be2c8560e01b8152600481018390529192506000916001600160a01b039091169063f2be2c8590602401600060405180830381865afa15801561194d573d6000803e3d6000fd5b505050506040513d6000823e601f3d908101601f19168201604052611975919081019061440c565b610191546020820151604051631c2e21b960e11b81529293506000926001600160a01b039092169163385c4372916119af91600401613d03565b606060405180830381865afa1580156119cc573d6000803e3d6000fd5b505050506040513d601f19601f820116820180604052508101906119f091906144ee565b80516040516393c7a71b60e01b8152919250906001600160a01b038216906393c7a71b90610e23908a908a908a9060040161469c565b6000611a3184612b68565b6101915460405163f2be2c8560e01b8152600481018390529192506000916001600160a01b039091169063f2be2c8590602401600060405180830381865afa158015611a81573d6000803e3d6000fd5b505050506040513d6000823e601f3d908101601f19168201604052611aa9919081019061440c565b610191546020820151604051631c2e21b960e11b81529293506000926001600160a01b039092169163385c437291611ae391600401613d03565b606060405180830381865afa158015611b00573d6000803e3d6000fd5b505050506040513d601f19601f82011682018060405250810190611b2491906144ee565b80516040516313f5ee2b60e31b8152919250906001600160a01b03821690639faf7158903490611b5c908b908b908b9060040161469c565b6000604051808303818588803b158015611b7557600080fd5b505af1158015611b89573d6000803e3d6000fd5b505050505050505050505050565b6000611ba284612b68565b6101915460405163f2be2c8560e01b8152600481018390529192506000916001600160a01b039091169063f2be2c8590602401600060405180830381865afa158015611bf2573d6000803e3d6000fd5b505050506040513d6000823e601f3d908101601f19168201604052611c1a919081019061440c565b610191546020820151604051631c2e21b960e11b81529293506000926001600160a01b039092169163385c437291611c5491600401613d03565b606060405180830381865afa158015611c71573d6000803e3d6000fd5b505050506040513d601f19601f82011682018060405250810190611c9591906144ee565b805160405163a03aafbf60e01b8152919250906001600160a01b0382169063a03aafbf903490611b5c908b908b908b9060040161469c565b610b98338383612dce565b6101915460405163f2be2c8560e01b81526004810186905285916000916001600160a01b039091169063f2be2c8590602401600060405180830381865afa158015611d27573d6000803e3d6000fd5b505050506040513d6000823e601f3d908101601f19168201604052611d4f919081019061440c565b610191546020820151604051631c2e21b960e11b81529293506000926001600160a01b039092169163385c437291611d8991600401613d03565b606060405180830381865afa158015611da6573d6000803e3d6000fd5b505050506040513d601f19601f82011682018060405250810190611dca91906144ee565b80518351919250906001600160a01b0316611df8576040516385a6706360e01b815260040160405180910390fd5b826040015115611e1b57604051635d71fd6f60e01b815260040160405180910390fd5b816020015115611e3e57604051631bd063c360e01b815260040160405180910390fd5b610191548351604051636f77926b60e01b81526000926001600160a01b031691636f77926b91611e719190600401613d2f565b600060405180830381865afa158015611e8e573d6000803e3d6000fd5b505050506040513d6000823e601f3d908101601f19168201604052611eb691908101906148e3565b60608101519091501515600103611ee05760405163a800bb9d60e01b815260040160405180910390fd5b88888789611eed8461158c565b341015611f0d576040516393fda7e360e01b815260040160405180910390fd5b6101915460405163f2be2c8560e01b8152600481018690526000916001600160a01b03169063f2be2c8590602401600060405180830381865afa158015611f58573d6000803e3d6000fd5b505050506040513d6000823e601f3d908101601f19168201604052611f80919081019061440c565b606081015190915015611f9657611f9685612de7565b610191546020820151604051631c2e21b960e11b81526000926001600160a01b03169163385c437291611fcc9190600401613d03565b606060405180830381865afa158015611fe9573d6000803e3d6000fd5b505050506040513d601f19601f8201168201806040525081019061200d91906144ee565b805161019154604080516308e5bf2160e01b8152905193945091926000926001600160a01b03909216916308e5bf219160048083019260209291908290030181865afa158015612061573d6000803e3d6000fd5b505050506040513d601f19601f8201168201806040525081019061208591906148b7565b9050612091818661308e565b6120b88782600160405180604001604052806002815260200161060f60f31b8152506130eb565b6000826001600160a01b031663731133e98660600151346120d991906149ac565b338c868c6040518663ffffffff1660e01b81526004016120fc94939291906149bf565b60206040518083038185885af115801561211a573d6000803e3d6000fd5b50505050506040513d601f19601f8201168201806040525081019061213f91906148b7565b90506000856080015160001461216357608086015161215e90426148d0565b612166565b60005b604080516080810182528c81526001600160a01b038c811660208301908152828401858152600160608501908152610191549551634085b52760e01b8152600481018b9052855160248201529251841660448401529051606483015251151560848201529394509092911690634085b5279060a401600060405180830381600087803b1580156121f557600080fd5b505af1158015612209573d6000803e3d6000fd5b50508751604080516001600160a01b03928316815260208101889052918e1693508792508e917f186b125f639893ac3dcb02d857d0fd29319e8f764fd26f4a77310e8c678fbbd0910160405180910390a45050505050505050505050505050505050505050565b600061227b816128d0565b610191546040516362d1e3e560e11b8152600481018490526001600160a01b039091169063c5a3c7ca906024015b600060405180830381600087803b1580156122c357600080fd5b505af11580156122d7573d6000803e3d6000fd5b50506040517f810f1720fbc34c56d171f89315ad21708648fd17424c27b88fa208409845aa77925060009150a15050565b600082815261015f6020526040902060010154612324816128d0565b610b198383612961565b60008061233a83612b68565b6101915460405163f2be2c8560e01b8152600481018390529192506000916001600160a01b039091169063f2be2c8590602401600060405180830381865afa15801561238a573d6000803e3d6000fd5b505050506040513d6000823e601f3d908101601f191682016040526123b2919081019061440c565b610191546020820151604051631c2e21b960e11b81529293506000926001600160a01b039092169163385c4372916123ec91600401613d03565b606060405180830381865afa158015612409573d6000803e3d6000fd5b505050506040513d601f19601f8201168201806040525081019061242d91906144ee565b805160405163d7deba1560e01b815260048101889052919250906001600160a01b0382169063d7deba159060240161185b565b610191546040516346c1c31160e11b81526004810183905260009182916001600160a01b0390911690638d83862290602401608060405180830381865afa1580156124af573d6000803e3d6000fd5b505050506040513d601f19601f820116820180604052508101906124d3919061434b565b606081015190915015156000036124ed5750600092915050565b80604001516000036125025750600092915050565b4281604001511115612515576000612518565b60015b9392505050565b600061252a816128d0565b6101915460405163e181865160e01b8152600481018490526001600160a01b039091169063e1818651906024016122a9565b6000612567816128d0565b610191546040516378ff38bf60e11b8152600481018490526001600160a01b039091169063f1fe717e906024016122a9565b6001600160a01b0385163314806125b557506125b58533610723565b6125d15760405162461bcd60e51b8152600401610ad6906145b6565b610aec8585858585613210565b60006001600160e01b03198216637965db0b60e01b14806109f357506109f38261334c565b6000818152609860205260408120805460609291906126219061457c565b80601f016020809104026020016040519081016040528092919081815260200182805461264d9061457c565b801561269a5780601f1061266f5761010080835404028352916020019161269a565b820191906000526020600020905b81548152906001019060200180831161267d57829003601f168201915b5050505050905060008151116126b8576126b38361339c565b612518565b6097816040516020016126cc9291906149ec565b6040516020818303038152906040529392505050565b81518351146127445760405162461bcd60e51b815260206004820152602860248201527f455243313135353a2069647320616e6420616d6f756e7473206c656e677468206044820152670dad2e6dac2e8c6d60c31b6064820152608401610ad6565b6001600160a01b03841661276a5760405162461bcd60e51b8152600401610ad690614a73565b33612779818787878787613430565b60005b84518110156128625760008582815181106127995761279961476d565b6020026020010151905060008583815181106127b7576127b761476d565b60209081029190910181015160008481526065835260408082206001600160a01b038e1683529093529190912054909150818110156128085760405162461bcd60e51b8152600401610ad690614ab8565b60008381526065602090815260408083206001600160a01b038e8116855292528083208585039055908b168252812080548492906128479084906148d0565b925050819055505050508061285b90614799565b905061277c565b50846001600160a01b0316866001600160a01b0316826001600160a01b03167f4a39dc06d4c0dbc64b70af90fd698a233a518aa5d07e595d983b8c0526c8f7fb87876040516128b2929190614b02565b60405180910390a46128c8818787878787613465565b505050505050565b610c6181336135c7565b6128e482826118c6565b610b9857600082815261015f602090815260408083206001600160a01b03851684529091529020805460ff1916600117905561291d3390565b6001600160a01b0316816001600160a01b0316837f2f8788117e7eff1d82e926ec794901d17c78024a50270940304540a733656f0d60405160405180910390a45050565b61296b82826118c6565b15610b9857600082815261015f602090815260408083206001600160a01b0385168085529252808320805460ff1916905551339285917ff6391f5c32d9c69d2a47ea670b442974b53935d1edc7fd64eb21e047a839171b9190a45050565b600080516020614e5f833981519152546001600160a01b031690565b600080516020614e3f833981519152610b98816128d0565b7f4910fdfa16fed3260ed0e7147f7cc6da11a60208b5b9406d12a635614ffd91435460ff1615612a3057610b1983613620565b826001600160a01b03166352d1902d6040518163ffffffff1660e01b8152600401602060405180830381865afa925050508015612a8a575060408051601f3d908101601f19168201909252612a87918101906148b7565b60015b612aed5760405162461bcd60e51b815260206004820152602e60248201527f45524331393637557067726164653a206e657720696d706c656d656e7461746960448201526d6f6e206973206e6f74205555505360901b6064820152608401610ad6565b600080516020614e5f8339815191528114612b5c5760405162461bcd60e51b815260206004820152602960248201527f45524331393637557067726164653a20756e737570706f727465642070726f786044820152681a58589b195555525160ba1b6064820152608401610ad6565b50610b198383836136ba565b610191546040516346c1c31160e11b81526004810183905260009182916001600160a01b0390911690638d83862290602401608060405180830381865afa158015612bb7573d6000803e3d6000fd5b505050506040513d601f19601f82011682018060405250810190612bdb919061434b565b60608101519091501515600003612c055760405163f97195bf60e01b815260040160405180910390fd5b61019154815160405163f2be2c8560e01b815260048101919091526000916001600160a01b03169063f2be2c8590602401600060405180830381865afa158015612c53573d6000803e3d6000fd5b505050506040513d6000823e601f3d908101601f19168201604052612c7b919081019061440c565b80519091506001600160a01b0316612ca6576040516385a6706360e01b815260040160405180910390fd5b505192915050565b612cb66136e5565b60c9805460ff191690557f5db9ee0a495bf2e6ff9c91a7834c1ba4fdd244a5e8aa4e537bd38aeae4b073aa335b604051612cf09190613d2f565b60405180910390a1565b6001600160a01b03163b151590565b600054610100900460ff16612d305760405162461bcd60e51b8152600401610ad690614b27565b610c618161372e565b600054610100900460ff16612d605760405162461bcd60e51b8152600401610ad690614b27565b565b600054610100900460ff16612d895760405162461bcd60e51b8152600401610ad690614b27565b612d6061375e565b612d99613791565b60c9805460ff191660011790557f62e78cea01bee320cd4e420270b5ea74000d11b0c9f74754ebdbfc544b05a258612ce33390565b6040516305d39ac360e51b815260040160405180910390fd5b6101915460405163f2be2c8560e01b8152600481018390526000916001600160a01b03169063f2be2c8590602401600060405180830381865afa158015612e32573d6000803e3d6000fd5b505050506040513d6000823e601f3d908101601f19168201604052612e5a919081019061440c565b9050600061019160009054906101000a90046001600160a01b03166001600160a01b031663c415b95c6040518163ffffffff1660e01b8152600401602060405180830381865afa158015612eb2573d6000803e3d6000fd5b505050506040513d601f19601f82011682018060405250810190612ed69190614b72565b90506000612eec83606001518460a001516137d7565b90506000818460600151612f0091906149ac565b90506000836001600160a01b03168360405160006040518083038185875af1925050503d8060008114612f4f576040519150601f19603f3d011682016040523d82523d6000602084013e612f54565b606091505b5090915050801515600003612f7c576040516372f7724f60e01b815260040160405180910390fd5b8560006001600160a01b0386167fdf7cc5ebdb7be805a1d96fd982aba37cbf8e9169d6f34870e8d63a62cd492f643387604051612fba929190614b8f565b60405180910390a484516040516000916001600160a01b03169084908381818185875af1925050503d806000811461300e576040519150601f19603f3d011682016040523d82523d6000602084013e613013565b606091505b509091505080151560000361303b57604051633b50281160e11b815260040160405180910390fd5b86600187600001516001600160a01b03167fdf7cc5ebdb7be805a1d96fd982aba37cbf8e9169d6f34870e8d63a62cd492f64888760405161307d929190614b8f565b60405180910390a450505050505050565b60008281526098602052604090206130a682826147f8565b50817f6bb7ff708619ba0610cba295a58592e0451dee2622938c8755667688daf3529b6130d284610a93565b6040516130df9190613d03565b60405180910390a25050565b6001600160a01b03841661314b5760405162461bcd60e51b815260206004820152602160248201527f455243313135353a206d696e7420746f20746865207a65726f206164647265736044820152607360f81b6064820152608401610ad6565b3360006131578561381c565b905060006131648561381c565b905061317583600089858589613430565b60008681526065602090815260408083206001600160a01b038b168452909152812080548792906131a79084906148d0565b909155505060408051878152602081018790526001600160a01b03808a1692600092918716917fc3d58168c5ae7397731d063d5bbf3d657854427343f4c083240f7aacaa2d0f62910160405180910390a461320783600089898989613867565b50505050505050565b6001600160a01b0384166132365760405162461bcd60e51b8152600401610ad690614a73565b3360006132428561381c565b9050600061324f8561381c565b905061325f838989858589613430565b60008681526065602090815260408083206001600160a01b038c168452909152902054858110156132a25760405162461bcd60e51b8152600401610ad690614ab8565b60008781526065602090815260408083206001600160a01b038d8116855292528083208985039055908a168252812080548892906132e19084906148d0565b909155505060408051888152602081018890526001600160a01b03808b16928c821692918816917fc3d58168c5ae7397731d063d5bbf3d657854427343f4c083240f7aacaa2d0f62910160405180910390a4613341848a8a8a8a8a613867565b505050505050505050565b60006001600160e01b03198216636cdb3d1360e11b148061337d57506001600160e01b031982166303a24d0760e21b145b806109f357506301ffc9a760e01b6001600160e01b03198316146109f3565b6060606780546133ab9061457c565b80601f01602080910402602001604051908101604052809291908181526020018280546133d79061457c565b80156134245780601f106133f957610100808354040283529160200191613424565b820191906000526020600020905b81548152906001019060200180831161340757829003601f168201915b50505050509050919050565b613438613791565b6001600160a01b03851615613460576040516305d39ac360e51b815260040160405180910390fd5b6128c8565b613477846001600160a01b0316612cfa565b156128c85760405163bc197c8160e01b81526001600160a01b0385169063bc197c81906134b09089908990889088908890600401614bc2565b6020604051808303816000875af19250505080156134eb575060408051601f3d908101601f191682019092526134e891810190614c20565b60015b613597576134f7614c3d565b806308c379a003613530575061350b614c58565b806135165750613532565b8060405162461bcd60e51b8152600401610ad69190613d03565b505b60405162461bcd60e51b815260206004820152603460248201527f455243313135353a207472616e7366657220746f206e6f6e2d455243313135356044820152732932b1b2b4bb32b91034b6b83632b6b2b73a32b960611b6064820152608401610ad6565b6001600160e01b0319811663bc197c8160e01b146132075760405162461bcd60e51b8152600401610ad690614ce1565b6135d182826118c6565b610b98576135de81613929565b6135e983602061393b565b6040516020016135fa929190614d29565b60408051601f198184030181529082905262461bcd60e51b8252610ad691600401613d03565b61362981612cfa565b61368b5760405162461bcd60e51b815260206004820152602d60248201527f455243313936373a206e657720696d706c656d656e746174696f6e206973206e60448201526c1bdd08184818dbdb9d1c9858dd609a1b6064820152608401610ad6565b600080516020614e5f83398151915280546001600160a01b0319166001600160a01b0392909216919091179055565b6136c383613ad6565b6000825111806136d05750805b15610b19576136df8383613b16565b50505050565b60c95460ff16612d605760405162461bcd60e51b815260206004820152601460248201527314185d5cd8589b194e881b9bdd081c185d5cd95960621b6044820152606401610ad6565b600054610100900460ff166137555760405162461bcd60e51b8152600401610ad690614b27565b610c6181613b3b565b600054610100900460ff166137855760405162461bcd60e51b8152600401610ad690614b27565b60c9805460ff19169055565b60c95460ff1615612d605760405162461bcd60e51b815260206004820152601060248201526f14185d5cd8589b194e881c185d5cd95960821b6044820152606401610ad6565b60006127106137e68385614d98565b101561380557604051633032107560e21b815260040160405180910390fd5b6127106138128385614d98565b6125189190614daf565b604080516001808252818301909252606091600091906020808301908036833701905050905082816000815181106138565761385661476d565b602090810291909101015292915050565b613879846001600160a01b0316612cfa565b156128c85760405163f23a6e6160e01b81526001600160a01b0385169063f23a6e61906138b29089908990889088908890600401614dd1565b6020604051808303816000875af19250505080156138ed575060408051601f3d908101601f191682019092526138ea91810190614c20565b60015b6138f9576134f7614c3d565b6001600160e01b0319811663f23a6e6160e01b146132075760405162461bcd60e51b8152600401610ad690614ce1565b60606109f36001600160a01b03831660145b6060600061394a836002614d98565b6139559060026148d0565b6001600160401b0381111561396c5761396c613d43565b6040519080825280601f01601f191660200182016040528015613996576020820181803683370190505b509050600360fc1b816000815181106139b1576139b161476d565b60200101906001600160f81b031916908160001a905350600f60fb1b816001815181106139e0576139e061476d565b60200101906001600160f81b031916908160001a9053506000613a04846002614d98565b613a0f9060016148d0565b90505b6001811115613a87576f181899199a1a9b1b9c1cb0b131b232b360811b85600f1660108110613a4357613a4361476d565b1a60f81b828281518110613a5957613a5961476d565b60200101906001600160f81b031916908160001a90535060049490941c93613a8081614e0b565b9050613a12565b5083156125185760405162461bcd60e51b815260206004820181905260248201527f537472696e67733a20686578206c656e67746820696e73756666696369656e746044820152606401610ad6565b613adf81613620565b6040516001600160a01b038216907fbc7cd75a20ee27fd9adebab32041f755214dbc6bffa90cc0225b39da2e5c2d3b90600090a250565b60606125188383604051806060016040528060278152602001614e9f60279139613b47565b6067610b9882826147f8565b6060600080856001600160a01b031685604051613b649190614e22565b600060405180830381855af49150503d8060008114613b9f576040519150601f19603f3d011682016040523d82523d6000602084013e613ba4565b606091505b509150915061189c8683838760608315613c1d578251600003613c1657613bca85612cfa565b613c165760405162461bcd60e51b815260206004820152601d60248201527f416464726573733a2063616c6c20746f206e6f6e2d636f6e74726163740000006044820152606401610ad6565b5081613c27565b613c278383613c2f565b949350505050565b8151156135165781518083602001fd5b6001600160a01b0381168114610c6157600080fd5b60008060408385031215613c6757600080fd5b8235613c7281613c3f565b946020939093013593505050565b6001600160e01b031981168114610c6157600080fd5b600060208284031215613ca857600080fd5b813561251881613c80565b60005b83811015613cce578181015183820152602001613cb6565b50506000910152565b60008151808452613cef816020860160208601613cb3565b601f01601f19169290920160200192915050565b6020815260006125186020830184613cd7565b600060208284031215613d2857600080fd5b5035919050565b6001600160a01b0391909116815260200190565b634e487b7160e01b600052604160045260246000fd5b60a081018181106001600160401b0382111715613d7857613d78613d43565b60405250565b601f8201601f191681016001600160401b0381118282101715613da357613da3613d43565b6040525050565b60405161010081016001600160401b0381118282101715613dcd57613dcd613d43565b60405290565b60006001600160401b03821115613dec57613dec613d43565b5060051b60200190565b600082601f830112613e0757600080fd5b81356020613e1482613dd3565b604051613e218282613d7e565b83815260059390931b8501820192828101915086841115613e4157600080fd5b8286015b84811015613e5c5780358352918301918301613e45565b509695505050505050565b60006001600160401b03821115613e8057613e80613d43565b50601f01601f191660200190565b6000613e9983613e67565b604051613ea68282613d7e565b809250848152858585011115613ebb57600080fd5b8484602083013760006020868301015250509392505050565b600082601f830112613ee557600080fd5b61251883833560208501613e8e565b600080600080600060a08688031215613f0c57600080fd5b8535613f1781613c3f565b94506020860135613f2781613c3f565b935060408601356001600160401b0380821115613f4357600080fd5b613f4f89838a01613df6565b94506060880135915080821115613f6557600080fd5b613f7189838a01613df6565b93506080880135915080821115613f8757600080fd5b50613f9488828901613ed4565b9150509295509295909350565b60008060408385031215613fb457600080fd5b823591506020830135613fc681613c3f565b809150509250929050565b600060208284031215613fe357600080fd5b813561251881613c3f565b60008060006040848603121561400357600080fd5b8335925060208401356001600160401b038082111561402157600080fd5b818601915086601f83011261403557600080fd5b81358181111561404457600080fd5b87602082850101111561405657600080fd5b6020830194508093505050509250925092565b6000806040838503121561407c57600080fd5b823561408781613c3f565b91506020830135613fc681613c3f565b600080604083850312156140aa57600080fd5b82356001600160401b03808211156140c157600080fd5b818501915085601f8301126140d557600080fd5b813560206140e282613dd3565b6040516140ef8282613d7e565b83815260059390931b850182019282810191508984111561410f57600080fd5b948201945b8386101561413657853561412781613c3f565b82529482019490820190614114565b9650508601359250508082111561414c57600080fd5b5061415985828601613df6565b9150509250929050565b600081518084526020808501945080840160005b8381101561419357815187529582019590820190600101614177565b509495945050505050565b6020815260006125186020830184614163565b600080604083850312156141c457600080fd5b82356141cf81613c3f565b915060208301356001600160401b038111156141ea57600080fd5b61415985828601613ed4565b8015158114610c6157600080fd5b6000806040838503121561421757600080fd5b823561422281613c3f565b91506020830135613fc6816141f6565b6000806000806080858703121561424857600080fd5b84359350602085013561425a81613c3f565b925060408501356001600160401b038082111561427657600080fd5b818701915087601f83011261428a57600080fd5b61429988833560208501613e8e565b935060608701359150808211156142af57600080fd5b506142bc87828801613ed4565b91505092959194509250565b600080600080600060a086880312156142e057600080fd5b85356142eb81613c3f565b945060208601356142fb81613c3f565b9350604086013592506060860135915060808601356001600160401b0381111561432457600080fd5b613f9488828901613ed4565b805161433b81613c3f565b919050565b805161433b816141f6565b60006080828403121561435d57600080fd5b604051608081018181106001600160401b038211171561437f5761437f613d43565b60405282518152602083015161439481613c3f565b60208201526040838101519082015260608301516143b1816141f6565b60608201529392505050565b600082601f8301126143ce57600080fd5b81516143d981613e67565b6040516143e68282613d7e565b8281528560208487010111156143fb57600080fd5b611724836020830160208801613cb3565b60006020828403121561441e57600080fd5b81516001600160401b038082111561443557600080fd5b90830190610100828603121561444a57600080fd5b614452613daa565b61445b83614330565b815260208301518281111561446f57600080fd5b61447b878286016143bd565b60208301525061448d60408401614340565b6040820152606083015160608201526080830151608082015260a083015160a08201526144bc60c08401614340565b60c082015260e0830151828111156144d357600080fd5b6144df878286016143bd565b60e08301525095945050505050565b60006060828403121561450057600080fd5b604051606081018181106001600160401b038211171561452257614522613d43565b604052825161453081613c3f565b81526020830151614540816141f6565b60208201526040830151614553816141f6565b60408201529392505050565b60006020828403121561457157600080fd5b8151612518816141f6565b600181811c9082168061459057607f821691505b6020821081036145b057634e487b7160e01b600052602260045260246000fd5b50919050565b6020808252602e908201527f455243313135353a2063616c6c6572206973206e6f7420746f6b656e206f776e60408201526d195c881bdc88185c1c1c9bdd995960921b606082015260800190565b6020808252602c908201527f46756e6374696f6e206d7573742062652063616c6c6564207468726f7567682060408201526b19195b1959d85d1958d85b1b60a21b606082015260800190565b6020808252602c908201527f46756e6374696f6e206d7573742062652063616c6c6564207468726f7567682060408201526b6163746976652070726f787960a01b606082015260800190565b83815260406020820152816040820152818360608301376000818301606090810191909152601f909201601f1916010192915050565b600060208083850312156146e557600080fd5b82516001600160401b038111156146fb57600080fd5b8301601f8101851361470c57600080fd5b805161471781613dd3565b6040516147248282613d7e565b82815260059290921b830184019184810191508783111561474457600080fd5b928401925b8284101561476257835182529284019290840190614749565b979650505050505050565b634e487b7160e01b600052603260045260246000fd5b634e487b7160e01b600052601160045260246000fd5b6000600182016147ab576147ab614783565b5060010190565b601f821115610b1957600081815260208120601f850160051c810160208610156147d95750805b601f850160051c820191505b818110156128c8578281556001016147e5565b81516001600160401b0381111561481157614811613d43565b6148258161481f845461457c565b846147b2565b602080601f83116001811461485a57600084156148425750858301515b600019600386901b1c1916600185901b1785556128c8565b600085815260208120601f198616915b828110156148895788860151825594840194600190910190840161486a565b50858210156148a75787850151600019600388901b60f8161c191681555b5050505050600190811b01905550565b6000602082840312156148c957600080fd5b5051919050565b808201808211156109f3576109f3614783565b6000602082840312156148f557600080fd5b81516001600160401b038082111561490c57600080fd5b9083019060a0828603121561492057600080fd5b60405161492c81613d59565b82518281111561493b57600080fd5b614947878286016143bd565b8252506020830151915061495a826141f6565b81602082015260408301519150614970826141f6565b81604082015260608301519150614986826141f6565b8160608201526080830151925061499c836141f6565b6080810192909252509392505050565b818103818111156109f3576109f3614783565b60018060a01b038516815283602082015282604082015260806060820152600061189c6080830184613cd7565b60008084546149fa8161457c565b60018281168015614a125760018114614a2757614a56565b60ff1984168752821515830287019450614a56565b8860005260208060002060005b85811015614a4d5781548a820152908401908201614a34565b50505082870194505b505050508351614a6a818360208801613cb3565b01949350505050565b60208082526025908201527f455243313135353a207472616e7366657220746f20746865207a65726f206164604082015264647265737360d81b606082015260800190565b6020808252602a908201527f455243313135353a20696e73756666696369656e742062616c616e636520666f60408201526939103a3930b739b332b960b11b606082015260800190565b604081526000614b156040830185614163565b82810360208401526117248185614163565b6020808252602b908201527f496e697469616c697a61626c653a20636f6e7472616374206973206e6f74206960408201526a6e697469616c697a696e6760a81b606082015260800190565b600060208284031215614b8457600080fd5b815161251881613c3f565b6001600160a01b03929092168252602082015260606040820181905260029082015261060f60f31b608082015260a00190565b6001600160a01b0386811682528516602082015260a060408201819052600090614bee90830186614163565b8281036060840152614c008186614163565b90508281036080840152614c148185613cd7565b98975050505050505050565b600060208284031215614c3257600080fd5b815161251881613c80565b600060033d11156115895760046000803e5060005160e01c90565b600060443d1015614c665790565b6040516003193d81016004833e81513d6001600160401b038160248401118184111715614c9557505050505090565b8285019150815181811115614cad5750505050505090565b843d8701016020828501011115614cc75750505050505090565b614cd660208286010187613d7e565b509095945050505050565b60208082526028908201527f455243313135353a204552433131353552656365697665722072656a656374656040820152676420746f6b656e7360c01b606082015260800190565b76020b1b1b2b9b9a1b7b73a3937b61d1030b1b1b7bab73a1604d1b815260008351614d5b816017850160208801613cb3565b7001034b99036b4b9b9b4b733903937b6329607d1b6017918401918201528351614d8c816028840160208801613cb3565b01602801949350505050565b80820281158282048414176109f3576109f3614783565b600082614dcc57634e487b7160e01b600052601260045260246000fd5b500490565b6001600160a01b03868116825285166020820152604081018490526060810183905260a06080820181905260009061476290830184613cd7565b600081614e1a57614e1a614783565b506000190190565b60008251614e34818460208701613cb3565b919091019291505056fe189ab7a9244df0848122154315af71fe140f3db0fe014031783b0946b8c9d2e3360894a13ba1a3210667c828492db98dca3e2076cc3735a920a3ca505d382bbc65d7a28e3265b37a6474929f336521b332c1681b933f6cb9f3376673440d862a416464726573733a206c6f772d6c6576656c2064656c65676174652063616c6c206661696c6564a2646970667358221220888e5ef83a94ee50a7c7495ad8e6a9c5caa82e93bf7d1e1f81c85d5cd6de263c64736f6c63430008110033",
  "linkReferences": {},
  "deployedLinkReferences": {}
}