{
  "_format": "hh-sol-artifact-1",
  "contractName": "TheBadge",
  "sourceName": "src/contracts/thebadge/TheBadge.sol",
  "abi": [
    {
      "inputs": [],
      "stateMutability": "nonpayable",
      "type": "constructor"
    },
    {
      "inputs": [],
      "name": "AccessControlBadConfirmation",
      "type": "error"
    },
    {
      "inputs": [
        {
          "internalType": "address",
          "name": "account",
          "type": "address"
        },
        {
          "internalType": "bytes32",
          "name": "neededRole",
          "type": "bytes32"
        }
      ],
      "name": "AccessControlUnauthorizedAccount",
      "type": "error"
    },
    {
      "inputs": [
        {
          "internalType": "address",
          "name": "target",
          "type": "address"
        }
      ],
      "name": "AddressEmptyCode",
      "type": "error"
    },
    {
      "inputs": [
        {
          "internalType": "address",
          "name": "sender",
          "type": "address"
        },
        {
          "internalType": "uint256",
          "name": "balance",
          "type": "uint256"
        },
        {
          "internalType": "uint256",
          "name": "needed",
          "type": "uint256"
        },
        {
          "internalType": "uint256",
          "name": "tokenId",
          "type": "uint256"
        }
      ],
      "name": "ERC1155InsufficientBalance",
      "type": "error"
    },
    {
      "inputs": [
        {
          "internalType": "address",
          "name": "approver",
          "type": "address"
        }
      ],
      "name": "ERC1155InvalidApprover",
      "type": "error"
    },
    {
      "inputs": [
        {
          "internalType": "uint256",
          "name": "idsLength",
          "type": "uint256"
        },
        {
          "internalType": "uint256",
          "name": "valuesLength",
          "type": "uint256"
        }
      ],
      "name": "ERC1155InvalidArrayLength",
      "type": "error"
    },
    {
      "inputs": [
        {
          "internalType": "address",
          "name": "operator",
          "type": "address"
        }
      ],
      "name": "ERC1155InvalidOperator",
      "type": "error"
    },
    {
      "inputs": [
        {
          "internalType": "address",
          "name": "receiver",
          "type": "address"
        }
      ],
      "name": "ERC1155InvalidReceiver",
      "type": "error"
    },
    {
      "inputs": [
        {
          "internalType": "address",
          "name": "sender",
          "type": "address"
        }
      ],
      "name": "ERC1155InvalidSender",
      "type": "error"
    },
    {
      "inputs": [
        {
          "internalType": "address",
          "name": "operator",
          "type": "address"
        },
        {
          "internalType": "address",
          "name": "owner",
          "type": "address"
        }
      ],
      "name": "ERC1155MissingApprovalForAll",
      "type": "error"
    },
    {
      "inputs": [
        {
          "internalType": "address",
          "name": "implementation",
          "type": "address"
        }
      ],
      "name": "ERC1967InvalidImplementation",
      "type": "error"
    },
    {
      "inputs": [],
      "name": "ERC1967NonPayable",
      "type": "error"
    },
    {
      "inputs": [],
      "name": "EnforcedPause",
      "type": "error"
    },
    {
      "inputs": [],
      "name": "ExpectedPause",
      "type": "error"
    },
    {
      "inputs": [],
      "name": "FailedInnerCall",
      "type": "error"
    },
    {
      "inputs": [],
      "name": "InvalidInitialization",
      "type": "error"
    },
    {
      "inputs": [],
      "name": "NotInitializing",
      "type": "error"
    },
    {
      "inputs": [],
      "name": "ReentrancyGuardReentrantCall",
      "type": "error"
    },
    {
      "inputs": [],
      "name": "TheBadge__SBT",
      "type": "error"
    },
    {
      "inputs": [],
      "name": "TheBadge__calculateFee_protocolFeesInvalidValues",
      "type": "error"
    },
    {
      "inputs": [],
      "name": "TheBadge__mint_creatorFeesPaymentFailed",
      "type": "error"
    },
    {
      "inputs": [],
      "name": "TheBadge__mint_protocolFeesPaymentFailed",
      "type": "error"
    },
    {
      "inputs": [],
      "name": "TheBadge__requestBadge_badgeModelIsSuspended",
      "type": "error"
    },
    {
      "inputs": [],
      "name": "TheBadge__requestBadge_badgeModelNotFound",
      "type": "error"
    },
    {
      "inputs": [],
      "name": "TheBadge__requestBadge_badgeNotClaimable",
      "type": "error"
    },
    {
      "inputs": [],
      "name": "TheBadge__requestBadge_badgeNotFound",
      "type": "error"
    },
    {
      "inputs": [],
      "name": "TheBadge__requestBadge_badgeNotMintable",
      "type": "error"
    },
    {
      "inputs": [],
      "name": "TheBadge__requestBadge_controllerIsPaused",
      "type": "error"
    },
    {
      "inputs": [],
      "name": "TheBadge__requestBadge_isDeprecated",
      "type": "error"
    },
    {
      "inputs": [],
      "name": "TheBadge__requestBadge_isPaused",
      "type": "error"
    },
    {
      "inputs": [],
      "name": "TheBadge__requestBadge_isSuspended",
      "type": "error"
    },
    {
      "inputs": [],
      "name": "TheBadge__requestBadge_wrongValue",
      "type": "error"
    },
    {
      "inputs": [],
      "name": "UUPSUnauthorizedCallContext",
      "type": "error"
    },
    {
      "inputs": [
        {
          "internalType": "bytes32",
          "name": "slot",
          "type": "bytes32"
        }
      ],
      "name": "UUPSUnsupportedProxiableUUID",
      "type": "error"
    },
    {
      "anonymous": false,
      "inputs": [
        {
          "indexed": true,
          "internalType": "address",
          "name": "account",
          "type": "address"
        },
        {
          "indexed": true,
          "internalType": "address",
          "name": "operator",
          "type": "address"
        },
        {
          "indexed": false,
          "internalType": "bool",
          "name": "approved",
          "type": "bool"
        }
      ],
      "name": "ApprovalForAll",
      "type": "event"
    },
    {
      "anonymous": false,
      "inputs": [
        {
          "indexed": true,
          "internalType": "uint256",
          "name": "badgeModelID",
          "type": "uint256"
        },
        {
          "indexed": true,
          "internalType": "uint256",
          "name": "badgeID",
          "type": "uint256"
        },
        {
          "indexed": true,
          "internalType": "address",
          "name": "recipient",
          "type": "address"
        },
        {
          "indexed": false,
          "internalType": "address",
          "name": "controller",
          "type": "address"
        },
        {
          "indexed": false,
          "internalType": "uint256",
          "name": "controllerBadgeId",
          "type": "uint256"
        }
      ],
      "name": "BadgeRequested",
      "type": "event"
    },
    {
      "anonymous": false,
      "inputs": [
        {
          "indexed": true,
          "internalType": "uint256",
          "name": "badgeId",
          "type": "uint256"
        },
        {
          "indexed": true,
          "internalType": "address",
          "name": "origin",
          "type": "address"
        },
        {
          "indexed": true,
          "internalType": "address",
          "name": "destination",
          "type": "address"
        }
      ],
      "name": "BadgeTransferred",
      "type": "event"
    },
    {
      "anonymous": false,
      "inputs": [
        {
          "indexed": true,
          "internalType": "address",
          "name": "admin",
          "type": "address"
        }
      ],
      "name": "Initialize",
      "type": "event"
    },
    {
      "anonymous": false,
      "inputs": [
        {
          "indexed": false,
          "internalType": "uint64",
          "name": "version",
          "type": "uint64"
        }
      ],
      "name": "Initialized",
      "type": "event"
    },
    {
      "anonymous": false,
      "inputs": [
        {
          "indexed": false,
          "internalType": "address",
          "name": "account",
          "type": "address"
        }
      ],
      "name": "Paused",
      "type": "event"
    },
    {
      "anonymous": false,
      "inputs": [
        {
          "indexed": true,
          "internalType": "address",
          "name": "recipient",
          "type": "address"
        },
        {
          "indexed": false,
          "internalType": "address",
          "name": "payer",
          "type": "address"
        },
        {
          "indexed": false,
          "internalType": "uint256",
          "name": "amount",
          "type": "uint256"
        },
        {
          "indexed": true,
          "internalType": "enum LibTheBadge.PaymentType",
          "name": "paymentType",
          "type": "uint8"
        },
        {
          "indexed": true,
          "internalType": "uint256",
          "name": "badgeModelId",
          "type": "uint256"
        },
        {
          "indexed": false,
          "internalType": "string",
          "name": "controllerName",
          "type": "string"
        }
      ],
      "name": "PaymentMade",
      "type": "event"
    },
    {
      "anonymous": false,
      "inputs": [],
      "name": "ProtocolSettingsUpdated",
      "type": "event"
    },
    {
      "anonymous": false,
      "inputs": [
        {
          "indexed": true,
          "internalType": "bytes32",
          "name": "role",
          "type": "bytes32"
        },
        {
          "indexed": true,
          "internalType": "bytes32",
          "name": "previousAdminRole",
          "type": "bytes32"
        },
        {
          "indexed": true,
          "internalType": "bytes32",
          "name": "newAdminRole",
          "type": "bytes32"
        }
      ],
      "name": "RoleAdminChanged",
      "type": "event"
    },
    {
      "anonymous": false,
      "inputs": [
        {
          "indexed": true,
          "internalType": "bytes32",
          "name": "role",
          "type": "bytes32"
        },
        {
          "indexed": true,
          "internalType": "address",
          "name": "account",
          "type": "address"
        },
        {
          "indexed": true,
          "internalType": "address",
          "name": "sender",
          "type": "address"
        }
      ],
      "name": "RoleGranted",
      "type": "event"
    },
    {
      "anonymous": false,
      "inputs": [
        {
          "indexed": true,
          "internalType": "bytes32",
          "name": "role",
          "type": "bytes32"
        },
        {
          "indexed": true,
          "internalType": "address",
          "name": "account",
          "type": "address"
        },
        {
          "indexed": true,
          "internalType": "address",
          "name": "sender",
          "type": "address"
        }
      ],
      "name": "RoleRevoked",
      "type": "event"
    },
    {
      "anonymous": false,
      "inputs": [
        {
          "indexed": true,
          "internalType": "address",
          "name": "operator",
          "type": "address"
        },
        {
          "indexed": true,
          "internalType": "address",
          "name": "from",
          "type": "address"
        },
        {
          "indexed": true,
          "internalType": "address",
          "name": "to",
          "type": "address"
        },
        {
          "indexed": false,
          "internalType": "uint256[]",
          "name": "ids",
          "type": "uint256[]"
        },
        {
          "indexed": false,
          "internalType": "uint256[]",
          "name": "values",
          "type": "uint256[]"
        }
      ],
      "name": "TransferBatch",
      "type": "event"
    },
    {
      "anonymous": false,
      "inputs": [
        {
          "indexed": true,
          "internalType": "address",
          "name": "operator",
          "type": "address"
        },
        {
          "indexed": true,
          "internalType": "address",
          "name": "from",
          "type": "address"
        },
        {
          "indexed": true,
          "internalType": "address",
          "name": "to",
          "type": "address"
        },
        {
          "indexed": false,
          "internalType": "uint256",
          "name": "id",
          "type": "uint256"
        },
        {
          "indexed": false,
          "internalType": "uint256",
          "name": "value",
          "type": "uint256"
        }
      ],
      "name": "TransferSingle",
      "type": "event"
    },
    {
      "anonymous": false,
      "inputs": [
        {
          "indexed": false,
          "internalType": "string",
          "name": "value",
          "type": "string"
        },
        {
          "indexed": true,
          "internalType": "uint256",
          "name": "id",
          "type": "uint256"
        }
      ],
      "name": "URI",
      "type": "event"
    },
    {
      "anonymous": false,
      "inputs": [
        {
          "indexed": false,
          "internalType": "address",
          "name": "account",
          "type": "address"
        }
      ],
      "name": "Unpaused",
      "type": "event"
    },
    {
      "anonymous": false,
      "inputs": [
        {
          "indexed": true,
          "internalType": "address",
          "name": "implementation",
          "type": "address"
        }
      ],
      "name": "Upgraded",
      "type": "event"
    },
    {
      "inputs": [],
      "name": "CLAIMER_ROLE",
      "outputs": [
        {
          "internalType": "bytes32",
          "name": "",
          "type": "bytes32"
        }
      ],
      "stateMutability": "view",
      "type": "function"
    },
    {
      "inputs": [],
      "name": "DEFAULT_ADMIN_ROLE",
      "outputs": [
        {
          "internalType": "bytes32",
          "name": "",
          "type": "bytes32"
        }
      ],
      "stateMutability": "view",
      "type": "function"
    },
    {
      "inputs": [],
      "name": "PAUSER_ROLE",
      "outputs": [
        {
          "internalType": "bytes32",
          "name": "",
          "type": "bytes32"
        }
      ],
      "stateMutability": "view",
      "type": "function"
    },
    {
      "inputs": [],
      "name": "UPGRADER_ROLE",
      "outputs": [
        {
          "internalType": "bytes32",
          "name": "",
          "type": "bytes32"
        }
      ],
      "stateMutability": "view",
      "type": "function"
    },
    {
      "inputs": [],
      "name": "UPGRADE_INTERFACE_VERSION",
      "outputs": [
        {
          "internalType": "string",
          "name": "",
          "type": "string"
        }
      ],
      "stateMutability": "view",
      "type": "function"
    },
    {
      "inputs": [],
      "name": "URI_SETTER_ROLE",
      "outputs": [
        {
          "internalType": "bytes32",
          "name": "",
          "type": "bytes32"
        }
      ],
      "stateMutability": "view",
      "type": "function"
    },
    {
      "inputs": [],
      "name": "USER_MANAGER_ROLE",
      "outputs": [
        {
          "internalType": "bytes32",
          "name": "",
          "type": "bytes32"
        }
      ],
      "stateMutability": "view",
      "type": "function"
    },
    {
      "inputs": [],
      "name": "VERIFIER_ROLE",
      "outputs": [
        {
          "internalType": "bytes32",
          "name": "",
          "type": "bytes32"
        }
      ],
      "stateMutability": "view",
      "type": "function"
    },
    {
      "inputs": [],
      "name": "_badgeStore",
      "outputs": [
        {
          "internalType": "contract TheBadgeStore",
          "name": "",
          "type": "address"
        }
      ],
      "stateMutability": "view",
      "type": "function"
    },
    {
      "inputs": [
        {
          "internalType": "address",
          "name": "account",
          "type": "address"
        },
        {
          "internalType": "uint256",
          "name": "badgeId",
          "type": "uint256"
        }
      ],
      "name": "balanceOf",
      "outputs": [
        {
          "internalType": "uint256",
          "name": "",
          "type": "uint256"
        }
      ],
      "stateMutability": "view",
      "type": "function"
    },
    {
      "inputs": [
        {
          "internalType": "address",
          "name": "account",
          "type": "address"
        },
        {
          "internalType": "uint256",
          "name": "badgeModelId",
          "type": "uint256"
        }
      ],
      "name": "balanceOfBadgeModel",
      "outputs": [
        {
          "internalType": "uint256",
          "name": "",
          "type": "uint256"
        }
      ],
      "stateMutability": "view",
      "type": "function"
    },
    {
      "inputs": [
        {
          "internalType": "address[]",
          "name": "accounts",
          "type": "address[]"
        },
        {
          "internalType": "uint256[]",
          "name": "ids",
          "type": "uint256[]"
        }
      ],
      "name": "balanceOfBatch",
      "outputs": [
        {
          "internalType": "uint256[]",
          "name": "",
          "type": "uint256[]"
        }
      ],
      "stateMutability": "view",
      "type": "function"
    },
    {
      "inputs": [
        {
          "internalType": "uint256",
          "name": "badgeId",
          "type": "uint256"
        },
        {
          "internalType": "bytes",
          "name": "data",
          "type": "bytes"
        }
      ],
      "name": "challenge",
      "outputs": [],
      "stateMutability": "payable",
      "type": "function"
    },
    {
      "inputs": [
        {
          "internalType": "uint256",
          "name": "badgeId",
          "type": "uint256"
        },
        {
          "internalType": "bytes",
          "name": "data",
          "type": "bytes"
        }
      ],
      "name": "claim",
      "outputs": [],
      "stateMutability": "nonpayable",
      "type": "function"
    },
    {
      "inputs": [
        {
          "internalType": "uint256",
          "name": "badgeId",
          "type": "uint256"
        }
      ],
      "name": "getChallengeDepositValue",
      "outputs": [
        {
          "internalType": "uint256",
          "name": "",
          "type": "uint256"
        }
      ],
      "stateMutability": "view",
      "type": "function"
    },
    {
      "inputs": [
        {
          "internalType": "uint256",
          "name": "badgeId",
          "type": "uint256"
        }
      ],
      "name": "getRemovalDepositValue",
      "outputs": [
        {
          "internalType": "uint256",
          "name": "",
          "type": "uint256"
        }
      ],
      "stateMutability": "view",
      "type": "function"
    },
    {
      "inputs": [
        {
          "internalType": "bytes32",
          "name": "role",
          "type": "bytes32"
        }
      ],
      "name": "getRoleAdmin",
      "outputs": [
        {
          "internalType": "bytes32",
          "name": "",
          "type": "bytes32"
        }
      ],
      "stateMutability": "view",
      "type": "function"
    },
    {
      "inputs": [
        {
          "internalType": "bytes32",
          "name": "role",
          "type": "bytes32"
        },
        {
          "internalType": "address",
          "name": "account",
          "type": "address"
        }
      ],
      "name": "grantRole",
      "outputs": [],
      "stateMutability": "nonpayable",
      "type": "function"
    },
    {
      "inputs": [
        {
          "internalType": "bytes32",
          "name": "role",
          "type": "bytes32"
        },
        {
          "internalType": "address",
          "name": "account",
          "type": "address"
        }
      ],
      "name": "hasRole",
      "outputs": [
        {
          "internalType": "bool",
          "name": "",
          "type": "bool"
        }
      ],
      "stateMutability": "view",
      "type": "function"
    },
    {
      "inputs": [
        {
          "internalType": "address",
          "name": "admin",
          "type": "address"
        },
        {
          "internalType": "address",
          "name": "badgeStore",
          "type": "address"
        }
      ],
      "name": "initialize",
      "outputs": [],
      "stateMutability": "nonpayable",
      "type": "function"
    },
    {
      "inputs": [
        {
          "internalType": "address",
          "name": "account",
          "type": "address"
        },
        {
          "internalType": "address",
          "name": "operator",
          "type": "address"
        }
      ],
      "name": "isApprovedForAll",
      "outputs": [
        {
          "internalType": "bool",
          "name": "",
          "type": "bool"
        }
      ],
      "stateMutability": "view",
      "type": "function"
    },
    {
      "inputs": [
        {
          "internalType": "uint256",
          "name": "badgeId",
          "type": "uint256"
        }
      ],
      "name": "isExpired",
      "outputs": [
        {
          "internalType": "bool",
          "name": "",
          "type": "bool"
        }
      ],
      "stateMutability": "view",
      "type": "function"
    },
    {
      "inputs": [
        {
          "internalType": "uint256",
          "name": "badgeModelId",
          "type": "uint256"
        },
        {
          "internalType": "address",
          "name": "account",
          "type": "address"
        },
        {
          "internalType": "string",
          "name": "tokenURI",
          "type": "string"
        },
        {
          "internalType": "bytes",
          "name": "data",
          "type": "bytes"
        }
      ],
      "name": "mint",
      "outputs": [],
      "stateMutability": "payable",
      "type": "function"
    },
    {
      "inputs": [
        {
          "internalType": "uint256",
          "name": "badgeModelId",
          "type": "uint256"
        }
      ],
      "name": "mintValue",
      "outputs": [
        {
          "internalType": "uint256",
          "name": "",
          "type": "uint256"
        }
      ],
      "stateMutability": "view",
      "type": "function"
    },
    {
      "inputs": [],
      "name": "name",
      "outputs": [
        {
          "internalType": "string",
          "name": "",
          "type": "string"
        }
      ],
      "stateMutability": "view",
      "type": "function"
    },
    {
      "inputs": [],
      "name": "pause",
      "outputs": [],
      "stateMutability": "nonpayable",
      "type": "function"
    },
    {
      "inputs": [],
      "name": "paused",
      "outputs": [
        {
          "internalType": "bool",
          "name": "",
          "type": "bool"
        }
      ],
      "stateMutability": "view",
      "type": "function"
    },
    {
      "inputs": [],
      "name": "proxiableUUID",
      "outputs": [
        {
          "internalType": "bytes32",
          "name": "",
          "type": "bytes32"
        }
      ],
      "stateMutability": "view",
      "type": "function"
    },
    {
      "inputs": [
        {
          "internalType": "uint256",
          "name": "badgeId",
          "type": "uint256"
        },
        {
          "internalType": "bytes",
          "name": "data",
          "type": "bytes"
        }
      ],
      "name": "removeItem",
      "outputs": [],
      "stateMutability": "payable",
      "type": "function"
    },
    {
      "inputs": [
        {
          "internalType": "bytes32",
          "name": "role",
          "type": "bytes32"
        },
        {
          "internalType": "address",
          "name": "callerConfirmation",
          "type": "address"
        }
      ],
      "name": "renounceRole",
      "outputs": [],
      "stateMutability": "nonpayable",
      "type": "function"
    },
    {
      "inputs": [
        {
          "internalType": "bytes32",
          "name": "role",
          "type": "bytes32"
        },
        {
          "internalType": "address",
          "name": "account",
          "type": "address"
        }
      ],
      "name": "revokeRole",
      "outputs": [],
      "stateMutability": "nonpayable",
      "type": "function"
    },
    {
      "inputs": [
        {
          "internalType": "address",
          "name": "from",
          "type": "address"
        },
        {
          "internalType": "address",
          "name": "to",
          "type": "address"
        },
        {
          "internalType": "uint256[]",
          "name": "ids",
          "type": "uint256[]"
        },
        {
          "internalType": "uint256[]",
          "name": "values",
          "type": "uint256[]"
        },
        {
          "internalType": "bytes",
          "name": "data",
          "type": "bytes"
        }
      ],
      "name": "safeBatchTransferFrom",
      "outputs": [],
      "stateMutability": "nonpayable",
      "type": "function"
    },
    {
      "inputs": [
        {
          "internalType": "address",
          "name": "from",
          "type": "address"
        },
        {
          "internalType": "address",
          "name": "to",
          "type": "address"
        },
        {
          "internalType": "uint256",
          "name": "id",
          "type": "uint256"
        },
        {
          "internalType": "uint256",
          "name": "value",
          "type": "uint256"
        },
        {
          "internalType": "bytes",
          "name": "data",
          "type": "bytes"
        }
      ],
      "name": "safeTransferFrom",
      "outputs": [],
      "stateMutability": "nonpayable",
      "type": "function"
    },
    {
      "inputs": [
        {
          "internalType": "address",
          "name": "operator",
          "type": "address"
        },
        {
          "internalType": "bool",
          "name": "approved",
          "type": "bool"
        }
      ],
      "name": "setApprovalForAll",
      "outputs": [],
      "stateMutability": "nonpayable",
      "type": "function"
    },
    {
      "inputs": [
        {
          "internalType": "uint256",
          "name": "badgeId",
          "type": "uint256"
        },
        {
          "internalType": "bytes",
          "name": "data",
          "type": "bytes"
        }
      ],
      "name": "submitEvidence",
      "outputs": [],
      "stateMutability": "nonpayable",
      "type": "function"
    },
    {
      "inputs": [
        {
          "internalType": "bytes4",
          "name": "interfaceId",
          "type": "bytes4"
        }
      ],
      "name": "supportsInterface",
      "outputs": [
        {
          "internalType": "bool",
          "name": "",
          "type": "bool"
        }
      ],
      "stateMutability": "view",
      "type": "function"
    },
    {
      "inputs": [],
      "name": "symbol",
      "outputs": [
        {
          "internalType": "string",
          "name": "",
          "type": "string"
        }
      ],
      "stateMutability": "view",
      "type": "function"
    },
    {
      "inputs": [],
      "name": "unpause",
      "outputs": [],
      "stateMutability": "nonpayable",
      "type": "function"
    },
    {
      "inputs": [
        {
          "internalType": "uint256",
          "name": "_createBadgeModelValue",
          "type": "uint256"
        }
      ],
      "name": "updateCreateBadgeModelProtocolFee",
      "outputs": [],
      "stateMutability": "nonpayable",
      "type": "function"
    },
    {
      "inputs": [
        {
          "internalType": "uint256",
          "name": "_mintBadgeDefaultFee",
          "type": "uint256"
        }
      ],
      "name": "updateMintBadgeDefaultProtocolFee",
      "outputs": [],
      "stateMutability": "nonpayable",
      "type": "function"
    },
    {
      "inputs": [
        {
          "internalType": "uint256",
          "name": "_registerCreatorValue",
          "type": "uint256"
        }
      ],
      "name": "updateRegisterCreatorProtocolFee",
      "outputs": [],
      "stateMutability": "nonpayable",
      "type": "function"
    },
    {
      "inputs": [
        {
          "internalType": "address",
          "name": "newImplementation",
          "type": "address"
        },
        {
          "internalType": "bytes",
          "name": "data",
          "type": "bytes"
        }
      ],
      "name": "upgradeToAndCall",
      "outputs": [],
      "stateMutability": "payable",
      "type": "function"
    },
    {
      "inputs": [
        {
          "internalType": "uint256",
          "name": "badgeId",
          "type": "uint256"
        }
      ],
      "name": "uri",
      "outputs": [
        {
          "internalType": "string",
          "name": "",
          "type": "string"
        }
      ],
      "stateMutability": "view",
      "type": "function"
    },
    {
      "stateMutability": "payable",
      "type": "receive"
    }
  ],
  "bytecode": "0x60a08060405234620000d157306080527ff0c57e16840df040f15088dc2f81fe391c3923bec73e23a9662efc9c229c6a009081549060ff8260401c16620000c257506001600160401b036002600160401b0319828216016200007c575b6040516146ba9081620000d6823960805181818161111e01526112520152f35b6001600160401b031990911681179091556040519081527fc7f505b2f371ae2175ee4913f4499e1f2633a7b5936321eed1cdaeb6115181d290602090a15f80806200005c565b63f92ee8a960e01b8152600490fd5b5f80fdfe6080604052600436101561001a575b3615610018575f80fd5b005b5f3560e01c8062fdd58e146102c857806301ffc9a7146102c357806306fdde03146102be5780630e89341c146102b957806319b50c2a146102b4578063248a9ca3146102af5780632eb2c2d6146102aa5780632f2ff15d146102a557806336568abe146102a057806338926b6d1461029b5780633f4ba83a1461029657806346c4575814610291578063485cc9551461028c5780634e1273f4146102875780634f1ef2861461028257806352d1902d1461027d5780635c975abb14610278578063632f7c83146102735780637eb7f1761461026e5780637f345710146102695780638456cb591461026457806391d148541461025f57806393c7a71b1461025a57806395d89b41146102555780639faf715814610250578063a03aafbf1461024b578063a217fddf14610246578063a22cb46514610241578063a41e35c31461023c578063ad3cb1cc14610237578063c1d1884014610232578063c5a3c7ca1461022d578063d547741f14610228578063d7deba1514610223578063d9548e531461021e578063e181865114610219578063e63ab1e914610214578063e7705db61461020f578063e985e9c51461020a578063f1fe717e14610205578063f242432a14610200578063f72c0d8b146101fb5763fc5f18d30361000e57611fb1565b611f8a565b611e73565b611e07565b611de8565b611dae565b611d87565b611d1b565b611cf3565b611c4a565b611bfe565b611b7f565b611949565b611904565b6118ca565b611891565b61186d565b6117d1565b611721565b61167e565b611554565b6114f6565b611491565b611457565b6112f5565b6112d7565b6112a9565b611240565b6110dc565b611021565b610ebf565b610e6f565b610dfa565b610a9b565b610a04565b6109b8565b610886565b61072d565b610706565b6106d3565b610613565b610327565b6102e2565b6001600160a01b038116036102de57565b5f80fd5b346102de5760403660031901126102de57602061030d600435610304816102cd565b60243590613a61565b604051908152f35b6001600160e01b03198116036102de57565b346102de5760203660031901126102de57602060043561034681610315565b63ffffffff60e01b16637965db0b60e01b811490811561036c575b506040519015158152f35b636cdb3d1360e11b81149150811561039e575b811561038d575b505f610361565b6301ffc9a760e01b1490505f610386565b6303a24d0760e21b8114915061037f565b5f9103126102de57565b90600182811c921680156103e7575b60208310146103d357565b634e487b7160e01b5f52602260045260245ffd5b91607f16916103c8565b634e487b7160e01b5f52604160045260245ffd5b6001600160401b03811161041857604052565b6103f1565b60a081019081106001600160401b0382111761041857604052565b604081019081106001600160401b0382111761041857604052565b602081019081106001600160401b0382111761041857604052565b90601f801991011681019081106001600160401b0382111761041857604052565b604051905f825f80516020614645833981519152918254926104b0846103b9565b9081845260019485811690815f1461051b57506001146104db575b50506104d99250038361046e565b565b909391505f52602090815f20935f915b8183106105035750506104d993508201015f806104cb565b855488840185015294850194879450918301916104eb565b9150506104d994506020925060ff191682840152151560051b8201015f806104cb565b9060405191825f825492610551846103b9565b9081845260019485811690815f1461051b57506001146105795750506104d99250038361046e565b909391505f52602090815f20935f915b8183106105a15750506104d993508201015f806104cb565b85548884018501529485019487945091830191610589565b5f5b8381106105ca5750505f910152565b81810151838201526020016105bb565b906020916105f3815180928185528580860191016105b9565b601f01601f1916010190565b9060206106109281815201906105da565b90565b346102de575f806003193601126106d057604051816001805490610636826103b9565b808552918181169081156106a8575060011461066d575b6106698461065d8188038261046e565b604051918291826105ff565b0390f35b80945082526020938483205b82841061069557505050816106699361065d928201019361064d565b8054858501870152928501928101610679565b610669965061065d9450602092508593915060ff191682840152151560051b8201019361064d565b80fd5b346102de5760203660031901126102de576106696106f26004356141b0565b6040519182916020835260208301906105da565b346102de575f3660031901126102de575f546040516001600160a01b039091168152602090f35b346102de5760203660031901126102de576004355f525f805160206145e58339815191526020526020600160405f200154604051908152f35b6040519061018082018281106001600160401b0382111761041857604052565b60405190608082018281106001600160401b0382111761041857604052565b6001600160401b0381116104185760051b60200190565b81601f820112156102de578035916107d3836107a5565b926107e1604051948561046e565b808452602092838086019260051b8201019283116102de578301905b82821061080b575050505090565b813581529083019083016107fd565b6001600160401b03811161041857601f01601f191660200190565b9291926108418261081a565b9161084f604051938461046e565b8294818452818301116102de578281602093845f960137010152565b9080601f830112156102de5781602061061093359101610835565b346102de5760a03660031901126102de57600480356108a4816102cd565b6024356108b0816102cd565b6001600160401b03906044358281116102de576108d090369086016107bc565b906064358381116102de576108e890369087016107bc565b926084359081116102de57610900903690870161086b565b936001600160a01b0380821690338214158061098b575b61095e57831615610947571561093157610018955061259f565b604051626a0d4560e21b81525f81880152602490fd5b604051632bfa23e760e11b81525f81890152602490fd5b6040805163711bec9160e11b815233818b019081526001600160a01b038616602082015290918291010390fd5b5060ff6109b03361099b86612018565b9060018060a01b03165f5260205260405f2090565b541615610917565b346102de5760403660031901126102de576100186024356004356109db826102cd565b805f525f805160206145e58339815191526020526109ff600160405f200154612152565b6123bf565b346102de5760403660031901126102de57602435610a21816102cd565b336001600160a01b03821603610a3d57610018906004356123f7565b60405163334bd91960e11b8152600490fd5b60406003198201126102de57600435916024356001600160401b03928382116102de57806023830112156102de5781600401359384116102de57602484830101116102de576024019190565b346102de57610aa936610a4f565b9091610ab481613f73565b905f93610ad6610aca865460018060a01b031690565b6001600160a01b031690565b6040805163f2be2c8560e01b81526004808201969096529491908786602481855afa918215610ce157610b2b968993610dd6575b506060602080940151835180998192631c2e21b960e11b83528883016105ff565b0381845afa968715610ce1578997610da6575b506080825180926346c1c31160e11b82528180610b628b8a83019190602083019252565b03915afa908115610ce1578991610d78575b508651610b89906001600160a01b0316610aca565b94610b976060830151151590565b15610d685782516389610a0960e01b81528581018881526001600160a01b039788169391908690829081906020010381875afa908115610ce1578c91610d3b575b5015610d2b578401518a91906001600160a01b031698878a1615610d19575b5091879899610c2197989286948651998a9586948593634e35cfc560e11b855233928d860161382d565b03925af1938415610ce15788928395610cea575b50508154610c4b906001600160a01b0316610aca565b803b15610ce6579051630a5f1ec560e01b81529283018681526001600160a01b0380891660208301528516604082015292939284919082908490829060600103925af1918215610ce1578392610cc8575b50169216907fd201fb416d8b5e50c9066521ecfc94d1821b6139fc0e7b39b3c680262c0fed988480a480f35b80610cd5610cdb92610405565b806103af565b5f610c9c565b61249b565b8280fd5b610d0a929550803d10610d12575b610d02818361046e565b810190613818565b925f80610c35565b503d610cf8565b516001600160a01b0316985084610bf7565b8351632edd9d0f60e21b81528690fd5b610d5b9150863d8811610d61575b610d53818361046e565b810190613533565b5f610bd8565b503d610d49565b8251632edd9d0f60e21b81528590fd5b610d99915060803d8111610d9f575b610d91818361046e565b8101906137b8565b5f610b74565b503d610d87565b610dc891975060603d8111610dcf575b610dc0818361046e565b810190612fb9565b955f610b3e565b503d610db6565b610df39193503d808b833e610deb818361046e565b810190612eb4565b915f610b0a565b346102de575f3660031901126102de57610e12612050565b5f80516020614605833981519152805460ff811615610e5d5760ff191690557f5db9ee0a495bf2e6ff9c91a7834c1ba4fdd244a5e8aa4e537bd38aeae4b073aa6020604051338152a1005b604051638dfc202b60e01b8152600490fd5b346102de5760403660031901126102de57602061030d600435610e91816102cd565b60243590613cac565b60409060031901126102de57600435610eb2816102cd565b90602435610610816102cd565b346102de57610ecd36610e9a565b905f8051602061462583398151915254916001600160401b0360ff8460401c1615931680159081610fd5575b6001149081610fcb575b159081610fc2575b50610fb0575f80516020614625833981519152805467ffffffffffffffff19166001179055610f3e9183610f8c57612c32565b610f4457005b5f80516020614625833981519152805460ff60401b19169055604051600181527fc7f505b2f371ae2175ee4913f4499e1f2633a7b5936321eed1cdaeb6115181d290602090a1005b5f80516020614625833981519152805460ff60401b1916600160401b179055612c32565b60405163f92ee8a960e01b8152600490fd5b9050155f610f0b565b303b159150610f03565b849150610ef9565b9081518082526020808093019301915f5b828110610ffc575050505090565b835185529381019392810192600101610fee565b906020610610928181520190610fdd565b346102de5760403660031901126102de576004356001600160401b038082116102de57366023830112156102de57816004013561105d816107a5565b9261106b604051948561046e565b81845260209160248386019160051b830101913683116102de57602401905b8282106110c357856024358681116102de57610669916110b16110b79236906004016107bc565b906124f5565b60405191829182611010565b83809183356110d1816102cd565b81520191019061108a565b60403660031901126102de5760048035906110f6826102cd565b6024356001600160401b0381116102de57611114903690830161086b565b6001600160a01b037f00000000000000000000000000000000000000000000000000000000000000008116308114908115611225575b5061121457906020839261115c6120b8565b6040516352d1902d60e01b8152938491829088165afa5f92816111e4575b506111a8575050604051634c9c8ce360e01b81526001600160a01b0390921690820190815281906020010390fd5b83835f805160206145a583398151915284036111c85761001883836129ac565b604051632a87526960e21b815290810184815281906020010390fd5b61120691935060203d811161120d575b6111fe818361046e565b81019061248c565b915f61117a565b503d6111f4565b60405163703e46dd60e11b81528390fd5b9050815f805160206145a5833981519152541614155f61114a565b346102de575f3660031901126102de577f00000000000000000000000000000000000000000000000000000000000000006001600160a01b031630036112975760206040515f805160206145a58339815191528152f35b60405163703e46dd60e11b8152600490fd5b346102de575f3660031901126102de57602060ff5f8051602061460583398151915254166040519015158152f35b346102de5760203660031901126102de57602061030d60043561406f565b346102de5760203660031901126102de5760043561135061131582613f73565b5f8054909391908490611330906001600160a01b0316610aca565b916040518095819263f2be2c8560e01b8352600483019190602083019252565b0381845afa908115610ce157602060609261138b95879161143d575b500151906040518080968194631c2e21b960e11b8352600483016105ff565b03915afa908115610ce1576113bb610aca610aca6020946113db96889161141f575b50516001600160a01b031690565b6040518080958194633f5bf8bb60e11b8352600483019190602083019252565b03915afa908115610ce1576106699291611401575b506040519081529081906020820190565b611419915060203d811161120d576111fe818361046e565b5f6113f0565b611437915060603d8111610dcf57610dc0818361046e565b5f6113ad565b61145191503d8089833e610deb818361046e565b5f61136c565b346102de575f3660031901126102de5760206040517f7804d923f43a17d325d77e781528e0793b2edd9890ab45fc64efd7b4b427744c8152f35b346102de575f3660031901126102de576114a9612050565b6114b1613a37565b5f80516020614605833981519152600160ff198254161790557f62e78cea01bee320cd4e420270b5ea74000d11b0c9f74754ebdbfc544b05a2586020604051338152a1005b346102de5760403660031901126102de57602060ff61154860243561151a816102cd565b6004355f525f805160206145e5833981519152845260405f209060018060a01b03165f5260205260405f2090565b54166040519015158152f35b346102de576115ac61156536610a4f565b92909161157181613f73565b5f805490959190869061158c906001600160a01b0316610aca565b916040518096819263f2be2c8560e01b8352600483019190602083019252565b0381845afa908115610ce15760206060926115e7968991611664575b500151906040518080978194631c2e21b960e11b8352600483016105ff565b03915afa928315610ce157610aca610aca879561161293879161141f5750516001600160a01b031690565b90813b15611660578361163e9560405196879586948593636c5f71ab60e11b855233926004860161382d565b03925af18015610ce157611650575080f35b80610cd561165d92610405565b80f35b8380fd5b61167891503d808b833e610deb818361046e565b5f6115c8565b346102de575f806003193601126106d0576040518160025461169f816103b9565b808452906001908181169081156106a857506001146116c8576106698461065d8188038261046e565b60028352602094507f405787fa12a823e0f2b7631cc41b3ba8828b3321ca811111fa75cd3aa3bb5ace5b82841061170e57505050816106699361065d928201019361064d565b80548585018701529285019281016116f2565b61172d61156536610a4f565b0381845afa908115610ce157602060609261176796899161166457500151906040518080978194631c2e21b960e11b8352600483016105ff565b03915afa928315610ce157610aca610aca879561179293879161141f5750516001600160a01b031690565b90813b15611660576117bd9460405195869485938493630c39ed6960e31b855233926004860161382d565b039134905af18015610ce157611650575080f35b6117dd61156536610a4f565b0381845afa908115610ce157602060609261181796899161166457500151906040518080978194631c2e21b960e11b8352600483016105ff565b03915afa928315610ce157610aca610aca879561184293879161141f5750516001600160a01b031690565b90813b15611660576117bd9460405195869485938493631a04a52d60e21b855233926004860161382d565b346102de575f3660031901126102de5760206040515f8152f35b801515036102de57565b346102de5760403660031901126102de576118ad6004356102cd565b6118b8602435611887565b6040516305d39ac360e51b8152600490fd5b346102de575f3660031901126102de5760206040517fcbaaf41b181bb6e269c490e876a7c97711b57e21dd8e5528423cf57579726b358152f35b346102de575f3660031901126102de5761066960405161192381610438565b60058152640352e302e360dc1b60208201526040519182916020835260208301906105da565b60803660031901126102de5760048035602435611965816102cd565b6001600160401b036044358181116102de57366023820112156102de576119959036906024818801359101610835565b906064359081116102de576119ad903690860161086b565b915f936119c3610aca865460018060a01b031690565b604090815163f2be2c8560e01b81528781806119e6878d83019190602083019252565b0381855afa908115610ce1578891611b65575b50611a1d606060208301518b86519384928392631c2e21b960e11b845283016105ff565b0381865afa908115610ce1578991611b47575b5081516001600160a01b031615611b375781840151611b2757610100820151611b1757610140820151611b075760200151611af757518251636f77926b60e01b81526001600160a01b03909116898201908152909188918391908290819060200103915afa8015610ce1576060611ab3916001938a91611ad5575b500151151590565b151514611ac6575061165d9495506130b1565b5163a800bb9d60e01b81528690fd5b611af191503d808c833e611ae9818361046e565b810190613017565b5f611aab565b8251631bd063c360e01b81528990fd5b835163598e002360e11b81528a90fd5b8351630f0365d360e21b81528a90fd5b8351635d71fd6f60e01b81528a90fd5b83516385a6706360e01b81528a90fd5b611b5f915060603d8111610dcf57610dc0818361046e565b5f611a30565b611b7991503d808a833e610deb818361046e565b5f6119f9565b346102de575f60203660031901126106d057611b996120fc565b805481906001600160a01b0316803b15611bfb5781906024604051809481936362d1e3e560e11b835260043560048401525af18015610ce157611bec575b505f805160206146658339815191528180a180f35b611bf590610405565b5f611bd7565b50fd5b346102de5760403660031901126102de57610018602435600435611c21826102cd565b805f525f805160206145e5833981519152602052611c45600160405f200154612152565b6123f7565b346102de5760203660031901126102de57600435611c6a61131582613f73565b0381845afa908115610ce1576020606092611ca495879161143d57500151906040518080968194631c2e21b960e11b8352600483016105ff565b03915afa908115610ce157611cd3610aca610aca6020946113db96889161141f5750516001600160a01b031690565b604051808095819463d7deba1560e01b8352600483019190602083019252565b346102de5760203660031901126102de576020611d11600435613e9e565b6040519015158152f35b346102de575f60203660031901126106d057611d356120fc565b805481906001600160a01b0316803b15611bfb57819060246040518094819363e181865160e01b835260043560048401525af18015610ce157611bec57505f805160206146658339815191528180a180f35b346102de575f3660031901126102de5760206040515f805160206145c58339815191528152f35b346102de575f3660031901126102de5760206040517f0ce23c3e399818cfee81a7ab0880f714e53d7672b08df0fa62f2843416e1ea098152f35b346102de57602060ff61154861099b611e0036610e9a565b9190612018565b346102de575f60203660031901126106d057611e216120fc565b805481906001600160a01b0316803b15611bfb5781906024604051809481936378ff38bf60e11b835260043560048401525af18015610ce157611bec57505f805160206146658339815191528180a180f35b346102de5760a03660031901126102de57600435611e90816102cd565b602435611e9c816102cd565b6084356001600160401b0381116102de57611ebb90369060040161086b565b906001600160a01b03838116903382141580611f72575b611f4b57821615611f335715611f1c5761001892611f146064356044359160405192600184526020840152604083019160018352606084015260808301604052565b92909161259f565b604051626a0d4560e21b81525f6004820152602490fd5b604051632bfa23e760e11b81525f6004820152602490fd5b60405163711bec9160e11b81523360048201526001600160a01b0386166024820152604490fd5b5060ff611f823361099b88612018565b541615611ed2565b346102de575f3660031901126102de5760206040515f805160206145858339815191528152f35b346102de575f3660031901126102de5760206040517f11a8cb5a02bd6c42679835e867ef2118ba78f088f8300511420c6603c21d9c788152f35b5f527f88be536d5240c274a3b1d3a1be54482fd9caa294f08c62a7cde569f49a3c450060205260405f2090565b6001600160a01b03165f9081527f88be536d5240c274a3b1d3a1be54482fd9caa294f08c62a7cde569f49a3c45016020526040902090565b335f9081527f75442b0a96088b5456bc4ed01394c96a4feec0f883c9494257d76b96ab1c9b6b602052604090205f805160206145c58339815191529060ff905b54161561209a5750565b6044906040519063e2517d3f60e01b82523360048301526024820152fd5b335f9081527fab71e3f32666744d246edff3f96e4bdafee2e9867098cdd118a979a7464786a8602052604090205f805160206145858339815191529060ff90612090565b335f9081527fb7db2dd08fcb62d0c9e08c51941cae53c267786a0b75803fb7960902fc8ef97d602052604090205460ff161561213457565b60405163e2517d3f60e01b81523360048201525f6024820152604490fd5b5f8181525f805160206145e583398151915260209081526040808320338452909152902060ff90612090565b6001600160a01b0381165f9081527fb7db2dd08fcb62d0c9e08c51941cae53c267786a0b75803fb7960902fc8ef97d60205260408120545f805160206145e58339815191529060ff1661222a57818052602090815260408083206001600160a01b0385165f90815292529020805460ff1916600117905533916001600160a01b0316907f2f8788117e7eff1d82e926ec794901d17c78024a50270940304540a733656f0d8180a4600190565b50905090565b6001600160a01b0381165f9081527f75442b0a96088b5456bc4ed01394c96a4feec0f883c9494257d76b96ab1c9b6b602052604081205f805160206145c5833981519152905f805160206145e58339815191529060ff905b54166122ed57818352602090815260408084206001600160a01b0386165f90815292529020805460ff1916600117905533926001600160a01b0316917f2f8788117e7eff1d82e926ec794901d17c78024a50270940304540a733656f0d9080a4600190565b5050905090565b6001600160a01b0381165f9081527fab71e3f32666744d246edff3f96e4bdafee2e9867098cdd118a979a7464786a8602052604081205f80516020614585833981519152905f805160206145e58339815191529060ff90612288565b6001600160a01b0381165f9081527fd56b761303e15a4cbea84f37eba80a5289f49fda0b4884e30ac1d73eb9b8b143602052604081207f0ce23c3e399818cfee81a7ab0880f714e53d7672b08df0fa62f2843416e1ea09905f805160206145e58339815191529060ff90612288565b5f8181525f805160206145e5833981519152602081815260408084206001600160a01b0387168552909152822091929160ff90612288565b5f8181525f805160206145e5833981519152602081815260408084206001600160a01b038716855290915282205491929160ff16156122ed57818352602090815260408084206001600160a01b0386165f90815292529020805460ff1916905533926001600160a01b0316917ff6391f5c32d9c69d2a47ea670b442974b53935d1edc7fd64eb21e047a839171b9080a4600190565b908160209103126102de575190565b6040513d5f823e3d90fd5b634e487b7160e01b5f52601160045260245ffd5b5f1981146124c85760010190565b6124a6565b80518210156124e15760209160051b010190565b634e487b7160e01b5f52603260045260245ffd5b9190918051835180820361257d575050805190612511826107a5565b9161251f604051938461046e565b80835261252e601f19916107a5565b019060209136838501375f5b815181101561257557806125606125709260051b85808287010151918a01015190613a61565b61256a82876124cd565b526124ba565b61253a565b509193505050565b604051635b05999160e01b815260048101919091526024810191909152604490fd5b919392906125ab613a37565b5f546125bf906001600160a01b0316610aca565b6040516301719d2b60e01b81526001600160a01b038516600482015290606090829060249082905afa908115610ce1575f9161266f575b506001600160a01b039084821615159081612662575b506118b85761261d838784876143fa565b811661262b575b5050505050565b845160010361265157602080612647960151920151923361282c565b5f80808080612624565b61265d94919233612975565b612647565b604001511590505f61260c565b612687915060603d8111610dcf57610dc0818361046e565b5f6125f6565b908160209103126102de575161061081610315565b909260a0926106109594600180861b031683525f60208401526040830152606082015281608082015201906105da565b919261061095949160a094600180871b0380921685521660208401526040830152606082015281608082015201906105da565b3d1561272f573d906127168261081a565b91612724604051938461046e565b82523d5f602084013e565b606090565b9293919093843b612746575050505050565b602091612769604051948593849363f23a6e6160e01b98898652600486016126a2565b03815f6001600160a01b0388165af15f91816127fc575b506127bf578261278e612705565b80519190826127b857604051632bfa23e760e11b81526001600160a01b0383166004820152602490fd5b9050602001fd5b6001600160e01b031916036127d957505f80808080612624565b604051632bfa23e760e11b81526001600160a01b03919091166004820152602490fd5b61281e91925060203d8111612825575b612816818361046e565b81019061268d565b905f612780565b503d61280c565b939290949194853b612841575b505050505050565b612864602093604051958694859463f23a6e6160e01b998a8752600487016126d2565b03815f6001600160a01b0388165af15f91816128a4575b50612889578261278e612705565b6001600160e01b031916036127d957505f8080808080612839565b6128bd91925060203d811161282557612816818361046e565b905f61287b565b926128f261061095936129009360018060a01b031686525f602087015260a0604087015260a0860190610fdd565b908482036060860152610fdd565b9160808184039101526105da565b939061061095936128f2916129009460018060a01b03809216885216602087015260a0604087015260a0860190610fdd565b9293919093843b612952575050505050565b602091612769604051948593849363bc197c8160e01b98898652600486016128c4565b939290949194853b61298957505050505050565b612864602093604051958694859463bc197c8160e01b998a87526004870161290e565b90813b15612a30575f805160206145a583398151915280546001600160a01b0319166001600160a01b0384169081179091557fbc7cd75a20ee27fd9adebab32041f755214dbc6bffa90cc0225b39da2e5c2d3b5f80a2805115612a1557612a1291612a51565b50565b505034612a1e57565b60405163b398979f60e01b8152600490fd5b604051634c9c8ce360e01b81526001600160a01b0383166004820152602490fd5b5f8061061093602081519101845af4612a68612705565b9190612a905750805115612a7e57805190602001fd5b604051630a12f52160e11b8152600490fd5b81511580612ac3575b612aa1575090565b604051639996b31560e01b81526001600160a01b039091166004820152602490fd5b50803b15612a99565b818110612ad7575050565b5f8155600101612acc565b90601f8211612aef575050565b6104d9915f805160206146458339815191525f5260205f20906020601f840160051c83019310612b27575b601f0160051c0190612acc565b9091508190612b1a565b9190601f8111612b4057505050565b6104d9925f5260205f20906020601f840160051c83019310612b2757601f0160051c0190612acc565b612b746001546103b9565b601f8111612b92575b50601067546865426164676560c01b01600155565b60015f52612bca90601f0160051c7fb10e2d527612073b26eecdfd717e6a320cf44b4afac2b0732d9fcbe2b7fa0cf690810190612acc565b5f612b7d565b612bdb6002546103b9565b601f8111612bf4575b506006621091d160ea1b01600255565b60025f52612c2c90601f0160051c7f405787fa12a823e0f2b7631cc41b3ba8828b3321ca811111fa75cd3aa3bb5ace90810190612acc565b5f612be4565b6040519291612c4084610453565b5f91828552612c4d612e06565b612c55612e06565b84516001600160401b038111610418575f8051602061464583398151915290612c8781612c8284546103b9565b612ae2565b602080601f8311600114612d53575081908697987f36b1453565f45af7b509b59d5e2eac8f1948ea9e3e193db6663b4101afb6382c9792612d48575b50508160011b915f199060031b1c19161790555b612cdf612e06565b612ce7612e34565b612cef612e06565b612cf88161217e565b50612d0281612230565b50612d0c816122f4565b50612d1681612350565b505f80546001600160a01b0319166001600160a01b03938416179055612d3a612b69565b612d42612bd0565b169180a2565b015190505f80612cc3565b5f805160206146458339815191525f529197601f1989167ff429cb5e2ec84cbb765e76b31964a56ccde03e7a6122d6cc4afb19edc55edeed9388905b828210612dee57505091600193918a7f36b1453565f45af7b509b59d5e2eac8f1948ea9e3e193db6663b4101afb6382c999a9b9410612dd6575b505050811b019055612cd7565b01515f1960f88460031b161c191690555f8080612dc9565b80600186978294978701518155019601940190612d8f565b60ff5f805160206146258339815191525460401c1615612e2257565b604051631afcd79f60e31b8152600490fd5b612e3c612e06565b612e44612e06565b5f80516020614605833981519152805460ff19169055565b51906104d9826102cd565b81601f820112156102de578051612e7d8161081a565b92612e8b604051948561046e565b818452602082840101116102de5761061091602080850191016105b9565b51906104d982611887565b6020818303126102de5780516001600160401b03918282116102de5701610180818403126102de57612ee4610766565b92612eee82612e5c565b845260208201518381116102de5781612f08918401612e67565b6020850152612f1960408301612ea9565b6040850152606082015160608501526080820151608085015260a082015160a0850152612f4860c08301612ea9565b60c085015260e08201518381116102de5781612f65918401612e67565b60e0850152610100612f78818401612ea9565b908501526101208083015190850152610140612f95818401612ea9565b9085015261016092838301519081116102de57612fb29201612e67565b9082015290565b908160609103126102de576040519060608201908282106001600160401b038311176104185760409182528051612fef816102cd565b83526020810151612fff81611887565b6020840152015161300f81611887565b604082015290565b906020828203126102de5781516001600160401b03928382116102de570160a0818303126102de576040519261304c8461041d565b81519081116102de57608092613063918301612e67565b8352602081015161307381611887565b6020840152604081015161308681611887565b6040840152606081015161309981611887565b606084015201516130a981611887565b608082015290565b9192907f9b779b17422d0df92223018b32b4d1fa46e071723d6817e2486d003becc55f0060028154146135215760029055806130ec8461406f565b341061350f575f8054909385939161310c906001600160a01b0316610aca565b94604097818951809863f2be2c8560e01b8252818061313460049d8e83019190602083019252565b03915afa968715610ce15782976134ef575b50869760606131909798019889516134e1575b835461316d906001600160a01b0316610aca565b9260209360608d868501519051809c8192631c2e21b960e11b83528883016105ff565b0381845afa998a15610ce157869a6134c1575b5089516131b8906001600160a01b0316610aca565b6001600160a01b03999091908e908d818d1615613421575b5050516308e5bf2160e01b81529086908290879082905afa9c8d15610ce1578e91889e6133e1575b50918c8e928c8861322b8e61320f8d995134613548565b945163f6563d5f60e01b81529e8f988997889533908701613555565b0393165af1958615610ce15785966133b9575b509061324c6080928c61368e565b61325e61325761358f565b8c896135ba565b0151806133aa5750825b61328b86613274610786565b8b81526001600160a01b0390911694810194909452565b828b01526001606083015282546132aa906001600160a01b0316610aca565b90813b15611660578a51634085b52760e01b81529081018a815283516020808301919091528401516001600160a01b0316604080830191909152840151606080830191909152909301511515608084015293929184919082908490829060a00103925af18015610ce1577f186b125f639893ac3dcb02d857d0fd29319e8f764fd26f4a77310e8c678fbbd095613371936133509261339d5750516001600160a01b031690565b97516001600160a01b03909816885260208801529116949081906040820190565b0390a46104d960017f9b779b17422d0df92223018b32b4d1fa46e071723d6817e2486d003becc55f0055565b80610cd561143792610405565b6133b490426135ad565b613268565b6080929196506133d861324c91863d881161120d576111fe818361046e565b9691925061323e565b8793919e508a928c8f928990873d891161341a575b613400818361046e565b810161340b9161248c565b9e50509c9f92945092506131f8565b503d6133f6565b9151631007fbe560e21b81528088019283526001600160a01b03909116602083015298995096979596949593949293919290919087908290819060400103818d87165afa908115610ce15788916134a4575b50156134945789516001600160a01b031697969594939291908d858d6131d0565b8c51634dae13df60e01b81528590fd5b6134bb9150873d8911610d6157610d53818361046e565b5f613473565b6134da919a5060603d8111610dcf57610dc0818361046e565b985f6131a3565b6134ea8961389a565b613159565b613190969750613508903d8085833e610deb818361046e565b9695613146565b6040516393fda7e360e01b8152600490fd5b604051633ee5aeb560e01b8152600490fd5b908160209103126102de575161061081611887565b919082039182116124c857565b93608093613588929397969760018060a01b0380951687526020870152604086015260a0606086015260a08501906105da565b9416910152565b6040519061359c82610438565b6002825261060f60f31b6020830152565b919082018092116124c857565b91906001600160a01b03831615611f33576135f4604051916001835260208301526040820190600182526001606084015260808301604052565b906135fd613a37565b5f54613611906001600160a01b0316610aca565b6040516301719d2b60e01b81525f600482015290606090829060249082905afa8015610ce157613670575b506136488282866142ea565b805160010361366657906020806104d9959301519101519133612734565b6104d99333612940565b6136879060603d8111610dcf57610dc0818361046e565b505f61363c565b919091805f5260207f89fc852226e759c7c636cf34d732f0198fc56a54876b2374a52beb7b0c558601815260405f20908451906001600160401b038211610418576136e3826136dd85546103b9565b85612b31565b80601f831160011461374d575081929394955f92613742575b50508160011b915f199060031b1c19161790555b7f6bb7ff708619ba0610cba295a58592e0451dee2622938c8755667688daf3529b61373d61065d836141b0565b0390a2565b015190505f806136fc565b90601f19831696613761855f5260205f2090565b925f905b8982106137a05750508360019596979810613788575b505050811b019055613710565b01515f1960f88460031b161c191690555f808061377b565b80600185968294968601518155019501930190613765565b908160809103126102de576040519060808201908282106001600160401b03831117610418576060916040528051835260208101516137f6816102cd565b602084015260408101516040840152015161381081611887565b606082015290565b908160209103126102de5751610610816102cd565b9280604093608093979697865260606020870152816060870152838601375f828286010152601f80199101168301019360018060a01b0316910152565b909160a092600180851b031682526020820152606060408201526002606082015261060f60f31b60808201520190565b5f8054909291906138b3906001600160a01b0316610aca565b6040805163f2be2c8560e01b8152600481018490529490918186602481845afa958615610ce1578296613a13575b509060206004928451938480926331056e5760e21b82525afa918215610ce15781926139f3575b506060860191613929613921845160a08a015190613f40565b809451613548565b916001600160a01b0382168180808088855af1613944612705565b50156139e257818791875196877fdf7cc5ebdb7be805a1d96fd982aba37cbf8e9169d6f34870e8d63a62cd492f649889923390613981918361386a565b0390a4875181908190819086906001600160a01b03165af16139a1612705565b50156139d1576139cc6139c1610aca60019798995160018060a01b031690565b94519283928361386a565b0390a4565b8351633b50281160e11b8152600490fd5b85516372f7724f60e01b8152600490fd5b613a0c91925060203d8111610d1257610d02818361046e565b905f613908565b600492919650613a2e6020913d8085833e610deb818361046e565b969192506138e1565b60ff5f805160206146058339815191525416613a4f57565b60405163d93c066560e01b8152600490fd5b5f8054909290613a79906001600160a01b0316610aca565b6040516346c1c31160e11b8152600481018390529092608082602481875afa918215610ce1578592613c13575b50606082015115908115613bf7575b50613bd057836001613ac684613e9e565b151514613bf057905160405163f2be2c8560e01b815260048101919091529081602481865afa908115610ce1578491613bd6575b506001613b13613b0e610100840151151590565b151590565b14613bd057613b3f9260206060920151906040518080968194631c2e21b960e11b8352600483016105ff565b03915afa908115610ce157613b6e610aca610aca602094613b8e96889161141f5750516001600160a01b031690565b6040518080958194631174806160e11b8352600483019190602083019252565b03915afa908115610ce1578291613bb2575b5015613bac5750600190565b60ff1690565b613bca915060203d8111610d6157610d53818361046e565b5f613ba0565b50505090565b613bea91503d8086833e610deb818361046e565b5f613afa565b5050505090565b60208301516001600160a01b039182169116141590505f613ab5565b613c2c91925060803d8111610d9f57610d91818361046e565b905f613aa6565b60209081818403126102de578051906001600160401b0382116102de57019180601f840112156102de578251613c68816107a5565b93613c76604051958661046e565b818552838086019260051b8201019283116102de578301905b828210613c9d575050505090565b81518152908301908301613c8f565b5f80549093929190613cc6906001600160a01b0316610aca565b604080516304239ea560e11b815260048082018690526001600160a01b03949094166024820152909590939091908285604481855afa948515610ce1578395613e7a575b50845115613e7157865163f2be2c8560e01b815284810191825291908390839081906020010381845afa918215610ce1578392613e4e575b506060613d69916020809401519089518080958194631c2e21b960e11b83528a83016105ff565b03915afa908115610ce157613d9091610aca91859161141f5750516001600160a01b031690565b8294835b8151811015613e4357613da781836124cd565b5184613db5613b0e83613e9e565b159182613de7575b5050613dd2575b613dcd906124ba565b613d94565b95613ddf613dcd916124ba565b969050613dc4565b8b51631174806160e11b815289810191825292508290819060200103816001600160a01b0388165afa908115610ce1578691613e26575b50845f613dbd565b613e3d9150853d8711610d6157610d53818361046e565b5f613e1e565b509496505050505050565b613d69919250613e696060913d8087833e610deb818361046e565b929150613d42565b50909450505050565b613e979195503d8085833e613e8f818361046e565b810190613c33565b935f613d0a565b613ed860805f92613eb8610aca855460018060a01b031690565b60405180809581946346c1c31160e11b8352600483019190602083019252565b03915afa908115610ce1578291613f0f575b50606081015115613f0b57604001518015613f0b5742106106105750600190565b5090565b613f27915060803d8111610d9f57610d91818361046e565b5f613eea565b818102929181159184041417156124c857565b6127109182613f4f8284613f2d565b10613f6157613f5d91613f2d565b0490565b604051633032107560e21b8152600490fd5b5f54613faf9190608090613f8f906001600160a01b0316610aca565b91604051809481926346c1c31160e11b8352600483019190602083019252565b0381845afa918215610ce1575f9261404f575b5060608201511561403d57815160405163f2be2c8560e01b81526004810191909152905f90829060249082905afa908115610ce1575f91614024575b50516001600160a01b031615614012575190565b6040516385a6706360e01b8152600490fd5b614037913d8091833e610deb818361046e565b5f613ffe565b60405163f97195bf60e01b8152600490fd5b61406891925060803d8111610d9f57610d91818361046e565b905f613fc2565b5f8054909190614087906001600160a01b0316610aca565b60405163f2be2c8560e01b81526004810183905290918382602481865afa918215610ce157849261417d575b5081516001600160a01b0316156140125760606140eb936020840151906040518080978194631c2e21b960e11b8352600483016105ff565b03915afa908115610ce15761411a610aca610aca60209461413a97899161141f5750516001600160a01b031690565b604051808096819463632f7c8360e01b8352600483019190602083019252565b03915afa918215610ce157610610939261415a575b5060600151906135ad565b60609192506141769060203d811161120d576111fe818361046e565b919061414f565b6141929192503d8086833e610deb818361046e565b905f6140b3565b906141ac602092828151948592016105b9565b0190565b5f90815260207f89fc852226e759c7c636cf34d732f0198fc56a54876b2374a52beb7b0c55860181526141e56040832061053e565b8051909190156142ba57604051928391817f89fc852226e759c7c636cf34d732f0198fc56a54876b2374a52beb7b0c558600908154614223816103b9565b92600191808316908115614297575060011461425a575b505050505061424c9061061093614199565b03601f19810183528261046e565b90918093949550528382205b838310614281575050508201018261424c6106105f8061423a565b8054888401860152879550918401918101614266565b60ff191688870152505050508015150283010190508261424c6106105f8061423a565b50505061061061048f565b90916142dc61061093604084526040840190610fdd565b916020818403910152610fdd565b919091825182519081810361257d5750505f5b835181101561435e57600581901b8481016020908101519185010151614337929184906001600160a01b03821661433c575b5050506124ba565b6142fd565b6143549161099b61434c92611feb565b9182546135ad565b90555f838161432f565b509160018151145f146143bc576020908101519181015160408051938452918301526001600160a01b03909216915f9133917fc3d58168c5ae7397731d063d5bbf3d657854427343f4c083240f7aacaa2d0f629190819081016139cc565b7f4a39dc06d4c0dbc64b70af90fd698a233a518aa5d07e595d983b8c0526c8f7fb6139cc5f939460405191829160018060a01b0316963395836142c5565b939291805183519081810361257d5750505f5b81518110156144df57600581901b82810160209081015191860101516001600160a01b039291859089851661446e575b61444f948216614454575050506124ba565b61440d565b6144649161099b61434c92611feb565b90555f848161432f565b91929390506144808961099b84611feb565b548381106144a8579186918461444f969594036144a08c61099b85611feb565b55945061443d565b6040516303dee4c560e01b81526001600160a01b038b16600482015260248101919091526044810184905260648101839052608490fd5b508051939493919291600103614541576020908101519181015160408051938452918301526001600160a01b03928316939092169133917fc3d58168c5ae7397731d063d5bbf3d657854427343f4c083240f7aacaa2d0f6291819081016139cc565b6040516001600160a01b03938416949093169233927f4a39dc06d4c0dbc64b70af90fd698a233a518aa5d07e595d983b8c0526c8f7fb9282916139cc91836142c556fe189ab7a9244df0848122154315af71fe140f3db0fe014031783b0946b8c9d2e3360894a13ba1a3210667c828492db98dca3e2076cc3735a920a3ca505d382bbc65d7a28e3265b37a6474929f336521b332c1681b933f6cb9f3376673440d862a02dd7bc7dec4dceedda775e58dd541e08a116c6c53815c0bd028192f7b626800cd5ed15c6e187e77e9aee88184c21f4f2182ab5827cb3b7e07fbedcd63f03300f0c57e16840df040f15088dc2f81fe391c3923bec73e23a9662efc9c229c6a0088be536d5240c274a3b1d3a1be54482fd9caa294f08c62a7cde569f49a3c4502810f1720fbc34c56d171f89315ad21708648fd17424c27b88fa208409845aa77a264697066735822122057b52e740aa8e93691ae77db3aa5481149861806c84f7b0af804283554bf743164736f6c63430008140033",
  "linkReferences": {},
  "deployedLinkReferences": {}
}